{"src/CommunityHub.sol":{"CommunityHub":{"abi":[{"inputs":[],"stateMutability":"nonpayable","type":"constructor"},{"inputs":[{"internalType":"uint256","name":"expected","type":"uint256"},{"internalType":"uint256","name":"actual","type":"uint256"}],"name":"AmountMismatch","type":"error"},{"inputs":[{"internalType":"uint256","name":"guardian","type":"uint256"}],"name":"GuardianNotFound","type":"error"},{"inputs":[],"name":"InvalidCreateElectionPermission","type":"error"},{"inputs":[{"internalType":"address","name":"owner","type":"address"}],"name":"OwnableInvalidOwner","type":"error"},{"inputs":[{"internalType":"address","name":"account","type":"address"}],"name":"OwnableUnauthorizedAccount","type":"error"},{"inputs":[],"name":"ZeroAmount","type":"error"},{"anonymous":false,"inputs":[{"indexed":false,"internalType":"uint256","name":"communityId","type":"uint256"}],"name":"AdminCommunityManaged","type":"event"},{"anonymous":false,"inputs":[{"indexed":false,"internalType":"uint256","name":"communityId","type":"uint256"},{"components":[{"internalType":"enum ICommunityHub.CensusType","name":"censusType","type":"uint8"},{"components":[{"internalType":"string","name":"blockchain","type":"string"},{"internalType":"address","name":"contractAddress","type":"address"}],"internalType":"struct ICommunityHub.Token[]","name":"tokens","type":"tuple[]"},{"internalType":"string","name":"channel","type":"string"}],"indexed":false,"internalType":"struct ICommunityHub.Census","name":"census","type":"tuple"}],"name":"CensusSet","type":"event"},{"anonymous":false,"inputs":[{"indexed":false,"internalType":"uint256","name":"communityId","type":"uint256"},{"indexed":false,"internalType":"address","name":"creator","type":"address"}],"name":"CommunityCreated","type":"event"},{"anonymous":false,"inputs":[{"indexed":false,"internalType":"address","name":"sender","type":"address"},{"indexed":false,"internalType":"uint256","name":"amount","type":"uint256"},{"indexed":false,"internalType":"uint256","name":"communityId","type":"uint256"}],"name":"CommunityDeposit","type":"event"},{"anonymous":false,"inputs":[{"indexed":false,"internalType":"uint256","name":"communityId","type":"uint256"}],"name":"CommunityDisabled","type":"event"},{"anonymous":false,"inputs":[{"indexed":false,"internalType":"uint256","name":"communityId","type":"uint256"}],"name":"CommunityEnabled","type":"event"},{"anonymous":false,"inputs":[{"indexed":false,"internalType":"uint256","name":"price","type":"uint256"}],"name":"CreateCommunityPriceSet","type":"event"},{"anonymous":false,"inputs":[{"indexed":false,"internalType":"uint256","name":"communityId","type":"uint256"},{"indexed":false,"internalType":"enum ICommunityHub.CreateElectionPermission","name":"createElectionPermission","type":"uint8"}],"name":"CreateElectionPermissionSet","type":"event"},{"anonymous":false,"inputs":[{"indexed":false,"internalType":"address","name":"electionResultsContract","type":"address"}],"name":"DefaultElectionResultsContractSet","type":"event"},{"anonymous":false,"inputs":[{"indexed":false,"internalType":"address","name":"sender","type":"address"},{"indexed":false,"internalType":"uint256","name":"amount","type":"uint256"}],"name":"Deposit","type":"event"},{"anonymous":false,"inputs":[{"indexed":false,"internalType":"uint256","name":"communityId","type":"uint256"},{"indexed":false,"internalType":"address","name":"electionResultsContract","type":"address"}],"name":"ElectionResultsContractSet","type":"event"},{"anonymous":false,"inputs":[{"indexed":false,"internalType":"uint256","name":"communityId","type":"uint256"},{"indexed":false,"internalType":"uint256","name":"guardian","type":"uint256"}],"name":"GuardianAdded","type":"event"},{"anonymous":false,"inputs":[{"indexed":false,"internalType":"uint256","name":"communityId","type":"uint256"},{"indexed":false,"internalType":"uint256","name":"guardian","type":"uint256"}],"name":"GuardianRemoved","type":"event"},{"anonymous":false,"inputs":[{"indexed":false,"internalType":"uint256","name":"communityId","type":"uint256"},{"components":[{"internalType":"string","name":"name","type":"string"},{"internalType":"string","name":"imageURI","type":"string"},{"internalType":"string","name":"groupChatURL","type":"string"},{"internalType":"string[]","name":"channels","type":"string[]"},{"internalType":"bool","name":"notifications","type":"bool"}],"indexed":false,"internalType":"struct ICommunityHub.CommunityMetadata","name":"metadata","type":"tuple"}],"name":"MetadataSet","type":"event"},{"anonymous":false,"inputs":[{"indexed":false,"internalType":"uint256","name":"communityId","type":"uint256"},{"indexed":false,"internalType":"bool","name":"notifiableElections","type":"bool"}],"name":"NotifiableElectionsSet","type":"event"},{"anonymous":false,"inputs":[{"indexed":true,"internalType":"address","name":"previousOwner","type":"address"},{"indexed":true,"internalType":"address","name":"newOwner","type":"address"}],"name":"OwnershipTransferred","type":"event"},{"anonymous":false,"inputs":[{"indexed":false,"internalType":"uint256","name":"price","type":"uint256"}],"name":"PricePerElectionSet","type":"event"},{"anonymous":false,"inputs":[{"indexed":false,"internalType":"uint256","name":"communityId","type":"uint256"},{"indexed":false,"internalType":"bytes32","name":"electionId","type":"bytes32"}],"name":"ResultsSet","type":"event"},{"anonymous":false,"inputs":[{"indexed":false,"internalType":"uint256","name":"amount","type":"uint256"},{"indexed":false,"internalType":"address","name":"to","type":"address"}],"name":"Withdrawal","type":"event"},{"inputs":[{"internalType":"uint256","name":"_communityId","type":"uint256"},{"internalType":"uint256","name":"_guardian","type":"uint256"}],"name":"addGuardian","outputs":[],"stateMutability":"nonpayable","type":"function"},{"inputs":[{"internalType":"uint256","name":"_communityId","type":"uint256"},{"components":[{"internalType":"string","name":"name","type":"string"},{"internalType":"string","name":"imageURI","type":"string"},{"internalType":"string","name":"groupChatURL","type":"string"},{"internalType":"string[]","name":"channels","type":"string[]"},{"internalType":"bool","name":"notifications","type":"bool"}],"internalType":"struct ICommunityHub.CommunityMetadata","name":"_metadata","type":"tuple"},{"components":[{"internalType":"enum ICommunityHub.CensusType","name":"censusType","type":"uint8"},{"components":[{"internalType":"string","name":"blockchain","type":"string"},{"internalType":"address","name":"contractAddress","type":"address"}],"internalType":"struct ICommunityHub.Token[]","name":"tokens","type":"tuple[]"},{"internalType":"string","name":"channel","type":"string"}],"internalType":"struct ICommunityHub.Census","name":"_census","type":"tuple"},{"internalType":"uint256[]","name":"_guardians","type":"uint256[]"},{"internalType":"address","name":"_electionResultsContract","type":"address"},{"internalType":"enum ICommunityHub.CreateElectionPermission","name":"_createElectionPermission","type":"uint8"},{"internalType":"bool","name":"_disabled","type":"bool"}],"name":"adminManageCommunity","outputs":[],"stateMutability":"nonpayable","type":"function"},{"inputs":[{"internalType":"uint256","name":"_price","type":"uint256"}],"name":"adminSetCommunityPrice","outputs":[],"stateMutability":"nonpayable","type":"function"},{"inputs":[{"internalType":"address","name":"_electionResultsContract","type":"address"}],"name":"adminSetDefaultElectionResultsContract","outputs":[],"stateMutability":"nonpayable","type":"function"},{"inputs":[{"internalType":"uint256","name":"_price","type":"uint256"}],"name":"adminSetPricePerElection","outputs":[],"stateMutability":"nonpayable","type":"function"},{"inputs":[{"components":[{"internalType":"string","name":"name","type":"string"},{"internalType":"string","name":"imageURI","type":"string"},{"internalType":"string","name":"groupChatURL","type":"string"},{"internalType":"string[]","name":"channels","type":"string[]"},{"internalType":"bool","name":"notifications","type":"bool"}],"internalType":"struct ICommunityHub.CommunityMetadata","name":"_metadata","type":"tuple"},{"components":[{"internalType":"enum ICommunityHub.CensusType","name":"censusType","type":"uint8"},{"components":[{"internalType":"string","name":"blockchain","type":"string"},{"internalType":"address","name":"contractAddress","type":"address"}],"internalType":"struct ICommunityHub.Token[]","name":"tokens","type":"tuple[]"},{"internalType":"string","name":"channel","type":"string"}],"internalType":"struct ICommunityHub.Census","name":"_census","type":"tuple"},{"internalType":"uint256[]","name":"_guardians","type":"uint256[]"},{"internalType":"address","name":"_electionResultsContract","type":"address"},{"internalType":"enum ICommunityHub.CreateElectionPermission","name":"_createElectionPermission","type":"uint8"}],"name":"createCommunity","outputs":[{"internalType":"uint256","name":"","type":"uint256"}],"stateMutability":"payable","type":"function"},{"inputs":[{"internalType":"uint256","name":"_communityId","type":"uint256"}],"name":"deposit","outputs":[],"stateMutability":"payable","type":"function"},{"inputs":[{"internalType":"uint256","name":"_communityId","type":"uint256"}],"name":"getCommunity","outputs":[{"components":[{"components":[{"internalType":"string","name":"name","type":"string"},{"internalType":"string","name":"imageURI","type":"string"},{"internalType":"string","name":"groupChatURL","type":"string"},{"internalType":"string[]","name":"channels","type":"string[]"},{"internalType":"bool","name":"notifications","type":"bool"}],"internalType":"struct ICommunityHub.CommunityMetadata","name":"metadata","type":"tuple"},{"components":[{"internalType":"enum ICommunityHub.CensusType","name":"censusType","type":"uint8"},{"components":[{"internalType":"string","name":"blockchain","type":"string"},{"internalType":"address","name":"contractAddress","type":"address"}],"internalType":"struct ICommunityHub.Token[]","name":"tokens","type":"tuple[]"},{"internalType":"string","name":"channel","type":"string"}],"internalType":"struct ICommunityHub.Census","name":"census","type":"tuple"},{"internalType":"uint256[]","name":"guardians","type":"uint256[]"},{"internalType":"address","name":"electionResultsContract","type":"address"},{"internalType":"enum ICommunityHub.CreateElectionPermission","name":"createElectionPermission","type":"uint8"},{"internalType":"bool","name":"disabled","type":"bool"},{"internalType":"uint256","name":"funds","type":"uint256"}],"internalType":"struct ICommunityHub.Community","name":"","type":"tuple"}],"stateMutability":"view","type":"function"},{"inputs":[],"name":"getCreateCommunityPrice","outputs":[{"internalType":"uint256","name":"","type":"uint256"}],"stateMutability":"view","type":"function"},{"inputs":[],"name":"getDefaultElectionResultsContract","outputs":[{"internalType":"address","name":"","type":"address"}],"stateMutability":"view","type":"function"},{"inputs":[],"name":"getNextCommunityId","outputs":[{"internalType":"uint256","name":"","type":"uint256"}],"stateMutability":"view","type":"function"},{"inputs":[],"name":"getPricePerElection","outputs":[{"internalType":"uint256","name":"","type":"uint256"}],"stateMutability":"view","type":"function"},{"inputs":[{"internalType":"uint256","name":"_communityId","type":"uint256"},{"internalType":"bytes32","name":"_electionId","type":"bytes32"}],"name":"getResult","outputs":[{"components":[{"internalType":"string","name":"question","type":"string"},{"internalType":"string[]","name":"options","type":"string[]"},{"internalType":"string","name":"date","type":"string"},{"internalType":"uint256[][]","name":"tally","type":"uint256[][]"},{"internalType":"uint256","name":"turnout","type":"uint256"},{"internalType":"uint256","name":"totalVotingPower","type":"uint256"},{"internalType":"uint256[]","name":"participants","type":"uint256[]"},{"internalType":"bytes32","name":"censusRoot","type":"bytes32"},{"internalType":"string","name":"censusURI","type":"string"}],"internalType":"struct IElectionResults.Result","name":"","type":"tuple"}],"stateMutability":"view","type":"function"},{"inputs":[],"name":"owner","outputs":[{"internalType":"address","name":"","type":"address"}],"stateMutability":"view","type":"function"},{"inputs":[{"internalType":"uint256","name":"_communityId","type":"uint256"},{"internalType":"uint256","name":"_guardian","type":"uint256"}],"name":"removeGuardian","outputs":[],"stateMutability":"nonpayable","type":"function"},{"inputs":[],"name":"renounceOwnership","outputs":[],"stateMutability":"nonpayable","type":"function"},{"inputs":[{"internalType":"uint256","name":"_communityId","type":"uint256"},{"components":[{"internalType":"enum ICommunityHub.CensusType","name":"censusType","type":"uint8"},{"components":[{"internalType":"string","name":"blockchain","type":"string"},{"internalType":"address","name":"contractAddress","type":"address"}],"internalType":"struct ICommunityHub.Token[]","name":"tokens","type":"tuple[]"},{"internalType":"string","name":"channel","type":"string"}],"internalType":"struct ICommunityHub.Census","name":"_census","type":"tuple"}],"name":"setCensus","outputs":[],"stateMutability":"nonpayable","type":"function"},{"inputs":[{"internalType":"uint256","name":"_communityId","type":"uint256"},{"internalType":"enum ICommunityHub.CreateElectionPermission","name":"_createElectionPermission","type":"uint8"}],"name":"setCreateElectionPermission","outputs":[],"stateMutability":"nonpayable","type":"function"},{"inputs":[{"internalType":"uint256","name":"_communityId","type":"uint256"},{"internalType":"address","name":"_electionResultsContract","type":"address"}],"name":"setElectionResultsContract","outputs":[],"stateMutability":"nonpayable","type":"function"},{"inputs":[{"internalType":"uint256","name":"_communityId","type":"uint256"},{"components":[{"internalType":"string","name":"name","type":"string"},{"internalType":"string","name":"imageURI","type":"string"},{"internalType":"string","name":"groupChatURL","type":"string"},{"internalType":"string[]","name":"channels","type":"string[]"},{"internalType":"bool","name":"notifications","type":"bool"}],"internalType":"struct ICommunityHub.CommunityMetadata","name":"_metadata","type":"tuple"}],"name":"setMetadata","outputs":[],"stateMutability":"nonpayable","type":"function"},{"inputs":[{"internalType":"uint256","name":"_communityId","type":"uint256"},{"internalType":"bool","name":"_notifiableElections","type":"bool"}],"name":"setNotifiableElections","outputs":[],"stateMutability":"nonpayable","type":"function"},{"inputs":[{"internalType":"uint256","name":"_communityId","type":"uint256"},{"internalType":"bytes32","name":"_electionId","type":"bytes32"},{"components":[{"internalType":"string","name":"question","type":"string"},{"internalType":"string[]","name":"options","type":"string[]"},{"internalType":"string","name":"date","type":"string"},{"internalType":"uint256[][]","name":"tally","type":"uint256[][]"},{"internalType":"uint256","name":"turnout","type":"uint256"},{"internalType":"uint256","name":"totalVotingPower","type":"uint256"},{"internalType":"uint256[]","name":"participants","type":"uint256[]"},{"internalType":"bytes32","name":"censusRoot","type":"bytes32"},{"internalType":"string","name":"censusURI","type":"string"}],"internalType":"struct IElectionResults.Result","name":"_result","type":"tuple"}],"name":"setResult","outputs":[],"stateMutability":"nonpayable","type":"function"},{"inputs":[{"internalType":"address","name":"newOwner","type":"address"}],"name":"transferOwnership","outputs":[],"stateMutability":"nonpayable","type":"function"},{"inputs":[],"name":"withdraw","outputs":[],"stateMutability":"nonpayable","type":"function"},{"stateMutability":"payable","type":"receive"}],"evm":{"bytecode":{"linkReferences":{},"object":"60806040523480156200001157600080fd5b5033600073ffffffffffffffffffffffffffffffffffffffff168173ffffffffffffffffffffffffffffffffffffffff1603620000885760006040517f1e4fbdf70000000000000000000000000000000000000000000000000000000081526004016200007f9190620001a9565b60405180910390fd5b6200009981620000a060201b60201c565b50620001c6565b60008060009054906101000a900473ffffffffffffffffffffffffffffffffffffffff169050816000806101000a81548173ffffffffffffffffffffffffffffffffffffffff021916908373ffffffffffffffffffffffffffffffffffffffff1602179055508173ffffffffffffffffffffffffffffffffffffffff168173ffffffffffffffffffffffffffffffffffffffff167f8be0079c531659141344cd1fd0a4f28419497f9722a3daafe3b4186f6b6457e060405160405180910390a35050565b600073ffffffffffffffffffffffffffffffffffffffff82169050919050565b6000620001918262000164565b9050919050565b620001a38162000184565b82525050565b6000602082019050620001c0600083018462000198565b92915050565b614ee780620001d66000396000f3fe60806040526004361061014f5760003560e01c8063873ceb2e116100b6578063c5bf44ab1161006f578063c5bf44ab14610473578063c8b785f31461049e578063d62b5c59146104c7578063e6160fa3146104f2578063f2fde38b1461051b578063f8867041146105445761018f565b8063873ceb2e146103845780638da5cb5b146103ad5780639532c8c3146103d8578063988a314c14610403578063aba675b01461042e578063b6b55f25146104575761018f565b806356c4e4ba1161010857806356c4e4ba146102a05780635a6cad96146102c9578063654f6a75146102f2578063715018a61461031b5780637824c05c1461033257806382e6d6381461035b5761018f565b806313e862651461019457806325fe08c9146101d1578063370603f8146101fa5780633c973f75146102375780633ccfd60b146102605780633e512ebc146102775761018f565b3661018f577fe1fffcc4923d04b559f4d29a8bfc6cda04eb5b0d3c460751c2402c5c5cc9109c3334604051610185929190611fff565b60405180910390a1005b600080fd5b3480156101a057600080fd5b506101bb60048036038101906101b6919061209e565b610574565b6040516101c891906124a7565b60405180910390f35b3480156101dd57600080fd5b506101f860048036038101906101f391906124f5565b610641565b005b34801561020657600080fd5b50610221600480360381019061021c9190612522565b6106c4565b60405161022e91906128c3565b60405180910390f35b34801561024357600080fd5b5061025e60048036038101906102599190612e36565b610ce5565b005b34801561026c57600080fd5b50610275610f11565b005b34801561028357600080fd5b5061029e60048036038101906102999190612522565b611057565b005b3480156102ac57600080fd5b506102c760048036038101906102c29190612ec9565b6110a0565b005b3480156102d557600080fd5b506102f060048036038101906102eb9190612f25565b61110b565b005b3480156102fe57600080fd5b5061031960048036038101906103149190613030565b6111a5565b005b34801561032757600080fd5b506103306113fc565b005b34801561033e57600080fd5b506103596004803603810190610354919061312a565b611410565b005b34801561036757600080fd5b50610382600480360381019061037d919061316a565b611493565b005b34801561039057600080fd5b506103ab60048036038101906103a69190612522565b6114fe565b005b3480156103b957600080fd5b506103c2611547565b6040516103cf91906131c6565b60405180910390f35b3480156103e457600080fd5b506103ed611570565b6040516103fa91906131e1565b60405180910390f35b34801561040f57600080fd5b5061041861157a565b60405161042591906131c6565b60405180910390f35b34801561043a57600080fd5b50610455600480360381019061045091906131fc565b6115a4565b005b610471600480360381019061046c9190612522565b6116fe565b005b34801561047f57600080fd5b50610488611853565b60405161049591906131e1565b60405180910390f35b3480156104aa57600080fd5b506104c560048036038101906104c091906131fc565b61185d565b005b3480156104d357600080fd5b506104dc6118df565b6040516104e991906131e1565b60405180910390f35b3480156104fe57600080fd5b506105196004803603810190610514919061323c565b6118e9565b005b34801561052757600080fd5b50610542600480360381019061053d91906124f5565b61195f565b005b61055e6004803603810190610559919061327c565b6119e5565b60405161056b91906131e1565b60405180910390f35b61057c611e41565b60006001600085815260200190815260200160002060090160009054906101000a900473ffffffffffffffffffffffffffffffffffffffff1690508073ffffffffffffffffffffffffffffffffffffffff166313e8626585856040518363ffffffff1660e01b81526004016105f292919061335d565b600060405180830381865afa15801561060f573d6000803e3d6000fd5b505050506040513d6000823e3d601f19601f8201168201806040525081019061063891906137a9565b91505092915050565b610649611cee565b80600560006101000a81548173ffffffffffffffffffffffffffffffffffffffff021916908373ffffffffffffffffffffffffffffffffffffffff1602179055507f2f165c01002d221752e275a87b6ed91df7c1b198b0bbe0e93dd28c7c834a08cc816040516106b991906131c6565b60405180910390a150565b6106cc611e90565b600160008381526020019081526020016000206040518060e0016040529081600082016040518060a001604052908160008201805461070a90613821565b80601f016020809104026020016040519081016040528092919081815260200182805461073690613821565b80156107835780601f1061075857610100808354040283529160200191610783565b820191906000526020600020905b81548152906001019060200180831161076657829003601f168201915b5050505050815260200160018201805461079c90613821565b80601f01602080910402602001604051908101604052809291908181526020018280546107c890613821565b80156108155780601f106107ea57610100808354040283529160200191610815565b820191906000526020600020905b8154815290600101906020018083116107f857829003601f168201915b5050505050815260200160028201805461082e90613821565b80601f016020809104026020016040519081016040528092919081815260200182805461085a90613821565b80156108a75780601f1061087c576101008083540402835291602001916108a7565b820191906000526020600020905b81548152906001019060200180831161088a57829003601f168201915b5050505050815260200160038201805480602002602001604051908101604052809291908181526020016000905b828210156109815783829060005260206000200180546108f490613821565b80601f016020809104026020016040519081016040528092919081815260200182805461092090613821565b801561096d5780601f106109425761010080835404028352916020019161096d565b820191906000526020600020905b81548152906001019060200180831161095057829003601f168201915b5050505050815260200190600101906108d5565b5050505081526020016004820160009054906101000a900460ff1615151515815250508152602001600582016040518060600160405290816000820160009054906101000a900460ff1660058111156109dd576109dc6125f5565b5b60058111156109ef576109ee6125f5565b5b815260200160018201805480602002602001604051908101604052809291908181526020016000905b82821015610b325783829060005260206000209060020201604051806040016040529081600082018054610a4b90613821565b80601f0160208091040260200160405190810160405280929190818152602001828054610a7790613821565b8015610ac45780601f10610a9957610100808354040283529160200191610ac4565b820191906000526020600020905b815481529060010190602001808311610aa757829003601f168201915b505050505081526020016001820160009054906101000a900473ffffffffffffffffffffffffffffffffffffffff1673ffffffffffffffffffffffffffffffffffffffff1673ffffffffffffffffffffffffffffffffffffffff168152505081526020019060010190610a18565b505050508152602001600282018054610b4a90613821565b80601f0160208091040260200160405190810160405280929190818152602001828054610b7690613821565b8015610bc35780601f10610b9857610100808354040283529160200191610bc3565b820191906000526020600020905b815481529060010190602001808311610ba657829003601f168201915b505050505081525050815260200160088201805480602002602001604051908101604052809291908181526020018280548015610c1f57602002820191906000526020600020905b815481526020019060010190808311610c0b575b505050505081526020016009820160009054906101000a900473ffffffffffffffffffffffffffffffffffffffff1673ffffffffffffffffffffffffffffffffffffffff1673ffffffffffffffffffffffffffffffffffffffff1681526020016009820160149054906101000a900460ff166001811115610ca357610ca26125f5565b5b6001811115610cb557610cb46125f5565b5b81526020016009820160159054906101000a900460ff16151515158152602001600a820154815250509050919050565b610ced611cee565b6001600084815260200190815260200160002060090160159054906101000a900460ff1615610d51576040517f08c379a0000000000000000000000000000000000000000000000000000000008152600401610d48906138af565b60405180910390fd5b60035460016000858152602001908152602001600020600a01541015610dac576040517f08c379a0000000000000000000000000000000000000000000000000000000008152600401610da390613941565b60405180910390fd5b60035460016000858152602001908152602001600020600a016000828254610dd49190613990565b9250508190555060035460016000858152602001908152602001600020600a01541015610e6157600180600085815260200190815260200160002060090160156101000a81548160ff0219169083151502179055507fd5d88098de5ba30573f08926c4e6445cab93ce09d98c1147a64045608a50797f83604051610e5891906131e1565b60405180910390a15b60006001600085815260200190815260200160002060090160009054906101000a900473ffffffffffffffffffffffffffffffffffffffff1690508073ffffffffffffffffffffffffffffffffffffffff16633c973f758585856040518463ffffffff1660e01b8152600401610ed9939291906139c4565b600060405180830381600087803b158015610ef357600080fd5b505af1158015610f07573d6000803e3d6000fd5b5050505050505050565b610f19611cee565b600047905060008111610f61576040517f08c379a0000000000000000000000000000000000000000000000000000000008152600401610f5890613a4e565b60405180910390fd5b6000610f6b611547565b905060008173ffffffffffffffffffffffffffffffffffffffff1683604051610f9390613a9f565b60006040518083038185875af1925050503d8060008114610fd0576040519150601f19603f3d011682016040523d82523d6000602084013e610fd5565b606091505b5050905080611019576040517f08c379a000000000000000000000000000000000000000000000000000000000815260040161101090613b00565b60405180910390fd5b7fd964a27d45f595739c13d8b1160b57491050cacf3a2e5602207277d6228f64ee838360405161104a929190613b7f565b60405180910390a1505050565b61105f611cee565b806003819055507f0840c2296c4c97ecdc9b8dc544cd67f45a8d629b9d6109410530bb58b7f17b928160405161109591906131e1565b60405180910390a150565b6110a8611cee565b806001600084815260200190815260200160002060050181816110cb9190614516565b9050507ff768bb0dd5bd987cdbc2706c837263b29e7326b0651e4fe20c16372d24cc02ac82826040516110ff9291906147e8565b60405180910390a15050565b611113611cee565b806001600084815260200190815260200160002060090160006101000a81548173ffffffffffffffffffffffffffffffffffffffff021916908373ffffffffffffffffffffffffffffffffffffffff1602179055507facd3bfb47d15f9f1d5db04bf52aece3b8c4fd63e70c97b91293415d2f2341f388282604051611199929190614818565b60405180910390a15050565b6111ad611cee565b6000600160008a81526020019081526020016000209050878160000181816111d59190614afb565b905050868160050181816111e99190614516565b905050838160090160006101000a81548173ffffffffffffffffffffffffffffffffffffffff021916908373ffffffffffffffffffffffffffffffffffffffff160217905550828160090160146101000a81548160ff02191690836001811115611256576112556125f5565b5b02179055508060090160159054906101000a900460ff161580156112775750815b156112d55760018160090160156101000a81548160ff0219169083151502179055507fd5d88098de5ba30573f08926c4e6445cab93ce09d98c1147a64045608a50797f896040516112c891906131e1565b60405180910390a161134c565b8060090160159054906101000a900460ff1680156112f1575081155b1561134b5760008160090160156101000a81548160ff0219169083151502179055507f8da007fc61f3601008aa139c728ea9bf16672668b03c07f6c402ab74c034fc818960405161134291906131e1565b60405180910390a15b5b80600801600061135c9190611f03565b60005b868690508110156113b9578160080187878381811061138157611380614b09565b5b90506020020135908060018154018082558091505060019003906000526020600020016000909190919091505580600101905061135f565b507f887cc86755221db77fb9a404d4834a6ca76a28df7c71c7650318819ad0f46a3c896040516113e991906131e1565b60405180910390a1505050505050505050565b611404611cee565b61140e6000611d75565b565b611418611cee565b806001600084815260200190815260200160002060090160146101000a81548160ff02191690836001811115611451576114506125f5565b5b02179055507feaeee81ca4b132c1f2699cf2e7f71c26adb6ffe780097ac7d6e9ddf978398b628282604051611487929190614b47565b60405180910390a15050565b61149b611cee565b806001600084815260200190815260200160002060000181816114be9190614afb565b9050507f440c55e385a61cd472c0cd76ee015cab9bd0760aef9634633e6597fdea583fd582826040516114f2929190614d3e565b60405180910390a15050565b611506611cee565b806002819055507fac9c054628ba106d4664c2c08386354e161eab546a0a47faf040bfc1062845e78160405161153c91906131e1565b60405180910390a150565b60008060009054906101000a900473ffffffffffffffffffffffffffffffffffffffff16905090565b6000600454905090565b6000600560009054906101000a900473ffffffffffffffffffffffffffffffffffffffff16905090565b6115ac611cee565b600060016000848152602001908152602001600020600801905060005b81805490508110156116bc57828282815481106115e9576115e8614b09565b5b9060005260206000200154036116af57816001838054905061160b9190613990565b8154811061161c5761161b614b09565b5b906000526020600020015482828154811061163a57611639614b09565b5b90600052602060002001819055508180548061165957611658614d6e565b5b600190038181906000526020600020016000905590557f2264fa092e5819982f4edca5b7e9c6318a16dc3e03673510429c078656dea45c84846040516116a0929190614d9d565b60405180910390a150506116fa565b80806001019150506115c9565b50816040517f84ce930a0000000000000000000000000000000000000000000000000000000081526004016116f191906131e1565b60405180910390fd5b5050565b60003403611738576040517f1f2a200500000000000000000000000000000000000000000000000000000000815260040160405180910390fd5b3460016000838152602001908152602001600020600a01600082825461175e9190614dc6565b925050819055506001600082815260200190815260200160002060090160159054906101000a900460ff16156118155760035460016000838152602001908152602001600020600a0154106118145760006001600083815260200190815260200160002060090160156101000a81548160ff0219169083151502179055507f8da007fc61f3601008aa139c728ea9bf16672668b03c07f6c402ab74c034fc818160405161180b91906131e1565b60405180910390a15b5b7fd6e9bd49f32ce5202a849c6ab581631b3e952257363b06975f32872e9e1656c933348360405161184893929190614dfa565b60405180910390a150565b6000600254905090565b611865611cee565b600160008381526020019081526020016000206008018190806001815401808255809150506001900390600052602060002001600090919091909150557ffcdfd5aeb97f499ca134ed43f010f2a4f5b0ab73d317ac27246a066a050a73af82826040516118d3929190614d9d565b60405180910390a15050565b6000600354905090565b6118f1611cee565b806001600084815260200190815260200160002060000160040160006101000a81548160ff0219169083151502179055507fed2f2c7a2316ddc2f46a4581250611f807810052bb38bef2fbd1a81d087e064b8282604051611953929190614e40565b60405180910390a15050565b611967611cee565b600073ffffffffffffffffffffffffffffffffffffffff168173ffffffffffffffffffffffffffffffffffffffff16036119d95760006040517f1e4fbdf70000000000000000000000000000000000000000000000000000000081526004016119d091906131c6565b60405180910390fd5b6119e281611d75565b50565b60008073ffffffffffffffffffffffffffffffffffffffff168373ffffffffffffffffffffffffffffffffffffffff1603611a4057600560009054906101000a900473ffffffffffffffffffffffffffffffffffffffff1692505b600180811115611a5357611a526125f5565b5b826001811115611a6657611a656125f5565b5b14158015611a99575060006001811115611a8357611a826125f5565b5b826001811115611a9657611a956125f5565b5b14155b15611ad0576040517fec4d40f400000000000000000000000000000000000000000000000000000000815260040160405180910390fd5b600060045490506002543414611b2157600254346040517fce6b173b000000000000000000000000000000000000000000000000000000008152600401611b18929190614d9d565b60405180910390fd5b7fd6e9bd49f32ce5202a849c6ab581631b3e952257363b06975f32872e9e1656c9333483604051611b5493929190614dfa565b60405180910390a1600060016000838152602001908152602001600020905088816000018181611b849190614afb565b90505087816005018181611b989190614516565b905050848160090160006101000a81548173ffffffffffffffffffffffffffffffffffffffff021916908373ffffffffffffffffffffffffffffffffffffffff160217905550838160090160146101000a81548160ff02191690836001811115611c0557611c046125f5565b5b021790555060008160090160156101000a81548160ff0219169083151502179055503481600a018190555060005b87879050811015611c8d5781600801888883818110611c5557611c54614b09565b5b905060200201359080600181540180825580915050600190039060005260206000200160009091909190915055806001019050611c33565b5060046000815480929190611ca190614e69565b91905055507f42c24a3323433819443a75d0e2651a9c84f696fba638d730042960045ef272418233604051611cd7929190614818565b60405180910390a181925050509695505050505050565b611cf6611e39565b73ffffffffffffffffffffffffffffffffffffffff16611d14611547565b73ffffffffffffffffffffffffffffffffffffffff1614611d7357611d37611e39565b6040517f118cdaa7000000000000000000000000000000000000000000000000000000008152600401611d6a91906131c6565b60405180910390fd5b565b60008060009054906101000a900473ffffffffffffffffffffffffffffffffffffffff169050816000806101000a81548173ffffffffffffffffffffffffffffffffffffffff021916908373ffffffffffffffffffffffffffffffffffffffff1602179055508173ffffffffffffffffffffffffffffffffffffffff168173ffffffffffffffffffffffffffffffffffffffff167f8be0079c531659141344cd1fd0a4f28419497f9722a3daafe3b4186f6b6457e060405160405180910390a35050565b600033905090565b6040518061012001604052806060815260200160608152602001606081526020016060815260200160008152602001600081526020016060815260200160008019168152602001606081525090565b6040518060e00160405280611ea3611f24565b8152602001611eb0611f55565b815260200160608152602001600073ffffffffffffffffffffffffffffffffffffffff16815260200160006001811115611eed57611eec6125f5565b5b8152602001600015158152602001600081525090565b5080546000825590600052602060002090810190611f219190611f88565b50565b6040518060a00160405280606081526020016060815260200160608152602001606081526020016000151581525090565b604051806060016040528060006005811115611f7457611f736125f5565b5b815260200160608152602001606081525090565b5b80821115611fa1576000816000905550600101611f89565b5090565b600073ffffffffffffffffffffffffffffffffffffffff82169050919050565b6000611fd082611fa5565b9050919050565b611fe081611fc5565b82525050565b6000819050919050565b611ff981611fe6565b82525050565b60006040820190506120146000830185611fd7565b6120216020830184611ff0565b9392505050565b6000604051905090565b600080fd5b600080fd5b61204581611fe6565b811461205057600080fd5b50565b6000813590506120628161203c565b92915050565b6000819050919050565b61207b81612068565b811461208657600080fd5b50565b60008135905061209881612072565b92915050565b600080604083850312156120b5576120b4612032565b5b60006120c385828601612053565b92505060206120d485828601612089565b9150509250929050565b600081519050919050565b600082825260208201905092915050565b60005b838110156121185780820151818401526020810190506120fd565b60008484015250505050565b6000601f19601f8301169050919050565b6000612140826120de565b61214a81856120e9565b935061215a8185602086016120fa565b61216381612124565b840191505092915050565b600081519050919050565b600082825260208201905092915050565b6000819050602082019050919050565b60006121a68383612135565b905092915050565b6000602082019050919050565b60006121c68261216e565b6121d08185612179565b9350836020820285016121e28561218a565b8060005b8581101561221e57848403895281516121ff858261219a565b945061220a836121ae565b925060208a019950506001810190506121e6565b50829750879550505050505092915050565b600081519050919050565b600082825260208201905092915050565b6000819050602082019050919050565b600081519050919050565b600082825260208201905092915050565b6000819050602082019050919050565b61229181611fe6565b82525050565b60006122a38383612288565b60208301905092915050565b6000602082019050919050565b60006122c78261225c565b6122d18185612267565b93506122dc83612278565b8060005b8381101561230d5781516122f48882612297565b97506122ff836122af565b9250506001810190506122e0565b5085935050505092915050565b600061232683836122bc565b905092915050565b6000602082019050919050565b600061234682612230565b612350818561223b565b9350836020820285016123628561224c565b8060005b8581101561239e578484038952815161237f858261231a565b945061238a8361232e565b925060208a01995050600181019050612366565b50829750879550505050505092915050565b6123b981612068565b82525050565b60006101208301600083015184820360008601526123dd8282612135565b915050602083015184820360208601526123f782826121bb565b915050604083015184820360408601526124118282612135565b9150506060830151848203606086015261242b828261233b565b91505060808301516124406080860182612288565b5060a083015161245360a0860182612288565b5060c083015184820360c086015261246b82826122bc565b91505060e083015161248060e08601826123b0565b5061010083015184820361010086015261249a8282612135565b9150508091505092915050565b600060208201905081810360008301526124c181846123bf565b905092915050565b6124d281611fc5565b81146124dd57600080fd5b50565b6000813590506124ef816124c9565b92915050565b60006020828403121561250b5761250a612032565b5b6000612519848285016124e0565b91505092915050565b60006020828403121561253857612537612032565b5b600061254684828501612053565b91505092915050565b60008115159050919050565b6125648161254f565b82525050565b600060a08301600083015184820360008601526125878282612135565b915050602083015184820360208601526125a18282612135565b915050604083015184820360408601526125bb8282612135565b915050606083015184820360608601526125d582826121bb565b91505060808301516125ea608086018261255b565b508091505092915050565b7f4e487b7100000000000000000000000000000000000000000000000000000000600052602160045260246000fd5b60068110612635576126346125f5565b5b50565b600081905061264682612624565b919050565b600061265682612638565b9050919050565b6126668161264b565b82525050565b600081519050919050565b600082825260208201905092915050565b6000819050602082019050919050565b6126a181611fc5565b82525050565b600060408301600083015184820360008601526126c48282612135565b91505060208301516126d96020860182612698565b508091505092915050565b60006126f083836126a7565b905092915050565b6000602082019050919050565b60006127108261266c565b61271a8185612677565b93508360208202850161272c85612688565b8060005b85811015612768578484038952815161274985826126e4565b9450612754836126f8565b925060208a01995050600181019050612730565b50829750879550505050505092915050565b6000606083016000830151612792600086018261265d565b50602083015184820360208601526127aa8282612705565b915050604083015184820360408601526127c48282612135565b9150508091505092915050565b600281106127e2576127e16125f5565b5b50565b60008190506127f3826127d1565b919050565b6000612803826127e5565b9050919050565b612813816127f8565b82525050565b600060e0830160008301518482036000860152612836828261256a565b91505060208301518482036020860152612850828261277a565b9150506040830151848203604086015261286a82826122bc565b915050606083015161287f6060860182612698565b506080830151612892608086018261280a565b5060a08301516128a560a086018261255b565b5060c08301516128b860c0860182612288565b508091505092915050565b600060208201905081810360008301526128dd8184612819565b905092915050565b600080fd5b7f4e487b7100000000000000000000000000000000000000000000000000000000600052604160045260246000fd5b61292282612124565b810181811067ffffffffffffffff82111715612941576129406128ea565b5b80604052505050565b6000612954612028565b90506129608282612919565b919050565b600080fd5b600080fd5b600080fd5b600067ffffffffffffffff82111561298f5761298e6128ea565b5b61299882612124565b9050602081019050919050565b82818337600083830152505050565b60006129c76129c284612974565b61294a565b9050828152602081018484840111156129e3576129e261296f565b5b6129ee8482856129a5565b509392505050565b600082601f830112612a0b57612a0a61296a565b5b8135612a1b8482602086016129b4565b91505092915050565b600067ffffffffffffffff821115612a3f57612a3e6128ea565b5b602082029050602081019050919050565b600080fd5b6000612a68612a6384612a24565b61294a565b90508083825260208201905060208402830185811115612a8b57612a8a612a50565b5b835b81811015612ad257803567ffffffffffffffff811115612ab057612aaf61296a565b5b808601612abd89826129f6565b85526020850194505050602081019050612a8d565b5050509392505050565b600082601f830112612af157612af061296a565b5b8135612b01848260208601612a55565b91505092915050565b600067ffffffffffffffff821115612b2557612b246128ea565b5b602082029050602081019050919050565b600067ffffffffffffffff821115612b5157612b506128ea565b5b602082029050602081019050919050565b6000612b75612b7084612b36565b61294a565b90508083825260208201905060208402830185811115612b9857612b97612a50565b5b835b81811015612bc15780612bad8882612053565b845260208401935050602081019050612b9a565b5050509392505050565b600082601f830112612be057612bdf61296a565b5b8135612bf0848260208601612b62565b91505092915050565b6000612c0c612c0784612b0a565b61294a565b90508083825260208201905060208402830185811115612c2f57612c2e612a50565b5b835b81811015612c7657803567ffffffffffffffff811115612c5457612c5361296a565b5b808601612c618982612bcb565b85526020850194505050602081019050612c31565b5050509392505050565b600082601f830112612c9557612c9461296a565b5b8135612ca5848260208601612bf9565b91505092915050565b60006101208284031215612cc557612cc46128e5565b5b612cd061012061294a565b9050600082013567ffffffffffffffff811115612cf057612cef612965565b5b612cfc848285016129f6565b600083015250602082013567ffffffffffffffff811115612d2057612d1f612965565b5b612d2c84828501612adc565b602083015250604082013567ffffffffffffffff811115612d5057612d4f612965565b5b612d5c848285016129f6565b604083015250606082013567ffffffffffffffff811115612d8057612d7f612965565b5b612d8c84828501612c80565b6060830152506080612da084828501612053565b60808301525060a0612db484828501612053565b60a08301525060c082013567ffffffffffffffff811115612dd857612dd7612965565b5b612de484828501612bcb565b60c08301525060e0612df884828501612089565b60e08301525061010082013567ffffffffffffffff811115612e1d57612e1c612965565b5b612e29848285016129f6565b6101008301525092915050565b600080600060608486031215612e4f57612e4e612032565b5b6000612e5d86828701612053565b9350506020612e6e86828701612089565b925050604084013567ffffffffffffffff811115612e8f57612e8e612037565b5b612e9b86828701612cae565b9150509250925092565b600080fd5b600060608284031215612ec057612ebf612ea5565b5b81905092915050565b60008060408385031215612ee057612edf612032565b5b6000612eee85828601612053565b925050602083013567ffffffffffffffff811115612f0f57612f0e612037565b5b612f1b85828601612eaa565b9150509250929050565b60008060408385031215612f3c57612f3b612032565b5b6000612f4a85828601612053565b9250506020612f5b858286016124e0565b9150509250929050565b600060a08284031215612f7b57612f7a612ea5565b5b81905092915050565b600080fd5b60008083601f840112612f9f57612f9e61296a565b5b8235905067ffffffffffffffff811115612fbc57612fbb612f84565b5b602083019150836020820283011115612fd857612fd7612a50565b5b9250929050565b60028110612fec57600080fd5b50565b600081359050612ffe81612fdf565b92915050565b61300d8161254f565b811461301857600080fd5b50565b60008135905061302a81613004565b92915050565b60008060008060008060008060e0898b0312156130505761304f612032565b5b600061305e8b828c01612053565b985050602089013567ffffffffffffffff81111561307f5761307e612037565b5b61308b8b828c01612f65565b975050604089013567ffffffffffffffff8111156130ac576130ab612037565b5b6130b88b828c01612eaa565b965050606089013567ffffffffffffffff8111156130d9576130d8612037565b5b6130e58b828c01612f89565b955095505060806130f88b828c016124e0565b93505060a06131098b828c01612fef565b92505060c061311a8b828c0161301b565b9150509295985092959890939650565b6000806040838503121561314157613140612032565b5b600061314f85828601612053565b925050602061316085828601612fef565b9150509250929050565b6000806040838503121561318157613180612032565b5b600061318f85828601612053565b925050602083013567ffffffffffffffff8111156131b0576131af612037565b5b6131bc85828601612f65565b9150509250929050565b60006020820190506131db6000830184611fd7565b92915050565b60006020820190506131f66000830184611ff0565b92915050565b6000806040838503121561321357613212612032565b5b600061322185828601612053565b925050602061323285828601612053565b9150509250929050565b6000806040838503121561325357613252612032565b5b600061326185828601612053565b92505060206132728582860161301b565b9150509250929050565b60008060008060008060a0878903121561329957613298612032565b5b600087013567ffffffffffffffff8111156132b7576132b6612037565b5b6132c389828a01612f65565b965050602087013567ffffffffffffffff8111156132e4576132e3612037565b5b6132f089828a01612eaa565b955050604087013567ffffffffffffffff81111561331157613310612037565b5b61331d89828a01612f89565b9450945050606061333089828a016124e0565b925050608061334189828a01612fef565b9150509295509295509295565b61335781612068565b82525050565b60006040820190506133726000830185611ff0565b61337f602083018461334e565b9392505050565b600061339961339484612974565b61294a565b9050828152602081018484840111156133b5576133b461296f565b5b6133c08482856120fa565b509392505050565b600082601f8301126133dd576133dc61296a565b5b81516133ed848260208601613386565b91505092915050565b600061340961340484612a24565b61294a565b9050808382526020820190506020840283018581111561342c5761342b612a50565b5b835b8181101561347357805167ffffffffffffffff8111156134515761345061296a565b5b80860161345e89826133c8565b8552602085019450505060208101905061342e565b5050509392505050565b600082601f8301126134925761349161296a565b5b81516134a28482602086016133f6565b91505092915050565b6000815190506134ba8161203c565b92915050565b60006134d36134ce84612b36565b61294a565b905080838252602082019050602084028301858111156134f6576134f5612a50565b5b835b8181101561351f578061350b88826134ab565b8452602084019350506020810190506134f8565b5050509392505050565b600082601f83011261353e5761353d61296a565b5b815161354e8482602086016134c0565b91505092915050565b600061356a61356584612b0a565b61294a565b9050808382526020820190506020840283018581111561358d5761358c612a50565b5b835b818110156135d457805167ffffffffffffffff8111156135b2576135b161296a565b5b8086016135bf8982613529565b8552602085019450505060208101905061358f565b5050509392505050565b600082601f8301126135f3576135f261296a565b5b8151613603848260208601613557565b91505092915050565b60008151905061361b81612072565b92915050565b60006101208284031215613638576136376128e5565b5b61364361012061294a565b9050600082015167ffffffffffffffff81111561366357613662612965565b5b61366f848285016133c8565b600083015250602082015167ffffffffffffffff81111561369357613692612965565b5b61369f8482850161347d565b602083015250604082015167ffffffffffffffff8111156136c3576136c2612965565b5b6136cf848285016133c8565b604083015250606082015167ffffffffffffffff8111156136f3576136f2612965565b5b6136ff848285016135de565b6060830152506080613713848285016134ab565b60808301525060a0613727848285016134ab565b60a08301525060c082015167ffffffffffffffff81111561374b5761374a612965565b5b61375784828501613529565b60c08301525060e061376b8482850161360c565b60e08301525061010082015167ffffffffffffffff8111156137905761378f612965565b5b61379c848285016133c8565b6101008301525092915050565b6000602082840312156137bf576137be612032565b5b600082015167ffffffffffffffff8111156137dd576137dc612037565b5b6137e984828501613621565b91505092915050565b7f4e487b7100000000000000000000000000000000000000000000000000000000600052602260045260246000fd5b6000600282049050600182168061383957607f821691505b60208210810361384c5761384b6137f2565b5b50919050565b600082825260208201905092915050565b7f436f6d6d756e6974792069732064697361626c65640000000000000000000000600082015250565b6000613899601583613852565b91506138a482613863565b602082019050919050565b600060208201905081810360008301526138c88161388c565b9050919050565b7f496e73756666696369656e742066756e647320666f722074686973206f70657260008201527f6174696f6e000000000000000000000000000000000000000000000000000000602082015250565b600061392b602583613852565b9150613936826138cf565b604082019050919050565b6000602082019050818103600083015261395a8161391e565b9050919050565b7f4e487b7100000000000000000000000000000000000000000000000000000000600052601160045260246000fd5b600061399b82611fe6565b91506139a683611fe6565b92508282039050818111156139be576139bd613961565b5b92915050565b60006060820190506139d96000830186611ff0565b6139e6602083018561334e565b81810360408301526139f881846123bf565b9050949350505050565b7f4e6f2066756e647320617661696c61626c650000000000000000000000000000600082015250565b6000613a38601283613852565b9150613a4382613a02565b602082019050919050565b60006020820190508181036000830152613a6781613a2b565b9050919050565b600081905092915050565b50565b6000613a89600083613a6e565b9150613a9482613a79565b600082019050919050565b6000613aaa82613a7c565b9150819050919050565b7f4661696c656420746f2073656e64204574686572000000000000000000000000600082015250565b6000613aea601483613852565b9150613af582613ab4565b602082019050919050565b60006020820190508181036000830152613b1981613add565b9050919050565b6000819050919050565b6000613b45613b40613b3b84611fa5565b613b20565b611fa5565b9050919050565b6000613b5782613b2a565b9050919050565b6000613b6982613b4c565b9050919050565b613b7981613b5e565b82525050565b6000604082019050613b946000830185611ff0565b613ba16020830184613b70565b9392505050565b7f4e487b7100000000000000000000000000000000000000000000000000000000600052600060045260246000fd5b60068110613be457600080fd5b50565b60008135613bf481613bd7565b80915050919050565b60008160001b9050919050565b600060ff613c1784613bfd565b9350801983169250808416831791505092915050565b6000613c3882612638565b9050919050565b6000819050919050565b613c5282613c2d565b613c65613c5e82613c3f565b8354613c0a565b8255505050565b600080fd5b600080fd5b600080fd5b60008083356001602003843603038112613c9857613c97613c6c565b5b80840192508235915067ffffffffffffffff821115613cba57613cb9613c71565b5b602083019250602082023603831315613cd657613cd5613c76565b5b509250929050565b6000819050919050565b600082356001604003833603038112613d0457613d03613c6c565b5b80830191505092915050565b600081549050919050565b6000613d2682611fe6565b9150613d3183611fe6565b9250828202613d3f81611fe6565b91508282048414831517613d5657613d55613961565b5b5092915050565b6000819050613d6d826002613d1b565b9050919050565b60008190508160005260206000209050919050565b60008190508160005260206000209050919050565b600082821c905092915050565b613ddb7fffffffffffffffffffffffffffffffffffffffffffffffffffffffffffffffff83602003600802613d9e565b815481168255505050565b600082821b905092915050565b600060088302613e237fffffffffffffffffffffffffffffffffffffffffffffffffffffffffffffffff82613de6565b613e2d8683613de6565b95508019841693508086168417925050509392505050565b6000613e60613e5b613e5684611fe6565b613b20565b611fe6565b9050919050565b6000819050919050565b613e7a83613e45565b613e8e613e8682613e67565b848454613df3565b825550505050565b600090565b613ea3613e96565b613eae818484613e71565b505050565b5b81811015613ed257613ec7600082613e9b565b600181019050613eb4565b5050565b6000613ee760001984600802613d9e565b1980831691505092915050565b6000613f008383613ed6565b9150826002028217905092915050565b613f1981613d89565b613f24838254613ef4565b8083556000825550505050565b60006020601f8301049050919050565b6020841060008114613f9c57601f841160018114613f6a57613f638685613ef4565b8355613f96565b613f7383613d89565b613f8a613f7f87613f31565b820160018301613eb3565b613f948785613f10565b505b50613fe9565b613fa582613d89565b613fae86613f31565b8101601f87168015613fc857613fc78160018403613dab565b5b613fdc613fd488613f31565b840183613eb3565b6001886002021785555050505b5050505050565b6801000000000000000084111561400a576140096128ea565b5b60208310600081146140555760208510600081146140335761402c8685613ef4565b835561404f565b8360ff191693508361404484613d89565b556001866002020183555b5061405f565b6001856002020182555b5050505050565b805461407181613821565b808411156140865761408584828486613ff0565b5b8084101561409b5761409a84828486613f41565b5b50505050565b818110156140bf576140b4600082613e9b565b6001810190506140a1565b5050565b6140ce600082614066565b50565b600082146140e2576140e1613ba8565b5b6140eb816140c3565b5050565b6140fc60008083016140d1565b6000600182015550565b6000821461411757614116613ba8565b5b614120816140ef565b5050565b5b8181101561414357614138600082614106565b600281019050614125565b5050565b818310156141805761415882613d5d565b61416184613d5d565b61416a83613d74565b81810183820161417a8183614124565b50505050505b505050565b6801000000000000000082111561419f5761419e6128ea565b5b6141a881613d10565b8282556141b6838284614147565b505050565b600082905092915050565b600080833560016020038436030381126141e3576141e2613c6c565b5b80840192508235915067ffffffffffffffff82111561420557614204613c71565b5b60208301925060018202360383131561422157614220613c76565b5b509250929050565b600082905092915050565b601f8211156142755761424681613d89565b61424f84613f31565b8101602085101561425e578190505b61427261426a85613f31565b830182613eb3565b50505b505050565b6142848383614229565b67ffffffffffffffff81111561429d5761429c6128ea565b5b6142a78254613821565b6142b2828285614234565b6000601f8311600181146142e157600084156142cf578287013590505b6142d98582613ef4565b865550614341565b601f1984166142ef86613d89565b60005b82811015614317578489013582556001820191506020850194506020810190506142f2565b868310156143345784890135614330601f891682613ed6565b8355505b6001600288020188555050505b50505050505050565b61435583838361427a565b505050565b60008135614367816124c9565b80915050919050565b600073ffffffffffffffffffffffffffffffffffffffff61439084613bfd565b9350801983169250808416831791505092915050565b60006143b182613b4c565b9050919050565b6000819050919050565b6143cb826143a6565b6143de6143d7826143b8565b8354614370565b8255505050565b60008101600083016143f781856141c6565b61440281838661434a565b505050506001810160208301806144188161435a565b905061442481846143c2565b5050505050565b61443582826143e5565b5050565b61444383836141bb565b61444d8183614185565b61445683613cde565b61445f83613d74565b60005b83811015614496576144748387613ce8565b61447e818461442b565b60208401935060028301925050600181019050614462565b50505050505050565b6144aa838383614439565b505050565b6000810160008301806144c181613be7565b90506144cd8184613c49565b50505060018101602083016144e28185613c7b565b6144ed81838661449f565b50505050600281016040830161450381856141c6565b61450e81838661434a565b505050505050565b61452082826144af565b5050565b60008135905061453381613bd7565b92915050565b60006145486020840184614524565b905092915050565b600080fd5b600080fd5b600080fd5b6000808335600160200384360303811261457c5761457b61455a565b5b83810192508235915060208301925067ffffffffffffffff8211156145a4576145a3614550565b5b6020820236038313156145ba576145b9614555565b5b509250929050565b600080833560016020038436030381126145df576145de61455a565b5b83810192508235915060208301925067ffffffffffffffff82111561460757614606614550565b5b60018202360383131561461d5761461c614555565b5b509250929050565b600061463183856120e9565b935061463e8385846129a5565b61464783612124565b840190509392505050565b600061466160208401846124e0565b905092915050565b60006040830161467c60008401846145c2565b858303600087015261468f838284614625565b925050506146a06020840184614652565b6146ad6020860182612698565b508091505092915050565b60006146c48383614669565b905092915050565b6000823560016040038336030381126146e8576146e761455a565b5b82810191505092915050565b6000602082019050919050565b600061470d8385612677565b93508360208402850161471f84613cde565b8060005b8781101561476357848403895261473a82846146cc565b61474485826146b8565b945061474f836146f4565b925060208a01995050600181019050614723565b50829750879450505050509392505050565b6000606083016147886000840184614539565b614795600086018261265d565b506147a3602084018461455f565b85830360208701526147b6838284614701565b925050506147c760408401846145c2565b85830360408701526147da838284614625565b925050508091505092915050565b60006040820190506147fd6000830185611ff0565b818103602083015261480f8184614775565b90509392505050565b600060408201905061482d6000830185611ff0565b61483a6020830184611fd7565b9392505050565b6000808335600160200384360303811261485e5761485d613c6c565b5b80840192508235915067ffffffffffffffff8211156148805761487f613c71565b5b60208301925060208202360383131561489c5761489b613c76565b5b509250929050565b6000819050919050565b600081549050919050565b60008190506001806001038301049050919050565b60008190508160005260206000209050919050565b5b81811015614902576148f76000826140d1565b6001810190506148e4565b5050565b8183101561493f57614917826148b9565b614920846148b9565b614929836148ce565b81810183820161493981836148e3565b50505050505b505050565b6801000000000000000082111561495e5761495d6128ea565b5b614967816148ae565b828255614975838284614906565b505050565b600082905092915050565b61498f838361497a565b6149998183614944565b6149a2836148a4565b6149ab836148ce565b60005b838110156149e4576149c083876141c6565b6149cb81838661434a565b60208501945060018401935050506001810190506149ae565b50505050505050565b6149f8838383614985565b505050565b60008135614a0a81613004565b80915050919050565b6000614a1e8261254f565b9050919050565b6000819050919050565b614a3882614a13565b614a4b614a4482614a25565b8354613c0a565b8255505050565b6000810160008301614a6481856141c6565b614a6f81838661434a565b505050506001810160208301614a8581856141c6565b614a9081838661434a565b505050506002810160408301614aa681856141c6565b614ab181838661434a565b505050506003810160608301614ac78185614841565b614ad28183866149ed565b50505050600481016080830180614ae8816149fd565b9050614af48184614a2f565b5050505050565b614b058282614a52565b5050565b7f4e487b7100000000000000000000000000000000000000000000000000000000600052603260045260246000fd5b614b41816127f8565b82525050565b6000604082019050614b5c6000830185611ff0565b614b696020830184614b38565b9392505050565b60008083356001602003843603038112614b8d57614b8c61455a565b5b83810192508235915060208301925067ffffffffffffffff821115614bb557614bb4614550565b5b602082023603831315614bcb57614bca614555565b5b509250929050565b6000614be0848484614625565b90509392505050565b6000602082019050919050565b6000614c028385612179565b935083602084028501614c14846148a4565b8060005b87811015614c5a578484038952614c2f82846145c2565b614c3a868284614bd3565b9550614c4584614be9565b935060208b019a505050600181019050614c18565b50829750879450505050509392505050565b6000614c7b602084018461301b565b905092915050565b600060a08301614c9660008401846145c2565b8583036000870152614ca9838284614625565b92505050614cba60208401846145c2565b8583036020870152614ccd838284614625565b92505050614cde60408401846145c2565b8583036040870152614cf1838284614625565b92505050614d026060840184614b70565b8583036060870152614d15838284614bf6565b92505050614d266080840184614c6c565b614d33608086018261255b565b508091505092915050565b6000604082019050614d536000830185611ff0565b8181036020830152614d658184614c83565b90509392505050565b7f4e487b7100000000000000000000000000000000000000000000000000000000600052603160045260246000fd5b6000604082019050614db26000830185611ff0565b614dbf6020830184611ff0565b9392505050565b6000614dd182611fe6565b9150614ddc83611fe6565b9250828201905080821115614df457614df3613961565b5b92915050565b6000606082019050614e0f6000830186611fd7565b614e1c6020830185611ff0565b614e296040830184611ff0565b949350505050565b614e3a8161254f565b82525050565b6000604082019050614e556000830185611ff0565b614e626020830184614e31565b9392505050565b6000614e7482611fe6565b91507fffffffffffffffffffffffffffffffffffffffffffffffffffffffffffffffff8203614ea657614ea5613961565b5b60018201905091905056fea264697066735822122043a7f414717cb48f8d6a0a19d99bf4f2f4077fa4ff0e0b05a8e5f317eaf73a0f64736f6c63430008180033","opcodes":"PUSH1 0x80 PUSH1 0x40 MSTORE CALLVALUE DUP1 ISZERO PUSH3 0x11 JUMPI PUSH1 0x0 DUP1 REVERT JUMPDEST POP CALLER PUSH1 0x0 PUSH20 0xFFFFFFFFFFFFFFFFFFFFFFFFFFFFFFFFFFFFFFFF AND DUP2 PUSH20 0xFFFFFFFFFFFFFFFFFFFFFFFFFFFFFFFFFFFFFFFF AND SUB PUSH3 0x88 JUMPI PUSH1 0x0 PUSH1 0x40 MLOAD PUSH32 0x1E4FBDF700000000000000000000000000000000000000000000000000000000 DUP2 MSTORE PUSH1 0x4 ADD PUSH3 0x7F SWAP2 SWAP1 PUSH3 0x1A9 JUMP JUMPDEST PUSH1 0x40 MLOAD DUP1 SWAP2 SUB SWAP1 REVERT JUMPDEST PUSH3 0x99 DUP2 PUSH3 0xA0 PUSH1 0x20 SHL PUSH1 0x20 SHR JUMP JUMPDEST POP PUSH3 0x1C6 JUMP JUMPDEST PUSH1 0x0 DUP1 PUSH1 0x0 SWAP1 SLOAD SWAP1 PUSH2 0x100 EXP SWAP1 DIV PUSH20 0xFFFFFFFFFFFFFFFFFFFFFFFFFFFFFFFFFFFFFFFF AND SWAP1 POP DUP2 PUSH1 0x0 DUP1 PUSH2 0x100 EXP DUP2 SLOAD DUP2 PUSH20 0xFFFFFFFFFFFFFFFFFFFFFFFFFFFFFFFFFFFFFFFF MUL NOT AND SWAP1 DUP4 PUSH20 0xFFFFFFFFFFFFFFFFFFFFFFFFFFFFFFFFFFFFFFFF AND MUL OR SWAP1 SSTORE POP DUP2 PUSH20 0xFFFFFFFFFFFFFFFFFFFFFFFFFFFFFFFFFFFFFFFF AND DUP2 PUSH20 0xFFFFFFFFFFFFFFFFFFFFFFFFFFFFFFFFFFFFFFFF AND PUSH32 0x8BE0079C531659141344CD1FD0A4F28419497F9722A3DAAFE3B4186F6B6457E0 PUSH1 0x40 MLOAD PUSH1 0x40 MLOAD DUP1 SWAP2 SUB SWAP1 LOG3 POP POP JUMP JUMPDEST PUSH1 0x0 PUSH20 0xFFFFFFFFFFFFFFFFFFFFFFFFFFFFFFFFFFFFFFFF DUP3 AND SWAP1 POP SWAP2 SWAP1 POP JUMP JUMPDEST PUSH1 0x0 PUSH3 0x191 DUP3 PUSH3 0x164 JUMP JUMPDEST SWAP1 POP SWAP2 SWAP1 POP JUMP JUMPDEST PUSH3 0x1A3 DUP2 PUSH3 0x184 JUMP JUMPDEST DUP3 MSTORE POP POP JUMP JUMPDEST PUSH1 0x0 PUSH1 0x20 DUP3 ADD SWAP1 POP PUSH3 0x1C0 PUSH1 0x0 DUP4 ADD DUP5 PUSH3 0x198 JUMP JUMPDEST SWAP3 SWAP2 POP POP JUMP JUMPDEST PUSH2 0x4EE7 DUP1 PUSH3 0x1D6 PUSH1 0x0 CODECOPY PUSH1 0x0 RETURN INVALID PUSH1 0x80 PUSH1 0x40 MSTORE PUSH1 0x4 CALLDATASIZE LT PUSH2 0x14F JUMPI PUSH1 0x0 CALLDATALOAD PUSH1 0xE0 SHR DUP1 PUSH4 0x873CEB2E GT PUSH2 0xB6 JUMPI DUP1 PUSH4 0xC5BF44AB GT PUSH2 0x6F JUMPI DUP1 PUSH4 0xC5BF44AB EQ PUSH2 0x473 JUMPI DUP1 PUSH4 0xC8B785F3 EQ PUSH2 0x49E JUMPI DUP1 PUSH4 0xD62B5C59 EQ PUSH2 0x4C7 JUMPI DUP1 PUSH4 0xE6160FA3 EQ PUSH2 0x4F2 JUMPI DUP1 PUSH4 0xF2FDE38B EQ PUSH2 0x51B JUMPI DUP1 PUSH4 0xF8867041 EQ PUSH2 0x544 JUMPI PUSH2 0x18F JUMP JUMPDEST DUP1 PUSH4 0x873CEB2E EQ PUSH2 0x384 JUMPI DUP1 PUSH4 0x8DA5CB5B EQ PUSH2 0x3AD JUMPI DUP1 PUSH4 0x9532C8C3 EQ PUSH2 0x3D8 JUMPI DUP1 PUSH4 0x988A314C EQ PUSH2 0x403 JUMPI DUP1 PUSH4 0xABA675B0 EQ PUSH2 0x42E JUMPI DUP1 PUSH4 0xB6B55F25 EQ PUSH2 0x457 JUMPI PUSH2 0x18F JUMP JUMPDEST DUP1 PUSH4 0x56C4E4BA GT PUSH2 0x108 JUMPI DUP1 PUSH4 0x56C4E4BA EQ PUSH2 0x2A0 JUMPI DUP1 PUSH4 0x5A6CAD96 EQ PUSH2 0x2C9 JUMPI DUP1 PUSH4 0x654F6A75 EQ PUSH2 0x2F2 JUMPI DUP1 PUSH4 0x715018A6 EQ PUSH2 0x31B JUMPI DUP1 PUSH4 0x7824C05C EQ PUSH2 0x332 JUMPI DUP1 PUSH4 0x82E6D638 EQ PUSH2 0x35B JUMPI PUSH2 0x18F JUMP JUMPDEST DUP1 PUSH4 0x13E86265 EQ PUSH2 0x194 JUMPI DUP1 PUSH4 0x25FE08C9 EQ PUSH2 0x1D1 JUMPI DUP1 PUSH4 0x370603F8 EQ PUSH2 0x1FA JUMPI DUP1 PUSH4 0x3C973F75 EQ PUSH2 0x237 JUMPI DUP1 PUSH4 0x3CCFD60B EQ PUSH2 0x260 JUMPI DUP1 PUSH4 0x3E512EBC EQ PUSH2 0x277 JUMPI PUSH2 0x18F JUMP JUMPDEST CALLDATASIZE PUSH2 0x18F JUMPI PUSH32 0xE1FFFCC4923D04B559F4D29A8BFC6CDA04EB5B0D3C460751C2402C5C5CC9109C CALLER CALLVALUE PUSH1 0x40 MLOAD PUSH2 0x185 SWAP3 SWAP2 SWAP1 PUSH2 0x1FFF JUMP JUMPDEST PUSH1 0x40 MLOAD DUP1 SWAP2 SUB SWAP1 LOG1 STOP JUMPDEST PUSH1 0x0 DUP1 REVERT JUMPDEST CALLVALUE DUP1 ISZERO PUSH2 0x1A0 JUMPI PUSH1 0x0 DUP1 REVERT JUMPDEST POP PUSH2 0x1BB PUSH1 0x4 DUP1 CALLDATASIZE SUB DUP2 ADD SWAP1 PUSH2 0x1B6 SWAP2 SWAP1 PUSH2 0x209E JUMP JUMPDEST PUSH2 0x574 JUMP JUMPDEST PUSH1 0x40 MLOAD PUSH2 0x1C8 SWAP2 SWAP1 PUSH2 0x24A7 JUMP JUMPDEST PUSH1 0x40 MLOAD DUP1 SWAP2 SUB SWAP1 RETURN JUMPDEST CALLVALUE DUP1 ISZERO PUSH2 0x1DD JUMPI PUSH1 0x0 DUP1 REVERT JUMPDEST POP PUSH2 0x1F8 PUSH1 0x4 DUP1 CALLDATASIZE SUB DUP2 ADD SWAP1 PUSH2 0x1F3 SWAP2 SWAP1 PUSH2 0x24F5 JUMP JUMPDEST PUSH2 0x641 JUMP JUMPDEST STOP JUMPDEST CALLVALUE DUP1 ISZERO PUSH2 0x206 JUMPI PUSH1 0x0 DUP1 REVERT JUMPDEST POP PUSH2 0x221 PUSH1 0x4 DUP1 CALLDATASIZE SUB DUP2 ADD SWAP1 PUSH2 0x21C SWAP2 SWAP1 PUSH2 0x2522 JUMP JUMPDEST PUSH2 0x6C4 JUMP JUMPDEST PUSH1 0x40 MLOAD PUSH2 0x22E SWAP2 SWAP1 PUSH2 0x28C3 JUMP JUMPDEST PUSH1 0x40 MLOAD DUP1 SWAP2 SUB SWAP1 RETURN JUMPDEST CALLVALUE DUP1 ISZERO PUSH2 0x243 JUMPI PUSH1 0x0 DUP1 REVERT JUMPDEST POP PUSH2 0x25E PUSH1 0x4 DUP1 CALLDATASIZE SUB DUP2 ADD SWAP1 PUSH2 0x259 SWAP2 SWAP1 PUSH2 0x2E36 JUMP JUMPDEST PUSH2 0xCE5 JUMP JUMPDEST STOP JUMPDEST CALLVALUE DUP1 ISZERO PUSH2 0x26C JUMPI PUSH1 0x0 DUP1 REVERT JUMPDEST POP PUSH2 0x275 PUSH2 0xF11 JUMP JUMPDEST STOP JUMPDEST CALLVALUE DUP1 ISZERO PUSH2 0x283 JUMPI PUSH1 0x0 DUP1 REVERT JUMPDEST POP PUSH2 0x29E PUSH1 0x4 DUP1 CALLDATASIZE SUB DUP2 ADD SWAP1 PUSH2 0x299 SWAP2 SWAP1 PUSH2 0x2522 JUMP JUMPDEST PUSH2 0x1057 JUMP JUMPDEST STOP JUMPDEST CALLVALUE DUP1 ISZERO PUSH2 0x2AC JUMPI PUSH1 0x0 DUP1 REVERT JUMPDEST POP PUSH2 0x2C7 PUSH1 0x4 DUP1 CALLDATASIZE SUB DUP2 ADD SWAP1 PUSH2 0x2C2 SWAP2 SWAP1 PUSH2 0x2EC9 JUMP JUMPDEST PUSH2 0x10A0 JUMP JUMPDEST STOP JUMPDEST CALLVALUE DUP1 ISZERO PUSH2 0x2D5 JUMPI PUSH1 0x0 DUP1 REVERT JUMPDEST POP PUSH2 0x2F0 PUSH1 0x4 DUP1 CALLDATASIZE SUB DUP2 ADD SWAP1 PUSH2 0x2EB SWAP2 SWAP1 PUSH2 0x2F25 JUMP JUMPDEST PUSH2 0x110B JUMP JUMPDEST STOP JUMPDEST CALLVALUE DUP1 ISZERO PUSH2 0x2FE JUMPI PUSH1 0x0 DUP1 REVERT JUMPDEST POP PUSH2 0x319 PUSH1 0x4 DUP1 CALLDATASIZE SUB DUP2 ADD SWAP1 PUSH2 0x314 SWAP2 SWAP1 PUSH2 0x3030 JUMP JUMPDEST PUSH2 0x11A5 JUMP JUMPDEST STOP JUMPDEST CALLVALUE DUP1 ISZERO PUSH2 0x327 JUMPI PUSH1 0x0 DUP1 REVERT JUMPDEST POP PUSH2 0x330 PUSH2 0x13FC JUMP JUMPDEST STOP JUMPDEST CALLVALUE DUP1 ISZERO PUSH2 0x33E JUMPI PUSH1 0x0 DUP1 REVERT JUMPDEST POP PUSH2 0x359 PUSH1 0x4 DUP1 CALLDATASIZE SUB DUP2 ADD SWAP1 PUSH2 0x354 SWAP2 SWAP1 PUSH2 0x312A JUMP JUMPDEST PUSH2 0x1410 JUMP JUMPDEST STOP JUMPDEST CALLVALUE DUP1 ISZERO PUSH2 0x367 JUMPI PUSH1 0x0 DUP1 REVERT JUMPDEST POP PUSH2 0x382 PUSH1 0x4 DUP1 CALLDATASIZE SUB DUP2 ADD SWAP1 PUSH2 0x37D SWAP2 SWAP1 PUSH2 0x316A JUMP JUMPDEST PUSH2 0x1493 JUMP JUMPDEST STOP JUMPDEST CALLVALUE DUP1 ISZERO PUSH2 0x390 JUMPI PUSH1 0x0 DUP1 REVERT JUMPDEST POP PUSH2 0x3AB PUSH1 0x4 DUP1 CALLDATASIZE SUB DUP2 ADD SWAP1 PUSH2 0x3A6 SWAP2 SWAP1 PUSH2 0x2522 JUMP JUMPDEST PUSH2 0x14FE JUMP JUMPDEST STOP JUMPDEST CALLVALUE DUP1 ISZERO PUSH2 0x3B9 JUMPI PUSH1 0x0 DUP1 REVERT JUMPDEST POP PUSH2 0x3C2 PUSH2 0x1547 JUMP JUMPDEST PUSH1 0x40 MLOAD PUSH2 0x3CF SWAP2 SWAP1 PUSH2 0x31C6 JUMP JUMPDEST PUSH1 0x40 MLOAD DUP1 SWAP2 SUB SWAP1 RETURN JUMPDEST CALLVALUE DUP1 ISZERO PUSH2 0x3E4 JUMPI PUSH1 0x0 DUP1 REVERT JUMPDEST POP PUSH2 0x3ED PUSH2 0x1570 JUMP JUMPDEST PUSH1 0x40 MLOAD PUSH2 0x3FA SWAP2 SWAP1 PUSH2 0x31E1 JUMP JUMPDEST PUSH1 0x40 MLOAD DUP1 SWAP2 SUB SWAP1 RETURN JUMPDEST CALLVALUE DUP1 ISZERO PUSH2 0x40F JUMPI PUSH1 0x0 DUP1 REVERT JUMPDEST POP PUSH2 0x418 PUSH2 0x157A JUMP JUMPDEST PUSH1 0x40 MLOAD PUSH2 0x425 SWAP2 SWAP1 PUSH2 0x31C6 JUMP JUMPDEST PUSH1 0x40 MLOAD DUP1 SWAP2 SUB SWAP1 RETURN JUMPDEST CALLVALUE DUP1 ISZERO PUSH2 0x43A JUMPI PUSH1 0x0 DUP1 REVERT JUMPDEST POP PUSH2 0x455 PUSH1 0x4 DUP1 CALLDATASIZE SUB DUP2 ADD SWAP1 PUSH2 0x450 SWAP2 SWAP1 PUSH2 0x31FC JUMP JUMPDEST PUSH2 0x15A4 JUMP JUMPDEST STOP JUMPDEST PUSH2 0x471 PUSH1 0x4 DUP1 CALLDATASIZE SUB DUP2 ADD SWAP1 PUSH2 0x46C SWAP2 SWAP1 PUSH2 0x2522 JUMP JUMPDEST PUSH2 0x16FE JUMP JUMPDEST STOP JUMPDEST CALLVALUE DUP1 ISZERO PUSH2 0x47F JUMPI PUSH1 0x0 DUP1 REVERT JUMPDEST POP PUSH2 0x488 PUSH2 0x1853 JUMP JUMPDEST PUSH1 0x40 MLOAD PUSH2 0x495 SWAP2 SWAP1 PUSH2 0x31E1 JUMP JUMPDEST PUSH1 0x40 MLOAD DUP1 SWAP2 SUB SWAP1 RETURN JUMPDEST CALLVALUE DUP1 ISZERO PUSH2 0x4AA JUMPI PUSH1 0x0 DUP1 REVERT JUMPDEST POP PUSH2 0x4C5 PUSH1 0x4 DUP1 CALLDATASIZE SUB DUP2 ADD SWAP1 PUSH2 0x4C0 SWAP2 SWAP1 PUSH2 0x31FC JUMP JUMPDEST PUSH2 0x185D JUMP JUMPDEST STOP JUMPDEST CALLVALUE DUP1 ISZERO PUSH2 0x4D3 JUMPI PUSH1 0x0 DUP1 REVERT JUMPDEST POP PUSH2 0x4DC PUSH2 0x18DF JUMP JUMPDEST PUSH1 0x40 MLOAD PUSH2 0x4E9 SWAP2 SWAP1 PUSH2 0x31E1 JUMP JUMPDEST PUSH1 0x40 MLOAD DUP1 SWAP2 SUB SWAP1 RETURN JUMPDEST CALLVALUE DUP1 ISZERO PUSH2 0x4FE JUMPI PUSH1 0x0 DUP1 REVERT JUMPDEST POP PUSH2 0x519 PUSH1 0x4 DUP1 CALLDATASIZE SUB DUP2 ADD SWAP1 PUSH2 0x514 SWAP2 SWAP1 PUSH2 0x323C JUMP JUMPDEST PUSH2 0x18E9 JUMP JUMPDEST STOP JUMPDEST CALLVALUE DUP1 ISZERO PUSH2 0x527 JUMPI PUSH1 0x0 DUP1 REVERT JUMPDEST POP PUSH2 0x542 PUSH1 0x4 DUP1 CALLDATASIZE SUB DUP2 ADD SWAP1 PUSH2 0x53D SWAP2 SWAP1 PUSH2 0x24F5 JUMP JUMPDEST PUSH2 0x195F JUMP JUMPDEST STOP JUMPDEST PUSH2 0x55E PUSH1 0x4 DUP1 CALLDATASIZE SUB DUP2 ADD SWAP1 PUSH2 0x559 SWAP2 SWAP1 PUSH2 0x327C JUMP JUMPDEST PUSH2 0x19E5 JUMP JUMPDEST PUSH1 0x40 MLOAD PUSH2 0x56B SWAP2 SWAP1 PUSH2 0x31E1 JUMP JUMPDEST PUSH1 0x40 MLOAD DUP1 SWAP2 SUB SWAP1 RETURN JUMPDEST PUSH2 0x57C PUSH2 0x1E41 JUMP JUMPDEST PUSH1 0x0 PUSH1 0x1 PUSH1 0x0 DUP6 DUP2 MSTORE PUSH1 0x20 ADD SWAP1 DUP2 MSTORE PUSH1 0x20 ADD PUSH1 0x0 KECCAK256 PUSH1 0x9 ADD PUSH1 0x0 SWAP1 SLOAD SWAP1 PUSH2 0x100 EXP SWAP1 DIV PUSH20 0xFFFFFFFFFFFFFFFFFFFFFFFFFFFFFFFFFFFFFFFF AND SWAP1 POP DUP1 PUSH20 0xFFFFFFFFFFFFFFFFFFFFFFFFFFFFFFFFFFFFFFFF AND PUSH4 0x13E86265 DUP6 DUP6 PUSH1 0x40 MLOAD DUP4 PUSH4 0xFFFFFFFF AND PUSH1 0xE0 SHL DUP2 MSTORE PUSH1 0x4 ADD PUSH2 0x5F2 SWAP3 SWAP2 SWAP1 PUSH2 0x335D JUMP JUMPDEST PUSH1 0x0 PUSH1 0x40 MLOAD DUP1 DUP4 SUB DUP2 DUP7 GAS STATICCALL ISZERO DUP1 ISZERO PUSH2 0x60F JUMPI RETURNDATASIZE PUSH1 0x0 DUP1 RETURNDATACOPY RETURNDATASIZE PUSH1 0x0 REVERT JUMPDEST POP POP POP POP PUSH1 0x40 MLOAD RETURNDATASIZE PUSH1 0x0 DUP3 RETURNDATACOPY RETURNDATASIZE PUSH1 0x1F NOT PUSH1 0x1F DUP3 ADD AND DUP3 ADD DUP1 PUSH1 0x40 MSTORE POP DUP2 ADD SWAP1 PUSH2 0x638 SWAP2 SWAP1 PUSH2 0x37A9 JUMP JUMPDEST SWAP2 POP POP SWAP3 SWAP2 POP POP JUMP JUMPDEST PUSH2 0x649 PUSH2 0x1CEE JUMP JUMPDEST DUP1 PUSH1 0x5 PUSH1 0x0 PUSH2 0x100 EXP DUP2 SLOAD DUP2 PUSH20 0xFFFFFFFFFFFFFFFFFFFFFFFFFFFFFFFFFFFFFFFF MUL NOT AND SWAP1 DUP4 PUSH20 0xFFFFFFFFFFFFFFFFFFFFFFFFFFFFFFFFFFFFFFFF AND MUL OR SWAP1 SSTORE POP PUSH32 0x2F165C01002D221752E275A87B6ED91DF7C1B198B0BBE0E93DD28C7C834A08CC DUP2 PUSH1 0x40 MLOAD PUSH2 0x6B9 SWAP2 SWAP1 PUSH2 0x31C6 JUMP JUMPDEST PUSH1 0x40 MLOAD DUP1 SWAP2 SUB SWAP1 LOG1 POP JUMP JUMPDEST PUSH2 0x6CC PUSH2 0x1E90 JUMP JUMPDEST PUSH1 0x1 PUSH1 0x0 DUP4 DUP2 MSTORE PUSH1 0x20 ADD SWAP1 DUP2 MSTORE PUSH1 0x20 ADD PUSH1 0x0 KECCAK256 PUSH1 0x40 MLOAD DUP1 PUSH1 0xE0 ADD PUSH1 0x40 MSTORE SWAP1 DUP2 PUSH1 0x0 DUP3 ADD PUSH1 0x40 MLOAD DUP1 PUSH1 0xA0 ADD PUSH1 0x40 MSTORE SWAP1 DUP2 PUSH1 0x0 DUP3 ADD DUP1 SLOAD PUSH2 0x70A SWAP1 PUSH2 0x3821 JUMP JUMPDEST DUP1 PUSH1 0x1F ADD PUSH1 0x20 DUP1 SWAP2 DIV MUL PUSH1 0x20 ADD PUSH1 0x40 MLOAD SWAP1 DUP2 ADD PUSH1 0x40 MSTORE DUP1 SWAP3 SWAP2 SWAP1 DUP2 DUP2 MSTORE PUSH1 0x20 ADD DUP3 DUP1 SLOAD PUSH2 0x736 SWAP1 PUSH2 0x3821 JUMP JUMPDEST DUP1 ISZERO PUSH2 0x783 JUMPI DUP1 PUSH1 0x1F LT PUSH2 0x758 JUMPI PUSH2 0x100 DUP1 DUP4 SLOAD DIV MUL DUP4 MSTORE SWAP2 PUSH1 0x20 ADD SWAP2 PUSH2 0x783 JUMP JUMPDEST DUP3 ADD SWAP2 SWAP1 PUSH1 0x0 MSTORE PUSH1 0x20 PUSH1 0x0 KECCAK256 SWAP1 JUMPDEST DUP2 SLOAD DUP2 MSTORE SWAP1 PUSH1 0x1 ADD SWAP1 PUSH1 0x20 ADD DUP1 DUP4 GT PUSH2 0x766 JUMPI DUP3 SWAP1 SUB PUSH1 0x1F AND DUP3 ADD SWAP2 JUMPDEST POP POP POP POP POP DUP2 MSTORE PUSH1 0x20 ADD PUSH1 0x1 DUP3 ADD DUP1 SLOAD PUSH2 0x79C SWAP1 PUSH2 0x3821 JUMP JUMPDEST DUP1 PUSH1 0x1F ADD PUSH1 0x20 DUP1 SWAP2 DIV MUL PUSH1 0x20 ADD PUSH1 0x40 MLOAD SWAP1 DUP2 ADD PUSH1 0x40 MSTORE DUP1 SWAP3 SWAP2 SWAP1 DUP2 DUP2 MSTORE PUSH1 0x20 ADD DUP3 DUP1 SLOAD PUSH2 0x7C8 SWAP1 PUSH2 0x3821 JUMP JUMPDEST DUP1 ISZERO PUSH2 0x815 JUMPI DUP1 PUSH1 0x1F LT PUSH2 0x7EA JUMPI PUSH2 0x100 DUP1 DUP4 SLOAD DIV MUL DUP4 MSTORE SWAP2 PUSH1 0x20 ADD SWAP2 PUSH2 0x815 JUMP JUMPDEST DUP3 ADD SWAP2 SWAP1 PUSH1 0x0 MSTORE PUSH1 0x20 PUSH1 0x0 KECCAK256 SWAP1 JUMPDEST DUP2 SLOAD DUP2 MSTORE SWAP1 PUSH1 0x1 ADD SWAP1 PUSH1 0x20 ADD DUP1 DUP4 GT PUSH2 0x7F8 JUMPI DUP3 SWAP1 SUB PUSH1 0x1F AND DUP3 ADD SWAP2 JUMPDEST POP POP POP POP POP DUP2 MSTORE PUSH1 0x20 ADD PUSH1 0x2 DUP3 ADD DUP1 SLOAD PUSH2 0x82E SWAP1 PUSH2 0x3821 JUMP JUMPDEST DUP1 PUSH1 0x1F ADD PUSH1 0x20 DUP1 SWAP2 DIV MUL PUSH1 0x20 ADD PUSH1 0x40 MLOAD SWAP1 DUP2 ADD PUSH1 0x40 MSTORE DUP1 SWAP3 SWAP2 SWAP1 DUP2 DUP2 MSTORE PUSH1 0x20 ADD DUP3 DUP1 SLOAD PUSH2 0x85A SWAP1 PUSH2 0x3821 JUMP JUMPDEST DUP1 ISZERO PUSH2 0x8A7 JUMPI DUP1 PUSH1 0x1F LT PUSH2 0x87C JUMPI PUSH2 0x100 DUP1 DUP4 SLOAD DIV MUL DUP4 MSTORE SWAP2 PUSH1 0x20 ADD SWAP2 PUSH2 0x8A7 JUMP JUMPDEST DUP3 ADD SWAP2 SWAP1 PUSH1 0x0 MSTORE PUSH1 0x20 PUSH1 0x0 KECCAK256 SWAP1 JUMPDEST DUP2 SLOAD DUP2 MSTORE SWAP1 PUSH1 0x1 ADD SWAP1 PUSH1 0x20 ADD DUP1 DUP4 GT PUSH2 0x88A JUMPI DUP3 SWAP1 SUB PUSH1 0x1F AND DUP3 ADD SWAP2 JUMPDEST POP POP POP POP POP DUP2 MSTORE PUSH1 0x20 ADD PUSH1 0x3 DUP3 ADD DUP1 SLOAD DUP1 PUSH1 0x20 MUL PUSH1 0x20 ADD PUSH1 0x40 MLOAD SWAP1 DUP2 ADD PUSH1 0x40 MSTORE DUP1 SWAP3 SWAP2 SWAP1 DUP2 DUP2 MSTORE PUSH1 0x20 ADD PUSH1 0x0 SWAP1 JUMPDEST DUP3 DUP3 LT ISZERO PUSH2 0x981 JUMPI DUP4 DUP3 SWAP1 PUSH1 0x0 MSTORE PUSH1 0x20 PUSH1 0x0 KECCAK256 ADD DUP1 SLOAD PUSH2 0x8F4 SWAP1 PUSH2 0x3821 JUMP JUMPDEST DUP1 PUSH1 0x1F ADD PUSH1 0x20 DUP1 SWAP2 DIV MUL PUSH1 0x20 ADD PUSH1 0x40 MLOAD SWAP1 DUP2 ADD PUSH1 0x40 MSTORE DUP1 SWAP3 SWAP2 SWAP1 DUP2 DUP2 MSTORE PUSH1 0x20 ADD DUP3 DUP1 SLOAD PUSH2 0x920 SWAP1 PUSH2 0x3821 JUMP JUMPDEST DUP1 ISZERO PUSH2 0x96D JUMPI DUP1 PUSH1 0x1F LT PUSH2 0x942 JUMPI PUSH2 0x100 DUP1 DUP4 SLOAD DIV MUL DUP4 MSTORE SWAP2 PUSH1 0x20 ADD SWAP2 PUSH2 0x96D JUMP JUMPDEST DUP3 ADD SWAP2 SWAP1 PUSH1 0x0 MSTORE PUSH1 0x20 PUSH1 0x0 KECCAK256 SWAP1 JUMPDEST DUP2 SLOAD DUP2 MSTORE SWAP1 PUSH1 0x1 ADD SWAP1 PUSH1 0x20 ADD DUP1 DUP4 GT PUSH2 0x950 JUMPI DUP3 SWAP1 SUB PUSH1 0x1F AND DUP3 ADD SWAP2 JUMPDEST POP POP POP POP POP DUP2 MSTORE PUSH1 0x20 ADD SWAP1 PUSH1 0x1 ADD SWAP1 PUSH2 0x8D5 JUMP JUMPDEST POP POP POP POP DUP2 MSTORE PUSH1 0x20 ADD PUSH1 0x4 DUP3 ADD PUSH1 0x0 SWAP1 SLOAD SWAP1 PUSH2 0x100 EXP SWAP1 DIV PUSH1 0xFF AND ISZERO ISZERO ISZERO ISZERO DUP2 MSTORE POP POP DUP2 MSTORE PUSH1 0x20 ADD PUSH1 0x5 DUP3 ADD PUSH1 0x40 MLOAD DUP1 PUSH1 0x60 ADD PUSH1 0x40 MSTORE SWAP1 DUP2 PUSH1 0x0 DUP3 ADD PUSH1 0x0 SWAP1 SLOAD SWAP1 PUSH2 0x100 EXP SWAP1 DIV PUSH1 0xFF AND PUSH1 0x5 DUP2 GT ISZERO PUSH2 0x9DD JUMPI PUSH2 0x9DC PUSH2 0x25F5 JUMP JUMPDEST JUMPDEST PUSH1 0x5 DUP2 GT ISZERO PUSH2 0x9EF JUMPI PUSH2 0x9EE PUSH2 0x25F5 JUMP JUMPDEST JUMPDEST DUP2 MSTORE PUSH1 0x20 ADD PUSH1 0x1 DUP3 ADD DUP1 SLOAD DUP1 PUSH1 0x20 MUL PUSH1 0x20 ADD PUSH1 0x40 MLOAD SWAP1 DUP2 ADD PUSH1 0x40 MSTORE DUP1 SWAP3 SWAP2 SWAP1 DUP2 DUP2 MSTORE PUSH1 0x20 ADD PUSH1 0x0 SWAP1 JUMPDEST DUP3 DUP3 LT ISZERO PUSH2 0xB32 JUMPI DUP4 DUP3 SWAP1 PUSH1 0x0 MSTORE PUSH1 0x20 PUSH1 0x0 KECCAK256 SWAP1 PUSH1 0x2 MUL ADD PUSH1 0x40 MLOAD DUP1 PUSH1 0x40 ADD PUSH1 0x40 MSTORE SWAP1 DUP2 PUSH1 0x0 DUP3 ADD DUP1 SLOAD PUSH2 0xA4B SWAP1 PUSH2 0x3821 JUMP JUMPDEST DUP1 PUSH1 0x1F ADD PUSH1 0x20 DUP1 SWAP2 DIV MUL PUSH1 0x20 ADD PUSH1 0x40 MLOAD SWAP1 DUP2 ADD PUSH1 0x40 MSTORE DUP1 SWAP3 SWAP2 SWAP1 DUP2 DUP2 MSTORE PUSH1 0x20 ADD DUP3 DUP1 SLOAD PUSH2 0xA77 SWAP1 PUSH2 0x3821 JUMP JUMPDEST DUP1 ISZERO PUSH2 0xAC4 JUMPI DUP1 PUSH1 0x1F LT PUSH2 0xA99 JUMPI PUSH2 0x100 DUP1 DUP4 SLOAD DIV MUL DUP4 MSTORE SWAP2 PUSH1 0x20 ADD SWAP2 PUSH2 0xAC4 JUMP JUMPDEST DUP3 ADD SWAP2 SWAP1 PUSH1 0x0 MSTORE PUSH1 0x20 PUSH1 0x0 KECCAK256 SWAP1 JUMPDEST DUP2 SLOAD DUP2 MSTORE SWAP1 PUSH1 0x1 ADD SWAP1 PUSH1 0x20 ADD DUP1 DUP4 GT PUSH2 0xAA7 JUMPI DUP3 SWAP1 SUB PUSH1 0x1F AND DUP3 ADD SWAP2 JUMPDEST POP POP POP POP POP DUP2 MSTORE PUSH1 0x20 ADD PUSH1 0x1 DUP3 ADD PUSH1 0x0 SWAP1 SLOAD SWAP1 PUSH2 0x100 EXP SWAP1 DIV PUSH20 0xFFFFFFFFFFFFFFFFFFFFFFFFFFFFFFFFFFFFFFFF AND PUSH20 0xFFFFFFFFFFFFFFFFFFFFFFFFFFFFFFFFFFFFFFFF AND PUSH20 0xFFFFFFFFFFFFFFFFFFFFFFFFFFFFFFFFFFFFFFFF AND DUP2 MSTORE POP POP DUP2 MSTORE PUSH1 0x20 ADD SWAP1 PUSH1 0x1 ADD SWAP1 PUSH2 0xA18 JUMP JUMPDEST POP POP POP POP DUP2 MSTORE PUSH1 0x20 ADD PUSH1 0x2 DUP3 ADD DUP1 SLOAD PUSH2 0xB4A SWAP1 PUSH2 0x3821 JUMP JUMPDEST DUP1 PUSH1 0x1F ADD PUSH1 0x20 DUP1 SWAP2 DIV MUL PUSH1 0x20 ADD PUSH1 0x40 MLOAD SWAP1 DUP2 ADD PUSH1 0x40 MSTORE DUP1 SWAP3 SWAP2 SWAP1 DUP2 DUP2 MSTORE PUSH1 0x20 ADD DUP3 DUP1 SLOAD PUSH2 0xB76 SWAP1 PUSH2 0x3821 JUMP JUMPDEST DUP1 ISZERO PUSH2 0xBC3 JUMPI DUP1 PUSH1 0x1F LT PUSH2 0xB98 JUMPI PUSH2 0x100 DUP1 DUP4 SLOAD DIV MUL DUP4 MSTORE SWAP2 PUSH1 0x20 ADD SWAP2 PUSH2 0xBC3 JUMP JUMPDEST DUP3 ADD SWAP2 SWAP1 PUSH1 0x0 MSTORE PUSH1 0x20 PUSH1 0x0 KECCAK256 SWAP1 JUMPDEST DUP2 SLOAD DUP2 MSTORE SWAP1 PUSH1 0x1 ADD SWAP1 PUSH1 0x20 ADD DUP1 DUP4 GT PUSH2 0xBA6 JUMPI DUP3 SWAP1 SUB PUSH1 0x1F AND DUP3 ADD SWAP2 JUMPDEST POP POP POP POP POP DUP2 MSTORE POP POP DUP2 MSTORE PUSH1 0x20 ADD PUSH1 0x8 DUP3 ADD DUP1 SLOAD DUP1 PUSH1 0x20 MUL PUSH1 0x20 ADD PUSH1 0x40 MLOAD SWAP1 DUP2 ADD PUSH1 0x40 MSTORE DUP1 SWAP3 SWAP2 SWAP1 DUP2 DUP2 MSTORE PUSH1 0x20 ADD DUP3 DUP1 SLOAD DUP1 ISZERO PUSH2 0xC1F JUMPI PUSH1 0x20 MUL DUP3 ADD SWAP2 SWAP1 PUSH1 0x0 MSTORE PUSH1 0x20 PUSH1 0x0 KECCAK256 SWAP1 JUMPDEST DUP2 SLOAD DUP2 MSTORE PUSH1 0x20 ADD SWAP1 PUSH1 0x1 ADD SWAP1 DUP1 DUP4 GT PUSH2 0xC0B JUMPI JUMPDEST POP POP POP POP POP DUP2 MSTORE PUSH1 0x20 ADD PUSH1 0x9 DUP3 ADD PUSH1 0x0 SWAP1 SLOAD SWAP1 PUSH2 0x100 EXP SWAP1 DIV PUSH20 0xFFFFFFFFFFFFFFFFFFFFFFFFFFFFFFFFFFFFFFFF AND PUSH20 0xFFFFFFFFFFFFFFFFFFFFFFFFFFFFFFFFFFFFFFFF AND PUSH20 0xFFFFFFFFFFFFFFFFFFFFFFFFFFFFFFFFFFFFFFFF AND DUP2 MSTORE PUSH1 0x20 ADD PUSH1 0x9 DUP3 ADD PUSH1 0x14 SWAP1 SLOAD SWAP1 PUSH2 0x100 EXP SWAP1 DIV PUSH1 0xFF AND PUSH1 0x1 DUP2 GT ISZERO PUSH2 0xCA3 JUMPI PUSH2 0xCA2 PUSH2 0x25F5 JUMP JUMPDEST JUMPDEST PUSH1 0x1 DUP2 GT ISZERO PUSH2 0xCB5 JUMPI PUSH2 0xCB4 PUSH2 0x25F5 JUMP JUMPDEST JUMPDEST DUP2 MSTORE PUSH1 0x20 ADD PUSH1 0x9 DUP3 ADD PUSH1 0x15 SWAP1 SLOAD SWAP1 PUSH2 0x100 EXP SWAP1 DIV PUSH1 0xFF AND ISZERO ISZERO ISZERO ISZERO DUP2 MSTORE PUSH1 0x20 ADD PUSH1 0xA DUP3 ADD SLOAD DUP2 MSTORE POP POP SWAP1 POP SWAP2 SWAP1 POP JUMP JUMPDEST PUSH2 0xCED PUSH2 0x1CEE JUMP JUMPDEST PUSH1 0x1 PUSH1 0x0 DUP5 DUP2 MSTORE PUSH1 0x20 ADD SWAP1 DUP2 MSTORE PUSH1 0x20 ADD PUSH1 0x0 KECCAK256 PUSH1 0x9 ADD PUSH1 0x15 SWAP1 SLOAD SWAP1 PUSH2 0x100 EXP SWAP1 DIV PUSH1 0xFF AND ISZERO PUSH2 0xD51 JUMPI PUSH1 0x40 MLOAD PUSH32 0x8C379A000000000000000000000000000000000000000000000000000000000 DUP2 MSTORE PUSH1 0x4 ADD PUSH2 0xD48 SWAP1 PUSH2 0x38AF JUMP JUMPDEST PUSH1 0x40 MLOAD DUP1 SWAP2 SUB SWAP1 REVERT JUMPDEST PUSH1 0x3 SLOAD PUSH1 0x1 PUSH1 0x0 DUP6 DUP2 MSTORE PUSH1 0x20 ADD SWAP1 DUP2 MSTORE PUSH1 0x20 ADD PUSH1 0x0 KECCAK256 PUSH1 0xA ADD SLOAD LT ISZERO PUSH2 0xDAC JUMPI PUSH1 0x40 MLOAD PUSH32 0x8C379A000000000000000000000000000000000000000000000000000000000 DUP2 MSTORE PUSH1 0x4 ADD PUSH2 0xDA3 SWAP1 PUSH2 0x3941 JUMP JUMPDEST PUSH1 0x40 MLOAD DUP1 SWAP2 SUB SWAP1 REVERT JUMPDEST PUSH1 0x3 SLOAD PUSH1 0x1 PUSH1 0x0 DUP6 DUP2 MSTORE PUSH1 0x20 ADD SWAP1 DUP2 MSTORE PUSH1 0x20 ADD PUSH1 0x0 KECCAK256 PUSH1 0xA ADD PUSH1 0x0 DUP3 DUP3 SLOAD PUSH2 0xDD4 SWAP2 SWAP1 PUSH2 0x3990 JUMP JUMPDEST SWAP3 POP POP DUP2 SWAP1 SSTORE POP PUSH1 0x3 SLOAD PUSH1 0x1 PUSH1 0x0 DUP6 DUP2 MSTORE PUSH1 0x20 ADD SWAP1 DUP2 MSTORE PUSH1 0x20 ADD PUSH1 0x0 KECCAK256 PUSH1 0xA ADD SLOAD LT ISZERO PUSH2 0xE61 JUMPI PUSH1 0x1 DUP1 PUSH1 0x0 DUP6 DUP2 MSTORE PUSH1 0x20 ADD SWAP1 DUP2 MSTORE PUSH1 0x20 ADD PUSH1 0x0 KECCAK256 PUSH1 0x9 ADD PUSH1 0x15 PUSH2 0x100 EXP DUP2 SLOAD DUP2 PUSH1 0xFF MUL NOT AND SWAP1 DUP4 ISZERO ISZERO MUL OR SWAP1 SSTORE POP PUSH32 0xD5D88098DE5BA30573F08926C4E6445CAB93CE09D98C1147A64045608A50797F DUP4 PUSH1 0x40 MLOAD PUSH2 0xE58 SWAP2 SWAP1 PUSH2 0x31E1 JUMP JUMPDEST PUSH1 0x40 MLOAD DUP1 SWAP2 SUB SWAP1 LOG1 JUMPDEST PUSH1 0x0 PUSH1 0x1 PUSH1 0x0 DUP6 DUP2 MSTORE PUSH1 0x20 ADD SWAP1 DUP2 MSTORE PUSH1 0x20 ADD PUSH1 0x0 KECCAK256 PUSH1 0x9 ADD PUSH1 0x0 SWAP1 SLOAD SWAP1 PUSH2 0x100 EXP SWAP1 DIV PUSH20 0xFFFFFFFFFFFFFFFFFFFFFFFFFFFFFFFFFFFFFFFF AND SWAP1 POP DUP1 PUSH20 0xFFFFFFFFFFFFFFFFFFFFFFFFFFFFFFFFFFFFFFFF AND PUSH4 0x3C973F75 DUP6 DUP6 DUP6 PUSH1 0x40 MLOAD DUP5 PUSH4 0xFFFFFFFF AND PUSH1 0xE0 SHL DUP2 MSTORE PUSH1 0x4 ADD PUSH2 0xED9 SWAP4 SWAP3 SWAP2 SWAP1 PUSH2 0x39C4 JUMP JUMPDEST PUSH1 0x0 PUSH1 0x40 MLOAD DUP1 DUP4 SUB DUP2 PUSH1 0x0 DUP8 DUP1 EXTCODESIZE ISZERO DUP1 ISZERO PUSH2 0xEF3 JUMPI PUSH1 0x0 DUP1 REVERT JUMPDEST POP GAS CALL ISZERO DUP1 ISZERO PUSH2 0xF07 JUMPI RETURNDATASIZE PUSH1 0x0 DUP1 RETURNDATACOPY RETURNDATASIZE PUSH1 0x0 REVERT JUMPDEST POP POP POP POP POP POP POP POP JUMP JUMPDEST PUSH2 0xF19 PUSH2 0x1CEE JUMP JUMPDEST PUSH1 0x0 SELFBALANCE SWAP1 POP PUSH1 0x0 DUP2 GT PUSH2 0xF61 JUMPI PUSH1 0x40 MLOAD PUSH32 0x8C379A000000000000000000000000000000000000000000000000000000000 DUP2 MSTORE PUSH1 0x4 ADD PUSH2 0xF58 SWAP1 PUSH2 0x3A4E JUMP JUMPDEST PUSH1 0x40 MLOAD DUP1 SWAP2 SUB SWAP1 REVERT JUMPDEST PUSH1 0x0 PUSH2 0xF6B PUSH2 0x1547 JUMP JUMPDEST SWAP1 POP PUSH1 0x0 DUP2 PUSH20 0xFFFFFFFFFFFFFFFFFFFFFFFFFFFFFFFFFFFFFFFF AND DUP4 PUSH1 0x40 MLOAD PUSH2 0xF93 SWAP1 PUSH2 0x3A9F JUMP JUMPDEST PUSH1 0x0 PUSH1 0x40 MLOAD DUP1 DUP4 SUB DUP2 DUP6 DUP8 GAS CALL SWAP3 POP POP POP RETURNDATASIZE DUP1 PUSH1 0x0 DUP2 EQ PUSH2 0xFD0 JUMPI PUSH1 0x40 MLOAD SWAP2 POP PUSH1 0x1F NOT PUSH1 0x3F RETURNDATASIZE ADD AND DUP3 ADD PUSH1 0x40 MSTORE RETURNDATASIZE DUP3 MSTORE RETURNDATASIZE PUSH1 0x0 PUSH1 0x20 DUP5 ADD RETURNDATACOPY PUSH2 0xFD5 JUMP JUMPDEST PUSH1 0x60 SWAP2 POP JUMPDEST POP POP SWAP1 POP DUP1 PUSH2 0x1019 JUMPI PUSH1 0x40 MLOAD PUSH32 0x8C379A000000000000000000000000000000000000000000000000000000000 DUP2 MSTORE PUSH1 0x4 ADD PUSH2 0x1010 SWAP1 PUSH2 0x3B00 JUMP JUMPDEST PUSH1 0x40 MLOAD DUP1 SWAP2 SUB SWAP1 REVERT JUMPDEST PUSH32 0xD964A27D45F595739C13D8B1160B57491050CACF3A2E5602207277D6228F64EE DUP4 DUP4 PUSH1 0x40 MLOAD PUSH2 0x104A SWAP3 SWAP2 SWAP1 PUSH2 0x3B7F JUMP JUMPDEST PUSH1 0x40 MLOAD DUP1 SWAP2 SUB SWAP1 LOG1 POP POP POP JUMP JUMPDEST PUSH2 0x105F PUSH2 0x1CEE JUMP JUMPDEST DUP1 PUSH1 0x3 DUP2 SWAP1 SSTORE POP PUSH32 0x840C2296C4C97ECDC9B8DC544CD67F45A8D629B9D6109410530BB58B7F17B92 DUP2 PUSH1 0x40 MLOAD PUSH2 0x1095 SWAP2 SWAP1 PUSH2 0x31E1 JUMP JUMPDEST PUSH1 0x40 MLOAD DUP1 SWAP2 SUB SWAP1 LOG1 POP JUMP JUMPDEST PUSH2 0x10A8 PUSH2 0x1CEE JUMP JUMPDEST DUP1 PUSH1 0x1 PUSH1 0x0 DUP5 DUP2 MSTORE PUSH1 0x20 ADD SWAP1 DUP2 MSTORE PUSH1 0x20 ADD PUSH1 0x0 KECCAK256 PUSH1 0x5 ADD DUP2 DUP2 PUSH2 0x10CB SWAP2 SWAP1 PUSH2 0x4516 JUMP JUMPDEST SWAP1 POP POP PUSH32 0xF768BB0DD5BD987CDBC2706C837263B29E7326B0651E4FE20C16372D24CC02AC DUP3 DUP3 PUSH1 0x40 MLOAD PUSH2 0x10FF SWAP3 SWAP2 SWAP1 PUSH2 0x47E8 JUMP JUMPDEST PUSH1 0x40 MLOAD DUP1 SWAP2 SUB SWAP1 LOG1 POP POP JUMP JUMPDEST PUSH2 0x1113 PUSH2 0x1CEE JUMP JUMPDEST DUP1 PUSH1 0x1 PUSH1 0x0 DUP5 DUP2 MSTORE PUSH1 0x20 ADD SWAP1 DUP2 MSTORE PUSH1 0x20 ADD PUSH1 0x0 KECCAK256 PUSH1 0x9 ADD PUSH1 0x0 PUSH2 0x100 EXP DUP2 SLOAD DUP2 PUSH20 0xFFFFFFFFFFFFFFFFFFFFFFFFFFFFFFFFFFFFFFFF MUL NOT AND SWAP1 DUP4 PUSH20 0xFFFFFFFFFFFFFFFFFFFFFFFFFFFFFFFFFFFFFFFF AND MUL OR SWAP1 SSTORE POP PUSH32 0xACD3BFB47D15F9F1D5DB04BF52AECE3B8C4FD63E70C97B91293415D2F2341F38 DUP3 DUP3 PUSH1 0x40 MLOAD PUSH2 0x1199 SWAP3 SWAP2 SWAP1 PUSH2 0x4818 JUMP JUMPDEST PUSH1 0x40 MLOAD DUP1 SWAP2 SUB SWAP1 LOG1 POP POP JUMP JUMPDEST PUSH2 0x11AD PUSH2 0x1CEE JUMP JUMPDEST PUSH1 0x0 PUSH1 0x1 PUSH1 0x0 DUP11 DUP2 MSTORE PUSH1 0x20 ADD SWAP1 DUP2 MSTORE PUSH1 0x20 ADD PUSH1 0x0 KECCAK256 SWAP1 POP DUP8 DUP2 PUSH1 0x0 ADD DUP2 DUP2 PUSH2 0x11D5 SWAP2 SWAP1 PUSH2 0x4AFB JUMP JUMPDEST SWAP1 POP POP DUP7 DUP2 PUSH1 0x5 ADD DUP2 DUP2 PUSH2 0x11E9 SWAP2 SWAP1 PUSH2 0x4516 JUMP JUMPDEST SWAP1 POP POP DUP4 DUP2 PUSH1 0x9 ADD PUSH1 0x0 PUSH2 0x100 EXP DUP2 SLOAD DUP2 PUSH20 0xFFFFFFFFFFFFFFFFFFFFFFFFFFFFFFFFFFFFFFFF MUL NOT AND SWAP1 DUP4 PUSH20 0xFFFFFFFFFFFFFFFFFFFFFFFFFFFFFFFFFFFFFFFF AND MUL OR SWAP1 SSTORE POP DUP3 DUP2 PUSH1 0x9 ADD PUSH1 0x14 PUSH2 0x100 EXP DUP2 SLOAD DUP2 PUSH1 0xFF MUL NOT AND SWAP1 DUP4 PUSH1 0x1 DUP2 GT ISZERO PUSH2 0x1256 JUMPI PUSH2 0x1255 PUSH2 0x25F5 JUMP JUMPDEST JUMPDEST MUL OR SWAP1 SSTORE POP DUP1 PUSH1 0x9 ADD PUSH1 0x15 SWAP1 SLOAD SWAP1 PUSH2 0x100 EXP SWAP1 DIV PUSH1 0xFF AND ISZERO DUP1 ISZERO PUSH2 0x1277 JUMPI POP DUP2 JUMPDEST ISZERO PUSH2 0x12D5 JUMPI PUSH1 0x1 DUP2 PUSH1 0x9 ADD PUSH1 0x15 PUSH2 0x100 EXP DUP2 SLOAD DUP2 PUSH1 0xFF MUL NOT AND SWAP1 DUP4 ISZERO ISZERO MUL OR SWAP1 SSTORE POP PUSH32 0xD5D88098DE5BA30573F08926C4E6445CAB93CE09D98C1147A64045608A50797F DUP10 PUSH1 0x40 MLOAD PUSH2 0x12C8 SWAP2 SWAP1 PUSH2 0x31E1 JUMP JUMPDEST PUSH1 0x40 MLOAD DUP1 SWAP2 SUB SWAP1 LOG1 PUSH2 0x134C JUMP JUMPDEST DUP1 PUSH1 0x9 ADD PUSH1 0x15 SWAP1 SLOAD SWAP1 PUSH2 0x100 EXP SWAP1 DIV PUSH1 0xFF AND DUP1 ISZERO PUSH2 0x12F1 JUMPI POP DUP2 ISZERO JUMPDEST ISZERO PUSH2 0x134B JUMPI PUSH1 0x0 DUP2 PUSH1 0x9 ADD PUSH1 0x15 PUSH2 0x100 EXP DUP2 SLOAD DUP2 PUSH1 0xFF MUL NOT AND SWAP1 DUP4 ISZERO ISZERO MUL OR SWAP1 SSTORE POP PUSH32 0x8DA007FC61F3601008AA139C728EA9BF16672668B03C07F6C402AB74C034FC81 DUP10 PUSH1 0x40 MLOAD PUSH2 0x1342 SWAP2 SWAP1 PUSH2 0x31E1 JUMP JUMPDEST PUSH1 0x40 MLOAD DUP1 SWAP2 SUB SWAP1 LOG1 JUMPDEST JUMPDEST DUP1 PUSH1 0x8 ADD PUSH1 0x0 PUSH2 0x135C SWAP2 SWAP1 PUSH2 0x1F03 JUMP JUMPDEST PUSH1 0x0 JUMPDEST DUP7 DUP7 SWAP1 POP DUP2 LT ISZERO PUSH2 0x13B9 JUMPI DUP2 PUSH1 0x8 ADD DUP8 DUP8 DUP4 DUP2 DUP2 LT PUSH2 0x1381 JUMPI PUSH2 0x1380 PUSH2 0x4B09 JUMP JUMPDEST JUMPDEST SWAP1 POP PUSH1 0x20 MUL ADD CALLDATALOAD SWAP1 DUP1 PUSH1 0x1 DUP2 SLOAD ADD DUP1 DUP3 SSTORE DUP1 SWAP2 POP POP PUSH1 0x1 SWAP1 SUB SWAP1 PUSH1 0x0 MSTORE PUSH1 0x20 PUSH1 0x0 KECCAK256 ADD PUSH1 0x0 SWAP1 SWAP2 SWAP1 SWAP2 SWAP1 SWAP2 POP SSTORE DUP1 PUSH1 0x1 ADD SWAP1 POP PUSH2 0x135F JUMP JUMPDEST POP PUSH32 0x887CC86755221DB77FB9A404D4834A6CA76A28DF7C71C7650318819AD0F46A3C DUP10 PUSH1 0x40 MLOAD PUSH2 0x13E9 SWAP2 SWAP1 PUSH2 0x31E1 JUMP JUMPDEST PUSH1 0x40 MLOAD DUP1 SWAP2 SUB SWAP1 LOG1 POP POP POP POP POP POP POP POP POP JUMP JUMPDEST PUSH2 0x1404 PUSH2 0x1CEE JUMP JUMPDEST PUSH2 0x140E PUSH1 0x0 PUSH2 0x1D75 JUMP JUMPDEST JUMP JUMPDEST PUSH2 0x1418 PUSH2 0x1CEE JUMP JUMPDEST DUP1 PUSH1 0x1 PUSH1 0x0 DUP5 DUP2 MSTORE PUSH1 0x20 ADD SWAP1 DUP2 MSTORE PUSH1 0x20 ADD PUSH1 0x0 KECCAK256 PUSH1 0x9 ADD PUSH1 0x14 PUSH2 0x100 EXP DUP2 SLOAD DUP2 PUSH1 0xFF MUL NOT AND SWAP1 DUP4 PUSH1 0x1 DUP2 GT ISZERO PUSH2 0x1451 JUMPI PUSH2 0x1450 PUSH2 0x25F5 JUMP JUMPDEST JUMPDEST MUL OR SWAP1 SSTORE POP PUSH32 0xEAEEE81CA4B132C1F2699CF2E7F71C26ADB6FFE780097AC7D6E9DDF978398B62 DUP3 DUP3 PUSH1 0x40 MLOAD PUSH2 0x1487 SWAP3 SWAP2 SWAP1 PUSH2 0x4B47 JUMP JUMPDEST PUSH1 0x40 MLOAD DUP1 SWAP2 SUB SWAP1 LOG1 POP POP JUMP JUMPDEST PUSH2 0x149B PUSH2 0x1CEE JUMP JUMPDEST DUP1 PUSH1 0x1 PUSH1 0x0 DUP5 DUP2 MSTORE PUSH1 0x20 ADD SWAP1 DUP2 MSTORE PUSH1 0x20 ADD PUSH1 0x0 KECCAK256 PUSH1 0x0 ADD DUP2 DUP2 PUSH2 0x14BE SWAP2 SWAP1 PUSH2 0x4AFB JUMP JUMPDEST SWAP1 POP POP PUSH32 0x440C55E385A61CD472C0CD76EE015CAB9BD0760AEF9634633E6597FDEA583FD5 DUP3 DUP3 PUSH1 0x40 MLOAD PUSH2 0x14F2 SWAP3 SWAP2 SWAP1 PUSH2 0x4D3E JUMP JUMPDEST PUSH1 0x40 MLOAD DUP1 SWAP2 SUB SWAP1 LOG1 POP POP JUMP JUMPDEST PUSH2 0x1506 PUSH2 0x1CEE JUMP JUMPDEST DUP1 PUSH1 0x2 DUP2 SWAP1 SSTORE POP PUSH32 0xAC9C054628BA106D4664C2C08386354E161EAB546A0A47FAF040BFC1062845E7 DUP2 PUSH1 0x40 MLOAD PUSH2 0x153C SWAP2 SWAP1 PUSH2 0x31E1 JUMP JUMPDEST PUSH1 0x40 MLOAD DUP1 SWAP2 SUB SWAP1 LOG1 POP JUMP JUMPDEST PUSH1 0x0 DUP1 PUSH1 0x0 SWAP1 SLOAD SWAP1 PUSH2 0x100 EXP SWAP1 DIV PUSH20 0xFFFFFFFFFFFFFFFFFFFFFFFFFFFFFFFFFFFFFFFF AND SWAP1 POP SWAP1 JUMP JUMPDEST PUSH1 0x0 PUSH1 0x4 SLOAD SWAP1 POP SWAP1 JUMP JUMPDEST PUSH1 0x0 PUSH1 0x5 PUSH1 0x0 SWAP1 SLOAD SWAP1 PUSH2 0x100 EXP SWAP1 DIV PUSH20 0xFFFFFFFFFFFFFFFFFFFFFFFFFFFFFFFFFFFFFFFF AND SWAP1 POP SWAP1 JUMP JUMPDEST PUSH2 0x15AC PUSH2 0x1CEE JUMP JUMPDEST PUSH1 0x0 PUSH1 0x1 PUSH1 0x0 DUP5 DUP2 MSTORE PUSH1 0x20 ADD SWAP1 DUP2 MSTORE PUSH1 0x20 ADD PUSH1 0x0 KECCAK256 PUSH1 0x8 ADD SWAP1 POP PUSH1 0x0 JUMPDEST DUP2 DUP1 SLOAD SWAP1 POP DUP2 LT ISZERO PUSH2 0x16BC JUMPI DUP3 DUP3 DUP3 DUP2 SLOAD DUP2 LT PUSH2 0x15E9 JUMPI PUSH2 0x15E8 PUSH2 0x4B09 JUMP JUMPDEST JUMPDEST SWAP1 PUSH1 0x0 MSTORE PUSH1 0x20 PUSH1 0x0 KECCAK256 ADD SLOAD SUB PUSH2 0x16AF JUMPI DUP2 PUSH1 0x1 DUP4 DUP1 SLOAD SWAP1 POP PUSH2 0x160B SWAP2 SWAP1 PUSH2 0x3990 JUMP JUMPDEST DUP2 SLOAD DUP2 LT PUSH2 0x161C JUMPI PUSH2 0x161B PUSH2 0x4B09 JUMP JUMPDEST JUMPDEST SWAP1 PUSH1 0x0 MSTORE PUSH1 0x20 PUSH1 0x0 KECCAK256 ADD SLOAD DUP3 DUP3 DUP2 SLOAD DUP2 LT PUSH2 0x163A JUMPI PUSH2 0x1639 PUSH2 0x4B09 JUMP JUMPDEST JUMPDEST SWAP1 PUSH1 0x0 MSTORE PUSH1 0x20 PUSH1 0x0 KECCAK256 ADD DUP2 SWAP1 SSTORE POP DUP2 DUP1 SLOAD DUP1 PUSH2 0x1659 JUMPI PUSH2 0x1658 PUSH2 0x4D6E JUMP JUMPDEST JUMPDEST PUSH1 0x1 SWAP1 SUB DUP2 DUP2 SWAP1 PUSH1 0x0 MSTORE PUSH1 0x20 PUSH1 0x0 KECCAK256 ADD PUSH1 0x0 SWAP1 SSTORE SWAP1 SSTORE PUSH32 0x2264FA092E5819982F4EDCA5B7E9C6318A16DC3E03673510429C078656DEA45C DUP5 DUP5 PUSH1 0x40 MLOAD PUSH2 0x16A0 SWAP3 SWAP2 SWAP1 PUSH2 0x4D9D JUMP JUMPDEST PUSH1 0x40 MLOAD DUP1 SWAP2 SUB SWAP1 LOG1 POP POP PUSH2 0x16FA JUMP JUMPDEST DUP1 DUP1 PUSH1 0x1 ADD SWAP2 POP POP PUSH2 0x15C9 JUMP JUMPDEST POP DUP2 PUSH1 0x40 MLOAD PUSH32 0x84CE930A00000000000000000000000000000000000000000000000000000000 DUP2 MSTORE PUSH1 0x4 ADD PUSH2 0x16F1 SWAP2 SWAP1 PUSH2 0x31E1 JUMP JUMPDEST PUSH1 0x40 MLOAD DUP1 SWAP2 SUB SWAP1 REVERT JUMPDEST POP POP JUMP JUMPDEST PUSH1 0x0 CALLVALUE SUB PUSH2 0x1738 JUMPI PUSH1 0x40 MLOAD PUSH32 0x1F2A200500000000000000000000000000000000000000000000000000000000 DUP2 MSTORE PUSH1 0x4 ADD PUSH1 0x40 MLOAD DUP1 SWAP2 SUB SWAP1 REVERT JUMPDEST CALLVALUE PUSH1 0x1 PUSH1 0x0 DUP4 DUP2 MSTORE PUSH1 0x20 ADD SWAP1 DUP2 MSTORE PUSH1 0x20 ADD PUSH1 0x0 KECCAK256 PUSH1 0xA ADD PUSH1 0x0 DUP3 DUP3 SLOAD PUSH2 0x175E SWAP2 SWAP1 PUSH2 0x4DC6 JUMP JUMPDEST SWAP3 POP POP DUP2 SWAP1 SSTORE POP PUSH1 0x1 PUSH1 0x0 DUP3 DUP2 MSTORE PUSH1 0x20 ADD SWAP1 DUP2 MSTORE PUSH1 0x20 ADD PUSH1 0x0 KECCAK256 PUSH1 0x9 ADD PUSH1 0x15 SWAP1 SLOAD SWAP1 PUSH2 0x100 EXP SWAP1 DIV PUSH1 0xFF AND ISZERO PUSH2 0x1815 JUMPI PUSH1 0x3 SLOAD PUSH1 0x1 PUSH1 0x0 DUP4 DUP2 MSTORE PUSH1 0x20 ADD SWAP1 DUP2 MSTORE PUSH1 0x20 ADD PUSH1 0x0 KECCAK256 PUSH1 0xA ADD SLOAD LT PUSH2 0x1814 JUMPI PUSH1 0x0 PUSH1 0x1 PUSH1 0x0 DUP4 DUP2 MSTORE PUSH1 0x20 ADD SWAP1 DUP2 MSTORE PUSH1 0x20 ADD PUSH1 0x0 KECCAK256 PUSH1 0x9 ADD PUSH1 0x15 PUSH2 0x100 EXP DUP2 SLOAD DUP2 PUSH1 0xFF MUL NOT AND SWAP1 DUP4 ISZERO ISZERO MUL OR SWAP1 SSTORE POP PUSH32 0x8DA007FC61F3601008AA139C728EA9BF16672668B03C07F6C402AB74C034FC81 DUP2 PUSH1 0x40 MLOAD PUSH2 0x180B SWAP2 SWAP1 PUSH2 0x31E1 JUMP JUMPDEST PUSH1 0x40 MLOAD DUP1 SWAP2 SUB SWAP1 LOG1 JUMPDEST JUMPDEST PUSH32 0xD6E9BD49F32CE5202A849C6AB581631B3E952257363B06975F32872E9E1656C9 CALLER CALLVALUE DUP4 PUSH1 0x40 MLOAD PUSH2 0x1848 SWAP4 SWAP3 SWAP2 SWAP1 PUSH2 0x4DFA JUMP JUMPDEST PUSH1 0x40 MLOAD DUP1 SWAP2 SUB SWAP1 LOG1 POP JUMP JUMPDEST PUSH1 0x0 PUSH1 0x2 SLOAD SWAP1 POP SWAP1 JUMP JUMPDEST PUSH2 0x1865 PUSH2 0x1CEE JUMP JUMPDEST PUSH1 0x1 PUSH1 0x0 DUP4 DUP2 MSTORE PUSH1 0x20 ADD SWAP1 DUP2 MSTORE PUSH1 0x20 ADD PUSH1 0x0 KECCAK256 PUSH1 0x8 ADD DUP2 SWAP1 DUP1 PUSH1 0x1 DUP2 SLOAD ADD DUP1 DUP3 SSTORE DUP1 SWAP2 POP POP PUSH1 0x1 SWAP1 SUB SWAP1 PUSH1 0x0 MSTORE PUSH1 0x20 PUSH1 0x0 KECCAK256 ADD PUSH1 0x0 SWAP1 SWAP2 SWAP1 SWAP2 SWAP1 SWAP2 POP SSTORE PUSH32 0xFCDFD5AEB97F499CA134ED43F010F2A4F5B0AB73D317AC27246A066A050A73AF DUP3 DUP3 PUSH1 0x40 MLOAD PUSH2 0x18D3 SWAP3 SWAP2 SWAP1 PUSH2 0x4D9D JUMP JUMPDEST PUSH1 0x40 MLOAD DUP1 SWAP2 SUB SWAP1 LOG1 POP POP JUMP JUMPDEST PUSH1 0x0 PUSH1 0x3 SLOAD SWAP1 POP SWAP1 JUMP JUMPDEST PUSH2 0x18F1 PUSH2 0x1CEE JUMP JUMPDEST DUP1 PUSH1 0x1 PUSH1 0x0 DUP5 DUP2 MSTORE PUSH1 0x20 ADD SWAP1 DUP2 MSTORE PUSH1 0x20 ADD PUSH1 0x0 KECCAK256 PUSH1 0x0 ADD PUSH1 0x4 ADD PUSH1 0x0 PUSH2 0x100 EXP DUP2 SLOAD DUP2 PUSH1 0xFF MUL NOT AND SWAP1 DUP4 ISZERO ISZERO MUL OR SWAP1 SSTORE POP PUSH32 0xED2F2C7A2316DDC2F46A4581250611F807810052BB38BEF2FBD1A81D087E064B DUP3 DUP3 PUSH1 0x40 MLOAD PUSH2 0x1953 SWAP3 SWAP2 SWAP1 PUSH2 0x4E40 JUMP JUMPDEST PUSH1 0x40 MLOAD DUP1 SWAP2 SUB SWAP1 LOG1 POP POP JUMP JUMPDEST PUSH2 0x1967 PUSH2 0x1CEE JUMP JUMPDEST PUSH1 0x0 PUSH20 0xFFFFFFFFFFFFFFFFFFFFFFFFFFFFFFFFFFFFFFFF AND DUP2 PUSH20 0xFFFFFFFFFFFFFFFFFFFFFFFFFFFFFFFFFFFFFFFF AND SUB PUSH2 0x19D9 JUMPI PUSH1 0x0 PUSH1 0x40 MLOAD PUSH32 0x1E4FBDF700000000000000000000000000000000000000000000000000000000 DUP2 MSTORE PUSH1 0x4 ADD PUSH2 0x19D0 SWAP2 SWAP1 PUSH2 0x31C6 JUMP JUMPDEST PUSH1 0x40 MLOAD DUP1 SWAP2 SUB SWAP1 REVERT JUMPDEST PUSH2 0x19E2 DUP2 PUSH2 0x1D75 JUMP JUMPDEST POP JUMP JUMPDEST PUSH1 0x0 DUP1 PUSH20 0xFFFFFFFFFFFFFFFFFFFFFFFFFFFFFFFFFFFFFFFF AND DUP4 PUSH20 0xFFFFFFFFFFFFFFFFFFFFFFFFFFFFFFFFFFFFFFFF AND SUB PUSH2 0x1A40 JUMPI PUSH1 0x5 PUSH1 0x0 SWAP1 SLOAD SWAP1 PUSH2 0x100 EXP SWAP1 DIV PUSH20 0xFFFFFFFFFFFFFFFFFFFFFFFFFFFFFFFFFFFFFFFF AND SWAP3 POP JUMPDEST PUSH1 0x1 DUP1 DUP2 GT ISZERO PUSH2 0x1A53 JUMPI PUSH2 0x1A52 PUSH2 0x25F5 JUMP JUMPDEST JUMPDEST DUP3 PUSH1 0x1 DUP2 GT ISZERO PUSH2 0x1A66 JUMPI PUSH2 0x1A65 PUSH2 0x25F5 JUMP JUMPDEST JUMPDEST EQ ISZERO DUP1 ISZERO PUSH2 0x1A99 JUMPI POP PUSH1 0x0 PUSH1 0x1 DUP2 GT ISZERO PUSH2 0x1A83 JUMPI PUSH2 0x1A82 PUSH2 0x25F5 JUMP JUMPDEST JUMPDEST DUP3 PUSH1 0x1 DUP2 GT ISZERO PUSH2 0x1A96 JUMPI PUSH2 0x1A95 PUSH2 0x25F5 JUMP JUMPDEST JUMPDEST EQ ISZERO JUMPDEST ISZERO PUSH2 0x1AD0 JUMPI PUSH1 0x40 MLOAD PUSH32 0xEC4D40F400000000000000000000000000000000000000000000000000000000 DUP2 MSTORE PUSH1 0x4 ADD PUSH1 0x40 MLOAD DUP1 SWAP2 SUB SWAP1 REVERT JUMPDEST PUSH1 0x0 PUSH1 0x4 SLOAD SWAP1 POP PUSH1 0x2 SLOAD CALLVALUE EQ PUSH2 0x1B21 JUMPI PUSH1 0x2 SLOAD CALLVALUE PUSH1 0x40 MLOAD PUSH32 0xCE6B173B00000000000000000000000000000000000000000000000000000000 DUP2 MSTORE PUSH1 0x4 ADD PUSH2 0x1B18 SWAP3 SWAP2 SWAP1 PUSH2 0x4D9D JUMP JUMPDEST PUSH1 0x40 MLOAD DUP1 SWAP2 SUB SWAP1 REVERT JUMPDEST PUSH32 0xD6E9BD49F32CE5202A849C6AB581631B3E952257363B06975F32872E9E1656C9 CALLER CALLVALUE DUP4 PUSH1 0x40 MLOAD PUSH2 0x1B54 SWAP4 SWAP3 SWAP2 SWAP1 PUSH2 0x4DFA JUMP JUMPDEST PUSH1 0x40 MLOAD DUP1 SWAP2 SUB SWAP1 LOG1 PUSH1 0x0 PUSH1 0x1 PUSH1 0x0 DUP4 DUP2 MSTORE PUSH1 0x20 ADD SWAP1 DUP2 MSTORE PUSH1 0x20 ADD PUSH1 0x0 KECCAK256 SWAP1 POP DUP9 DUP2 PUSH1 0x0 ADD DUP2 DUP2 PUSH2 0x1B84 SWAP2 SWAP1 PUSH2 0x4AFB JUMP JUMPDEST SWAP1 POP POP DUP8 DUP2 PUSH1 0x5 ADD DUP2 DUP2 PUSH2 0x1B98 SWAP2 SWAP1 PUSH2 0x4516 JUMP JUMPDEST SWAP1 POP POP DUP5 DUP2 PUSH1 0x9 ADD PUSH1 0x0 PUSH2 0x100 EXP DUP2 SLOAD DUP2 PUSH20 0xFFFFFFFFFFFFFFFFFFFFFFFFFFFFFFFFFFFFFFFF MUL NOT AND SWAP1 DUP4 PUSH20 0xFFFFFFFFFFFFFFFFFFFFFFFFFFFFFFFFFFFFFFFF AND MUL OR SWAP1 SSTORE POP DUP4 DUP2 PUSH1 0x9 ADD PUSH1 0x14 PUSH2 0x100 EXP DUP2 SLOAD DUP2 PUSH1 0xFF MUL NOT AND SWAP1 DUP4 PUSH1 0x1 DUP2 GT ISZERO PUSH2 0x1C05 JUMPI PUSH2 0x1C04 PUSH2 0x25F5 JUMP JUMPDEST JUMPDEST MUL OR SWAP1 SSTORE POP PUSH1 0x0 DUP2 PUSH1 0x9 ADD PUSH1 0x15 PUSH2 0x100 EXP DUP2 SLOAD DUP2 PUSH1 0xFF MUL NOT AND SWAP1 DUP4 ISZERO ISZERO MUL OR SWAP1 SSTORE POP CALLVALUE DUP2 PUSH1 0xA ADD DUP2 SWAP1 SSTORE POP PUSH1 0x0 JUMPDEST DUP8 DUP8 SWAP1 POP DUP2 LT ISZERO PUSH2 0x1C8D JUMPI DUP2 PUSH1 0x8 ADD DUP9 DUP9 DUP4 DUP2 DUP2 LT PUSH2 0x1C55 JUMPI PUSH2 0x1C54 PUSH2 0x4B09 JUMP JUMPDEST JUMPDEST SWAP1 POP PUSH1 0x20 MUL ADD CALLDATALOAD SWAP1 DUP1 PUSH1 0x1 DUP2 SLOAD ADD DUP1 DUP3 SSTORE DUP1 SWAP2 POP POP PUSH1 0x1 SWAP1 SUB SWAP1 PUSH1 0x0 MSTORE PUSH1 0x20 PUSH1 0x0 KECCAK256 ADD PUSH1 0x0 SWAP1 SWAP2 SWAP1 SWAP2 SWAP1 SWAP2 POP SSTORE DUP1 PUSH1 0x1 ADD SWAP1 POP PUSH2 0x1C33 JUMP JUMPDEST POP PUSH1 0x4 PUSH1 0x0 DUP2 SLOAD DUP1 SWAP3 SWAP2 SWAP1 PUSH2 0x1CA1 SWAP1 PUSH2 0x4E69 JUMP JUMPDEST SWAP2 SWAP1 POP SSTORE POP PUSH32 0x42C24A3323433819443A75D0E2651A9C84F696FBA638D730042960045EF27241 DUP3 CALLER PUSH1 0x40 MLOAD PUSH2 0x1CD7 SWAP3 SWAP2 SWAP1 PUSH2 0x4818 JUMP JUMPDEST PUSH1 0x40 MLOAD DUP1 SWAP2 SUB SWAP1 LOG1 DUP2 SWAP3 POP POP POP SWAP7 SWAP6 POP POP POP POP POP POP JUMP JUMPDEST PUSH2 0x1CF6 PUSH2 0x1E39 JUMP JUMPDEST PUSH20 0xFFFFFFFFFFFFFFFFFFFFFFFFFFFFFFFFFFFFFFFF AND PUSH2 0x1D14 PUSH2 0x1547 JUMP JUMPDEST PUSH20 0xFFFFFFFFFFFFFFFFFFFFFFFFFFFFFFFFFFFFFFFF AND EQ PUSH2 0x1D73 JUMPI PUSH2 0x1D37 PUSH2 0x1E39 JUMP JUMPDEST PUSH1 0x40 MLOAD PUSH32 0x118CDAA700000000000000000000000000000000000000000000000000000000 DUP2 MSTORE PUSH1 0x4 ADD PUSH2 0x1D6A SWAP2 SWAP1 PUSH2 0x31C6 JUMP JUMPDEST PUSH1 0x40 MLOAD DUP1 SWAP2 SUB SWAP1 REVERT JUMPDEST JUMP JUMPDEST PUSH1 0x0 DUP1 PUSH1 0x0 SWAP1 SLOAD SWAP1 PUSH2 0x100 EXP SWAP1 DIV PUSH20 0xFFFFFFFFFFFFFFFFFFFFFFFFFFFFFFFFFFFFFFFF AND SWAP1 POP DUP2 PUSH1 0x0 DUP1 PUSH2 0x100 EXP DUP2 SLOAD DUP2 PUSH20 0xFFFFFFFFFFFFFFFFFFFFFFFFFFFFFFFFFFFFFFFF MUL NOT AND SWAP1 DUP4 PUSH20 0xFFFFFFFFFFFFFFFFFFFFFFFFFFFFFFFFFFFFFFFF AND MUL OR SWAP1 SSTORE POP DUP2 PUSH20 0xFFFFFFFFFFFFFFFFFFFFFFFFFFFFFFFFFFFFFFFF AND DUP2 PUSH20 0xFFFFFFFFFFFFFFFFFFFFFFFFFFFFFFFFFFFFFFFF AND PUSH32 0x8BE0079C531659141344CD1FD0A4F28419497F9722A3DAAFE3B4186F6B6457E0 PUSH1 0x40 MLOAD PUSH1 0x40 MLOAD DUP1 SWAP2 SUB SWAP1 LOG3 POP POP JUMP JUMPDEST PUSH1 0x0 CALLER SWAP1 POP SWAP1 JUMP JUMPDEST PUSH1 0x40 MLOAD DUP1 PUSH2 0x120 ADD PUSH1 0x40 MSTORE DUP1 PUSH1 0x60 DUP2 MSTORE PUSH1 0x20 ADD PUSH1 0x60 DUP2 MSTORE PUSH1 0x20 ADD PUSH1 0x60 DUP2 MSTORE PUSH1 0x20 ADD PUSH1 0x60 DUP2 MSTORE PUSH1 0x20 ADD PUSH1 0x0 DUP2 MSTORE PUSH1 0x20 ADD PUSH1 0x0 DUP2 MSTORE PUSH1 0x20 ADD PUSH1 0x60 DUP2 MSTORE PUSH1 0x20 ADD PUSH1 0x0 DUP1 NOT AND DUP2 MSTORE PUSH1 0x20 ADD PUSH1 0x60 DUP2 MSTORE POP SWAP1 JUMP JUMPDEST PUSH1 0x40 MLOAD DUP1 PUSH1 0xE0 ADD PUSH1 0x40 MSTORE DUP1 PUSH2 0x1EA3 PUSH2 0x1F24 JUMP JUMPDEST DUP2 MSTORE PUSH1 0x20 ADD PUSH2 0x1EB0 PUSH2 0x1F55 JUMP JUMPDEST DUP2 MSTORE PUSH1 0x20 ADD PUSH1 0x60 DUP2 MSTORE PUSH1 0x20 ADD PUSH1 0x0 PUSH20 0xFFFFFFFFFFFFFFFFFFFFFFFFFFFFFFFFFFFFFFFF AND DUP2 MSTORE PUSH1 0x20 ADD PUSH1 0x0 PUSH1 0x1 DUP2 GT ISZERO PUSH2 0x1EED JUMPI PUSH2 0x1EEC PUSH2 0x25F5 JUMP JUMPDEST JUMPDEST DUP2 MSTORE PUSH1 0x20 ADD PUSH1 0x0 ISZERO ISZERO DUP2 MSTORE PUSH1 0x20 ADD PUSH1 0x0 DUP2 MSTORE POP SWAP1 JUMP JUMPDEST POP DUP1 SLOAD PUSH1 0x0 DUP3 SSTORE SWAP1 PUSH1 0x0 MSTORE PUSH1 0x20 PUSH1 0x0 KECCAK256 SWAP1 DUP2 ADD SWAP1 PUSH2 0x1F21 SWAP2 SWAP1 PUSH2 0x1F88 JUMP JUMPDEST POP JUMP JUMPDEST PUSH1 0x40 MLOAD DUP1 PUSH1 0xA0 ADD PUSH1 0x40 MSTORE DUP1 PUSH1 0x60 DUP2 MSTORE PUSH1 0x20 ADD PUSH1 0x60 DUP2 MSTORE PUSH1 0x20 ADD PUSH1 0x60 DUP2 MSTORE PUSH1 0x20 ADD PUSH1 0x60 DUP2 MSTORE PUSH1 0x20 ADD PUSH1 0x0 ISZERO ISZERO DUP2 MSTORE POP SWAP1 JUMP JUMPDEST PUSH1 0x40 MLOAD DUP1 PUSH1 0x60 ADD PUSH1 0x40 MSTORE DUP1 PUSH1 0x0 PUSH1 0x5 DUP2 GT ISZERO PUSH2 0x1F74 JUMPI PUSH2 0x1F73 PUSH2 0x25F5 JUMP JUMPDEST JUMPDEST DUP2 MSTORE PUSH1 0x20 ADD PUSH1 0x60 DUP2 MSTORE PUSH1 0x20 ADD PUSH1 0x60 DUP2 MSTORE POP SWAP1 JUMP JUMPDEST JUMPDEST DUP1 DUP3 GT ISZERO PUSH2 0x1FA1 JUMPI PUSH1 0x0 DUP2 PUSH1 0x0 SWAP1 SSTORE POP PUSH1 0x1 ADD PUSH2 0x1F89 JUMP JUMPDEST POP SWAP1 JUMP JUMPDEST PUSH1 0x0 PUSH20 0xFFFFFFFFFFFFFFFFFFFFFFFFFFFFFFFFFFFFFFFF DUP3 AND SWAP1 POP SWAP2 SWAP1 POP JUMP JUMPDEST PUSH1 0x0 PUSH2 0x1FD0 DUP3 PUSH2 0x1FA5 JUMP JUMPDEST SWAP1 POP SWAP2 SWAP1 POP JUMP JUMPDEST PUSH2 0x1FE0 DUP2 PUSH2 0x1FC5 JUMP JUMPDEST DUP3 MSTORE POP POP JUMP JUMPDEST PUSH1 0x0 DUP2 SWAP1 POP SWAP2 SWAP1 POP JUMP JUMPDEST PUSH2 0x1FF9 DUP2 PUSH2 0x1FE6 JUMP JUMPDEST DUP3 MSTORE POP POP JUMP JUMPDEST PUSH1 0x0 PUSH1 0x40 DUP3 ADD SWAP1 POP PUSH2 0x2014 PUSH1 0x0 DUP4 ADD DUP6 PUSH2 0x1FD7 JUMP JUMPDEST PUSH2 0x2021 PUSH1 0x20 DUP4 ADD DUP5 PUSH2 0x1FF0 JUMP JUMPDEST SWAP4 SWAP3 POP POP POP JUMP JUMPDEST PUSH1 0x0 PUSH1 0x40 MLOAD SWAP1 POP SWAP1 JUMP JUMPDEST PUSH1 0x0 DUP1 REVERT JUMPDEST PUSH1 0x0 DUP1 REVERT JUMPDEST PUSH2 0x2045 DUP2 PUSH2 0x1FE6 JUMP JUMPDEST DUP2 EQ PUSH2 0x2050 JUMPI PUSH1 0x0 DUP1 REVERT JUMPDEST POP JUMP JUMPDEST PUSH1 0x0 DUP2 CALLDATALOAD SWAP1 POP PUSH2 0x2062 DUP2 PUSH2 0x203C JUMP JUMPDEST SWAP3 SWAP2 POP POP JUMP JUMPDEST PUSH1 0x0 DUP2 SWAP1 POP SWAP2 SWAP1 POP JUMP JUMPDEST PUSH2 0x207B DUP2 PUSH2 0x2068 JUMP JUMPDEST DUP2 EQ PUSH2 0x2086 JUMPI PUSH1 0x0 DUP1 REVERT JUMPDEST POP JUMP JUMPDEST PUSH1 0x0 DUP2 CALLDATALOAD SWAP1 POP PUSH2 0x2098 DUP2 PUSH2 0x2072 JUMP JUMPDEST SWAP3 SWAP2 POP POP JUMP JUMPDEST PUSH1 0x0 DUP1 PUSH1 0x40 DUP4 DUP6 SUB SLT ISZERO PUSH2 0x20B5 JUMPI PUSH2 0x20B4 PUSH2 0x2032 JUMP JUMPDEST JUMPDEST PUSH1 0x0 PUSH2 0x20C3 DUP6 DUP3 DUP7 ADD PUSH2 0x2053 JUMP JUMPDEST SWAP3 POP POP PUSH1 0x20 PUSH2 0x20D4 DUP6 DUP3 DUP7 ADD PUSH2 0x2089 JUMP JUMPDEST SWAP2 POP POP SWAP3 POP SWAP3 SWAP1 POP JUMP JUMPDEST PUSH1 0x0 DUP2 MLOAD SWAP1 POP SWAP2 SWAP1 POP JUMP JUMPDEST PUSH1 0x0 DUP3 DUP3 MSTORE PUSH1 0x20 DUP3 ADD SWAP1 POP SWAP3 SWAP2 POP POP JUMP JUMPDEST PUSH1 0x0 JUMPDEST DUP4 DUP2 LT ISZERO PUSH2 0x2118 JUMPI DUP1 DUP3 ADD MLOAD DUP2 DUP5 ADD MSTORE PUSH1 0x20 DUP2 ADD SWAP1 POP PUSH2 0x20FD JUMP JUMPDEST PUSH1 0x0 DUP5 DUP5 ADD MSTORE POP POP POP POP JUMP JUMPDEST PUSH1 0x0 PUSH1 0x1F NOT PUSH1 0x1F DUP4 ADD AND SWAP1 POP SWAP2 SWAP1 POP JUMP JUMPDEST PUSH1 0x0 PUSH2 0x2140 DUP3 PUSH2 0x20DE JUMP JUMPDEST PUSH2 0x214A DUP2 DUP6 PUSH2 0x20E9 JUMP JUMPDEST SWAP4 POP PUSH2 0x215A DUP2 DUP6 PUSH1 0x20 DUP7 ADD PUSH2 0x20FA JUMP JUMPDEST PUSH2 0x2163 DUP2 PUSH2 0x2124 JUMP JUMPDEST DUP5 ADD SWAP2 POP POP SWAP3 SWAP2 POP POP JUMP JUMPDEST PUSH1 0x0 DUP2 MLOAD SWAP1 POP SWAP2 SWAP1 POP JUMP JUMPDEST PUSH1 0x0 DUP3 DUP3 MSTORE PUSH1 0x20 DUP3 ADD SWAP1 POP SWAP3 SWAP2 POP POP JUMP JUMPDEST PUSH1 0x0 DUP2 SWAP1 POP PUSH1 0x20 DUP3 ADD SWAP1 POP SWAP2 SWAP1 POP JUMP JUMPDEST PUSH1 0x0 PUSH2 0x21A6 DUP4 DUP4 PUSH2 0x2135 JUMP JUMPDEST SWAP1 POP SWAP3 SWAP2 POP POP JUMP JUMPDEST PUSH1 0x0 PUSH1 0x20 DUP3 ADD SWAP1 POP SWAP2 SWAP1 POP JUMP JUMPDEST PUSH1 0x0 PUSH2 0x21C6 DUP3 PUSH2 0x216E JUMP JUMPDEST PUSH2 0x21D0 DUP2 DUP6 PUSH2 0x2179 JUMP JUMPDEST SWAP4 POP DUP4 PUSH1 0x20 DUP3 MUL DUP6 ADD PUSH2 0x21E2 DUP6 PUSH2 0x218A JUMP JUMPDEST DUP1 PUSH1 0x0 JUMPDEST DUP6 DUP2 LT ISZERO PUSH2 0x221E JUMPI DUP5 DUP5 SUB DUP10 MSTORE DUP2 MLOAD PUSH2 0x21FF DUP6 DUP3 PUSH2 0x219A JUMP JUMPDEST SWAP5 POP PUSH2 0x220A DUP4 PUSH2 0x21AE JUMP JUMPDEST SWAP3 POP PUSH1 0x20 DUP11 ADD SWAP10 POP POP PUSH1 0x1 DUP2 ADD SWAP1 POP PUSH2 0x21E6 JUMP JUMPDEST POP DUP3 SWAP8 POP DUP8 SWAP6 POP POP POP POP POP POP SWAP3 SWAP2 POP POP JUMP JUMPDEST PUSH1 0x0 DUP2 MLOAD SWAP1 POP SWAP2 SWAP1 POP JUMP JUMPDEST PUSH1 0x0 DUP3 DUP3 MSTORE PUSH1 0x20 DUP3 ADD SWAP1 POP SWAP3 SWAP2 POP POP JUMP JUMPDEST PUSH1 0x0 DUP2 SWAP1 POP PUSH1 0x20 DUP3 ADD SWAP1 POP SWAP2 SWAP1 POP JUMP JUMPDEST PUSH1 0x0 DUP2 MLOAD SWAP1 POP SWAP2 SWAP1 POP JUMP JUMPDEST PUSH1 0x0 DUP3 DUP3 MSTORE PUSH1 0x20 DUP3 ADD SWAP1 POP SWAP3 SWAP2 POP POP JUMP JUMPDEST PUSH1 0x0 DUP2 SWAP1 POP PUSH1 0x20 DUP3 ADD SWAP1 POP SWAP2 SWAP1 POP JUMP JUMPDEST PUSH2 0x2291 DUP2 PUSH2 0x1FE6 JUMP JUMPDEST DUP3 MSTORE POP POP JUMP JUMPDEST PUSH1 0x0 PUSH2 0x22A3 DUP4 DUP4 PUSH2 0x2288 JUMP JUMPDEST PUSH1 0x20 DUP4 ADD SWAP1 POP SWAP3 SWAP2 POP POP JUMP JUMPDEST PUSH1 0x0 PUSH1 0x20 DUP3 ADD SWAP1 POP SWAP2 SWAP1 POP JUMP JUMPDEST PUSH1 0x0 PUSH2 0x22C7 DUP3 PUSH2 0x225C JUMP JUMPDEST PUSH2 0x22D1 DUP2 DUP6 PUSH2 0x2267 JUMP JUMPDEST SWAP4 POP PUSH2 0x22DC DUP4 PUSH2 0x2278 JUMP JUMPDEST DUP1 PUSH1 0x0 JUMPDEST DUP4 DUP2 LT ISZERO PUSH2 0x230D JUMPI DUP2 MLOAD PUSH2 0x22F4 DUP9 DUP3 PUSH2 0x2297 JUMP JUMPDEST SWAP8 POP PUSH2 0x22FF DUP4 PUSH2 0x22AF JUMP JUMPDEST SWAP3 POP POP PUSH1 0x1 DUP2 ADD SWAP1 POP PUSH2 0x22E0 JUMP JUMPDEST POP DUP6 SWAP4 POP POP POP POP SWAP3 SWAP2 POP POP JUMP JUMPDEST PUSH1 0x0 PUSH2 0x2326 DUP4 DUP4 PUSH2 0x22BC JUMP JUMPDEST SWAP1 POP SWAP3 SWAP2 POP POP JUMP JUMPDEST PUSH1 0x0 PUSH1 0x20 DUP3 ADD SWAP1 POP SWAP2 SWAP1 POP JUMP JUMPDEST PUSH1 0x0 PUSH2 0x2346 DUP3 PUSH2 0x2230 JUMP JUMPDEST PUSH2 0x2350 DUP2 DUP6 PUSH2 0x223B JUMP JUMPDEST SWAP4 POP DUP4 PUSH1 0x20 DUP3 MUL DUP6 ADD PUSH2 0x2362 DUP6 PUSH2 0x224C JUMP JUMPDEST DUP1 PUSH1 0x0 JUMPDEST DUP6 DUP2 LT ISZERO PUSH2 0x239E JUMPI DUP5 DUP5 SUB DUP10 MSTORE DUP2 MLOAD PUSH2 0x237F DUP6 DUP3 PUSH2 0x231A JUMP JUMPDEST SWAP5 POP PUSH2 0x238A DUP4 PUSH2 0x232E JUMP JUMPDEST SWAP3 POP PUSH1 0x20 DUP11 ADD SWAP10 POP POP PUSH1 0x1 DUP2 ADD SWAP1 POP PUSH2 0x2366 JUMP JUMPDEST POP DUP3 SWAP8 POP DUP8 SWAP6 POP POP POP POP POP POP SWAP3 SWAP2 POP POP JUMP JUMPDEST PUSH2 0x23B9 DUP2 PUSH2 0x2068 JUMP JUMPDEST DUP3 MSTORE POP POP JUMP JUMPDEST PUSH1 0x0 PUSH2 0x120 DUP4 ADD PUSH1 0x0 DUP4 ADD MLOAD DUP5 DUP3 SUB PUSH1 0x0 DUP7 ADD MSTORE PUSH2 0x23DD DUP3 DUP3 PUSH2 0x2135 JUMP JUMPDEST SWAP2 POP POP PUSH1 0x20 DUP4 ADD MLOAD DUP5 DUP3 SUB PUSH1 0x20 DUP7 ADD MSTORE PUSH2 0x23F7 DUP3 DUP3 PUSH2 0x21BB JUMP JUMPDEST SWAP2 POP POP PUSH1 0x40 DUP4 ADD MLOAD DUP5 DUP3 SUB PUSH1 0x40 DUP7 ADD MSTORE PUSH2 0x2411 DUP3 DUP3 PUSH2 0x2135 JUMP JUMPDEST SWAP2 POP POP PUSH1 0x60 DUP4 ADD MLOAD DUP5 DUP3 SUB PUSH1 0x60 DUP7 ADD MSTORE PUSH2 0x242B DUP3 DUP3 PUSH2 0x233B JUMP JUMPDEST SWAP2 POP POP PUSH1 0x80 DUP4 ADD MLOAD PUSH2 0x2440 PUSH1 0x80 DUP7 ADD DUP3 PUSH2 0x2288 JUMP JUMPDEST POP PUSH1 0xA0 DUP4 ADD MLOAD PUSH2 0x2453 PUSH1 0xA0 DUP7 ADD DUP3 PUSH2 0x2288 JUMP JUMPDEST POP PUSH1 0xC0 DUP4 ADD MLOAD DUP5 DUP3 SUB PUSH1 0xC0 DUP7 ADD MSTORE PUSH2 0x246B DUP3 DUP3 PUSH2 0x22BC JUMP JUMPDEST SWAP2 POP POP PUSH1 0xE0 DUP4 ADD MLOAD PUSH2 0x2480 PUSH1 0xE0 DUP7 ADD DUP3 PUSH2 0x23B0 JUMP JUMPDEST POP PUSH2 0x100 DUP4 ADD MLOAD DUP5 DUP3 SUB PUSH2 0x100 DUP7 ADD MSTORE PUSH2 0x249A DUP3 DUP3 PUSH2 0x2135 JUMP JUMPDEST SWAP2 POP POP DUP1 SWAP2 POP POP SWAP3 SWAP2 POP POP JUMP JUMPDEST PUSH1 0x0 PUSH1 0x20 DUP3 ADD SWAP1 POP DUP2 DUP2 SUB PUSH1 0x0 DUP4 ADD MSTORE PUSH2 0x24C1 DUP2 DUP5 PUSH2 0x23BF JUMP JUMPDEST SWAP1 POP SWAP3 SWAP2 POP POP JUMP JUMPDEST PUSH2 0x24D2 DUP2 PUSH2 0x1FC5 JUMP JUMPDEST DUP2 EQ PUSH2 0x24DD JUMPI PUSH1 0x0 DUP1 REVERT JUMPDEST POP JUMP JUMPDEST PUSH1 0x0 DUP2 CALLDATALOAD SWAP1 POP PUSH2 0x24EF DUP2 PUSH2 0x24C9 JUMP JUMPDEST SWAP3 SWAP2 POP POP JUMP JUMPDEST PUSH1 0x0 PUSH1 0x20 DUP3 DUP5 SUB SLT ISZERO PUSH2 0x250B JUMPI PUSH2 0x250A PUSH2 0x2032 JUMP JUMPDEST JUMPDEST PUSH1 0x0 PUSH2 0x2519 DUP5 DUP3 DUP6 ADD PUSH2 0x24E0 JUMP JUMPDEST SWAP2 POP POP SWAP3 SWAP2 POP POP JUMP JUMPDEST PUSH1 0x0 PUSH1 0x20 DUP3 DUP5 SUB SLT ISZERO PUSH2 0x2538 JUMPI PUSH2 0x2537 PUSH2 0x2032 JUMP JUMPDEST JUMPDEST PUSH1 0x0 PUSH2 0x2546 DUP5 DUP3 DUP6 ADD PUSH2 0x2053 JUMP JUMPDEST SWAP2 POP POP SWAP3 SWAP2 POP POP JUMP JUMPDEST PUSH1 0x0 DUP2 ISZERO ISZERO SWAP1 POP SWAP2 SWAP1 POP JUMP JUMPDEST PUSH2 0x2564 DUP2 PUSH2 0x254F JUMP JUMPDEST DUP3 MSTORE POP POP JUMP JUMPDEST PUSH1 0x0 PUSH1 0xA0 DUP4 ADD PUSH1 0x0 DUP4 ADD MLOAD DUP5 DUP3 SUB PUSH1 0x0 DUP7 ADD MSTORE PUSH2 0x2587 DUP3 DUP3 PUSH2 0x2135 JUMP JUMPDEST SWAP2 POP POP PUSH1 0x20 DUP4 ADD MLOAD DUP5 DUP3 SUB PUSH1 0x20 DUP7 ADD MSTORE PUSH2 0x25A1 DUP3 DUP3 PUSH2 0x2135 JUMP JUMPDEST SWAP2 POP POP PUSH1 0x40 DUP4 ADD MLOAD DUP5 DUP3 SUB PUSH1 0x40 DUP7 ADD MSTORE PUSH2 0x25BB DUP3 DUP3 PUSH2 0x2135 JUMP JUMPDEST SWAP2 POP POP PUSH1 0x60 DUP4 ADD MLOAD DUP5 DUP3 SUB PUSH1 0x60 DUP7 ADD MSTORE PUSH2 0x25D5 DUP3 DUP3 PUSH2 0x21BB JUMP JUMPDEST SWAP2 POP POP PUSH1 0x80 DUP4 ADD MLOAD PUSH2 0x25EA PUSH1 0x80 DUP7 ADD DUP3 PUSH2 0x255B JUMP JUMPDEST POP DUP1 SWAP2 POP POP SWAP3 SWAP2 POP POP JUMP JUMPDEST PUSH32 0x4E487B7100000000000000000000000000000000000000000000000000000000 PUSH1 0x0 MSTORE PUSH1 0x21 PUSH1 0x4 MSTORE PUSH1 0x24 PUSH1 0x0 REVERT JUMPDEST PUSH1 0x6 DUP2 LT PUSH2 0x2635 JUMPI PUSH2 0x2634 PUSH2 0x25F5 JUMP JUMPDEST JUMPDEST POP JUMP JUMPDEST PUSH1 0x0 DUP2 SWAP1 POP PUSH2 0x2646 DUP3 PUSH2 0x2624 JUMP JUMPDEST SWAP2 SWAP1 POP JUMP JUMPDEST PUSH1 0x0 PUSH2 0x2656 DUP3 PUSH2 0x2638 JUMP JUMPDEST SWAP1 POP SWAP2 SWAP1 POP JUMP JUMPDEST PUSH2 0x2666 DUP2 PUSH2 0x264B JUMP JUMPDEST DUP3 MSTORE POP POP JUMP JUMPDEST PUSH1 0x0 DUP2 MLOAD SWAP1 POP SWAP2 SWAP1 POP JUMP JUMPDEST PUSH1 0x0 DUP3 DUP3 MSTORE PUSH1 0x20 DUP3 ADD SWAP1 POP SWAP3 SWAP2 POP POP JUMP JUMPDEST PUSH1 0x0 DUP2 SWAP1 POP PUSH1 0x20 DUP3 ADD SWAP1 POP SWAP2 SWAP1 POP JUMP JUMPDEST PUSH2 0x26A1 DUP2 PUSH2 0x1FC5 JUMP JUMPDEST DUP3 MSTORE POP POP JUMP JUMPDEST PUSH1 0x0 PUSH1 0x40 DUP4 ADD PUSH1 0x0 DUP4 ADD MLOAD DUP5 DUP3 SUB PUSH1 0x0 DUP7 ADD MSTORE PUSH2 0x26C4 DUP3 DUP3 PUSH2 0x2135 JUMP JUMPDEST SWAP2 POP POP PUSH1 0x20 DUP4 ADD MLOAD PUSH2 0x26D9 PUSH1 0x20 DUP7 ADD DUP3 PUSH2 0x2698 JUMP JUMPDEST POP DUP1 SWAP2 POP POP SWAP3 SWAP2 POP POP JUMP JUMPDEST PUSH1 0x0 PUSH2 0x26F0 DUP4 DUP4 PUSH2 0x26A7 JUMP JUMPDEST SWAP1 POP SWAP3 SWAP2 POP POP JUMP JUMPDEST PUSH1 0x0 PUSH1 0x20 DUP3 ADD SWAP1 POP SWAP2 SWAP1 POP JUMP JUMPDEST PUSH1 0x0 PUSH2 0x2710 DUP3 PUSH2 0x266C JUMP JUMPDEST PUSH2 0x271A DUP2 DUP6 PUSH2 0x2677 JUMP JUMPDEST SWAP4 POP DUP4 PUSH1 0x20 DUP3 MUL DUP6 ADD PUSH2 0x272C DUP6 PUSH2 0x2688 JUMP JUMPDEST DUP1 PUSH1 0x0 JUMPDEST DUP6 DUP2 LT ISZERO PUSH2 0x2768 JUMPI DUP5 DUP5 SUB DUP10 MSTORE DUP2 MLOAD PUSH2 0x2749 DUP6 DUP3 PUSH2 0x26E4 JUMP JUMPDEST SWAP5 POP PUSH2 0x2754 DUP4 PUSH2 0x26F8 JUMP JUMPDEST SWAP3 POP PUSH1 0x20 DUP11 ADD SWAP10 POP POP PUSH1 0x1 DUP2 ADD SWAP1 POP PUSH2 0x2730 JUMP JUMPDEST POP DUP3 SWAP8 POP DUP8 SWAP6 POP POP POP POP POP POP SWAP3 SWAP2 POP POP JUMP JUMPDEST PUSH1 0x0 PUSH1 0x60 DUP4 ADD PUSH1 0x0 DUP4 ADD MLOAD PUSH2 0x2792 PUSH1 0x0 DUP7 ADD DUP3 PUSH2 0x265D JUMP JUMPDEST POP PUSH1 0x20 DUP4 ADD MLOAD DUP5 DUP3 SUB PUSH1 0x20 DUP7 ADD MSTORE PUSH2 0x27AA DUP3 DUP3 PUSH2 0x2705 JUMP JUMPDEST SWAP2 POP POP PUSH1 0x40 DUP4 ADD MLOAD DUP5 DUP3 SUB PUSH1 0x40 DUP7 ADD MSTORE PUSH2 0x27C4 DUP3 DUP3 PUSH2 0x2135 JUMP JUMPDEST SWAP2 POP POP DUP1 SWAP2 POP POP SWAP3 SWAP2 POP POP JUMP JUMPDEST PUSH1 0x2 DUP2 LT PUSH2 0x27E2 JUMPI PUSH2 0x27E1 PUSH2 0x25F5 JUMP JUMPDEST JUMPDEST POP JUMP JUMPDEST PUSH1 0x0 DUP2 SWAP1 POP PUSH2 0x27F3 DUP3 PUSH2 0x27D1 JUMP JUMPDEST SWAP2 SWAP1 POP JUMP JUMPDEST PUSH1 0x0 PUSH2 0x2803 DUP3 PUSH2 0x27E5 JUMP JUMPDEST SWAP1 POP SWAP2 SWAP1 POP JUMP JUMPDEST PUSH2 0x2813 DUP2 PUSH2 0x27F8 JUMP JUMPDEST DUP3 MSTORE POP POP JUMP JUMPDEST PUSH1 0x0 PUSH1 0xE0 DUP4 ADD PUSH1 0x0 DUP4 ADD MLOAD DUP5 DUP3 SUB PUSH1 0x0 DUP7 ADD MSTORE PUSH2 0x2836 DUP3 DUP3 PUSH2 0x256A JUMP JUMPDEST SWAP2 POP POP PUSH1 0x20 DUP4 ADD MLOAD DUP5 DUP3 SUB PUSH1 0x20 DUP7 ADD MSTORE PUSH2 0x2850 DUP3 DUP3 PUSH2 0x277A JUMP JUMPDEST SWAP2 POP POP PUSH1 0x40 DUP4 ADD MLOAD DUP5 DUP3 SUB PUSH1 0x40 DUP7 ADD MSTORE PUSH2 0x286A DUP3 DUP3 PUSH2 0x22BC JUMP JUMPDEST SWAP2 POP POP PUSH1 0x60 DUP4 ADD MLOAD PUSH2 0x287F PUSH1 0x60 DUP7 ADD DUP3 PUSH2 0x2698 JUMP JUMPDEST POP PUSH1 0x80 DUP4 ADD MLOAD PUSH2 0x2892 PUSH1 0x80 DUP7 ADD DUP3 PUSH2 0x280A JUMP JUMPDEST POP PUSH1 0xA0 DUP4 ADD MLOAD PUSH2 0x28A5 PUSH1 0xA0 DUP7 ADD DUP3 PUSH2 0x255B JUMP JUMPDEST POP PUSH1 0xC0 DUP4 ADD MLOAD PUSH2 0x28B8 PUSH1 0xC0 DUP7 ADD DUP3 PUSH2 0x2288 JUMP JUMPDEST POP DUP1 SWAP2 POP POP SWAP3 SWAP2 POP POP JUMP JUMPDEST PUSH1 0x0 PUSH1 0x20 DUP3 ADD SWAP1 POP DUP2 DUP2 SUB PUSH1 0x0 DUP4 ADD MSTORE PUSH2 0x28DD DUP2 DUP5 PUSH2 0x2819 JUMP JUMPDEST SWAP1 POP SWAP3 SWAP2 POP POP JUMP JUMPDEST PUSH1 0x0 DUP1 REVERT JUMPDEST PUSH32 0x4E487B7100000000000000000000000000000000000000000000000000000000 PUSH1 0x0 MSTORE PUSH1 0x41 PUSH1 0x4 MSTORE PUSH1 0x24 PUSH1 0x0 REVERT JUMPDEST PUSH2 0x2922 DUP3 PUSH2 0x2124 JUMP JUMPDEST DUP2 ADD DUP2 DUP2 LT PUSH8 0xFFFFFFFFFFFFFFFF DUP3 GT OR ISZERO PUSH2 0x2941 JUMPI PUSH2 0x2940 PUSH2 0x28EA JUMP JUMPDEST JUMPDEST DUP1 PUSH1 0x40 MSTORE POP POP POP JUMP JUMPDEST PUSH1 0x0 PUSH2 0x2954 PUSH2 0x2028 JUMP JUMPDEST SWAP1 POP PUSH2 0x2960 DUP3 DUP3 PUSH2 0x2919 JUMP JUMPDEST SWAP2 SWAP1 POP JUMP JUMPDEST PUSH1 0x0 DUP1 REVERT JUMPDEST PUSH1 0x0 DUP1 REVERT JUMPDEST PUSH1 0x0 DUP1 REVERT JUMPDEST PUSH1 0x0 PUSH8 0xFFFFFFFFFFFFFFFF DUP3 GT ISZERO PUSH2 0x298F JUMPI PUSH2 0x298E PUSH2 0x28EA JUMP JUMPDEST JUMPDEST PUSH2 0x2998 DUP3 PUSH2 0x2124 JUMP JUMPDEST SWAP1 POP PUSH1 0x20 DUP2 ADD SWAP1 POP SWAP2 SWAP1 POP JUMP JUMPDEST DUP3 DUP2 DUP4 CALLDATACOPY PUSH1 0x0 DUP4 DUP4 ADD MSTORE POP POP POP JUMP JUMPDEST PUSH1 0x0 PUSH2 0x29C7 PUSH2 0x29C2 DUP5 PUSH2 0x2974 JUMP JUMPDEST PUSH2 0x294A JUMP JUMPDEST SWAP1 POP DUP3 DUP2 MSTORE PUSH1 0x20 DUP2 ADD DUP5 DUP5 DUP5 ADD GT ISZERO PUSH2 0x29E3 JUMPI PUSH2 0x29E2 PUSH2 0x296F JUMP JUMPDEST JUMPDEST PUSH2 0x29EE DUP5 DUP3 DUP6 PUSH2 0x29A5 JUMP JUMPDEST POP SWAP4 SWAP3 POP POP POP JUMP JUMPDEST PUSH1 0x0 DUP3 PUSH1 0x1F DUP4 ADD SLT PUSH2 0x2A0B JUMPI PUSH2 0x2A0A PUSH2 0x296A JUMP JUMPDEST JUMPDEST DUP2 CALLDATALOAD PUSH2 0x2A1B DUP5 DUP3 PUSH1 0x20 DUP7 ADD PUSH2 0x29B4 JUMP JUMPDEST SWAP2 POP POP SWAP3 SWAP2 POP POP JUMP JUMPDEST PUSH1 0x0 PUSH8 0xFFFFFFFFFFFFFFFF DUP3 GT ISZERO PUSH2 0x2A3F JUMPI PUSH2 0x2A3E PUSH2 0x28EA JUMP JUMPDEST JUMPDEST PUSH1 0x20 DUP3 MUL SWAP1 POP PUSH1 0x20 DUP2 ADD SWAP1 POP SWAP2 SWAP1 POP JUMP JUMPDEST PUSH1 0x0 DUP1 REVERT JUMPDEST PUSH1 0x0 PUSH2 0x2A68 PUSH2 0x2A63 DUP5 PUSH2 0x2A24 JUMP JUMPDEST PUSH2 0x294A JUMP JUMPDEST SWAP1 POP DUP1 DUP4 DUP3 MSTORE PUSH1 0x20 DUP3 ADD SWAP1 POP PUSH1 0x20 DUP5 MUL DUP4 ADD DUP6 DUP2 GT ISZERO PUSH2 0x2A8B JUMPI PUSH2 0x2A8A PUSH2 0x2A50 JUMP JUMPDEST JUMPDEST DUP4 JUMPDEST DUP2 DUP2 LT ISZERO PUSH2 0x2AD2 JUMPI DUP1 CALLDATALOAD PUSH8 0xFFFFFFFFFFFFFFFF DUP2 GT ISZERO PUSH2 0x2AB0 JUMPI PUSH2 0x2AAF PUSH2 0x296A JUMP JUMPDEST JUMPDEST DUP1 DUP7 ADD PUSH2 0x2ABD DUP10 DUP3 PUSH2 0x29F6 JUMP JUMPDEST DUP6 MSTORE PUSH1 0x20 DUP6 ADD SWAP5 POP POP POP PUSH1 0x20 DUP2 ADD SWAP1 POP PUSH2 0x2A8D JUMP JUMPDEST POP POP POP SWAP4 SWAP3 POP POP POP JUMP JUMPDEST PUSH1 0x0 DUP3 PUSH1 0x1F DUP4 ADD SLT PUSH2 0x2AF1 JUMPI PUSH2 0x2AF0 PUSH2 0x296A JUMP JUMPDEST JUMPDEST DUP2 CALLDATALOAD PUSH2 0x2B01 DUP5 DUP3 PUSH1 0x20 DUP7 ADD PUSH2 0x2A55 JUMP JUMPDEST SWAP2 POP POP SWAP3 SWAP2 POP POP JUMP JUMPDEST PUSH1 0x0 PUSH8 0xFFFFFFFFFFFFFFFF DUP3 GT ISZERO PUSH2 0x2B25 JUMPI PUSH2 0x2B24 PUSH2 0x28EA JUMP JUMPDEST JUMPDEST PUSH1 0x20 DUP3 MUL SWAP1 POP PUSH1 0x20 DUP2 ADD SWAP1 POP SWAP2 SWAP1 POP JUMP JUMPDEST PUSH1 0x0 PUSH8 0xFFFFFFFFFFFFFFFF DUP3 GT ISZERO PUSH2 0x2B51 JUMPI PUSH2 0x2B50 PUSH2 0x28EA JUMP JUMPDEST JUMPDEST PUSH1 0x20 DUP3 MUL SWAP1 POP PUSH1 0x20 DUP2 ADD SWAP1 POP SWAP2 SWAP1 POP JUMP JUMPDEST PUSH1 0x0 PUSH2 0x2B75 PUSH2 0x2B70 DUP5 PUSH2 0x2B36 JUMP JUMPDEST PUSH2 0x294A JUMP JUMPDEST SWAP1 POP DUP1 DUP4 DUP3 MSTORE PUSH1 0x20 DUP3 ADD SWAP1 POP PUSH1 0x20 DUP5 MUL DUP4 ADD DUP6 DUP2 GT ISZERO PUSH2 0x2B98 JUMPI PUSH2 0x2B97 PUSH2 0x2A50 JUMP JUMPDEST JUMPDEST DUP4 JUMPDEST DUP2 DUP2 LT ISZERO PUSH2 0x2BC1 JUMPI DUP1 PUSH2 0x2BAD DUP9 DUP3 PUSH2 0x2053 JUMP JUMPDEST DUP5 MSTORE PUSH1 0x20 DUP5 ADD SWAP4 POP POP PUSH1 0x20 DUP2 ADD SWAP1 POP PUSH2 0x2B9A JUMP JUMPDEST POP POP POP SWAP4 SWAP3 POP POP POP JUMP JUMPDEST PUSH1 0x0 DUP3 PUSH1 0x1F DUP4 ADD SLT PUSH2 0x2BE0 JUMPI PUSH2 0x2BDF PUSH2 0x296A JUMP JUMPDEST JUMPDEST DUP2 CALLDATALOAD PUSH2 0x2BF0 DUP5 DUP3 PUSH1 0x20 DUP7 ADD PUSH2 0x2B62 JUMP JUMPDEST SWAP2 POP POP SWAP3 SWAP2 POP POP JUMP JUMPDEST PUSH1 0x0 PUSH2 0x2C0C PUSH2 0x2C07 DUP5 PUSH2 0x2B0A JUMP JUMPDEST PUSH2 0x294A JUMP JUMPDEST SWAP1 POP DUP1 DUP4 DUP3 MSTORE PUSH1 0x20 DUP3 ADD SWAP1 POP PUSH1 0x20 DUP5 MUL DUP4 ADD DUP6 DUP2 GT ISZERO PUSH2 0x2C2F JUMPI PUSH2 0x2C2E PUSH2 0x2A50 JUMP JUMPDEST JUMPDEST DUP4 JUMPDEST DUP2 DUP2 LT ISZERO PUSH2 0x2C76 JUMPI DUP1 CALLDATALOAD PUSH8 0xFFFFFFFFFFFFFFFF DUP2 GT ISZERO PUSH2 0x2C54 JUMPI PUSH2 0x2C53 PUSH2 0x296A JUMP JUMPDEST JUMPDEST DUP1 DUP7 ADD PUSH2 0x2C61 DUP10 DUP3 PUSH2 0x2BCB JUMP JUMPDEST DUP6 MSTORE PUSH1 0x20 DUP6 ADD SWAP5 POP POP POP PUSH1 0x20 DUP2 ADD SWAP1 POP PUSH2 0x2C31 JUMP JUMPDEST POP POP POP SWAP4 SWAP3 POP POP POP JUMP JUMPDEST PUSH1 0x0 DUP3 PUSH1 0x1F DUP4 ADD SLT PUSH2 0x2C95 JUMPI PUSH2 0x2C94 PUSH2 0x296A JUMP JUMPDEST JUMPDEST DUP2 CALLDATALOAD PUSH2 0x2CA5 DUP5 DUP3 PUSH1 0x20 DUP7 ADD PUSH2 0x2BF9 JUMP JUMPDEST SWAP2 POP POP SWAP3 SWAP2 POP POP JUMP JUMPDEST PUSH1 0x0 PUSH2 0x120 DUP3 DUP5 SUB SLT ISZERO PUSH2 0x2CC5 JUMPI PUSH2 0x2CC4 PUSH2 0x28E5 JUMP JUMPDEST JUMPDEST PUSH2 0x2CD0 PUSH2 0x120 PUSH2 0x294A JUMP JUMPDEST SWAP1 POP PUSH1 0x0 DUP3 ADD CALLDATALOAD PUSH8 0xFFFFFFFFFFFFFFFF DUP2 GT ISZERO PUSH2 0x2CF0 JUMPI PUSH2 0x2CEF PUSH2 0x2965 JUMP JUMPDEST JUMPDEST PUSH2 0x2CFC DUP5 DUP3 DUP6 ADD PUSH2 0x29F6 JUMP JUMPDEST PUSH1 0x0 DUP4 ADD MSTORE POP PUSH1 0x20 DUP3 ADD CALLDATALOAD PUSH8 0xFFFFFFFFFFFFFFFF DUP2 GT ISZERO PUSH2 0x2D20 JUMPI PUSH2 0x2D1F PUSH2 0x2965 JUMP JUMPDEST JUMPDEST PUSH2 0x2D2C DUP5 DUP3 DUP6 ADD PUSH2 0x2ADC JUMP JUMPDEST PUSH1 0x20 DUP4 ADD MSTORE POP PUSH1 0x40 DUP3 ADD CALLDATALOAD PUSH8 0xFFFFFFFFFFFFFFFF DUP2 GT ISZERO PUSH2 0x2D50 JUMPI PUSH2 0x2D4F PUSH2 0x2965 JUMP JUMPDEST JUMPDEST PUSH2 0x2D5C DUP5 DUP3 DUP6 ADD PUSH2 0x29F6 JUMP JUMPDEST PUSH1 0x40 DUP4 ADD MSTORE POP PUSH1 0x60 DUP3 ADD CALLDATALOAD PUSH8 0xFFFFFFFFFFFFFFFF DUP2 GT ISZERO PUSH2 0x2D80 JUMPI PUSH2 0x2D7F PUSH2 0x2965 JUMP JUMPDEST JUMPDEST PUSH2 0x2D8C DUP5 DUP3 DUP6 ADD PUSH2 0x2C80 JUMP JUMPDEST PUSH1 0x60 DUP4 ADD MSTORE POP PUSH1 0x80 PUSH2 0x2DA0 DUP5 DUP3 DUP6 ADD PUSH2 0x2053 JUMP JUMPDEST PUSH1 0x80 DUP4 ADD MSTORE POP PUSH1 0xA0 PUSH2 0x2DB4 DUP5 DUP3 DUP6 ADD PUSH2 0x2053 JUMP JUMPDEST PUSH1 0xA0 DUP4 ADD MSTORE POP PUSH1 0xC0 DUP3 ADD CALLDATALOAD PUSH8 0xFFFFFFFFFFFFFFFF DUP2 GT ISZERO PUSH2 0x2DD8 JUMPI PUSH2 0x2DD7 PUSH2 0x2965 JUMP JUMPDEST JUMPDEST PUSH2 0x2DE4 DUP5 DUP3 DUP6 ADD PUSH2 0x2BCB JUMP JUMPDEST PUSH1 0xC0 DUP4 ADD MSTORE POP PUSH1 0xE0 PUSH2 0x2DF8 DUP5 DUP3 DUP6 ADD PUSH2 0x2089 JUMP JUMPDEST PUSH1 0xE0 DUP4 ADD MSTORE POP PUSH2 0x100 DUP3 ADD CALLDATALOAD PUSH8 0xFFFFFFFFFFFFFFFF DUP2 GT ISZERO PUSH2 0x2E1D JUMPI PUSH2 0x2E1C PUSH2 0x2965 JUMP JUMPDEST JUMPDEST PUSH2 0x2E29 DUP5 DUP3 DUP6 ADD PUSH2 0x29F6 JUMP JUMPDEST PUSH2 0x100 DUP4 ADD MSTORE POP SWAP3 SWAP2 POP POP JUMP JUMPDEST PUSH1 0x0 DUP1 PUSH1 0x0 PUSH1 0x60 DUP5 DUP7 SUB SLT ISZERO PUSH2 0x2E4F JUMPI PUSH2 0x2E4E PUSH2 0x2032 JUMP JUMPDEST JUMPDEST PUSH1 0x0 PUSH2 0x2E5D DUP7 DUP3 DUP8 ADD PUSH2 0x2053 JUMP JUMPDEST SWAP4 POP POP PUSH1 0x20 PUSH2 0x2E6E DUP7 DUP3 DUP8 ADD PUSH2 0x2089 JUMP JUMPDEST SWAP3 POP POP PUSH1 0x40 DUP5 ADD CALLDATALOAD PUSH8 0xFFFFFFFFFFFFFFFF DUP2 GT ISZERO PUSH2 0x2E8F JUMPI PUSH2 0x2E8E PUSH2 0x2037 JUMP JUMPDEST JUMPDEST PUSH2 0x2E9B DUP7 DUP3 DUP8 ADD PUSH2 0x2CAE JUMP JUMPDEST SWAP2 POP POP SWAP3 POP SWAP3 POP SWAP3 JUMP JUMPDEST PUSH1 0x0 DUP1 REVERT JUMPDEST PUSH1 0x0 PUSH1 0x60 DUP3 DUP5 SUB SLT ISZERO PUSH2 0x2EC0 JUMPI PUSH2 0x2EBF PUSH2 0x2EA5 JUMP JUMPDEST JUMPDEST DUP2 SWAP1 POP SWAP3 SWAP2 POP POP JUMP JUMPDEST PUSH1 0x0 DUP1 PUSH1 0x40 DUP4 DUP6 SUB SLT ISZERO PUSH2 0x2EE0 JUMPI PUSH2 0x2EDF PUSH2 0x2032 JUMP JUMPDEST JUMPDEST PUSH1 0x0 PUSH2 0x2EEE DUP6 DUP3 DUP7 ADD PUSH2 0x2053 JUMP JUMPDEST SWAP3 POP POP PUSH1 0x20 DUP4 ADD CALLDATALOAD PUSH8 0xFFFFFFFFFFFFFFFF DUP2 GT ISZERO PUSH2 0x2F0F JUMPI PUSH2 0x2F0E PUSH2 0x2037 JUMP JUMPDEST JUMPDEST PUSH2 0x2F1B DUP6 DUP3 DUP7 ADD PUSH2 0x2EAA JUMP JUMPDEST SWAP2 POP POP SWAP3 POP SWAP3 SWAP1 POP JUMP JUMPDEST PUSH1 0x0 DUP1 PUSH1 0x40 DUP4 DUP6 SUB SLT ISZERO PUSH2 0x2F3C JUMPI PUSH2 0x2F3B PUSH2 0x2032 JUMP JUMPDEST JUMPDEST PUSH1 0x0 PUSH2 0x2F4A DUP6 DUP3 DUP7 ADD PUSH2 0x2053 JUMP JUMPDEST SWAP3 POP POP PUSH1 0x20 PUSH2 0x2F5B DUP6 DUP3 DUP7 ADD PUSH2 0x24E0 JUMP JUMPDEST SWAP2 POP POP SWAP3 POP SWAP3 SWAP1 POP JUMP JUMPDEST PUSH1 0x0 PUSH1 0xA0 DUP3 DUP5 SUB SLT ISZERO PUSH2 0x2F7B JUMPI PUSH2 0x2F7A PUSH2 0x2EA5 JUMP JUMPDEST JUMPDEST DUP2 SWAP1 POP SWAP3 SWAP2 POP POP JUMP JUMPDEST PUSH1 0x0 DUP1 REVERT JUMPDEST PUSH1 0x0 DUP1 DUP4 PUSH1 0x1F DUP5 ADD SLT PUSH2 0x2F9F JUMPI PUSH2 0x2F9E PUSH2 0x296A JUMP JUMPDEST JUMPDEST DUP3 CALLDATALOAD SWAP1 POP PUSH8 0xFFFFFFFFFFFFFFFF DUP2 GT ISZERO PUSH2 0x2FBC JUMPI PUSH2 0x2FBB PUSH2 0x2F84 JUMP JUMPDEST JUMPDEST PUSH1 0x20 DUP4 ADD SWAP2 POP DUP4 PUSH1 0x20 DUP3 MUL DUP4 ADD GT ISZERO PUSH2 0x2FD8 JUMPI PUSH2 0x2FD7 PUSH2 0x2A50 JUMP JUMPDEST JUMPDEST SWAP3 POP SWAP3 SWAP1 POP JUMP JUMPDEST PUSH1 0x2 DUP2 LT PUSH2 0x2FEC JUMPI PUSH1 0x0 DUP1 REVERT JUMPDEST POP JUMP JUMPDEST PUSH1 0x0 DUP2 CALLDATALOAD SWAP1 POP PUSH2 0x2FFE DUP2 PUSH2 0x2FDF JUMP JUMPDEST SWAP3 SWAP2 POP POP JUMP JUMPDEST PUSH2 0x300D DUP2 PUSH2 0x254F JUMP JUMPDEST DUP2 EQ PUSH2 0x3018 JUMPI PUSH1 0x0 DUP1 REVERT JUMPDEST POP JUMP JUMPDEST PUSH1 0x0 DUP2 CALLDATALOAD SWAP1 POP PUSH2 0x302A DUP2 PUSH2 0x3004 JUMP JUMPDEST SWAP3 SWAP2 POP POP JUMP JUMPDEST PUSH1 0x0 DUP1 PUSH1 0x0 DUP1 PUSH1 0x0 DUP1 PUSH1 0x0 DUP1 PUSH1 0xE0 DUP10 DUP12 SUB SLT ISZERO PUSH2 0x3050 JUMPI PUSH2 0x304F PUSH2 0x2032 JUMP JUMPDEST JUMPDEST PUSH1 0x0 PUSH2 0x305E DUP12 DUP3 DUP13 ADD PUSH2 0x2053 JUMP JUMPDEST SWAP9 POP POP PUSH1 0x20 DUP10 ADD CALLDATALOAD PUSH8 0xFFFFFFFFFFFFFFFF DUP2 GT ISZERO PUSH2 0x307F JUMPI PUSH2 0x307E PUSH2 0x2037 JUMP JUMPDEST JUMPDEST PUSH2 0x308B DUP12 DUP3 DUP13 ADD PUSH2 0x2F65 JUMP JUMPDEST SWAP8 POP POP PUSH1 0x40 DUP10 ADD CALLDATALOAD PUSH8 0xFFFFFFFFFFFFFFFF DUP2 GT ISZERO PUSH2 0x30AC JUMPI PUSH2 0x30AB PUSH2 0x2037 JUMP JUMPDEST JUMPDEST PUSH2 0x30B8 DUP12 DUP3 DUP13 ADD PUSH2 0x2EAA JUMP JUMPDEST SWAP7 POP POP PUSH1 0x60 DUP10 ADD CALLDATALOAD PUSH8 0xFFFFFFFFFFFFFFFF DUP2 GT ISZERO PUSH2 0x30D9 JUMPI PUSH2 0x30D8 PUSH2 0x2037 JUMP JUMPDEST JUMPDEST PUSH2 0x30E5 DUP12 DUP3 DUP13 ADD PUSH2 0x2F89 JUMP JUMPDEST SWAP6 POP SWAP6 POP POP PUSH1 0x80 PUSH2 0x30F8 DUP12 DUP3 DUP13 ADD PUSH2 0x24E0 JUMP JUMPDEST SWAP4 POP POP PUSH1 0xA0 PUSH2 0x3109 DUP12 DUP3 DUP13 ADD PUSH2 0x2FEF JUMP JUMPDEST SWAP3 POP POP PUSH1 0xC0 PUSH2 0x311A DUP12 DUP3 DUP13 ADD PUSH2 0x301B JUMP JUMPDEST SWAP2 POP POP SWAP3 SWAP6 SWAP9 POP SWAP3 SWAP6 SWAP9 SWAP1 SWAP4 SWAP7 POP JUMP JUMPDEST PUSH1 0x0 DUP1 PUSH1 0x40 DUP4 DUP6 SUB SLT ISZERO PUSH2 0x3141 JUMPI PUSH2 0x3140 PUSH2 0x2032 JUMP JUMPDEST JUMPDEST PUSH1 0x0 PUSH2 0x314F DUP6 DUP3 DUP7 ADD PUSH2 0x2053 JUMP JUMPDEST SWAP3 POP POP PUSH1 0x20 PUSH2 0x3160 DUP6 DUP3 DUP7 ADD PUSH2 0x2FEF JUMP JUMPDEST SWAP2 POP POP SWAP3 POP SWAP3 SWAP1 POP JUMP JUMPDEST PUSH1 0x0 DUP1 PUSH1 0x40 DUP4 DUP6 SUB SLT ISZERO PUSH2 0x3181 JUMPI PUSH2 0x3180 PUSH2 0x2032 JUMP JUMPDEST JUMPDEST PUSH1 0x0 PUSH2 0x318F DUP6 DUP3 DUP7 ADD PUSH2 0x2053 JUMP JUMPDEST SWAP3 POP POP PUSH1 0x20 DUP4 ADD CALLDATALOAD PUSH8 0xFFFFFFFFFFFFFFFF DUP2 GT ISZERO PUSH2 0x31B0 JUMPI PUSH2 0x31AF PUSH2 0x2037 JUMP JUMPDEST JUMPDEST PUSH2 0x31BC DUP6 DUP3 DUP7 ADD PUSH2 0x2F65 JUMP JUMPDEST SWAP2 POP POP SWAP3 POP SWAP3 SWAP1 POP JUMP JUMPDEST PUSH1 0x0 PUSH1 0x20 DUP3 ADD SWAP1 POP PUSH2 0x31DB PUSH1 0x0 DUP4 ADD DUP5 PUSH2 0x1FD7 JUMP JUMPDEST SWAP3 SWAP2 POP POP JUMP JUMPDEST PUSH1 0x0 PUSH1 0x20 DUP3 ADD SWAP1 POP PUSH2 0x31F6 PUSH1 0x0 DUP4 ADD DUP5 PUSH2 0x1FF0 JUMP JUMPDEST SWAP3 SWAP2 POP POP JUMP JUMPDEST PUSH1 0x0 DUP1 PUSH1 0x40 DUP4 DUP6 SUB SLT ISZERO PUSH2 0x3213 JUMPI PUSH2 0x3212 PUSH2 0x2032 JUMP JUMPDEST JUMPDEST PUSH1 0x0 PUSH2 0x3221 DUP6 DUP3 DUP7 ADD PUSH2 0x2053 JUMP JUMPDEST SWAP3 POP POP PUSH1 0x20 PUSH2 0x3232 DUP6 DUP3 DUP7 ADD PUSH2 0x2053 JUMP JUMPDEST SWAP2 POP POP SWAP3 POP SWAP3 SWAP1 POP JUMP JUMPDEST PUSH1 0x0 DUP1 PUSH1 0x40 DUP4 DUP6 SUB SLT ISZERO PUSH2 0x3253 JUMPI PUSH2 0x3252 PUSH2 0x2032 JUMP JUMPDEST JUMPDEST PUSH1 0x0 PUSH2 0x3261 DUP6 DUP3 DUP7 ADD PUSH2 0x2053 JUMP JUMPDEST SWAP3 POP POP PUSH1 0x20 PUSH2 0x3272 DUP6 DUP3 DUP7 ADD PUSH2 0x301B JUMP JUMPDEST SWAP2 POP POP SWAP3 POP SWAP3 SWAP1 POP JUMP JUMPDEST PUSH1 0x0 DUP1 PUSH1 0x0 DUP1 PUSH1 0x0 DUP1 PUSH1 0xA0 DUP8 DUP10 SUB SLT ISZERO PUSH2 0x3299 JUMPI PUSH2 0x3298 PUSH2 0x2032 JUMP JUMPDEST JUMPDEST PUSH1 0x0 DUP8 ADD CALLDATALOAD PUSH8 0xFFFFFFFFFFFFFFFF DUP2 GT ISZERO PUSH2 0x32B7 JUMPI PUSH2 0x32B6 PUSH2 0x2037 JUMP JUMPDEST JUMPDEST PUSH2 0x32C3 DUP10 DUP3 DUP11 ADD PUSH2 0x2F65 JUMP JUMPDEST SWAP7 POP POP PUSH1 0x20 DUP8 ADD CALLDATALOAD PUSH8 0xFFFFFFFFFFFFFFFF DUP2 GT ISZERO PUSH2 0x32E4 JUMPI PUSH2 0x32E3 PUSH2 0x2037 JUMP JUMPDEST JUMPDEST PUSH2 0x32F0 DUP10 DUP3 DUP11 ADD PUSH2 0x2EAA JUMP JUMPDEST SWAP6 POP POP PUSH1 0x40 DUP8 ADD CALLDATALOAD PUSH8 0xFFFFFFFFFFFFFFFF DUP2 GT ISZERO PUSH2 0x3311 JUMPI PUSH2 0x3310 PUSH2 0x2037 JUMP JUMPDEST JUMPDEST PUSH2 0x331D DUP10 DUP3 DUP11 ADD PUSH2 0x2F89 JUMP JUMPDEST SWAP5 POP SWAP5 POP POP PUSH1 0x60 PUSH2 0x3330 DUP10 DUP3 DUP11 ADD PUSH2 0x24E0 JUMP JUMPDEST SWAP3 POP POP PUSH1 0x80 PUSH2 0x3341 DUP10 DUP3 DUP11 ADD PUSH2 0x2FEF JUMP JUMPDEST SWAP2 POP POP SWAP3 SWAP6 POP SWAP3 SWAP6 POP SWAP3 SWAP6 JUMP JUMPDEST PUSH2 0x3357 DUP2 PUSH2 0x2068 JUMP JUMPDEST DUP3 MSTORE POP POP JUMP JUMPDEST PUSH1 0x0 PUSH1 0x40 DUP3 ADD SWAP1 POP PUSH2 0x3372 PUSH1 0x0 DUP4 ADD DUP6 PUSH2 0x1FF0 JUMP JUMPDEST PUSH2 0x337F PUSH1 0x20 DUP4 ADD DUP5 PUSH2 0x334E JUMP JUMPDEST SWAP4 SWAP3 POP POP POP JUMP JUMPDEST PUSH1 0x0 PUSH2 0x3399 PUSH2 0x3394 DUP5 PUSH2 0x2974 JUMP JUMPDEST PUSH2 0x294A JUMP JUMPDEST SWAP1 POP DUP3 DUP2 MSTORE PUSH1 0x20 DUP2 ADD DUP5 DUP5 DUP5 ADD GT ISZERO PUSH2 0x33B5 JUMPI PUSH2 0x33B4 PUSH2 0x296F JUMP JUMPDEST JUMPDEST PUSH2 0x33C0 DUP5 DUP3 DUP6 PUSH2 0x20FA JUMP JUMPDEST POP SWAP4 SWAP3 POP POP POP JUMP JUMPDEST PUSH1 0x0 DUP3 PUSH1 0x1F DUP4 ADD SLT PUSH2 0x33DD JUMPI PUSH2 0x33DC PUSH2 0x296A JUMP JUMPDEST JUMPDEST DUP2 MLOAD PUSH2 0x33ED DUP5 DUP3 PUSH1 0x20 DUP7 ADD PUSH2 0x3386 JUMP JUMPDEST SWAP2 POP POP SWAP3 SWAP2 POP POP JUMP JUMPDEST PUSH1 0x0 PUSH2 0x3409 PUSH2 0x3404 DUP5 PUSH2 0x2A24 JUMP JUMPDEST PUSH2 0x294A JUMP JUMPDEST SWAP1 POP DUP1 DUP4 DUP3 MSTORE PUSH1 0x20 DUP3 ADD SWAP1 POP PUSH1 0x20 DUP5 MUL DUP4 ADD DUP6 DUP2 GT ISZERO PUSH2 0x342C JUMPI PUSH2 0x342B PUSH2 0x2A50 JUMP JUMPDEST JUMPDEST DUP4 JUMPDEST DUP2 DUP2 LT ISZERO PUSH2 0x3473 JUMPI DUP1 MLOAD PUSH8 0xFFFFFFFFFFFFFFFF DUP2 GT ISZERO PUSH2 0x3451 JUMPI PUSH2 0x3450 PUSH2 0x296A JUMP JUMPDEST JUMPDEST DUP1 DUP7 ADD PUSH2 0x345E DUP10 DUP3 PUSH2 0x33C8 JUMP JUMPDEST DUP6 MSTORE PUSH1 0x20 DUP6 ADD SWAP5 POP POP POP PUSH1 0x20 DUP2 ADD SWAP1 POP PUSH2 0x342E JUMP JUMPDEST POP POP POP SWAP4 SWAP3 POP POP POP JUMP JUMPDEST PUSH1 0x0 DUP3 PUSH1 0x1F DUP4 ADD SLT PUSH2 0x3492 JUMPI PUSH2 0x3491 PUSH2 0x296A JUMP JUMPDEST JUMPDEST DUP2 MLOAD PUSH2 0x34A2 DUP5 DUP3 PUSH1 0x20 DUP7 ADD PUSH2 0x33F6 JUMP JUMPDEST SWAP2 POP POP SWAP3 SWAP2 POP POP JUMP JUMPDEST PUSH1 0x0 DUP2 MLOAD SWAP1 POP PUSH2 0x34BA DUP2 PUSH2 0x203C JUMP JUMPDEST SWAP3 SWAP2 POP POP JUMP JUMPDEST PUSH1 0x0 PUSH2 0x34D3 PUSH2 0x34CE DUP5 PUSH2 0x2B36 JUMP JUMPDEST PUSH2 0x294A JUMP JUMPDEST SWAP1 POP DUP1 DUP4 DUP3 MSTORE PUSH1 0x20 DUP3 ADD SWAP1 POP PUSH1 0x20 DUP5 MUL DUP4 ADD DUP6 DUP2 GT ISZERO PUSH2 0x34F6 JUMPI PUSH2 0x34F5 PUSH2 0x2A50 JUMP JUMPDEST JUMPDEST DUP4 JUMPDEST DUP2 DUP2 LT ISZERO PUSH2 0x351F JUMPI DUP1 PUSH2 0x350B DUP9 DUP3 PUSH2 0x34AB JUMP JUMPDEST DUP5 MSTORE PUSH1 0x20 DUP5 ADD SWAP4 POP POP PUSH1 0x20 DUP2 ADD SWAP1 POP PUSH2 0x34F8 JUMP JUMPDEST POP POP POP SWAP4 SWAP3 POP POP POP JUMP JUMPDEST PUSH1 0x0 DUP3 PUSH1 0x1F DUP4 ADD SLT PUSH2 0x353E JUMPI PUSH2 0x353D PUSH2 0x296A JUMP JUMPDEST JUMPDEST DUP2 MLOAD PUSH2 0x354E DUP5 DUP3 PUSH1 0x20 DUP7 ADD PUSH2 0x34C0 JUMP JUMPDEST SWAP2 POP POP SWAP3 SWAP2 POP POP JUMP JUMPDEST PUSH1 0x0 PUSH2 0x356A PUSH2 0x3565 DUP5 PUSH2 0x2B0A JUMP JUMPDEST PUSH2 0x294A JUMP JUMPDEST SWAP1 POP DUP1 DUP4 DUP3 MSTORE PUSH1 0x20 DUP3 ADD SWAP1 POP PUSH1 0x20 DUP5 MUL DUP4 ADD DUP6 DUP2 GT ISZERO PUSH2 0x358D JUMPI PUSH2 0x358C PUSH2 0x2A50 JUMP JUMPDEST JUMPDEST DUP4 JUMPDEST DUP2 DUP2 LT ISZERO PUSH2 0x35D4 JUMPI DUP1 MLOAD PUSH8 0xFFFFFFFFFFFFFFFF DUP2 GT ISZERO PUSH2 0x35B2 JUMPI PUSH2 0x35B1 PUSH2 0x296A JUMP JUMPDEST JUMPDEST DUP1 DUP7 ADD PUSH2 0x35BF DUP10 DUP3 PUSH2 0x3529 JUMP JUMPDEST DUP6 MSTORE PUSH1 0x20 DUP6 ADD SWAP5 POP POP POP PUSH1 0x20 DUP2 ADD SWAP1 POP PUSH2 0x358F JUMP JUMPDEST POP POP POP SWAP4 SWAP3 POP POP POP JUMP JUMPDEST PUSH1 0x0 DUP3 PUSH1 0x1F DUP4 ADD SLT PUSH2 0x35F3 JUMPI PUSH2 0x35F2 PUSH2 0x296A JUMP JUMPDEST JUMPDEST DUP2 MLOAD PUSH2 0x3603 DUP5 DUP3 PUSH1 0x20 DUP7 ADD PUSH2 0x3557 JUMP JUMPDEST SWAP2 POP POP SWAP3 SWAP2 POP POP JUMP JUMPDEST PUSH1 0x0 DUP2 MLOAD SWAP1 POP PUSH2 0x361B DUP2 PUSH2 0x2072 JUMP JUMPDEST SWAP3 SWAP2 POP POP JUMP JUMPDEST PUSH1 0x0 PUSH2 0x120 DUP3 DUP5 SUB SLT ISZERO PUSH2 0x3638 JUMPI PUSH2 0x3637 PUSH2 0x28E5 JUMP JUMPDEST JUMPDEST PUSH2 0x3643 PUSH2 0x120 PUSH2 0x294A JUMP JUMPDEST SWAP1 POP PUSH1 0x0 DUP3 ADD MLOAD PUSH8 0xFFFFFFFFFFFFFFFF DUP2 GT ISZERO PUSH2 0x3663 JUMPI PUSH2 0x3662 PUSH2 0x2965 JUMP JUMPDEST JUMPDEST PUSH2 0x366F DUP5 DUP3 DUP6 ADD PUSH2 0x33C8 JUMP JUMPDEST PUSH1 0x0 DUP4 ADD MSTORE POP PUSH1 0x20 DUP3 ADD MLOAD PUSH8 0xFFFFFFFFFFFFFFFF DUP2 GT ISZERO PUSH2 0x3693 JUMPI PUSH2 0x3692 PUSH2 0x2965 JUMP JUMPDEST JUMPDEST PUSH2 0x369F DUP5 DUP3 DUP6 ADD PUSH2 0x347D JUMP JUMPDEST PUSH1 0x20 DUP4 ADD MSTORE POP PUSH1 0x40 DUP3 ADD MLOAD PUSH8 0xFFFFFFFFFFFFFFFF DUP2 GT ISZERO PUSH2 0x36C3 JUMPI PUSH2 0x36C2 PUSH2 0x2965 JUMP JUMPDEST JUMPDEST PUSH2 0x36CF DUP5 DUP3 DUP6 ADD PUSH2 0x33C8 JUMP JUMPDEST PUSH1 0x40 DUP4 ADD MSTORE POP PUSH1 0x60 DUP3 ADD MLOAD PUSH8 0xFFFFFFFFFFFFFFFF DUP2 GT ISZERO PUSH2 0x36F3 JUMPI PUSH2 0x36F2 PUSH2 0x2965 JUMP JUMPDEST JUMPDEST PUSH2 0x36FF DUP5 DUP3 DUP6 ADD PUSH2 0x35DE JUMP JUMPDEST PUSH1 0x60 DUP4 ADD MSTORE POP PUSH1 0x80 PUSH2 0x3713 DUP5 DUP3 DUP6 ADD PUSH2 0x34AB JUMP JUMPDEST PUSH1 0x80 DUP4 ADD MSTORE POP PUSH1 0xA0 PUSH2 0x3727 DUP5 DUP3 DUP6 ADD PUSH2 0x34AB JUMP JUMPDEST PUSH1 0xA0 DUP4 ADD MSTORE POP PUSH1 0xC0 DUP3 ADD MLOAD PUSH8 0xFFFFFFFFFFFFFFFF DUP2 GT ISZERO PUSH2 0x374B JUMPI PUSH2 0x374A PUSH2 0x2965 JUMP JUMPDEST JUMPDEST PUSH2 0x3757 DUP5 DUP3 DUP6 ADD PUSH2 0x3529 JUMP JUMPDEST PUSH1 0xC0 DUP4 ADD MSTORE POP PUSH1 0xE0 PUSH2 0x376B DUP5 DUP3 DUP6 ADD PUSH2 0x360C JUMP JUMPDEST PUSH1 0xE0 DUP4 ADD MSTORE POP PUSH2 0x100 DUP3 ADD MLOAD PUSH8 0xFFFFFFFFFFFFFFFF DUP2 GT ISZERO PUSH2 0x3790 JUMPI PUSH2 0x378F PUSH2 0x2965 JUMP JUMPDEST JUMPDEST PUSH2 0x379C DUP5 DUP3 DUP6 ADD PUSH2 0x33C8 JUMP JUMPDEST PUSH2 0x100 DUP4 ADD MSTORE POP SWAP3 SWAP2 POP POP JUMP JUMPDEST PUSH1 0x0 PUSH1 0x20 DUP3 DUP5 SUB SLT ISZERO PUSH2 0x37BF JUMPI PUSH2 0x37BE PUSH2 0x2032 JUMP JUMPDEST JUMPDEST PUSH1 0x0 DUP3 ADD MLOAD PUSH8 0xFFFFFFFFFFFFFFFF DUP2 GT ISZERO PUSH2 0x37DD JUMPI PUSH2 0x37DC PUSH2 0x2037 JUMP JUMPDEST JUMPDEST PUSH2 0x37E9 DUP5 DUP3 DUP6 ADD PUSH2 0x3621 JUMP JUMPDEST SWAP2 POP POP SWAP3 SWAP2 POP POP JUMP JUMPDEST PUSH32 0x4E487B7100000000000000000000000000000000000000000000000000000000 PUSH1 0x0 MSTORE PUSH1 0x22 PUSH1 0x4 MSTORE PUSH1 0x24 PUSH1 0x0 REVERT JUMPDEST PUSH1 0x0 PUSH1 0x2 DUP3 DIV SWAP1 POP PUSH1 0x1 DUP3 AND DUP1 PUSH2 0x3839 JUMPI PUSH1 0x7F DUP3 AND SWAP2 POP JUMPDEST PUSH1 0x20 DUP3 LT DUP2 SUB PUSH2 0x384C JUMPI PUSH2 0x384B PUSH2 0x37F2 JUMP JUMPDEST JUMPDEST POP SWAP2 SWAP1 POP JUMP JUMPDEST PUSH1 0x0 DUP3 DUP3 MSTORE PUSH1 0x20 DUP3 ADD SWAP1 POP SWAP3 SWAP2 POP POP JUMP JUMPDEST PUSH32 0x436F6D6D756E6974792069732064697361626C65640000000000000000000000 PUSH1 0x0 DUP3 ADD MSTORE POP JUMP JUMPDEST PUSH1 0x0 PUSH2 0x3899 PUSH1 0x15 DUP4 PUSH2 0x3852 JUMP JUMPDEST SWAP2 POP PUSH2 0x38A4 DUP3 PUSH2 0x3863 JUMP JUMPDEST PUSH1 0x20 DUP3 ADD SWAP1 POP SWAP2 SWAP1 POP JUMP JUMPDEST PUSH1 0x0 PUSH1 0x20 DUP3 ADD SWAP1 POP DUP2 DUP2 SUB PUSH1 0x0 DUP4 ADD MSTORE PUSH2 0x38C8 DUP2 PUSH2 0x388C JUMP JUMPDEST SWAP1 POP SWAP2 SWAP1 POP JUMP JUMPDEST PUSH32 0x496E73756666696369656E742066756E647320666F722074686973206F706572 PUSH1 0x0 DUP3 ADD MSTORE PUSH32 0x6174696F6E000000000000000000000000000000000000000000000000000000 PUSH1 0x20 DUP3 ADD MSTORE POP JUMP JUMPDEST PUSH1 0x0 PUSH2 0x392B PUSH1 0x25 DUP4 PUSH2 0x3852 JUMP JUMPDEST SWAP2 POP PUSH2 0x3936 DUP3 PUSH2 0x38CF JUMP JUMPDEST PUSH1 0x40 DUP3 ADD SWAP1 POP SWAP2 SWAP1 POP JUMP JUMPDEST PUSH1 0x0 PUSH1 0x20 DUP3 ADD SWAP1 POP DUP2 DUP2 SUB PUSH1 0x0 DUP4 ADD MSTORE PUSH2 0x395A DUP2 PUSH2 0x391E JUMP JUMPDEST SWAP1 POP SWAP2 SWAP1 POP JUMP JUMPDEST PUSH32 0x4E487B7100000000000000000000000000000000000000000000000000000000 PUSH1 0x0 MSTORE PUSH1 0x11 PUSH1 0x4 MSTORE PUSH1 0x24 PUSH1 0x0 REVERT JUMPDEST PUSH1 0x0 PUSH2 0x399B DUP3 PUSH2 0x1FE6 JUMP JUMPDEST SWAP2 POP PUSH2 0x39A6 DUP4 PUSH2 0x1FE6 JUMP JUMPDEST SWAP3 POP DUP3 DUP3 SUB SWAP1 POP DUP2 DUP2 GT ISZERO PUSH2 0x39BE JUMPI PUSH2 0x39BD PUSH2 0x3961 JUMP JUMPDEST JUMPDEST SWAP3 SWAP2 POP POP JUMP JUMPDEST PUSH1 0x0 PUSH1 0x60 DUP3 ADD SWAP1 POP PUSH2 0x39D9 PUSH1 0x0 DUP4 ADD DUP7 PUSH2 0x1FF0 JUMP JUMPDEST PUSH2 0x39E6 PUSH1 0x20 DUP4 ADD DUP6 PUSH2 0x334E JUMP JUMPDEST DUP2 DUP2 SUB PUSH1 0x40 DUP4 ADD MSTORE PUSH2 0x39F8 DUP2 DUP5 PUSH2 0x23BF JUMP JUMPDEST SWAP1 POP SWAP5 SWAP4 POP POP POP POP JUMP JUMPDEST PUSH32 0x4E6F2066756E647320617661696C61626C650000000000000000000000000000 PUSH1 0x0 DUP3 ADD MSTORE POP JUMP JUMPDEST PUSH1 0x0 PUSH2 0x3A38 PUSH1 0x12 DUP4 PUSH2 0x3852 JUMP JUMPDEST SWAP2 POP PUSH2 0x3A43 DUP3 PUSH2 0x3A02 JUMP JUMPDEST PUSH1 0x20 DUP3 ADD SWAP1 POP SWAP2 SWAP1 POP JUMP JUMPDEST PUSH1 0x0 PUSH1 0x20 DUP3 ADD SWAP1 POP DUP2 DUP2 SUB PUSH1 0x0 DUP4 ADD MSTORE PUSH2 0x3A67 DUP2 PUSH2 0x3A2B JUMP JUMPDEST SWAP1 POP SWAP2 SWAP1 POP JUMP JUMPDEST PUSH1 0x0 DUP2 SWAP1 POP SWAP3 SWAP2 POP POP JUMP JUMPDEST POP JUMP JUMPDEST PUSH1 0x0 PUSH2 0x3A89 PUSH1 0x0 DUP4 PUSH2 0x3A6E JUMP JUMPDEST SWAP2 POP PUSH2 0x3A94 DUP3 PUSH2 0x3A79 JUMP JUMPDEST PUSH1 0x0 DUP3 ADD SWAP1 POP SWAP2 SWAP1 POP JUMP JUMPDEST PUSH1 0x0 PUSH2 0x3AAA DUP3 PUSH2 0x3A7C JUMP JUMPDEST SWAP2 POP DUP2 SWAP1 POP SWAP2 SWAP1 POP JUMP JUMPDEST PUSH32 0x4661696C656420746F2073656E64204574686572000000000000000000000000 PUSH1 0x0 DUP3 ADD MSTORE POP JUMP JUMPDEST PUSH1 0x0 PUSH2 0x3AEA PUSH1 0x14 DUP4 PUSH2 0x3852 JUMP JUMPDEST SWAP2 POP PUSH2 0x3AF5 DUP3 PUSH2 0x3AB4 JUMP JUMPDEST PUSH1 0x20 DUP3 ADD SWAP1 POP SWAP2 SWAP1 POP JUMP JUMPDEST PUSH1 0x0 PUSH1 0x20 DUP3 ADD SWAP1 POP DUP2 DUP2 SUB PUSH1 0x0 DUP4 ADD MSTORE PUSH2 0x3B19 DUP2 PUSH2 0x3ADD JUMP JUMPDEST SWAP1 POP SWAP2 SWAP1 POP JUMP JUMPDEST PUSH1 0x0 DUP2 SWAP1 POP SWAP2 SWAP1 POP JUMP JUMPDEST PUSH1 0x0 PUSH2 0x3B45 PUSH2 0x3B40 PUSH2 0x3B3B DUP5 PUSH2 0x1FA5 JUMP JUMPDEST PUSH2 0x3B20 JUMP JUMPDEST PUSH2 0x1FA5 JUMP JUMPDEST SWAP1 POP SWAP2 SWAP1 POP JUMP JUMPDEST PUSH1 0x0 PUSH2 0x3B57 DUP3 PUSH2 0x3B2A JUMP JUMPDEST SWAP1 POP SWAP2 SWAP1 POP JUMP JUMPDEST PUSH1 0x0 PUSH2 0x3B69 DUP3 PUSH2 0x3B4C JUMP JUMPDEST SWAP1 POP SWAP2 SWAP1 POP JUMP JUMPDEST PUSH2 0x3B79 DUP2 PUSH2 0x3B5E JUMP JUMPDEST DUP3 MSTORE POP POP JUMP JUMPDEST PUSH1 0x0 PUSH1 0x40 DUP3 ADD SWAP1 POP PUSH2 0x3B94 PUSH1 0x0 DUP4 ADD DUP6 PUSH2 0x1FF0 JUMP JUMPDEST PUSH2 0x3BA1 PUSH1 0x20 DUP4 ADD DUP5 PUSH2 0x3B70 JUMP JUMPDEST SWAP4 SWAP3 POP POP POP JUMP JUMPDEST PUSH32 0x4E487B7100000000000000000000000000000000000000000000000000000000 PUSH1 0x0 MSTORE PUSH1 0x0 PUSH1 0x4 MSTORE PUSH1 0x24 PUSH1 0x0 REVERT JUMPDEST PUSH1 0x6 DUP2 LT PUSH2 0x3BE4 JUMPI PUSH1 0x0 DUP1 REVERT JUMPDEST POP JUMP JUMPDEST PUSH1 0x0 DUP2 CALLDATALOAD PUSH2 0x3BF4 DUP2 PUSH2 0x3BD7 JUMP JUMPDEST DUP1 SWAP2 POP POP SWAP2 SWAP1 POP JUMP JUMPDEST PUSH1 0x0 DUP2 PUSH1 0x0 SHL SWAP1 POP SWAP2 SWAP1 POP JUMP JUMPDEST PUSH1 0x0 PUSH1 0xFF PUSH2 0x3C17 DUP5 PUSH2 0x3BFD JUMP JUMPDEST SWAP4 POP DUP1 NOT DUP4 AND SWAP3 POP DUP1 DUP5 AND DUP4 OR SWAP2 POP POP SWAP3 SWAP2 POP POP JUMP JUMPDEST PUSH1 0x0 PUSH2 0x3C38 DUP3 PUSH2 0x2638 JUMP JUMPDEST SWAP1 POP SWAP2 SWAP1 POP JUMP JUMPDEST PUSH1 0x0 DUP2 SWAP1 POP SWAP2 SWAP1 POP JUMP JUMPDEST PUSH2 0x3C52 DUP3 PUSH2 0x3C2D JUMP JUMPDEST PUSH2 0x3C65 PUSH2 0x3C5E DUP3 PUSH2 0x3C3F JUMP JUMPDEST DUP4 SLOAD PUSH2 0x3C0A JUMP JUMPDEST DUP3 SSTORE POP POP POP JUMP JUMPDEST PUSH1 0x0 DUP1 REVERT JUMPDEST PUSH1 0x0 DUP1 REVERT JUMPDEST PUSH1 0x0 DUP1 REVERT JUMPDEST PUSH1 0x0 DUP1 DUP4 CALLDATALOAD PUSH1 0x1 PUSH1 0x20 SUB DUP5 CALLDATASIZE SUB SUB DUP2 SLT PUSH2 0x3C98 JUMPI PUSH2 0x3C97 PUSH2 0x3C6C JUMP JUMPDEST JUMPDEST DUP1 DUP5 ADD SWAP3 POP DUP3 CALLDATALOAD SWAP2 POP PUSH8 0xFFFFFFFFFFFFFFFF DUP3 GT ISZERO PUSH2 0x3CBA JUMPI PUSH2 0x3CB9 PUSH2 0x3C71 JUMP JUMPDEST JUMPDEST PUSH1 0x20 DUP4 ADD SWAP3 POP PUSH1 0x20 DUP3 MUL CALLDATASIZE SUB DUP4 SGT ISZERO PUSH2 0x3CD6 JUMPI PUSH2 0x3CD5 PUSH2 0x3C76 JUMP JUMPDEST JUMPDEST POP SWAP3 POP SWAP3 SWAP1 POP JUMP JUMPDEST PUSH1 0x0 DUP2 SWAP1 POP SWAP2 SWAP1 POP JUMP JUMPDEST PUSH1 0x0 DUP3 CALLDATALOAD PUSH1 0x1 PUSH1 0x40 SUB DUP4 CALLDATASIZE SUB SUB DUP2 SLT PUSH2 0x3D04 JUMPI PUSH2 0x3D03 PUSH2 0x3C6C JUMP JUMPDEST JUMPDEST DUP1 DUP4 ADD SWAP2 POP POP SWAP3 SWAP2 POP POP JUMP JUMPDEST PUSH1 0x0 DUP2 SLOAD SWAP1 POP SWAP2 SWAP1 POP JUMP JUMPDEST PUSH1 0x0 PUSH2 0x3D26 DUP3 PUSH2 0x1FE6 JUMP JUMPDEST SWAP2 POP PUSH2 0x3D31 DUP4 PUSH2 0x1FE6 JUMP JUMPDEST SWAP3 POP DUP3 DUP3 MUL PUSH2 0x3D3F DUP2 PUSH2 0x1FE6 JUMP JUMPDEST SWAP2 POP DUP3 DUP3 DIV DUP5 EQ DUP4 ISZERO OR PUSH2 0x3D56 JUMPI PUSH2 0x3D55 PUSH2 0x3961 JUMP JUMPDEST JUMPDEST POP SWAP3 SWAP2 POP POP JUMP JUMPDEST PUSH1 0x0 DUP2 SWAP1 POP PUSH2 0x3D6D DUP3 PUSH1 0x2 PUSH2 0x3D1B JUMP JUMPDEST SWAP1 POP SWAP2 SWAP1 POP JUMP JUMPDEST PUSH1 0x0 DUP2 SWAP1 POP DUP2 PUSH1 0x0 MSTORE PUSH1 0x20 PUSH1 0x0 KECCAK256 SWAP1 POP SWAP2 SWAP1 POP JUMP JUMPDEST PUSH1 0x0 DUP2 SWAP1 POP DUP2 PUSH1 0x0 MSTORE PUSH1 0x20 PUSH1 0x0 KECCAK256 SWAP1 POP SWAP2 SWAP1 POP JUMP JUMPDEST PUSH1 0x0 DUP3 DUP3 SHR SWAP1 POP SWAP3 SWAP2 POP POP JUMP JUMPDEST PUSH2 0x3DDB PUSH32 0xFFFFFFFFFFFFFFFFFFFFFFFFFFFFFFFFFFFFFFFFFFFFFFFFFFFFFFFFFFFFFFFF DUP4 PUSH1 0x20 SUB PUSH1 0x8 MUL PUSH2 0x3D9E JUMP JUMPDEST DUP2 SLOAD DUP2 AND DUP3 SSTORE POP POP POP JUMP JUMPDEST PUSH1 0x0 DUP3 DUP3 SHL SWAP1 POP SWAP3 SWAP2 POP POP JUMP JUMPDEST PUSH1 0x0 PUSH1 0x8 DUP4 MUL PUSH2 0x3E23 PUSH32 0xFFFFFFFFFFFFFFFFFFFFFFFFFFFFFFFFFFFFFFFFFFFFFFFFFFFFFFFFFFFFFFFF DUP3 PUSH2 0x3DE6 JUMP JUMPDEST PUSH2 0x3E2D DUP7 DUP4 PUSH2 0x3DE6 JUMP JUMPDEST SWAP6 POP DUP1 NOT DUP5 AND SWAP4 POP DUP1 DUP7 AND DUP5 OR SWAP3 POP POP POP SWAP4 SWAP3 POP POP POP JUMP JUMPDEST PUSH1 0x0 PUSH2 0x3E60 PUSH2 0x3E5B PUSH2 0x3E56 DUP5 PUSH2 0x1FE6 JUMP JUMPDEST PUSH2 0x3B20 JUMP JUMPDEST PUSH2 0x1FE6 JUMP JUMPDEST SWAP1 POP SWAP2 SWAP1 POP JUMP JUMPDEST PUSH1 0x0 DUP2 SWAP1 POP SWAP2 SWAP1 POP JUMP JUMPDEST PUSH2 0x3E7A DUP4 PUSH2 0x3E45 JUMP JUMPDEST PUSH2 0x3E8E PUSH2 0x3E86 DUP3 PUSH2 0x3E67 JUMP JUMPDEST DUP5 DUP5 SLOAD PUSH2 0x3DF3 JUMP JUMPDEST DUP3 SSTORE POP POP POP POP JUMP JUMPDEST PUSH1 0x0 SWAP1 JUMP JUMPDEST PUSH2 0x3EA3 PUSH2 0x3E96 JUMP JUMPDEST PUSH2 0x3EAE DUP2 DUP5 DUP5 PUSH2 0x3E71 JUMP JUMPDEST POP POP POP JUMP JUMPDEST JUMPDEST DUP2 DUP2 LT ISZERO PUSH2 0x3ED2 JUMPI PUSH2 0x3EC7 PUSH1 0x0 DUP3 PUSH2 0x3E9B JUMP JUMPDEST PUSH1 0x1 DUP2 ADD SWAP1 POP PUSH2 0x3EB4 JUMP JUMPDEST POP POP JUMP JUMPDEST PUSH1 0x0 PUSH2 0x3EE7 PUSH1 0x0 NOT DUP5 PUSH1 0x8 MUL PUSH2 0x3D9E JUMP JUMPDEST NOT DUP1 DUP4 AND SWAP2 POP POP SWAP3 SWAP2 POP POP JUMP JUMPDEST PUSH1 0x0 PUSH2 0x3F00 DUP4 DUP4 PUSH2 0x3ED6 JUMP JUMPDEST SWAP2 POP DUP3 PUSH1 0x2 MUL DUP3 OR SWAP1 POP SWAP3 SWAP2 POP POP JUMP JUMPDEST PUSH2 0x3F19 DUP2 PUSH2 0x3D89 JUMP JUMPDEST PUSH2 0x3F24 DUP4 DUP3 SLOAD PUSH2 0x3EF4 JUMP JUMPDEST DUP1 DUP4 SSTORE PUSH1 0x0 DUP3 SSTORE POP POP POP POP JUMP JUMPDEST PUSH1 0x0 PUSH1 0x20 PUSH1 0x1F DUP4 ADD DIV SWAP1 POP SWAP2 SWAP1 POP JUMP JUMPDEST PUSH1 0x20 DUP5 LT PUSH1 0x0 DUP2 EQ PUSH2 0x3F9C JUMPI PUSH1 0x1F DUP5 GT PUSH1 0x1 DUP2 EQ PUSH2 0x3F6A JUMPI PUSH2 0x3F63 DUP7 DUP6 PUSH2 0x3EF4 JUMP JUMPDEST DUP4 SSTORE PUSH2 0x3F96 JUMP JUMPDEST PUSH2 0x3F73 DUP4 PUSH2 0x3D89 JUMP JUMPDEST PUSH2 0x3F8A PUSH2 0x3F7F DUP8 PUSH2 0x3F31 JUMP JUMPDEST DUP3 ADD PUSH1 0x1 DUP4 ADD PUSH2 0x3EB3 JUMP JUMPDEST PUSH2 0x3F94 DUP8 DUP6 PUSH2 0x3F10 JUMP JUMPDEST POP JUMPDEST POP PUSH2 0x3FE9 JUMP JUMPDEST PUSH2 0x3FA5 DUP3 PUSH2 0x3D89 JUMP JUMPDEST PUSH2 0x3FAE DUP7 PUSH2 0x3F31 JUMP JUMPDEST DUP2 ADD PUSH1 0x1F DUP8 AND DUP1 ISZERO PUSH2 0x3FC8 JUMPI PUSH2 0x3FC7 DUP2 PUSH1 0x1 DUP5 SUB PUSH2 0x3DAB JUMP JUMPDEST JUMPDEST PUSH2 0x3FDC PUSH2 0x3FD4 DUP9 PUSH2 0x3F31 JUMP JUMPDEST DUP5 ADD DUP4 PUSH2 0x3EB3 JUMP JUMPDEST PUSH1 0x1 DUP9 PUSH1 0x2 MUL OR DUP6 SSTORE POP POP POP JUMPDEST POP POP POP POP POP JUMP JUMPDEST PUSH9 0x10000000000000000 DUP5 GT ISZERO PUSH2 0x400A JUMPI PUSH2 0x4009 PUSH2 0x28EA JUMP JUMPDEST JUMPDEST PUSH1 0x20 DUP4 LT PUSH1 0x0 DUP2 EQ PUSH2 0x4055 JUMPI PUSH1 0x20 DUP6 LT PUSH1 0x0 DUP2 EQ PUSH2 0x4033 JUMPI PUSH2 0x402C DUP7 DUP6 PUSH2 0x3EF4 JUMP JUMPDEST DUP4 SSTORE PUSH2 0x404F JUMP JUMPDEST DUP4 PUSH1 0xFF NOT AND SWAP4 POP DUP4 PUSH2 0x4044 DUP5 PUSH2 0x3D89 JUMP JUMPDEST SSTORE PUSH1 0x1 DUP7 PUSH1 0x2 MUL ADD DUP4 SSTORE JUMPDEST POP PUSH2 0x405F JUMP JUMPDEST PUSH1 0x1 DUP6 PUSH1 0x2 MUL ADD DUP3 SSTORE JUMPDEST POP POP POP POP POP JUMP JUMPDEST DUP1 SLOAD PUSH2 0x4071 DUP2 PUSH2 0x3821 JUMP JUMPDEST DUP1 DUP5 GT ISZERO PUSH2 0x4086 JUMPI PUSH2 0x4085 DUP5 DUP3 DUP5 DUP7 PUSH2 0x3FF0 JUMP JUMPDEST JUMPDEST DUP1 DUP5 LT ISZERO PUSH2 0x409B JUMPI PUSH2 0x409A DUP5 DUP3 DUP5 DUP7 PUSH2 0x3F41 JUMP JUMPDEST JUMPDEST POP POP POP POP JUMP JUMPDEST DUP2 DUP2 LT ISZERO PUSH2 0x40BF JUMPI PUSH2 0x40B4 PUSH1 0x0 DUP3 PUSH2 0x3E9B JUMP JUMPDEST PUSH1 0x1 DUP2 ADD SWAP1 POP PUSH2 0x40A1 JUMP JUMPDEST POP POP JUMP JUMPDEST PUSH2 0x40CE PUSH1 0x0 DUP3 PUSH2 0x4066 JUMP JUMPDEST POP JUMP JUMPDEST PUSH1 0x0 DUP3 EQ PUSH2 0x40E2 JUMPI PUSH2 0x40E1 PUSH2 0x3BA8 JUMP JUMPDEST JUMPDEST PUSH2 0x40EB DUP2 PUSH2 0x40C3 JUMP JUMPDEST POP POP JUMP JUMPDEST PUSH2 0x40FC PUSH1 0x0 DUP1 DUP4 ADD PUSH2 0x40D1 JUMP JUMPDEST PUSH1 0x0 PUSH1 0x1 DUP3 ADD SSTORE POP JUMP JUMPDEST PUSH1 0x0 DUP3 EQ PUSH2 0x4117 JUMPI PUSH2 0x4116 PUSH2 0x3BA8 JUMP JUMPDEST JUMPDEST PUSH2 0x4120 DUP2 PUSH2 0x40EF JUMP JUMPDEST POP POP JUMP JUMPDEST JUMPDEST DUP2 DUP2 LT ISZERO PUSH2 0x4143 JUMPI PUSH2 0x4138 PUSH1 0x0 DUP3 PUSH2 0x4106 JUMP JUMPDEST PUSH1 0x2 DUP2 ADD SWAP1 POP PUSH2 0x4125 JUMP JUMPDEST POP POP JUMP JUMPDEST DUP2 DUP4 LT ISZERO PUSH2 0x4180 JUMPI PUSH2 0x4158 DUP3 PUSH2 0x3D5D JUMP JUMPDEST PUSH2 0x4161 DUP5 PUSH2 0x3D5D JUMP JUMPDEST PUSH2 0x416A DUP4 PUSH2 0x3D74 JUMP JUMPDEST DUP2 DUP2 ADD DUP4 DUP3 ADD PUSH2 0x417A DUP2 DUP4 PUSH2 0x4124 JUMP JUMPDEST POP POP POP POP POP JUMPDEST POP POP POP JUMP JUMPDEST PUSH9 0x10000000000000000 DUP3 GT ISZERO PUSH2 0x419F JUMPI PUSH2 0x419E PUSH2 0x28EA JUMP JUMPDEST JUMPDEST PUSH2 0x41A8 DUP2 PUSH2 0x3D10 JUMP JUMPDEST DUP3 DUP3 SSTORE PUSH2 0x41B6 DUP4 DUP3 DUP5 PUSH2 0x4147 JUMP JUMPDEST POP POP POP JUMP JUMPDEST PUSH1 0x0 DUP3 SWAP1 POP SWAP3 SWAP2 POP POP JUMP JUMPDEST PUSH1 0x0 DUP1 DUP4 CALLDATALOAD PUSH1 0x1 PUSH1 0x20 SUB DUP5 CALLDATASIZE SUB SUB DUP2 SLT PUSH2 0x41E3 JUMPI PUSH2 0x41E2 PUSH2 0x3C6C JUMP JUMPDEST JUMPDEST DUP1 DUP5 ADD SWAP3 POP DUP3 CALLDATALOAD SWAP2 POP PUSH8 0xFFFFFFFFFFFFFFFF DUP3 GT ISZERO PUSH2 0x4205 JUMPI PUSH2 0x4204 PUSH2 0x3C71 JUMP JUMPDEST JUMPDEST PUSH1 0x20 DUP4 ADD SWAP3 POP PUSH1 0x1 DUP3 MUL CALLDATASIZE SUB DUP4 SGT ISZERO PUSH2 0x4221 JUMPI PUSH2 0x4220 PUSH2 0x3C76 JUMP JUMPDEST JUMPDEST POP SWAP3 POP SWAP3 SWAP1 POP JUMP JUMPDEST PUSH1 0x0 DUP3 SWAP1 POP SWAP3 SWAP2 POP POP JUMP JUMPDEST PUSH1 0x1F DUP3 GT ISZERO PUSH2 0x4275 JUMPI PUSH2 0x4246 DUP2 PUSH2 0x3D89 JUMP JUMPDEST PUSH2 0x424F DUP5 PUSH2 0x3F31 JUMP JUMPDEST DUP2 ADD PUSH1 0x20 DUP6 LT ISZERO PUSH2 0x425E JUMPI DUP2 SWAP1 POP JUMPDEST PUSH2 0x4272 PUSH2 0x426A DUP6 PUSH2 0x3F31 JUMP JUMPDEST DUP4 ADD DUP3 PUSH2 0x3EB3 JUMP JUMPDEST POP POP JUMPDEST POP POP POP JUMP JUMPDEST PUSH2 0x4284 DUP4 DUP4 PUSH2 0x4229 JUMP JUMPDEST PUSH8 0xFFFFFFFFFFFFFFFF DUP2 GT ISZERO PUSH2 0x429D JUMPI PUSH2 0x429C PUSH2 0x28EA JUMP JUMPDEST JUMPDEST PUSH2 0x42A7 DUP3 SLOAD PUSH2 0x3821 JUMP JUMPDEST PUSH2 0x42B2 DUP3 DUP3 DUP6 PUSH2 0x4234 JUMP JUMPDEST PUSH1 0x0 PUSH1 0x1F DUP4 GT PUSH1 0x1 DUP2 EQ PUSH2 0x42E1 JUMPI PUSH1 0x0 DUP5 ISZERO PUSH2 0x42CF JUMPI DUP3 DUP8 ADD CALLDATALOAD SWAP1 POP JUMPDEST PUSH2 0x42D9 DUP6 DUP3 PUSH2 0x3EF4 JUMP JUMPDEST DUP7 SSTORE POP PUSH2 0x4341 JUMP JUMPDEST PUSH1 0x1F NOT DUP5 AND PUSH2 0x42EF DUP7 PUSH2 0x3D89 JUMP JUMPDEST PUSH1 0x0 JUMPDEST DUP3 DUP2 LT ISZERO PUSH2 0x4317 JUMPI DUP5 DUP10 ADD CALLDATALOAD DUP3 SSTORE PUSH1 0x1 DUP3 ADD SWAP2 POP PUSH1 0x20 DUP6 ADD SWAP5 POP PUSH1 0x20 DUP2 ADD SWAP1 POP PUSH2 0x42F2 JUMP JUMPDEST DUP7 DUP4 LT ISZERO PUSH2 0x4334 JUMPI DUP5 DUP10 ADD CALLDATALOAD PUSH2 0x4330 PUSH1 0x1F DUP10 AND DUP3 PUSH2 0x3ED6 JUMP JUMPDEST DUP4 SSTORE POP JUMPDEST PUSH1 0x1 PUSH1 0x2 DUP9 MUL ADD DUP9 SSTORE POP POP POP JUMPDEST POP POP POP POP POP POP POP JUMP JUMPDEST PUSH2 0x4355 DUP4 DUP4 DUP4 PUSH2 0x427A JUMP JUMPDEST POP POP POP JUMP JUMPDEST PUSH1 0x0 DUP2 CALLDATALOAD PUSH2 0x4367 DUP2 PUSH2 0x24C9 JUMP JUMPDEST DUP1 SWAP2 POP POP SWAP2 SWAP1 POP JUMP JUMPDEST PUSH1 0x0 PUSH20 0xFFFFFFFFFFFFFFFFFFFFFFFFFFFFFFFFFFFFFFFF PUSH2 0x4390 DUP5 PUSH2 0x3BFD JUMP JUMPDEST SWAP4 POP DUP1 NOT DUP4 AND SWAP3 POP DUP1 DUP5 AND DUP4 OR SWAP2 POP POP SWAP3 SWAP2 POP POP JUMP JUMPDEST PUSH1 0x0 PUSH2 0x43B1 DUP3 PUSH2 0x3B4C JUMP JUMPDEST SWAP1 POP SWAP2 SWAP1 POP JUMP JUMPDEST PUSH1 0x0 DUP2 SWAP1 POP SWAP2 SWAP1 POP JUMP JUMPDEST PUSH2 0x43CB DUP3 PUSH2 0x43A6 JUMP JUMPDEST PUSH2 0x43DE PUSH2 0x43D7 DUP3 PUSH2 0x43B8 JUMP JUMPDEST DUP4 SLOAD PUSH2 0x4370 JUMP JUMPDEST DUP3 SSTORE POP POP POP JUMP JUMPDEST PUSH1 0x0 DUP2 ADD PUSH1 0x0 DUP4 ADD PUSH2 0x43F7 DUP2 DUP6 PUSH2 0x41C6 JUMP JUMPDEST PUSH2 0x4402 DUP2 DUP4 DUP7 PUSH2 0x434A JUMP JUMPDEST POP POP POP POP PUSH1 0x1 DUP2 ADD PUSH1 0x20 DUP4 ADD DUP1 PUSH2 0x4418 DUP2 PUSH2 0x435A JUMP JUMPDEST SWAP1 POP PUSH2 0x4424 DUP2 DUP5 PUSH2 0x43C2 JUMP JUMPDEST POP POP POP POP POP JUMP JUMPDEST PUSH2 0x4435 DUP3 DUP3 PUSH2 0x43E5 JUMP JUMPDEST POP POP JUMP JUMPDEST PUSH2 0x4443 DUP4 DUP4 PUSH2 0x41BB JUMP JUMPDEST PUSH2 0x444D DUP2 DUP4 PUSH2 0x4185 JUMP JUMPDEST PUSH2 0x4456 DUP4 PUSH2 0x3CDE JUMP JUMPDEST PUSH2 0x445F DUP4 PUSH2 0x3D74 JUMP JUMPDEST PUSH1 0x0 JUMPDEST DUP4 DUP2 LT ISZERO PUSH2 0x4496 JUMPI PUSH2 0x4474 DUP4 DUP8 PUSH2 0x3CE8 JUMP JUMPDEST PUSH2 0x447E DUP2 DUP5 PUSH2 0x442B JUMP JUMPDEST PUSH1 0x20 DUP5 ADD SWAP4 POP PUSH1 0x2 DUP4 ADD SWAP3 POP POP PUSH1 0x1 DUP2 ADD SWAP1 POP PUSH2 0x4462 JUMP JUMPDEST POP POP POP POP POP POP POP JUMP JUMPDEST PUSH2 0x44AA DUP4 DUP4 DUP4 PUSH2 0x4439 JUMP JUMPDEST POP POP POP JUMP JUMPDEST PUSH1 0x0 DUP2 ADD PUSH1 0x0 DUP4 ADD DUP1 PUSH2 0x44C1 DUP2 PUSH2 0x3BE7 JUMP JUMPDEST SWAP1 POP PUSH2 0x44CD DUP2 DUP5 PUSH2 0x3C49 JUMP JUMPDEST POP POP POP PUSH1 0x1 DUP2 ADD PUSH1 0x20 DUP4 ADD PUSH2 0x44E2 DUP2 DUP6 PUSH2 0x3C7B JUMP JUMPDEST PUSH2 0x44ED DUP2 DUP4 DUP7 PUSH2 0x449F JUMP JUMPDEST POP POP POP POP PUSH1 0x2 DUP2 ADD PUSH1 0x40 DUP4 ADD PUSH2 0x4503 DUP2 DUP6 PUSH2 0x41C6 JUMP JUMPDEST PUSH2 0x450E DUP2 DUP4 DUP7 PUSH2 0x434A JUMP JUMPDEST POP POP POP POP POP POP JUMP JUMPDEST PUSH2 0x4520 DUP3 DUP3 PUSH2 0x44AF JUMP JUMPDEST POP POP JUMP JUMPDEST PUSH1 0x0 DUP2 CALLDATALOAD SWAP1 POP PUSH2 0x4533 DUP2 PUSH2 0x3BD7 JUMP JUMPDEST SWAP3 SWAP2 POP POP JUMP JUMPDEST PUSH1 0x0 PUSH2 0x4548 PUSH1 0x20 DUP5 ADD DUP5 PUSH2 0x4524 JUMP JUMPDEST SWAP1 POP SWAP3 SWAP2 POP POP JUMP JUMPDEST PUSH1 0x0 DUP1 REVERT JUMPDEST PUSH1 0x0 DUP1 REVERT JUMPDEST PUSH1 0x0 DUP1 REVERT JUMPDEST PUSH1 0x0 DUP1 DUP4 CALLDATALOAD PUSH1 0x1 PUSH1 0x20 SUB DUP5 CALLDATASIZE SUB SUB DUP2 SLT PUSH2 0x457C JUMPI PUSH2 0x457B PUSH2 0x455A JUMP JUMPDEST JUMPDEST DUP4 DUP2 ADD SWAP3 POP DUP3 CALLDATALOAD SWAP2 POP PUSH1 0x20 DUP4 ADD SWAP3 POP PUSH8 0xFFFFFFFFFFFFFFFF DUP3 GT ISZERO PUSH2 0x45A4 JUMPI PUSH2 0x45A3 PUSH2 0x4550 JUMP JUMPDEST JUMPDEST PUSH1 0x20 DUP3 MUL CALLDATASIZE SUB DUP4 SGT ISZERO PUSH2 0x45BA JUMPI PUSH2 0x45B9 PUSH2 0x4555 JUMP JUMPDEST JUMPDEST POP SWAP3 POP SWAP3 SWAP1 POP JUMP JUMPDEST PUSH1 0x0 DUP1 DUP4 CALLDATALOAD PUSH1 0x1 PUSH1 0x20 SUB DUP5 CALLDATASIZE SUB SUB DUP2 SLT PUSH2 0x45DF JUMPI PUSH2 0x45DE PUSH2 0x455A JUMP JUMPDEST JUMPDEST DUP4 DUP2 ADD SWAP3 POP DUP3 CALLDATALOAD SWAP2 POP PUSH1 0x20 DUP4 ADD SWAP3 POP PUSH8 0xFFFFFFFFFFFFFFFF DUP3 GT ISZERO PUSH2 0x4607 JUMPI PUSH2 0x4606 PUSH2 0x4550 JUMP JUMPDEST JUMPDEST PUSH1 0x1 DUP3 MUL CALLDATASIZE SUB DUP4 SGT ISZERO PUSH2 0x461D JUMPI PUSH2 0x461C PUSH2 0x4555 JUMP JUMPDEST JUMPDEST POP SWAP3 POP SWAP3 SWAP1 POP JUMP JUMPDEST PUSH1 0x0 PUSH2 0x4631 DUP4 DUP6 PUSH2 0x20E9 JUMP JUMPDEST SWAP4 POP PUSH2 0x463E DUP4 DUP6 DUP5 PUSH2 0x29A5 JUMP JUMPDEST PUSH2 0x4647 DUP4 PUSH2 0x2124 JUMP JUMPDEST DUP5 ADD SWAP1 POP SWAP4 SWAP3 POP POP POP JUMP JUMPDEST PUSH1 0x0 PUSH2 0x4661 PUSH1 0x20 DUP5 ADD DUP5 PUSH2 0x24E0 JUMP JUMPDEST SWAP1 POP SWAP3 SWAP2 POP POP JUMP JUMPDEST PUSH1 0x0 PUSH1 0x40 DUP4 ADD PUSH2 0x467C PUSH1 0x0 DUP5 ADD DUP5 PUSH2 0x45C2 JUMP JUMPDEST DUP6 DUP4 SUB PUSH1 0x0 DUP8 ADD MSTORE PUSH2 0x468F DUP4 DUP3 DUP5 PUSH2 0x4625 JUMP JUMPDEST SWAP3 POP POP POP PUSH2 0x46A0 PUSH1 0x20 DUP5 ADD DUP5 PUSH2 0x4652 JUMP JUMPDEST PUSH2 0x46AD PUSH1 0x20 DUP7 ADD DUP3 PUSH2 0x2698 JUMP JUMPDEST POP DUP1 SWAP2 POP POP SWAP3 SWAP2 POP POP JUMP JUMPDEST PUSH1 0x0 PUSH2 0x46C4 DUP4 DUP4 PUSH2 0x4669 JUMP JUMPDEST SWAP1 POP SWAP3 SWAP2 POP POP JUMP JUMPDEST PUSH1 0x0 DUP3 CALLDATALOAD PUSH1 0x1 PUSH1 0x40 SUB DUP4 CALLDATASIZE SUB SUB DUP2 SLT PUSH2 0x46E8 JUMPI PUSH2 0x46E7 PUSH2 0x455A JUMP JUMPDEST JUMPDEST DUP3 DUP2 ADD SWAP2 POP POP SWAP3 SWAP2 POP POP JUMP JUMPDEST PUSH1 0x0 PUSH1 0x20 DUP3 ADD SWAP1 POP SWAP2 SWAP1 POP JUMP JUMPDEST PUSH1 0x0 PUSH2 0x470D DUP4 DUP6 PUSH2 0x2677 JUMP JUMPDEST SWAP4 POP DUP4 PUSH1 0x20 DUP5 MUL DUP6 ADD PUSH2 0x471F DUP5 PUSH2 0x3CDE JUMP JUMPDEST DUP1 PUSH1 0x0 JUMPDEST DUP8 DUP2 LT ISZERO PUSH2 0x4763 JUMPI DUP5 DUP5 SUB DUP10 MSTORE PUSH2 0x473A DUP3 DUP5 PUSH2 0x46CC JUMP JUMPDEST PUSH2 0x4744 DUP6 DUP3 PUSH2 0x46B8 JUMP JUMPDEST SWAP5 POP PUSH2 0x474F DUP4 PUSH2 0x46F4 JUMP JUMPDEST SWAP3 POP PUSH1 0x20 DUP11 ADD SWAP10 POP POP PUSH1 0x1 DUP2 ADD SWAP1 POP PUSH2 0x4723 JUMP JUMPDEST POP DUP3 SWAP8 POP DUP8 SWAP5 POP POP POP POP POP SWAP4 SWAP3 POP POP POP JUMP JUMPDEST PUSH1 0x0 PUSH1 0x60 DUP4 ADD PUSH2 0x4788 PUSH1 0x0 DUP5 ADD DUP5 PUSH2 0x4539 JUMP JUMPDEST PUSH2 0x4795 PUSH1 0x0 DUP7 ADD DUP3 PUSH2 0x265D JUMP JUMPDEST POP PUSH2 0x47A3 PUSH1 0x20 DUP5 ADD DUP5 PUSH2 0x455F JUMP JUMPDEST DUP6 DUP4 SUB PUSH1 0x20 DUP8 ADD MSTORE PUSH2 0x47B6 DUP4 DUP3 DUP5 PUSH2 0x4701 JUMP JUMPDEST SWAP3 POP POP POP PUSH2 0x47C7 PUSH1 0x40 DUP5 ADD DUP5 PUSH2 0x45C2 JUMP JUMPDEST DUP6 DUP4 SUB PUSH1 0x40 DUP8 ADD MSTORE PUSH2 0x47DA DUP4 DUP3 DUP5 PUSH2 0x4625 JUMP JUMPDEST SWAP3 POP POP POP DUP1 SWAP2 POP POP SWAP3 SWAP2 POP POP JUMP JUMPDEST PUSH1 0x0 PUSH1 0x40 DUP3 ADD SWAP1 POP PUSH2 0x47FD PUSH1 0x0 DUP4 ADD DUP6 PUSH2 0x1FF0 JUMP JUMPDEST DUP2 DUP2 SUB PUSH1 0x20 DUP4 ADD MSTORE PUSH2 0x480F DUP2 DUP5 PUSH2 0x4775 JUMP JUMPDEST SWAP1 POP SWAP4 SWAP3 POP POP POP JUMP JUMPDEST PUSH1 0x0 PUSH1 0x40 DUP3 ADD SWAP1 POP PUSH2 0x482D PUSH1 0x0 DUP4 ADD DUP6 PUSH2 0x1FF0 JUMP JUMPDEST PUSH2 0x483A PUSH1 0x20 DUP4 ADD DUP5 PUSH2 0x1FD7 JUMP JUMPDEST SWAP4 SWAP3 POP POP POP JUMP JUMPDEST PUSH1 0x0 DUP1 DUP4 CALLDATALOAD PUSH1 0x1 PUSH1 0x20 SUB DUP5 CALLDATASIZE SUB SUB DUP2 SLT PUSH2 0x485E JUMPI PUSH2 0x485D PUSH2 0x3C6C JUMP JUMPDEST JUMPDEST DUP1 DUP5 ADD SWAP3 POP DUP3 CALLDATALOAD SWAP2 POP PUSH8 0xFFFFFFFFFFFFFFFF DUP3 GT ISZERO PUSH2 0x4880 JUMPI PUSH2 0x487F PUSH2 0x3C71 JUMP JUMPDEST JUMPDEST PUSH1 0x20 DUP4 ADD SWAP3 POP PUSH1 0x20 DUP3 MUL CALLDATASIZE SUB DUP4 SGT ISZERO PUSH2 0x489C JUMPI PUSH2 0x489B PUSH2 0x3C76 JUMP JUMPDEST JUMPDEST POP SWAP3 POP SWAP3 SWAP1 POP JUMP JUMPDEST PUSH1 0x0 DUP2 SWAP1 POP SWAP2 SWAP1 POP JUMP JUMPDEST PUSH1 0x0 DUP2 SLOAD SWAP1 POP SWAP2 SWAP1 POP JUMP JUMPDEST PUSH1 0x0 DUP2 SWAP1 POP PUSH1 0x1 DUP1 PUSH1 0x1 SUB DUP4 ADD DIV SWAP1 POP SWAP2 SWAP1 POP JUMP JUMPDEST PUSH1 0x0 DUP2 SWAP1 POP DUP2 PUSH1 0x0 MSTORE PUSH1 0x20 PUSH1 0x0 KECCAK256 SWAP1 POP SWAP2 SWAP1 POP JUMP JUMPDEST JUMPDEST DUP2 DUP2 LT ISZERO PUSH2 0x4902 JUMPI PUSH2 0x48F7 PUSH1 0x0 DUP3 PUSH2 0x40D1 JUMP JUMPDEST PUSH1 0x1 DUP2 ADD SWAP1 POP PUSH2 0x48E4 JUMP JUMPDEST POP POP JUMP JUMPDEST DUP2 DUP4 LT ISZERO PUSH2 0x493F JUMPI PUSH2 0x4917 DUP3 PUSH2 0x48B9 JUMP JUMPDEST PUSH2 0x4920 DUP5 PUSH2 0x48B9 JUMP JUMPDEST PUSH2 0x4929 DUP4 PUSH2 0x48CE JUMP JUMPDEST DUP2 DUP2 ADD DUP4 DUP3 ADD PUSH2 0x4939 DUP2 DUP4 PUSH2 0x48E3 JUMP JUMPDEST POP POP POP POP POP JUMPDEST POP POP POP JUMP JUMPDEST PUSH9 0x10000000000000000 DUP3 GT ISZERO PUSH2 0x495E JUMPI PUSH2 0x495D PUSH2 0x28EA JUMP JUMPDEST JUMPDEST PUSH2 0x4967 DUP2 PUSH2 0x48AE JUMP JUMPDEST DUP3 DUP3 SSTORE PUSH2 0x4975 DUP4 DUP3 DUP5 PUSH2 0x4906 JUMP JUMPDEST POP POP POP JUMP JUMPDEST PUSH1 0x0 DUP3 SWAP1 POP SWAP3 SWAP2 POP POP JUMP JUMPDEST PUSH2 0x498F DUP4 DUP4 PUSH2 0x497A JUMP JUMPDEST PUSH2 0x4999 DUP2 DUP4 PUSH2 0x4944 JUMP JUMPDEST PUSH2 0x49A2 DUP4 PUSH2 0x48A4 JUMP JUMPDEST PUSH2 0x49AB DUP4 PUSH2 0x48CE JUMP JUMPDEST PUSH1 0x0 JUMPDEST DUP4 DUP2 LT ISZERO PUSH2 0x49E4 JUMPI PUSH2 0x49C0 DUP4 DUP8 PUSH2 0x41C6 JUMP JUMPDEST PUSH2 0x49CB DUP2 DUP4 DUP7 PUSH2 0x434A JUMP JUMPDEST PUSH1 0x20 DUP6 ADD SWAP5 POP PUSH1 0x1 DUP5 ADD SWAP4 POP POP POP PUSH1 0x1 DUP2 ADD SWAP1 POP PUSH2 0x49AE JUMP JUMPDEST POP POP POP POP POP POP POP JUMP JUMPDEST PUSH2 0x49F8 DUP4 DUP4 DUP4 PUSH2 0x4985 JUMP JUMPDEST POP POP POP JUMP JUMPDEST PUSH1 0x0 DUP2 CALLDATALOAD PUSH2 0x4A0A DUP2 PUSH2 0x3004 JUMP JUMPDEST DUP1 SWAP2 POP POP SWAP2 SWAP1 POP JUMP JUMPDEST PUSH1 0x0 PUSH2 0x4A1E DUP3 PUSH2 0x254F JUMP JUMPDEST SWAP1 POP SWAP2 SWAP1 POP JUMP JUMPDEST PUSH1 0x0 DUP2 SWAP1 POP SWAP2 SWAP1 POP JUMP JUMPDEST PUSH2 0x4A38 DUP3 PUSH2 0x4A13 JUMP JUMPDEST PUSH2 0x4A4B PUSH2 0x4A44 DUP3 PUSH2 0x4A25 JUMP JUMPDEST DUP4 SLOAD PUSH2 0x3C0A JUMP JUMPDEST DUP3 SSTORE POP POP POP JUMP JUMPDEST PUSH1 0x0 DUP2 ADD PUSH1 0x0 DUP4 ADD PUSH2 0x4A64 DUP2 DUP6 PUSH2 0x41C6 JUMP JUMPDEST PUSH2 0x4A6F DUP2 DUP4 DUP7 PUSH2 0x434A JUMP JUMPDEST POP POP POP POP PUSH1 0x1 DUP2 ADD PUSH1 0x20 DUP4 ADD PUSH2 0x4A85 DUP2 DUP6 PUSH2 0x41C6 JUMP JUMPDEST PUSH2 0x4A90 DUP2 DUP4 DUP7 PUSH2 0x434A JUMP JUMPDEST POP POP POP POP PUSH1 0x2 DUP2 ADD PUSH1 0x40 DUP4 ADD PUSH2 0x4AA6 DUP2 DUP6 PUSH2 0x41C6 JUMP JUMPDEST PUSH2 0x4AB1 DUP2 DUP4 DUP7 PUSH2 0x434A JUMP JUMPDEST POP POP POP POP PUSH1 0x3 DUP2 ADD PUSH1 0x60 DUP4 ADD PUSH2 0x4AC7 DUP2 DUP6 PUSH2 0x4841 JUMP JUMPDEST PUSH2 0x4AD2 DUP2 DUP4 DUP7 PUSH2 0x49ED JUMP JUMPDEST POP POP POP POP PUSH1 0x4 DUP2 ADD PUSH1 0x80 DUP4 ADD DUP1 PUSH2 0x4AE8 DUP2 PUSH2 0x49FD JUMP JUMPDEST SWAP1 POP PUSH2 0x4AF4 DUP2 DUP5 PUSH2 0x4A2F JUMP JUMPDEST POP POP POP POP POP JUMP JUMPDEST PUSH2 0x4B05 DUP3 DUP3 PUSH2 0x4A52 JUMP JUMPDEST POP POP JUMP JUMPDEST PUSH32 0x4E487B7100000000000000000000000000000000000000000000000000000000 PUSH1 0x0 MSTORE PUSH1 0x32 PUSH1 0x4 MSTORE PUSH1 0x24 PUSH1 0x0 REVERT JUMPDEST PUSH2 0x4B41 DUP2 PUSH2 0x27F8 JUMP JUMPDEST DUP3 MSTORE POP POP JUMP JUMPDEST PUSH1 0x0 PUSH1 0x40 DUP3 ADD SWAP1 POP PUSH2 0x4B5C PUSH1 0x0 DUP4 ADD DUP6 PUSH2 0x1FF0 JUMP JUMPDEST PUSH2 0x4B69 PUSH1 0x20 DUP4 ADD DUP5 PUSH2 0x4B38 JUMP JUMPDEST SWAP4 SWAP3 POP POP POP JUMP JUMPDEST PUSH1 0x0 DUP1 DUP4 CALLDATALOAD PUSH1 0x1 PUSH1 0x20 SUB DUP5 CALLDATASIZE SUB SUB DUP2 SLT PUSH2 0x4B8D JUMPI PUSH2 0x4B8C PUSH2 0x455A JUMP JUMPDEST JUMPDEST DUP4 DUP2 ADD SWAP3 POP DUP3 CALLDATALOAD SWAP2 POP PUSH1 0x20 DUP4 ADD SWAP3 POP PUSH8 0xFFFFFFFFFFFFFFFF DUP3 GT ISZERO PUSH2 0x4BB5 JUMPI PUSH2 0x4BB4 PUSH2 0x4550 JUMP JUMPDEST JUMPDEST PUSH1 0x20 DUP3 MUL CALLDATASIZE SUB DUP4 SGT ISZERO PUSH2 0x4BCB JUMPI PUSH2 0x4BCA PUSH2 0x4555 JUMP JUMPDEST JUMPDEST POP SWAP3 POP SWAP3 SWAP1 POP JUMP JUMPDEST PUSH1 0x0 PUSH2 0x4BE0 DUP5 DUP5 DUP5 PUSH2 0x4625 JUMP JUMPDEST SWAP1 POP SWAP4 SWAP3 POP POP POP JUMP JUMPDEST PUSH1 0x0 PUSH1 0x20 DUP3 ADD SWAP1 POP SWAP2 SWAP1 POP JUMP JUMPDEST PUSH1 0x0 PUSH2 0x4C02 DUP4 DUP6 PUSH2 0x2179 JUMP JUMPDEST SWAP4 POP DUP4 PUSH1 0x20 DUP5 MUL DUP6 ADD PUSH2 0x4C14 DUP5 PUSH2 0x48A4 JUMP JUMPDEST DUP1 PUSH1 0x0 JUMPDEST DUP8 DUP2 LT ISZERO PUSH2 0x4C5A JUMPI DUP5 DUP5 SUB DUP10 MSTORE PUSH2 0x4C2F DUP3 DUP5 PUSH2 0x45C2 JUMP JUMPDEST PUSH2 0x4C3A DUP7 DUP3 DUP5 PUSH2 0x4BD3 JUMP JUMPDEST SWAP6 POP PUSH2 0x4C45 DUP5 PUSH2 0x4BE9 JUMP JUMPDEST SWAP4 POP PUSH1 0x20 DUP12 ADD SWAP11 POP POP POP PUSH1 0x1 DUP2 ADD SWAP1 POP PUSH2 0x4C18 JUMP JUMPDEST POP DUP3 SWAP8 POP DUP8 SWAP5 POP POP POP POP POP SWAP4 SWAP3 POP POP POP JUMP JUMPDEST PUSH1 0x0 PUSH2 0x4C7B PUSH1 0x20 DUP5 ADD DUP5 PUSH2 0x301B JUMP JUMPDEST SWAP1 POP SWAP3 SWAP2 POP POP JUMP JUMPDEST PUSH1 0x0 PUSH1 0xA0 DUP4 ADD PUSH2 0x4C96 PUSH1 0x0 DUP5 ADD DUP5 PUSH2 0x45C2 JUMP JUMPDEST DUP6 DUP4 SUB PUSH1 0x0 DUP8 ADD MSTORE PUSH2 0x4CA9 DUP4 DUP3 DUP5 PUSH2 0x4625 JUMP JUMPDEST SWAP3 POP POP POP PUSH2 0x4CBA PUSH1 0x20 DUP5 ADD DUP5 PUSH2 0x45C2 JUMP JUMPDEST DUP6 DUP4 SUB PUSH1 0x20 DUP8 ADD MSTORE PUSH2 0x4CCD DUP4 DUP3 DUP5 PUSH2 0x4625 JUMP JUMPDEST SWAP3 POP POP POP PUSH2 0x4CDE PUSH1 0x40 DUP5 ADD DUP5 PUSH2 0x45C2 JUMP JUMPDEST DUP6 DUP4 SUB PUSH1 0x40 DUP8 ADD MSTORE PUSH2 0x4CF1 DUP4 DUP3 DUP5 PUSH2 0x4625 JUMP JUMPDEST SWAP3 POP POP POP PUSH2 0x4D02 PUSH1 0x60 DUP5 ADD DUP5 PUSH2 0x4B70 JUMP JUMPDEST DUP6 DUP4 SUB PUSH1 0x60 DUP8 ADD MSTORE PUSH2 0x4D15 DUP4 DUP3 DUP5 PUSH2 0x4BF6 JUMP JUMPDEST SWAP3 POP POP POP PUSH2 0x4D26 PUSH1 0x80 DUP5 ADD DUP5 PUSH2 0x4C6C JUMP JUMPDEST PUSH2 0x4D33 PUSH1 0x80 DUP7 ADD DUP3 PUSH2 0x255B JUMP JUMPDEST POP DUP1 SWAP2 POP POP SWAP3 SWAP2 POP POP JUMP JUMPDEST PUSH1 0x0 PUSH1 0x40 DUP3 ADD SWAP1 POP PUSH2 0x4D53 PUSH1 0x0 DUP4 ADD DUP6 PUSH2 0x1FF0 JUMP JUMPDEST DUP2 DUP2 SUB PUSH1 0x20 DUP4 ADD MSTORE PUSH2 0x4D65 DUP2 DUP5 PUSH2 0x4C83 JUMP JUMPDEST SWAP1 POP SWAP4 SWAP3 POP POP POP JUMP JUMPDEST PUSH32 0x4E487B7100000000000000000000000000000000000000000000000000000000 PUSH1 0x0 MSTORE PUSH1 0x31 PUSH1 0x4 MSTORE PUSH1 0x24 PUSH1 0x0 REVERT JUMPDEST PUSH1 0x0 PUSH1 0x40 DUP3 ADD SWAP1 POP PUSH2 0x4DB2 PUSH1 0x0 DUP4 ADD DUP6 PUSH2 0x1FF0 JUMP JUMPDEST PUSH2 0x4DBF PUSH1 0x20 DUP4 ADD DUP5 PUSH2 0x1FF0 JUMP JUMPDEST SWAP4 SWAP3 POP POP POP JUMP JUMPDEST PUSH1 0x0 PUSH2 0x4DD1 DUP3 PUSH2 0x1FE6 JUMP JUMPDEST SWAP2 POP PUSH2 0x4DDC DUP4 PUSH2 0x1FE6 JUMP JUMPDEST SWAP3 POP DUP3 DUP3 ADD SWAP1 POP DUP1 DUP3 GT ISZERO PUSH2 0x4DF4 JUMPI PUSH2 0x4DF3 PUSH2 0x3961 JUMP JUMPDEST JUMPDEST SWAP3 SWAP2 POP POP JUMP JUMPDEST PUSH1 0x0 PUSH1 0x60 DUP3 ADD SWAP1 POP PUSH2 0x4E0F PUSH1 0x0 DUP4 ADD DUP7 PUSH2 0x1FD7 JUMP JUMPDEST PUSH2 0x4E1C PUSH1 0x20 DUP4 ADD DUP6 PUSH2 0x1FF0 JUMP JUMPDEST PUSH2 0x4E29 PUSH1 0x40 DUP4 ADD DUP5 PUSH2 0x1FF0 JUMP JUMPDEST SWAP5 SWAP4 POP POP POP POP JUMP JUMPDEST PUSH2 0x4E3A DUP2 PUSH2 0x254F JUMP JUMPDEST DUP3 MSTORE POP POP JUMP JUMPDEST PUSH1 0x0 PUSH1 0x40 DUP3 ADD SWAP1 POP PUSH2 0x4E55 PUSH1 0x0 DUP4 ADD DUP6 PUSH2 0x1FF0 JUMP JUMPDEST PUSH2 0x4E62 PUSH1 0x20 DUP4 ADD DUP5 PUSH2 0x4E31 JUMP JUMPDEST SWAP4 SWAP3 POP POP POP JUMP JUMPDEST PUSH1 0x0 PUSH2 0x4E74 DUP3 PUSH2 0x1FE6 JUMP JUMPDEST SWAP2 POP PUSH32 0xFFFFFFFFFFFFFFFFFFFFFFFFFFFFFFFFFFFFFFFFFFFFFFFFFFFFFFFFFFFFFFFF DUP3 SUB PUSH2 0x4EA6 JUMPI PUSH2 0x4EA5 PUSH2 0x3961 JUMP JUMPDEST JUMPDEST PUSH1 0x1 DUP3 ADD SWAP1 POP SWAP2 SWAP1 POP JUMP INVALID LOG2 PUSH5 0x6970667358 0x22 SLT KECCAK256 NUMBER 0xA7 DELEGATECALL EQ PUSH18 0x7CB48F8D6A0A19D99BF4F2F4077FA4FF0E0B SDIV 0xA8 0xE5 RETURN OR 0xEA 0xF7 GASPRICE 0xF PUSH5 0x736F6C6343 STOP ADDMOD XOR STOP CALLER "},"methodIdentifiers":{"addGuardian(uint256,uint256)":"c8b785f3","adminManageCommunity(uint256,(string,string,string,string[],bool),(uint8,(string,address)[],string),uint256[],address,uint8,bool)":"654f6a75","adminSetCommunityPrice(uint256)":"873ceb2e","adminSetDefaultElectionResultsContract(address)":"25fe08c9","adminSetPricePerElection(uint256)":"3e512ebc","createCommunity((string,string,string,string[],bool),(uint8,(string,address)[],string),uint256[],address,uint8)":"f8867041","deposit(uint256)":"b6b55f25","getCommunity(uint256)":"370603f8","getCreateCommunityPrice()":"c5bf44ab","getDefaultElectionResultsContract()":"988a314c","getNextCommunityId()":"9532c8c3","getPricePerElection()":"d62b5c59","getResult(uint256,bytes32)":"13e86265","owner()":"8da5cb5b","removeGuardian(uint256,uint256)":"aba675b0","renounceOwnership()":"715018a6","setCensus(uint256,(uint8,(string,address)[],string))":"56c4e4ba","setCreateElectionPermission(uint256,uint8)":"7824c05c","setElectionResultsContract(uint256,address)":"5a6cad96","setMetadata(uint256,(string,string,string,string[],bool))":"82e6d638","setNotifiableElections(uint256,bool)":"e6160fa3","setResult(uint256,bytes32,(string,string[],string,uint256[][],uint256,uint256,uint256[],bytes32,string))":"3c973f75","transferOwnership(address)":"f2fde38b","withdraw()":"3ccfd60b"}}}}}