{"src/CommunityHub.sol":{"CommunityHub":{"abi":[{"inputs":[],"stateMutability":"nonpayable","type":"constructor"},{"inputs":[{"internalType":"uint256","name":"expected","type":"uint256"},{"internalType":"uint256","name":"actual","type":"uint256"}],"name":"AmountMismatch","type":"error"},{"inputs":[{"internalType":"uint256","name":"guardian","type":"uint256"}],"name":"GuardianNotFound","type":"error"},{"inputs":[],"name":"InvalidCreateElectionPermission","type":"error"},{"inputs":[{"internalType":"address","name":"owner","type":"address"}],"name":"OwnableInvalidOwner","type":"error"},{"inputs":[{"internalType":"address","name":"account","type":"address"}],"name":"OwnableUnauthorizedAccount","type":"error"},{"inputs":[],"name":"ZeroAmount","type":"error"},{"anonymous":false,"inputs":[{"indexed":false,"internalType":"uint256","name":"communityId","type":"uint256"}],"name":"AdminCommunityManaged","type":"event"},{"anonymous":false,"inputs":[{"indexed":false,"internalType":"uint256","name":"communityId","type":"uint256"},{"components":[{"internalType":"enum ICommunityHub.CensusType","name":"censusType","type":"uint8"},{"components":[{"internalType":"string","name":"blockchain","type":"string"},{"internalType":"address","name":"contractAddress","type":"address"}],"internalType":"struct ICommunityHub.Token[]","name":"tokens","type":"tuple[]"},{"internalType":"string","name":"channel","type":"string"}],"indexed":false,"internalType":"struct ICommunityHub.Census","name":"census","type":"tuple"}],"name":"CensusSet","type":"event"},{"anonymous":false,"inputs":[{"indexed":false,"internalType":"uint256","name":"communityId","type":"uint256"},{"indexed":false,"internalType":"address","name":"creator","type":"address"}],"name":"CommunityCreated","type":"event"},{"anonymous":false,"inputs":[{"indexed":false,"internalType":"address","name":"sender","type":"address"},{"indexed":false,"internalType":"uint256","name":"amount","type":"uint256"},{"indexed":false,"internalType":"uint256","name":"communityId","type":"uint256"}],"name":"CommunityDeposit","type":"event"},{"anonymous":false,"inputs":[{"indexed":false,"internalType":"uint256","name":"communityId","type":"uint256"}],"name":"CommunityDisabled","type":"event"},{"anonymous":false,"inputs":[{"indexed":false,"internalType":"uint256","name":"communityId","type":"uint256"}],"name":"CommunityEnabled","type":"event"},{"anonymous":false,"inputs":[{"indexed":false,"internalType":"uint256","name":"price","type":"uint256"}],"name":"CreateCommunityPriceSet","type":"event"},{"anonymous":false,"inputs":[{"indexed":false,"internalType":"uint256","name":"communityId","type":"uint256"},{"indexed":false,"internalType":"enum ICommunityHub.CreateElectionPermission","name":"createElectionPermission","type":"uint8"}],"name":"CreateElectionPermissionSet","type":"event"},{"anonymous":false,"inputs":[{"indexed":false,"internalType":"address","name":"sender","type":"address"},{"indexed":false,"internalType":"uint256","name":"amount","type":"uint256"}],"name":"Deposit","type":"event"},{"anonymous":false,"inputs":[{"indexed":false,"internalType":"uint256","name":"communityId","type":"uint256"},{"indexed":false,"internalType":"uint256","name":"guardian","type":"uint256"}],"name":"GuardianAdded","type":"event"},{"anonymous":false,"inputs":[{"indexed":false,"internalType":"uint256","name":"communityId","type":"uint256"},{"indexed":false,"internalType":"uint256","name":"guardian","type":"uint256"}],"name":"GuardianRemoved","type":"event"},{"anonymous":false,"inputs":[{"indexed":false,"internalType":"uint256","name":"communityId","type":"uint256"},{"components":[{"internalType":"string","name":"name","type":"string"},{"internalType":"string","name":"imageURI","type":"string"},{"internalType":"string","name":"groupChatURL","type":"string"},{"internalType":"string[]","name":"channels","type":"string[]"},{"internalType":"bool","name":"notifications","type":"bool"}],"indexed":false,"internalType":"struct ICommunityHub.CommunityMetadata","name":"metadata","type":"tuple"}],"name":"MetadataSet","type":"event"},{"anonymous":false,"inputs":[{"indexed":false,"internalType":"uint256","name":"communityId","type":"uint256"},{"indexed":false,"internalType":"bool","name":"notifiableElections","type":"bool"}],"name":"NotifiableElectionsSet","type":"event"},{"anonymous":false,"inputs":[{"indexed":true,"internalType":"address","name":"previousOwner","type":"address"},{"indexed":true,"internalType":"address","name":"newOwner","type":"address"}],"name":"OwnershipTransferred","type":"event"},{"anonymous":false,"inputs":[{"indexed":false,"internalType":"uint256","name":"price","type":"uint256"}],"name":"PricePerElectionSet","type":"event"},{"anonymous":false,"inputs":[{"indexed":false,"internalType":"uint256","name":"communityId","type":"uint256"},{"indexed":false,"internalType":"bytes32","name":"electionId","type":"bytes32"}],"name":"ResultsSet","type":"event"},{"anonymous":false,"inputs":[{"indexed":false,"internalType":"uint256","name":"amount","type":"uint256"},{"indexed":false,"internalType":"address","name":"to","type":"address"}],"name":"Withdrawal","type":"event"},{"inputs":[{"internalType":"uint256","name":"_communityId","type":"uint256"},{"internalType":"uint256","name":"_guardian","type":"uint256"}],"name":"addGuardian","outputs":[],"stateMutability":"nonpayable","type":"function"},{"inputs":[{"internalType":"uint256","name":"_communityId","type":"uint256"},{"components":[{"internalType":"string","name":"name","type":"string"},{"internalType":"string","name":"imageURI","type":"string"},{"internalType":"string","name":"groupChatURL","type":"string"},{"internalType":"string[]","name":"channels","type":"string[]"},{"internalType":"bool","name":"notifications","type":"bool"}],"internalType":"struct ICommunityHub.CommunityMetadata","name":"_metadata","type":"tuple"},{"components":[{"internalType":"enum ICommunityHub.CensusType","name":"censusType","type":"uint8"},{"components":[{"internalType":"string","name":"blockchain","type":"string"},{"internalType":"address","name":"contractAddress","type":"address"}],"internalType":"struct ICommunityHub.Token[]","name":"tokens","type":"tuple[]"},{"internalType":"string","name":"channel","type":"string"}],"internalType":"struct ICommunityHub.Census","name":"_census","type":"tuple"},{"internalType":"uint256[]","name":"_guardians","type":"uint256[]"},{"internalType":"enum ICommunityHub.CreateElectionPermission","name":"_createElectionPermission","type":"uint8"},{"internalType":"bool","name":"_disabled","type":"bool"}],"name":"adminManageCommunity","outputs":[],"stateMutability":"nonpayable","type":"function"},{"inputs":[{"internalType":"uint256","name":"_price","type":"uint256"}],"name":"adminSetCommunityPrice","outputs":[],"stateMutability":"nonpayable","type":"function"},{"inputs":[{"internalType":"uint256","name":"_price","type":"uint256"}],"name":"adminSetPricePerElection","outputs":[],"stateMutability":"nonpayable","type":"function"},{"inputs":[{"components":[{"internalType":"string","name":"name","type":"string"},{"internalType":"string","name":"imageURI","type":"string"},{"internalType":"string","name":"groupChatURL","type":"string"},{"internalType":"string[]","name":"channels","type":"string[]"},{"internalType":"bool","name":"notifications","type":"bool"}],"internalType":"struct ICommunityHub.CommunityMetadata","name":"_metadata","type":"tuple"},{"components":[{"internalType":"enum ICommunityHub.CensusType","name":"censusType","type":"uint8"},{"components":[{"internalType":"string","name":"blockchain","type":"string"},{"internalType":"address","name":"contractAddress","type":"address"}],"internalType":"struct ICommunityHub.Token[]","name":"tokens","type":"tuple[]"},{"internalType":"string","name":"channel","type":"string"}],"internalType":"struct ICommunityHub.Census","name":"_census","type":"tuple"},{"internalType":"uint256[]","name":"_guardians","type":"uint256[]"},{"internalType":"enum ICommunityHub.CreateElectionPermission","name":"_createElectionPermission","type":"uint8"}],"name":"createCommunity","outputs":[{"internalType":"uint256","name":"result","type":"uint256"}],"stateMutability":"payable","type":"function"},{"inputs":[{"internalType":"uint256","name":"_communityId","type":"uint256"}],"name":"deposit","outputs":[],"stateMutability":"payable","type":"function"},{"inputs":[{"internalType":"uint256","name":"_communityId","type":"uint256"}],"name":"getCommunity","outputs":[{"components":[{"components":[{"internalType":"string","name":"name","type":"string"},{"internalType":"string","name":"imageURI","type":"string"},{"internalType":"string","name":"groupChatURL","type":"string"},{"internalType":"string[]","name":"channels","type":"string[]"},{"internalType":"bool","name":"notifications","type":"bool"}],"internalType":"struct ICommunityHub.CommunityMetadata","name":"metadata","type":"tuple"},{"components":[{"internalType":"enum ICommunityHub.CensusType","name":"censusType","type":"uint8"},{"components":[{"internalType":"string","name":"blockchain","type":"string"},{"internalType":"address","name":"contractAddress","type":"address"}],"internalType":"struct ICommunityHub.Token[]","name":"tokens","type":"tuple[]"},{"internalType":"string","name":"channel","type":"string"}],"internalType":"struct ICommunityHub.Census","name":"census","type":"tuple"},{"internalType":"uint256[]","name":"guardians","type":"uint256[]"},{"internalType":"enum ICommunityHub.CreateElectionPermission","name":"createElectionPermission","type":"uint8"},{"internalType":"bool","name":"disabled","type":"bool"},{"internalType":"uint256","name":"funds","type":"uint256"}],"internalType":"struct ICommunityHub.Community","name":"","type":"tuple"}],"stateMutability":"view","type":"function"},{"inputs":[],"name":"getCreateCommunityPrice","outputs":[{"internalType":"uint256","name":"","type":"uint256"}],"stateMutability":"view","type":"function"},{"inputs":[],"name":"getNextCommunityId","outputs":[{"internalType":"uint256","name":"","type":"uint256"}],"stateMutability":"view","type":"function"},{"inputs":[],"name":"getPricePerElection","outputs":[{"internalType":"uint256","name":"","type":"uint256"}],"stateMutability":"view","type":"function"},{"inputs":[{"internalType":"uint256","name":"_communityId","type":"uint256"},{"internalType":"bytes32","name":"_electionId","type":"bytes32"}],"name":"getResult","outputs":[{"components":[{"internalType":"string","name":"question","type":"string"},{"internalType":"string[]","name":"options","type":"string[]"},{"internalType":"string","name":"date","type":"string"},{"internalType":"uint256[][]","name":"tally","type":"uint256[][]"},{"internalType":"uint256","name":"turnout","type":"uint256"},{"internalType":"uint256","name":"totalVotingPower","type":"uint256"},{"internalType":"uint256[]","name":"participants","type":"uint256[]"},{"internalType":"bytes32","name":"censusRoot","type":"bytes32"},{"internalType":"string","name":"censusURI","type":"string"}],"internalType":"struct IResult.Result","name":"result","type":"tuple"}],"stateMutability":"view","type":"function"},{"inputs":[],"name":"owner","outputs":[{"internalType":"address","name":"","type":"address"}],"stateMutability":"view","type":"function"},{"inputs":[{"internalType":"uint256","name":"_communityId","type":"uint256"},{"internalType":"uint256","name":"_guardian","type":"uint256"}],"name":"removeGuardian","outputs":[],"stateMutability":"nonpayable","type":"function"},{"inputs":[],"name":"renounceOwnership","outputs":[],"stateMutability":"nonpayable","type":"function"},{"inputs":[{"internalType":"uint256","name":"_communityId","type":"uint256"},{"components":[{"internalType":"enum ICommunityHub.CensusType","name":"censusType","type":"uint8"},{"components":[{"internalType":"string","name":"blockchain","type":"string"},{"internalType":"address","name":"contractAddress","type":"address"}],"internalType":"struct ICommunityHub.Token[]","name":"tokens","type":"tuple[]"},{"internalType":"string","name":"channel","type":"string"}],"internalType":"struct ICommunityHub.Census","name":"_census","type":"tuple"}],"name":"setCensus","outputs":[],"stateMutability":"nonpayable","type":"function"},{"inputs":[{"internalType":"uint256","name":"_communityId","type":"uint256"},{"internalType":"enum ICommunityHub.CreateElectionPermission","name":"_createElectionPermission","type":"uint8"}],"name":"setCreateElectionPermission","outputs":[],"stateMutability":"nonpayable","type":"function"},{"inputs":[{"internalType":"uint256","name":"_communityId","type":"uint256"},{"components":[{"internalType":"string","name":"name","type":"string"},{"internalType":"string","name":"imageURI","type":"string"},{"internalType":"string","name":"groupChatURL","type":"string"},{"internalType":"string[]","name":"channels","type":"string[]"},{"internalType":"bool","name":"notifications","type":"bool"}],"internalType":"struct ICommunityHub.CommunityMetadata","name":"_metadata","type":"tuple"}],"name":"setMetadata","outputs":[],"stateMutability":"nonpayable","type":"function"},{"inputs":[{"internalType":"uint256","name":"_communityId","type":"uint256"},{"internalType":"bool","name":"_notifiableElections","type":"bool"}],"name":"setNotifiableElections","outputs":[],"stateMutability":"nonpayable","type":"function"},{"inputs":[{"internalType":"uint256","name":"_communityId","type":"uint256"},{"internalType":"bytes32","name":"_electionId","type":"bytes32"},{"components":[{"internalType":"string","name":"question","type":"string"},{"internalType":"string[]","name":"options","type":"string[]"},{"internalType":"string","name":"date","type":"string"},{"internalType":"uint256[][]","name":"tally","type":"uint256[][]"},{"internalType":"uint256","name":"turnout","type":"uint256"},{"internalType":"uint256","name":"totalVotingPower","type":"uint256"},{"internalType":"uint256[]","name":"participants","type":"uint256[]"},{"internalType":"bytes32","name":"censusRoot","type":"bytes32"},{"internalType":"string","name":"censusURI","type":"string"}],"internalType":"struct IResult.Result","name":"_result","type":"tuple"}],"name":"setResult","outputs":[],"stateMutability":"nonpayable","type":"function"},{"inputs":[{"internalType":"address","name":"newOwner","type":"address"}],"name":"transferOwnership","outputs":[],"stateMutability":"nonpayable","type":"function"},{"inputs":[],"name":"withdraw","outputs":[],"stateMutability":"nonpayable","type":"function"},{"stateMutability":"payable","type":"receive"}],"evm":{"bytecode":{"linkReferences":{},"object":"60806040523480156200001157600080fd5b5033600073ffffffffffffffffffffffffffffffffffffffff168173ffffffffffffffffffffffffffffffffffffffff1603620000885760006040517f1e4fbdf70000000000000000000000000000000000000000000000000000000081526004016200007f9190620001a9565b60405180910390fd5b6200009981620000a060201b60201c565b50620001c6565b60008060009054906101000a900473ffffffffffffffffffffffffffffffffffffffff169050816000806101000a81548173ffffffffffffffffffffffffffffffffffffffff021916908373ffffffffffffffffffffffffffffffffffffffff1602179055508173ffffffffffffffffffffffffffffffffffffffff168173ffffffffffffffffffffffffffffffffffffffff167f8be0079c531659141344cd1fd0a4f28419497f9722a3daafe3b4186f6b6457e060405160405180910390a35050565b600073ffffffffffffffffffffffffffffffffffffffff82169050919050565b6000620001918262000164565b9050919050565b620001a38162000184565b82525050565b6000602082019050620001c0600083018462000198565b92915050565b614d7780620001d66000396000f3fe60806040526004361061012e5760003560e01c806382e6d638116100ab578063b6b55f251161006f578063b6b55f25146103e9578063c5bf44ab14610405578063c8b785f314610430578063d62b5c5914610459578063e6160fa314610484578063f2fde38b146104ad5761016e565b806382e6d63814610318578063873ceb2e146103415780638da5cb5b1461036a5780639532c8c314610395578063aba675b0146103c05761016e565b80633e512ebc116100f25780633e512ebc1461025657806356c4e4ba1461027f5780636061a460146102a8578063715018a6146102d85780637824c05c146102ef5761016e565b8063040cdd0a1461017357806313e862651461019c578063370603f8146101d95780633c973f75146102165780633ccfd60b1461023f5761016e565b3661016e577fe1fffcc4923d04b559f4d29a8bfc6cda04eb5b0d3c460751c2402c5c5cc9109c33346040516101649291906123bd565b60405180910390a1005b600080fd5b34801561017f57600080fd5b5061019a6004803603810190610195919061252b565b6104d6565b005b3480156101a857600080fd5b506101c360048036038101906101be9190612648565b6106e9565b6040516101d09190612a51565b60405180910390f35b3480156101e557600080fd5b5061020060048036038101906101fb9190612a73565b610acd565b60405161020d9190612df5565b60405180910390f35b34801561022257600080fd5b5061023d60048036038101906102389190612e37565b611098565b005b34801561024b57600080fd5b50610254611516565b005b34801561026257600080fd5b5061027d60048036038101906102789190612a73565b61165c565b005b34801561028b57600080fd5b506102a660048036038101906102a19190612ea6565b6116a5565b005b6102c260048036038101906102bd9190612f02565b611710565b6040516102cf9190612fc2565b60405180910390f35b3480156102e457600080fd5b506102ed61197c565b005b3480156102fb57600080fd5b5061031660048036038101906103119190612fdd565b611990565b005b34801561032457600080fd5b5061033f600480360381019061033a919061301d565b611a13565b005b34801561034d57600080fd5b5061036860048036038101906103639190612a73565b611a7e565b005b34801561037657600080fd5b5061037f611ac7565b60405161038c9190613079565b60405180910390f35b3480156103a157600080fd5b506103aa611af0565b6040516103b79190612fc2565b60405180910390f35b3480156103cc57600080fd5b506103e760048036038101906103e29190613094565b611afa565b005b61040360048036038101906103fe9190612a73565b611c54565b005b34801561041157600080fd5b5061041a611da9565b6040516104279190612fc2565b60405180910390f35b34801561043c57600080fd5b5061045760048036038101906104529190613094565b611db3565b005b34801561046557600080fd5b5061046e611e35565b60405161047b9190612fc2565b60405180910390f35b34801561049057600080fd5b506104ab60048036038101906104a691906130d4565b611e3f565b005b3480156104b957600080fd5b506104d460048036038101906104cf9190613140565b611eb5565b005b6104de611f3b565b6000600160008981526020019081526020016000209050868160000181816105069190613a99565b9050508581600501818161051a9190613e9f565b905050828160090160006101000a81548160ff0219169083600181111561054457610543612b3a565b5b02179055508060090160019054906101000a900460ff161580156105655750815b156105c35760018160090160016101000a81548160ff0219169083151502179055507fd5d88098de5ba30573f08926c4e6445cab93ce09d98c1147a64045608a50797f886040516105b69190612fc2565b60405180910390a161063a565b8060090160019054906101000a900460ff1680156105df575081155b156106395760008160090160016101000a81548160ff0219169083151502179055507f8da007fc61f3601008aa139c728ea9bf16672668b03c07f6c402ab74c034fc81886040516106309190612fc2565b60405180910390a15b5b80600801600061064a919061208e565b60005b858590508110156106a7578160080186868381811061066f5761066e613ead565b5b90506020020135908060018154018082558091505060019003906000526020600020016000909190919091505580600101905061064d565b507f887cc86755221db77fb9a404d4834a6ca76a28df7c71c7650318819ad0f46a3c886040516106d79190612fc2565b60405180910390a15050505050505050565b6106f16120af565b6002600084815260200190815260200160002060008381526020019081526020016000206040518061012001604052908160008201805461073190613277565b80601f016020809104026020016040519081016040528092919081815260200182805461075d90613277565b80156107aa5780601f1061077f576101008083540402835291602001916107aa565b820191906000526020600020905b81548152906001019060200180831161078d57829003601f168201915b5050505050815260200160018201805480602002602001604051908101604052809291908181526020016000905b828210156108845783829060005260206000200180546107f790613277565b80601f016020809104026020016040519081016040528092919081815260200182805461082390613277565b80156108705780601f1061084557610100808354040283529160200191610870565b820191906000526020600020905b81548152906001019060200180831161085357829003601f168201915b5050505050815260200190600101906107d8565b50505050815260200160028201805461089c90613277565b80601f01602080910402602001604051908101604052809291908181526020018280546108c890613277565b80156109155780601f106108ea57610100808354040283529160200191610915565b820191906000526020600020905b8154815290600101906020018083116108f857829003601f168201915b5050505050815260200160038201805480602002602001604051908101604052809291908181526020016000905b828210156109b5578382906000526020600020018054806020026020016040519081016040528092919081815260200182805480156109a157602002820191906000526020600020905b81548152602001906001019080831161098d575b505050505081526020019060010190610943565b505050508152602001600482015481526020016005820154815260200160068201805480602002602001604051908101604052809291908181526020018280548015610a2057602002820191906000526020600020905b815481526020019060010190808311610a0c575b5050505050815260200160078201548152602001600882018054610a4390613277565b80601f0160208091040260200160405190810160405280929190818152602001828054610a6f90613277565b8015610abc5780601f10610a9157610100808354040283529160200191610abc565b820191906000526020600020905b815481529060010190602001808311610a9f57829003601f168201915b505050505081525050905092915050565b610ad56120fe565b600160008381526020019081526020016000206040518060c0016040529081600082016040518060a0016040529081600082018054610b1390613277565b80601f0160208091040260200160405190810160405280929190818152602001828054610b3f90613277565b8015610b8c5780601f10610b6157610100808354040283529160200191610b8c565b820191906000526020600020905b815481529060010190602001808311610b6f57829003601f168201915b50505050508152602001600182018054610ba590613277565b80601f0160208091040260200160405190810160405280929190818152602001828054610bd190613277565b8015610c1e5780601f10610bf357610100808354040283529160200191610c1e565b820191906000526020600020905b815481529060010190602001808311610c0157829003601f168201915b50505050508152602001600282018054610c3790613277565b80601f0160208091040260200160405190810160405280929190818152602001828054610c6390613277565b8015610cb05780601f10610c8557610100808354040283529160200191610cb0565b820191906000526020600020905b815481529060010190602001808311610c9357829003601f168201915b5050505050815260200160038201805480602002602001604051908101604052809291908181526020016000905b82821015610d8a578382906000526020600020018054610cfd90613277565b80601f0160208091040260200160405190810160405280929190818152602001828054610d2990613277565b8015610d765780601f10610d4b57610100808354040283529160200191610d76565b820191906000526020600020905b815481529060010190602001808311610d5957829003601f168201915b505050505081526020019060010190610cde565b5050505081526020016004820160009054906101000a900460ff1615151515815250508152602001600582016040518060600160405290816000820160009054906101000a900460ff166005811115610de657610de5612b3a565b5b6005811115610df857610df7612b3a565b5b815260200160018201805480602002602001604051908101604052809291908181526020016000905b82821015610f3b5783829060005260206000209060020201604051806040016040529081600082018054610e5490613277565b80601f0160208091040260200160405190810160405280929190818152602001828054610e8090613277565b8015610ecd5780601f10610ea257610100808354040283529160200191610ecd565b820191906000526020600020905b815481529060010190602001808311610eb057829003601f168201915b505050505081526020016001820160009054906101000a900473ffffffffffffffffffffffffffffffffffffffff1673ffffffffffffffffffffffffffffffffffffffff1673ffffffffffffffffffffffffffffffffffffffff168152505081526020019060010190610e21565b505050508152602001600282018054610f5390613277565b80601f0160208091040260200160405190810160405280929190818152602001828054610f7f90613277565b8015610fcc5780601f10610fa157610100808354040283529160200191610fcc565b820191906000526020600020905b815481529060010190602001808311610faf57829003601f168201915b50505050508152505081526020016008820180548060200260200160405190810160405280929190818152602001828054801561102857602002820191906000526020600020905b815481526020019060010190808311611014575b505050505081526020016009820160009054906101000a900460ff16600181111561105657611055612b3a565b5b600181111561106857611067612b3a565b5b81526020016009820160019054906101000a900460ff16151515158152602001600a820154815250509050919050565b6110a0611f3b565b6001600084815260200190815260200160002060090160019054906101000a900460ff1615611104576040517f08c379a00000000000000000000000000000000000000000000000000000000081526004016110fb90613f39565b60405180910390fd5b60045460016000858152602001908152602001600020600a0154101561115f576040517f08c379a000000000000000000000000000000000000000000000000000000000815260040161115690613fcb565b60405180910390fd5b60045460016000858152602001908152602001600020600a0160008282546111879190613feb565b9250508190555060045460016000858152602001908152602001600020600a0154101561121457600180600085815260200190815260200160002060090160016101000a81548160ff0219169083151502179055507fd5d88098de5ba30573f08926c4e6445cab93ce09d98c1147a64045608a50797f8360405161120b9190612fc2565b60405180910390a15b61121c6120af565b81806000019061122c91906131ab565b8080601f016020809104026020016040519081016040528093929190818152602001838380828437600081840152601f19601f8201169050808301925050505050505081600001819052508180602001906112879190613534565b9061129291906141d3565b81602001819052508180604001906112aa91906131ab565b8080601f016020809104026020016040519081016040528093929190818152602001838380828437600081840152601f19601f82011690508083019250505050505050816040018190525081806060019061130591906141e8565b9061131091906143c1565b816060018190525081608001358160800181815250508160a001358160a0018181525050818060c0019061134491906143d6565b80806020026020016040519081016040528093929190818152602001838360200280828437600081840152601f19601f820116905080830192505050505050508160c001819052508160e001358160e0018181525050818061010001906113ab91906131ab565b8080601f016020809104026020016040519081016040528093929190818152602001838380828437600081840152601f19601f820116905080830192505050505050508161010001819052508060026000868152602001908152602001600020600085815260200190815260200160002060008201518160000190816114319190614439565b50602082015181600101908051906020019061144e929190612154565b5060408201518160020190816114649190614439565b5060608201518160030190805190602001906114819291906121ad565b506080820151816004015560a0820151816005015560c08201518160060190805190602001906114b292919061220d565b5060e082015181600701556101008201518160080190816114d39190614439565b509050507f77deb32519991dda7821b0b9367f9124aa3fd934f4845bcfd5dc6fa3f1922663848460405161150892919061451a565b60405180910390a150505050565b61151e611f3b565b600047905060008111611566576040517f08c379a000000000000000000000000000000000000000000000000000000000815260040161155d9061458f565b60405180910390fd5b6000611570611ac7565b905060008173ffffffffffffffffffffffffffffffffffffffff1683604051611598906145e0565b60006040518083038185875af1925050503d80600081146115d5576040519150601f19603f3d011682016040523d82523d6000602084013e6115da565b606091505b505090508061161e576040517f08c379a000000000000000000000000000000000000000000000000000000000815260040161161590614641565b60405180910390fd5b7fd964a27d45f595739c13d8b1160b57491050cacf3a2e5602207277d6228f64ee838360405161164f929190614682565b60405180910390a1505050565b611664611f3b565b806004819055507f0840c2296c4c97ecdc9b8dc544cd67f45a8d629b9d6109410530bb58b7f17b928160405161169a9190612fc2565b60405180910390a150565b6116ad611f3b565b806001600084815260200190815260200160002060050181816116d09190613e9f565b9050507ff768bb0dd5bd987cdbc2706c837263b29e7326b0651e4fe20c16372d24cc02ac828260405161170492919061496f565b60405180910390a15050565b600060018081111561172557611724612b3a565b5b82600181111561173857611737612b3a565b5b1415801561176b57506000600181111561175557611754612b3a565b5b82600181111561176857611767612b3a565b5b14155b156117a2576040517fec4d40f400000000000000000000000000000000000000000000000000000000815260040160405180910390fd5b6000600554905060035434146117f357600354346040517fce6b173b0000000000000000000000000000000000000000000000000000000081526004016117ea92919061499f565b60405180910390fd5b7fd6e9bd49f32ce5202a849c6ab581631b3e952257363b06975f32872e9e1656c9333483604051611826939291906149c8565b60405180910390a16000600160008381526020019081526020016000209050878160000181816118569190613a99565b9050508681600501818161186a9190613e9f565b905050838160090160006101000a81548160ff0219169083600181111561189457611893612b3a565b5b021790555060008160090160016101000a81548160ff0219169083151502179055503481600a018190555060005b8686905081101561191c57816008018787838181106118e4576118e3613ead565b5b9050602002013590806001815401808255809150506001900390600052602060002001600090919091909150558060010190506118c2565b5060056000815480929190611930906149ff565b91905055507f42c24a3323433819443a75d0e2651a9c84f696fba638d730042960045ef272418233604051611966929190614a47565b60405180910390a1819250505095945050505050565b611984611f3b565b61198e6000611fc2565b565b611998611f3b565b806001600084815260200190815260200160002060090160006101000a81548160ff021916908360018111156119d1576119d0612b3a565b5b02179055507feaeee81ca4b132c1f2699cf2e7f71c26adb6ffe780097ac7d6e9ddf978398b628282604051611a07929190614a7f565b60405180910390a15050565b611a1b611f3b565b80600160008481526020019081526020016000206000018181611a3e9190613a99565b9050507f440c55e385a61cd472c0cd76ee015cab9bd0760aef9634633e6597fdea583fd58282604051611a72929190614c76565b60405180910390a15050565b611a86611f3b565b806003819055507fac9c054628ba106d4664c2c08386354e161eab546a0a47faf040bfc1062845e781604051611abc9190612fc2565b60405180910390a150565b60008060009054906101000a900473ffffffffffffffffffffffffffffffffffffffff16905090565b6000600554905090565b611b02611f3b565b600060016000848152602001908152602001600020600801905060005b8180549050811015611c125782828281548110611b3f57611b3e613ead565b5b906000526020600020015403611c05578160018380549050611b619190613feb565b81548110611b7257611b71613ead565b5b9060005260206000200154828281548110611b9057611b8f613ead565b5b906000526020600020018190555081805480611baf57611bae614ca6565b5b600190038181906000526020600020016000905590557f2264fa092e5819982f4edca5b7e9c6318a16dc3e03673510429c078656dea45c8484604051611bf692919061499f565b60405180910390a15050611c50565b8080600101915050611b1f565b50816040517f84ce930a000000000000000000000000000000000000000000000000000000008152600401611c479190612fc2565b60405180910390fd5b5050565b60003403611c8e576040517f1f2a200500000000000000000000000000000000000000000000000000000000815260040160405180910390fd5b3460016000838152602001908152602001600020600a016000828254611cb49190614cd5565b925050819055506001600082815260200190815260200160002060090160019054906101000a900460ff1615611d6b5760045460016000838152602001908152602001600020600a015410611d6a5760006001600083815260200190815260200160002060090160016101000a81548160ff0219169083151502179055507f8da007fc61f3601008aa139c728ea9bf16672668b03c07f6c402ab74c034fc8181604051611d619190612fc2565b60405180910390a15b5b7fd6e9bd49f32ce5202a849c6ab581631b3e952257363b06975f32872e9e1656c9333483604051611d9e939291906149c8565b60405180910390a150565b6000600354905090565b611dbb611f3b565b600160008381526020019081526020016000206008018190806001815401808255809150506001900390600052602060002001600090919091909150557ffcdfd5aeb97f499ca134ed43f010f2a4f5b0ab73d317ac27246a066a050a73af8282604051611e2992919061499f565b60405180910390a15050565b6000600454905090565b611e47611f3b565b806001600084815260200190815260200160002060000160040160006101000a81548160ff0219169083151502179055507fed2f2c7a2316ddc2f46a4581250611f807810052bb38bef2fbd1a81d087e064b8282604051611ea9929190614d18565b60405180910390a15050565b611ebd611f3b565b600073ffffffffffffffffffffffffffffffffffffffff168173ffffffffffffffffffffffffffffffffffffffff1603611f2f5760006040517f1e4fbdf7000000000000000000000000000000000000000000000000000000008152600401611f269190613079565b60405180910390fd5b611f3881611fc2565b50565b611f43612086565b73ffffffffffffffffffffffffffffffffffffffff16611f61611ac7565b73ffffffffffffffffffffffffffffffffffffffff1614611fc057611f84612086565b6040517f118cdaa7000000000000000000000000000000000000000000000000000000008152600401611fb79190613079565b60405180910390fd5b565b60008060009054906101000a900473ffffffffffffffffffffffffffffffffffffffff169050816000806101000a81548173ffffffffffffffffffffffffffffffffffffffff021916908373ffffffffffffffffffffffffffffffffffffffff1602179055508173ffffffffffffffffffffffffffffffffffffffff168173ffffffffffffffffffffffffffffffffffffffff167f8be0079c531659141344cd1fd0a4f28419497f9722a3daafe3b4186f6b6457e060405160405180910390a35050565b600033905090565b50805460008255906000526020600020908101906120ac919061225a565b50565b6040518061012001604052806060815260200160608152602001606081526020016060815260200160008152602001600081526020016060815260200160008019168152602001606081525090565b6040518060c00160405280612111612277565b815260200161211e6122a8565b8152602001606081526020016000600181111561213e5761213d612b3a565b5b8152602001600015158152602001600081525090565b82805482825590600052602060002090810192821561219c579160200282015b8281111561219b57825182908161218b9190614439565b5091602001919060010190612174565b5b5090506121a991906122db565b5090565b8280548282559060005260206000209081019282156121fc579160200282015b828111156121fb5782518290805190602001906121eb92919061220d565b50916020019190600101906121cd565b5b50905061220991906122ff565b5090565b828054828255906000526020600020908101928215612249579160200282015b8281111561224857825182559160200191906001019061222d565b5b509050612256919061225a565b5090565b5b8082111561227357600081600090555060010161225b565b5090565b6040518060a00160405280606081526020016060815260200160608152602001606081526020016000151581525090565b6040518060600160405280600060058111156122c7576122c6612b3a565b5b815260200160608152602001606081525090565b5b808211156122fb57600081816122f29190612323565b506001016122dc565b5090565b5b8082111561231f5760008181612316919061208e565b50600101612300565b5090565b50805461232f90613277565b6000825580601f106123415750612360565b601f01602090049060005260206000209081019061235f919061225a565b5b50565b600073ffffffffffffffffffffffffffffffffffffffff82169050919050565b600061238e82612363565b9050919050565b61239e81612383565b82525050565b6000819050919050565b6123b7816123a4565b82525050565b60006040820190506123d26000830185612395565b6123df60208301846123ae565b9392505050565b6000604051905090565b600080fd5b600080fd5b612403816123a4565b811461240e57600080fd5b50565b600081359050612420816123fa565b92915050565b600080fd5b600060a0828403121561244157612440612426565b5b81905092915050565b6000606082840312156124605761245f612426565b5b81905092915050565b600080fd5b600080fd5b600080fd5b60008083601f84011261248e5761248d612469565b5b8235905067ffffffffffffffff8111156124ab576124aa61246e565b5b6020830191508360208202830111156124c7576124c6612473565b5b9250929050565b600281106124db57600080fd5b50565b6000813590506124ed816124ce565b92915050565b60008115159050919050565b612508816124f3565b811461251357600080fd5b50565b600081359050612525816124ff565b92915050565b600080600080600080600060c0888a03121561254a576125496123f0565b5b60006125588a828b01612411565b975050602088013567ffffffffffffffff811115612579576125786123f5565b5b6125858a828b0161242b565b965050604088013567ffffffffffffffff8111156125a6576125a56123f5565b5b6125b28a828b0161244a565b955050606088013567ffffffffffffffff8111156125d3576125d26123f5565b5b6125df8a828b01612478565b945094505060806125f28a828b016124de565b92505060a06126038a828b01612516565b91505092959891949750929550565b6000819050919050565b61262581612612565b811461263057600080fd5b50565b6000813590506126428161261c565b92915050565b6000806040838503121561265f5761265e6123f0565b5b600061266d85828601612411565b925050602061267e85828601612633565b9150509250929050565b600081519050919050565b600082825260208201905092915050565b60005b838110156126c25780820151818401526020810190506126a7565b60008484015250505050565b6000601f19601f8301169050919050565b60006126ea82612688565b6126f48185612693565b93506127048185602086016126a4565b61270d816126ce565b840191505092915050565b600081519050919050565b600082825260208201905092915050565b6000819050602082019050919050565b600061275083836126df565b905092915050565b6000602082019050919050565b600061277082612718565b61277a8185612723565b93508360208202850161278c85612734565b8060005b858110156127c857848403895281516127a98582612744565b94506127b483612758565b925060208a01995050600181019050612790565b50829750879550505050505092915050565b600081519050919050565b600082825260208201905092915050565b6000819050602082019050919050565b600081519050919050565b600082825260208201905092915050565b6000819050602082019050919050565b61283b816123a4565b82525050565b600061284d8383612832565b60208301905092915050565b6000602082019050919050565b600061287182612806565b61287b8185612811565b935061288683612822565b8060005b838110156128b757815161289e8882612841565b97506128a983612859565b92505060018101905061288a565b5085935050505092915050565b60006128d08383612866565b905092915050565b6000602082019050919050565b60006128f0826127da565b6128fa81856127e5565b93508360208202850161290c856127f6565b8060005b85811015612948578484038952815161292985826128c4565b9450612934836128d8565b925060208a01995050600181019050612910565b50829750879550505050505092915050565b61296381612612565b82525050565b600061012083016000830151848203600086015261298782826126df565b915050602083015184820360208601526129a18282612765565b915050604083015184820360408601526129bb82826126df565b915050606083015184820360608601526129d582826128e5565b91505060808301516129ea6080860182612832565b5060a08301516129fd60a0860182612832565b5060c083015184820360c0860152612a158282612866565b91505060e0830151612a2a60e086018261295a565b50610100830151848203610100860152612a4482826126df565b9150508091505092915050565b60006020820190508181036000830152612a6b8184612969565b905092915050565b600060208284031215612a8957612a886123f0565b5b6000612a9784828501612411565b91505092915050565b612aa9816124f3565b82525050565b600060a0830160008301518482036000860152612acc82826126df565b91505060208301518482036020860152612ae682826126df565b91505060408301518482036040860152612b0082826126df565b91505060608301518482036060860152612b1a8282612765565b9150506080830151612b2f6080860182612aa0565b508091505092915050565b7f4e487b7100000000000000000000000000000000000000000000000000000000600052602160045260246000fd5b60068110612b7a57612b79612b3a565b5b50565b6000819050612b8b82612b69565b919050565b6000612b9b82612b7d565b9050919050565b612bab81612b90565b82525050565b600081519050919050565b600082825260208201905092915050565b6000819050602082019050919050565b612be681612383565b82525050565b60006040830160008301518482036000860152612c0982826126df565b9150506020830151612c1e6020860182612bdd565b508091505092915050565b6000612c358383612bec565b905092915050565b6000602082019050919050565b6000612c5582612bb1565b612c5f8185612bbc565b935083602082028501612c7185612bcd565b8060005b85811015612cad5784840389528151612c8e8582612c29565b9450612c9983612c3d565b925060208a01995050600181019050612c75565b50829750879550505050505092915050565b6000606083016000830151612cd76000860182612ba2565b5060208301518482036020860152612cef8282612c4a565b91505060408301518482036040860152612d0982826126df565b9150508091505092915050565b60028110612d2757612d26612b3a565b5b50565b6000819050612d3882612d16565b919050565b6000612d4882612d2a565b9050919050565b612d5881612d3d565b82525050565b600060c0830160008301518482036000860152612d7b8282612aaf565b91505060208301518482036020860152612d958282612cbf565b91505060408301518482036040860152612daf8282612866565b9150506060830151612dc46060860182612d4f565b506080830151612dd76080860182612aa0565b5060a0830151612dea60a0860182612832565b508091505092915050565b60006020820190508181036000830152612e0f8184612d5e565b905092915050565b60006101208284031215612e2e57612e2d612426565b5b81905092915050565b600080600060608486031215612e5057612e4f6123f0565b5b6000612e5e86828701612411565b9350506020612e6f86828701612633565b925050604084013567ffffffffffffffff811115612e9057612e8f6123f5565b5b612e9c86828701612e17565b9150509250925092565b60008060408385031215612ebd57612ebc6123f0565b5b6000612ecb85828601612411565b925050602083013567ffffffffffffffff811115612eec57612eeb6123f5565b5b612ef88582860161244a565b9150509250929050565b600080600080600060808688031215612f1e57612f1d6123f0565b5b600086013567ffffffffffffffff811115612f3c57612f3b6123f5565b5b612f488882890161242b565b955050602086013567ffffffffffffffff811115612f6957612f686123f5565b5b612f758882890161244a565b945050604086013567ffffffffffffffff811115612f9657612f956123f5565b5b612fa288828901612478565b93509350506060612fb5888289016124de565b9150509295509295909350565b6000602082019050612fd760008301846123ae565b92915050565b60008060408385031215612ff457612ff36123f0565b5b600061300285828601612411565b9250506020613013858286016124de565b9150509250929050565b60008060408385031215613034576130336123f0565b5b600061304285828601612411565b925050602083013567ffffffffffffffff811115613063576130626123f5565b5b61306f8582860161242b565b9150509250929050565b600060208201905061308e6000830184612395565b92915050565b600080604083850312156130ab576130aa6123f0565b5b60006130b985828601612411565b92505060206130ca85828601612411565b9150509250929050565b600080604083850312156130eb576130ea6123f0565b5b60006130f985828601612411565b925050602061310a85828601612516565b9150509250929050565b61311d81612383565b811461312857600080fd5b50565b60008135905061313a81613114565b92915050565b600060208284031215613156576131556123f0565b5b60006131648482850161312b565b91505092915050565b7f4e487b7100000000000000000000000000000000000000000000000000000000600052600060045260246000fd5b600080fd5b600080fd5b600080fd5b600080833560016020038436030381126131c8576131c761319c565b5b80840192508235915067ffffffffffffffff8211156131ea576131e96131a1565b5b602083019250600182023603831315613206576132056131a6565b5b509250929050565b600082905092915050565b7f4e487b7100000000000000000000000000000000000000000000000000000000600052604160045260246000fd5b7f4e487b7100000000000000000000000000000000000000000000000000000000600052602260045260246000fd5b6000600282049050600182168061328f57607f821691505b6020821081036132a2576132a1613248565b5b50919050565b60008190508160005260206000209050919050565b60006020601f8301049050919050565b600082821b905092915050565b60006008830261330a7fffffffffffffffffffffffffffffffffffffffffffffffffffffffffffffffff826132cd565b61331486836132cd565b95508019841693508086168417925050509392505050565b6000819050919050565b600061335161334c613347846123a4565b61332c565b6123a4565b9050919050565b6000819050919050565b61336b83613336565b61337f61337782613358565b8484546132da565b825550505050565b600090565b613394613387565b61339f818484613362565b505050565b5b818110156133c3576133b860008261338c565b6001810190506133a5565b5050565b601f821115613408576133d9816132a8565b6133e2846132bd565b810160208510156133f1578190505b6134056133fd856132bd565b8301826133a4565b50505b505050565b600082821c905092915050565b600061342b6000198460080261340d565b1980831691505092915050565b6000613444838361341a565b9150826002028217905092915050565b61345e838361320e565b67ffffffffffffffff81111561347757613476613219565b5b6134818254613277565b61348c8282856133c7565b6000601f8311600181146134bb57600084156134a9578287013590505b6134b38582613438565b86555061351b565b601f1984166134c9866132a8565b60005b828110156134f1578489013582556001820191506020850194506020810190506134cc565b8683101561350e578489013561350a601f89168261341a565b8355505b6001600288020188555050505b50505050505050565b61352f838383613454565b505050565b600080833560016020038436030381126135515761355061319c565b5b80840192508235915067ffffffffffffffff821115613573576135726131a1565b5b60208301925060208202360383131561358f5761358e6131a6565b5b509250929050565b6000819050919050565b600081549050919050565b7f4e487b7100000000000000000000000000000000000000000000000000000000600052601160045260246000fd5b60006135e6826123a4565b91506135f1836123a4565b92508282026135ff816123a4565b91508282048414831517613616576136156135ac565b5b5092915050565b60008190506001806001038301049050919050565b60008190508160005260206000209050919050565b6136777fffffffffffffffffffffffffffffffffffffffffffffffffffffffffffffffff8360200360080261340d565b815481168255505050565b61368b816132a8565b613696838254613438565b8083556000825550505050565b60208410600081146136fe57601f8411600181146136cc576136c58685613438565b83556136f8565b6136d5836132a8565b6136ec6136e1876132bd565b8201600183016133a4565b6136f68785613682565b505b5061374b565b613707826132a8565b613710866132bd565b8101601f8716801561372a576137298160018403613647565b5b61373e613736886132bd565b8401836133a4565b6001886002021785555050505b5050505050565b6801000000000000000084111561376c5761376b613219565b5b60208310600081146137b75760208510600081146137955761378e8685613438565b83556137b1565b8360ff19169350836137a6846132a8565b556001866002020183555b506137c1565b6001856002020182555b5050505050565b80546137d381613277565b808411156137e8576137e784828486613752565b5b808410156137fd576137fc848284866136a3565b5b50505050565b818110156138215761381660008261338c565b600181019050613803565b5050565b6138306000826137c8565b50565b600082146138445761384361316d565b5b61384d81613825565b5050565b5b8181101561387057613865600082613833565b600181019050613852565b5050565b818310156138ad576138858261361d565b61388e8461361d565b61389783613632565b8181018382016138a78183613851565b50505050505b505050565b680100000000000000008211156138cc576138cb613219565b5b6138d5816135a1565b8282556138e3838284613874565b505050565b600082905092915050565b6138fd83836138e8565b61390781836138b2565b61391083613597565b61391983613632565b60005b838110156139525761392e83876131ab565b613939818386613524565b602085019450600184019350505060018101905061391c565b50505050505050565b6139668383836138f3565b505050565b60008135613978816124ff565b80915050919050565b60008160001b9050919050565b600060ff61399b84613981565b9350801983169250808416831791505092915050565b60006139bc826124f3565b9050919050565b6000819050919050565b6139d6826139b1565b6139e96139e2826139c3565b835461398e565b8255505050565b6000810160008301613a0281856131ab565b613a0d818386613524565b505050506001810160208301613a2381856131ab565b613a2e818386613524565b505050506002810160408301613a4481856131ab565b613a4f818386613524565b505050506003810160608301613a658185613534565b613a7081838661395b565b50505050600481016080830180613a868161396b565b9050613a9281846139cd565b5050505050565b613aa382826139f0565b5050565b60068110613ab457600080fd5b50565b60008135613ac481613aa7565b80915050919050565b6000613ad882612b7d565b9050919050565b6000819050919050565b613af282613acd565b613b05613afe82613adf565b835461398e565b8255505050565b60008083356001602003843603038112613b2957613b2861319c565b5b80840192508235915067ffffffffffffffff821115613b4b57613b4a6131a1565b5b602083019250602082023603831315613b6757613b666131a6565b5b509250929050565b6000819050919050565b600082356001604003833603038112613b9557613b9461319c565b5b80830191505092915050565b600081549050919050565b6000819050613bbc8260026135db565b9050919050565b60008190508160005260206000209050919050565b613be56000808301613833565b6000600182015550565b60008214613c0057613bff61316d565b5b613c0981613bd8565b5050565b5b81811015613c2c57613c21600082613bef565b600281019050613c0e565b5050565b81831015613c6957613c4182613bac565b613c4a84613bac565b613c5383613bc3565b818101838201613c638183613c0d565b50505050505b505050565b68010000000000000000821115613c8857613c87613219565b5b613c9181613ba1565b828255613c9f838284613c30565b505050565b600082905092915050565b60008135613cbc81613114565b80915050919050565b600073ffffffffffffffffffffffffffffffffffffffff613ce584613981565b9350801983169250808416831791505092915050565b6000613d16613d11613d0c84612363565b61332c565b612363565b9050919050565b6000613d2882613cfb565b9050919050565b6000613d3a82613d1d565b9050919050565b6000819050919050565b613d5482613d2f565b613d67613d6082613d41565b8354613cc5565b8255505050565b6000810160008301613d8081856131ab565b613d8b818386613524565b50505050600181016020830180613da181613caf565b9050613dad8184613d4b565b5050505050565b613dbe8282613d6e565b5050565b613dcc8383613ca4565b613dd68183613c6e565b613ddf83613b6f565b613de883613bc3565b60005b83811015613e1f57613dfd8387613b79565b613e078184613db4565b60208401935060028301925050600181019050613deb565b50505050505050565b613e33838383613dc2565b505050565b600081016000830180613e4a81613ab7565b9050613e568184613ae9565b5050506001810160208301613e6b8185613b0c565b613e76818386613e28565b505050506002810160408301613e8c81856131ab565b613e97818386613524565b505050505050565b613ea98282613e38565b5050565b7f4e487b7100000000000000000000000000000000000000000000000000000000600052603260045260246000fd5b600082825260208201905092915050565b7f436f6d6d756e6974792069732064697361626c65640000000000000000000000600082015250565b6000613f23601583613edc565b9150613f2e82613eed565b602082019050919050565b60006020820190508181036000830152613f5281613f16565b9050919050565b7f496e73756666696369656e742066756e647320666f722074686973206f70657260008201527f6174696f6e000000000000000000000000000000000000000000000000000000602082015250565b6000613fb5602583613edc565b9150613fc082613f59565b604082019050919050565b60006020820190508181036000830152613fe481613fa8565b9050919050565b6000613ff6826123a4565b9150614001836123a4565b9250828203905081811115614019576140186135ac565b5b92915050565b614028826126ce565b810181811067ffffffffffffffff8211171561404757614046613219565b5b80604052505050565b600061405a6123e6565b9050614066828261401f565b919050565b600067ffffffffffffffff82111561408657614085613219565b5b602082029050602081019050919050565b600080fd5b600067ffffffffffffffff8211156140b7576140b6613219565b5b6140c0826126ce565b9050602081019050919050565b82818337600083830152505050565b60006140ef6140ea8461409c565b614050565b90508281526020810184848401111561410b5761410a614097565b5b6141168482856140cd565b509392505050565b600082601f83011261413357614132612469565b5b81356141438482602086016140dc565b91505092915050565b600061415f61415a8461406b565b614050565b9050808382526020820190506020840283018581111561418257614181612473565b5b835b818110156141c957803567ffffffffffffffff8111156141a7576141a6612469565b5b8086016141b4898261411e565b85526020850194505050602081019050614184565b5050509392505050565b60006141e036848461414c565b905092915050565b600080833560016020038436030381126142055761420461319c565b5b80840192508235915067ffffffffffffffff821115614227576142266131a1565b5b602083019250602082023603831315614243576142426131a6565b5b509250929050565b600067ffffffffffffffff82111561426657614265613219565b5b602082029050602081019050919050565b600067ffffffffffffffff82111561429257614291613219565b5b602082029050602081019050919050565b60006142b66142b184614277565b614050565b905080838252602082019050602084028301858111156142d9576142d8612473565b5b835b8181101561430257806142ee8882612411565b8452602084019350506020810190506142db565b5050509392505050565b600082601f83011261432157614320612469565b5b81356143318482602086016142a3565b91505092915050565b600061434d6143488461424b565b614050565b905080838252602082019050602084028301858111156143705761436f612473565b5b835b818110156143b757803567ffffffffffffffff81111561439557614394612469565b5b8086016143a2898261430c565b85526020850194505050602081019050614372565b5050509392505050565b60006143ce36848461433a565b905092915050565b600080833560016020038436030381126143f3576143f261319c565b5b80840192508235915067ffffffffffffffff821115614415576144146131a1565b5b602083019250602082023603831315614431576144306131a6565b5b509250929050565b61444282612688565b67ffffffffffffffff81111561445b5761445a613219565b5b6144658254613277565b6144708282856133c7565b600060209050601f8311600181146144a35760008415614491578287015190505b61449b8582613438565b865550614503565b601f1984166144b1866132a8565b60005b828110156144d9578489015182556001820191506020850194506020810190506144b4565b868310156144f657848901516144f2601f89168261341a565b8355505b6001600288020188555050505b505050505050565b61451481612612565b82525050565b600060408201905061452f60008301856123ae565b61453c602083018461450b565b9392505050565b7f4e6f2066756e647320617661696c61626c650000000000000000000000000000600082015250565b6000614579601283613edc565b915061458482614543565b602082019050919050565b600060208201905081810360008301526145a88161456c565b9050919050565b600081905092915050565b50565b60006145ca6000836145af565b91506145d5826145ba565b600082019050919050565b60006145eb826145bd565b9150819050919050565b7f4661696c656420746f2073656e64204574686572000000000000000000000000600082015250565b600061462b601483613edc565b9150614636826145f5565b602082019050919050565b6000602082019050818103600083015261465a8161461e565b9050919050565b600061466c82613d1d565b9050919050565b61467c81614661565b82525050565b600060408201905061469760008301856123ae565b6146a46020830184614673565b9392505050565b6000813590506146ba81613aa7565b92915050565b60006146cf60208401846146ab565b905092915050565b600080fd5b600080fd5b600080fd5b60008083356001602003843603038112614703576147026146e1565b5b83810192508235915060208301925067ffffffffffffffff82111561472b5761472a6146d7565b5b602082023603831315614741576147406146dc565b5b509250929050565b60008083356001602003843603038112614766576147656146e1565b5b83810192508235915060208301925067ffffffffffffffff82111561478e5761478d6146d7565b5b6001820236038313156147a4576147a36146dc565b5b509250929050565b60006147b88385612693565b93506147c58385846140cd565b6147ce836126ce565b840190509392505050565b60006147e8602084018461312b565b905092915050565b6000604083016148036000840184614749565b85830360008701526148168382846147ac565b9250505061482760208401846147d9565b6148346020860182612bdd565b508091505092915050565b600061484b83836147f0565b905092915050565b60008235600160400383360303811261486f5761486e6146e1565b5b82810191505092915050565b6000602082019050919050565b60006148948385612bbc565b9350836020840285016148a684613b6f565b8060005b878110156148ea5784840389526148c18284614853565b6148cb858261483f565b94506148d68361487b565b925060208a019950506001810190506148aa565b50829750879450505050509392505050565b60006060830161490f60008401846146c0565b61491c6000860182612ba2565b5061492a60208401846146e6565b858303602087015261493d838284614888565b9250505061494e6040840184614749565b85830360408701526149618382846147ac565b925050508091505092915050565b600060408201905061498460008301856123ae565b818103602083015261499681846148fc565b90509392505050565b60006040820190506149b460008301856123ae565b6149c160208301846123ae565b9392505050565b60006060820190506149dd6000830186612395565b6149ea60208301856123ae565b6149f760408301846123ae565b949350505050565b6000614a0a826123a4565b91507fffffffffffffffffffffffffffffffffffffffffffffffffffffffffffffffff8203614a3c57614a3b6135ac565b5b600182019050919050565b6000604082019050614a5c60008301856123ae565b614a696020830184612395565b9392505050565b614a7981612d3d565b82525050565b6000604082019050614a9460008301856123ae565b614aa16020830184614a70565b9392505050565b60008083356001602003843603038112614ac557614ac46146e1565b5b83810192508235915060208301925067ffffffffffffffff821115614aed57614aec6146d7565b5b602082023603831315614b0357614b026146dc565b5b509250929050565b6000614b188484846147ac565b90509392505050565b6000602082019050919050565b6000614b3a8385612723565b935083602084028501614b4c84613597565b8060005b87811015614b92578484038952614b678284614749565b614b72868284614b0b565b9550614b7d84614b21565b935060208b019a505050600181019050614b50565b50829750879450505050509392505050565b6000614bb36020840184612516565b905092915050565b600060a08301614bce6000840184614749565b8583036000870152614be18382846147ac565b92505050614bf26020840184614749565b8583036020870152614c058382846147ac565b92505050614c166040840184614749565b8583036040870152614c298382846147ac565b92505050614c3a6060840184614aa8565b8583036060870152614c4d838284614b2e565b92505050614c5e6080840184614ba4565b614c6b6080860182612aa0565b508091505092915050565b6000604082019050614c8b60008301856123ae565b8181036020830152614c9d8184614bbb565b90509392505050565b7f4e487b7100000000000000000000000000000000000000000000000000000000600052603160045260246000fd5b6000614ce0826123a4565b9150614ceb836123a4565b9250828201905080821115614d0357614d026135ac565b5b92915050565b614d12816124f3565b82525050565b6000604082019050614d2d60008301856123ae565b614d3a6020830184614d09565b939250505056fea2646970667358221220ebf38feaa69dc5325af18fbe401f02ea4bc45e26751ab5e8de32811746935c8764736f6c63430008180033","opcodes":"PUSH1 0x80 PUSH1 0x40 MSTORE CALLVALUE DUP1 ISZERO PUSH3 0x11 JUMPI PUSH1 0x0 DUP1 REVERT JUMPDEST POP CALLER PUSH1 0x0 PUSH20 0xFFFFFFFFFFFFFFFFFFFFFFFFFFFFFFFFFFFFFFFF AND DUP2 PUSH20 0xFFFFFFFFFFFFFFFFFFFFFFFFFFFFFFFFFFFFFFFF AND SUB PUSH3 0x88 JUMPI PUSH1 0x0 PUSH1 0x40 MLOAD PUSH32 0x1E4FBDF700000000000000000000000000000000000000000000000000000000 DUP2 MSTORE PUSH1 0x4 ADD PUSH3 0x7F SWAP2 SWAP1 PUSH3 0x1A9 JUMP JUMPDEST PUSH1 0x40 MLOAD DUP1 SWAP2 SUB SWAP1 REVERT JUMPDEST PUSH3 0x99 DUP2 PUSH3 0xA0 PUSH1 0x20 SHL PUSH1 0x20 SHR JUMP JUMPDEST POP PUSH3 0x1C6 JUMP JUMPDEST PUSH1 0x0 DUP1 PUSH1 0x0 SWAP1 SLOAD SWAP1 PUSH2 0x100 EXP SWAP1 DIV PUSH20 0xFFFFFFFFFFFFFFFFFFFFFFFFFFFFFFFFFFFFFFFF AND SWAP1 POP DUP2 PUSH1 0x0 DUP1 PUSH2 0x100 EXP DUP2 SLOAD DUP2 PUSH20 0xFFFFFFFFFFFFFFFFFFFFFFFFFFFFFFFFFFFFFFFF MUL NOT AND SWAP1 DUP4 PUSH20 0xFFFFFFFFFFFFFFFFFFFFFFFFFFFFFFFFFFFFFFFF AND MUL OR SWAP1 SSTORE POP DUP2 PUSH20 0xFFFFFFFFFFFFFFFFFFFFFFFFFFFFFFFFFFFFFFFF AND DUP2 PUSH20 0xFFFFFFFFFFFFFFFFFFFFFFFFFFFFFFFFFFFFFFFF AND PUSH32 0x8BE0079C531659141344CD1FD0A4F28419497F9722A3DAAFE3B4186F6B6457E0 PUSH1 0x40 MLOAD PUSH1 0x40 MLOAD DUP1 SWAP2 SUB SWAP1 LOG3 POP POP JUMP JUMPDEST PUSH1 0x0 PUSH20 0xFFFFFFFFFFFFFFFFFFFFFFFFFFFFFFFFFFFFFFFF DUP3 AND SWAP1 POP SWAP2 SWAP1 POP JUMP JUMPDEST PUSH1 0x0 PUSH3 0x191 DUP3 PUSH3 0x164 JUMP JUMPDEST SWAP1 POP SWAP2 SWAP1 POP JUMP JUMPDEST PUSH3 0x1A3 DUP2 PUSH3 0x184 JUMP JUMPDEST DUP3 MSTORE POP POP JUMP JUMPDEST PUSH1 0x0 PUSH1 0x20 DUP3 ADD SWAP1 POP PUSH3 0x1C0 PUSH1 0x0 DUP4 ADD DUP5 PUSH3 0x198 JUMP JUMPDEST SWAP3 SWAP2 POP POP JUMP JUMPDEST PUSH2 0x4D77 DUP1 PUSH3 0x1D6 PUSH1 0x0 CODECOPY PUSH1 0x0 RETURN INVALID PUSH1 0x80 PUSH1 0x40 MSTORE PUSH1 0x4 CALLDATASIZE LT PUSH2 0x12E JUMPI PUSH1 0x0 CALLDATALOAD PUSH1 0xE0 SHR DUP1 PUSH4 0x82E6D638 GT PUSH2 0xAB JUMPI DUP1 PUSH4 0xB6B55F25 GT PUSH2 0x6F JUMPI DUP1 PUSH4 0xB6B55F25 EQ PUSH2 0x3E9 JUMPI DUP1 PUSH4 0xC5BF44AB EQ PUSH2 0x405 JUMPI DUP1 PUSH4 0xC8B785F3 EQ PUSH2 0x430 JUMPI DUP1 PUSH4 0xD62B5C59 EQ PUSH2 0x459 JUMPI DUP1 PUSH4 0xE6160FA3 EQ PUSH2 0x484 JUMPI DUP1 PUSH4 0xF2FDE38B EQ PUSH2 0x4AD JUMPI PUSH2 0x16E JUMP JUMPDEST DUP1 PUSH4 0x82E6D638 EQ PUSH2 0x318 JUMPI DUP1 PUSH4 0x873CEB2E EQ PUSH2 0x341 JUMPI DUP1 PUSH4 0x8DA5CB5B EQ PUSH2 0x36A JUMPI DUP1 PUSH4 0x9532C8C3 EQ PUSH2 0x395 JUMPI DUP1 PUSH4 0xABA675B0 EQ PUSH2 0x3C0 JUMPI PUSH2 0x16E JUMP JUMPDEST DUP1 PUSH4 0x3E512EBC GT PUSH2 0xF2 JUMPI DUP1 PUSH4 0x3E512EBC EQ PUSH2 0x256 JUMPI DUP1 PUSH4 0x56C4E4BA EQ PUSH2 0x27F JUMPI DUP1 PUSH4 0x6061A460 EQ PUSH2 0x2A8 JUMPI DUP1 PUSH4 0x715018A6 EQ PUSH2 0x2D8 JUMPI DUP1 PUSH4 0x7824C05C EQ PUSH2 0x2EF JUMPI PUSH2 0x16E JUMP JUMPDEST DUP1 PUSH4 0x40CDD0A EQ PUSH2 0x173 JUMPI DUP1 PUSH4 0x13E86265 EQ PUSH2 0x19C JUMPI DUP1 PUSH4 0x370603F8 EQ PUSH2 0x1D9 JUMPI DUP1 PUSH4 0x3C973F75 EQ PUSH2 0x216 JUMPI DUP1 PUSH4 0x3CCFD60B EQ PUSH2 0x23F JUMPI PUSH2 0x16E JUMP JUMPDEST CALLDATASIZE PUSH2 0x16E JUMPI PUSH32 0xE1FFFCC4923D04B559F4D29A8BFC6CDA04EB5B0D3C460751C2402C5C5CC9109C CALLER CALLVALUE PUSH1 0x40 MLOAD PUSH2 0x164 SWAP3 SWAP2 SWAP1 PUSH2 0x23BD JUMP JUMPDEST PUSH1 0x40 MLOAD DUP1 SWAP2 SUB SWAP1 LOG1 STOP JUMPDEST PUSH1 0x0 DUP1 REVERT JUMPDEST CALLVALUE DUP1 ISZERO PUSH2 0x17F JUMPI PUSH1 0x0 DUP1 REVERT JUMPDEST POP PUSH2 0x19A PUSH1 0x4 DUP1 CALLDATASIZE SUB DUP2 ADD SWAP1 PUSH2 0x195 SWAP2 SWAP1 PUSH2 0x252B JUMP JUMPDEST PUSH2 0x4D6 JUMP JUMPDEST STOP JUMPDEST CALLVALUE DUP1 ISZERO PUSH2 0x1A8 JUMPI PUSH1 0x0 DUP1 REVERT JUMPDEST POP PUSH2 0x1C3 PUSH1 0x4 DUP1 CALLDATASIZE SUB DUP2 ADD SWAP1 PUSH2 0x1BE SWAP2 SWAP1 PUSH2 0x2648 JUMP JUMPDEST PUSH2 0x6E9 JUMP JUMPDEST PUSH1 0x40 MLOAD PUSH2 0x1D0 SWAP2 SWAP1 PUSH2 0x2A51 JUMP JUMPDEST PUSH1 0x40 MLOAD DUP1 SWAP2 SUB SWAP1 RETURN JUMPDEST CALLVALUE DUP1 ISZERO PUSH2 0x1E5 JUMPI PUSH1 0x0 DUP1 REVERT JUMPDEST POP PUSH2 0x200 PUSH1 0x4 DUP1 CALLDATASIZE SUB DUP2 ADD SWAP1 PUSH2 0x1FB SWAP2 SWAP1 PUSH2 0x2A73 JUMP JUMPDEST PUSH2 0xACD JUMP JUMPDEST PUSH1 0x40 MLOAD PUSH2 0x20D SWAP2 SWAP1 PUSH2 0x2DF5 JUMP JUMPDEST PUSH1 0x40 MLOAD DUP1 SWAP2 SUB SWAP1 RETURN JUMPDEST CALLVALUE DUP1 ISZERO PUSH2 0x222 JUMPI PUSH1 0x0 DUP1 REVERT JUMPDEST POP PUSH2 0x23D PUSH1 0x4 DUP1 CALLDATASIZE SUB DUP2 ADD SWAP1 PUSH2 0x238 SWAP2 SWAP1 PUSH2 0x2E37 JUMP JUMPDEST PUSH2 0x1098 JUMP JUMPDEST STOP JUMPDEST CALLVALUE DUP1 ISZERO PUSH2 0x24B JUMPI PUSH1 0x0 DUP1 REVERT JUMPDEST POP PUSH2 0x254 PUSH2 0x1516 JUMP JUMPDEST STOP JUMPDEST CALLVALUE DUP1 ISZERO PUSH2 0x262 JUMPI PUSH1 0x0 DUP1 REVERT JUMPDEST POP PUSH2 0x27D PUSH1 0x4 DUP1 CALLDATASIZE SUB DUP2 ADD SWAP1 PUSH2 0x278 SWAP2 SWAP1 PUSH2 0x2A73 JUMP JUMPDEST PUSH2 0x165C JUMP JUMPDEST STOP JUMPDEST CALLVALUE DUP1 ISZERO PUSH2 0x28B JUMPI PUSH1 0x0 DUP1 REVERT JUMPDEST POP PUSH2 0x2A6 PUSH1 0x4 DUP1 CALLDATASIZE SUB DUP2 ADD SWAP1 PUSH2 0x2A1 SWAP2 SWAP1 PUSH2 0x2EA6 JUMP JUMPDEST PUSH2 0x16A5 JUMP JUMPDEST STOP JUMPDEST PUSH2 0x2C2 PUSH1 0x4 DUP1 CALLDATASIZE SUB DUP2 ADD SWAP1 PUSH2 0x2BD SWAP2 SWAP1 PUSH2 0x2F02 JUMP JUMPDEST PUSH2 0x1710 JUMP JUMPDEST PUSH1 0x40 MLOAD PUSH2 0x2CF SWAP2 SWAP1 PUSH2 0x2FC2 JUMP JUMPDEST PUSH1 0x40 MLOAD DUP1 SWAP2 SUB SWAP1 RETURN JUMPDEST CALLVALUE DUP1 ISZERO PUSH2 0x2E4 JUMPI PUSH1 0x0 DUP1 REVERT JUMPDEST POP PUSH2 0x2ED PUSH2 0x197C JUMP JUMPDEST STOP JUMPDEST CALLVALUE DUP1 ISZERO PUSH2 0x2FB JUMPI PUSH1 0x0 DUP1 REVERT JUMPDEST POP PUSH2 0x316 PUSH1 0x4 DUP1 CALLDATASIZE SUB DUP2 ADD SWAP1 PUSH2 0x311 SWAP2 SWAP1 PUSH2 0x2FDD JUMP JUMPDEST PUSH2 0x1990 JUMP JUMPDEST STOP JUMPDEST CALLVALUE DUP1 ISZERO PUSH2 0x324 JUMPI PUSH1 0x0 DUP1 REVERT JUMPDEST POP PUSH2 0x33F PUSH1 0x4 DUP1 CALLDATASIZE SUB DUP2 ADD SWAP1 PUSH2 0x33A SWAP2 SWAP1 PUSH2 0x301D JUMP JUMPDEST PUSH2 0x1A13 JUMP JUMPDEST STOP JUMPDEST CALLVALUE DUP1 ISZERO PUSH2 0x34D JUMPI PUSH1 0x0 DUP1 REVERT JUMPDEST POP PUSH2 0x368 PUSH1 0x4 DUP1 CALLDATASIZE SUB DUP2 ADD SWAP1 PUSH2 0x363 SWAP2 SWAP1 PUSH2 0x2A73 JUMP JUMPDEST PUSH2 0x1A7E JUMP JUMPDEST STOP JUMPDEST CALLVALUE DUP1 ISZERO PUSH2 0x376 JUMPI PUSH1 0x0 DUP1 REVERT JUMPDEST POP PUSH2 0x37F PUSH2 0x1AC7 JUMP JUMPDEST PUSH1 0x40 MLOAD PUSH2 0x38C SWAP2 SWAP1 PUSH2 0x3079 JUMP JUMPDEST PUSH1 0x40 MLOAD DUP1 SWAP2 SUB SWAP1 RETURN JUMPDEST CALLVALUE DUP1 ISZERO PUSH2 0x3A1 JUMPI PUSH1 0x0 DUP1 REVERT JUMPDEST POP PUSH2 0x3AA PUSH2 0x1AF0 JUMP JUMPDEST PUSH1 0x40 MLOAD PUSH2 0x3B7 SWAP2 SWAP1 PUSH2 0x2FC2 JUMP JUMPDEST PUSH1 0x40 MLOAD DUP1 SWAP2 SUB SWAP1 RETURN JUMPDEST CALLVALUE DUP1 ISZERO PUSH2 0x3CC JUMPI PUSH1 0x0 DUP1 REVERT JUMPDEST POP PUSH2 0x3E7 PUSH1 0x4 DUP1 CALLDATASIZE SUB DUP2 ADD SWAP1 PUSH2 0x3E2 SWAP2 SWAP1 PUSH2 0x3094 JUMP JUMPDEST PUSH2 0x1AFA JUMP JUMPDEST STOP JUMPDEST PUSH2 0x403 PUSH1 0x4 DUP1 CALLDATASIZE SUB DUP2 ADD SWAP1 PUSH2 0x3FE SWAP2 SWAP1 PUSH2 0x2A73 JUMP JUMPDEST PUSH2 0x1C54 JUMP JUMPDEST STOP JUMPDEST CALLVALUE DUP1 ISZERO PUSH2 0x411 JUMPI PUSH1 0x0 DUP1 REVERT JUMPDEST POP PUSH2 0x41A PUSH2 0x1DA9 JUMP JUMPDEST PUSH1 0x40 MLOAD PUSH2 0x427 SWAP2 SWAP1 PUSH2 0x2FC2 JUMP JUMPDEST PUSH1 0x40 MLOAD DUP1 SWAP2 SUB SWAP1 RETURN JUMPDEST CALLVALUE DUP1 ISZERO PUSH2 0x43C JUMPI PUSH1 0x0 DUP1 REVERT JUMPDEST POP PUSH2 0x457 PUSH1 0x4 DUP1 CALLDATASIZE SUB DUP2 ADD SWAP1 PUSH2 0x452 SWAP2 SWAP1 PUSH2 0x3094 JUMP JUMPDEST PUSH2 0x1DB3 JUMP JUMPDEST STOP JUMPDEST CALLVALUE DUP1 ISZERO PUSH2 0x465 JUMPI PUSH1 0x0 DUP1 REVERT JUMPDEST POP PUSH2 0x46E PUSH2 0x1E35 JUMP JUMPDEST PUSH1 0x40 MLOAD PUSH2 0x47B SWAP2 SWAP1 PUSH2 0x2FC2 JUMP JUMPDEST PUSH1 0x40 MLOAD DUP1 SWAP2 SUB SWAP1 RETURN JUMPDEST CALLVALUE DUP1 ISZERO PUSH2 0x490 JUMPI PUSH1 0x0 DUP1 REVERT JUMPDEST POP PUSH2 0x4AB PUSH1 0x4 DUP1 CALLDATASIZE SUB DUP2 ADD SWAP1 PUSH2 0x4A6 SWAP2 SWAP1 PUSH2 0x30D4 JUMP JUMPDEST PUSH2 0x1E3F JUMP JUMPDEST STOP JUMPDEST CALLVALUE DUP1 ISZERO PUSH2 0x4B9 JUMPI PUSH1 0x0 DUP1 REVERT JUMPDEST POP PUSH2 0x4D4 PUSH1 0x4 DUP1 CALLDATASIZE SUB DUP2 ADD SWAP1 PUSH2 0x4CF SWAP2 SWAP1 PUSH2 0x3140 JUMP JUMPDEST PUSH2 0x1EB5 JUMP JUMPDEST STOP JUMPDEST PUSH2 0x4DE PUSH2 0x1F3B JUMP JUMPDEST PUSH1 0x0 PUSH1 0x1 PUSH1 0x0 DUP10 DUP2 MSTORE PUSH1 0x20 ADD SWAP1 DUP2 MSTORE PUSH1 0x20 ADD PUSH1 0x0 KECCAK256 SWAP1 POP DUP7 DUP2 PUSH1 0x0 ADD DUP2 DUP2 PUSH2 0x506 SWAP2 SWAP1 PUSH2 0x3A99 JUMP JUMPDEST SWAP1 POP POP DUP6 DUP2 PUSH1 0x5 ADD DUP2 DUP2 PUSH2 0x51A SWAP2 SWAP1 PUSH2 0x3E9F JUMP JUMPDEST SWAP1 POP POP DUP3 DUP2 PUSH1 0x9 ADD PUSH1 0x0 PUSH2 0x100 EXP DUP2 SLOAD DUP2 PUSH1 0xFF MUL NOT AND SWAP1 DUP4 PUSH1 0x1 DUP2 GT ISZERO PUSH2 0x544 JUMPI PUSH2 0x543 PUSH2 0x2B3A JUMP JUMPDEST JUMPDEST MUL OR SWAP1 SSTORE POP DUP1 PUSH1 0x9 ADD PUSH1 0x1 SWAP1 SLOAD SWAP1 PUSH2 0x100 EXP SWAP1 DIV PUSH1 0xFF AND ISZERO DUP1 ISZERO PUSH2 0x565 JUMPI POP DUP2 JUMPDEST ISZERO PUSH2 0x5C3 JUMPI PUSH1 0x1 DUP2 PUSH1 0x9 ADD PUSH1 0x1 PUSH2 0x100 EXP DUP2 SLOAD DUP2 PUSH1 0xFF MUL NOT AND SWAP1 DUP4 ISZERO ISZERO MUL OR SWAP1 SSTORE POP PUSH32 0xD5D88098DE5BA30573F08926C4E6445CAB93CE09D98C1147A64045608A50797F DUP9 PUSH1 0x40 MLOAD PUSH2 0x5B6 SWAP2 SWAP1 PUSH2 0x2FC2 JUMP JUMPDEST PUSH1 0x40 MLOAD DUP1 SWAP2 SUB SWAP1 LOG1 PUSH2 0x63A JUMP JUMPDEST DUP1 PUSH1 0x9 ADD PUSH1 0x1 SWAP1 SLOAD SWAP1 PUSH2 0x100 EXP SWAP1 DIV PUSH1 0xFF AND DUP1 ISZERO PUSH2 0x5DF JUMPI POP DUP2 ISZERO JUMPDEST ISZERO PUSH2 0x639 JUMPI PUSH1 0x0 DUP2 PUSH1 0x9 ADD PUSH1 0x1 PUSH2 0x100 EXP DUP2 SLOAD DUP2 PUSH1 0xFF MUL NOT AND SWAP1 DUP4 ISZERO ISZERO MUL OR SWAP1 SSTORE POP PUSH32 0x8DA007FC61F3601008AA139C728EA9BF16672668B03C07F6C402AB74C034FC81 DUP9 PUSH1 0x40 MLOAD PUSH2 0x630 SWAP2 SWAP1 PUSH2 0x2FC2 JUMP JUMPDEST PUSH1 0x40 MLOAD DUP1 SWAP2 SUB SWAP1 LOG1 JUMPDEST JUMPDEST DUP1 PUSH1 0x8 ADD PUSH1 0x0 PUSH2 0x64A SWAP2 SWAP1 PUSH2 0x208E JUMP JUMPDEST PUSH1 0x0 JUMPDEST DUP6 DUP6 SWAP1 POP DUP2 LT ISZERO PUSH2 0x6A7 JUMPI DUP2 PUSH1 0x8 ADD DUP7 DUP7 DUP4 DUP2 DUP2 LT PUSH2 0x66F JUMPI PUSH2 0x66E PUSH2 0x3EAD JUMP JUMPDEST JUMPDEST SWAP1 POP PUSH1 0x20 MUL ADD CALLDATALOAD SWAP1 DUP1 PUSH1 0x1 DUP2 SLOAD ADD DUP1 DUP3 SSTORE DUP1 SWAP2 POP POP PUSH1 0x1 SWAP1 SUB SWAP1 PUSH1 0x0 MSTORE PUSH1 0x20 PUSH1 0x0 KECCAK256 ADD PUSH1 0x0 SWAP1 SWAP2 SWAP1 SWAP2 SWAP1 SWAP2 POP SSTORE DUP1 PUSH1 0x1 ADD SWAP1 POP PUSH2 0x64D JUMP JUMPDEST POP PUSH32 0x887CC86755221DB77FB9A404D4834A6CA76A28DF7C71C7650318819AD0F46A3C DUP9 PUSH1 0x40 MLOAD PUSH2 0x6D7 SWAP2 SWAP1 PUSH2 0x2FC2 JUMP JUMPDEST PUSH1 0x40 MLOAD DUP1 SWAP2 SUB SWAP1 LOG1 POP POP POP POP POP POP POP POP JUMP JUMPDEST PUSH2 0x6F1 PUSH2 0x20AF JUMP JUMPDEST PUSH1 0x2 PUSH1 0x0 DUP5 DUP2 MSTORE PUSH1 0x20 ADD SWAP1 DUP2 MSTORE PUSH1 0x20 ADD PUSH1 0x0 KECCAK256 PUSH1 0x0 DUP4 DUP2 MSTORE PUSH1 0x20 ADD SWAP1 DUP2 MSTORE PUSH1 0x20 ADD PUSH1 0x0 KECCAK256 PUSH1 0x40 MLOAD DUP1 PUSH2 0x120 ADD PUSH1 0x40 MSTORE SWAP1 DUP2 PUSH1 0x0 DUP3 ADD DUP1 SLOAD PUSH2 0x731 SWAP1 PUSH2 0x3277 JUMP JUMPDEST DUP1 PUSH1 0x1F ADD PUSH1 0x20 DUP1 SWAP2 DIV MUL PUSH1 0x20 ADD PUSH1 0x40 MLOAD SWAP1 DUP2 ADD PUSH1 0x40 MSTORE DUP1 SWAP3 SWAP2 SWAP1 DUP2 DUP2 MSTORE PUSH1 0x20 ADD DUP3 DUP1 SLOAD PUSH2 0x75D SWAP1 PUSH2 0x3277 JUMP JUMPDEST DUP1 ISZERO PUSH2 0x7AA JUMPI DUP1 PUSH1 0x1F LT PUSH2 0x77F JUMPI PUSH2 0x100 DUP1 DUP4 SLOAD DIV MUL DUP4 MSTORE SWAP2 PUSH1 0x20 ADD SWAP2 PUSH2 0x7AA JUMP JUMPDEST DUP3 ADD SWAP2 SWAP1 PUSH1 0x0 MSTORE PUSH1 0x20 PUSH1 0x0 KECCAK256 SWAP1 JUMPDEST DUP2 SLOAD DUP2 MSTORE SWAP1 PUSH1 0x1 ADD SWAP1 PUSH1 0x20 ADD DUP1 DUP4 GT PUSH2 0x78D JUMPI DUP3 SWAP1 SUB PUSH1 0x1F AND DUP3 ADD SWAP2 JUMPDEST POP POP POP POP POP DUP2 MSTORE PUSH1 0x20 ADD PUSH1 0x1 DUP3 ADD DUP1 SLOAD DUP1 PUSH1 0x20 MUL PUSH1 0x20 ADD PUSH1 0x40 MLOAD SWAP1 DUP2 ADD PUSH1 0x40 MSTORE DUP1 SWAP3 SWAP2 SWAP1 DUP2 DUP2 MSTORE PUSH1 0x20 ADD PUSH1 0x0 SWAP1 JUMPDEST DUP3 DUP3 LT ISZERO PUSH2 0x884 JUMPI DUP4 DUP3 SWAP1 PUSH1 0x0 MSTORE PUSH1 0x20 PUSH1 0x0 KECCAK256 ADD DUP1 SLOAD PUSH2 0x7F7 SWAP1 PUSH2 0x3277 JUMP JUMPDEST DUP1 PUSH1 0x1F ADD PUSH1 0x20 DUP1 SWAP2 DIV MUL PUSH1 0x20 ADD PUSH1 0x40 MLOAD SWAP1 DUP2 ADD PUSH1 0x40 MSTORE DUP1 SWAP3 SWAP2 SWAP1 DUP2 DUP2 MSTORE PUSH1 0x20 ADD DUP3 DUP1 SLOAD PUSH2 0x823 SWAP1 PUSH2 0x3277 JUMP JUMPDEST DUP1 ISZERO PUSH2 0x870 JUMPI DUP1 PUSH1 0x1F LT PUSH2 0x845 JUMPI PUSH2 0x100 DUP1 DUP4 SLOAD DIV MUL DUP4 MSTORE SWAP2 PUSH1 0x20 ADD SWAP2 PUSH2 0x870 JUMP JUMPDEST DUP3 ADD SWAP2 SWAP1 PUSH1 0x0 MSTORE PUSH1 0x20 PUSH1 0x0 KECCAK256 SWAP1 JUMPDEST DUP2 SLOAD DUP2 MSTORE SWAP1 PUSH1 0x1 ADD SWAP1 PUSH1 0x20 ADD DUP1 DUP4 GT PUSH2 0x853 JUMPI DUP3 SWAP1 SUB PUSH1 0x1F AND DUP3 ADD SWAP2 JUMPDEST POP POP POP POP POP DUP2 MSTORE PUSH1 0x20 ADD SWAP1 PUSH1 0x1 ADD SWAP1 PUSH2 0x7D8 JUMP JUMPDEST POP POP POP POP DUP2 MSTORE PUSH1 0x20 ADD PUSH1 0x2 DUP3 ADD DUP1 SLOAD PUSH2 0x89C SWAP1 PUSH2 0x3277 JUMP JUMPDEST DUP1 PUSH1 0x1F ADD PUSH1 0x20 DUP1 SWAP2 DIV MUL PUSH1 0x20 ADD PUSH1 0x40 MLOAD SWAP1 DUP2 ADD PUSH1 0x40 MSTORE DUP1 SWAP3 SWAP2 SWAP1 DUP2 DUP2 MSTORE PUSH1 0x20 ADD DUP3 DUP1 SLOAD PUSH2 0x8C8 SWAP1 PUSH2 0x3277 JUMP JUMPDEST DUP1 ISZERO PUSH2 0x915 JUMPI DUP1 PUSH1 0x1F LT PUSH2 0x8EA JUMPI PUSH2 0x100 DUP1 DUP4 SLOAD DIV MUL DUP4 MSTORE SWAP2 PUSH1 0x20 ADD SWAP2 PUSH2 0x915 JUMP JUMPDEST DUP3 ADD SWAP2 SWAP1 PUSH1 0x0 MSTORE PUSH1 0x20 PUSH1 0x0 KECCAK256 SWAP1 JUMPDEST DUP2 SLOAD DUP2 MSTORE SWAP1 PUSH1 0x1 ADD SWAP1 PUSH1 0x20 ADD DUP1 DUP4 GT PUSH2 0x8F8 JUMPI DUP3 SWAP1 SUB PUSH1 0x1F AND DUP3 ADD SWAP2 JUMPDEST POP POP POP POP POP DUP2 MSTORE PUSH1 0x20 ADD PUSH1 0x3 DUP3 ADD DUP1 SLOAD DUP1 PUSH1 0x20 MUL PUSH1 0x20 ADD PUSH1 0x40 MLOAD SWAP1 DUP2 ADD PUSH1 0x40 MSTORE DUP1 SWAP3 SWAP2 SWAP1 DUP2 DUP2 MSTORE PUSH1 0x20 ADD PUSH1 0x0 SWAP1 JUMPDEST DUP3 DUP3 LT ISZERO PUSH2 0x9B5 JUMPI DUP4 DUP3 SWAP1 PUSH1 0x0 MSTORE PUSH1 0x20 PUSH1 0x0 KECCAK256 ADD DUP1 SLOAD DUP1 PUSH1 0x20 MUL PUSH1 0x20 ADD PUSH1 0x40 MLOAD SWAP1 DUP2 ADD PUSH1 0x40 MSTORE DUP1 SWAP3 SWAP2 SWAP1 DUP2 DUP2 MSTORE PUSH1 0x20 ADD DUP3 DUP1 SLOAD DUP1 ISZERO PUSH2 0x9A1 JUMPI PUSH1 0x20 MUL DUP3 ADD SWAP2 SWAP1 PUSH1 0x0 MSTORE PUSH1 0x20 PUSH1 0x0 KECCAK256 SWAP1 JUMPDEST DUP2 SLOAD DUP2 MSTORE PUSH1 0x20 ADD SWAP1 PUSH1 0x1 ADD SWAP1 DUP1 DUP4 GT PUSH2 0x98D JUMPI JUMPDEST POP POP POP POP POP DUP2 MSTORE PUSH1 0x20 ADD SWAP1 PUSH1 0x1 ADD SWAP1 PUSH2 0x943 JUMP JUMPDEST POP POP POP POP DUP2 MSTORE PUSH1 0x20 ADD PUSH1 0x4 DUP3 ADD SLOAD DUP2 MSTORE PUSH1 0x20 ADD PUSH1 0x5 DUP3 ADD SLOAD DUP2 MSTORE PUSH1 0x20 ADD PUSH1 0x6 DUP3 ADD DUP1 SLOAD DUP1 PUSH1 0x20 MUL PUSH1 0x20 ADD PUSH1 0x40 MLOAD SWAP1 DUP2 ADD PUSH1 0x40 MSTORE DUP1 SWAP3 SWAP2 SWAP1 DUP2 DUP2 MSTORE PUSH1 0x20 ADD DUP3 DUP1 SLOAD DUP1 ISZERO PUSH2 0xA20 JUMPI PUSH1 0x20 MUL DUP3 ADD SWAP2 SWAP1 PUSH1 0x0 MSTORE PUSH1 0x20 PUSH1 0x0 KECCAK256 SWAP1 JUMPDEST DUP2 SLOAD DUP2 MSTORE PUSH1 0x20 ADD SWAP1 PUSH1 0x1 ADD SWAP1 DUP1 DUP4 GT PUSH2 0xA0C JUMPI JUMPDEST POP POP POP POP POP DUP2 MSTORE PUSH1 0x20 ADD PUSH1 0x7 DUP3 ADD SLOAD DUP2 MSTORE PUSH1 0x20 ADD PUSH1 0x8 DUP3 ADD DUP1 SLOAD PUSH2 0xA43 SWAP1 PUSH2 0x3277 JUMP JUMPDEST DUP1 PUSH1 0x1F ADD PUSH1 0x20 DUP1 SWAP2 DIV MUL PUSH1 0x20 ADD PUSH1 0x40 MLOAD SWAP1 DUP2 ADD PUSH1 0x40 MSTORE DUP1 SWAP3 SWAP2 SWAP1 DUP2 DUP2 MSTORE PUSH1 0x20 ADD DUP3 DUP1 SLOAD PUSH2 0xA6F SWAP1 PUSH2 0x3277 JUMP JUMPDEST DUP1 ISZERO PUSH2 0xABC JUMPI DUP1 PUSH1 0x1F LT PUSH2 0xA91 JUMPI PUSH2 0x100 DUP1 DUP4 SLOAD DIV MUL DUP4 MSTORE SWAP2 PUSH1 0x20 ADD SWAP2 PUSH2 0xABC JUMP JUMPDEST DUP3 ADD SWAP2 SWAP1 PUSH1 0x0 MSTORE PUSH1 0x20 PUSH1 0x0 KECCAK256 SWAP1 JUMPDEST DUP2 SLOAD DUP2 MSTORE SWAP1 PUSH1 0x1 ADD SWAP1 PUSH1 0x20 ADD DUP1 DUP4 GT PUSH2 0xA9F JUMPI DUP3 SWAP1 SUB PUSH1 0x1F AND DUP3 ADD SWAP2 JUMPDEST POP POP POP POP POP DUP2 MSTORE POP POP SWAP1 POP SWAP3 SWAP2 POP POP JUMP JUMPDEST PUSH2 0xAD5 PUSH2 0x20FE JUMP JUMPDEST PUSH1 0x1 PUSH1 0x0 DUP4 DUP2 MSTORE PUSH1 0x20 ADD SWAP1 DUP2 MSTORE PUSH1 0x20 ADD PUSH1 0x0 KECCAK256 PUSH1 0x40 MLOAD DUP1 PUSH1 0xC0 ADD PUSH1 0x40 MSTORE SWAP1 DUP2 PUSH1 0x0 DUP3 ADD PUSH1 0x40 MLOAD DUP1 PUSH1 0xA0 ADD PUSH1 0x40 MSTORE SWAP1 DUP2 PUSH1 0x0 DUP3 ADD DUP1 SLOAD PUSH2 0xB13 SWAP1 PUSH2 0x3277 JUMP JUMPDEST DUP1 PUSH1 0x1F ADD PUSH1 0x20 DUP1 SWAP2 DIV MUL PUSH1 0x20 ADD PUSH1 0x40 MLOAD SWAP1 DUP2 ADD PUSH1 0x40 MSTORE DUP1 SWAP3 SWAP2 SWAP1 DUP2 DUP2 MSTORE PUSH1 0x20 ADD DUP3 DUP1 SLOAD PUSH2 0xB3F SWAP1 PUSH2 0x3277 JUMP JUMPDEST DUP1 ISZERO PUSH2 0xB8C JUMPI DUP1 PUSH1 0x1F LT PUSH2 0xB61 JUMPI PUSH2 0x100 DUP1 DUP4 SLOAD DIV MUL DUP4 MSTORE SWAP2 PUSH1 0x20 ADD SWAP2 PUSH2 0xB8C JUMP JUMPDEST DUP3 ADD SWAP2 SWAP1 PUSH1 0x0 MSTORE PUSH1 0x20 PUSH1 0x0 KECCAK256 SWAP1 JUMPDEST DUP2 SLOAD DUP2 MSTORE SWAP1 PUSH1 0x1 ADD SWAP1 PUSH1 0x20 ADD DUP1 DUP4 GT PUSH2 0xB6F JUMPI DUP3 SWAP1 SUB PUSH1 0x1F AND DUP3 ADD SWAP2 JUMPDEST POP POP POP POP POP DUP2 MSTORE PUSH1 0x20 ADD PUSH1 0x1 DUP3 ADD DUP1 SLOAD PUSH2 0xBA5 SWAP1 PUSH2 0x3277 JUMP JUMPDEST DUP1 PUSH1 0x1F ADD PUSH1 0x20 DUP1 SWAP2 DIV MUL PUSH1 0x20 ADD PUSH1 0x40 MLOAD SWAP1 DUP2 ADD PUSH1 0x40 MSTORE DUP1 SWAP3 SWAP2 SWAP1 DUP2 DUP2 MSTORE PUSH1 0x20 ADD DUP3 DUP1 SLOAD PUSH2 0xBD1 SWAP1 PUSH2 0x3277 JUMP JUMPDEST DUP1 ISZERO PUSH2 0xC1E JUMPI DUP1 PUSH1 0x1F LT PUSH2 0xBF3 JUMPI PUSH2 0x100 DUP1 DUP4 SLOAD DIV MUL DUP4 MSTORE SWAP2 PUSH1 0x20 ADD SWAP2 PUSH2 0xC1E JUMP JUMPDEST DUP3 ADD SWAP2 SWAP1 PUSH1 0x0 MSTORE PUSH1 0x20 PUSH1 0x0 KECCAK256 SWAP1 JUMPDEST DUP2 SLOAD DUP2 MSTORE SWAP1 PUSH1 0x1 ADD SWAP1 PUSH1 0x20 ADD DUP1 DUP4 GT PUSH2 0xC01 JUMPI DUP3 SWAP1 SUB PUSH1 0x1F AND DUP3 ADD SWAP2 JUMPDEST POP POP POP POP POP DUP2 MSTORE PUSH1 0x20 ADD PUSH1 0x2 DUP3 ADD DUP1 SLOAD PUSH2 0xC37 SWAP1 PUSH2 0x3277 JUMP JUMPDEST DUP1 PUSH1 0x1F ADD PUSH1 0x20 DUP1 SWAP2 DIV MUL PUSH1 0x20 ADD PUSH1 0x40 MLOAD SWAP1 DUP2 ADD PUSH1 0x40 MSTORE DUP1 SWAP3 SWAP2 SWAP1 DUP2 DUP2 MSTORE PUSH1 0x20 ADD DUP3 DUP1 SLOAD PUSH2 0xC63 SWAP1 PUSH2 0x3277 JUMP JUMPDEST DUP1 ISZERO PUSH2 0xCB0 JUMPI DUP1 PUSH1 0x1F LT PUSH2 0xC85 JUMPI PUSH2 0x100 DUP1 DUP4 SLOAD DIV MUL DUP4 MSTORE SWAP2 PUSH1 0x20 ADD SWAP2 PUSH2 0xCB0 JUMP JUMPDEST DUP3 ADD SWAP2 SWAP1 PUSH1 0x0 MSTORE PUSH1 0x20 PUSH1 0x0 KECCAK256 SWAP1 JUMPDEST DUP2 SLOAD DUP2 MSTORE SWAP1 PUSH1 0x1 ADD SWAP1 PUSH1 0x20 ADD DUP1 DUP4 GT PUSH2 0xC93 JUMPI DUP3 SWAP1 SUB PUSH1 0x1F AND DUP3 ADD SWAP2 JUMPDEST POP POP POP POP POP DUP2 MSTORE PUSH1 0x20 ADD PUSH1 0x3 DUP3 ADD DUP1 SLOAD DUP1 PUSH1 0x20 MUL PUSH1 0x20 ADD PUSH1 0x40 MLOAD SWAP1 DUP2 ADD PUSH1 0x40 MSTORE DUP1 SWAP3 SWAP2 SWAP1 DUP2 DUP2 MSTORE PUSH1 0x20 ADD PUSH1 0x0 SWAP1 JUMPDEST DUP3 DUP3 LT ISZERO PUSH2 0xD8A JUMPI DUP4 DUP3 SWAP1 PUSH1 0x0 MSTORE PUSH1 0x20 PUSH1 0x0 KECCAK256 ADD DUP1 SLOAD PUSH2 0xCFD SWAP1 PUSH2 0x3277 JUMP JUMPDEST DUP1 PUSH1 0x1F ADD PUSH1 0x20 DUP1 SWAP2 DIV MUL PUSH1 0x20 ADD PUSH1 0x40 MLOAD SWAP1 DUP2 ADD PUSH1 0x40 MSTORE DUP1 SWAP3 SWAP2 SWAP1 DUP2 DUP2 MSTORE PUSH1 0x20 ADD DUP3 DUP1 SLOAD PUSH2 0xD29 SWAP1 PUSH2 0x3277 JUMP JUMPDEST DUP1 ISZERO PUSH2 0xD76 JUMPI DUP1 PUSH1 0x1F LT PUSH2 0xD4B JUMPI PUSH2 0x100 DUP1 DUP4 SLOAD DIV MUL DUP4 MSTORE SWAP2 PUSH1 0x20 ADD SWAP2 PUSH2 0xD76 JUMP JUMPDEST DUP3 ADD SWAP2 SWAP1 PUSH1 0x0 MSTORE PUSH1 0x20 PUSH1 0x0 KECCAK256 SWAP1 JUMPDEST DUP2 SLOAD DUP2 MSTORE SWAP1 PUSH1 0x1 ADD SWAP1 PUSH1 0x20 ADD DUP1 DUP4 GT PUSH2 0xD59 JUMPI DUP3 SWAP1 SUB PUSH1 0x1F AND DUP3 ADD SWAP2 JUMPDEST POP POP POP POP POP DUP2 MSTORE PUSH1 0x20 ADD SWAP1 PUSH1 0x1 ADD SWAP1 PUSH2 0xCDE JUMP JUMPDEST POP POP POP POP DUP2 MSTORE PUSH1 0x20 ADD PUSH1 0x4 DUP3 ADD PUSH1 0x0 SWAP1 SLOAD SWAP1 PUSH2 0x100 EXP SWAP1 DIV PUSH1 0xFF AND ISZERO ISZERO ISZERO ISZERO DUP2 MSTORE POP POP DUP2 MSTORE PUSH1 0x20 ADD PUSH1 0x5 DUP3 ADD PUSH1 0x40 MLOAD DUP1 PUSH1 0x60 ADD PUSH1 0x40 MSTORE SWAP1 DUP2 PUSH1 0x0 DUP3 ADD PUSH1 0x0 SWAP1 SLOAD SWAP1 PUSH2 0x100 EXP SWAP1 DIV PUSH1 0xFF AND PUSH1 0x5 DUP2 GT ISZERO PUSH2 0xDE6 JUMPI PUSH2 0xDE5 PUSH2 0x2B3A JUMP JUMPDEST JUMPDEST PUSH1 0x5 DUP2 GT ISZERO PUSH2 0xDF8 JUMPI PUSH2 0xDF7 PUSH2 0x2B3A JUMP JUMPDEST JUMPDEST DUP2 MSTORE PUSH1 0x20 ADD PUSH1 0x1 DUP3 ADD DUP1 SLOAD DUP1 PUSH1 0x20 MUL PUSH1 0x20 ADD PUSH1 0x40 MLOAD SWAP1 DUP2 ADD PUSH1 0x40 MSTORE DUP1 SWAP3 SWAP2 SWAP1 DUP2 DUP2 MSTORE PUSH1 0x20 ADD PUSH1 0x0 SWAP1 JUMPDEST DUP3 DUP3 LT ISZERO PUSH2 0xF3B JUMPI DUP4 DUP3 SWAP1 PUSH1 0x0 MSTORE PUSH1 0x20 PUSH1 0x0 KECCAK256 SWAP1 PUSH1 0x2 MUL ADD PUSH1 0x40 MLOAD DUP1 PUSH1 0x40 ADD PUSH1 0x40 MSTORE SWAP1 DUP2 PUSH1 0x0 DUP3 ADD DUP1 SLOAD PUSH2 0xE54 SWAP1 PUSH2 0x3277 JUMP JUMPDEST DUP1 PUSH1 0x1F ADD PUSH1 0x20 DUP1 SWAP2 DIV MUL PUSH1 0x20 ADD PUSH1 0x40 MLOAD SWAP1 DUP2 ADD PUSH1 0x40 MSTORE DUP1 SWAP3 SWAP2 SWAP1 DUP2 DUP2 MSTORE PUSH1 0x20 ADD DUP3 DUP1 SLOAD PUSH2 0xE80 SWAP1 PUSH2 0x3277 JUMP JUMPDEST DUP1 ISZERO PUSH2 0xECD JUMPI DUP1 PUSH1 0x1F LT PUSH2 0xEA2 JUMPI PUSH2 0x100 DUP1 DUP4 SLOAD DIV MUL DUP4 MSTORE SWAP2 PUSH1 0x20 ADD SWAP2 PUSH2 0xECD JUMP JUMPDEST DUP3 ADD SWAP2 SWAP1 PUSH1 0x0 MSTORE PUSH1 0x20 PUSH1 0x0 KECCAK256 SWAP1 JUMPDEST DUP2 SLOAD DUP2 MSTORE SWAP1 PUSH1 0x1 ADD SWAP1 PUSH1 0x20 ADD DUP1 DUP4 GT PUSH2 0xEB0 JUMPI DUP3 SWAP1 SUB PUSH1 0x1F AND DUP3 ADD SWAP2 JUMPDEST POP POP POP POP POP DUP2 MSTORE PUSH1 0x20 ADD PUSH1 0x1 DUP3 ADD PUSH1 0x0 SWAP1 SLOAD SWAP1 PUSH2 0x100 EXP SWAP1 DIV PUSH20 0xFFFFFFFFFFFFFFFFFFFFFFFFFFFFFFFFFFFFFFFF AND PUSH20 0xFFFFFFFFFFFFFFFFFFFFFFFFFFFFFFFFFFFFFFFF AND PUSH20 0xFFFFFFFFFFFFFFFFFFFFFFFFFFFFFFFFFFFFFFFF AND DUP2 MSTORE POP POP DUP2 MSTORE PUSH1 0x20 ADD SWAP1 PUSH1 0x1 ADD SWAP1 PUSH2 0xE21 JUMP JUMPDEST POP POP POP POP DUP2 MSTORE PUSH1 0x20 ADD PUSH1 0x2 DUP3 ADD DUP1 SLOAD PUSH2 0xF53 SWAP1 PUSH2 0x3277 JUMP JUMPDEST DUP1 PUSH1 0x1F ADD PUSH1 0x20 DUP1 SWAP2 DIV MUL PUSH1 0x20 ADD PUSH1 0x40 MLOAD SWAP1 DUP2 ADD PUSH1 0x40 MSTORE DUP1 SWAP3 SWAP2 SWAP1 DUP2 DUP2 MSTORE PUSH1 0x20 ADD DUP3 DUP1 SLOAD PUSH2 0xF7F SWAP1 PUSH2 0x3277 JUMP JUMPDEST DUP1 ISZERO PUSH2 0xFCC JUMPI DUP1 PUSH1 0x1F LT PUSH2 0xFA1 JUMPI PUSH2 0x100 DUP1 DUP4 SLOAD DIV MUL DUP4 MSTORE SWAP2 PUSH1 0x20 ADD SWAP2 PUSH2 0xFCC JUMP JUMPDEST DUP3 ADD SWAP2 SWAP1 PUSH1 0x0 MSTORE PUSH1 0x20 PUSH1 0x0 KECCAK256 SWAP1 JUMPDEST DUP2 SLOAD DUP2 MSTORE SWAP1 PUSH1 0x1 ADD SWAP1 PUSH1 0x20 ADD DUP1 DUP4 GT PUSH2 0xFAF JUMPI DUP3 SWAP1 SUB PUSH1 0x1F AND DUP3 ADD SWAP2 JUMPDEST POP POP POP POP POP DUP2 MSTORE POP POP DUP2 MSTORE PUSH1 0x20 ADD PUSH1 0x8 DUP3 ADD DUP1 SLOAD DUP1 PUSH1 0x20 MUL PUSH1 0x20 ADD PUSH1 0x40 MLOAD SWAP1 DUP2 ADD PUSH1 0x40 MSTORE DUP1 SWAP3 SWAP2 SWAP1 DUP2 DUP2 MSTORE PUSH1 0x20 ADD DUP3 DUP1 SLOAD DUP1 ISZERO PUSH2 0x1028 JUMPI PUSH1 0x20 MUL DUP3 ADD SWAP2 SWAP1 PUSH1 0x0 MSTORE PUSH1 0x20 PUSH1 0x0 KECCAK256 SWAP1 JUMPDEST DUP2 SLOAD DUP2 MSTORE PUSH1 0x20 ADD SWAP1 PUSH1 0x1 ADD SWAP1 DUP1 DUP4 GT PUSH2 0x1014 JUMPI JUMPDEST POP POP POP POP POP DUP2 MSTORE PUSH1 0x20 ADD PUSH1 0x9 DUP3 ADD PUSH1 0x0 SWAP1 SLOAD SWAP1 PUSH2 0x100 EXP SWAP1 DIV PUSH1 0xFF AND PUSH1 0x1 DUP2 GT ISZERO PUSH2 0x1056 JUMPI PUSH2 0x1055 PUSH2 0x2B3A JUMP JUMPDEST JUMPDEST PUSH1 0x1 DUP2 GT ISZERO PUSH2 0x1068 JUMPI PUSH2 0x1067 PUSH2 0x2B3A JUMP JUMPDEST JUMPDEST DUP2 MSTORE PUSH1 0x20 ADD PUSH1 0x9 DUP3 ADD PUSH1 0x1 SWAP1 SLOAD SWAP1 PUSH2 0x100 EXP SWAP1 DIV PUSH1 0xFF AND ISZERO ISZERO ISZERO ISZERO DUP2 MSTORE PUSH1 0x20 ADD PUSH1 0xA DUP3 ADD SLOAD DUP2 MSTORE POP POP SWAP1 POP SWAP2 SWAP1 POP JUMP JUMPDEST PUSH2 0x10A0 PUSH2 0x1F3B JUMP JUMPDEST PUSH1 0x1 PUSH1 0x0 DUP5 DUP2 MSTORE PUSH1 0x20 ADD SWAP1 DUP2 MSTORE PUSH1 0x20 ADD PUSH1 0x0 KECCAK256 PUSH1 0x9 ADD PUSH1 0x1 SWAP1 SLOAD SWAP1 PUSH2 0x100 EXP SWAP1 DIV PUSH1 0xFF AND ISZERO PUSH2 0x1104 JUMPI PUSH1 0x40 MLOAD PUSH32 0x8C379A000000000000000000000000000000000000000000000000000000000 DUP2 MSTORE PUSH1 0x4 ADD PUSH2 0x10FB SWAP1 PUSH2 0x3F39 JUMP JUMPDEST PUSH1 0x40 MLOAD DUP1 SWAP2 SUB SWAP1 REVERT JUMPDEST PUSH1 0x4 SLOAD PUSH1 0x1 PUSH1 0x0 DUP6 DUP2 MSTORE PUSH1 0x20 ADD SWAP1 DUP2 MSTORE PUSH1 0x20 ADD PUSH1 0x0 KECCAK256 PUSH1 0xA ADD SLOAD LT ISZERO PUSH2 0x115F JUMPI PUSH1 0x40 MLOAD PUSH32 0x8C379A000000000000000000000000000000000000000000000000000000000 DUP2 MSTORE PUSH1 0x4 ADD PUSH2 0x1156 SWAP1 PUSH2 0x3FCB JUMP JUMPDEST PUSH1 0x40 MLOAD DUP1 SWAP2 SUB SWAP1 REVERT JUMPDEST PUSH1 0x4 SLOAD PUSH1 0x1 PUSH1 0x0 DUP6 DUP2 MSTORE PUSH1 0x20 ADD SWAP1 DUP2 MSTORE PUSH1 0x20 ADD PUSH1 0x0 KECCAK256 PUSH1 0xA ADD PUSH1 0x0 DUP3 DUP3 SLOAD PUSH2 0x1187 SWAP2 SWAP1 PUSH2 0x3FEB JUMP JUMPDEST SWAP3 POP POP DUP2 SWAP1 SSTORE POP PUSH1 0x4 SLOAD PUSH1 0x1 PUSH1 0x0 DUP6 DUP2 MSTORE PUSH1 0x20 ADD SWAP1 DUP2 MSTORE PUSH1 0x20 ADD PUSH1 0x0 KECCAK256 PUSH1 0xA ADD SLOAD LT ISZERO PUSH2 0x1214 JUMPI PUSH1 0x1 DUP1 PUSH1 0x0 DUP6 DUP2 MSTORE PUSH1 0x20 ADD SWAP1 DUP2 MSTORE PUSH1 0x20 ADD PUSH1 0x0 KECCAK256 PUSH1 0x9 ADD PUSH1 0x1 PUSH2 0x100 EXP DUP2 SLOAD DUP2 PUSH1 0xFF MUL NOT AND SWAP1 DUP4 ISZERO ISZERO MUL OR SWAP1 SSTORE POP PUSH32 0xD5D88098DE5BA30573F08926C4E6445CAB93CE09D98C1147A64045608A50797F DUP4 PUSH1 0x40 MLOAD PUSH2 0x120B SWAP2 SWAP1 PUSH2 0x2FC2 JUMP JUMPDEST PUSH1 0x40 MLOAD DUP1 SWAP2 SUB SWAP1 LOG1 JUMPDEST PUSH2 0x121C PUSH2 0x20AF JUMP JUMPDEST DUP2 DUP1 PUSH1 0x0 ADD SWAP1 PUSH2 0x122C SWAP2 SWAP1 PUSH2 0x31AB JUMP JUMPDEST DUP1 DUP1 PUSH1 0x1F ADD PUSH1 0x20 DUP1 SWAP2 DIV MUL PUSH1 0x20 ADD PUSH1 0x40 MLOAD SWAP1 DUP2 ADD PUSH1 0x40 MSTORE DUP1 SWAP4 SWAP3 SWAP2 SWAP1 DUP2 DUP2 MSTORE PUSH1 0x20 ADD DUP4 DUP4 DUP1 DUP3 DUP5 CALLDATACOPY PUSH1 0x0 DUP2 DUP5 ADD MSTORE PUSH1 0x1F NOT PUSH1 0x1F DUP3 ADD AND SWAP1 POP DUP1 DUP4 ADD SWAP3 POP POP POP POP POP POP POP DUP2 PUSH1 0x0 ADD DUP2 SWAP1 MSTORE POP DUP2 DUP1 PUSH1 0x20 ADD SWAP1 PUSH2 0x1287 SWAP2 SWAP1 PUSH2 0x3534 JUMP JUMPDEST SWAP1 PUSH2 0x1292 SWAP2 SWAP1 PUSH2 0x41D3 JUMP JUMPDEST DUP2 PUSH1 0x20 ADD DUP2 SWAP1 MSTORE POP DUP2 DUP1 PUSH1 0x40 ADD SWAP1 PUSH2 0x12AA SWAP2 SWAP1 PUSH2 0x31AB JUMP JUMPDEST DUP1 DUP1 PUSH1 0x1F ADD PUSH1 0x20 DUP1 SWAP2 DIV MUL PUSH1 0x20 ADD PUSH1 0x40 MLOAD SWAP1 DUP2 ADD PUSH1 0x40 MSTORE DUP1 SWAP4 SWAP3 SWAP2 SWAP1 DUP2 DUP2 MSTORE PUSH1 0x20 ADD DUP4 DUP4 DUP1 DUP3 DUP5 CALLDATACOPY PUSH1 0x0 DUP2 DUP5 ADD MSTORE PUSH1 0x1F NOT PUSH1 0x1F DUP3 ADD AND SWAP1 POP DUP1 DUP4 ADD SWAP3 POP POP POP POP POP POP POP DUP2 PUSH1 0x40 ADD DUP2 SWAP1 MSTORE POP DUP2 DUP1 PUSH1 0x60 ADD SWAP1 PUSH2 0x1305 SWAP2 SWAP1 PUSH2 0x41E8 JUMP JUMPDEST SWAP1 PUSH2 0x1310 SWAP2 SWAP1 PUSH2 0x43C1 JUMP JUMPDEST DUP2 PUSH1 0x60 ADD DUP2 SWAP1 MSTORE POP DUP2 PUSH1 0x80 ADD CALLDATALOAD DUP2 PUSH1 0x80 ADD DUP2 DUP2 MSTORE POP POP DUP2 PUSH1 0xA0 ADD CALLDATALOAD DUP2 PUSH1 0xA0 ADD DUP2 DUP2 MSTORE POP POP DUP2 DUP1 PUSH1 0xC0 ADD SWAP1 PUSH2 0x1344 SWAP2 SWAP1 PUSH2 0x43D6 JUMP JUMPDEST DUP1 DUP1 PUSH1 0x20 MUL PUSH1 0x20 ADD PUSH1 0x40 MLOAD SWAP1 DUP2 ADD PUSH1 0x40 MSTORE DUP1 SWAP4 SWAP3 SWAP2 SWAP1 DUP2 DUP2 MSTORE PUSH1 0x20 ADD DUP4 DUP4 PUSH1 0x20 MUL DUP1 DUP3 DUP5 CALLDATACOPY PUSH1 0x0 DUP2 DUP5 ADD MSTORE PUSH1 0x1F NOT PUSH1 0x1F DUP3 ADD AND SWAP1 POP DUP1 DUP4 ADD SWAP3 POP POP POP POP POP POP POP DUP2 PUSH1 0xC0 ADD DUP2 SWAP1 MSTORE POP DUP2 PUSH1 0xE0 ADD CALLDATALOAD DUP2 PUSH1 0xE0 ADD DUP2 DUP2 MSTORE POP POP DUP2 DUP1 PUSH2 0x100 ADD SWAP1 PUSH2 0x13AB SWAP2 SWAP1 PUSH2 0x31AB JUMP JUMPDEST DUP1 DUP1 PUSH1 0x1F ADD PUSH1 0x20 DUP1 SWAP2 DIV MUL PUSH1 0x20 ADD PUSH1 0x40 MLOAD SWAP1 DUP2 ADD PUSH1 0x40 MSTORE DUP1 SWAP4 SWAP3 SWAP2 SWAP1 DUP2 DUP2 MSTORE PUSH1 0x20 ADD DUP4 DUP4 DUP1 DUP3 DUP5 CALLDATACOPY PUSH1 0x0 DUP2 DUP5 ADD MSTORE PUSH1 0x1F NOT PUSH1 0x1F DUP3 ADD AND SWAP1 POP DUP1 DUP4 ADD SWAP3 POP POP POP POP POP POP POP DUP2 PUSH2 0x100 ADD DUP2 SWAP1 MSTORE POP DUP1 PUSH1 0x2 PUSH1 0x0 DUP7 DUP2 MSTORE PUSH1 0x20 ADD SWAP1 DUP2 MSTORE PUSH1 0x20 ADD PUSH1 0x0 KECCAK256 PUSH1 0x0 DUP6 DUP2 MSTORE PUSH1 0x20 ADD SWAP1 DUP2 MSTORE PUSH1 0x20 ADD PUSH1 0x0 KECCAK256 PUSH1 0x0 DUP3 ADD MLOAD DUP2 PUSH1 0x0 ADD SWAP1 DUP2 PUSH2 0x1431 SWAP2 SWAP1 PUSH2 0x4439 JUMP JUMPDEST POP PUSH1 0x20 DUP3 ADD MLOAD DUP2 PUSH1 0x1 ADD SWAP1 DUP1 MLOAD SWAP1 PUSH1 0x20 ADD SWAP1 PUSH2 0x144E SWAP3 SWAP2 SWAP1 PUSH2 0x2154 JUMP JUMPDEST POP PUSH1 0x40 DUP3 ADD MLOAD DUP2 PUSH1 0x2 ADD SWAP1 DUP2 PUSH2 0x1464 SWAP2 SWAP1 PUSH2 0x4439 JUMP JUMPDEST POP PUSH1 0x60 DUP3 ADD MLOAD DUP2 PUSH1 0x3 ADD SWAP1 DUP1 MLOAD SWAP1 PUSH1 0x20 ADD SWAP1 PUSH2 0x1481 SWAP3 SWAP2 SWAP1 PUSH2 0x21AD JUMP JUMPDEST POP PUSH1 0x80 DUP3 ADD MLOAD DUP2 PUSH1 0x4 ADD SSTORE PUSH1 0xA0 DUP3 ADD MLOAD DUP2 PUSH1 0x5 ADD SSTORE PUSH1 0xC0 DUP3 ADD MLOAD DUP2 PUSH1 0x6 ADD SWAP1 DUP1 MLOAD SWAP1 PUSH1 0x20 ADD SWAP1 PUSH2 0x14B2 SWAP3 SWAP2 SWAP1 PUSH2 0x220D JUMP JUMPDEST POP PUSH1 0xE0 DUP3 ADD MLOAD DUP2 PUSH1 0x7 ADD SSTORE PUSH2 0x100 DUP3 ADD MLOAD DUP2 PUSH1 0x8 ADD SWAP1 DUP2 PUSH2 0x14D3 SWAP2 SWAP1 PUSH2 0x4439 JUMP JUMPDEST POP SWAP1 POP POP PUSH32 0x77DEB32519991DDA7821B0B9367F9124AA3FD934F4845BCFD5DC6FA3F1922663 DUP5 DUP5 PUSH1 0x40 MLOAD PUSH2 0x1508 SWAP3 SWAP2 SWAP1 PUSH2 0x451A JUMP JUMPDEST PUSH1 0x40 MLOAD DUP1 SWAP2 SUB SWAP1 LOG1 POP POP POP POP JUMP JUMPDEST PUSH2 0x151E PUSH2 0x1F3B JUMP JUMPDEST PUSH1 0x0 SELFBALANCE SWAP1 POP PUSH1 0x0 DUP2 GT PUSH2 0x1566 JUMPI PUSH1 0x40 MLOAD PUSH32 0x8C379A000000000000000000000000000000000000000000000000000000000 DUP2 MSTORE PUSH1 0x4 ADD PUSH2 0x155D SWAP1 PUSH2 0x458F JUMP JUMPDEST PUSH1 0x40 MLOAD DUP1 SWAP2 SUB SWAP1 REVERT JUMPDEST PUSH1 0x0 PUSH2 0x1570 PUSH2 0x1AC7 JUMP JUMPDEST SWAP1 POP PUSH1 0x0 DUP2 PUSH20 0xFFFFFFFFFFFFFFFFFFFFFFFFFFFFFFFFFFFFFFFF AND DUP4 PUSH1 0x40 MLOAD PUSH2 0x1598 SWAP1 PUSH2 0x45E0 JUMP JUMPDEST PUSH1 0x0 PUSH1 0x40 MLOAD DUP1 DUP4 SUB DUP2 DUP6 DUP8 GAS CALL SWAP3 POP POP POP RETURNDATASIZE DUP1 PUSH1 0x0 DUP2 EQ PUSH2 0x15D5 JUMPI PUSH1 0x40 MLOAD SWAP2 POP PUSH1 0x1F NOT PUSH1 0x3F RETURNDATASIZE ADD AND DUP3 ADD PUSH1 0x40 MSTORE RETURNDATASIZE DUP3 MSTORE RETURNDATASIZE PUSH1 0x0 PUSH1 0x20 DUP5 ADD RETURNDATACOPY PUSH2 0x15DA JUMP JUMPDEST PUSH1 0x60 SWAP2 POP JUMPDEST POP POP SWAP1 POP DUP1 PUSH2 0x161E JUMPI PUSH1 0x40 MLOAD PUSH32 0x8C379A000000000000000000000000000000000000000000000000000000000 DUP2 MSTORE PUSH1 0x4 ADD PUSH2 0x1615 SWAP1 PUSH2 0x4641 JUMP JUMPDEST PUSH1 0x40 MLOAD DUP1 SWAP2 SUB SWAP1 REVERT JUMPDEST PUSH32 0xD964A27D45F595739C13D8B1160B57491050CACF3A2E5602207277D6228F64EE DUP4 DUP4 PUSH1 0x40 MLOAD PUSH2 0x164F SWAP3 SWAP2 SWAP1 PUSH2 0x4682 JUMP JUMPDEST PUSH1 0x40 MLOAD DUP1 SWAP2 SUB SWAP1 LOG1 POP POP POP JUMP JUMPDEST PUSH2 0x1664 PUSH2 0x1F3B JUMP JUMPDEST DUP1 PUSH1 0x4 DUP2 SWAP1 SSTORE POP PUSH32 0x840C2296C4C97ECDC9B8DC544CD67F45A8D629B9D6109410530BB58B7F17B92 DUP2 PUSH1 0x40 MLOAD PUSH2 0x169A SWAP2 SWAP1 PUSH2 0x2FC2 JUMP JUMPDEST PUSH1 0x40 MLOAD DUP1 SWAP2 SUB SWAP1 LOG1 POP JUMP JUMPDEST PUSH2 0x16AD PUSH2 0x1F3B JUMP JUMPDEST DUP1 PUSH1 0x1 PUSH1 0x0 DUP5 DUP2 MSTORE PUSH1 0x20 ADD SWAP1 DUP2 MSTORE PUSH1 0x20 ADD PUSH1 0x0 KECCAK256 PUSH1 0x5 ADD DUP2 DUP2 PUSH2 0x16D0 SWAP2 SWAP1 PUSH2 0x3E9F JUMP JUMPDEST SWAP1 POP POP PUSH32 0xF768BB0DD5BD987CDBC2706C837263B29E7326B0651E4FE20C16372D24CC02AC DUP3 DUP3 PUSH1 0x40 MLOAD PUSH2 0x1704 SWAP3 SWAP2 SWAP1 PUSH2 0x496F JUMP JUMPDEST PUSH1 0x40 MLOAD DUP1 SWAP2 SUB SWAP1 LOG1 POP POP JUMP JUMPDEST PUSH1 0x0 PUSH1 0x1 DUP1 DUP2 GT ISZERO PUSH2 0x1725 JUMPI PUSH2 0x1724 PUSH2 0x2B3A JUMP JUMPDEST JUMPDEST DUP3 PUSH1 0x1 DUP2 GT ISZERO PUSH2 0x1738 JUMPI PUSH2 0x1737 PUSH2 0x2B3A JUMP JUMPDEST JUMPDEST EQ ISZERO DUP1 ISZERO PUSH2 0x176B JUMPI POP PUSH1 0x0 PUSH1 0x1 DUP2 GT ISZERO PUSH2 0x1755 JUMPI PUSH2 0x1754 PUSH2 0x2B3A JUMP JUMPDEST JUMPDEST DUP3 PUSH1 0x1 DUP2 GT ISZERO PUSH2 0x1768 JUMPI PUSH2 0x1767 PUSH2 0x2B3A JUMP JUMPDEST JUMPDEST EQ ISZERO JUMPDEST ISZERO PUSH2 0x17A2 JUMPI PUSH1 0x40 MLOAD PUSH32 0xEC4D40F400000000000000000000000000000000000000000000000000000000 DUP2 MSTORE PUSH1 0x4 ADD PUSH1 0x40 MLOAD DUP1 SWAP2 SUB SWAP1 REVERT JUMPDEST PUSH1 0x0 PUSH1 0x5 SLOAD SWAP1 POP PUSH1 0x3 SLOAD CALLVALUE EQ PUSH2 0x17F3 JUMPI PUSH1 0x3 SLOAD CALLVALUE PUSH1 0x40 MLOAD PUSH32 0xCE6B173B00000000000000000000000000000000000000000000000000000000 DUP2 MSTORE PUSH1 0x4 ADD PUSH2 0x17EA SWAP3 SWAP2 SWAP1 PUSH2 0x499F JUMP JUMPDEST PUSH1 0x40 MLOAD DUP1 SWAP2 SUB SWAP1 REVERT JUMPDEST PUSH32 0xD6E9BD49F32CE5202A849C6AB581631B3E952257363B06975F32872E9E1656C9 CALLER CALLVALUE DUP4 PUSH1 0x40 MLOAD PUSH2 0x1826 SWAP4 SWAP3 SWAP2 SWAP1 PUSH2 0x49C8 JUMP JUMPDEST PUSH1 0x40 MLOAD DUP1 SWAP2 SUB SWAP1 LOG1 PUSH1 0x0 PUSH1 0x1 PUSH1 0x0 DUP4 DUP2 MSTORE PUSH1 0x20 ADD SWAP1 DUP2 MSTORE PUSH1 0x20 ADD PUSH1 0x0 KECCAK256 SWAP1 POP DUP8 DUP2 PUSH1 0x0 ADD DUP2 DUP2 PUSH2 0x1856 SWAP2 SWAP1 PUSH2 0x3A99 JUMP JUMPDEST SWAP1 POP POP DUP7 DUP2 PUSH1 0x5 ADD DUP2 DUP2 PUSH2 0x186A SWAP2 SWAP1 PUSH2 0x3E9F JUMP JUMPDEST SWAP1 POP POP DUP4 DUP2 PUSH1 0x9 ADD PUSH1 0x0 PUSH2 0x100 EXP DUP2 SLOAD DUP2 PUSH1 0xFF MUL NOT AND SWAP1 DUP4 PUSH1 0x1 DUP2 GT ISZERO PUSH2 0x1894 JUMPI PUSH2 0x1893 PUSH2 0x2B3A JUMP JUMPDEST JUMPDEST MUL OR SWAP1 SSTORE POP PUSH1 0x0 DUP2 PUSH1 0x9 ADD PUSH1 0x1 PUSH2 0x100 EXP DUP2 SLOAD DUP2 PUSH1 0xFF MUL NOT AND SWAP1 DUP4 ISZERO ISZERO MUL OR SWAP1 SSTORE POP CALLVALUE DUP2 PUSH1 0xA ADD DUP2 SWAP1 SSTORE POP PUSH1 0x0 JUMPDEST DUP7 DUP7 SWAP1 POP DUP2 LT ISZERO PUSH2 0x191C JUMPI DUP2 PUSH1 0x8 ADD DUP8 DUP8 DUP4 DUP2 DUP2 LT PUSH2 0x18E4 JUMPI PUSH2 0x18E3 PUSH2 0x3EAD JUMP JUMPDEST JUMPDEST SWAP1 POP PUSH1 0x20 MUL ADD CALLDATALOAD SWAP1 DUP1 PUSH1 0x1 DUP2 SLOAD ADD DUP1 DUP3 SSTORE DUP1 SWAP2 POP POP PUSH1 0x1 SWAP1 SUB SWAP1 PUSH1 0x0 MSTORE PUSH1 0x20 PUSH1 0x0 KECCAK256 ADD PUSH1 0x0 SWAP1 SWAP2 SWAP1 SWAP2 SWAP1 SWAP2 POP SSTORE DUP1 PUSH1 0x1 ADD SWAP1 POP PUSH2 0x18C2 JUMP JUMPDEST POP PUSH1 0x5 PUSH1 0x0 DUP2 SLOAD DUP1 SWAP3 SWAP2 SWAP1 PUSH2 0x1930 SWAP1 PUSH2 0x49FF JUMP JUMPDEST SWAP2 SWAP1 POP SSTORE POP PUSH32 0x42C24A3323433819443A75D0E2651A9C84F696FBA638D730042960045EF27241 DUP3 CALLER PUSH1 0x40 MLOAD PUSH2 0x1966 SWAP3 SWAP2 SWAP1 PUSH2 0x4A47 JUMP JUMPDEST PUSH1 0x40 MLOAD DUP1 SWAP2 SUB SWAP1 LOG1 DUP2 SWAP3 POP POP POP SWAP6 SWAP5 POP POP POP POP POP JUMP JUMPDEST PUSH2 0x1984 PUSH2 0x1F3B JUMP JUMPDEST PUSH2 0x198E PUSH1 0x0 PUSH2 0x1FC2 JUMP JUMPDEST JUMP JUMPDEST PUSH2 0x1998 PUSH2 0x1F3B JUMP JUMPDEST DUP1 PUSH1 0x1 PUSH1 0x0 DUP5 DUP2 MSTORE PUSH1 0x20 ADD SWAP1 DUP2 MSTORE PUSH1 0x20 ADD PUSH1 0x0 KECCAK256 PUSH1 0x9 ADD PUSH1 0x0 PUSH2 0x100 EXP DUP2 SLOAD DUP2 PUSH1 0xFF MUL NOT AND SWAP1 DUP4 PUSH1 0x1 DUP2 GT ISZERO PUSH2 0x19D1 JUMPI PUSH2 0x19D0 PUSH2 0x2B3A JUMP JUMPDEST JUMPDEST MUL OR SWAP1 SSTORE POP PUSH32 0xEAEEE81CA4B132C1F2699CF2E7F71C26ADB6FFE780097AC7D6E9DDF978398B62 DUP3 DUP3 PUSH1 0x40 MLOAD PUSH2 0x1A07 SWAP3 SWAP2 SWAP1 PUSH2 0x4A7F JUMP JUMPDEST PUSH1 0x40 MLOAD DUP1 SWAP2 SUB SWAP1 LOG1 POP POP JUMP JUMPDEST PUSH2 0x1A1B PUSH2 0x1F3B JUMP JUMPDEST DUP1 PUSH1 0x1 PUSH1 0x0 DUP5 DUP2 MSTORE PUSH1 0x20 ADD SWAP1 DUP2 MSTORE PUSH1 0x20 ADD PUSH1 0x0 KECCAK256 PUSH1 0x0 ADD DUP2 DUP2 PUSH2 0x1A3E SWAP2 SWAP1 PUSH2 0x3A99 JUMP JUMPDEST SWAP1 POP POP PUSH32 0x440C55E385A61CD472C0CD76EE015CAB9BD0760AEF9634633E6597FDEA583FD5 DUP3 DUP3 PUSH1 0x40 MLOAD PUSH2 0x1A72 SWAP3 SWAP2 SWAP1 PUSH2 0x4C76 JUMP JUMPDEST PUSH1 0x40 MLOAD DUP1 SWAP2 SUB SWAP1 LOG1 POP POP JUMP JUMPDEST PUSH2 0x1A86 PUSH2 0x1F3B JUMP JUMPDEST DUP1 PUSH1 0x3 DUP2 SWAP1 SSTORE POP PUSH32 0xAC9C054628BA106D4664C2C08386354E161EAB546A0A47FAF040BFC1062845E7 DUP2 PUSH1 0x40 MLOAD PUSH2 0x1ABC SWAP2 SWAP1 PUSH2 0x2FC2 JUMP JUMPDEST PUSH1 0x40 MLOAD DUP1 SWAP2 SUB SWAP1 LOG1 POP JUMP JUMPDEST PUSH1 0x0 DUP1 PUSH1 0x0 SWAP1 SLOAD SWAP1 PUSH2 0x100 EXP SWAP1 DIV PUSH20 0xFFFFFFFFFFFFFFFFFFFFFFFFFFFFFFFFFFFFFFFF AND SWAP1 POP SWAP1 JUMP JUMPDEST PUSH1 0x0 PUSH1 0x5 SLOAD SWAP1 POP SWAP1 JUMP JUMPDEST PUSH2 0x1B02 PUSH2 0x1F3B JUMP JUMPDEST PUSH1 0x0 PUSH1 0x1 PUSH1 0x0 DUP5 DUP2 MSTORE PUSH1 0x20 ADD SWAP1 DUP2 MSTORE PUSH1 0x20 ADD PUSH1 0x0 KECCAK256 PUSH1 0x8 ADD SWAP1 POP PUSH1 0x0 JUMPDEST DUP2 DUP1 SLOAD SWAP1 POP DUP2 LT ISZERO PUSH2 0x1C12 JUMPI DUP3 DUP3 DUP3 DUP2 SLOAD DUP2 LT PUSH2 0x1B3F JUMPI PUSH2 0x1B3E PUSH2 0x3EAD JUMP JUMPDEST JUMPDEST SWAP1 PUSH1 0x0 MSTORE PUSH1 0x20 PUSH1 0x0 KECCAK256 ADD SLOAD SUB PUSH2 0x1C05 JUMPI DUP2 PUSH1 0x1 DUP4 DUP1 SLOAD SWAP1 POP PUSH2 0x1B61 SWAP2 SWAP1 PUSH2 0x3FEB JUMP JUMPDEST DUP2 SLOAD DUP2 LT PUSH2 0x1B72 JUMPI PUSH2 0x1B71 PUSH2 0x3EAD JUMP JUMPDEST JUMPDEST SWAP1 PUSH1 0x0 MSTORE PUSH1 0x20 PUSH1 0x0 KECCAK256 ADD SLOAD DUP3 DUP3 DUP2 SLOAD DUP2 LT PUSH2 0x1B90 JUMPI PUSH2 0x1B8F PUSH2 0x3EAD JUMP JUMPDEST JUMPDEST SWAP1 PUSH1 0x0 MSTORE PUSH1 0x20 PUSH1 0x0 KECCAK256 ADD DUP2 SWAP1 SSTORE POP DUP2 DUP1 SLOAD DUP1 PUSH2 0x1BAF JUMPI PUSH2 0x1BAE PUSH2 0x4CA6 JUMP JUMPDEST JUMPDEST PUSH1 0x1 SWAP1 SUB DUP2 DUP2 SWAP1 PUSH1 0x0 MSTORE PUSH1 0x20 PUSH1 0x0 KECCAK256 ADD PUSH1 0x0 SWAP1 SSTORE SWAP1 SSTORE PUSH32 0x2264FA092E5819982F4EDCA5B7E9C6318A16DC3E03673510429C078656DEA45C DUP5 DUP5 PUSH1 0x40 MLOAD PUSH2 0x1BF6 SWAP3 SWAP2 SWAP1 PUSH2 0x499F JUMP JUMPDEST PUSH1 0x40 MLOAD DUP1 SWAP2 SUB SWAP1 LOG1 POP POP PUSH2 0x1C50 JUMP JUMPDEST DUP1 DUP1 PUSH1 0x1 ADD SWAP2 POP POP PUSH2 0x1B1F JUMP JUMPDEST POP DUP2 PUSH1 0x40 MLOAD PUSH32 0x84CE930A00000000000000000000000000000000000000000000000000000000 DUP2 MSTORE PUSH1 0x4 ADD PUSH2 0x1C47 SWAP2 SWAP1 PUSH2 0x2FC2 JUMP JUMPDEST PUSH1 0x40 MLOAD DUP1 SWAP2 SUB SWAP1 REVERT JUMPDEST POP POP JUMP JUMPDEST PUSH1 0x0 CALLVALUE SUB PUSH2 0x1C8E JUMPI PUSH1 0x40 MLOAD PUSH32 0x1F2A200500000000000000000000000000000000000000000000000000000000 DUP2 MSTORE PUSH1 0x4 ADD PUSH1 0x40 MLOAD DUP1 SWAP2 SUB SWAP1 REVERT JUMPDEST CALLVALUE PUSH1 0x1 PUSH1 0x0 DUP4 DUP2 MSTORE PUSH1 0x20 ADD SWAP1 DUP2 MSTORE PUSH1 0x20 ADD PUSH1 0x0 KECCAK256 PUSH1 0xA ADD PUSH1 0x0 DUP3 DUP3 SLOAD PUSH2 0x1CB4 SWAP2 SWAP1 PUSH2 0x4CD5 JUMP JUMPDEST SWAP3 POP POP DUP2 SWAP1 SSTORE POP PUSH1 0x1 PUSH1 0x0 DUP3 DUP2 MSTORE PUSH1 0x20 ADD SWAP1 DUP2 MSTORE PUSH1 0x20 ADD PUSH1 0x0 KECCAK256 PUSH1 0x9 ADD PUSH1 0x1 SWAP1 SLOAD SWAP1 PUSH2 0x100 EXP SWAP1 DIV PUSH1 0xFF AND ISZERO PUSH2 0x1D6B JUMPI PUSH1 0x4 SLOAD PUSH1 0x1 PUSH1 0x0 DUP4 DUP2 MSTORE PUSH1 0x20 ADD SWAP1 DUP2 MSTORE PUSH1 0x20 ADD PUSH1 0x0 KECCAK256 PUSH1 0xA ADD SLOAD LT PUSH2 0x1D6A JUMPI PUSH1 0x0 PUSH1 0x1 PUSH1 0x0 DUP4 DUP2 MSTORE PUSH1 0x20 ADD SWAP1 DUP2 MSTORE PUSH1 0x20 ADD PUSH1 0x0 KECCAK256 PUSH1 0x9 ADD PUSH1 0x1 PUSH2 0x100 EXP DUP2 SLOAD DUP2 PUSH1 0xFF MUL NOT AND SWAP1 DUP4 ISZERO ISZERO MUL OR SWAP1 SSTORE POP PUSH32 0x8DA007FC61F3601008AA139C728EA9BF16672668B03C07F6C402AB74C034FC81 DUP2 PUSH1 0x40 MLOAD PUSH2 0x1D61 SWAP2 SWAP1 PUSH2 0x2FC2 JUMP JUMPDEST PUSH1 0x40 MLOAD DUP1 SWAP2 SUB SWAP1 LOG1 JUMPDEST JUMPDEST PUSH32 0xD6E9BD49F32CE5202A849C6AB581631B3E952257363B06975F32872E9E1656C9 CALLER CALLVALUE DUP4 PUSH1 0x40 MLOAD PUSH2 0x1D9E SWAP4 SWAP3 SWAP2 SWAP1 PUSH2 0x49C8 JUMP JUMPDEST PUSH1 0x40 MLOAD DUP1 SWAP2 SUB SWAP1 LOG1 POP JUMP JUMPDEST PUSH1 0x0 PUSH1 0x3 SLOAD SWAP1 POP SWAP1 JUMP JUMPDEST PUSH2 0x1DBB PUSH2 0x1F3B JUMP JUMPDEST PUSH1 0x1 PUSH1 0x0 DUP4 DUP2 MSTORE PUSH1 0x20 ADD SWAP1 DUP2 MSTORE PUSH1 0x20 ADD PUSH1 0x0 KECCAK256 PUSH1 0x8 ADD DUP2 SWAP1 DUP1 PUSH1 0x1 DUP2 SLOAD ADD DUP1 DUP3 SSTORE DUP1 SWAP2 POP POP PUSH1 0x1 SWAP1 SUB SWAP1 PUSH1 0x0 MSTORE PUSH1 0x20 PUSH1 0x0 KECCAK256 ADD PUSH1 0x0 SWAP1 SWAP2 SWAP1 SWAP2 SWAP1 SWAP2 POP SSTORE PUSH32 0xFCDFD5AEB97F499CA134ED43F010F2A4F5B0AB73D317AC27246A066A050A73AF DUP3 DUP3 PUSH1 0x40 MLOAD PUSH2 0x1E29 SWAP3 SWAP2 SWAP1 PUSH2 0x499F JUMP JUMPDEST PUSH1 0x40 MLOAD DUP1 SWAP2 SUB SWAP1 LOG1 POP POP JUMP JUMPDEST PUSH1 0x0 PUSH1 0x4 SLOAD SWAP1 POP SWAP1 JUMP JUMPDEST PUSH2 0x1E47 PUSH2 0x1F3B JUMP JUMPDEST DUP1 PUSH1 0x1 PUSH1 0x0 DUP5 DUP2 MSTORE PUSH1 0x20 ADD SWAP1 DUP2 MSTORE PUSH1 0x20 ADD PUSH1 0x0 KECCAK256 PUSH1 0x0 ADD PUSH1 0x4 ADD PUSH1 0x0 PUSH2 0x100 EXP DUP2 SLOAD DUP2 PUSH1 0xFF MUL NOT AND SWAP1 DUP4 ISZERO ISZERO MUL OR SWAP1 SSTORE POP PUSH32 0xED2F2C7A2316DDC2F46A4581250611F807810052BB38BEF2FBD1A81D087E064B DUP3 DUP3 PUSH1 0x40 MLOAD PUSH2 0x1EA9 SWAP3 SWAP2 SWAP1 PUSH2 0x4D18 JUMP JUMPDEST PUSH1 0x40 MLOAD DUP1 SWAP2 SUB SWAP1 LOG1 POP POP JUMP JUMPDEST PUSH2 0x1EBD PUSH2 0x1F3B JUMP JUMPDEST PUSH1 0x0 PUSH20 0xFFFFFFFFFFFFFFFFFFFFFFFFFFFFFFFFFFFFFFFF AND DUP2 PUSH20 0xFFFFFFFFFFFFFFFFFFFFFFFFFFFFFFFFFFFFFFFF AND SUB PUSH2 0x1F2F JUMPI PUSH1 0x0 PUSH1 0x40 MLOAD PUSH32 0x1E4FBDF700000000000000000000000000000000000000000000000000000000 DUP2 MSTORE PUSH1 0x4 ADD PUSH2 0x1F26 SWAP2 SWAP1 PUSH2 0x3079 JUMP JUMPDEST PUSH1 0x40 MLOAD DUP1 SWAP2 SUB SWAP1 REVERT JUMPDEST PUSH2 0x1F38 DUP2 PUSH2 0x1FC2 JUMP JUMPDEST POP JUMP JUMPDEST PUSH2 0x1F43 PUSH2 0x2086 JUMP JUMPDEST PUSH20 0xFFFFFFFFFFFFFFFFFFFFFFFFFFFFFFFFFFFFFFFF AND PUSH2 0x1F61 PUSH2 0x1AC7 JUMP JUMPDEST PUSH20 0xFFFFFFFFFFFFFFFFFFFFFFFFFFFFFFFFFFFFFFFF AND EQ PUSH2 0x1FC0 JUMPI PUSH2 0x1F84 PUSH2 0x2086 JUMP JUMPDEST PUSH1 0x40 MLOAD PUSH32 0x118CDAA700000000000000000000000000000000000000000000000000000000 DUP2 MSTORE PUSH1 0x4 ADD PUSH2 0x1FB7 SWAP2 SWAP1 PUSH2 0x3079 JUMP JUMPDEST PUSH1 0x40 MLOAD DUP1 SWAP2 SUB SWAP1 REVERT JUMPDEST JUMP JUMPDEST PUSH1 0x0 DUP1 PUSH1 0x0 SWAP1 SLOAD SWAP1 PUSH2 0x100 EXP SWAP1 DIV PUSH20 0xFFFFFFFFFFFFFFFFFFFFFFFFFFFFFFFFFFFFFFFF AND SWAP1 POP DUP2 PUSH1 0x0 DUP1 PUSH2 0x100 EXP DUP2 SLOAD DUP2 PUSH20 0xFFFFFFFFFFFFFFFFFFFFFFFFFFFFFFFFFFFFFFFF MUL NOT AND SWAP1 DUP4 PUSH20 0xFFFFFFFFFFFFFFFFFFFFFFFFFFFFFFFFFFFFFFFF AND MUL OR SWAP1 SSTORE POP DUP2 PUSH20 0xFFFFFFFFFFFFFFFFFFFFFFFFFFFFFFFFFFFFFFFF AND DUP2 PUSH20 0xFFFFFFFFFFFFFFFFFFFFFFFFFFFFFFFFFFFFFFFF AND PUSH32 0x8BE0079C531659141344CD1FD0A4F28419497F9722A3DAAFE3B4186F6B6457E0 PUSH1 0x40 MLOAD PUSH1 0x40 MLOAD DUP1 SWAP2 SUB SWAP1 LOG3 POP POP JUMP JUMPDEST PUSH1 0x0 CALLER SWAP1 POP SWAP1 JUMP JUMPDEST POP DUP1 SLOAD PUSH1 0x0 DUP3 SSTORE SWAP1 PUSH1 0x0 MSTORE PUSH1 0x20 PUSH1 0x0 KECCAK256 SWAP1 DUP2 ADD SWAP1 PUSH2 0x20AC SWAP2 SWAP1 PUSH2 0x225A JUMP JUMPDEST POP JUMP JUMPDEST PUSH1 0x40 MLOAD DUP1 PUSH2 0x120 ADD PUSH1 0x40 MSTORE DUP1 PUSH1 0x60 DUP2 MSTORE PUSH1 0x20 ADD PUSH1 0x60 DUP2 MSTORE PUSH1 0x20 ADD PUSH1 0x60 DUP2 MSTORE PUSH1 0x20 ADD PUSH1 0x60 DUP2 MSTORE PUSH1 0x20 ADD PUSH1 0x0 DUP2 MSTORE PUSH1 0x20 ADD PUSH1 0x0 DUP2 MSTORE PUSH1 0x20 ADD PUSH1 0x60 DUP2 MSTORE PUSH1 0x20 ADD PUSH1 0x0 DUP1 NOT AND DUP2 MSTORE PUSH1 0x20 ADD PUSH1 0x60 DUP2 MSTORE POP SWAP1 JUMP JUMPDEST PUSH1 0x40 MLOAD DUP1 PUSH1 0xC0 ADD PUSH1 0x40 MSTORE DUP1 PUSH2 0x2111 PUSH2 0x2277 JUMP JUMPDEST DUP2 MSTORE PUSH1 0x20 ADD PUSH2 0x211E PUSH2 0x22A8 JUMP JUMPDEST DUP2 MSTORE PUSH1 0x20 ADD PUSH1 0x60 DUP2 MSTORE PUSH1 0x20 ADD PUSH1 0x0 PUSH1 0x1 DUP2 GT ISZERO PUSH2 0x213E JUMPI PUSH2 0x213D PUSH2 0x2B3A JUMP JUMPDEST JUMPDEST DUP2 MSTORE PUSH1 0x20 ADD PUSH1 0x0 ISZERO ISZERO DUP2 MSTORE PUSH1 0x20 ADD PUSH1 0x0 DUP2 MSTORE POP SWAP1 JUMP JUMPDEST DUP3 DUP1 SLOAD DUP3 DUP3 SSTORE SWAP1 PUSH1 0x0 MSTORE PUSH1 0x20 PUSH1 0x0 KECCAK256 SWAP1 DUP2 ADD SWAP3 DUP3 ISZERO PUSH2 0x219C JUMPI SWAP2 PUSH1 0x20 MUL DUP3 ADD JUMPDEST DUP3 DUP2 GT ISZERO PUSH2 0x219B JUMPI DUP3 MLOAD DUP3 SWAP1 DUP2 PUSH2 0x218B SWAP2 SWAP1 PUSH2 0x4439 JUMP JUMPDEST POP SWAP2 PUSH1 0x20 ADD SWAP2 SWAP1 PUSH1 0x1 ADD SWAP1 PUSH2 0x2174 JUMP JUMPDEST JUMPDEST POP SWAP1 POP PUSH2 0x21A9 SWAP2 SWAP1 PUSH2 0x22DB JUMP JUMPDEST POP SWAP1 JUMP JUMPDEST DUP3 DUP1 SLOAD DUP3 DUP3 SSTORE SWAP1 PUSH1 0x0 MSTORE PUSH1 0x20 PUSH1 0x0 KECCAK256 SWAP1 DUP2 ADD SWAP3 DUP3 ISZERO PUSH2 0x21FC JUMPI SWAP2 PUSH1 0x20 MUL DUP3 ADD JUMPDEST DUP3 DUP2 GT ISZERO PUSH2 0x21FB JUMPI DUP3 MLOAD DUP3 SWAP1 DUP1 MLOAD SWAP1 PUSH1 0x20 ADD SWAP1 PUSH2 0x21EB SWAP3 SWAP2 SWAP1 PUSH2 0x220D JUMP JUMPDEST POP SWAP2 PUSH1 0x20 ADD SWAP2 SWAP1 PUSH1 0x1 ADD SWAP1 PUSH2 0x21CD JUMP JUMPDEST JUMPDEST POP SWAP1 POP PUSH2 0x2209 SWAP2 SWAP1 PUSH2 0x22FF JUMP JUMPDEST POP SWAP1 JUMP JUMPDEST DUP3 DUP1 SLOAD DUP3 DUP3 SSTORE SWAP1 PUSH1 0x0 MSTORE PUSH1 0x20 PUSH1 0x0 KECCAK256 SWAP1 DUP2 ADD SWAP3 DUP3 ISZERO PUSH2 0x2249 JUMPI SWAP2 PUSH1 0x20 MUL DUP3 ADD JUMPDEST DUP3 DUP2 GT ISZERO PUSH2 0x2248 JUMPI DUP3 MLOAD DUP3 SSTORE SWAP2 PUSH1 0x20 ADD SWAP2 SWAP1 PUSH1 0x1 ADD SWAP1 PUSH2 0x222D JUMP JUMPDEST JUMPDEST POP SWAP1 POP PUSH2 0x2256 SWAP2 SWAP1 PUSH2 0x225A JUMP JUMPDEST POP SWAP1 JUMP JUMPDEST JUMPDEST DUP1 DUP3 GT ISZERO PUSH2 0x2273 JUMPI PUSH1 0x0 DUP2 PUSH1 0x0 SWAP1 SSTORE POP PUSH1 0x1 ADD PUSH2 0x225B JUMP JUMPDEST POP SWAP1 JUMP JUMPDEST PUSH1 0x40 MLOAD DUP1 PUSH1 0xA0 ADD PUSH1 0x40 MSTORE DUP1 PUSH1 0x60 DUP2 MSTORE PUSH1 0x20 ADD PUSH1 0x60 DUP2 MSTORE PUSH1 0x20 ADD PUSH1 0x60 DUP2 MSTORE PUSH1 0x20 ADD PUSH1 0x60 DUP2 MSTORE PUSH1 0x20 ADD PUSH1 0x0 ISZERO ISZERO DUP2 MSTORE POP SWAP1 JUMP JUMPDEST PUSH1 0x40 MLOAD DUP1 PUSH1 0x60 ADD PUSH1 0x40 MSTORE DUP1 PUSH1 0x0 PUSH1 0x5 DUP2 GT ISZERO PUSH2 0x22C7 JUMPI PUSH2 0x22C6 PUSH2 0x2B3A JUMP JUMPDEST JUMPDEST DUP2 MSTORE PUSH1 0x20 ADD PUSH1 0x60 DUP2 MSTORE PUSH1 0x20 ADD PUSH1 0x60 DUP2 MSTORE POP SWAP1 JUMP JUMPDEST JUMPDEST DUP1 DUP3 GT ISZERO PUSH2 0x22FB JUMPI PUSH1 0x0 DUP2 DUP2 PUSH2 0x22F2 SWAP2 SWAP1 PUSH2 0x2323 JUMP JUMPDEST POP PUSH1 0x1 ADD PUSH2 0x22DC JUMP JUMPDEST POP SWAP1 JUMP JUMPDEST JUMPDEST DUP1 DUP3 GT ISZERO PUSH2 0x231F JUMPI PUSH1 0x0 DUP2 DUP2 PUSH2 0x2316 SWAP2 SWAP1 PUSH2 0x208E JUMP JUMPDEST POP PUSH1 0x1 ADD PUSH2 0x2300 JUMP JUMPDEST POP SWAP1 JUMP JUMPDEST POP DUP1 SLOAD PUSH2 0x232F SWAP1 PUSH2 0x3277 JUMP JUMPDEST PUSH1 0x0 DUP3 SSTORE DUP1 PUSH1 0x1F LT PUSH2 0x2341 JUMPI POP PUSH2 0x2360 JUMP JUMPDEST PUSH1 0x1F ADD PUSH1 0x20 SWAP1 DIV SWAP1 PUSH1 0x0 MSTORE PUSH1 0x20 PUSH1 0x0 KECCAK256 SWAP1 DUP2 ADD SWAP1 PUSH2 0x235F SWAP2 SWAP1 PUSH2 0x225A JUMP JUMPDEST JUMPDEST POP JUMP JUMPDEST PUSH1 0x0 PUSH20 0xFFFFFFFFFFFFFFFFFFFFFFFFFFFFFFFFFFFFFFFF DUP3 AND SWAP1 POP SWAP2 SWAP1 POP JUMP JUMPDEST PUSH1 0x0 PUSH2 0x238E DUP3 PUSH2 0x2363 JUMP JUMPDEST SWAP1 POP SWAP2 SWAP1 POP JUMP JUMPDEST PUSH2 0x239E DUP2 PUSH2 0x2383 JUMP JUMPDEST DUP3 MSTORE POP POP JUMP JUMPDEST PUSH1 0x0 DUP2 SWAP1 POP SWAP2 SWAP1 POP JUMP JUMPDEST PUSH2 0x23B7 DUP2 PUSH2 0x23A4 JUMP JUMPDEST DUP3 MSTORE POP POP JUMP JUMPDEST PUSH1 0x0 PUSH1 0x40 DUP3 ADD SWAP1 POP PUSH2 0x23D2 PUSH1 0x0 DUP4 ADD DUP6 PUSH2 0x2395 JUMP JUMPDEST PUSH2 0x23DF PUSH1 0x20 DUP4 ADD DUP5 PUSH2 0x23AE JUMP JUMPDEST SWAP4 SWAP3 POP POP POP JUMP JUMPDEST PUSH1 0x0 PUSH1 0x40 MLOAD SWAP1 POP SWAP1 JUMP JUMPDEST PUSH1 0x0 DUP1 REVERT JUMPDEST PUSH1 0x0 DUP1 REVERT JUMPDEST PUSH2 0x2403 DUP2 PUSH2 0x23A4 JUMP JUMPDEST DUP2 EQ PUSH2 0x240E JUMPI PUSH1 0x0 DUP1 REVERT JUMPDEST POP JUMP JUMPDEST PUSH1 0x0 DUP2 CALLDATALOAD SWAP1 POP PUSH2 0x2420 DUP2 PUSH2 0x23FA JUMP JUMPDEST SWAP3 SWAP2 POP POP JUMP JUMPDEST PUSH1 0x0 DUP1 REVERT JUMPDEST PUSH1 0x0 PUSH1 0xA0 DUP3 DUP5 SUB SLT ISZERO PUSH2 0x2441 JUMPI PUSH2 0x2440 PUSH2 0x2426 JUMP JUMPDEST JUMPDEST DUP2 SWAP1 POP SWAP3 SWAP2 POP POP JUMP JUMPDEST PUSH1 0x0 PUSH1 0x60 DUP3 DUP5 SUB SLT ISZERO PUSH2 0x2460 JUMPI PUSH2 0x245F PUSH2 0x2426 JUMP JUMPDEST JUMPDEST DUP2 SWAP1 POP SWAP3 SWAP2 POP POP JUMP JUMPDEST PUSH1 0x0 DUP1 REVERT JUMPDEST PUSH1 0x0 DUP1 REVERT JUMPDEST PUSH1 0x0 DUP1 REVERT JUMPDEST PUSH1 0x0 DUP1 DUP4 PUSH1 0x1F DUP5 ADD SLT PUSH2 0x248E JUMPI PUSH2 0x248D PUSH2 0x2469 JUMP JUMPDEST JUMPDEST DUP3 CALLDATALOAD SWAP1 POP PUSH8 0xFFFFFFFFFFFFFFFF DUP2 GT ISZERO PUSH2 0x24AB JUMPI PUSH2 0x24AA PUSH2 0x246E JUMP JUMPDEST JUMPDEST PUSH1 0x20 DUP4 ADD SWAP2 POP DUP4 PUSH1 0x20 DUP3 MUL DUP4 ADD GT ISZERO PUSH2 0x24C7 JUMPI PUSH2 0x24C6 PUSH2 0x2473 JUMP JUMPDEST JUMPDEST SWAP3 POP SWAP3 SWAP1 POP JUMP JUMPDEST PUSH1 0x2 DUP2 LT PUSH2 0x24DB JUMPI PUSH1 0x0 DUP1 REVERT JUMPDEST POP JUMP JUMPDEST PUSH1 0x0 DUP2 CALLDATALOAD SWAP1 POP PUSH2 0x24ED DUP2 PUSH2 0x24CE JUMP JUMPDEST SWAP3 SWAP2 POP POP JUMP JUMPDEST PUSH1 0x0 DUP2 ISZERO ISZERO SWAP1 POP SWAP2 SWAP1 POP JUMP JUMPDEST PUSH2 0x2508 DUP2 PUSH2 0x24F3 JUMP JUMPDEST DUP2 EQ PUSH2 0x2513 JUMPI PUSH1 0x0 DUP1 REVERT JUMPDEST POP JUMP JUMPDEST PUSH1 0x0 DUP2 CALLDATALOAD SWAP1 POP PUSH2 0x2525 DUP2 PUSH2 0x24FF JUMP JUMPDEST SWAP3 SWAP2 POP POP JUMP JUMPDEST PUSH1 0x0 DUP1 PUSH1 0x0 DUP1 PUSH1 0x0 DUP1 PUSH1 0x0 PUSH1 0xC0 DUP9 DUP11 SUB SLT ISZERO PUSH2 0x254A JUMPI PUSH2 0x2549 PUSH2 0x23F0 JUMP JUMPDEST JUMPDEST PUSH1 0x0 PUSH2 0x2558 DUP11 DUP3 DUP12 ADD PUSH2 0x2411 JUMP JUMPDEST SWAP8 POP POP PUSH1 0x20 DUP9 ADD CALLDATALOAD PUSH8 0xFFFFFFFFFFFFFFFF DUP2 GT ISZERO PUSH2 0x2579 JUMPI PUSH2 0x2578 PUSH2 0x23F5 JUMP JUMPDEST JUMPDEST PUSH2 0x2585 DUP11 DUP3 DUP12 ADD PUSH2 0x242B JUMP JUMPDEST SWAP7 POP POP PUSH1 0x40 DUP9 ADD CALLDATALOAD PUSH8 0xFFFFFFFFFFFFFFFF DUP2 GT ISZERO PUSH2 0x25A6 JUMPI PUSH2 0x25A5 PUSH2 0x23F5 JUMP JUMPDEST JUMPDEST PUSH2 0x25B2 DUP11 DUP3 DUP12 ADD PUSH2 0x244A JUMP JUMPDEST SWAP6 POP POP PUSH1 0x60 DUP9 ADD CALLDATALOAD PUSH8 0xFFFFFFFFFFFFFFFF DUP2 GT ISZERO PUSH2 0x25D3 JUMPI PUSH2 0x25D2 PUSH2 0x23F5 JUMP JUMPDEST JUMPDEST PUSH2 0x25DF DUP11 DUP3 DUP12 ADD PUSH2 0x2478 JUMP JUMPDEST SWAP5 POP SWAP5 POP POP PUSH1 0x80 PUSH2 0x25F2 DUP11 DUP3 DUP12 ADD PUSH2 0x24DE JUMP JUMPDEST SWAP3 POP POP PUSH1 0xA0 PUSH2 0x2603 DUP11 DUP3 DUP12 ADD PUSH2 0x2516 JUMP JUMPDEST SWAP2 POP POP SWAP3 SWAP6 SWAP9 SWAP2 SWAP5 SWAP8 POP SWAP3 SWAP6 POP JUMP JUMPDEST PUSH1 0x0 DUP2 SWAP1 POP SWAP2 SWAP1 POP JUMP JUMPDEST PUSH2 0x2625 DUP2 PUSH2 0x2612 JUMP JUMPDEST DUP2 EQ PUSH2 0x2630 JUMPI PUSH1 0x0 DUP1 REVERT JUMPDEST POP JUMP JUMPDEST PUSH1 0x0 DUP2 CALLDATALOAD SWAP1 POP PUSH2 0x2642 DUP2 PUSH2 0x261C JUMP JUMPDEST SWAP3 SWAP2 POP POP JUMP JUMPDEST PUSH1 0x0 DUP1 PUSH1 0x40 DUP4 DUP6 SUB SLT ISZERO PUSH2 0x265F JUMPI PUSH2 0x265E PUSH2 0x23F0 JUMP JUMPDEST JUMPDEST PUSH1 0x0 PUSH2 0x266D DUP6 DUP3 DUP7 ADD PUSH2 0x2411 JUMP JUMPDEST SWAP3 POP POP PUSH1 0x20 PUSH2 0x267E DUP6 DUP3 DUP7 ADD PUSH2 0x2633 JUMP JUMPDEST SWAP2 POP POP SWAP3 POP SWAP3 SWAP1 POP JUMP JUMPDEST PUSH1 0x0 DUP2 MLOAD SWAP1 POP SWAP2 SWAP1 POP JUMP JUMPDEST PUSH1 0x0 DUP3 DUP3 MSTORE PUSH1 0x20 DUP3 ADD SWAP1 POP SWAP3 SWAP2 POP POP JUMP JUMPDEST PUSH1 0x0 JUMPDEST DUP4 DUP2 LT ISZERO PUSH2 0x26C2 JUMPI DUP1 DUP3 ADD MLOAD DUP2 DUP5 ADD MSTORE PUSH1 0x20 DUP2 ADD SWAP1 POP PUSH2 0x26A7 JUMP JUMPDEST PUSH1 0x0 DUP5 DUP5 ADD MSTORE POP POP POP POP JUMP JUMPDEST PUSH1 0x0 PUSH1 0x1F NOT PUSH1 0x1F DUP4 ADD AND SWAP1 POP SWAP2 SWAP1 POP JUMP JUMPDEST PUSH1 0x0 PUSH2 0x26EA DUP3 PUSH2 0x2688 JUMP JUMPDEST PUSH2 0x26F4 DUP2 DUP6 PUSH2 0x2693 JUMP JUMPDEST SWAP4 POP PUSH2 0x2704 DUP2 DUP6 PUSH1 0x20 DUP7 ADD PUSH2 0x26A4 JUMP JUMPDEST PUSH2 0x270D DUP2 PUSH2 0x26CE JUMP JUMPDEST DUP5 ADD SWAP2 POP POP SWAP3 SWAP2 POP POP JUMP JUMPDEST PUSH1 0x0 DUP2 MLOAD SWAP1 POP SWAP2 SWAP1 POP JUMP JUMPDEST PUSH1 0x0 DUP3 DUP3 MSTORE PUSH1 0x20 DUP3 ADD SWAP1 POP SWAP3 SWAP2 POP POP JUMP JUMPDEST PUSH1 0x0 DUP2 SWAP1 POP PUSH1 0x20 DUP3 ADD SWAP1 POP SWAP2 SWAP1 POP JUMP JUMPDEST PUSH1 0x0 PUSH2 0x2750 DUP4 DUP4 PUSH2 0x26DF JUMP JUMPDEST SWAP1 POP SWAP3 SWAP2 POP POP JUMP JUMPDEST PUSH1 0x0 PUSH1 0x20 DUP3 ADD SWAP1 POP SWAP2 SWAP1 POP JUMP JUMPDEST PUSH1 0x0 PUSH2 0x2770 DUP3 PUSH2 0x2718 JUMP JUMPDEST PUSH2 0x277A DUP2 DUP6 PUSH2 0x2723 JUMP JUMPDEST SWAP4 POP DUP4 PUSH1 0x20 DUP3 MUL DUP6 ADD PUSH2 0x278C DUP6 PUSH2 0x2734 JUMP JUMPDEST DUP1 PUSH1 0x0 JUMPDEST DUP6 DUP2 LT ISZERO PUSH2 0x27C8 JUMPI DUP5 DUP5 SUB DUP10 MSTORE DUP2 MLOAD PUSH2 0x27A9 DUP6 DUP3 PUSH2 0x2744 JUMP JUMPDEST SWAP5 POP PUSH2 0x27B4 DUP4 PUSH2 0x2758 JUMP JUMPDEST SWAP3 POP PUSH1 0x20 DUP11 ADD SWAP10 POP POP PUSH1 0x1 DUP2 ADD SWAP1 POP PUSH2 0x2790 JUMP JUMPDEST POP DUP3 SWAP8 POP DUP8 SWAP6 POP POP POP POP POP POP SWAP3 SWAP2 POP POP JUMP JUMPDEST PUSH1 0x0 DUP2 MLOAD SWAP1 POP SWAP2 SWAP1 POP JUMP JUMPDEST PUSH1 0x0 DUP3 DUP3 MSTORE PUSH1 0x20 DUP3 ADD SWAP1 POP SWAP3 SWAP2 POP POP JUMP JUMPDEST PUSH1 0x0 DUP2 SWAP1 POP PUSH1 0x20 DUP3 ADD SWAP1 POP SWAP2 SWAP1 POP JUMP JUMPDEST PUSH1 0x0 DUP2 MLOAD SWAP1 POP SWAP2 SWAP1 POP JUMP JUMPDEST PUSH1 0x0 DUP3 DUP3 MSTORE PUSH1 0x20 DUP3 ADD SWAP1 POP SWAP3 SWAP2 POP POP JUMP JUMPDEST PUSH1 0x0 DUP2 SWAP1 POP PUSH1 0x20 DUP3 ADD SWAP1 POP SWAP2 SWAP1 POP JUMP JUMPDEST PUSH2 0x283B DUP2 PUSH2 0x23A4 JUMP JUMPDEST DUP3 MSTORE POP POP JUMP JUMPDEST PUSH1 0x0 PUSH2 0x284D DUP4 DUP4 PUSH2 0x2832 JUMP JUMPDEST PUSH1 0x20 DUP4 ADD SWAP1 POP SWAP3 SWAP2 POP POP JUMP JUMPDEST PUSH1 0x0 PUSH1 0x20 DUP3 ADD SWAP1 POP SWAP2 SWAP1 POP JUMP JUMPDEST PUSH1 0x0 PUSH2 0x2871 DUP3 PUSH2 0x2806 JUMP JUMPDEST PUSH2 0x287B DUP2 DUP6 PUSH2 0x2811 JUMP JUMPDEST SWAP4 POP PUSH2 0x2886 DUP4 PUSH2 0x2822 JUMP JUMPDEST DUP1 PUSH1 0x0 JUMPDEST DUP4 DUP2 LT ISZERO PUSH2 0x28B7 JUMPI DUP2 MLOAD PUSH2 0x289E DUP9 DUP3 PUSH2 0x2841 JUMP JUMPDEST SWAP8 POP PUSH2 0x28A9 DUP4 PUSH2 0x2859 JUMP JUMPDEST SWAP3 POP POP PUSH1 0x1 DUP2 ADD SWAP1 POP PUSH2 0x288A JUMP JUMPDEST POP DUP6 SWAP4 POP POP POP POP SWAP3 SWAP2 POP POP JUMP JUMPDEST PUSH1 0x0 PUSH2 0x28D0 DUP4 DUP4 PUSH2 0x2866 JUMP JUMPDEST SWAP1 POP SWAP3 SWAP2 POP POP JUMP JUMPDEST PUSH1 0x0 PUSH1 0x20 DUP3 ADD SWAP1 POP SWAP2 SWAP1 POP JUMP JUMPDEST PUSH1 0x0 PUSH2 0x28F0 DUP3 PUSH2 0x27DA JUMP JUMPDEST PUSH2 0x28FA DUP2 DUP6 PUSH2 0x27E5 JUMP JUMPDEST SWAP4 POP DUP4 PUSH1 0x20 DUP3 MUL DUP6 ADD PUSH2 0x290C DUP6 PUSH2 0x27F6 JUMP JUMPDEST DUP1 PUSH1 0x0 JUMPDEST DUP6 DUP2 LT ISZERO PUSH2 0x2948 JUMPI DUP5 DUP5 SUB DUP10 MSTORE DUP2 MLOAD PUSH2 0x2929 DUP6 DUP3 PUSH2 0x28C4 JUMP JUMPDEST SWAP5 POP PUSH2 0x2934 DUP4 PUSH2 0x28D8 JUMP JUMPDEST SWAP3 POP PUSH1 0x20 DUP11 ADD SWAP10 POP POP PUSH1 0x1 DUP2 ADD SWAP1 POP PUSH2 0x2910 JUMP JUMPDEST POP DUP3 SWAP8 POP DUP8 SWAP6 POP POP POP POP POP POP SWAP3 SWAP2 POP POP JUMP JUMPDEST PUSH2 0x2963 DUP2 PUSH2 0x2612 JUMP JUMPDEST DUP3 MSTORE POP POP JUMP JUMPDEST PUSH1 0x0 PUSH2 0x120 DUP4 ADD PUSH1 0x0 DUP4 ADD MLOAD DUP5 DUP3 SUB PUSH1 0x0 DUP7 ADD MSTORE PUSH2 0x2987 DUP3 DUP3 PUSH2 0x26DF JUMP JUMPDEST SWAP2 POP POP PUSH1 0x20 DUP4 ADD MLOAD DUP5 DUP3 SUB PUSH1 0x20 DUP7 ADD MSTORE PUSH2 0x29A1 DUP3 DUP3 PUSH2 0x2765 JUMP JUMPDEST SWAP2 POP POP PUSH1 0x40 DUP4 ADD MLOAD DUP5 DUP3 SUB PUSH1 0x40 DUP7 ADD MSTORE PUSH2 0x29BB DUP3 DUP3 PUSH2 0x26DF JUMP JUMPDEST SWAP2 POP POP PUSH1 0x60 DUP4 ADD MLOAD DUP5 DUP3 SUB PUSH1 0x60 DUP7 ADD MSTORE PUSH2 0x29D5 DUP3 DUP3 PUSH2 0x28E5 JUMP JUMPDEST SWAP2 POP POP PUSH1 0x80 DUP4 ADD MLOAD PUSH2 0x29EA PUSH1 0x80 DUP7 ADD DUP3 PUSH2 0x2832 JUMP JUMPDEST POP PUSH1 0xA0 DUP4 ADD MLOAD PUSH2 0x29FD PUSH1 0xA0 DUP7 ADD DUP3 PUSH2 0x2832 JUMP JUMPDEST POP PUSH1 0xC0 DUP4 ADD MLOAD DUP5 DUP3 SUB PUSH1 0xC0 DUP7 ADD MSTORE PUSH2 0x2A15 DUP3 DUP3 PUSH2 0x2866 JUMP JUMPDEST SWAP2 POP POP PUSH1 0xE0 DUP4 ADD MLOAD PUSH2 0x2A2A PUSH1 0xE0 DUP7 ADD DUP3 PUSH2 0x295A JUMP JUMPDEST POP PUSH2 0x100 DUP4 ADD MLOAD DUP5 DUP3 SUB PUSH2 0x100 DUP7 ADD MSTORE PUSH2 0x2A44 DUP3 DUP3 PUSH2 0x26DF JUMP JUMPDEST SWAP2 POP POP DUP1 SWAP2 POP POP SWAP3 SWAP2 POP POP JUMP JUMPDEST PUSH1 0x0 PUSH1 0x20 DUP3 ADD SWAP1 POP DUP2 DUP2 SUB PUSH1 0x0 DUP4 ADD MSTORE PUSH2 0x2A6B DUP2 DUP5 PUSH2 0x2969 JUMP JUMPDEST SWAP1 POP SWAP3 SWAP2 POP POP JUMP JUMPDEST PUSH1 0x0 PUSH1 0x20 DUP3 DUP5 SUB SLT ISZERO PUSH2 0x2A89 JUMPI PUSH2 0x2A88 PUSH2 0x23F0 JUMP JUMPDEST JUMPDEST PUSH1 0x0 PUSH2 0x2A97 DUP5 DUP3 DUP6 ADD PUSH2 0x2411 JUMP JUMPDEST SWAP2 POP POP SWAP3 SWAP2 POP POP JUMP JUMPDEST PUSH2 0x2AA9 DUP2 PUSH2 0x24F3 JUMP JUMPDEST DUP3 MSTORE POP POP JUMP JUMPDEST PUSH1 0x0 PUSH1 0xA0 DUP4 ADD PUSH1 0x0 DUP4 ADD MLOAD DUP5 DUP3 SUB PUSH1 0x0 DUP7 ADD MSTORE PUSH2 0x2ACC DUP3 DUP3 PUSH2 0x26DF JUMP JUMPDEST SWAP2 POP POP PUSH1 0x20 DUP4 ADD MLOAD DUP5 DUP3 SUB PUSH1 0x20 DUP7 ADD MSTORE PUSH2 0x2AE6 DUP3 DUP3 PUSH2 0x26DF JUMP JUMPDEST SWAP2 POP POP PUSH1 0x40 DUP4 ADD MLOAD DUP5 DUP3 SUB PUSH1 0x40 DUP7 ADD MSTORE PUSH2 0x2B00 DUP3 DUP3 PUSH2 0x26DF JUMP JUMPDEST SWAP2 POP POP PUSH1 0x60 DUP4 ADD MLOAD DUP5 DUP3 SUB PUSH1 0x60 DUP7 ADD MSTORE PUSH2 0x2B1A DUP3 DUP3 PUSH2 0x2765 JUMP JUMPDEST SWAP2 POP POP PUSH1 0x80 DUP4 ADD MLOAD PUSH2 0x2B2F PUSH1 0x80 DUP7 ADD DUP3 PUSH2 0x2AA0 JUMP JUMPDEST POP DUP1 SWAP2 POP POP SWAP3 SWAP2 POP POP JUMP JUMPDEST PUSH32 0x4E487B7100000000000000000000000000000000000000000000000000000000 PUSH1 0x0 MSTORE PUSH1 0x21 PUSH1 0x4 MSTORE PUSH1 0x24 PUSH1 0x0 REVERT JUMPDEST PUSH1 0x6 DUP2 LT PUSH2 0x2B7A JUMPI PUSH2 0x2B79 PUSH2 0x2B3A JUMP JUMPDEST JUMPDEST POP JUMP JUMPDEST PUSH1 0x0 DUP2 SWAP1 POP PUSH2 0x2B8B DUP3 PUSH2 0x2B69 JUMP JUMPDEST SWAP2 SWAP1 POP JUMP JUMPDEST PUSH1 0x0 PUSH2 0x2B9B DUP3 PUSH2 0x2B7D JUMP JUMPDEST SWAP1 POP SWAP2 SWAP1 POP JUMP JUMPDEST PUSH2 0x2BAB DUP2 PUSH2 0x2B90 JUMP JUMPDEST DUP3 MSTORE POP POP JUMP JUMPDEST PUSH1 0x0 DUP2 MLOAD SWAP1 POP SWAP2 SWAP1 POP JUMP JUMPDEST PUSH1 0x0 DUP3 DUP3 MSTORE PUSH1 0x20 DUP3 ADD SWAP1 POP SWAP3 SWAP2 POP POP JUMP JUMPDEST PUSH1 0x0 DUP2 SWAP1 POP PUSH1 0x20 DUP3 ADD SWAP1 POP SWAP2 SWAP1 POP JUMP JUMPDEST PUSH2 0x2BE6 DUP2 PUSH2 0x2383 JUMP JUMPDEST DUP3 MSTORE POP POP JUMP JUMPDEST PUSH1 0x0 PUSH1 0x40 DUP4 ADD PUSH1 0x0 DUP4 ADD MLOAD DUP5 DUP3 SUB PUSH1 0x0 DUP7 ADD MSTORE PUSH2 0x2C09 DUP3 DUP3 PUSH2 0x26DF JUMP JUMPDEST SWAP2 POP POP PUSH1 0x20 DUP4 ADD MLOAD PUSH2 0x2C1E PUSH1 0x20 DUP7 ADD DUP3 PUSH2 0x2BDD JUMP JUMPDEST POP DUP1 SWAP2 POP POP SWAP3 SWAP2 POP POP JUMP JUMPDEST PUSH1 0x0 PUSH2 0x2C35 DUP4 DUP4 PUSH2 0x2BEC JUMP JUMPDEST SWAP1 POP SWAP3 SWAP2 POP POP JUMP JUMPDEST PUSH1 0x0 PUSH1 0x20 DUP3 ADD SWAP1 POP SWAP2 SWAP1 POP JUMP JUMPDEST PUSH1 0x0 PUSH2 0x2C55 DUP3 PUSH2 0x2BB1 JUMP JUMPDEST PUSH2 0x2C5F DUP2 DUP6 PUSH2 0x2BBC JUMP JUMPDEST SWAP4 POP DUP4 PUSH1 0x20 DUP3 MUL DUP6 ADD PUSH2 0x2C71 DUP6 PUSH2 0x2BCD JUMP JUMPDEST DUP1 PUSH1 0x0 JUMPDEST DUP6 DUP2 LT ISZERO PUSH2 0x2CAD JUMPI DUP5 DUP5 SUB DUP10 MSTORE DUP2 MLOAD PUSH2 0x2C8E DUP6 DUP3 PUSH2 0x2C29 JUMP JUMPDEST SWAP5 POP PUSH2 0x2C99 DUP4 PUSH2 0x2C3D JUMP JUMPDEST SWAP3 POP PUSH1 0x20 DUP11 ADD SWAP10 POP POP PUSH1 0x1 DUP2 ADD SWAP1 POP PUSH2 0x2C75 JUMP JUMPDEST POP DUP3 SWAP8 POP DUP8 SWAP6 POP POP POP POP POP POP SWAP3 SWAP2 POP POP JUMP JUMPDEST PUSH1 0x0 PUSH1 0x60 DUP4 ADD PUSH1 0x0 DUP4 ADD MLOAD PUSH2 0x2CD7 PUSH1 0x0 DUP7 ADD DUP3 PUSH2 0x2BA2 JUMP JUMPDEST POP PUSH1 0x20 DUP4 ADD MLOAD DUP5 DUP3 SUB PUSH1 0x20 DUP7 ADD MSTORE PUSH2 0x2CEF DUP3 DUP3 PUSH2 0x2C4A JUMP JUMPDEST SWAP2 POP POP PUSH1 0x40 DUP4 ADD MLOAD DUP5 DUP3 SUB PUSH1 0x40 DUP7 ADD MSTORE PUSH2 0x2D09 DUP3 DUP3 PUSH2 0x26DF JUMP JUMPDEST SWAP2 POP POP DUP1 SWAP2 POP POP SWAP3 SWAP2 POP POP JUMP JUMPDEST PUSH1 0x2 DUP2 LT PUSH2 0x2D27 JUMPI PUSH2 0x2D26 PUSH2 0x2B3A JUMP JUMPDEST JUMPDEST POP JUMP JUMPDEST PUSH1 0x0 DUP2 SWAP1 POP PUSH2 0x2D38 DUP3 PUSH2 0x2D16 JUMP JUMPDEST SWAP2 SWAP1 POP JUMP JUMPDEST PUSH1 0x0 PUSH2 0x2D48 DUP3 PUSH2 0x2D2A JUMP JUMPDEST SWAP1 POP SWAP2 SWAP1 POP JUMP JUMPDEST PUSH2 0x2D58 DUP2 PUSH2 0x2D3D JUMP JUMPDEST DUP3 MSTORE POP POP JUMP JUMPDEST PUSH1 0x0 PUSH1 0xC0 DUP4 ADD PUSH1 0x0 DUP4 ADD MLOAD DUP5 DUP3 SUB PUSH1 0x0 DUP7 ADD MSTORE PUSH2 0x2D7B DUP3 DUP3 PUSH2 0x2AAF JUMP JUMPDEST SWAP2 POP POP PUSH1 0x20 DUP4 ADD MLOAD DUP5 DUP3 SUB PUSH1 0x20 DUP7 ADD MSTORE PUSH2 0x2D95 DUP3 DUP3 PUSH2 0x2CBF JUMP JUMPDEST SWAP2 POP POP PUSH1 0x40 DUP4 ADD MLOAD DUP5 DUP3 SUB PUSH1 0x40 DUP7 ADD MSTORE PUSH2 0x2DAF DUP3 DUP3 PUSH2 0x2866 JUMP JUMPDEST SWAP2 POP POP PUSH1 0x60 DUP4 ADD MLOAD PUSH2 0x2DC4 PUSH1 0x60 DUP7 ADD DUP3 PUSH2 0x2D4F JUMP JUMPDEST POP PUSH1 0x80 DUP4 ADD MLOAD PUSH2 0x2DD7 PUSH1 0x80 DUP7 ADD DUP3 PUSH2 0x2AA0 JUMP JUMPDEST POP PUSH1 0xA0 DUP4 ADD MLOAD PUSH2 0x2DEA PUSH1 0xA0 DUP7 ADD DUP3 PUSH2 0x2832 JUMP JUMPDEST POP DUP1 SWAP2 POP POP SWAP3 SWAP2 POP POP JUMP JUMPDEST PUSH1 0x0 PUSH1 0x20 DUP3 ADD SWAP1 POP DUP2 DUP2 SUB PUSH1 0x0 DUP4 ADD MSTORE PUSH2 0x2E0F DUP2 DUP5 PUSH2 0x2D5E JUMP JUMPDEST SWAP1 POP SWAP3 SWAP2 POP POP JUMP JUMPDEST PUSH1 0x0 PUSH2 0x120 DUP3 DUP5 SUB SLT ISZERO PUSH2 0x2E2E JUMPI PUSH2 0x2E2D PUSH2 0x2426 JUMP JUMPDEST JUMPDEST DUP2 SWAP1 POP SWAP3 SWAP2 POP POP JUMP JUMPDEST PUSH1 0x0 DUP1 PUSH1 0x0 PUSH1 0x60 DUP5 DUP7 SUB SLT ISZERO PUSH2 0x2E50 JUMPI PUSH2 0x2E4F PUSH2 0x23F0 JUMP JUMPDEST JUMPDEST PUSH1 0x0 PUSH2 0x2E5E DUP7 DUP3 DUP8 ADD PUSH2 0x2411 JUMP JUMPDEST SWAP4 POP POP PUSH1 0x20 PUSH2 0x2E6F DUP7 DUP3 DUP8 ADD PUSH2 0x2633 JUMP JUMPDEST SWAP3 POP POP PUSH1 0x40 DUP5 ADD CALLDATALOAD PUSH8 0xFFFFFFFFFFFFFFFF DUP2 GT ISZERO PUSH2 0x2E90 JUMPI PUSH2 0x2E8F PUSH2 0x23F5 JUMP JUMPDEST JUMPDEST PUSH2 0x2E9C DUP7 DUP3 DUP8 ADD PUSH2 0x2E17 JUMP JUMPDEST SWAP2 POP POP SWAP3 POP SWAP3 POP SWAP3 JUMP JUMPDEST PUSH1 0x0 DUP1 PUSH1 0x40 DUP4 DUP6 SUB SLT ISZERO PUSH2 0x2EBD JUMPI PUSH2 0x2EBC PUSH2 0x23F0 JUMP JUMPDEST JUMPDEST PUSH1 0x0 PUSH2 0x2ECB DUP6 DUP3 DUP7 ADD PUSH2 0x2411 JUMP JUMPDEST SWAP3 POP POP PUSH1 0x20 DUP4 ADD CALLDATALOAD PUSH8 0xFFFFFFFFFFFFFFFF DUP2 GT ISZERO PUSH2 0x2EEC JUMPI PUSH2 0x2EEB PUSH2 0x23F5 JUMP JUMPDEST JUMPDEST PUSH2 0x2EF8 DUP6 DUP3 DUP7 ADD PUSH2 0x244A JUMP JUMPDEST SWAP2 POP POP SWAP3 POP SWAP3 SWAP1 POP JUMP JUMPDEST PUSH1 0x0 DUP1 PUSH1 0x0 DUP1 PUSH1 0x0 PUSH1 0x80 DUP7 DUP9 SUB SLT ISZERO PUSH2 0x2F1E JUMPI PUSH2 0x2F1D PUSH2 0x23F0 JUMP JUMPDEST JUMPDEST PUSH1 0x0 DUP7 ADD CALLDATALOAD PUSH8 0xFFFFFFFFFFFFFFFF DUP2 GT ISZERO PUSH2 0x2F3C JUMPI PUSH2 0x2F3B PUSH2 0x23F5 JUMP JUMPDEST JUMPDEST PUSH2 0x2F48 DUP9 DUP3 DUP10 ADD PUSH2 0x242B JUMP JUMPDEST SWAP6 POP POP PUSH1 0x20 DUP7 ADD CALLDATALOAD PUSH8 0xFFFFFFFFFFFFFFFF DUP2 GT ISZERO PUSH2 0x2F69 JUMPI PUSH2 0x2F68 PUSH2 0x23F5 JUMP JUMPDEST JUMPDEST PUSH2 0x2F75 DUP9 DUP3 DUP10 ADD PUSH2 0x244A JUMP JUMPDEST SWAP5 POP POP PUSH1 0x40 DUP7 ADD CALLDATALOAD PUSH8 0xFFFFFFFFFFFFFFFF DUP2 GT ISZERO PUSH2 0x2F96 JUMPI PUSH2 0x2F95 PUSH2 0x23F5 JUMP JUMPDEST JUMPDEST PUSH2 0x2FA2 DUP9 DUP3 DUP10 ADD PUSH2 0x2478 JUMP JUMPDEST SWAP4 POP SWAP4 POP POP PUSH1 0x60 PUSH2 0x2FB5 DUP9 DUP3 DUP10 ADD PUSH2 0x24DE JUMP JUMPDEST SWAP2 POP POP SWAP3 SWAP6 POP SWAP3 SWAP6 SWAP1 SWAP4 POP JUMP JUMPDEST PUSH1 0x0 PUSH1 0x20 DUP3 ADD SWAP1 POP PUSH2 0x2FD7 PUSH1 0x0 DUP4 ADD DUP5 PUSH2 0x23AE JUMP JUMPDEST SWAP3 SWAP2 POP POP JUMP JUMPDEST PUSH1 0x0 DUP1 PUSH1 0x40 DUP4 DUP6 SUB SLT ISZERO PUSH2 0x2FF4 JUMPI PUSH2 0x2FF3 PUSH2 0x23F0 JUMP JUMPDEST JUMPDEST PUSH1 0x0 PUSH2 0x3002 DUP6 DUP3 DUP7 ADD PUSH2 0x2411 JUMP JUMPDEST SWAP3 POP POP PUSH1 0x20 PUSH2 0x3013 DUP6 DUP3 DUP7 ADD PUSH2 0x24DE JUMP JUMPDEST SWAP2 POP POP SWAP3 POP SWAP3 SWAP1 POP JUMP JUMPDEST PUSH1 0x0 DUP1 PUSH1 0x40 DUP4 DUP6 SUB SLT ISZERO PUSH2 0x3034 JUMPI PUSH2 0x3033 PUSH2 0x23F0 JUMP JUMPDEST JUMPDEST PUSH1 0x0 PUSH2 0x3042 DUP6 DUP3 DUP7 ADD PUSH2 0x2411 JUMP JUMPDEST SWAP3 POP POP PUSH1 0x20 DUP4 ADD CALLDATALOAD PUSH8 0xFFFFFFFFFFFFFFFF DUP2 GT ISZERO PUSH2 0x3063 JUMPI PUSH2 0x3062 PUSH2 0x23F5 JUMP JUMPDEST JUMPDEST PUSH2 0x306F DUP6 DUP3 DUP7 ADD PUSH2 0x242B JUMP JUMPDEST SWAP2 POP POP SWAP3 POP SWAP3 SWAP1 POP JUMP JUMPDEST PUSH1 0x0 PUSH1 0x20 DUP3 ADD SWAP1 POP PUSH2 0x308E PUSH1 0x0 DUP4 ADD DUP5 PUSH2 0x2395 JUMP JUMPDEST SWAP3 SWAP2 POP POP JUMP JUMPDEST PUSH1 0x0 DUP1 PUSH1 0x40 DUP4 DUP6 SUB SLT ISZERO PUSH2 0x30AB JUMPI PUSH2 0x30AA PUSH2 0x23F0 JUMP JUMPDEST JUMPDEST PUSH1 0x0 PUSH2 0x30B9 DUP6 DUP3 DUP7 ADD PUSH2 0x2411 JUMP JUMPDEST SWAP3 POP POP PUSH1 0x20 PUSH2 0x30CA DUP6 DUP3 DUP7 ADD PUSH2 0x2411 JUMP JUMPDEST SWAP2 POP POP SWAP3 POP SWAP3 SWAP1 POP JUMP JUMPDEST PUSH1 0x0 DUP1 PUSH1 0x40 DUP4 DUP6 SUB SLT ISZERO PUSH2 0x30EB JUMPI PUSH2 0x30EA PUSH2 0x23F0 JUMP JUMPDEST JUMPDEST PUSH1 0x0 PUSH2 0x30F9 DUP6 DUP3 DUP7 ADD PUSH2 0x2411 JUMP JUMPDEST SWAP3 POP POP PUSH1 0x20 PUSH2 0x310A DUP6 DUP3 DUP7 ADD PUSH2 0x2516 JUMP JUMPDEST SWAP2 POP POP SWAP3 POP SWAP3 SWAP1 POP JUMP JUMPDEST PUSH2 0x311D DUP2 PUSH2 0x2383 JUMP JUMPDEST DUP2 EQ PUSH2 0x3128 JUMPI PUSH1 0x0 DUP1 REVERT JUMPDEST POP JUMP JUMPDEST PUSH1 0x0 DUP2 CALLDATALOAD SWAP1 POP PUSH2 0x313A DUP2 PUSH2 0x3114 JUMP JUMPDEST SWAP3 SWAP2 POP POP JUMP JUMPDEST PUSH1 0x0 PUSH1 0x20 DUP3 DUP5 SUB SLT ISZERO PUSH2 0x3156 JUMPI PUSH2 0x3155 PUSH2 0x23F0 JUMP JUMPDEST JUMPDEST PUSH1 0x0 PUSH2 0x3164 DUP5 DUP3 DUP6 ADD PUSH2 0x312B JUMP JUMPDEST SWAP2 POP POP SWAP3 SWAP2 POP POP JUMP JUMPDEST PUSH32 0x4E487B7100000000000000000000000000000000000000000000000000000000 PUSH1 0x0 MSTORE PUSH1 0x0 PUSH1 0x4 MSTORE PUSH1 0x24 PUSH1 0x0 REVERT JUMPDEST PUSH1 0x0 DUP1 REVERT JUMPDEST PUSH1 0x0 DUP1 REVERT JUMPDEST PUSH1 0x0 DUP1 REVERT JUMPDEST PUSH1 0x0 DUP1 DUP4 CALLDATALOAD PUSH1 0x1 PUSH1 0x20 SUB DUP5 CALLDATASIZE SUB SUB DUP2 SLT PUSH2 0x31C8 JUMPI PUSH2 0x31C7 PUSH2 0x319C JUMP JUMPDEST JUMPDEST DUP1 DUP5 ADD SWAP3 POP DUP3 CALLDATALOAD SWAP2 POP PUSH8 0xFFFFFFFFFFFFFFFF DUP3 GT ISZERO PUSH2 0x31EA JUMPI PUSH2 0x31E9 PUSH2 0x31A1 JUMP JUMPDEST JUMPDEST PUSH1 0x20 DUP4 ADD SWAP3 POP PUSH1 0x1 DUP3 MUL CALLDATASIZE SUB DUP4 SGT ISZERO PUSH2 0x3206 JUMPI PUSH2 0x3205 PUSH2 0x31A6 JUMP JUMPDEST JUMPDEST POP SWAP3 POP SWAP3 SWAP1 POP JUMP JUMPDEST PUSH1 0x0 DUP3 SWAP1 POP SWAP3 SWAP2 POP POP JUMP JUMPDEST PUSH32 0x4E487B7100000000000000000000000000000000000000000000000000000000 PUSH1 0x0 MSTORE PUSH1 0x41 PUSH1 0x4 MSTORE PUSH1 0x24 PUSH1 0x0 REVERT JUMPDEST PUSH32 0x4E487B7100000000000000000000000000000000000000000000000000000000 PUSH1 0x0 MSTORE PUSH1 0x22 PUSH1 0x4 MSTORE PUSH1 0x24 PUSH1 0x0 REVERT JUMPDEST PUSH1 0x0 PUSH1 0x2 DUP3 DIV SWAP1 POP PUSH1 0x1 DUP3 AND DUP1 PUSH2 0x328F JUMPI PUSH1 0x7F DUP3 AND SWAP2 POP JUMPDEST PUSH1 0x20 DUP3 LT DUP2 SUB PUSH2 0x32A2 JUMPI PUSH2 0x32A1 PUSH2 0x3248 JUMP JUMPDEST JUMPDEST POP SWAP2 SWAP1 POP JUMP JUMPDEST PUSH1 0x0 DUP2 SWAP1 POP DUP2 PUSH1 0x0 MSTORE PUSH1 0x20 PUSH1 0x0 KECCAK256 SWAP1 POP SWAP2 SWAP1 POP JUMP JUMPDEST PUSH1 0x0 PUSH1 0x20 PUSH1 0x1F DUP4 ADD DIV SWAP1 POP SWAP2 SWAP1 POP JUMP JUMPDEST PUSH1 0x0 DUP3 DUP3 SHL SWAP1 POP SWAP3 SWAP2 POP POP JUMP JUMPDEST PUSH1 0x0 PUSH1 0x8 DUP4 MUL PUSH2 0x330A PUSH32 0xFFFFFFFFFFFFFFFFFFFFFFFFFFFFFFFFFFFFFFFFFFFFFFFFFFFFFFFFFFFFFFFF DUP3 PUSH2 0x32CD JUMP JUMPDEST PUSH2 0x3314 DUP7 DUP4 PUSH2 0x32CD JUMP JUMPDEST SWAP6 POP DUP1 NOT DUP5 AND SWAP4 POP DUP1 DUP7 AND DUP5 OR SWAP3 POP POP POP SWAP4 SWAP3 POP POP POP JUMP JUMPDEST PUSH1 0x0 DUP2 SWAP1 POP SWAP2 SWAP1 POP JUMP JUMPDEST PUSH1 0x0 PUSH2 0x3351 PUSH2 0x334C PUSH2 0x3347 DUP5 PUSH2 0x23A4 JUMP JUMPDEST PUSH2 0x332C JUMP JUMPDEST PUSH2 0x23A4 JUMP JUMPDEST SWAP1 POP SWAP2 SWAP1 POP JUMP JUMPDEST PUSH1 0x0 DUP2 SWAP1 POP SWAP2 SWAP1 POP JUMP JUMPDEST PUSH2 0x336B DUP4 PUSH2 0x3336 JUMP JUMPDEST PUSH2 0x337F PUSH2 0x3377 DUP3 PUSH2 0x3358 JUMP JUMPDEST DUP5 DUP5 SLOAD PUSH2 0x32DA JUMP JUMPDEST DUP3 SSTORE POP POP POP POP JUMP JUMPDEST PUSH1 0x0 SWAP1 JUMP JUMPDEST PUSH2 0x3394 PUSH2 0x3387 JUMP JUMPDEST PUSH2 0x339F DUP2 DUP5 DUP5 PUSH2 0x3362 JUMP JUMPDEST POP POP POP JUMP JUMPDEST JUMPDEST DUP2 DUP2 LT ISZERO PUSH2 0x33C3 JUMPI PUSH2 0x33B8 PUSH1 0x0 DUP3 PUSH2 0x338C JUMP JUMPDEST PUSH1 0x1 DUP2 ADD SWAP1 POP PUSH2 0x33A5 JUMP JUMPDEST POP POP JUMP JUMPDEST PUSH1 0x1F DUP3 GT ISZERO PUSH2 0x3408 JUMPI PUSH2 0x33D9 DUP2 PUSH2 0x32A8 JUMP JUMPDEST PUSH2 0x33E2 DUP5 PUSH2 0x32BD JUMP JUMPDEST DUP2 ADD PUSH1 0x20 DUP6 LT ISZERO PUSH2 0x33F1 JUMPI DUP2 SWAP1 POP JUMPDEST PUSH2 0x3405 PUSH2 0x33FD DUP6 PUSH2 0x32BD JUMP JUMPDEST DUP4 ADD DUP3 PUSH2 0x33A4 JUMP JUMPDEST POP POP JUMPDEST POP POP POP JUMP JUMPDEST PUSH1 0x0 DUP3 DUP3 SHR SWAP1 POP SWAP3 SWAP2 POP POP JUMP JUMPDEST PUSH1 0x0 PUSH2 0x342B PUSH1 0x0 NOT DUP5 PUSH1 0x8 MUL PUSH2 0x340D JUMP JUMPDEST NOT DUP1 DUP4 AND SWAP2 POP POP SWAP3 SWAP2 POP POP JUMP JUMPDEST PUSH1 0x0 PUSH2 0x3444 DUP4 DUP4 PUSH2 0x341A JUMP JUMPDEST SWAP2 POP DUP3 PUSH1 0x2 MUL DUP3 OR SWAP1 POP SWAP3 SWAP2 POP POP JUMP JUMPDEST PUSH2 0x345E DUP4 DUP4 PUSH2 0x320E JUMP JUMPDEST PUSH8 0xFFFFFFFFFFFFFFFF DUP2 GT ISZERO PUSH2 0x3477 JUMPI PUSH2 0x3476 PUSH2 0x3219 JUMP JUMPDEST JUMPDEST PUSH2 0x3481 DUP3 SLOAD PUSH2 0x3277 JUMP JUMPDEST PUSH2 0x348C DUP3 DUP3 DUP6 PUSH2 0x33C7 JUMP JUMPDEST PUSH1 0x0 PUSH1 0x1F DUP4 GT PUSH1 0x1 DUP2 EQ PUSH2 0x34BB JUMPI PUSH1 0x0 DUP5 ISZERO PUSH2 0x34A9 JUMPI DUP3 DUP8 ADD CALLDATALOAD SWAP1 POP JUMPDEST PUSH2 0x34B3 DUP6 DUP3 PUSH2 0x3438 JUMP JUMPDEST DUP7 SSTORE POP PUSH2 0x351B JUMP JUMPDEST PUSH1 0x1F NOT DUP5 AND PUSH2 0x34C9 DUP7 PUSH2 0x32A8 JUMP JUMPDEST PUSH1 0x0 JUMPDEST DUP3 DUP2 LT ISZERO PUSH2 0x34F1 JUMPI DUP5 DUP10 ADD CALLDATALOAD DUP3 SSTORE PUSH1 0x1 DUP3 ADD SWAP2 POP PUSH1 0x20 DUP6 ADD SWAP5 POP PUSH1 0x20 DUP2 ADD SWAP1 POP PUSH2 0x34CC JUMP JUMPDEST DUP7 DUP4 LT ISZERO PUSH2 0x350E JUMPI DUP5 DUP10 ADD CALLDATALOAD PUSH2 0x350A PUSH1 0x1F DUP10 AND DUP3 PUSH2 0x341A JUMP JUMPDEST DUP4 SSTORE POP JUMPDEST PUSH1 0x1 PUSH1 0x2 DUP9 MUL ADD DUP9 SSTORE POP POP POP JUMPDEST POP POP POP POP POP POP POP JUMP JUMPDEST PUSH2 0x352F DUP4 DUP4 DUP4 PUSH2 0x3454 JUMP JUMPDEST POP POP POP JUMP JUMPDEST PUSH1 0x0 DUP1 DUP4 CALLDATALOAD PUSH1 0x1 PUSH1 0x20 SUB DUP5 CALLDATASIZE SUB SUB DUP2 SLT PUSH2 0x3551 JUMPI PUSH2 0x3550 PUSH2 0x319C JUMP JUMPDEST JUMPDEST DUP1 DUP5 ADD SWAP3 POP DUP3 CALLDATALOAD SWAP2 POP PUSH8 0xFFFFFFFFFFFFFFFF DUP3 GT ISZERO PUSH2 0x3573 JUMPI PUSH2 0x3572 PUSH2 0x31A1 JUMP JUMPDEST JUMPDEST PUSH1 0x20 DUP4 ADD SWAP3 POP PUSH1 0x20 DUP3 MUL CALLDATASIZE SUB DUP4 SGT ISZERO PUSH2 0x358F JUMPI PUSH2 0x358E PUSH2 0x31A6 JUMP JUMPDEST JUMPDEST POP SWAP3 POP SWAP3 SWAP1 POP JUMP JUMPDEST PUSH1 0x0 DUP2 SWAP1 POP SWAP2 SWAP1 POP JUMP JUMPDEST PUSH1 0x0 DUP2 SLOAD SWAP1 POP SWAP2 SWAP1 POP JUMP JUMPDEST PUSH32 0x4E487B7100000000000000000000000000000000000000000000000000000000 PUSH1 0x0 MSTORE PUSH1 0x11 PUSH1 0x4 MSTORE PUSH1 0x24 PUSH1 0x0 REVERT JUMPDEST PUSH1 0x0 PUSH2 0x35E6 DUP3 PUSH2 0x23A4 JUMP JUMPDEST SWAP2 POP PUSH2 0x35F1 DUP4 PUSH2 0x23A4 JUMP JUMPDEST SWAP3 POP DUP3 DUP3 MUL PUSH2 0x35FF DUP2 PUSH2 0x23A4 JUMP JUMPDEST SWAP2 POP DUP3 DUP3 DIV DUP5 EQ DUP4 ISZERO OR PUSH2 0x3616 JUMPI PUSH2 0x3615 PUSH2 0x35AC JUMP JUMPDEST JUMPDEST POP SWAP3 SWAP2 POP POP JUMP JUMPDEST PUSH1 0x0 DUP2 SWAP1 POP PUSH1 0x1 DUP1 PUSH1 0x1 SUB DUP4 ADD DIV SWAP1 POP SWAP2 SWAP1 POP JUMP JUMPDEST PUSH1 0x0 DUP2 SWAP1 POP DUP2 PUSH1 0x0 MSTORE PUSH1 0x20 PUSH1 0x0 KECCAK256 SWAP1 POP SWAP2 SWAP1 POP JUMP JUMPDEST PUSH2 0x3677 PUSH32 0xFFFFFFFFFFFFFFFFFFFFFFFFFFFFFFFFFFFFFFFFFFFFFFFFFFFFFFFFFFFFFFFF DUP4 PUSH1 0x20 SUB PUSH1 0x8 MUL PUSH2 0x340D JUMP JUMPDEST DUP2 SLOAD DUP2 AND DUP3 SSTORE POP POP POP JUMP JUMPDEST PUSH2 0x368B DUP2 PUSH2 0x32A8 JUMP JUMPDEST PUSH2 0x3696 DUP4 DUP3 SLOAD PUSH2 0x3438 JUMP JUMPDEST DUP1 DUP4 SSTORE PUSH1 0x0 DUP3 SSTORE POP POP POP POP JUMP JUMPDEST PUSH1 0x20 DUP5 LT PUSH1 0x0 DUP2 EQ PUSH2 0x36FE JUMPI PUSH1 0x1F DUP5 GT PUSH1 0x1 DUP2 EQ PUSH2 0x36CC JUMPI PUSH2 0x36C5 DUP7 DUP6 PUSH2 0x3438 JUMP JUMPDEST DUP4 SSTORE PUSH2 0x36F8 JUMP JUMPDEST PUSH2 0x36D5 DUP4 PUSH2 0x32A8 JUMP JUMPDEST PUSH2 0x36EC PUSH2 0x36E1 DUP8 PUSH2 0x32BD JUMP JUMPDEST DUP3 ADD PUSH1 0x1 DUP4 ADD PUSH2 0x33A4 JUMP JUMPDEST PUSH2 0x36F6 DUP8 DUP6 PUSH2 0x3682 JUMP JUMPDEST POP JUMPDEST POP PUSH2 0x374B JUMP JUMPDEST PUSH2 0x3707 DUP3 PUSH2 0x32A8 JUMP JUMPDEST PUSH2 0x3710 DUP7 PUSH2 0x32BD JUMP JUMPDEST DUP2 ADD PUSH1 0x1F DUP8 AND DUP1 ISZERO PUSH2 0x372A JUMPI PUSH2 0x3729 DUP2 PUSH1 0x1 DUP5 SUB PUSH2 0x3647 JUMP JUMPDEST JUMPDEST PUSH2 0x373E PUSH2 0x3736 DUP9 PUSH2 0x32BD JUMP JUMPDEST DUP5 ADD DUP4 PUSH2 0x33A4 JUMP JUMPDEST PUSH1 0x1 DUP9 PUSH1 0x2 MUL OR DUP6 SSTORE POP POP POP JUMPDEST POP POP POP POP POP JUMP JUMPDEST PUSH9 0x10000000000000000 DUP5 GT ISZERO PUSH2 0x376C JUMPI PUSH2 0x376B PUSH2 0x3219 JUMP JUMPDEST JUMPDEST PUSH1 0x20 DUP4 LT PUSH1 0x0 DUP2 EQ PUSH2 0x37B7 JUMPI PUSH1 0x20 DUP6 LT PUSH1 0x0 DUP2 EQ PUSH2 0x3795 JUMPI PUSH2 0x378E DUP7 DUP6 PUSH2 0x3438 JUMP JUMPDEST DUP4 SSTORE PUSH2 0x37B1 JUMP JUMPDEST DUP4 PUSH1 0xFF NOT AND SWAP4 POP DUP4 PUSH2 0x37A6 DUP5 PUSH2 0x32A8 JUMP JUMPDEST SSTORE PUSH1 0x1 DUP7 PUSH1 0x2 MUL ADD DUP4 SSTORE JUMPDEST POP PUSH2 0x37C1 JUMP JUMPDEST PUSH1 0x1 DUP6 PUSH1 0x2 MUL ADD DUP3 SSTORE JUMPDEST POP POP POP POP POP JUMP JUMPDEST DUP1 SLOAD PUSH2 0x37D3 DUP2 PUSH2 0x3277 JUMP JUMPDEST DUP1 DUP5 GT ISZERO PUSH2 0x37E8 JUMPI PUSH2 0x37E7 DUP5 DUP3 DUP5 DUP7 PUSH2 0x3752 JUMP JUMPDEST JUMPDEST DUP1 DUP5 LT ISZERO PUSH2 0x37FD JUMPI PUSH2 0x37FC DUP5 DUP3 DUP5 DUP7 PUSH2 0x36A3 JUMP JUMPDEST JUMPDEST POP POP POP POP JUMP JUMPDEST DUP2 DUP2 LT ISZERO PUSH2 0x3821 JUMPI PUSH2 0x3816 PUSH1 0x0 DUP3 PUSH2 0x338C JUMP JUMPDEST PUSH1 0x1 DUP2 ADD SWAP1 POP PUSH2 0x3803 JUMP JUMPDEST POP POP JUMP JUMPDEST PUSH2 0x3830 PUSH1 0x0 DUP3 PUSH2 0x37C8 JUMP JUMPDEST POP JUMP JUMPDEST PUSH1 0x0 DUP3 EQ PUSH2 0x3844 JUMPI PUSH2 0x3843 PUSH2 0x316D JUMP JUMPDEST JUMPDEST PUSH2 0x384D DUP2 PUSH2 0x3825 JUMP JUMPDEST POP POP JUMP JUMPDEST JUMPDEST DUP2 DUP2 LT ISZERO PUSH2 0x3870 JUMPI PUSH2 0x3865 PUSH1 0x0 DUP3 PUSH2 0x3833 JUMP JUMPDEST PUSH1 0x1 DUP2 ADD SWAP1 POP PUSH2 0x3852 JUMP JUMPDEST POP POP JUMP JUMPDEST DUP2 DUP4 LT ISZERO PUSH2 0x38AD JUMPI PUSH2 0x3885 DUP3 PUSH2 0x361D JUMP JUMPDEST PUSH2 0x388E DUP5 PUSH2 0x361D JUMP JUMPDEST PUSH2 0x3897 DUP4 PUSH2 0x3632 JUMP JUMPDEST DUP2 DUP2 ADD DUP4 DUP3 ADD PUSH2 0x38A7 DUP2 DUP4 PUSH2 0x3851 JUMP JUMPDEST POP POP POP POP POP JUMPDEST POP POP POP JUMP JUMPDEST PUSH9 0x10000000000000000 DUP3 GT ISZERO PUSH2 0x38CC JUMPI PUSH2 0x38CB PUSH2 0x3219 JUMP JUMPDEST JUMPDEST PUSH2 0x38D5 DUP2 PUSH2 0x35A1 JUMP JUMPDEST DUP3 DUP3 SSTORE PUSH2 0x38E3 DUP4 DUP3 DUP5 PUSH2 0x3874 JUMP JUMPDEST POP POP POP JUMP JUMPDEST PUSH1 0x0 DUP3 SWAP1 POP SWAP3 SWAP2 POP POP JUMP JUMPDEST PUSH2 0x38FD DUP4 DUP4 PUSH2 0x38E8 JUMP JUMPDEST PUSH2 0x3907 DUP2 DUP4 PUSH2 0x38B2 JUMP JUMPDEST PUSH2 0x3910 DUP4 PUSH2 0x3597 JUMP JUMPDEST PUSH2 0x3919 DUP4 PUSH2 0x3632 JUMP JUMPDEST PUSH1 0x0 JUMPDEST DUP4 DUP2 LT ISZERO PUSH2 0x3952 JUMPI PUSH2 0x392E DUP4 DUP8 PUSH2 0x31AB JUMP JUMPDEST PUSH2 0x3939 DUP2 DUP4 DUP7 PUSH2 0x3524 JUMP JUMPDEST PUSH1 0x20 DUP6 ADD SWAP5 POP PUSH1 0x1 DUP5 ADD SWAP4 POP POP POP PUSH1 0x1 DUP2 ADD SWAP1 POP PUSH2 0x391C JUMP JUMPDEST POP POP POP POP POP POP POP JUMP JUMPDEST PUSH2 0x3966 DUP4 DUP4 DUP4 PUSH2 0x38F3 JUMP JUMPDEST POP POP POP JUMP JUMPDEST PUSH1 0x0 DUP2 CALLDATALOAD PUSH2 0x3978 DUP2 PUSH2 0x24FF JUMP JUMPDEST DUP1 SWAP2 POP POP SWAP2 SWAP1 POP JUMP JUMPDEST PUSH1 0x0 DUP2 PUSH1 0x0 SHL SWAP1 POP SWAP2 SWAP1 POP JUMP JUMPDEST PUSH1 0x0 PUSH1 0xFF PUSH2 0x399B DUP5 PUSH2 0x3981 JUMP JUMPDEST SWAP4 POP DUP1 NOT DUP4 AND SWAP3 POP DUP1 DUP5 AND DUP4 OR SWAP2 POP POP SWAP3 SWAP2 POP POP JUMP JUMPDEST PUSH1 0x0 PUSH2 0x39BC DUP3 PUSH2 0x24F3 JUMP JUMPDEST SWAP1 POP SWAP2 SWAP1 POP JUMP JUMPDEST PUSH1 0x0 DUP2 SWAP1 POP SWAP2 SWAP1 POP JUMP JUMPDEST PUSH2 0x39D6 DUP3 PUSH2 0x39B1 JUMP JUMPDEST PUSH2 0x39E9 PUSH2 0x39E2 DUP3 PUSH2 0x39C3 JUMP JUMPDEST DUP4 SLOAD PUSH2 0x398E JUMP JUMPDEST DUP3 SSTORE POP POP POP JUMP JUMPDEST PUSH1 0x0 DUP2 ADD PUSH1 0x0 DUP4 ADD PUSH2 0x3A02 DUP2 DUP6 PUSH2 0x31AB JUMP JUMPDEST PUSH2 0x3A0D DUP2 DUP4 DUP7 PUSH2 0x3524 JUMP JUMPDEST POP POP POP POP PUSH1 0x1 DUP2 ADD PUSH1 0x20 DUP4 ADD PUSH2 0x3A23 DUP2 DUP6 PUSH2 0x31AB JUMP JUMPDEST PUSH2 0x3A2E DUP2 DUP4 DUP7 PUSH2 0x3524 JUMP JUMPDEST POP POP POP POP PUSH1 0x2 DUP2 ADD PUSH1 0x40 DUP4 ADD PUSH2 0x3A44 DUP2 DUP6 PUSH2 0x31AB JUMP JUMPDEST PUSH2 0x3A4F DUP2 DUP4 DUP7 PUSH2 0x3524 JUMP JUMPDEST POP POP POP POP PUSH1 0x3 DUP2 ADD PUSH1 0x60 DUP4 ADD PUSH2 0x3A65 DUP2 DUP6 PUSH2 0x3534 JUMP JUMPDEST PUSH2 0x3A70 DUP2 DUP4 DUP7 PUSH2 0x395B JUMP JUMPDEST POP POP POP POP PUSH1 0x4 DUP2 ADD PUSH1 0x80 DUP4 ADD DUP1 PUSH2 0x3A86 DUP2 PUSH2 0x396B JUMP JUMPDEST SWAP1 POP PUSH2 0x3A92 DUP2 DUP5 PUSH2 0x39CD JUMP JUMPDEST POP POP POP POP POP JUMP JUMPDEST PUSH2 0x3AA3 DUP3 DUP3 PUSH2 0x39F0 JUMP JUMPDEST POP POP JUMP JUMPDEST PUSH1 0x6 DUP2 LT PUSH2 0x3AB4 JUMPI PUSH1 0x0 DUP1 REVERT JUMPDEST POP JUMP JUMPDEST PUSH1 0x0 DUP2 CALLDATALOAD PUSH2 0x3AC4 DUP2 PUSH2 0x3AA7 JUMP JUMPDEST DUP1 SWAP2 POP POP SWAP2 SWAP1 POP JUMP JUMPDEST PUSH1 0x0 PUSH2 0x3AD8 DUP3 PUSH2 0x2B7D JUMP JUMPDEST SWAP1 POP SWAP2 SWAP1 POP JUMP JUMPDEST PUSH1 0x0 DUP2 SWAP1 POP SWAP2 SWAP1 POP JUMP JUMPDEST PUSH2 0x3AF2 DUP3 PUSH2 0x3ACD JUMP JUMPDEST PUSH2 0x3B05 PUSH2 0x3AFE DUP3 PUSH2 0x3ADF JUMP JUMPDEST DUP4 SLOAD PUSH2 0x398E JUMP JUMPDEST DUP3 SSTORE POP POP POP JUMP JUMPDEST PUSH1 0x0 DUP1 DUP4 CALLDATALOAD PUSH1 0x1 PUSH1 0x20 SUB DUP5 CALLDATASIZE SUB SUB DUP2 SLT PUSH2 0x3B29 JUMPI PUSH2 0x3B28 PUSH2 0x319C JUMP JUMPDEST JUMPDEST DUP1 DUP5 ADD SWAP3 POP DUP3 CALLDATALOAD SWAP2 POP PUSH8 0xFFFFFFFFFFFFFFFF DUP3 GT ISZERO PUSH2 0x3B4B JUMPI PUSH2 0x3B4A PUSH2 0x31A1 JUMP JUMPDEST JUMPDEST PUSH1 0x20 DUP4 ADD SWAP3 POP PUSH1 0x20 DUP3 MUL CALLDATASIZE SUB DUP4 SGT ISZERO PUSH2 0x3B67 JUMPI PUSH2 0x3B66 PUSH2 0x31A6 JUMP JUMPDEST JUMPDEST POP SWAP3 POP SWAP3 SWAP1 POP JUMP JUMPDEST PUSH1 0x0 DUP2 SWAP1 POP SWAP2 SWAP1 POP JUMP JUMPDEST PUSH1 0x0 DUP3 CALLDATALOAD PUSH1 0x1 PUSH1 0x40 SUB DUP4 CALLDATASIZE SUB SUB DUP2 SLT PUSH2 0x3B95 JUMPI PUSH2 0x3B94 PUSH2 0x319C JUMP JUMPDEST JUMPDEST DUP1 DUP4 ADD SWAP2 POP POP SWAP3 SWAP2 POP POP JUMP JUMPDEST PUSH1 0x0 DUP2 SLOAD SWAP1 POP SWAP2 SWAP1 POP JUMP JUMPDEST PUSH1 0x0 DUP2 SWAP1 POP PUSH2 0x3BBC DUP3 PUSH1 0x2 PUSH2 0x35DB JUMP JUMPDEST SWAP1 POP SWAP2 SWAP1 POP JUMP JUMPDEST PUSH1 0x0 DUP2 SWAP1 POP DUP2 PUSH1 0x0 MSTORE PUSH1 0x20 PUSH1 0x0 KECCAK256 SWAP1 POP SWAP2 SWAP1 POP JUMP JUMPDEST PUSH2 0x3BE5 PUSH1 0x0 DUP1 DUP4 ADD PUSH2 0x3833 JUMP JUMPDEST PUSH1 0x0 PUSH1 0x1 DUP3 ADD SSTORE POP JUMP JUMPDEST PUSH1 0x0 DUP3 EQ PUSH2 0x3C00 JUMPI PUSH2 0x3BFF PUSH2 0x316D JUMP JUMPDEST JUMPDEST PUSH2 0x3C09 DUP2 PUSH2 0x3BD8 JUMP JUMPDEST POP POP JUMP JUMPDEST JUMPDEST DUP2 DUP2 LT ISZERO PUSH2 0x3C2C JUMPI PUSH2 0x3C21 PUSH1 0x0 DUP3 PUSH2 0x3BEF JUMP JUMPDEST PUSH1 0x2 DUP2 ADD SWAP1 POP PUSH2 0x3C0E JUMP JUMPDEST POP POP JUMP JUMPDEST DUP2 DUP4 LT ISZERO PUSH2 0x3C69 JUMPI PUSH2 0x3C41 DUP3 PUSH2 0x3BAC JUMP JUMPDEST PUSH2 0x3C4A DUP5 PUSH2 0x3BAC JUMP JUMPDEST PUSH2 0x3C53 DUP4 PUSH2 0x3BC3 JUMP JUMPDEST DUP2 DUP2 ADD DUP4 DUP3 ADD PUSH2 0x3C63 DUP2 DUP4 PUSH2 0x3C0D JUMP JUMPDEST POP POP POP POP POP JUMPDEST POP POP POP JUMP JUMPDEST PUSH9 0x10000000000000000 DUP3 GT ISZERO PUSH2 0x3C88 JUMPI PUSH2 0x3C87 PUSH2 0x3219 JUMP JUMPDEST JUMPDEST PUSH2 0x3C91 DUP2 PUSH2 0x3BA1 JUMP JUMPDEST DUP3 DUP3 SSTORE PUSH2 0x3C9F DUP4 DUP3 DUP5 PUSH2 0x3C30 JUMP JUMPDEST POP POP POP JUMP JUMPDEST PUSH1 0x0 DUP3 SWAP1 POP SWAP3 SWAP2 POP POP JUMP JUMPDEST PUSH1 0x0 DUP2 CALLDATALOAD PUSH2 0x3CBC DUP2 PUSH2 0x3114 JUMP JUMPDEST DUP1 SWAP2 POP POP SWAP2 SWAP1 POP JUMP JUMPDEST PUSH1 0x0 PUSH20 0xFFFFFFFFFFFFFFFFFFFFFFFFFFFFFFFFFFFFFFFF PUSH2 0x3CE5 DUP5 PUSH2 0x3981 JUMP JUMPDEST SWAP4 POP DUP1 NOT DUP4 AND SWAP3 POP DUP1 DUP5 AND DUP4 OR SWAP2 POP POP SWAP3 SWAP2 POP POP JUMP JUMPDEST PUSH1 0x0 PUSH2 0x3D16 PUSH2 0x3D11 PUSH2 0x3D0C DUP5 PUSH2 0x2363 JUMP JUMPDEST PUSH2 0x332C JUMP JUMPDEST PUSH2 0x2363 JUMP JUMPDEST SWAP1 POP SWAP2 SWAP1 POP JUMP JUMPDEST PUSH1 0x0 PUSH2 0x3D28 DUP3 PUSH2 0x3CFB JUMP JUMPDEST SWAP1 POP SWAP2 SWAP1 POP JUMP JUMPDEST PUSH1 0x0 PUSH2 0x3D3A DUP3 PUSH2 0x3D1D JUMP JUMPDEST SWAP1 POP SWAP2 SWAP1 POP JUMP JUMPDEST PUSH1 0x0 DUP2 SWAP1 POP SWAP2 SWAP1 POP JUMP JUMPDEST PUSH2 0x3D54 DUP3 PUSH2 0x3D2F JUMP JUMPDEST PUSH2 0x3D67 PUSH2 0x3D60 DUP3 PUSH2 0x3D41 JUMP JUMPDEST DUP4 SLOAD PUSH2 0x3CC5 JUMP JUMPDEST DUP3 SSTORE POP POP POP JUMP JUMPDEST PUSH1 0x0 DUP2 ADD PUSH1 0x0 DUP4 ADD PUSH2 0x3D80 DUP2 DUP6 PUSH2 0x31AB JUMP JUMPDEST PUSH2 0x3D8B DUP2 DUP4 DUP7 PUSH2 0x3524 JUMP JUMPDEST POP POP POP POP PUSH1 0x1 DUP2 ADD PUSH1 0x20 DUP4 ADD DUP1 PUSH2 0x3DA1 DUP2 PUSH2 0x3CAF JUMP JUMPDEST SWAP1 POP PUSH2 0x3DAD DUP2 DUP5 PUSH2 0x3D4B JUMP JUMPDEST POP POP POP POP POP JUMP JUMPDEST PUSH2 0x3DBE DUP3 DUP3 PUSH2 0x3D6E JUMP JUMPDEST POP POP JUMP JUMPDEST PUSH2 0x3DCC DUP4 DUP4 PUSH2 0x3CA4 JUMP JUMPDEST PUSH2 0x3DD6 DUP2 DUP4 PUSH2 0x3C6E JUMP JUMPDEST PUSH2 0x3DDF DUP4 PUSH2 0x3B6F JUMP JUMPDEST PUSH2 0x3DE8 DUP4 PUSH2 0x3BC3 JUMP JUMPDEST PUSH1 0x0 JUMPDEST DUP4 DUP2 LT ISZERO PUSH2 0x3E1F JUMPI PUSH2 0x3DFD DUP4 DUP8 PUSH2 0x3B79 JUMP JUMPDEST PUSH2 0x3E07 DUP2 DUP5 PUSH2 0x3DB4 JUMP JUMPDEST PUSH1 0x20 DUP5 ADD SWAP4 POP PUSH1 0x2 DUP4 ADD SWAP3 POP POP PUSH1 0x1 DUP2 ADD SWAP1 POP PUSH2 0x3DEB JUMP JUMPDEST POP POP POP POP POP POP POP JUMP JUMPDEST PUSH2 0x3E33 DUP4 DUP4 DUP4 PUSH2 0x3DC2 JUMP JUMPDEST POP POP POP JUMP JUMPDEST PUSH1 0x0 DUP2 ADD PUSH1 0x0 DUP4 ADD DUP1 PUSH2 0x3E4A DUP2 PUSH2 0x3AB7 JUMP JUMPDEST SWAP1 POP PUSH2 0x3E56 DUP2 DUP5 PUSH2 0x3AE9 JUMP JUMPDEST POP POP POP PUSH1 0x1 DUP2 ADD PUSH1 0x20 DUP4 ADD PUSH2 0x3E6B DUP2 DUP6 PUSH2 0x3B0C JUMP JUMPDEST PUSH2 0x3E76 DUP2 DUP4 DUP7 PUSH2 0x3E28 JUMP JUMPDEST POP POP POP POP PUSH1 0x2 DUP2 ADD PUSH1 0x40 DUP4 ADD PUSH2 0x3E8C DUP2 DUP6 PUSH2 0x31AB JUMP JUMPDEST PUSH2 0x3E97 DUP2 DUP4 DUP7 PUSH2 0x3524 JUMP JUMPDEST POP POP POP POP POP POP JUMP JUMPDEST PUSH2 0x3EA9 DUP3 DUP3 PUSH2 0x3E38 JUMP JUMPDEST POP POP JUMP JUMPDEST PUSH32 0x4E487B7100000000000000000000000000000000000000000000000000000000 PUSH1 0x0 MSTORE PUSH1 0x32 PUSH1 0x4 MSTORE PUSH1 0x24 PUSH1 0x0 REVERT JUMPDEST PUSH1 0x0 DUP3 DUP3 MSTORE PUSH1 0x20 DUP3 ADD SWAP1 POP SWAP3 SWAP2 POP POP JUMP JUMPDEST PUSH32 0x436F6D6D756E6974792069732064697361626C65640000000000000000000000 PUSH1 0x0 DUP3 ADD MSTORE POP JUMP JUMPDEST PUSH1 0x0 PUSH2 0x3F23 PUSH1 0x15 DUP4 PUSH2 0x3EDC JUMP JUMPDEST SWAP2 POP PUSH2 0x3F2E DUP3 PUSH2 0x3EED JUMP JUMPDEST PUSH1 0x20 DUP3 ADD SWAP1 POP SWAP2 SWAP1 POP JUMP JUMPDEST PUSH1 0x0 PUSH1 0x20 DUP3 ADD SWAP1 POP DUP2 DUP2 SUB PUSH1 0x0 DUP4 ADD MSTORE PUSH2 0x3F52 DUP2 PUSH2 0x3F16 JUMP JUMPDEST SWAP1 POP SWAP2 SWAP1 POP JUMP JUMPDEST PUSH32 0x496E73756666696369656E742066756E647320666F722074686973206F706572 PUSH1 0x0 DUP3 ADD MSTORE PUSH32 0x6174696F6E000000000000000000000000000000000000000000000000000000 PUSH1 0x20 DUP3 ADD MSTORE POP JUMP JUMPDEST PUSH1 0x0 PUSH2 0x3FB5 PUSH1 0x25 DUP4 PUSH2 0x3EDC JUMP JUMPDEST SWAP2 POP PUSH2 0x3FC0 DUP3 PUSH2 0x3F59 JUMP JUMPDEST PUSH1 0x40 DUP3 ADD SWAP1 POP SWAP2 SWAP1 POP JUMP JUMPDEST PUSH1 0x0 PUSH1 0x20 DUP3 ADD SWAP1 POP DUP2 DUP2 SUB PUSH1 0x0 DUP4 ADD MSTORE PUSH2 0x3FE4 DUP2 PUSH2 0x3FA8 JUMP JUMPDEST SWAP1 POP SWAP2 SWAP1 POP JUMP JUMPDEST PUSH1 0x0 PUSH2 0x3FF6 DUP3 PUSH2 0x23A4 JUMP JUMPDEST SWAP2 POP PUSH2 0x4001 DUP4 PUSH2 0x23A4 JUMP JUMPDEST SWAP3 POP DUP3 DUP3 SUB SWAP1 POP DUP2 DUP2 GT ISZERO PUSH2 0x4019 JUMPI PUSH2 0x4018 PUSH2 0x35AC JUMP JUMPDEST JUMPDEST SWAP3 SWAP2 POP POP JUMP JUMPDEST PUSH2 0x4028 DUP3 PUSH2 0x26CE JUMP JUMPDEST DUP2 ADD DUP2 DUP2 LT PUSH8 0xFFFFFFFFFFFFFFFF DUP3 GT OR ISZERO PUSH2 0x4047 JUMPI PUSH2 0x4046 PUSH2 0x3219 JUMP JUMPDEST JUMPDEST DUP1 PUSH1 0x40 MSTORE POP POP POP JUMP JUMPDEST PUSH1 0x0 PUSH2 0x405A PUSH2 0x23E6 JUMP JUMPDEST SWAP1 POP PUSH2 0x4066 DUP3 DUP3 PUSH2 0x401F JUMP JUMPDEST SWAP2 SWAP1 POP JUMP JUMPDEST PUSH1 0x0 PUSH8 0xFFFFFFFFFFFFFFFF DUP3 GT ISZERO PUSH2 0x4086 JUMPI PUSH2 0x4085 PUSH2 0x3219 JUMP JUMPDEST JUMPDEST PUSH1 0x20 DUP3 MUL SWAP1 POP PUSH1 0x20 DUP2 ADD SWAP1 POP SWAP2 SWAP1 POP JUMP JUMPDEST PUSH1 0x0 DUP1 REVERT JUMPDEST PUSH1 0x0 PUSH8 0xFFFFFFFFFFFFFFFF DUP3 GT ISZERO PUSH2 0x40B7 JUMPI PUSH2 0x40B6 PUSH2 0x3219 JUMP JUMPDEST JUMPDEST PUSH2 0x40C0 DUP3 PUSH2 0x26CE JUMP JUMPDEST SWAP1 POP PUSH1 0x20 DUP2 ADD SWAP1 POP SWAP2 SWAP1 POP JUMP JUMPDEST DUP3 DUP2 DUP4 CALLDATACOPY PUSH1 0x0 DUP4 DUP4 ADD MSTORE POP POP POP JUMP JUMPDEST PUSH1 0x0 PUSH2 0x40EF PUSH2 0x40EA DUP5 PUSH2 0x409C JUMP JUMPDEST PUSH2 0x4050 JUMP JUMPDEST SWAP1 POP DUP3 DUP2 MSTORE PUSH1 0x20 DUP2 ADD DUP5 DUP5 DUP5 ADD GT ISZERO PUSH2 0x410B JUMPI PUSH2 0x410A PUSH2 0x4097 JUMP JUMPDEST JUMPDEST PUSH2 0x4116 DUP5 DUP3 DUP6 PUSH2 0x40CD JUMP JUMPDEST POP SWAP4 SWAP3 POP POP POP JUMP JUMPDEST PUSH1 0x0 DUP3 PUSH1 0x1F DUP4 ADD SLT PUSH2 0x4133 JUMPI PUSH2 0x4132 PUSH2 0x2469 JUMP JUMPDEST JUMPDEST DUP2 CALLDATALOAD PUSH2 0x4143 DUP5 DUP3 PUSH1 0x20 DUP7 ADD PUSH2 0x40DC JUMP JUMPDEST SWAP2 POP POP SWAP3 SWAP2 POP POP JUMP JUMPDEST PUSH1 0x0 PUSH2 0x415F PUSH2 0x415A DUP5 PUSH2 0x406B JUMP JUMPDEST PUSH2 0x4050 JUMP JUMPDEST SWAP1 POP DUP1 DUP4 DUP3 MSTORE PUSH1 0x20 DUP3 ADD SWAP1 POP PUSH1 0x20 DUP5 MUL DUP4 ADD DUP6 DUP2 GT ISZERO PUSH2 0x4182 JUMPI PUSH2 0x4181 PUSH2 0x2473 JUMP JUMPDEST JUMPDEST DUP4 JUMPDEST DUP2 DUP2 LT ISZERO PUSH2 0x41C9 JUMPI DUP1 CALLDATALOAD PUSH8 0xFFFFFFFFFFFFFFFF DUP2 GT ISZERO PUSH2 0x41A7 JUMPI PUSH2 0x41A6 PUSH2 0x2469 JUMP JUMPDEST JUMPDEST DUP1 DUP7 ADD PUSH2 0x41B4 DUP10 DUP3 PUSH2 0x411E JUMP JUMPDEST DUP6 MSTORE PUSH1 0x20 DUP6 ADD SWAP5 POP POP POP PUSH1 0x20 DUP2 ADD SWAP1 POP PUSH2 0x4184 JUMP JUMPDEST POP POP POP SWAP4 SWAP3 POP POP POP JUMP JUMPDEST PUSH1 0x0 PUSH2 0x41E0 CALLDATASIZE DUP5 DUP5 PUSH2 0x414C JUMP JUMPDEST SWAP1 POP SWAP3 SWAP2 POP POP JUMP JUMPDEST PUSH1 0x0 DUP1 DUP4 CALLDATALOAD PUSH1 0x1 PUSH1 0x20 SUB DUP5 CALLDATASIZE SUB SUB DUP2 SLT PUSH2 0x4205 JUMPI PUSH2 0x4204 PUSH2 0x319C JUMP JUMPDEST JUMPDEST DUP1 DUP5 ADD SWAP3 POP DUP3 CALLDATALOAD SWAP2 POP PUSH8 0xFFFFFFFFFFFFFFFF DUP3 GT ISZERO PUSH2 0x4227 JUMPI PUSH2 0x4226 PUSH2 0x31A1 JUMP JUMPDEST JUMPDEST PUSH1 0x20 DUP4 ADD SWAP3 POP PUSH1 0x20 DUP3 MUL CALLDATASIZE SUB DUP4 SGT ISZERO PUSH2 0x4243 JUMPI PUSH2 0x4242 PUSH2 0x31A6 JUMP JUMPDEST JUMPDEST POP SWAP3 POP SWAP3 SWAP1 POP JUMP JUMPDEST PUSH1 0x0 PUSH8 0xFFFFFFFFFFFFFFFF DUP3 GT ISZERO PUSH2 0x4266 JUMPI PUSH2 0x4265 PUSH2 0x3219 JUMP JUMPDEST JUMPDEST PUSH1 0x20 DUP3 MUL SWAP1 POP PUSH1 0x20 DUP2 ADD SWAP1 POP SWAP2 SWAP1 POP JUMP JUMPDEST PUSH1 0x0 PUSH8 0xFFFFFFFFFFFFFFFF DUP3 GT ISZERO PUSH2 0x4292 JUMPI PUSH2 0x4291 PUSH2 0x3219 JUMP JUMPDEST JUMPDEST PUSH1 0x20 DUP3 MUL SWAP1 POP PUSH1 0x20 DUP2 ADD SWAP1 POP SWAP2 SWAP1 POP JUMP JUMPDEST PUSH1 0x0 PUSH2 0x42B6 PUSH2 0x42B1 DUP5 PUSH2 0x4277 JUMP JUMPDEST PUSH2 0x4050 JUMP JUMPDEST SWAP1 POP DUP1 DUP4 DUP3 MSTORE PUSH1 0x20 DUP3 ADD SWAP1 POP PUSH1 0x20 DUP5 MUL DUP4 ADD DUP6 DUP2 GT ISZERO PUSH2 0x42D9 JUMPI PUSH2 0x42D8 PUSH2 0x2473 JUMP JUMPDEST JUMPDEST DUP4 JUMPDEST DUP2 DUP2 LT ISZERO PUSH2 0x4302 JUMPI DUP1 PUSH2 0x42EE DUP9 DUP3 PUSH2 0x2411 JUMP JUMPDEST DUP5 MSTORE PUSH1 0x20 DUP5 ADD SWAP4 POP POP PUSH1 0x20 DUP2 ADD SWAP1 POP PUSH2 0x42DB JUMP JUMPDEST POP POP POP SWAP4 SWAP3 POP POP POP JUMP JUMPDEST PUSH1 0x0 DUP3 PUSH1 0x1F DUP4 ADD SLT PUSH2 0x4321 JUMPI PUSH2 0x4320 PUSH2 0x2469 JUMP JUMPDEST JUMPDEST DUP2 CALLDATALOAD PUSH2 0x4331 DUP5 DUP3 PUSH1 0x20 DUP7 ADD PUSH2 0x42A3 JUMP JUMPDEST SWAP2 POP POP SWAP3 SWAP2 POP POP JUMP JUMPDEST PUSH1 0x0 PUSH2 0x434D PUSH2 0x4348 DUP5 PUSH2 0x424B JUMP JUMPDEST PUSH2 0x4050 JUMP JUMPDEST SWAP1 POP DUP1 DUP4 DUP3 MSTORE PUSH1 0x20 DUP3 ADD SWAP1 POP PUSH1 0x20 DUP5 MUL DUP4 ADD DUP6 DUP2 GT ISZERO PUSH2 0x4370 JUMPI PUSH2 0x436F PUSH2 0x2473 JUMP JUMPDEST JUMPDEST DUP4 JUMPDEST DUP2 DUP2 LT ISZERO PUSH2 0x43B7 JUMPI DUP1 CALLDATALOAD PUSH8 0xFFFFFFFFFFFFFFFF DUP2 GT ISZERO PUSH2 0x4395 JUMPI PUSH2 0x4394 PUSH2 0x2469 JUMP JUMPDEST JUMPDEST DUP1 DUP7 ADD PUSH2 0x43A2 DUP10 DUP3 PUSH2 0x430C JUMP JUMPDEST DUP6 MSTORE PUSH1 0x20 DUP6 ADD SWAP5 POP POP POP PUSH1 0x20 DUP2 ADD SWAP1 POP PUSH2 0x4372 JUMP JUMPDEST POP POP POP SWAP4 SWAP3 POP POP POP JUMP JUMPDEST PUSH1 0x0 PUSH2 0x43CE CALLDATASIZE DUP5 DUP5 PUSH2 0x433A JUMP JUMPDEST SWAP1 POP SWAP3 SWAP2 POP POP JUMP JUMPDEST PUSH1 0x0 DUP1 DUP4 CALLDATALOAD PUSH1 0x1 PUSH1 0x20 SUB DUP5 CALLDATASIZE SUB SUB DUP2 SLT PUSH2 0x43F3 JUMPI PUSH2 0x43F2 PUSH2 0x319C JUMP JUMPDEST JUMPDEST DUP1 DUP5 ADD SWAP3 POP DUP3 CALLDATALOAD SWAP2 POP PUSH8 0xFFFFFFFFFFFFFFFF DUP3 GT ISZERO PUSH2 0x4415 JUMPI PUSH2 0x4414 PUSH2 0x31A1 JUMP JUMPDEST JUMPDEST PUSH1 0x20 DUP4 ADD SWAP3 POP PUSH1 0x20 DUP3 MUL CALLDATASIZE SUB DUP4 SGT ISZERO PUSH2 0x4431 JUMPI PUSH2 0x4430 PUSH2 0x31A6 JUMP JUMPDEST JUMPDEST POP SWAP3 POP SWAP3 SWAP1 POP JUMP JUMPDEST PUSH2 0x4442 DUP3 PUSH2 0x2688 JUMP JUMPDEST PUSH8 0xFFFFFFFFFFFFFFFF DUP2 GT ISZERO PUSH2 0x445B JUMPI PUSH2 0x445A PUSH2 0x3219 JUMP JUMPDEST JUMPDEST PUSH2 0x4465 DUP3 SLOAD PUSH2 0x3277 JUMP JUMPDEST PUSH2 0x4470 DUP3 DUP3 DUP6 PUSH2 0x33C7 JUMP JUMPDEST PUSH1 0x0 PUSH1 0x20 SWAP1 POP PUSH1 0x1F DUP4 GT PUSH1 0x1 DUP2 EQ PUSH2 0x44A3 JUMPI PUSH1 0x0 DUP5 ISZERO PUSH2 0x4491 JUMPI DUP3 DUP8 ADD MLOAD SWAP1 POP JUMPDEST PUSH2 0x449B DUP6 DUP3 PUSH2 0x3438 JUMP JUMPDEST DUP7 SSTORE POP PUSH2 0x4503 JUMP JUMPDEST PUSH1 0x1F NOT DUP5 AND PUSH2 0x44B1 DUP7 PUSH2 0x32A8 JUMP JUMPDEST PUSH1 0x0 JUMPDEST DUP3 DUP2 LT ISZERO PUSH2 0x44D9 JUMPI DUP5 DUP10 ADD MLOAD DUP3 SSTORE PUSH1 0x1 DUP3 ADD SWAP2 POP PUSH1 0x20 DUP6 ADD SWAP5 POP PUSH1 0x20 DUP2 ADD SWAP1 POP PUSH2 0x44B4 JUMP JUMPDEST DUP7 DUP4 LT ISZERO PUSH2 0x44F6 JUMPI DUP5 DUP10 ADD MLOAD PUSH2 0x44F2 PUSH1 0x1F DUP10 AND DUP3 PUSH2 0x341A JUMP JUMPDEST DUP4 SSTORE POP JUMPDEST PUSH1 0x1 PUSH1 0x2 DUP9 MUL ADD DUP9 SSTORE POP POP POP JUMPDEST POP POP POP POP POP POP JUMP JUMPDEST PUSH2 0x4514 DUP2 PUSH2 0x2612 JUMP JUMPDEST DUP3 MSTORE POP POP JUMP JUMPDEST PUSH1 0x0 PUSH1 0x40 DUP3 ADD SWAP1 POP PUSH2 0x452F PUSH1 0x0 DUP4 ADD DUP6 PUSH2 0x23AE JUMP JUMPDEST PUSH2 0x453C PUSH1 0x20 DUP4 ADD DUP5 PUSH2 0x450B JUMP JUMPDEST SWAP4 SWAP3 POP POP POP JUMP JUMPDEST PUSH32 0x4E6F2066756E647320617661696C61626C650000000000000000000000000000 PUSH1 0x0 DUP3 ADD MSTORE POP JUMP JUMPDEST PUSH1 0x0 PUSH2 0x4579 PUSH1 0x12 DUP4 PUSH2 0x3EDC JUMP JUMPDEST SWAP2 POP PUSH2 0x4584 DUP3 PUSH2 0x4543 JUMP JUMPDEST PUSH1 0x20 DUP3 ADD SWAP1 POP SWAP2 SWAP1 POP JUMP JUMPDEST PUSH1 0x0 PUSH1 0x20 DUP3 ADD SWAP1 POP DUP2 DUP2 SUB PUSH1 0x0 DUP4 ADD MSTORE PUSH2 0x45A8 DUP2 PUSH2 0x456C JUMP JUMPDEST SWAP1 POP SWAP2 SWAP1 POP JUMP JUMPDEST PUSH1 0x0 DUP2 SWAP1 POP SWAP3 SWAP2 POP POP JUMP JUMPDEST POP JUMP JUMPDEST PUSH1 0x0 PUSH2 0x45CA PUSH1 0x0 DUP4 PUSH2 0x45AF JUMP JUMPDEST SWAP2 POP PUSH2 0x45D5 DUP3 PUSH2 0x45BA JUMP JUMPDEST PUSH1 0x0 DUP3 ADD SWAP1 POP SWAP2 SWAP1 POP JUMP JUMPDEST PUSH1 0x0 PUSH2 0x45EB DUP3 PUSH2 0x45BD JUMP JUMPDEST SWAP2 POP DUP2 SWAP1 POP SWAP2 SWAP1 POP JUMP JUMPDEST PUSH32 0x4661696C656420746F2073656E64204574686572000000000000000000000000 PUSH1 0x0 DUP3 ADD MSTORE POP JUMP JUMPDEST PUSH1 0x0 PUSH2 0x462B PUSH1 0x14 DUP4 PUSH2 0x3EDC JUMP JUMPDEST SWAP2 POP PUSH2 0x4636 DUP3 PUSH2 0x45F5 JUMP JUMPDEST PUSH1 0x20 DUP3 ADD SWAP1 POP SWAP2 SWAP1 POP JUMP JUMPDEST PUSH1 0x0 PUSH1 0x20 DUP3 ADD SWAP1 POP DUP2 DUP2 SUB PUSH1 0x0 DUP4 ADD MSTORE PUSH2 0x465A DUP2 PUSH2 0x461E JUMP JUMPDEST SWAP1 POP SWAP2 SWAP1 POP JUMP JUMPDEST PUSH1 0x0 PUSH2 0x466C DUP3 PUSH2 0x3D1D JUMP JUMPDEST SWAP1 POP SWAP2 SWAP1 POP JUMP JUMPDEST PUSH2 0x467C DUP2 PUSH2 0x4661 JUMP JUMPDEST DUP3 MSTORE POP POP JUMP JUMPDEST PUSH1 0x0 PUSH1 0x40 DUP3 ADD SWAP1 POP PUSH2 0x4697 PUSH1 0x0 DUP4 ADD DUP6 PUSH2 0x23AE JUMP JUMPDEST PUSH2 0x46A4 PUSH1 0x20 DUP4 ADD DUP5 PUSH2 0x4673 JUMP JUMPDEST SWAP4 SWAP3 POP POP POP JUMP JUMPDEST PUSH1 0x0 DUP2 CALLDATALOAD SWAP1 POP PUSH2 0x46BA DUP2 PUSH2 0x3AA7 JUMP JUMPDEST SWAP3 SWAP2 POP POP JUMP JUMPDEST PUSH1 0x0 PUSH2 0x46CF PUSH1 0x20 DUP5 ADD DUP5 PUSH2 0x46AB JUMP JUMPDEST SWAP1 POP SWAP3 SWAP2 POP POP JUMP JUMPDEST PUSH1 0x0 DUP1 REVERT JUMPDEST PUSH1 0x0 DUP1 REVERT JUMPDEST PUSH1 0x0 DUP1 REVERT JUMPDEST PUSH1 0x0 DUP1 DUP4 CALLDATALOAD PUSH1 0x1 PUSH1 0x20 SUB DUP5 CALLDATASIZE SUB SUB DUP2 SLT PUSH2 0x4703 JUMPI PUSH2 0x4702 PUSH2 0x46E1 JUMP JUMPDEST JUMPDEST DUP4 DUP2 ADD SWAP3 POP DUP3 CALLDATALOAD SWAP2 POP PUSH1 0x20 DUP4 ADD SWAP3 POP PUSH8 0xFFFFFFFFFFFFFFFF DUP3 GT ISZERO PUSH2 0x472B JUMPI PUSH2 0x472A PUSH2 0x46D7 JUMP JUMPDEST JUMPDEST PUSH1 0x20 DUP3 MUL CALLDATASIZE SUB DUP4 SGT ISZERO PUSH2 0x4741 JUMPI PUSH2 0x4740 PUSH2 0x46DC JUMP JUMPDEST JUMPDEST POP SWAP3 POP SWAP3 SWAP1 POP JUMP JUMPDEST PUSH1 0x0 DUP1 DUP4 CALLDATALOAD PUSH1 0x1 PUSH1 0x20 SUB DUP5 CALLDATASIZE SUB SUB DUP2 SLT PUSH2 0x4766 JUMPI PUSH2 0x4765 PUSH2 0x46E1 JUMP JUMPDEST JUMPDEST DUP4 DUP2 ADD SWAP3 POP DUP3 CALLDATALOAD SWAP2 POP PUSH1 0x20 DUP4 ADD SWAP3 POP PUSH8 0xFFFFFFFFFFFFFFFF DUP3 GT ISZERO PUSH2 0x478E JUMPI PUSH2 0x478D PUSH2 0x46D7 JUMP JUMPDEST JUMPDEST PUSH1 0x1 DUP3 MUL CALLDATASIZE SUB DUP4 SGT ISZERO PUSH2 0x47A4 JUMPI PUSH2 0x47A3 PUSH2 0x46DC JUMP JUMPDEST JUMPDEST POP SWAP3 POP SWAP3 SWAP1 POP JUMP JUMPDEST PUSH1 0x0 PUSH2 0x47B8 DUP4 DUP6 PUSH2 0x2693 JUMP JUMPDEST SWAP4 POP PUSH2 0x47C5 DUP4 DUP6 DUP5 PUSH2 0x40CD JUMP JUMPDEST PUSH2 0x47CE DUP4 PUSH2 0x26CE JUMP JUMPDEST DUP5 ADD SWAP1 POP SWAP4 SWAP3 POP POP POP JUMP JUMPDEST PUSH1 0x0 PUSH2 0x47E8 PUSH1 0x20 DUP5 ADD DUP5 PUSH2 0x312B JUMP JUMPDEST SWAP1 POP SWAP3 SWAP2 POP POP JUMP JUMPDEST PUSH1 0x0 PUSH1 0x40 DUP4 ADD PUSH2 0x4803 PUSH1 0x0 DUP5 ADD DUP5 PUSH2 0x4749 JUMP JUMPDEST DUP6 DUP4 SUB PUSH1 0x0 DUP8 ADD MSTORE PUSH2 0x4816 DUP4 DUP3 DUP5 PUSH2 0x47AC JUMP JUMPDEST SWAP3 POP POP POP PUSH2 0x4827 PUSH1 0x20 DUP5 ADD DUP5 PUSH2 0x47D9 JUMP JUMPDEST PUSH2 0x4834 PUSH1 0x20 DUP7 ADD DUP3 PUSH2 0x2BDD JUMP JUMPDEST POP DUP1 SWAP2 POP POP SWAP3 SWAP2 POP POP JUMP JUMPDEST PUSH1 0x0 PUSH2 0x484B DUP4 DUP4 PUSH2 0x47F0 JUMP JUMPDEST SWAP1 POP SWAP3 SWAP2 POP POP JUMP JUMPDEST PUSH1 0x0 DUP3 CALLDATALOAD PUSH1 0x1 PUSH1 0x40 SUB DUP4 CALLDATASIZE SUB SUB DUP2 SLT PUSH2 0x486F JUMPI PUSH2 0x486E PUSH2 0x46E1 JUMP JUMPDEST JUMPDEST DUP3 DUP2 ADD SWAP2 POP POP SWAP3 SWAP2 POP POP JUMP JUMPDEST PUSH1 0x0 PUSH1 0x20 DUP3 ADD SWAP1 POP SWAP2 SWAP1 POP JUMP JUMPDEST PUSH1 0x0 PUSH2 0x4894 DUP4 DUP6 PUSH2 0x2BBC JUMP JUMPDEST SWAP4 POP DUP4 PUSH1 0x20 DUP5 MUL DUP6 ADD PUSH2 0x48A6 DUP5 PUSH2 0x3B6F JUMP JUMPDEST DUP1 PUSH1 0x0 JUMPDEST DUP8 DUP2 LT ISZERO PUSH2 0x48EA JUMPI DUP5 DUP5 SUB DUP10 MSTORE PUSH2 0x48C1 DUP3 DUP5 PUSH2 0x4853 JUMP JUMPDEST PUSH2 0x48CB DUP6 DUP3 PUSH2 0x483F JUMP JUMPDEST SWAP5 POP PUSH2 0x48D6 DUP4 PUSH2 0x487B JUMP JUMPDEST SWAP3 POP PUSH1 0x20 DUP11 ADD SWAP10 POP POP PUSH1 0x1 DUP2 ADD SWAP1 POP PUSH2 0x48AA JUMP JUMPDEST POP DUP3 SWAP8 POP DUP8 SWAP5 POP POP POP POP POP SWAP4 SWAP3 POP POP POP JUMP JUMPDEST PUSH1 0x0 PUSH1 0x60 DUP4 ADD PUSH2 0x490F PUSH1 0x0 DUP5 ADD DUP5 PUSH2 0x46C0 JUMP JUMPDEST PUSH2 0x491C PUSH1 0x0 DUP7 ADD DUP3 PUSH2 0x2BA2 JUMP JUMPDEST POP PUSH2 0x492A PUSH1 0x20 DUP5 ADD DUP5 PUSH2 0x46E6 JUMP JUMPDEST DUP6 DUP4 SUB PUSH1 0x20 DUP8 ADD MSTORE PUSH2 0x493D DUP4 DUP3 DUP5 PUSH2 0x4888 JUMP JUMPDEST SWAP3 POP POP POP PUSH2 0x494E PUSH1 0x40 DUP5 ADD DUP5 PUSH2 0x4749 JUMP JUMPDEST DUP6 DUP4 SUB PUSH1 0x40 DUP8 ADD MSTORE PUSH2 0x4961 DUP4 DUP3 DUP5 PUSH2 0x47AC JUMP JUMPDEST SWAP3 POP POP POP DUP1 SWAP2 POP POP SWAP3 SWAP2 POP POP JUMP JUMPDEST PUSH1 0x0 PUSH1 0x40 DUP3 ADD SWAP1 POP PUSH2 0x4984 PUSH1 0x0 DUP4 ADD DUP6 PUSH2 0x23AE JUMP JUMPDEST DUP2 DUP2 SUB PUSH1 0x20 DUP4 ADD MSTORE PUSH2 0x4996 DUP2 DUP5 PUSH2 0x48FC JUMP JUMPDEST SWAP1 POP SWAP4 SWAP3 POP POP POP JUMP JUMPDEST PUSH1 0x0 PUSH1 0x40 DUP3 ADD SWAP1 POP PUSH2 0x49B4 PUSH1 0x0 DUP4 ADD DUP6 PUSH2 0x23AE JUMP JUMPDEST PUSH2 0x49C1 PUSH1 0x20 DUP4 ADD DUP5 PUSH2 0x23AE JUMP JUMPDEST SWAP4 SWAP3 POP POP POP JUMP JUMPDEST PUSH1 0x0 PUSH1 0x60 DUP3 ADD SWAP1 POP PUSH2 0x49DD PUSH1 0x0 DUP4 ADD DUP7 PUSH2 0x2395 JUMP JUMPDEST PUSH2 0x49EA PUSH1 0x20 DUP4 ADD DUP6 PUSH2 0x23AE JUMP JUMPDEST PUSH2 0x49F7 PUSH1 0x40 DUP4 ADD DUP5 PUSH2 0x23AE JUMP JUMPDEST SWAP5 SWAP4 POP POP POP POP JUMP JUMPDEST PUSH1 0x0 PUSH2 0x4A0A DUP3 PUSH2 0x23A4 JUMP JUMPDEST SWAP2 POP PUSH32 0xFFFFFFFFFFFFFFFFFFFFFFFFFFFFFFFFFFFFFFFFFFFFFFFFFFFFFFFFFFFFFFFF DUP3 SUB PUSH2 0x4A3C JUMPI PUSH2 0x4A3B PUSH2 0x35AC JUMP JUMPDEST JUMPDEST PUSH1 0x1 DUP3 ADD SWAP1 POP SWAP2 SWAP1 POP JUMP JUMPDEST PUSH1 0x0 PUSH1 0x40 DUP3 ADD SWAP1 POP PUSH2 0x4A5C PUSH1 0x0 DUP4 ADD DUP6 PUSH2 0x23AE JUMP JUMPDEST PUSH2 0x4A69 PUSH1 0x20 DUP4 ADD DUP5 PUSH2 0x2395 JUMP JUMPDEST SWAP4 SWAP3 POP POP POP JUMP JUMPDEST PUSH2 0x4A79 DUP2 PUSH2 0x2D3D JUMP JUMPDEST DUP3 MSTORE POP POP JUMP JUMPDEST PUSH1 0x0 PUSH1 0x40 DUP3 ADD SWAP1 POP PUSH2 0x4A94 PUSH1 0x0 DUP4 ADD DUP6 PUSH2 0x23AE JUMP JUMPDEST PUSH2 0x4AA1 PUSH1 0x20 DUP4 ADD DUP5 PUSH2 0x4A70 JUMP JUMPDEST SWAP4 SWAP3 POP POP POP JUMP JUMPDEST PUSH1 0x0 DUP1 DUP4 CALLDATALOAD PUSH1 0x1 PUSH1 0x20 SUB DUP5 CALLDATASIZE SUB SUB DUP2 SLT PUSH2 0x4AC5 JUMPI PUSH2 0x4AC4 PUSH2 0x46E1 JUMP JUMPDEST JUMPDEST DUP4 DUP2 ADD SWAP3 POP DUP3 CALLDATALOAD SWAP2 POP PUSH1 0x20 DUP4 ADD SWAP3 POP PUSH8 0xFFFFFFFFFFFFFFFF DUP3 GT ISZERO PUSH2 0x4AED JUMPI PUSH2 0x4AEC PUSH2 0x46D7 JUMP JUMPDEST JUMPDEST PUSH1 0x20 DUP3 MUL CALLDATASIZE SUB DUP4 SGT ISZERO PUSH2 0x4B03 JUMPI PUSH2 0x4B02 PUSH2 0x46DC JUMP JUMPDEST JUMPDEST POP SWAP3 POP SWAP3 SWAP1 POP JUMP JUMPDEST PUSH1 0x0 PUSH2 0x4B18 DUP5 DUP5 DUP5 PUSH2 0x47AC JUMP JUMPDEST SWAP1 POP SWAP4 SWAP3 POP POP POP JUMP JUMPDEST PUSH1 0x0 PUSH1 0x20 DUP3 ADD SWAP1 POP SWAP2 SWAP1 POP JUMP JUMPDEST PUSH1 0x0 PUSH2 0x4B3A DUP4 DUP6 PUSH2 0x2723 JUMP JUMPDEST SWAP4 POP DUP4 PUSH1 0x20 DUP5 MUL DUP6 ADD PUSH2 0x4B4C DUP5 PUSH2 0x3597 JUMP JUMPDEST DUP1 PUSH1 0x0 JUMPDEST DUP8 DUP2 LT ISZERO PUSH2 0x4B92 JUMPI DUP5 DUP5 SUB DUP10 MSTORE PUSH2 0x4B67 DUP3 DUP5 PUSH2 0x4749 JUMP JUMPDEST PUSH2 0x4B72 DUP7 DUP3 DUP5 PUSH2 0x4B0B JUMP JUMPDEST SWAP6 POP PUSH2 0x4B7D DUP5 PUSH2 0x4B21 JUMP JUMPDEST SWAP4 POP PUSH1 0x20 DUP12 ADD SWAP11 POP POP POP PUSH1 0x1 DUP2 ADD SWAP1 POP PUSH2 0x4B50 JUMP JUMPDEST POP DUP3 SWAP8 POP DUP8 SWAP5 POP POP POP POP POP SWAP4 SWAP3 POP POP POP JUMP JUMPDEST PUSH1 0x0 PUSH2 0x4BB3 PUSH1 0x20 DUP5 ADD DUP5 PUSH2 0x2516 JUMP JUMPDEST SWAP1 POP SWAP3 SWAP2 POP POP JUMP JUMPDEST PUSH1 0x0 PUSH1 0xA0 DUP4 ADD PUSH2 0x4BCE PUSH1 0x0 DUP5 ADD DUP5 PUSH2 0x4749 JUMP JUMPDEST DUP6 DUP4 SUB PUSH1 0x0 DUP8 ADD MSTORE PUSH2 0x4BE1 DUP4 DUP3 DUP5 PUSH2 0x47AC JUMP JUMPDEST SWAP3 POP POP POP PUSH2 0x4BF2 PUSH1 0x20 DUP5 ADD DUP5 PUSH2 0x4749 JUMP JUMPDEST DUP6 DUP4 SUB PUSH1 0x20 DUP8 ADD MSTORE PUSH2 0x4C05 DUP4 DUP3 DUP5 PUSH2 0x47AC JUMP JUMPDEST SWAP3 POP POP POP PUSH2 0x4C16 PUSH1 0x40 DUP5 ADD DUP5 PUSH2 0x4749 JUMP JUMPDEST DUP6 DUP4 SUB PUSH1 0x40 DUP8 ADD MSTORE PUSH2 0x4C29 DUP4 DUP3 DUP5 PUSH2 0x47AC JUMP JUMPDEST SWAP3 POP POP POP PUSH2 0x4C3A PUSH1 0x60 DUP5 ADD DUP5 PUSH2 0x4AA8 JUMP JUMPDEST DUP6 DUP4 SUB PUSH1 0x60 DUP8 ADD MSTORE PUSH2 0x4C4D DUP4 DUP3 DUP5 PUSH2 0x4B2E JUMP JUMPDEST SWAP3 POP POP POP PUSH2 0x4C5E PUSH1 0x80 DUP5 ADD DUP5 PUSH2 0x4BA4 JUMP JUMPDEST PUSH2 0x4C6B PUSH1 0x80 DUP7 ADD DUP3 PUSH2 0x2AA0 JUMP JUMPDEST POP DUP1 SWAP2 POP POP SWAP3 SWAP2 POP POP JUMP JUMPDEST PUSH1 0x0 PUSH1 0x40 DUP3 ADD SWAP1 POP PUSH2 0x4C8B PUSH1 0x0 DUP4 ADD DUP6 PUSH2 0x23AE JUMP JUMPDEST DUP2 DUP2 SUB PUSH1 0x20 DUP4 ADD MSTORE PUSH2 0x4C9D DUP2 DUP5 PUSH2 0x4BBB JUMP JUMPDEST SWAP1 POP SWAP4 SWAP3 POP POP POP JUMP JUMPDEST PUSH32 0x4E487B7100000000000000000000000000000000000000000000000000000000 PUSH1 0x0 MSTORE PUSH1 0x31 PUSH1 0x4 MSTORE PUSH1 0x24 PUSH1 0x0 REVERT JUMPDEST PUSH1 0x0 PUSH2 0x4CE0 DUP3 PUSH2 0x23A4 JUMP JUMPDEST SWAP2 POP PUSH2 0x4CEB DUP4 PUSH2 0x23A4 JUMP JUMPDEST SWAP3 POP DUP3 DUP3 ADD SWAP1 POP DUP1 DUP3 GT ISZERO PUSH2 0x4D03 JUMPI PUSH2 0x4D02 PUSH2 0x35AC JUMP JUMPDEST JUMPDEST SWAP3 SWAP2 POP POP JUMP JUMPDEST PUSH2 0x4D12 DUP2 PUSH2 0x24F3 JUMP JUMPDEST DUP3 MSTORE POP POP JUMP JUMPDEST PUSH1 0x0 PUSH1 0x40 DUP3 ADD SWAP1 POP PUSH2 0x4D2D PUSH1 0x0 DUP4 ADD DUP6 PUSH2 0x23AE JUMP JUMPDEST PUSH2 0x4D3A PUSH1 0x20 DUP4 ADD DUP5 PUSH2 0x4D09 JUMP JUMPDEST SWAP4 SWAP3 POP POP POP JUMP INVALID LOG2 PUSH5 0x6970667358 0x22 SLT KECCAK256 0xEB RETURN DUP16 0xEA 0xA6 SWAP14 0xC5 ORIGIN GAS CALL DUP16 0xBE BLOCKHASH 0x1F MUL 0xEA 0x4B 0xC4 MCOPY 0x26 PUSH22 0x1AB5E8DE32811746935C8764736F6C63430008180033 "},"methodIdentifiers":{"addGuardian(uint256,uint256)":"c8b785f3","adminManageCommunity(uint256,(string,string,string,string[],bool),(uint8,(string,address)[],string),uint256[],uint8,bool)":"040cdd0a","adminSetCommunityPrice(uint256)":"873ceb2e","adminSetPricePerElection(uint256)":"3e512ebc","createCommunity((string,string,string,string[],bool),(uint8,(string,address)[],string),uint256[],uint8)":"6061a460","deposit(uint256)":"b6b55f25","getCommunity(uint256)":"370603f8","getCreateCommunityPrice()":"c5bf44ab","getNextCommunityId()":"9532c8c3","getPricePerElection()":"d62b5c59","getResult(uint256,bytes32)":"13e86265","owner()":"8da5cb5b","removeGuardian(uint256,uint256)":"aba675b0","renounceOwnership()":"715018a6","setCensus(uint256,(uint8,(string,address)[],string))":"56c4e4ba","setCreateElectionPermission(uint256,uint8)":"7824c05c","setMetadata(uint256,(string,string,string,string[],bool))":"82e6d638","setNotifiableElections(uint256,bool)":"e6160fa3","setResult(uint256,bytes32,(string,string[],string,uint256[][],uint256,uint256,uint256[],bytes32,string))":"3c973f75","transferOwnership(address)":"f2fde38b","withdraw()":"3ccfd60b"}}}}}