{"src/ElectionResults.sol":{"ElectionResults":{"abi":[{"inputs":[],"stateMutability":"nonpayable","type":"constructor"},{"inputs":[{"internalType":"address","name":"owner","type":"address"}],"name":"OwnableInvalidOwner","type":"error"},{"inputs":[{"internalType":"address","name":"account","type":"address"}],"name":"OwnableUnauthorizedAccount","type":"error"},{"anonymous":false,"inputs":[{"indexed":true,"internalType":"address","name":"previousOwner","type":"address"},{"indexed":true,"internalType":"address","name":"newOwner","type":"address"}],"name":"OwnershipTransferred","type":"event"},{"anonymous":false,"inputs":[{"indexed":false,"internalType":"uint256","name":"communityId","type":"uint256"},{"indexed":false,"internalType":"bytes32","name":"electionId","type":"bytes32"}],"name":"ResultsSet","type":"event"},{"inputs":[{"internalType":"uint256","name":"communityId","type":"uint256"},{"internalType":"bytes32","name":"electionId","type":"bytes32"}],"name":"getResult","outputs":[{"components":[{"internalType":"string","name":"question","type":"string"},{"internalType":"string[]","name":"options","type":"string[]"},{"internalType":"string","name":"date","type":"string"},{"internalType":"uint256[][]","name":"tally","type":"uint256[][]"},{"internalType":"uint256","name":"turnout","type":"uint256"},{"internalType":"uint256","name":"totalVotingPower","type":"uint256"},{"internalType":"uint256[]","name":"participants","type":"uint256[]"},{"internalType":"bytes32","name":"censusRoot","type":"bytes32"},{"internalType":"string","name":"censusURI","type":"string"}],"internalType":"struct IElectionResults.Result","name":"","type":"tuple"}],"stateMutability":"view","type":"function"},{"inputs":[],"name":"owner","outputs":[{"internalType":"address","name":"","type":"address"}],"stateMutability":"view","type":"function"},{"inputs":[],"name":"renounceOwnership","outputs":[],"stateMutability":"nonpayable","type":"function"},{"inputs":[{"internalType":"uint256","name":"communityId","type":"uint256"},{"internalType":"bytes32","name":"electionId","type":"bytes32"},{"components":[{"internalType":"string","name":"question","type":"string"},{"internalType":"string[]","name":"options","type":"string[]"},{"internalType":"string","name":"date","type":"string"},{"internalType":"uint256[][]","name":"tally","type":"uint256[][]"},{"internalType":"uint256","name":"turnout","type":"uint256"},{"internalType":"uint256","name":"totalVotingPower","type":"uint256"},{"internalType":"uint256[]","name":"participants","type":"uint256[]"},{"internalType":"bytes32","name":"censusRoot","type":"bytes32"},{"internalType":"string","name":"censusURI","type":"string"}],"internalType":"struct IElectionResults.Result","name":"result","type":"tuple"}],"name":"setResult","outputs":[],"stateMutability":"nonpayable","type":"function"},{"inputs":[{"internalType":"address","name":"newOwner","type":"address"}],"name":"transferOwnership","outputs":[],"stateMutability":"nonpayable","type":"function"}],"evm":{"bytecode":{"linkReferences":{},"object":"60806040523480156200001157600080fd5b5033600073ffffffffffffffffffffffffffffffffffffffff168173ffffffffffffffffffffffffffffffffffffffff1603620000885760006040517f1e4fbdf70000000000000000000000000000000000000000000000000000000081526004016200007f9190620001a9565b60405180910390fd5b6200009981620000a060201b60201c565b50620001c6565b60008060009054906101000a900473ffffffffffffffffffffffffffffffffffffffff169050816000806101000a81548173ffffffffffffffffffffffffffffffffffffffff021916908373ffffffffffffffffffffffffffffffffffffffff1602179055508173ffffffffffffffffffffffffffffffffffffffff168173ffffffffffffffffffffffffffffffffffffffff167f8be0079c531659141344cd1fd0a4f28419497f9722a3daafe3b4186f6b6457e060405160405180910390a35050565b600073ffffffffffffffffffffffffffffffffffffffff82169050919050565b6000620001918262000164565b9050919050565b620001a38162000184565b82525050565b6000602082019050620001c0600083018462000198565b92915050565b6118ac80620001d66000396000f3fe608060405234801561001057600080fd5b50600436106100575760003560e01c806313e862651461005c5780633c973f751461008c578063715018a6146100a85780638da5cb5b146100b2578063f2fde38b146100d0575b600080fd5b61007660048036038101906100719190610ab1565b6100ec565b6040516100839190610eba565b60405180910390f35b6100a660048036038101906100a1919061142d565b6104d0565b005b6100b0610600565b005b6100ba610614565b6040516100c791906114dd565b60405180910390f35b6100ea60048036038101906100e59190611524565b61063d565b005b6100f4610816565b6001600084815260200190815260200160002060008381526020019081526020016000206040518061012001604052908160008201805461013490611580565b80601f016020809104026020016040519081016040528092919081815260200182805461016090611580565b80156101ad5780601f10610182576101008083540402835291602001916101ad565b820191906000526020600020905b81548152906001019060200180831161019057829003601f168201915b5050505050815260200160018201805480602002602001604051908101604052809291908181526020016000905b828210156102875783829060005260206000200180546101fa90611580565b80601f016020809104026020016040519081016040528092919081815260200182805461022690611580565b80156102735780601f1061024857610100808354040283529160200191610273565b820191906000526020600020905b81548152906001019060200180831161025657829003601f168201915b5050505050815260200190600101906101db565b50505050815260200160028201805461029f90611580565b80601f01602080910402602001604051908101604052809291908181526020018280546102cb90611580565b80156103185780601f106102ed57610100808354040283529160200191610318565b820191906000526020600020905b8154815290600101906020018083116102fb57829003601f168201915b5050505050815260200160038201805480602002602001604051908101604052809291908181526020016000905b828210156103b8578382906000526020600020018054806020026020016040519081016040528092919081815260200182805480156103a457602002820191906000526020600020905b815481526020019060010190808311610390575b505050505081526020019060010190610346565b50505050815260200160048201548152602001600582015481526020016006820180548060200260200160405190810160405280929190818152602001828054801561042357602002820191906000526020600020905b81548152602001906001019080831161040f575b505050505081526020016007820154815260200160088201805461044690611580565b80601f016020809104026020016040519081016040528092919081815260200182805461047290611580565b80156104bf5780601f10610494576101008083540402835291602001916104bf565b820191906000526020600020905b8154815290600101906020018083116104a257829003601f168201915b505050505081525050905092915050565b6104d86106c3565b600060016000858152602001908152602001600020600084815260200190815260200160002090508160000151816000019081610515919061175d565b508160200151816001019080519060200190610532929190610865565b508160400151816002019081610548919061175d565b5081606001518160030190805190602001906105659291906108be565b50816080015181600401819055508160a0015181600501819055508160c0015181600601908051906020019061059c92919061091e565b508160e0015181600701819055508161010001518160080190816105c0919061175d565b507f77deb32519991dda7821b0b9367f9124aa3fd934f4845bcfd5dc6fa3f192266384846040516105f292919061184d565b60405180910390a150505050565b6106086106c3565b610612600061074a565b565b60008060009054906101000a900473ffffffffffffffffffffffffffffffffffffffff16905090565b6106456106c3565b600073ffffffffffffffffffffffffffffffffffffffff168173ffffffffffffffffffffffffffffffffffffffff16036106b75760006040517f1e4fbdf70000000000000000000000000000000000000000000000000000000081526004016106ae91906114dd565b60405180910390fd5b6106c08161074a565b50565b6106cb61080e565b73ffffffffffffffffffffffffffffffffffffffff166106e9610614565b73ffffffffffffffffffffffffffffffffffffffff16146107485761070c61080e565b6040517f118cdaa700000000000000000000000000000000000000000000000000000000815260040161073f91906114dd565b60405180910390fd5b565b60008060009054906101000a900473ffffffffffffffffffffffffffffffffffffffff169050816000806101000a81548173ffffffffffffffffffffffffffffffffffffffff021916908373ffffffffffffffffffffffffffffffffffffffff1602179055508173ffffffffffffffffffffffffffffffffffffffff168173ffffffffffffffffffffffffffffffffffffffff167f8be0079c531659141344cd1fd0a4f28419497f9722a3daafe3b4186f6b6457e060405160405180910390a35050565b600033905090565b6040518061012001604052806060815260200160608152602001606081526020016060815260200160008152602001600081526020016060815260200160008019168152602001606081525090565b8280548282559060005260206000209081019282156108ad579160200282015b828111156108ac57825182908161089c919061175d565b5091602001919060010190610885565b5b5090506108ba919061096b565b5090565b82805482825590600052602060002090810192821561090d579160200282015b8281111561090c5782518290805190602001906108fc92919061091e565b50916020019190600101906108de565b5b50905061091a919061098f565b5090565b82805482825590600052602060002090810192821561095a579160200282015b8281111561095957825182559160200191906001019061093e565b5b50905061096791906109b3565b5090565b5b8082111561098b576000818161098291906109d0565b5060010161096c565b5090565b5b808211156109af57600081816109a69190610a10565b50600101610990565b5090565b5b808211156109cc5760008160009055506001016109b4565b5090565b5080546109dc90611580565b6000825580601f106109ee5750610a0d565b601f016020900490600052602060002090810190610a0c91906109b3565b5b50565b5080546000825590600052602060002090810190610a2e91906109b3565b50565b6000604051905090565b600080fd5b600080fd5b6000819050919050565b610a5881610a45565b8114610a6357600080fd5b50565b600081359050610a7581610a4f565b92915050565b6000819050919050565b610a8e81610a7b565b8114610a9957600080fd5b50565b600081359050610aab81610a85565b92915050565b60008060408385031215610ac857610ac7610a3b565b5b6000610ad685828601610a66565b9250506020610ae785828601610a9c565b9150509250929050565b600081519050919050565b600082825260208201905092915050565b60005b83811015610b2b578082015181840152602081019050610b10565b60008484015250505050565b6000601f19601f8301169050919050565b6000610b5382610af1565b610b5d8185610afc565b9350610b6d818560208601610b0d565b610b7681610b37565b840191505092915050565b600081519050919050565b600082825260208201905092915050565b6000819050602082019050919050565b6000610bb98383610b48565b905092915050565b6000602082019050919050565b6000610bd982610b81565b610be38185610b8c565b935083602082028501610bf585610b9d565b8060005b85811015610c315784840389528151610c128582610bad565b9450610c1d83610bc1565b925060208a01995050600181019050610bf9565b50829750879550505050505092915050565b600081519050919050565b600082825260208201905092915050565b6000819050602082019050919050565b600081519050919050565b600082825260208201905092915050565b6000819050602082019050919050565b610ca481610a45565b82525050565b6000610cb68383610c9b565b60208301905092915050565b6000602082019050919050565b6000610cda82610c6f565b610ce48185610c7a565b9350610cef83610c8b565b8060005b83811015610d20578151610d078882610caa565b9750610d1283610cc2565b925050600181019050610cf3565b5085935050505092915050565b6000610d398383610ccf565b905092915050565b6000602082019050919050565b6000610d5982610c43565b610d638185610c4e565b935083602082028501610d7585610c5f565b8060005b85811015610db15784840389528151610d928582610d2d565b9450610d9d83610d41565b925060208a01995050600181019050610d79565b50829750879550505050505092915050565b610dcc81610a7b565b82525050565b6000610120830160008301518482036000860152610df08282610b48565b91505060208301518482036020860152610e0a8282610bce565b91505060408301518482036040860152610e248282610b48565b91505060608301518482036060860152610e3e8282610d4e565b9150506080830151610e536080860182610c9b565b5060a0830151610e6660a0860182610c9b565b5060c083015184820360c0860152610e7e8282610ccf565b91505060e0830151610e9360e0860182610dc3565b50610100830151848203610100860152610ead8282610b48565b9150508091505092915050565b60006020820190508181036000830152610ed48184610dd2565b905092915050565b600080fd5b7f4e487b7100000000000000000000000000000000000000000000000000000000600052604160045260246000fd5b610f1982610b37565b810181811067ffffffffffffffff82111715610f3857610f37610ee1565b5b80604052505050565b6000610f4b610a31565b9050610f578282610f10565b919050565b600080fd5b600080fd5b600080fd5b600067ffffffffffffffff821115610f8657610f85610ee1565b5b610f8f82610b37565b9050602081019050919050565b82818337600083830152505050565b6000610fbe610fb984610f6b565b610f41565b905082815260208101848484011115610fda57610fd9610f66565b5b610fe5848285610f9c565b509392505050565b600082601f83011261100257611001610f61565b5b8135611012848260208601610fab565b91505092915050565b600067ffffffffffffffff82111561103657611035610ee1565b5b602082029050602081019050919050565b600080fd5b600061105f61105a8461101b565b610f41565b9050808382526020820190506020840283018581111561108257611081611047565b5b835b818110156110c957803567ffffffffffffffff8111156110a7576110a6610f61565b5b8086016110b48982610fed565b85526020850194505050602081019050611084565b5050509392505050565b600082601f8301126110e8576110e7610f61565b5b81356110f884826020860161104c565b91505092915050565b600067ffffffffffffffff82111561111c5761111b610ee1565b5b602082029050602081019050919050565b600067ffffffffffffffff82111561114857611147610ee1565b5b602082029050602081019050919050565b600061116c6111678461112d565b610f41565b9050808382526020820190506020840283018581111561118f5761118e611047565b5b835b818110156111b857806111a48882610a66565b845260208401935050602081019050611191565b5050509392505050565b600082601f8301126111d7576111d6610f61565b5b81356111e7848260208601611159565b91505092915050565b60006112036111fe84611101565b610f41565b9050808382526020820190506020840283018581111561122657611225611047565b5b835b8181101561126d57803567ffffffffffffffff81111561124b5761124a610f61565b5b80860161125889826111c2565b85526020850194505050602081019050611228565b5050509392505050565b600082601f83011261128c5761128b610f61565b5b813561129c8482602086016111f0565b91505092915050565b600061012082840312156112bc576112bb610edc565b5b6112c7610120610f41565b9050600082013567ffffffffffffffff8111156112e7576112e6610f5c565b5b6112f384828501610fed565b600083015250602082013567ffffffffffffffff81111561131757611316610f5c565b5b611323848285016110d3565b602083015250604082013567ffffffffffffffff81111561134757611346610f5c565b5b61135384828501610fed565b604083015250606082013567ffffffffffffffff81111561137757611376610f5c565b5b61138384828501611277565b606083015250608061139784828501610a66565b60808301525060a06113ab84828501610a66565b60a08301525060c082013567ffffffffffffffff8111156113cf576113ce610f5c565b5b6113db848285016111c2565b60c08301525060e06113ef84828501610a9c565b60e08301525061010082013567ffffffffffffffff81111561141457611413610f5c565b5b61142084828501610fed565b6101008301525092915050565b60008060006060848603121561144657611445610a3b565b5b600061145486828701610a66565b935050602061146586828701610a9c565b925050604084013567ffffffffffffffff81111561148657611485610a40565b5b611492868287016112a5565b9150509250925092565b600073ffffffffffffffffffffffffffffffffffffffff82169050919050565b60006114c78261149c565b9050919050565b6114d7816114bc565b82525050565b60006020820190506114f260008301846114ce565b92915050565b611501816114bc565b811461150c57600080fd5b50565b60008135905061151e816114f8565b92915050565b60006020828403121561153a57611539610a3b565b5b60006115488482850161150f565b91505092915050565b7f4e487b7100000000000000000000000000000000000000000000000000000000600052602260045260246000fd5b6000600282049050600182168061159857607f821691505b6020821081036115ab576115aa611551565b5b50919050565b60008190508160005260206000209050919050565b60006020601f8301049050919050565b600082821b905092915050565b6000600883026116137fffffffffffffffffffffffffffffffffffffffffffffffffffffffffffffffff826115d6565b61161d86836115d6565b95508019841693508086168417925050509392505050565b6000819050919050565b600061165a61165561165084610a45565b611635565b610a45565b9050919050565b6000819050919050565b6116748361163f565b61168861168082611661565b8484546115e3565b825550505050565b600090565b61169d611690565b6116a881848461166b565b505050565b5b818110156116cc576116c1600082611695565b6001810190506116ae565b5050565b601f821115611711576116e2816115b1565b6116eb846115c6565b810160208510156116fa578190505b61170e611706856115c6565b8301826116ad565b50505b505050565b600082821c905092915050565b600061173460001984600802611716565b1980831691505092915050565b600061174d8383611723565b9150826002028217905092915050565b61176682610af1565b67ffffffffffffffff81111561177f5761177e610ee1565b5b6117898254611580565b6117948282856116d0565b600060209050601f8311600181146117c757600084156117b5578287015190505b6117bf8582611741565b865550611827565b601f1984166117d5866115b1565b60005b828110156117fd578489015182556001820191506020850194506020810190506117d8565b8683101561181a5784890151611816601f891682611723565b8355505b6001600288020188555050505b505050505050565b61183881610a45565b82525050565b61184781610a7b565b82525050565b6000604082019050611862600083018561182f565b61186f602083018461183e565b939250505056fea26469706673582212209f7ff82710db47098d189bdbc9b609705a0159b2440881ac274fd69cf4676c8964736f6c63430008180033","opcodes":"PUSH1 0x80 PUSH1 0x40 MSTORE CALLVALUE DUP1 ISZERO PUSH3 0x11 JUMPI PUSH1 0x0 DUP1 REVERT JUMPDEST POP CALLER PUSH1 0x0 PUSH20 0xFFFFFFFFFFFFFFFFFFFFFFFFFFFFFFFFFFFFFFFF AND DUP2 PUSH20 0xFFFFFFFFFFFFFFFFFFFFFFFFFFFFFFFFFFFFFFFF AND SUB PUSH3 0x88 JUMPI PUSH1 0x0 PUSH1 0x40 MLOAD PUSH32 0x1E4FBDF700000000000000000000000000000000000000000000000000000000 DUP2 MSTORE PUSH1 0x4 ADD PUSH3 0x7F SWAP2 SWAP1 PUSH3 0x1A9 JUMP JUMPDEST PUSH1 0x40 MLOAD DUP1 SWAP2 SUB SWAP1 REVERT JUMPDEST PUSH3 0x99 DUP2 PUSH3 0xA0 PUSH1 0x20 SHL PUSH1 0x20 SHR JUMP JUMPDEST POP PUSH3 0x1C6 JUMP JUMPDEST PUSH1 0x0 DUP1 PUSH1 0x0 SWAP1 SLOAD SWAP1 PUSH2 0x100 EXP SWAP1 DIV PUSH20 0xFFFFFFFFFFFFFFFFFFFFFFFFFFFFFFFFFFFFFFFF AND SWAP1 POP DUP2 PUSH1 0x0 DUP1 PUSH2 0x100 EXP DUP2 SLOAD DUP2 PUSH20 0xFFFFFFFFFFFFFFFFFFFFFFFFFFFFFFFFFFFFFFFF MUL NOT AND SWAP1 DUP4 PUSH20 0xFFFFFFFFFFFFFFFFFFFFFFFFFFFFFFFFFFFFFFFF AND MUL OR SWAP1 SSTORE POP DUP2 PUSH20 0xFFFFFFFFFFFFFFFFFFFFFFFFFFFFFFFFFFFFFFFF AND DUP2 PUSH20 0xFFFFFFFFFFFFFFFFFFFFFFFFFFFFFFFFFFFFFFFF AND PUSH32 0x8BE0079C531659141344CD1FD0A4F28419497F9722A3DAAFE3B4186F6B6457E0 PUSH1 0x40 MLOAD PUSH1 0x40 MLOAD DUP1 SWAP2 SUB SWAP1 LOG3 POP POP JUMP JUMPDEST PUSH1 0x0 PUSH20 0xFFFFFFFFFFFFFFFFFFFFFFFFFFFFFFFFFFFFFFFF DUP3 AND SWAP1 POP SWAP2 SWAP1 POP JUMP JUMPDEST PUSH1 0x0 PUSH3 0x191 DUP3 PUSH3 0x164 JUMP JUMPDEST SWAP1 POP SWAP2 SWAP1 POP JUMP JUMPDEST PUSH3 0x1A3 DUP2 PUSH3 0x184 JUMP JUMPDEST DUP3 MSTORE POP POP JUMP JUMPDEST PUSH1 0x0 PUSH1 0x20 DUP3 ADD SWAP1 POP PUSH3 0x1C0 PUSH1 0x0 DUP4 ADD DUP5 PUSH3 0x198 JUMP JUMPDEST SWAP3 SWAP2 POP POP JUMP JUMPDEST PUSH2 0x18AC DUP1 PUSH3 0x1D6 PUSH1 0x0 CODECOPY PUSH1 0x0 RETURN INVALID PUSH1 0x80 PUSH1 0x40 MSTORE CALLVALUE DUP1 ISZERO PUSH2 0x10 JUMPI PUSH1 0x0 DUP1 REVERT JUMPDEST POP PUSH1 0x4 CALLDATASIZE LT PUSH2 0x57 JUMPI PUSH1 0x0 CALLDATALOAD PUSH1 0xE0 SHR DUP1 PUSH4 0x13E86265 EQ PUSH2 0x5C JUMPI DUP1 PUSH4 0x3C973F75 EQ PUSH2 0x8C JUMPI DUP1 PUSH4 0x715018A6 EQ PUSH2 0xA8 JUMPI DUP1 PUSH4 0x8DA5CB5B EQ PUSH2 0xB2 JUMPI DUP1 PUSH4 0xF2FDE38B EQ PUSH2 0xD0 JUMPI JUMPDEST PUSH1 0x0 DUP1 REVERT JUMPDEST PUSH2 0x76 PUSH1 0x4 DUP1 CALLDATASIZE SUB DUP2 ADD SWAP1 PUSH2 0x71 SWAP2 SWAP1 PUSH2 0xAB1 JUMP JUMPDEST PUSH2 0xEC JUMP JUMPDEST PUSH1 0x40 MLOAD PUSH2 0x83 SWAP2 SWAP1 PUSH2 0xEBA JUMP JUMPDEST PUSH1 0x40 MLOAD DUP1 SWAP2 SUB SWAP1 RETURN JUMPDEST PUSH2 0xA6 PUSH1 0x4 DUP1 CALLDATASIZE SUB DUP2 ADD SWAP1 PUSH2 0xA1 SWAP2 SWAP1 PUSH2 0x142D JUMP JUMPDEST PUSH2 0x4D0 JUMP JUMPDEST STOP JUMPDEST PUSH2 0xB0 PUSH2 0x600 JUMP JUMPDEST STOP JUMPDEST PUSH2 0xBA PUSH2 0x614 JUMP JUMPDEST PUSH1 0x40 MLOAD PUSH2 0xC7 SWAP2 SWAP1 PUSH2 0x14DD JUMP JUMPDEST PUSH1 0x40 MLOAD DUP1 SWAP2 SUB SWAP1 RETURN JUMPDEST PUSH2 0xEA PUSH1 0x4 DUP1 CALLDATASIZE SUB DUP2 ADD SWAP1 PUSH2 0xE5 SWAP2 SWAP1 PUSH2 0x1524 JUMP JUMPDEST PUSH2 0x63D JUMP JUMPDEST STOP JUMPDEST PUSH2 0xF4 PUSH2 0x816 JUMP JUMPDEST PUSH1 0x1 PUSH1 0x0 DUP5 DUP2 MSTORE PUSH1 0x20 ADD SWAP1 DUP2 MSTORE PUSH1 0x20 ADD PUSH1 0x0 KECCAK256 PUSH1 0x0 DUP4 DUP2 MSTORE PUSH1 0x20 ADD SWAP1 DUP2 MSTORE PUSH1 0x20 ADD PUSH1 0x0 KECCAK256 PUSH1 0x40 MLOAD DUP1 PUSH2 0x120 ADD PUSH1 0x40 MSTORE SWAP1 DUP2 PUSH1 0x0 DUP3 ADD DUP1 SLOAD PUSH2 0x134 SWAP1 PUSH2 0x1580 JUMP JUMPDEST DUP1 PUSH1 0x1F ADD PUSH1 0x20 DUP1 SWAP2 DIV MUL PUSH1 0x20 ADD PUSH1 0x40 MLOAD SWAP1 DUP2 ADD PUSH1 0x40 MSTORE DUP1 SWAP3 SWAP2 SWAP1 DUP2 DUP2 MSTORE PUSH1 0x20 ADD DUP3 DUP1 SLOAD PUSH2 0x160 SWAP1 PUSH2 0x1580 JUMP JUMPDEST DUP1 ISZERO PUSH2 0x1AD JUMPI DUP1 PUSH1 0x1F LT PUSH2 0x182 JUMPI PUSH2 0x100 DUP1 DUP4 SLOAD DIV MUL DUP4 MSTORE SWAP2 PUSH1 0x20 ADD SWAP2 PUSH2 0x1AD JUMP JUMPDEST DUP3 ADD SWAP2 SWAP1 PUSH1 0x0 MSTORE PUSH1 0x20 PUSH1 0x0 KECCAK256 SWAP1 JUMPDEST DUP2 SLOAD DUP2 MSTORE SWAP1 PUSH1 0x1 ADD SWAP1 PUSH1 0x20 ADD DUP1 DUP4 GT PUSH2 0x190 JUMPI DUP3 SWAP1 SUB PUSH1 0x1F AND DUP3 ADD SWAP2 JUMPDEST POP POP POP POP POP DUP2 MSTORE PUSH1 0x20 ADD PUSH1 0x1 DUP3 ADD DUP1 SLOAD DUP1 PUSH1 0x20 MUL PUSH1 0x20 ADD PUSH1 0x40 MLOAD SWAP1 DUP2 ADD PUSH1 0x40 MSTORE DUP1 SWAP3 SWAP2 SWAP1 DUP2 DUP2 MSTORE PUSH1 0x20 ADD PUSH1 0x0 SWAP1 JUMPDEST DUP3 DUP3 LT ISZERO PUSH2 0x287 JUMPI DUP4 DUP3 SWAP1 PUSH1 0x0 MSTORE PUSH1 0x20 PUSH1 0x0 KECCAK256 ADD DUP1 SLOAD PUSH2 0x1FA SWAP1 PUSH2 0x1580 JUMP JUMPDEST DUP1 PUSH1 0x1F ADD PUSH1 0x20 DUP1 SWAP2 DIV MUL PUSH1 0x20 ADD PUSH1 0x40 MLOAD SWAP1 DUP2 ADD PUSH1 0x40 MSTORE DUP1 SWAP3 SWAP2 SWAP1 DUP2 DUP2 MSTORE PUSH1 0x20 ADD DUP3 DUP1 SLOAD PUSH2 0x226 SWAP1 PUSH2 0x1580 JUMP JUMPDEST DUP1 ISZERO PUSH2 0x273 JUMPI DUP1 PUSH1 0x1F LT PUSH2 0x248 JUMPI PUSH2 0x100 DUP1 DUP4 SLOAD DIV MUL DUP4 MSTORE SWAP2 PUSH1 0x20 ADD SWAP2 PUSH2 0x273 JUMP JUMPDEST DUP3 ADD SWAP2 SWAP1 PUSH1 0x0 MSTORE PUSH1 0x20 PUSH1 0x0 KECCAK256 SWAP1 JUMPDEST DUP2 SLOAD DUP2 MSTORE SWAP1 PUSH1 0x1 ADD SWAP1 PUSH1 0x20 ADD DUP1 DUP4 GT PUSH2 0x256 JUMPI DUP3 SWAP1 SUB PUSH1 0x1F AND DUP3 ADD SWAP2 JUMPDEST POP POP POP POP POP DUP2 MSTORE PUSH1 0x20 ADD SWAP1 PUSH1 0x1 ADD SWAP1 PUSH2 0x1DB JUMP JUMPDEST POP POP POP POP DUP2 MSTORE PUSH1 0x20 ADD PUSH1 0x2 DUP3 ADD DUP1 SLOAD PUSH2 0x29F SWAP1 PUSH2 0x1580 JUMP JUMPDEST DUP1 PUSH1 0x1F ADD PUSH1 0x20 DUP1 SWAP2 DIV MUL PUSH1 0x20 ADD PUSH1 0x40 MLOAD SWAP1 DUP2 ADD PUSH1 0x40 MSTORE DUP1 SWAP3 SWAP2 SWAP1 DUP2 DUP2 MSTORE PUSH1 0x20 ADD DUP3 DUP1 SLOAD PUSH2 0x2CB SWAP1 PUSH2 0x1580 JUMP JUMPDEST DUP1 ISZERO PUSH2 0x318 JUMPI DUP1 PUSH1 0x1F LT PUSH2 0x2ED JUMPI PUSH2 0x100 DUP1 DUP4 SLOAD DIV MUL DUP4 MSTORE SWAP2 PUSH1 0x20 ADD SWAP2 PUSH2 0x318 JUMP JUMPDEST DUP3 ADD SWAP2 SWAP1 PUSH1 0x0 MSTORE PUSH1 0x20 PUSH1 0x0 KECCAK256 SWAP1 JUMPDEST DUP2 SLOAD DUP2 MSTORE SWAP1 PUSH1 0x1 ADD SWAP1 PUSH1 0x20 ADD DUP1 DUP4 GT PUSH2 0x2FB JUMPI DUP3 SWAP1 SUB PUSH1 0x1F AND DUP3 ADD SWAP2 JUMPDEST POP POP POP POP POP DUP2 MSTORE PUSH1 0x20 ADD PUSH1 0x3 DUP3 ADD DUP1 SLOAD DUP1 PUSH1 0x20 MUL PUSH1 0x20 ADD PUSH1 0x40 MLOAD SWAP1 DUP2 ADD PUSH1 0x40 MSTORE DUP1 SWAP3 SWAP2 SWAP1 DUP2 DUP2 MSTORE PUSH1 0x20 ADD PUSH1 0x0 SWAP1 JUMPDEST DUP3 DUP3 LT ISZERO PUSH2 0x3B8 JUMPI DUP4 DUP3 SWAP1 PUSH1 0x0 MSTORE PUSH1 0x20 PUSH1 0x0 KECCAK256 ADD DUP1 SLOAD DUP1 PUSH1 0x20 MUL PUSH1 0x20 ADD PUSH1 0x40 MLOAD SWAP1 DUP2 ADD PUSH1 0x40 MSTORE DUP1 SWAP3 SWAP2 SWAP1 DUP2 DUP2 MSTORE PUSH1 0x20 ADD DUP3 DUP1 SLOAD DUP1 ISZERO PUSH2 0x3A4 JUMPI PUSH1 0x20 MUL DUP3 ADD SWAP2 SWAP1 PUSH1 0x0 MSTORE PUSH1 0x20 PUSH1 0x0 KECCAK256 SWAP1 JUMPDEST DUP2 SLOAD DUP2 MSTORE PUSH1 0x20 ADD SWAP1 PUSH1 0x1 ADD SWAP1 DUP1 DUP4 GT PUSH2 0x390 JUMPI JUMPDEST POP POP POP POP POP DUP2 MSTORE PUSH1 0x20 ADD SWAP1 PUSH1 0x1 ADD SWAP1 PUSH2 0x346 JUMP JUMPDEST POP POP POP POP DUP2 MSTORE PUSH1 0x20 ADD PUSH1 0x4 DUP3 ADD SLOAD DUP2 MSTORE PUSH1 0x20 ADD PUSH1 0x5 DUP3 ADD SLOAD DUP2 MSTORE PUSH1 0x20 ADD PUSH1 0x6 DUP3 ADD DUP1 SLOAD DUP1 PUSH1 0x20 MUL PUSH1 0x20 ADD PUSH1 0x40 MLOAD SWAP1 DUP2 ADD PUSH1 0x40 MSTORE DUP1 SWAP3 SWAP2 SWAP1 DUP2 DUP2 MSTORE PUSH1 0x20 ADD DUP3 DUP1 SLOAD DUP1 ISZERO PUSH2 0x423 JUMPI PUSH1 0x20 MUL DUP3 ADD SWAP2 SWAP1 PUSH1 0x0 MSTORE PUSH1 0x20 PUSH1 0x0 KECCAK256 SWAP1 JUMPDEST DUP2 SLOAD DUP2 MSTORE PUSH1 0x20 ADD SWAP1 PUSH1 0x1 ADD SWAP1 DUP1 DUP4 GT PUSH2 0x40F JUMPI JUMPDEST POP POP POP POP POP DUP2 MSTORE PUSH1 0x20 ADD PUSH1 0x7 DUP3 ADD SLOAD DUP2 MSTORE PUSH1 0x20 ADD PUSH1 0x8 DUP3 ADD DUP1 SLOAD PUSH2 0x446 SWAP1 PUSH2 0x1580 JUMP JUMPDEST DUP1 PUSH1 0x1F ADD PUSH1 0x20 DUP1 SWAP2 DIV MUL PUSH1 0x20 ADD PUSH1 0x40 MLOAD SWAP1 DUP2 ADD PUSH1 0x40 MSTORE DUP1 SWAP3 SWAP2 SWAP1 DUP2 DUP2 MSTORE PUSH1 0x20 ADD DUP3 DUP1 SLOAD PUSH2 0x472 SWAP1 PUSH2 0x1580 JUMP JUMPDEST DUP1 ISZERO PUSH2 0x4BF JUMPI DUP1 PUSH1 0x1F LT PUSH2 0x494 JUMPI PUSH2 0x100 DUP1 DUP4 SLOAD DIV MUL DUP4 MSTORE SWAP2 PUSH1 0x20 ADD SWAP2 PUSH2 0x4BF JUMP JUMPDEST DUP3 ADD SWAP2 SWAP1 PUSH1 0x0 MSTORE PUSH1 0x20 PUSH1 0x0 KECCAK256 SWAP1 JUMPDEST DUP2 SLOAD DUP2 MSTORE SWAP1 PUSH1 0x1 ADD SWAP1 PUSH1 0x20 ADD DUP1 DUP4 GT PUSH2 0x4A2 JUMPI DUP3 SWAP1 SUB PUSH1 0x1F AND DUP3 ADD SWAP2 JUMPDEST POP POP POP POP POP DUP2 MSTORE POP POP SWAP1 POP SWAP3 SWAP2 POP POP JUMP JUMPDEST PUSH2 0x4D8 PUSH2 0x6C3 JUMP JUMPDEST PUSH1 0x0 PUSH1 0x1 PUSH1 0x0 DUP6 DUP2 MSTORE PUSH1 0x20 ADD SWAP1 DUP2 MSTORE PUSH1 0x20 ADD PUSH1 0x0 KECCAK256 PUSH1 0x0 DUP5 DUP2 MSTORE PUSH1 0x20 ADD SWAP1 DUP2 MSTORE PUSH1 0x20 ADD PUSH1 0x0 KECCAK256 SWAP1 POP DUP2 PUSH1 0x0 ADD MLOAD DUP2 PUSH1 0x0 ADD SWAP1 DUP2 PUSH2 0x515 SWAP2 SWAP1 PUSH2 0x175D JUMP JUMPDEST POP DUP2 PUSH1 0x20 ADD MLOAD DUP2 PUSH1 0x1 ADD SWAP1 DUP1 MLOAD SWAP1 PUSH1 0x20 ADD SWAP1 PUSH2 0x532 SWAP3 SWAP2 SWAP1 PUSH2 0x865 JUMP JUMPDEST POP DUP2 PUSH1 0x40 ADD MLOAD DUP2 PUSH1 0x2 ADD SWAP1 DUP2 PUSH2 0x548 SWAP2 SWAP1 PUSH2 0x175D JUMP JUMPDEST POP DUP2 PUSH1 0x60 ADD MLOAD DUP2 PUSH1 0x3 ADD SWAP1 DUP1 MLOAD SWAP1 PUSH1 0x20 ADD SWAP1 PUSH2 0x565 SWAP3 SWAP2 SWAP1 PUSH2 0x8BE JUMP JUMPDEST POP DUP2 PUSH1 0x80 ADD MLOAD DUP2 PUSH1 0x4 ADD DUP2 SWAP1 SSTORE POP DUP2 PUSH1 0xA0 ADD MLOAD DUP2 PUSH1 0x5 ADD DUP2 SWAP1 SSTORE POP DUP2 PUSH1 0xC0 ADD MLOAD DUP2 PUSH1 0x6 ADD SWAP1 DUP1 MLOAD SWAP1 PUSH1 0x20 ADD SWAP1 PUSH2 0x59C SWAP3 SWAP2 SWAP1 PUSH2 0x91E JUMP JUMPDEST POP DUP2 PUSH1 0xE0 ADD MLOAD DUP2 PUSH1 0x7 ADD DUP2 SWAP1 SSTORE POP DUP2 PUSH2 0x100 ADD MLOAD DUP2 PUSH1 0x8 ADD SWAP1 DUP2 PUSH2 0x5C0 SWAP2 SWAP1 PUSH2 0x175D JUMP JUMPDEST POP PUSH32 0x77DEB32519991DDA7821B0B9367F9124AA3FD934F4845BCFD5DC6FA3F1922663 DUP5 DUP5 PUSH1 0x40 MLOAD PUSH2 0x5F2 SWAP3 SWAP2 SWAP1 PUSH2 0x184D JUMP JUMPDEST PUSH1 0x40 MLOAD DUP1 SWAP2 SUB SWAP1 LOG1 POP POP POP POP JUMP JUMPDEST PUSH2 0x608 PUSH2 0x6C3 JUMP JUMPDEST PUSH2 0x612 PUSH1 0x0 PUSH2 0x74A JUMP JUMPDEST JUMP JUMPDEST PUSH1 0x0 DUP1 PUSH1 0x0 SWAP1 SLOAD SWAP1 PUSH2 0x100 EXP SWAP1 DIV PUSH20 0xFFFFFFFFFFFFFFFFFFFFFFFFFFFFFFFFFFFFFFFF AND SWAP1 POP SWAP1 JUMP JUMPDEST PUSH2 0x645 PUSH2 0x6C3 JUMP JUMPDEST PUSH1 0x0 PUSH20 0xFFFFFFFFFFFFFFFFFFFFFFFFFFFFFFFFFFFFFFFF AND DUP2 PUSH20 0xFFFFFFFFFFFFFFFFFFFFFFFFFFFFFFFFFFFFFFFF AND SUB PUSH2 0x6B7 JUMPI PUSH1 0x0 PUSH1 0x40 MLOAD PUSH32 0x1E4FBDF700000000000000000000000000000000000000000000000000000000 DUP2 MSTORE PUSH1 0x4 ADD PUSH2 0x6AE SWAP2 SWAP1 PUSH2 0x14DD JUMP JUMPDEST PUSH1 0x40 MLOAD DUP1 SWAP2 SUB SWAP1 REVERT JUMPDEST PUSH2 0x6C0 DUP2 PUSH2 0x74A JUMP JUMPDEST POP JUMP JUMPDEST PUSH2 0x6CB PUSH2 0x80E JUMP JUMPDEST PUSH20 0xFFFFFFFFFFFFFFFFFFFFFFFFFFFFFFFFFFFFFFFF AND PUSH2 0x6E9 PUSH2 0x614 JUMP JUMPDEST PUSH20 0xFFFFFFFFFFFFFFFFFFFFFFFFFFFFFFFFFFFFFFFF AND EQ PUSH2 0x748 JUMPI PUSH2 0x70C PUSH2 0x80E JUMP JUMPDEST PUSH1 0x40 MLOAD PUSH32 0x118CDAA700000000000000000000000000000000000000000000000000000000 DUP2 MSTORE PUSH1 0x4 ADD PUSH2 0x73F SWAP2 SWAP1 PUSH2 0x14DD JUMP JUMPDEST PUSH1 0x40 MLOAD DUP1 SWAP2 SUB SWAP1 REVERT JUMPDEST JUMP JUMPDEST PUSH1 0x0 DUP1 PUSH1 0x0 SWAP1 SLOAD SWAP1 PUSH2 0x100 EXP SWAP1 DIV PUSH20 0xFFFFFFFFFFFFFFFFFFFFFFFFFFFFFFFFFFFFFFFF AND SWAP1 POP DUP2 PUSH1 0x0 DUP1 PUSH2 0x100 EXP DUP2 SLOAD DUP2 PUSH20 0xFFFFFFFFFFFFFFFFFFFFFFFFFFFFFFFFFFFFFFFF MUL NOT AND SWAP1 DUP4 PUSH20 0xFFFFFFFFFFFFFFFFFFFFFFFFFFFFFFFFFFFFFFFF AND MUL OR SWAP1 SSTORE POP DUP2 PUSH20 0xFFFFFFFFFFFFFFFFFFFFFFFFFFFFFFFFFFFFFFFF AND DUP2 PUSH20 0xFFFFFFFFFFFFFFFFFFFFFFFFFFFFFFFFFFFFFFFF AND PUSH32 0x8BE0079C531659141344CD1FD0A4F28419497F9722A3DAAFE3B4186F6B6457E0 PUSH1 0x40 MLOAD PUSH1 0x40 MLOAD DUP1 SWAP2 SUB SWAP1 LOG3 POP POP JUMP JUMPDEST PUSH1 0x0 CALLER SWAP1 POP SWAP1 JUMP JUMPDEST PUSH1 0x40 MLOAD DUP1 PUSH2 0x120 ADD PUSH1 0x40 MSTORE DUP1 PUSH1 0x60 DUP2 MSTORE PUSH1 0x20 ADD PUSH1 0x60 DUP2 MSTORE PUSH1 0x20 ADD PUSH1 0x60 DUP2 MSTORE PUSH1 0x20 ADD PUSH1 0x60 DUP2 MSTORE PUSH1 0x20 ADD PUSH1 0x0 DUP2 MSTORE PUSH1 0x20 ADD PUSH1 0x0 DUP2 MSTORE PUSH1 0x20 ADD PUSH1 0x60 DUP2 MSTORE PUSH1 0x20 ADD PUSH1 0x0 DUP1 NOT AND DUP2 MSTORE PUSH1 0x20 ADD PUSH1 0x60 DUP2 MSTORE POP SWAP1 JUMP JUMPDEST DUP3 DUP1 SLOAD DUP3 DUP3 SSTORE SWAP1 PUSH1 0x0 MSTORE PUSH1 0x20 PUSH1 0x0 KECCAK256 SWAP1 DUP2 ADD SWAP3 DUP3 ISZERO PUSH2 0x8AD JUMPI SWAP2 PUSH1 0x20 MUL DUP3 ADD JUMPDEST DUP3 DUP2 GT ISZERO PUSH2 0x8AC JUMPI DUP3 MLOAD DUP3 SWAP1 DUP2 PUSH2 0x89C SWAP2 SWAP1 PUSH2 0x175D JUMP JUMPDEST POP SWAP2 PUSH1 0x20 ADD SWAP2 SWAP1 PUSH1 0x1 ADD SWAP1 PUSH2 0x885 JUMP JUMPDEST JUMPDEST POP SWAP1 POP PUSH2 0x8BA SWAP2 SWAP1 PUSH2 0x96B JUMP JUMPDEST POP SWAP1 JUMP JUMPDEST DUP3 DUP1 SLOAD DUP3 DUP3 SSTORE SWAP1 PUSH1 0x0 MSTORE PUSH1 0x20 PUSH1 0x0 KECCAK256 SWAP1 DUP2 ADD SWAP3 DUP3 ISZERO PUSH2 0x90D JUMPI SWAP2 PUSH1 0x20 MUL DUP3 ADD JUMPDEST DUP3 DUP2 GT ISZERO PUSH2 0x90C JUMPI DUP3 MLOAD DUP3 SWAP1 DUP1 MLOAD SWAP1 PUSH1 0x20 ADD SWAP1 PUSH2 0x8FC SWAP3 SWAP2 SWAP1 PUSH2 0x91E JUMP JUMPDEST POP SWAP2 PUSH1 0x20 ADD SWAP2 SWAP1 PUSH1 0x1 ADD SWAP1 PUSH2 0x8DE JUMP JUMPDEST JUMPDEST POP SWAP1 POP PUSH2 0x91A SWAP2 SWAP1 PUSH2 0x98F JUMP JUMPDEST POP SWAP1 JUMP JUMPDEST DUP3 DUP1 SLOAD DUP3 DUP3 SSTORE SWAP1 PUSH1 0x0 MSTORE PUSH1 0x20 PUSH1 0x0 KECCAK256 SWAP1 DUP2 ADD SWAP3 DUP3 ISZERO PUSH2 0x95A JUMPI SWAP2 PUSH1 0x20 MUL DUP3 ADD JUMPDEST DUP3 DUP2 GT ISZERO PUSH2 0x959 JUMPI DUP3 MLOAD DUP3 SSTORE SWAP2 PUSH1 0x20 ADD SWAP2 SWAP1 PUSH1 0x1 ADD SWAP1 PUSH2 0x93E JUMP JUMPDEST JUMPDEST POP SWAP1 POP PUSH2 0x967 SWAP2 SWAP1 PUSH2 0x9B3 JUMP JUMPDEST POP SWAP1 JUMP JUMPDEST JUMPDEST DUP1 DUP3 GT ISZERO PUSH2 0x98B JUMPI PUSH1 0x0 DUP2 DUP2 PUSH2 0x982 SWAP2 SWAP1 PUSH2 0x9D0 JUMP JUMPDEST POP PUSH1 0x1 ADD PUSH2 0x96C JUMP JUMPDEST POP SWAP1 JUMP JUMPDEST JUMPDEST DUP1 DUP3 GT ISZERO PUSH2 0x9AF JUMPI PUSH1 0x0 DUP2 DUP2 PUSH2 0x9A6 SWAP2 SWAP1 PUSH2 0xA10 JUMP JUMPDEST POP PUSH1 0x1 ADD PUSH2 0x990 JUMP JUMPDEST POP SWAP1 JUMP JUMPDEST JUMPDEST DUP1 DUP3 GT ISZERO PUSH2 0x9CC JUMPI PUSH1 0x0 DUP2 PUSH1 0x0 SWAP1 SSTORE POP PUSH1 0x1 ADD PUSH2 0x9B4 JUMP JUMPDEST POP SWAP1 JUMP JUMPDEST POP DUP1 SLOAD PUSH2 0x9DC SWAP1 PUSH2 0x1580 JUMP JUMPDEST PUSH1 0x0 DUP3 SSTORE DUP1 PUSH1 0x1F LT PUSH2 0x9EE JUMPI POP PUSH2 0xA0D JUMP JUMPDEST PUSH1 0x1F ADD PUSH1 0x20 SWAP1 DIV SWAP1 PUSH1 0x0 MSTORE PUSH1 0x20 PUSH1 0x0 KECCAK256 SWAP1 DUP2 ADD SWAP1 PUSH2 0xA0C SWAP2 SWAP1 PUSH2 0x9B3 JUMP JUMPDEST JUMPDEST POP JUMP JUMPDEST POP DUP1 SLOAD PUSH1 0x0 DUP3 SSTORE SWAP1 PUSH1 0x0 MSTORE PUSH1 0x20 PUSH1 0x0 KECCAK256 SWAP1 DUP2 ADD SWAP1 PUSH2 0xA2E SWAP2 SWAP1 PUSH2 0x9B3 JUMP JUMPDEST POP JUMP JUMPDEST PUSH1 0x0 PUSH1 0x40 MLOAD SWAP1 POP SWAP1 JUMP JUMPDEST PUSH1 0x0 DUP1 REVERT JUMPDEST PUSH1 0x0 DUP1 REVERT JUMPDEST PUSH1 0x0 DUP2 SWAP1 POP SWAP2 SWAP1 POP JUMP JUMPDEST PUSH2 0xA58 DUP2 PUSH2 0xA45 JUMP JUMPDEST DUP2 EQ PUSH2 0xA63 JUMPI PUSH1 0x0 DUP1 REVERT JUMPDEST POP JUMP JUMPDEST PUSH1 0x0 DUP2 CALLDATALOAD SWAP1 POP PUSH2 0xA75 DUP2 PUSH2 0xA4F JUMP JUMPDEST SWAP3 SWAP2 POP POP JUMP JUMPDEST PUSH1 0x0 DUP2 SWAP1 POP SWAP2 SWAP1 POP JUMP JUMPDEST PUSH2 0xA8E DUP2 PUSH2 0xA7B JUMP JUMPDEST DUP2 EQ PUSH2 0xA99 JUMPI PUSH1 0x0 DUP1 REVERT JUMPDEST POP JUMP JUMPDEST PUSH1 0x0 DUP2 CALLDATALOAD SWAP1 POP PUSH2 0xAAB DUP2 PUSH2 0xA85 JUMP JUMPDEST SWAP3 SWAP2 POP POP JUMP JUMPDEST PUSH1 0x0 DUP1 PUSH1 0x40 DUP4 DUP6 SUB SLT ISZERO PUSH2 0xAC8 JUMPI PUSH2 0xAC7 PUSH2 0xA3B JUMP JUMPDEST JUMPDEST PUSH1 0x0 PUSH2 0xAD6 DUP6 DUP3 DUP7 ADD PUSH2 0xA66 JUMP JUMPDEST SWAP3 POP POP PUSH1 0x20 PUSH2 0xAE7 DUP6 DUP3 DUP7 ADD PUSH2 0xA9C JUMP JUMPDEST SWAP2 POP POP SWAP3 POP SWAP3 SWAP1 POP JUMP JUMPDEST PUSH1 0x0 DUP2 MLOAD SWAP1 POP SWAP2 SWAP1 POP JUMP JUMPDEST PUSH1 0x0 DUP3 DUP3 MSTORE PUSH1 0x20 DUP3 ADD SWAP1 POP SWAP3 SWAP2 POP POP JUMP JUMPDEST PUSH1 0x0 JUMPDEST DUP4 DUP2 LT ISZERO PUSH2 0xB2B JUMPI DUP1 DUP3 ADD MLOAD DUP2 DUP5 ADD MSTORE PUSH1 0x20 DUP2 ADD SWAP1 POP PUSH2 0xB10 JUMP JUMPDEST PUSH1 0x0 DUP5 DUP5 ADD MSTORE POP POP POP POP JUMP JUMPDEST PUSH1 0x0 PUSH1 0x1F NOT PUSH1 0x1F DUP4 ADD AND SWAP1 POP SWAP2 SWAP1 POP JUMP JUMPDEST PUSH1 0x0 PUSH2 0xB53 DUP3 PUSH2 0xAF1 JUMP JUMPDEST PUSH2 0xB5D DUP2 DUP6 PUSH2 0xAFC JUMP JUMPDEST SWAP4 POP PUSH2 0xB6D DUP2 DUP6 PUSH1 0x20 DUP7 ADD PUSH2 0xB0D JUMP JUMPDEST PUSH2 0xB76 DUP2 PUSH2 0xB37 JUMP JUMPDEST DUP5 ADD SWAP2 POP POP SWAP3 SWAP2 POP POP JUMP JUMPDEST PUSH1 0x0 DUP2 MLOAD SWAP1 POP SWAP2 SWAP1 POP JUMP JUMPDEST PUSH1 0x0 DUP3 DUP3 MSTORE PUSH1 0x20 DUP3 ADD SWAP1 POP SWAP3 SWAP2 POP POP JUMP JUMPDEST PUSH1 0x0 DUP2 SWAP1 POP PUSH1 0x20 DUP3 ADD SWAP1 POP SWAP2 SWAP1 POP JUMP JUMPDEST PUSH1 0x0 PUSH2 0xBB9 DUP4 DUP4 PUSH2 0xB48 JUMP JUMPDEST SWAP1 POP SWAP3 SWAP2 POP POP JUMP JUMPDEST PUSH1 0x0 PUSH1 0x20 DUP3 ADD SWAP1 POP SWAP2 SWAP1 POP JUMP JUMPDEST PUSH1 0x0 PUSH2 0xBD9 DUP3 PUSH2 0xB81 JUMP JUMPDEST PUSH2 0xBE3 DUP2 DUP6 PUSH2 0xB8C JUMP JUMPDEST SWAP4 POP DUP4 PUSH1 0x20 DUP3 MUL DUP6 ADD PUSH2 0xBF5 DUP6 PUSH2 0xB9D JUMP JUMPDEST DUP1 PUSH1 0x0 JUMPDEST DUP6 DUP2 LT ISZERO PUSH2 0xC31 JUMPI DUP5 DUP5 SUB DUP10 MSTORE DUP2 MLOAD PUSH2 0xC12 DUP6 DUP3 PUSH2 0xBAD JUMP JUMPDEST SWAP5 POP PUSH2 0xC1D DUP4 PUSH2 0xBC1 JUMP JUMPDEST SWAP3 POP PUSH1 0x20 DUP11 ADD SWAP10 POP POP PUSH1 0x1 DUP2 ADD SWAP1 POP PUSH2 0xBF9 JUMP JUMPDEST POP DUP3 SWAP8 POP DUP8 SWAP6 POP POP POP POP POP POP SWAP3 SWAP2 POP POP JUMP JUMPDEST PUSH1 0x0 DUP2 MLOAD SWAP1 POP SWAP2 SWAP1 POP JUMP JUMPDEST PUSH1 0x0 DUP3 DUP3 MSTORE PUSH1 0x20 DUP3 ADD SWAP1 POP SWAP3 SWAP2 POP POP JUMP JUMPDEST PUSH1 0x0 DUP2 SWAP1 POP PUSH1 0x20 DUP3 ADD SWAP1 POP SWAP2 SWAP1 POP JUMP JUMPDEST PUSH1 0x0 DUP2 MLOAD SWAP1 POP SWAP2 SWAP1 POP JUMP JUMPDEST PUSH1 0x0 DUP3 DUP3 MSTORE PUSH1 0x20 DUP3 ADD SWAP1 POP SWAP3 SWAP2 POP POP JUMP JUMPDEST PUSH1 0x0 DUP2 SWAP1 POP PUSH1 0x20 DUP3 ADD SWAP1 POP SWAP2 SWAP1 POP JUMP JUMPDEST PUSH2 0xCA4 DUP2 PUSH2 0xA45 JUMP JUMPDEST DUP3 MSTORE POP POP JUMP JUMPDEST PUSH1 0x0 PUSH2 0xCB6 DUP4 DUP4 PUSH2 0xC9B JUMP JUMPDEST PUSH1 0x20 DUP4 ADD SWAP1 POP SWAP3 SWAP2 POP POP JUMP JUMPDEST PUSH1 0x0 PUSH1 0x20 DUP3 ADD SWAP1 POP SWAP2 SWAP1 POP JUMP JUMPDEST PUSH1 0x0 PUSH2 0xCDA DUP3 PUSH2 0xC6F JUMP JUMPDEST PUSH2 0xCE4 DUP2 DUP6 PUSH2 0xC7A JUMP JUMPDEST SWAP4 POP PUSH2 0xCEF DUP4 PUSH2 0xC8B JUMP JUMPDEST DUP1 PUSH1 0x0 JUMPDEST DUP4 DUP2 LT ISZERO PUSH2 0xD20 JUMPI DUP2 MLOAD PUSH2 0xD07 DUP9 DUP3 PUSH2 0xCAA JUMP JUMPDEST SWAP8 POP PUSH2 0xD12 DUP4 PUSH2 0xCC2 JUMP JUMPDEST SWAP3 POP POP PUSH1 0x1 DUP2 ADD SWAP1 POP PUSH2 0xCF3 JUMP JUMPDEST POP DUP6 SWAP4 POP POP POP POP SWAP3 SWAP2 POP POP JUMP JUMPDEST PUSH1 0x0 PUSH2 0xD39 DUP4 DUP4 PUSH2 0xCCF JUMP JUMPDEST SWAP1 POP SWAP3 SWAP2 POP POP JUMP JUMPDEST PUSH1 0x0 PUSH1 0x20 DUP3 ADD SWAP1 POP SWAP2 SWAP1 POP JUMP JUMPDEST PUSH1 0x0 PUSH2 0xD59 DUP3 PUSH2 0xC43 JUMP JUMPDEST PUSH2 0xD63 DUP2 DUP6 PUSH2 0xC4E JUMP JUMPDEST SWAP4 POP DUP4 PUSH1 0x20 DUP3 MUL DUP6 ADD PUSH2 0xD75 DUP6 PUSH2 0xC5F JUMP JUMPDEST DUP1 PUSH1 0x0 JUMPDEST DUP6 DUP2 LT ISZERO PUSH2 0xDB1 JUMPI DUP5 DUP5 SUB DUP10 MSTORE DUP2 MLOAD PUSH2 0xD92 DUP6 DUP3 PUSH2 0xD2D JUMP JUMPDEST SWAP5 POP PUSH2 0xD9D DUP4 PUSH2 0xD41 JUMP JUMPDEST SWAP3 POP PUSH1 0x20 DUP11 ADD SWAP10 POP POP PUSH1 0x1 DUP2 ADD SWAP1 POP PUSH2 0xD79 JUMP JUMPDEST POP DUP3 SWAP8 POP DUP8 SWAP6 POP POP POP POP POP POP SWAP3 SWAP2 POP POP JUMP JUMPDEST PUSH2 0xDCC DUP2 PUSH2 0xA7B JUMP JUMPDEST DUP3 MSTORE POP POP JUMP JUMPDEST PUSH1 0x0 PUSH2 0x120 DUP4 ADD PUSH1 0x0 DUP4 ADD MLOAD DUP5 DUP3 SUB PUSH1 0x0 DUP7 ADD MSTORE PUSH2 0xDF0 DUP3 DUP3 PUSH2 0xB48 JUMP JUMPDEST SWAP2 POP POP PUSH1 0x20 DUP4 ADD MLOAD DUP5 DUP3 SUB PUSH1 0x20 DUP7 ADD MSTORE PUSH2 0xE0A DUP3 DUP3 PUSH2 0xBCE JUMP JUMPDEST SWAP2 POP POP PUSH1 0x40 DUP4 ADD MLOAD DUP5 DUP3 SUB PUSH1 0x40 DUP7 ADD MSTORE PUSH2 0xE24 DUP3 DUP3 PUSH2 0xB48 JUMP JUMPDEST SWAP2 POP POP PUSH1 0x60 DUP4 ADD MLOAD DUP5 DUP3 SUB PUSH1 0x60 DUP7 ADD MSTORE PUSH2 0xE3E DUP3 DUP3 PUSH2 0xD4E JUMP JUMPDEST SWAP2 POP POP PUSH1 0x80 DUP4 ADD MLOAD PUSH2 0xE53 PUSH1 0x80 DUP7 ADD DUP3 PUSH2 0xC9B JUMP JUMPDEST POP PUSH1 0xA0 DUP4 ADD MLOAD PUSH2 0xE66 PUSH1 0xA0 DUP7 ADD DUP3 PUSH2 0xC9B JUMP JUMPDEST POP PUSH1 0xC0 DUP4 ADD MLOAD DUP5 DUP3 SUB PUSH1 0xC0 DUP7 ADD MSTORE PUSH2 0xE7E DUP3 DUP3 PUSH2 0xCCF JUMP JUMPDEST SWAP2 POP POP PUSH1 0xE0 DUP4 ADD MLOAD PUSH2 0xE93 PUSH1 0xE0 DUP7 ADD DUP3 PUSH2 0xDC3 JUMP JUMPDEST POP PUSH2 0x100 DUP4 ADD MLOAD DUP5 DUP3 SUB PUSH2 0x100 DUP7 ADD MSTORE PUSH2 0xEAD DUP3 DUP3 PUSH2 0xB48 JUMP JUMPDEST SWAP2 POP POP DUP1 SWAP2 POP POP SWAP3 SWAP2 POP POP JUMP JUMPDEST PUSH1 0x0 PUSH1 0x20 DUP3 ADD SWAP1 POP DUP2 DUP2 SUB PUSH1 0x0 DUP4 ADD MSTORE PUSH2 0xED4 DUP2 DUP5 PUSH2 0xDD2 JUMP JUMPDEST SWAP1 POP SWAP3 SWAP2 POP POP JUMP JUMPDEST PUSH1 0x0 DUP1 REVERT JUMPDEST PUSH32 0x4E487B7100000000000000000000000000000000000000000000000000000000 PUSH1 0x0 MSTORE PUSH1 0x41 PUSH1 0x4 MSTORE PUSH1 0x24 PUSH1 0x0 REVERT JUMPDEST PUSH2 0xF19 DUP3 PUSH2 0xB37 JUMP JUMPDEST DUP2 ADD DUP2 DUP2 LT PUSH8 0xFFFFFFFFFFFFFFFF DUP3 GT OR ISZERO PUSH2 0xF38 JUMPI PUSH2 0xF37 PUSH2 0xEE1 JUMP JUMPDEST JUMPDEST DUP1 PUSH1 0x40 MSTORE POP POP POP JUMP JUMPDEST PUSH1 0x0 PUSH2 0xF4B PUSH2 0xA31 JUMP JUMPDEST SWAP1 POP PUSH2 0xF57 DUP3 DUP3 PUSH2 0xF10 JUMP JUMPDEST SWAP2 SWAP1 POP JUMP JUMPDEST PUSH1 0x0 DUP1 REVERT JUMPDEST PUSH1 0x0 DUP1 REVERT JUMPDEST PUSH1 0x0 DUP1 REVERT JUMPDEST PUSH1 0x0 PUSH8 0xFFFFFFFFFFFFFFFF DUP3 GT ISZERO PUSH2 0xF86 JUMPI PUSH2 0xF85 PUSH2 0xEE1 JUMP JUMPDEST JUMPDEST PUSH2 0xF8F DUP3 PUSH2 0xB37 JUMP JUMPDEST SWAP1 POP PUSH1 0x20 DUP2 ADD SWAP1 POP SWAP2 SWAP1 POP JUMP JUMPDEST DUP3 DUP2 DUP4 CALLDATACOPY PUSH1 0x0 DUP4 DUP4 ADD MSTORE POP POP POP JUMP JUMPDEST PUSH1 0x0 PUSH2 0xFBE PUSH2 0xFB9 DUP5 PUSH2 0xF6B JUMP JUMPDEST PUSH2 0xF41 JUMP JUMPDEST SWAP1 POP DUP3 DUP2 MSTORE PUSH1 0x20 DUP2 ADD DUP5 DUP5 DUP5 ADD GT ISZERO PUSH2 0xFDA JUMPI PUSH2 0xFD9 PUSH2 0xF66 JUMP JUMPDEST JUMPDEST PUSH2 0xFE5 DUP5 DUP3 DUP6 PUSH2 0xF9C JUMP JUMPDEST POP SWAP4 SWAP3 POP POP POP JUMP JUMPDEST PUSH1 0x0 DUP3 PUSH1 0x1F DUP4 ADD SLT PUSH2 0x1002 JUMPI PUSH2 0x1001 PUSH2 0xF61 JUMP JUMPDEST JUMPDEST DUP2 CALLDATALOAD PUSH2 0x1012 DUP5 DUP3 PUSH1 0x20 DUP7 ADD PUSH2 0xFAB JUMP JUMPDEST SWAP2 POP POP SWAP3 SWAP2 POP POP JUMP JUMPDEST PUSH1 0x0 PUSH8 0xFFFFFFFFFFFFFFFF DUP3 GT ISZERO PUSH2 0x1036 JUMPI PUSH2 0x1035 PUSH2 0xEE1 JUMP JUMPDEST JUMPDEST PUSH1 0x20 DUP3 MUL SWAP1 POP PUSH1 0x20 DUP2 ADD SWAP1 POP SWAP2 SWAP1 POP JUMP JUMPDEST PUSH1 0x0 DUP1 REVERT JUMPDEST PUSH1 0x0 PUSH2 0x105F PUSH2 0x105A DUP5 PUSH2 0x101B JUMP JUMPDEST PUSH2 0xF41 JUMP JUMPDEST SWAP1 POP DUP1 DUP4 DUP3 MSTORE PUSH1 0x20 DUP3 ADD SWAP1 POP PUSH1 0x20 DUP5 MUL DUP4 ADD DUP6 DUP2 GT ISZERO PUSH2 0x1082 JUMPI PUSH2 0x1081 PUSH2 0x1047 JUMP JUMPDEST JUMPDEST DUP4 JUMPDEST DUP2 DUP2 LT ISZERO PUSH2 0x10C9 JUMPI DUP1 CALLDATALOAD PUSH8 0xFFFFFFFFFFFFFFFF DUP2 GT ISZERO PUSH2 0x10A7 JUMPI PUSH2 0x10A6 PUSH2 0xF61 JUMP JUMPDEST JUMPDEST DUP1 DUP7 ADD PUSH2 0x10B4 DUP10 DUP3 PUSH2 0xFED JUMP JUMPDEST DUP6 MSTORE PUSH1 0x20 DUP6 ADD SWAP5 POP POP POP PUSH1 0x20 DUP2 ADD SWAP1 POP PUSH2 0x1084 JUMP JUMPDEST POP POP POP SWAP4 SWAP3 POP POP POP JUMP JUMPDEST PUSH1 0x0 DUP3 PUSH1 0x1F DUP4 ADD SLT PUSH2 0x10E8 JUMPI PUSH2 0x10E7 PUSH2 0xF61 JUMP JUMPDEST JUMPDEST DUP2 CALLDATALOAD PUSH2 0x10F8 DUP5 DUP3 PUSH1 0x20 DUP7 ADD PUSH2 0x104C JUMP JUMPDEST SWAP2 POP POP SWAP3 SWAP2 POP POP JUMP JUMPDEST PUSH1 0x0 PUSH8 0xFFFFFFFFFFFFFFFF DUP3 GT ISZERO PUSH2 0x111C JUMPI PUSH2 0x111B PUSH2 0xEE1 JUMP JUMPDEST JUMPDEST PUSH1 0x20 DUP3 MUL SWAP1 POP PUSH1 0x20 DUP2 ADD SWAP1 POP SWAP2 SWAP1 POP JUMP JUMPDEST PUSH1 0x0 PUSH8 0xFFFFFFFFFFFFFFFF DUP3 GT ISZERO PUSH2 0x1148 JUMPI PUSH2 0x1147 PUSH2 0xEE1 JUMP JUMPDEST JUMPDEST PUSH1 0x20 DUP3 MUL SWAP1 POP PUSH1 0x20 DUP2 ADD SWAP1 POP SWAP2 SWAP1 POP JUMP JUMPDEST PUSH1 0x0 PUSH2 0x116C PUSH2 0x1167 DUP5 PUSH2 0x112D JUMP JUMPDEST PUSH2 0xF41 JUMP JUMPDEST SWAP1 POP DUP1 DUP4 DUP3 MSTORE PUSH1 0x20 DUP3 ADD SWAP1 POP PUSH1 0x20 DUP5 MUL DUP4 ADD DUP6 DUP2 GT ISZERO PUSH2 0x118F JUMPI PUSH2 0x118E PUSH2 0x1047 JUMP JUMPDEST JUMPDEST DUP4 JUMPDEST DUP2 DUP2 LT ISZERO PUSH2 0x11B8 JUMPI DUP1 PUSH2 0x11A4 DUP9 DUP3 PUSH2 0xA66 JUMP JUMPDEST DUP5 MSTORE PUSH1 0x20 DUP5 ADD SWAP4 POP POP PUSH1 0x20 DUP2 ADD SWAP1 POP PUSH2 0x1191 JUMP JUMPDEST POP POP POP SWAP4 SWAP3 POP POP POP JUMP JUMPDEST PUSH1 0x0 DUP3 PUSH1 0x1F DUP4 ADD SLT PUSH2 0x11D7 JUMPI PUSH2 0x11D6 PUSH2 0xF61 JUMP JUMPDEST JUMPDEST DUP2 CALLDATALOAD PUSH2 0x11E7 DUP5 DUP3 PUSH1 0x20 DUP7 ADD PUSH2 0x1159 JUMP JUMPDEST SWAP2 POP POP SWAP3 SWAP2 POP POP JUMP JUMPDEST PUSH1 0x0 PUSH2 0x1203 PUSH2 0x11FE DUP5 PUSH2 0x1101 JUMP JUMPDEST PUSH2 0xF41 JUMP JUMPDEST SWAP1 POP DUP1 DUP4 DUP3 MSTORE PUSH1 0x20 DUP3 ADD SWAP1 POP PUSH1 0x20 DUP5 MUL DUP4 ADD DUP6 DUP2 GT ISZERO PUSH2 0x1226 JUMPI PUSH2 0x1225 PUSH2 0x1047 JUMP JUMPDEST JUMPDEST DUP4 JUMPDEST DUP2 DUP2 LT ISZERO PUSH2 0x126D JUMPI DUP1 CALLDATALOAD PUSH8 0xFFFFFFFFFFFFFFFF DUP2 GT ISZERO PUSH2 0x124B JUMPI PUSH2 0x124A PUSH2 0xF61 JUMP JUMPDEST JUMPDEST DUP1 DUP7 ADD PUSH2 0x1258 DUP10 DUP3 PUSH2 0x11C2 JUMP JUMPDEST DUP6 MSTORE PUSH1 0x20 DUP6 ADD SWAP5 POP POP POP PUSH1 0x20 DUP2 ADD SWAP1 POP PUSH2 0x1228 JUMP JUMPDEST POP POP POP SWAP4 SWAP3 POP POP POP JUMP JUMPDEST PUSH1 0x0 DUP3 PUSH1 0x1F DUP4 ADD SLT PUSH2 0x128C JUMPI PUSH2 0x128B PUSH2 0xF61 JUMP JUMPDEST JUMPDEST DUP2 CALLDATALOAD PUSH2 0x129C DUP5 DUP3 PUSH1 0x20 DUP7 ADD PUSH2 0x11F0 JUMP JUMPDEST SWAP2 POP POP SWAP3 SWAP2 POP POP JUMP JUMPDEST PUSH1 0x0 PUSH2 0x120 DUP3 DUP5 SUB SLT ISZERO PUSH2 0x12BC JUMPI PUSH2 0x12BB PUSH2 0xEDC JUMP JUMPDEST JUMPDEST PUSH2 0x12C7 PUSH2 0x120 PUSH2 0xF41 JUMP JUMPDEST SWAP1 POP PUSH1 0x0 DUP3 ADD CALLDATALOAD PUSH8 0xFFFFFFFFFFFFFFFF DUP2 GT ISZERO PUSH2 0x12E7 JUMPI PUSH2 0x12E6 PUSH2 0xF5C JUMP JUMPDEST JUMPDEST PUSH2 0x12F3 DUP5 DUP3 DUP6 ADD PUSH2 0xFED JUMP JUMPDEST PUSH1 0x0 DUP4 ADD MSTORE POP PUSH1 0x20 DUP3 ADD CALLDATALOAD PUSH8 0xFFFFFFFFFFFFFFFF DUP2 GT ISZERO PUSH2 0x1317 JUMPI PUSH2 0x1316 PUSH2 0xF5C JUMP JUMPDEST JUMPDEST PUSH2 0x1323 DUP5 DUP3 DUP6 ADD PUSH2 0x10D3 JUMP JUMPDEST PUSH1 0x20 DUP4 ADD MSTORE POP PUSH1 0x40 DUP3 ADD CALLDATALOAD PUSH8 0xFFFFFFFFFFFFFFFF DUP2 GT ISZERO PUSH2 0x1347 JUMPI PUSH2 0x1346 PUSH2 0xF5C JUMP JUMPDEST JUMPDEST PUSH2 0x1353 DUP5 DUP3 DUP6 ADD PUSH2 0xFED JUMP JUMPDEST PUSH1 0x40 DUP4 ADD MSTORE POP PUSH1 0x60 DUP3 ADD CALLDATALOAD PUSH8 0xFFFFFFFFFFFFFFFF DUP2 GT ISZERO PUSH2 0x1377 JUMPI PUSH2 0x1376 PUSH2 0xF5C JUMP JUMPDEST JUMPDEST PUSH2 0x1383 DUP5 DUP3 DUP6 ADD PUSH2 0x1277 JUMP JUMPDEST PUSH1 0x60 DUP4 ADD MSTORE POP PUSH1 0x80 PUSH2 0x1397 DUP5 DUP3 DUP6 ADD PUSH2 0xA66 JUMP JUMPDEST PUSH1 0x80 DUP4 ADD MSTORE POP PUSH1 0xA0 PUSH2 0x13AB DUP5 DUP3 DUP6 ADD PUSH2 0xA66 JUMP JUMPDEST PUSH1 0xA0 DUP4 ADD MSTORE POP PUSH1 0xC0 DUP3 ADD CALLDATALOAD PUSH8 0xFFFFFFFFFFFFFFFF DUP2 GT ISZERO PUSH2 0x13CF JUMPI PUSH2 0x13CE PUSH2 0xF5C JUMP JUMPDEST JUMPDEST PUSH2 0x13DB DUP5 DUP3 DUP6 ADD PUSH2 0x11C2 JUMP JUMPDEST PUSH1 0xC0 DUP4 ADD MSTORE POP PUSH1 0xE0 PUSH2 0x13EF DUP5 DUP3 DUP6 ADD PUSH2 0xA9C JUMP JUMPDEST PUSH1 0xE0 DUP4 ADD MSTORE POP PUSH2 0x100 DUP3 ADD CALLDATALOAD PUSH8 0xFFFFFFFFFFFFFFFF DUP2 GT ISZERO PUSH2 0x1414 JUMPI PUSH2 0x1413 PUSH2 0xF5C JUMP JUMPDEST JUMPDEST PUSH2 0x1420 DUP5 DUP3 DUP6 ADD PUSH2 0xFED JUMP JUMPDEST PUSH2 0x100 DUP4 ADD MSTORE POP SWAP3 SWAP2 POP POP JUMP JUMPDEST PUSH1 0x0 DUP1 PUSH1 0x0 PUSH1 0x60 DUP5 DUP7 SUB SLT ISZERO PUSH2 0x1446 JUMPI PUSH2 0x1445 PUSH2 0xA3B JUMP JUMPDEST JUMPDEST PUSH1 0x0 PUSH2 0x1454 DUP7 DUP3 DUP8 ADD PUSH2 0xA66 JUMP JUMPDEST SWAP4 POP POP PUSH1 0x20 PUSH2 0x1465 DUP7 DUP3 DUP8 ADD PUSH2 0xA9C JUMP JUMPDEST SWAP3 POP POP PUSH1 0x40 DUP5 ADD CALLDATALOAD PUSH8 0xFFFFFFFFFFFFFFFF DUP2 GT ISZERO PUSH2 0x1486 JUMPI PUSH2 0x1485 PUSH2 0xA40 JUMP JUMPDEST JUMPDEST PUSH2 0x1492 DUP7 DUP3 DUP8 ADD PUSH2 0x12A5 JUMP JUMPDEST SWAP2 POP POP SWAP3 POP SWAP3 POP SWAP3 JUMP JUMPDEST PUSH1 0x0 PUSH20 0xFFFFFFFFFFFFFFFFFFFFFFFFFFFFFFFFFFFFFFFF DUP3 AND SWAP1 POP SWAP2 SWAP1 POP JUMP JUMPDEST PUSH1 0x0 PUSH2 0x14C7 DUP3 PUSH2 0x149C JUMP JUMPDEST SWAP1 POP SWAP2 SWAP1 POP JUMP JUMPDEST PUSH2 0x14D7 DUP2 PUSH2 0x14BC JUMP JUMPDEST DUP3 MSTORE POP POP JUMP JUMPDEST PUSH1 0x0 PUSH1 0x20 DUP3 ADD SWAP1 POP PUSH2 0x14F2 PUSH1 0x0 DUP4 ADD DUP5 PUSH2 0x14CE JUMP JUMPDEST SWAP3 SWAP2 POP POP JUMP JUMPDEST PUSH2 0x1501 DUP2 PUSH2 0x14BC JUMP JUMPDEST DUP2 EQ PUSH2 0x150C JUMPI PUSH1 0x0 DUP1 REVERT JUMPDEST POP JUMP JUMPDEST PUSH1 0x0 DUP2 CALLDATALOAD SWAP1 POP PUSH2 0x151E DUP2 PUSH2 0x14F8 JUMP JUMPDEST SWAP3 SWAP2 POP POP JUMP JUMPDEST PUSH1 0x0 PUSH1 0x20 DUP3 DUP5 SUB SLT ISZERO PUSH2 0x153A JUMPI PUSH2 0x1539 PUSH2 0xA3B JUMP JUMPDEST JUMPDEST PUSH1 0x0 PUSH2 0x1548 DUP5 DUP3 DUP6 ADD PUSH2 0x150F JUMP JUMPDEST SWAP2 POP POP SWAP3 SWAP2 POP POP JUMP JUMPDEST PUSH32 0x4E487B7100000000000000000000000000000000000000000000000000000000 PUSH1 0x0 MSTORE PUSH1 0x22 PUSH1 0x4 MSTORE PUSH1 0x24 PUSH1 0x0 REVERT JUMPDEST PUSH1 0x0 PUSH1 0x2 DUP3 DIV SWAP1 POP PUSH1 0x1 DUP3 AND DUP1 PUSH2 0x1598 JUMPI PUSH1 0x7F DUP3 AND SWAP2 POP JUMPDEST PUSH1 0x20 DUP3 LT DUP2 SUB PUSH2 0x15AB JUMPI PUSH2 0x15AA PUSH2 0x1551 JUMP JUMPDEST JUMPDEST POP SWAP2 SWAP1 POP JUMP JUMPDEST PUSH1 0x0 DUP2 SWAP1 POP DUP2 PUSH1 0x0 MSTORE PUSH1 0x20 PUSH1 0x0 KECCAK256 SWAP1 POP SWAP2 SWAP1 POP JUMP JUMPDEST PUSH1 0x0 PUSH1 0x20 PUSH1 0x1F DUP4 ADD DIV SWAP1 POP SWAP2 SWAP1 POP JUMP JUMPDEST PUSH1 0x0 DUP3 DUP3 SHL SWAP1 POP SWAP3 SWAP2 POP POP JUMP JUMPDEST PUSH1 0x0 PUSH1 0x8 DUP4 MUL PUSH2 0x1613 PUSH32 0xFFFFFFFFFFFFFFFFFFFFFFFFFFFFFFFFFFFFFFFFFFFFFFFFFFFFFFFFFFFFFFFF DUP3 PUSH2 0x15D6 JUMP JUMPDEST PUSH2 0x161D DUP7 DUP4 PUSH2 0x15D6 JUMP JUMPDEST SWAP6 POP DUP1 NOT DUP5 AND SWAP4 POP DUP1 DUP7 AND DUP5 OR SWAP3 POP POP POP SWAP4 SWAP3 POP POP POP JUMP JUMPDEST PUSH1 0x0 DUP2 SWAP1 POP SWAP2 SWAP1 POP JUMP JUMPDEST PUSH1 0x0 PUSH2 0x165A PUSH2 0x1655 PUSH2 0x1650 DUP5 PUSH2 0xA45 JUMP JUMPDEST PUSH2 0x1635 JUMP JUMPDEST PUSH2 0xA45 JUMP JUMPDEST SWAP1 POP SWAP2 SWAP1 POP JUMP JUMPDEST PUSH1 0x0 DUP2 SWAP1 POP SWAP2 SWAP1 POP JUMP JUMPDEST PUSH2 0x1674 DUP4 PUSH2 0x163F JUMP JUMPDEST PUSH2 0x1688 PUSH2 0x1680 DUP3 PUSH2 0x1661 JUMP JUMPDEST DUP5 DUP5 SLOAD PUSH2 0x15E3 JUMP JUMPDEST DUP3 SSTORE POP POP POP POP JUMP JUMPDEST PUSH1 0x0 SWAP1 JUMP JUMPDEST PUSH2 0x169D PUSH2 0x1690 JUMP JUMPDEST PUSH2 0x16A8 DUP2 DUP5 DUP5 PUSH2 0x166B JUMP JUMPDEST POP POP POP JUMP JUMPDEST JUMPDEST DUP2 DUP2 LT ISZERO PUSH2 0x16CC JUMPI PUSH2 0x16C1 PUSH1 0x0 DUP3 PUSH2 0x1695 JUMP JUMPDEST PUSH1 0x1 DUP2 ADD SWAP1 POP PUSH2 0x16AE JUMP JUMPDEST POP POP JUMP JUMPDEST PUSH1 0x1F DUP3 GT ISZERO PUSH2 0x1711 JUMPI PUSH2 0x16E2 DUP2 PUSH2 0x15B1 JUMP JUMPDEST PUSH2 0x16EB DUP5 PUSH2 0x15C6 JUMP JUMPDEST DUP2 ADD PUSH1 0x20 DUP6 LT ISZERO PUSH2 0x16FA JUMPI DUP2 SWAP1 POP JUMPDEST PUSH2 0x170E PUSH2 0x1706 DUP6 PUSH2 0x15C6 JUMP JUMPDEST DUP4 ADD DUP3 PUSH2 0x16AD JUMP JUMPDEST POP POP JUMPDEST POP POP POP JUMP JUMPDEST PUSH1 0x0 DUP3 DUP3 SHR SWAP1 POP SWAP3 SWAP2 POP POP JUMP JUMPDEST PUSH1 0x0 PUSH2 0x1734 PUSH1 0x0 NOT DUP5 PUSH1 0x8 MUL PUSH2 0x1716 JUMP JUMPDEST NOT DUP1 DUP4 AND SWAP2 POP POP SWAP3 SWAP2 POP POP JUMP JUMPDEST PUSH1 0x0 PUSH2 0x174D DUP4 DUP4 PUSH2 0x1723 JUMP JUMPDEST SWAP2 POP DUP3 PUSH1 0x2 MUL DUP3 OR SWAP1 POP SWAP3 SWAP2 POP POP JUMP JUMPDEST PUSH2 0x1766 DUP3 PUSH2 0xAF1 JUMP JUMPDEST PUSH8 0xFFFFFFFFFFFFFFFF DUP2 GT ISZERO PUSH2 0x177F JUMPI PUSH2 0x177E PUSH2 0xEE1 JUMP JUMPDEST JUMPDEST PUSH2 0x1789 DUP3 SLOAD PUSH2 0x1580 JUMP JUMPDEST PUSH2 0x1794 DUP3 DUP3 DUP6 PUSH2 0x16D0 JUMP JUMPDEST PUSH1 0x0 PUSH1 0x20 SWAP1 POP PUSH1 0x1F DUP4 GT PUSH1 0x1 DUP2 EQ PUSH2 0x17C7 JUMPI PUSH1 0x0 DUP5 ISZERO PUSH2 0x17B5 JUMPI DUP3 DUP8 ADD MLOAD SWAP1 POP JUMPDEST PUSH2 0x17BF DUP6 DUP3 PUSH2 0x1741 JUMP JUMPDEST DUP7 SSTORE POP PUSH2 0x1827 JUMP JUMPDEST PUSH1 0x1F NOT DUP5 AND PUSH2 0x17D5 DUP7 PUSH2 0x15B1 JUMP JUMPDEST PUSH1 0x0 JUMPDEST DUP3 DUP2 LT ISZERO PUSH2 0x17FD JUMPI DUP5 DUP10 ADD MLOAD DUP3 SSTORE PUSH1 0x1 DUP3 ADD SWAP2 POP PUSH1 0x20 DUP6 ADD SWAP5 POP PUSH1 0x20 DUP2 ADD SWAP1 POP PUSH2 0x17D8 JUMP JUMPDEST DUP7 DUP4 LT ISZERO PUSH2 0x181A JUMPI DUP5 DUP10 ADD MLOAD PUSH2 0x1816 PUSH1 0x1F DUP10 AND DUP3 PUSH2 0x1723 JUMP JUMPDEST DUP4 SSTORE POP JUMPDEST PUSH1 0x1 PUSH1 0x2 DUP9 MUL ADD DUP9 SSTORE POP POP POP JUMPDEST POP POP POP POP POP POP JUMP JUMPDEST PUSH2 0x1838 DUP2 PUSH2 0xA45 JUMP JUMPDEST DUP3 MSTORE POP POP JUMP JUMPDEST PUSH2 0x1847 DUP2 PUSH2 0xA7B JUMP JUMPDEST DUP3 MSTORE POP POP JUMP JUMPDEST PUSH1 0x0 PUSH1 0x40 DUP3 ADD SWAP1 POP PUSH2 0x1862 PUSH1 0x0 DUP4 ADD DUP6 PUSH2 0x182F JUMP JUMPDEST PUSH2 0x186F PUSH1 0x20 DUP4 ADD DUP5 PUSH2 0x183E JUMP JUMPDEST SWAP4 SWAP3 POP POP POP JUMP INVALID LOG2 PUSH5 0x6970667358 0x22 SLT KECCAK256 SWAP16 PUSH32 0xF82710DB47098D189BDBC9B609705A0159B2440881AC274FD69CF4676C896473 PUSH16 0x6C634300081800330000000000000000 "},"methodIdentifiers":{"getResult(uint256,bytes32)":"13e86265","owner()":"8da5cb5b","renounceOwnership()":"715018a6","setResult(uint256,bytes32,(string,string[],string,uint256[][],uint256,uint256,uint256[],bytes32,string))":"3c973f75","transferOwnership(address)":"f2fde38b"}}}}}