{"src/CommunityHub.sol":{"CommunityHub":{"abi":[{"inputs":[],"stateMutability":"nonpayable","type":"constructor"},{"inputs":[{"internalType":"uint256","name":"expected","type":"uint256"},{"internalType":"uint256","name":"actual","type":"uint256"}],"name":"AmountMismatch","type":"error"},{"inputs":[{"internalType":"uint256","name":"guardian","type":"uint256"}],"name":"GuardianNotFound","type":"error"},{"inputs":[{"internalType":"address","name":"owner","type":"address"}],"name":"OwnableInvalidOwner","type":"error"},{"inputs":[{"internalType":"address","name":"account","type":"address"}],"name":"OwnableUnauthorizedAccount","type":"error"},{"inputs":[],"name":"ZeroAmount","type":"error"},{"anonymous":false,"inputs":[{"indexed":false,"internalType":"uint256","name":"communityId","type":"uint256"}],"name":"AdminCommunityManaged","type":"event"},{"anonymous":false,"inputs":[{"indexed":false,"internalType":"uint256","name":"communityId","type":"uint256"},{"components":[{"internalType":"enum ICommunityHub.CensusType","name":"censusType","type":"uint8"},{"components":[{"internalType":"string","name":"blockchain","type":"string"},{"internalType":"address","name":"contractAddress","type":"address"}],"internalType":"struct ICommunityHub.Token[]","name":"tokens","type":"tuple[]"}],"indexed":false,"internalType":"struct ICommunityHub.Census","name":"census","type":"tuple"}],"name":"CensusSet","type":"event"},{"anonymous":false,"inputs":[{"indexed":false,"internalType":"uint256","name":"communityId","type":"uint256"},{"indexed":false,"internalType":"address","name":"creator","type":"address"}],"name":"CommunityCreated","type":"event"},{"anonymous":false,"inputs":[{"indexed":false,"internalType":"uint256","name":"price","type":"uint256"}],"name":"CreateCommunityPriceSet","type":"event"},{"anonymous":false,"inputs":[{"indexed":false,"internalType":"uint256","name":"communityId","type":"uint256"},{"indexed":false,"internalType":"enum ICommunityHub.CreateElectionPermission","name":"createElectionPermission","type":"uint8"}],"name":"CreateElectionPermissionSet","type":"event"},{"anonymous":false,"inputs":[{"indexed":false,"internalType":"address","name":"electionResultsContract","type":"address"}],"name":"DefaultElectionResultsContractSet","type":"event"},{"anonymous":false,"inputs":[{"indexed":false,"internalType":"address","name":"sender","type":"address"},{"indexed":false,"internalType":"uint256","name":"amount","type":"uint256"}],"name":"Deposit","type":"event"},{"anonymous":false,"inputs":[{"indexed":false,"internalType":"uint256","name":"communityId","type":"uint256"},{"indexed":false,"internalType":"address","name":"electionResultsContract","type":"address"}],"name":"ElectionResultsContractSet","type":"event"},{"anonymous":false,"inputs":[{"indexed":false,"internalType":"uint256","name":"communityId","type":"uint256"},{"indexed":false,"internalType":"uint256","name":"guardian","type":"uint256"}],"name":"GuardianAdded","type":"event"},{"anonymous":false,"inputs":[{"indexed":false,"internalType":"uint256","name":"communityId","type":"uint256"},{"indexed":false,"internalType":"uint256","name":"guardian","type":"uint256"}],"name":"GuardianRemoved","type":"event"},{"anonymous":false,"inputs":[{"indexed":false,"internalType":"uint256","name":"communityId","type":"uint256"},{"components":[{"internalType":"string","name":"name","type":"string"},{"internalType":"string","name":"imageURI","type":"string"},{"internalType":"string[]","name":"channels","type":"string[]"},{"internalType":"bool","name":"notifications","type":"bool"}],"indexed":false,"internalType":"struct ICommunityHub.CommunityMetadata","name":"metadata","type":"tuple"}],"name":"MetadataSet","type":"event"},{"anonymous":false,"inputs":[{"indexed":false,"internalType":"uint256","name":"communityId","type":"uint256"},{"indexed":false,"internalType":"bool","name":"notifiableElections","type":"bool"}],"name":"NotifiableElectionsSet","type":"event"},{"anonymous":false,"inputs":[{"indexed":true,"internalType":"address","name":"previousOwner","type":"address"},{"indexed":true,"internalType":"address","name":"newOwner","type":"address"}],"name":"OwnershipTransferred","type":"event"},{"anonymous":false,"inputs":[{"indexed":false,"internalType":"uint256","name":"communityId","type":"uint256"},{"indexed":false,"internalType":"bytes32","name":"electionId","type":"bytes32"}],"name":"ResultsSet","type":"event"},{"inputs":[{"internalType":"uint256","name":"_communityId","type":"uint256"},{"internalType":"uint256","name":"_guardian","type":"uint256"}],"name":"AddGuardian","outputs":[],"stateMutability":"nonpayable","type":"function"},{"inputs":[{"internalType":"uint256","name":"_communityId","type":"uint256"},{"components":[{"internalType":"string","name":"name","type":"string"},{"internalType":"string","name":"imageURI","type":"string"},{"internalType":"string[]","name":"channels","type":"string[]"},{"internalType":"bool","name":"notifications","type":"bool"}],"internalType":"struct ICommunityHub.CommunityMetadata","name":"_metadata","type":"tuple"},{"components":[{"internalType":"enum ICommunityHub.CensusType","name":"censusType","type":"uint8"},{"components":[{"internalType":"string","name":"blockchain","type":"string"},{"internalType":"address","name":"contractAddress","type":"address"}],"internalType":"struct ICommunityHub.Token[]","name":"tokens","type":"tuple[]"}],"internalType":"struct ICommunityHub.Census","name":"_census","type":"tuple"},{"internalType":"uint256[]","name":"_guardians","type":"uint256[]"},{"internalType":"address","name":"_electionResultsContract","type":"address"},{"internalType":"enum ICommunityHub.CreateElectionPermission","name":"_createElectionPermission","type":"uint8"},{"internalType":"bool","name":"_disabled","type":"bool"}],"name":"AdminManageCommunity","outputs":[],"stateMutability":"nonpayable","type":"function"},{"inputs":[{"internalType":"uint256","name":"_price","type":"uint256"}],"name":"AdminSetCommunityPrice","outputs":[],"stateMutability":"nonpayable","type":"function"},{"inputs":[{"internalType":"address","name":"_electionResultsContract","type":"address"}],"name":"AdminSetDefaultElectionResultsContract","outputs":[],"stateMutability":"nonpayable","type":"function"},{"inputs":[{"components":[{"internalType":"string","name":"name","type":"string"},{"internalType":"string","name":"imageURI","type":"string"},{"internalType":"string[]","name":"channels","type":"string[]"},{"internalType":"bool","name":"notifications","type":"bool"}],"internalType":"struct ICommunityHub.CommunityMetadata","name":"_metadata","type":"tuple"},{"components":[{"internalType":"enum ICommunityHub.CensusType","name":"censusType","type":"uint8"},{"components":[{"internalType":"string","name":"blockchain","type":"string"},{"internalType":"address","name":"contractAddress","type":"address"}],"internalType":"struct ICommunityHub.Token[]","name":"tokens","type":"tuple[]"}],"internalType":"struct ICommunityHub.Census","name":"_census","type":"tuple"},{"internalType":"uint256[]","name":"_guardians","type":"uint256[]"},{"internalType":"address","name":"_electionResultsContract","type":"address"},{"internalType":"enum ICommunityHub.CreateElectionPermission","name":"_createElectionPermission","type":"uint8"}],"name":"CreateCommunity","outputs":[{"internalType":"uint256","name":"","type":"uint256"}],"stateMutability":"payable","type":"function"},{"inputs":[{"internalType":"uint256","name":"_communityId","type":"uint256"},{"internalType":"uint256","name":"_guardian","type":"uint256"}],"name":"RemoveGuardian","outputs":[],"stateMutability":"nonpayable","type":"function"},{"inputs":[{"internalType":"uint256","name":"_communityId","type":"uint256"},{"components":[{"internalType":"enum ICommunityHub.CensusType","name":"censusType","type":"uint8"},{"components":[{"internalType":"string","name":"blockchain","type":"string"},{"internalType":"address","name":"contractAddress","type":"address"}],"internalType":"struct ICommunityHub.Token[]","name":"tokens","type":"tuple[]"}],"internalType":"struct ICommunityHub.Census","name":"_census","type":"tuple"}],"name":"SetCensus","outputs":[],"stateMutability":"nonpayable","type":"function"},{"inputs":[{"internalType":"uint256","name":"_communityId","type":"uint256"},{"internalType":"enum ICommunityHub.CreateElectionPermission","name":"_createElectionPermission","type":"uint8"}],"name":"SetCreateElectionPermission","outputs":[],"stateMutability":"nonpayable","type":"function"},{"inputs":[{"internalType":"uint256","name":"_communityId","type":"uint256"},{"internalType":"address","name":"_electionResultsContract","type":"address"}],"name":"SetElectionResultsContract","outputs":[],"stateMutability":"nonpayable","type":"function"},{"inputs":[{"internalType":"uint256","name":"_communityId","type":"uint256"},{"components":[{"internalType":"string","name":"name","type":"string"},{"internalType":"string","name":"imageURI","type":"string"},{"internalType":"string[]","name":"channels","type":"string[]"},{"internalType":"bool","name":"notifications","type":"bool"}],"internalType":"struct ICommunityHub.CommunityMetadata","name":"_metadata","type":"tuple"}],"name":"SetMetadata","outputs":[],"stateMutability":"nonpayable","type":"function"},{"inputs":[{"internalType":"uint256","name":"_communityId","type":"uint256"},{"internalType":"bool","name":"_notifiableElections","type":"bool"}],"name":"SetNotifiableElections","outputs":[],"stateMutability":"nonpayable","type":"function"},{"inputs":[{"internalType":"uint256","name":"_communityId","type":"uint256"},{"internalType":"bytes32","name":"_electionId","type":"bytes32"}],"name":"getResult","outputs":[{"components":[{"internalType":"string","name":"question","type":"string"},{"internalType":"string[]","name":"options","type":"string[]"},{"internalType":"string","name":"date","type":"string"},{"internalType":"uint256[][]","name":"tally","type":"uint256[][]"},{"internalType":"uint256","name":"turnout","type":"uint256"},{"internalType":"uint256","name":"totalVotingPower","type":"uint256"},{"internalType":"uint256[]","name":"participants","type":"uint256[]"},{"internalType":"bytes32","name":"censusRoot","type":"bytes32"},{"internalType":"string","name":"censusURI","type":"string"}],"internalType":"struct IElectionResults.Result","name":"","type":"tuple"}],"stateMutability":"view","type":"function"},{"inputs":[],"name":"owner","outputs":[{"internalType":"address","name":"","type":"address"}],"stateMutability":"view","type":"function"},{"inputs":[],"name":"renounceOwnership","outputs":[],"stateMutability":"nonpayable","type":"function"},{"inputs":[{"internalType":"uint256","name":"_communityId","type":"uint256"},{"internalType":"bytes32","name":"_electionId","type":"bytes32"},{"components":[{"internalType":"string","name":"question","type":"string"},{"internalType":"string[]","name":"options","type":"string[]"},{"internalType":"string","name":"date","type":"string"},{"internalType":"uint256[][]","name":"tally","type":"uint256[][]"},{"internalType":"uint256","name":"turnout","type":"uint256"},{"internalType":"uint256","name":"totalVotingPower","type":"uint256"},{"internalType":"uint256[]","name":"participants","type":"uint256[]"},{"internalType":"bytes32","name":"censusRoot","type":"bytes32"},{"internalType":"string","name":"censusURI","type":"string"}],"internalType":"struct IElectionResults.Result","name":"_result","type":"tuple"}],"name":"setResult","outputs":[],"stateMutability":"nonpayable","type":"function"},{"inputs":[{"internalType":"address","name":"newOwner","type":"address"}],"name":"transferOwnership","outputs":[],"stateMutability":"nonpayable","type":"function"},{"stateMutability":"payable","type":"receive"}],"evm":{"bytecode":{"linkReferences":{},"object":"60806040523480156200001157600080fd5b5033600073ffffffffffffffffffffffffffffffffffffffff168173ffffffffffffffffffffffffffffffffffffffff1603620000885760006040517f1e4fbdf70000000000000000000000000000000000000000000000000000000081526004016200007f9190620001a9565b60405180910390fd5b6200009981620000a060201b60201c565b50620001c6565b60008060009054906101000a900473ffffffffffffffffffffffffffffffffffffffff169050816000806101000a81548173ffffffffffffffffffffffffffffffffffffffff021916908373ffffffffffffffffffffffffffffffffffffffff1602179055508173ffffffffffffffffffffffffffffffffffffffff168173ffffffffffffffffffffffffffffffffffffffff167f8be0079c531659141344cd1fd0a4f28419497f9722a3daafe3b4186f6b6457e060405160405180910390a35050565b600073ffffffffffffffffffffffffffffffffffffffff82169050919050565b6000620001918262000164565b9050919050565b620001a38162000184565b82525050565b6000602082019050620001c0600083018462000198565b92915050565b6138fe80620001d66000396000f3fe6080604052600436106100f75760003560e01c8063715018a61161008a578063cd22ba8411610059578063cd22ba841461032c578063d66917d91461035c578063e1e009ba14610385578063f2fde38b146103ae57610137565b8063715018a6146102985780638da5cb5b146102af578063c06fa4e9146102da578063cb5eefd81461030357610137565b80633c973f75116100c65780633c973f75146101f4578063428d87c51461021d57806367272a52146102465780636ebf3c4c1461026f57610137565b806313e862651461013c578063264c408e146101795780632893c86f146101a25780632ebf88f8146101cb57610137565b36610137577fe1fffcc4923d04b559f4d29a8bfc6cda04eb5b0d3c460751c2402c5c5cc9109c333460405161012d9291906110c9565b60405180910390a1005b600080fd5b34801561014857600080fd5b50610163600480360381019061015e9190611168565b6103d7565b6040516101709190611571565b60405180910390f35b34801561018557600080fd5b506101a0600480360381019061019b9190611593565b6104a4565b005b3480156101ae57600080fd5b506101c960048036038101906101c491906115ff565b6105f6565b005b3480156101d757600080fd5b506101f260048036038101906101ed9190611650565b610679565b005b34801561020057600080fd5b5061021b600480360381019061021691906116cc565b6106dc565b005b34801561022957600080fd5b50610244600480360381019061023f919061173b565b610794565b005b34801561025257600080fd5b5061026d6004803603810190610268919061178d565b6107dd565b005b34801561027b57600080fd5b5061029660048036038101906102919190611805565b610858565b005b3480156102a457600080fd5b506102ad6108c6565b005b3480156102bb57600080fd5b506102c46108da565b6040516102d19190611845565b60405180910390f35b3480156102e657600080fd5b5061030160048036038101906102fc91906118e4565b610903565b005b34801561030f57600080fd5b5061032a600480360381019061032591906119de565b610a85565b005b61034660048036038101906103419190611a3a565b610ae8565b6040516103539190611b0c565b60405180910390f35b34801561036857600080fd5b50610383600480360381019061037e9190611b27565b610cfd565b005b34801561039157600080fd5b506103ac60048036038101906103a79190611593565b610d8f565b005b3480156103ba57600080fd5b506103d560048036038101906103d091906115ff565b610e09565b005b6103df610fe2565b60006001600085815260200190815260200160002060070160009054906101000a900473ffffffffffffffffffffffffffffffffffffffff1690508073ffffffffffffffffffffffffffffffffffffffff166313e8626585856040518363ffffffff1660e01b8152600401610455929190611b76565b600060405180830381865afa158015610472573d6000803e3d6000fd5b505050506040513d6000823e3d601f19601f8201168201806040525081019061049b9190612101565b91505092915050565b600060016000848152602001908152602001600020600601905060005b81805490508110156105b457828282815481106104e1576104e061214a565b5b9060005260206000200154036105a757816001838054905061050391906121a8565b815481106105145761051361214a565b5b90600052602060002001548282815481106105325761053161214a565b5b906000526020600020018190555081805480610551576105506121dc565b5b600190038181906000526020600020016000905590557f2264fa092e5819982f4edca5b7e9c6318a16dc3e03673510429c078656dea45c848460405161059892919061220b565b60405180910390a150506105f2565b80806001019150506104c1565b50816040517f84ce930a0000000000000000000000000000000000000000000000000000000081526004016105e99190611b0c565b60405180910390fd5b5050565b6105fe610e8f565b80600460006101000a81548173ffffffffffffffffffffffffffffffffffffffff021916908373ffffffffffffffffffffffffffffffffffffffff1602179055507f2f165c01002d221752e275a87b6ed91df7c1b198b0bbe0e93dd28c7c834a08cc8160405161066e9190611845565b60405180910390a150565b8060016000848152602001908152602001600020600001818161069c9190612ae1565b9050507f94aac65d269f9059e59ac9aff9cffe22dc1907d1f2ac8f6a9dde667d8a0eb04482826040516106d0929190612d56565b60405180910390a15050565b6106e4610e8f565b60006001600085815260200190815260200160002060070160009054906101000a900473ffffffffffffffffffffffffffffffffffffffff1690508073ffffffffffffffffffffffffffffffffffffffff16633c973f758585856040518463ffffffff1660e01b815260040161075c939291906130c3565b600060405180830381600087803b15801561077657600080fd5b505af115801561078a573d6000803e3d6000fd5b5050505050505050565b61079c610e8f565b806002819055507fac9c054628ba106d4664c2c08386354e161eab546a0a47faf040bfc1062845e7816040516107d29190611b0c565b60405180910390a150565b806001600084815260200190815260200160002060070160146101000a81548160ff0219169083600181111561081657610815613101565b5b02179055507feaeee81ca4b132c1f2699cf2e7f71c26adb6ffe780097ac7d6e9ddf978398b62828260405161084c929190613178565b60405180910390a15050565b806001600084815260200190815260200160002060000160030160006101000a81548160ff0219169083151502179055507fed2f2c7a2316ddc2f46a4581250611f807810052bb38bef2fbd1a81d087e064b82826040516108ba9291906131b0565b60405180910390a15050565b6108ce610e8f565b6108d86000610f16565b565b60008060009054906101000a900473ffffffffffffffffffffffffffffffffffffffff16905090565b61090b610e8f565b6000600160008a81526020019081526020016000209050878160000181816109339190612ae1565b9050508681600401818161094791906135d7565b905050838160070160006101000a81548173ffffffffffffffffffffffffffffffffffffffff021916908373ffffffffffffffffffffffffffffffffffffffff160217905550828160070160146101000a81548160ff021916908360018111156109b4576109b3613101565b5b0217905550818160070160156101000a81548160ff0219169083151502179055508060060160006109e59190611031565b60005b86869050811015610a425781600601878783818110610a0a57610a0961214a565b5b9050602002013590806001815401808255809150506001900390600052602060002001600090919091909150558060010190506109e8565b507f887cc86755221db77fb9a404d4834a6ca76a28df7c71c7650318819ad0f46a3c89604051610a729190611b0c565b60405180910390a1505050505050505050565b80600160008481526020019081526020016000206004018181610aa891906135d7565b9050507fe9792eee54764d34581473a0e844e57f5e07fa14e6d375c1f542b383ce48f0b78282604051610adc929190613827565b60405180910390a15050565b60006002543414610b3457600254346040517fce6b173b000000000000000000000000000000000000000000000000000000008152600401610b2b92919061220b565b60405180910390fd5b7fe1fffcc4923d04b559f4d29a8bfc6cda04eb5b0d3c460751c2402c5c5cc9109c3334604051610b659291906110c9565b60405180910390a160006003549050600060016000838152602001908152602001600020905088816000018181610b9c9190612ae1565b90505087816004018181610bb091906135d7565b905050848160070160006101000a81548173ffffffffffffffffffffffffffffffffffffffff021916908373ffffffffffffffffffffffffffffffffffffffff160217905550838160070160146101000a81548160ff02191690836001811115610c1d57610c1c613101565b5b021790555060008160070160156101000a81548160ff02191690831515021790555060005b87879050811015610c9c5781600601888883818110610c6457610c6361214a565b5b905060200201359080600181540180825580915050600190039060005260206000200160009091909190915055806001019050610c42565b5060036000815480929190610cb090613857565b91905055507f42c24a3323433819443a75d0e2651a9c84f696fba638d730042960045ef272418233604051610ce692919061389f565b60405180910390a181925050509695505050505050565b806001600084815260200190815260200160002060070160006101000a81548173ffffffffffffffffffffffffffffffffffffffff021916908373ffffffffffffffffffffffffffffffffffffffff1602179055507facd3bfb47d15f9f1d5db04bf52aece3b8c4fd63e70c97b91293415d2f2341f388282604051610d8392919061389f565b60405180910390a15050565b600160008381526020019081526020016000206006018190806001815401808255809150506001900390600052602060002001600090919091909150557ffcdfd5aeb97f499ca134ed43f010f2a4f5b0ab73d317ac27246a066a050a73af8282604051610dfd92919061220b565b60405180910390a15050565b610e11610e8f565b600073ffffffffffffffffffffffffffffffffffffffff168173ffffffffffffffffffffffffffffffffffffffff1603610e835760006040517f1e4fbdf7000000000000000000000000000000000000000000000000000000008152600401610e7a9190611845565b60405180910390fd5b610e8c81610f16565b50565b610e97610fda565b73ffffffffffffffffffffffffffffffffffffffff16610eb56108da565b73ffffffffffffffffffffffffffffffffffffffff1614610f1457610ed8610fda565b6040517f118cdaa7000000000000000000000000000000000000000000000000000000008152600401610f0b9190611845565b60405180910390fd5b565b60008060009054906101000a900473ffffffffffffffffffffffffffffffffffffffff169050816000806101000a81548173ffffffffffffffffffffffffffffffffffffffff021916908373ffffffffffffffffffffffffffffffffffffffff1602179055508173ffffffffffffffffffffffffffffffffffffffff168173ffffffffffffffffffffffffffffffffffffffff167f8be0079c531659141344cd1fd0a4f28419497f9722a3daafe3b4186f6b6457e060405160405180910390a35050565b600033905090565b6040518061012001604052806060815260200160608152602001606081526020016060815260200160008152602001600081526020016060815260200160008019168152602001606081525090565b508054600082559060005260206000209081019061104f9190611052565b50565b5b8082111561106b576000816000905550600101611053565b5090565b600073ffffffffffffffffffffffffffffffffffffffff82169050919050565b600061109a8261106f565b9050919050565b6110aa8161108f565b82525050565b6000819050919050565b6110c3816110b0565b82525050565b60006040820190506110de60008301856110a1565b6110eb60208301846110ba565b9392505050565b6000604051905090565b600080fd5b600080fd5b61110f816110b0565b811461111a57600080fd5b50565b60008135905061112c81611106565b92915050565b6000819050919050565b61114581611132565b811461115057600080fd5b50565b6000813590506111628161113c565b92915050565b6000806040838503121561117f5761117e6110fc565b5b600061118d8582860161111d565b925050602061119e85828601611153565b9150509250929050565b600081519050919050565b600082825260208201905092915050565b60005b838110156111e25780820151818401526020810190506111c7565b60008484015250505050565b6000601f19601f8301169050919050565b600061120a826111a8565b61121481856111b3565b93506112248185602086016111c4565b61122d816111ee565b840191505092915050565b600081519050919050565b600082825260208201905092915050565b6000819050602082019050919050565b600061127083836111ff565b905092915050565b6000602082019050919050565b600061129082611238565b61129a8185611243565b9350836020820285016112ac85611254565b8060005b858110156112e857848403895281516112c98582611264565b94506112d483611278565b925060208a019950506001810190506112b0565b50829750879550505050505092915050565b600081519050919050565b600082825260208201905092915050565b6000819050602082019050919050565b600081519050919050565b600082825260208201905092915050565b6000819050602082019050919050565b61135b816110b0565b82525050565b600061136d8383611352565b60208301905092915050565b6000602082019050919050565b600061139182611326565b61139b8185611331565b93506113a683611342565b8060005b838110156113d75781516113be8882611361565b97506113c983611379565b9250506001810190506113aa565b5085935050505092915050565b60006113f08383611386565b905092915050565b6000602082019050919050565b6000611410826112fa565b61141a8185611305565b93508360208202850161142c85611316565b8060005b85811015611468578484038952815161144985826113e4565b9450611454836113f8565b925060208a01995050600181019050611430565b50829750879550505050505092915050565b61148381611132565b82525050565b60006101208301600083015184820360008601526114a782826111ff565b915050602083015184820360208601526114c18282611285565b915050604083015184820360408601526114db82826111ff565b915050606083015184820360608601526114f58282611405565b915050608083015161150a6080860182611352565b5060a083015161151d60a0860182611352565b5060c083015184820360c08601526115358282611386565b91505060e083015161154a60e086018261147a565b5061010083015184820361010086015261156482826111ff565b9150508091505092915050565b6000602082019050818103600083015261158b8184611489565b905092915050565b600080604083850312156115aa576115a96110fc565b5b60006115b88582860161111d565b92505060206115c98582860161111d565b9150509250929050565b6115dc8161108f565b81146115e757600080fd5b50565b6000813590506115f9816115d3565b92915050565b600060208284031215611615576116146110fc565b5b6000611623848285016115ea565b91505092915050565b600080fd5b6000608082840312156116475761164661162c565b5b81905092915050565b60008060408385031215611667576116666110fc565b5b60006116758582860161111d565b925050602083013567ffffffffffffffff81111561169657611695611101565b5b6116a285828601611631565b9150509250929050565b600061012082840312156116c3576116c261162c565b5b81905092915050565b6000806000606084860312156116e5576116e46110fc565b5b60006116f38682870161111d565b935050602061170486828701611153565b925050604084013567ffffffffffffffff81111561172557611724611101565b5b611731868287016116ac565b9150509250925092565b600060208284031215611751576117506110fc565b5b600061175f8482850161111d565b91505092915050565b6002811061177557600080fd5b50565b60008135905061178781611768565b92915050565b600080604083850312156117a4576117a36110fc565b5b60006117b28582860161111d565b92505060206117c385828601611778565b9150509250929050565b60008115159050919050565b6117e2816117cd565b81146117ed57600080fd5b50565b6000813590506117ff816117d9565b92915050565b6000806040838503121561181c5761181b6110fc565b5b600061182a8582860161111d565b925050602061183b858286016117f0565b9150509250929050565b600060208201905061185a60008301846110a1565b92915050565b6000604082840312156118765761187561162c565b5b81905092915050565b600080fd5b600080fd5b600080fd5b60008083601f8401126118a4576118a361187f565b5b8235905067ffffffffffffffff8111156118c1576118c0611884565b5b6020830191508360208202830111156118dd576118dc611889565b5b9250929050565b60008060008060008060008060e0898b031215611904576119036110fc565b5b60006119128b828c0161111d565b985050602089013567ffffffffffffffff81111561193357611932611101565b5b61193f8b828c01611631565b975050604089013567ffffffffffffffff8111156119605761195f611101565b5b61196c8b828c01611860565b965050606089013567ffffffffffffffff81111561198d5761198c611101565b5b6119998b828c0161188e565b955095505060806119ac8b828c016115ea565b93505060a06119bd8b828c01611778565b92505060c06119ce8b828c016117f0565b9150509295985092959890939650565b600080604083850312156119f5576119f46110fc565b5b6000611a038582860161111d565b925050602083013567ffffffffffffffff811115611a2457611a23611101565b5b611a3085828601611860565b9150509250929050565b60008060008060008060a08789031215611a5757611a566110fc565b5b600087013567ffffffffffffffff811115611a7557611a74611101565b5b611a8189828a01611631565b965050602087013567ffffffffffffffff811115611aa257611aa1611101565b5b611aae89828a01611860565b955050604087013567ffffffffffffffff811115611acf57611ace611101565b5b611adb89828a0161188e565b94509450506060611aee89828a016115ea565b9250506080611aff89828a01611778565b9150509295509295509295565b6000602082019050611b2160008301846110ba565b92915050565b60008060408385031215611b3e57611b3d6110fc565b5b6000611b4c8582860161111d565b9250506020611b5d858286016115ea565b9150509250929050565b611b7081611132565b82525050565b6000604082019050611b8b60008301856110ba565b611b986020830184611b67565b9392505050565b600080fd5b7f4e487b7100000000000000000000000000000000000000000000000000000000600052604160045260246000fd5b611bdc826111ee565b810181811067ffffffffffffffff82111715611bfb57611bfa611ba4565b5b80604052505050565b6000611c0e6110f2565b9050611c1a8282611bd3565b919050565b600080fd5b600080fd5b600067ffffffffffffffff821115611c4457611c43611ba4565b5b611c4d826111ee565b9050602081019050919050565b6000611c6d611c6884611c29565b611c04565b905082815260208101848484011115611c8957611c88611c24565b5b611c948482856111c4565b509392505050565b600082601f830112611cb157611cb061187f565b5b8151611cc1848260208601611c5a565b91505092915050565b600067ffffffffffffffff821115611ce557611ce4611ba4565b5b602082029050602081019050919050565b6000611d09611d0484611cca565b611c04565b90508083825260208201905060208402830185811115611d2c57611d2b611889565b5b835b81811015611d7357805167ffffffffffffffff811115611d5157611d5061187f565b5b808601611d5e8982611c9c565b85526020850194505050602081019050611d2e565b5050509392505050565b600082601f830112611d9257611d9161187f565b5b8151611da2848260208601611cf6565b91505092915050565b600067ffffffffffffffff821115611dc657611dc5611ba4565b5b602082029050602081019050919050565b600067ffffffffffffffff821115611df257611df1611ba4565b5b602082029050602081019050919050565b600081519050611e1281611106565b92915050565b6000611e2b611e2684611dd7565b611c04565b90508083825260208201905060208402830185811115611e4e57611e4d611889565b5b835b81811015611e775780611e638882611e03565b845260208401935050602081019050611e50565b5050509392505050565b600082601f830112611e9657611e9561187f565b5b8151611ea6848260208601611e18565b91505092915050565b6000611ec2611ebd84611dab565b611c04565b90508083825260208201905060208402830185811115611ee557611ee4611889565b5b835b81811015611f2c57805167ffffffffffffffff811115611f0a57611f0961187f565b5b808601611f178982611e81565b85526020850194505050602081019050611ee7565b5050509392505050565b600082601f830112611f4b57611f4a61187f565b5b8151611f5b848260208601611eaf565b91505092915050565b600081519050611f738161113c565b92915050565b60006101208284031215611f9057611f8f611b9f565b5b611f9b610120611c04565b9050600082015167ffffffffffffffff811115611fbb57611fba611c1f565b5b611fc784828501611c9c565b600083015250602082015167ffffffffffffffff811115611feb57611fea611c1f565b5b611ff784828501611d7d565b602083015250604082015167ffffffffffffffff81111561201b5761201a611c1f565b5b61202784828501611c9c565b604083015250606082015167ffffffffffffffff81111561204b5761204a611c1f565b5b61205784828501611f36565b606083015250608061206b84828501611e03565b60808301525060a061207f84828501611e03565b60a08301525060c082015167ffffffffffffffff8111156120a3576120a2611c1f565b5b6120af84828501611e81565b60c08301525060e06120c384828501611f64565b60e08301525061010082015167ffffffffffffffff8111156120e8576120e7611c1f565b5b6120f484828501611c9c565b6101008301525092915050565b600060208284031215612117576121166110fc565b5b600082015167ffffffffffffffff81111561213557612134611101565b5b61214184828501611f79565b91505092915050565b7f4e487b7100000000000000000000000000000000000000000000000000000000600052603260045260246000fd5b7f4e487b7100000000000000000000000000000000000000000000000000000000600052601160045260246000fd5b60006121b3826110b0565b91506121be836110b0565b92508282039050818111156121d6576121d5612179565b5b92915050565b7f4e487b7100000000000000000000000000000000000000000000000000000000600052603160045260246000fd5b600060408201905061222060008301856110ba565b61222d60208301846110ba565b9392505050565b7f4e487b7100000000000000000000000000000000000000000000000000000000600052600060045260246000fd5b600080fd5b600080fd5b600080fd5b6000808335600160200384360303811261228f5761228e612263565b5b80840192508235915067ffffffffffffffff8211156122b1576122b0612268565b5b6020830192506001820236038313156122cd576122cc61226d565b5b509250929050565b600082905092915050565b7f4e487b7100000000000000000000000000000000000000000000000000000000600052602260045260246000fd5b6000600282049050600182168061232757607f821691505b60208210810361233a576123396122e0565b5b50919050565b60008190508160005260206000209050919050565b60006020601f8301049050919050565b600082821b905092915050565b6000600883026123a27fffffffffffffffffffffffffffffffffffffffffffffffffffffffffffffffff82612365565b6123ac8683612365565b95508019841693508086168417925050509392505050565b6000819050919050565b60006123e96123e46123df846110b0565b6123c4565b6110b0565b9050919050565b6000819050919050565b612403836123ce565b61241761240f826123f0565b848454612372565b825550505050565b600090565b61242c61241f565b6124378184846123fa565b505050565b5b8181101561245b57612450600082612424565b60018101905061243d565b5050565b601f8211156124a05761247181612340565b61247a84612355565b81016020851015612489578190505b61249d61249585612355565b83018261243c565b50505b505050565b600082821c905092915050565b60006124c3600019846008026124a5565b1980831691505092915050565b60006124dc83836124b2565b9150826002028217905092915050565b6124f683836122d5565b67ffffffffffffffff81111561250f5761250e611ba4565b5b612519825461230f565b61252482828561245f565b6000601f8311600181146125535760008415612541578287013590505b61254b85826124d0565b8655506125b3565b601f19841661256186612340565b60005b8281101561258957848901358255600182019150602085019450602081019050612564565b868310156125a657848901356125a2601f8916826124b2565b8355505b6001600288020188555050505b50505050505050565b6125c78383836124ec565b505050565b600080833560016020038436030381126125e9576125e8612263565b5b80840192508235915067ffffffffffffffff82111561260b5761260a612268565b5b6020830192506020820236038313156126275761262661226d565b5b509250929050565b6000819050919050565b600081549050919050565b600061264f826110b0565b915061265a836110b0565b9250828202612668816110b0565b9150828204841483151761267f5761267e612179565b5b5092915050565b60008190506001806001038301049050919050565b60008190508160005260206000209050919050565b6126e07fffffffffffffffffffffffffffffffffffffffffffffffffffffffffffffffff836020036008026124a5565b815481168255505050565b6126f481612340565b6126ff8382546124d0565b8083556000825550505050565b602084106000811461276757601f8411600181146127355761272e86856124d0565b8355612761565b61273e83612340565b61275561274a87612355565b82016001830161243c565b61275f87856126eb565b505b506127b4565b61277082612340565b61277986612355565b8101601f871680156127935761279281600184036126b0565b5b6127a761279f88612355565b84018361243c565b6001886002021785555050505b5050505050565b680100000000000000008411156127d5576127d4611ba4565b5b60208310600081146128205760208510600081146127fe576127f786856124d0565b835561281a565b8360ff191693508361280f84612340565b556001866002020183555b5061282a565b6001856002020182555b5050505050565b805461283c8161230f565b8084111561285157612850848284866127bb565b5b80841015612866576128658482848661270c565b5b50505050565b8181101561288a5761287f600082612424565b60018101905061286c565b5050565b612899600082612831565b50565b600082146128ad576128ac612234565b5b6128b68161288e565b5050565b5b818110156128d9576128ce60008261289c565b6001810190506128bb565b5050565b81831015612916576128ee82612686565b6128f784612686565b6129008361269b565b81810183820161291081836128ba565b50505050505b505050565b6801000000000000000082111561293557612934611ba4565b5b61293e81612639565b82825561294c8382846128dd565b505050565b600082905092915050565b6129668383612951565b612970818361291b565b6129798361262f565b6129828361269b565b60005b838110156129bb576129978387612272565b6129a28183866125bc565b6020850194506001840193505050600181019050612985565b50505050505050565b6129cf83838361295c565b505050565b600081356129e1816117d9565b80915050919050565b60008160001b9050919050565b600060ff612a04846129ea565b9350801983169250808416831791505092915050565b6000612a25826117cd565b9050919050565b6000819050919050565b612a3f82612a1a565b612a52612a4b82612a2c565b83546129f7565b8255505050565b6000810160008301612a6b8185612272565b612a768183866125bc565b505050506001810160208301612a8c8185612272565b612a978183866125bc565b505050506002810160408301612aad81856125cc565b612ab88183866129c4565b50505050600381016060830180612ace816129d4565b9050612ada8184612a36565b5050505050565b612aeb8282612a59565b5050565b600080fd5b600080fd5b600080fd5b60008083356001602003843603038112612b1b57612b1a612af9565b5b83810192508235915060208301925067ffffffffffffffff821115612b4357612b42612aef565b5b600182023603831315612b5957612b58612af4565b5b509250929050565b82818337600083830152505050565b6000612b7c83856111b3565b9350612b89838584612b61565b612b92836111ee565b840190509392505050565b60008083356001602003843603038112612bba57612bb9612af9565b5b83810192508235915060208301925067ffffffffffffffff821115612be257612be1612aef565b5b602082023603831315612bf857612bf7612af4565b5b509250929050565b6000612c0d848484612b70565b90509392505050565b6000602082019050919050565b6000612c2f8385611243565b935083602084028501612c418461262f565b8060005b87811015612c87578484038952612c5c8284612afe565b612c67868284612c00565b9550612c7284612c16565b935060208b019a505050600181019050612c45565b50829750879450505050509392505050565b6000612ca860208401846117f0565b905092915050565b612cb9816117cd565b82525050565b600060808301612cd26000840184612afe565b8583036000870152612ce5838284612b70565b92505050612cf66020840184612afe565b8583036020870152612d09838284612b70565b92505050612d1a6040840184612b9d565b8583036040870152612d2d838284612c23565b92505050612d3e6060840184612c99565b612d4b6060860182612cb0565b508091505092915050565b6000604082019050612d6b60008301856110ba565b8181036020830152612d7d8184612cbf565b90509392505050565b60008083356001602003843603038112612da357612da2612af9565b5b83810192508235915060208301925067ffffffffffffffff821115612dcb57612dca612aef565b5b602082023603831315612de157612de0612af4565b5b509250929050565b6000819050919050565b600080fd5b82818337505050565b6000612e0d8385611331565b93507f07ffffffffffffffffffffffffffffffffffffffffffffffffffffffffffffff831115612e4057612e3f612df3565b5b602083029250612e51838584612df8565b82840190509392505050565b6000612e6a848484612e01565b90509392505050565b60008083356001602003843603038112612e9057612e8f612af9565b5b83810192508235915060208301925067ffffffffffffffff821115612eb857612eb7612aef565b5b602082023603831315612ece57612ecd612af4565b5b509250929050565b6000602082019050919050565b6000612eef8385611305565b935083602084028501612f0184612de9565b8060005b87811015612f47578484038952612f1c8284612e73565b612f27868284612e5d565b9550612f3284612ed6565b935060208b019a505050600181019050612f05565b50829750879450505050509392505050565b6000612f68602084018461111d565b905092915050565b6000612f7f6020840184611153565b905092915050565b60006101208301612f9b6000840184612afe565b8583036000870152612fae838284612b70565b92505050612fbf6020840184612b9d565b8583036020870152612fd2838284612c23565b92505050612fe36040840184612afe565b8583036040870152612ff6838284612b70565b925050506130076060840184612d86565b858303606087015261301a838284612ee3565b9250505061302b6080840184612f59565b6130386080860182611352565b5061304660a0840184612f59565b61305360a0860182611352565b5061306160c0840184612e73565b85830360c0870152613074838284612e01565b9250505061308560e0840184612f70565b61309260e086018261147a565b506130a1610100840184612afe565b8583036101008701526130b5838284612b70565b925050508091505092915050565b60006060820190506130d860008301866110ba565b6130e56020830185611b67565b81810360408301526130f78184612f87565b9050949350505050565b7f4e487b7100000000000000000000000000000000000000000000000000000000600052602160045260246000fd5b6002811061314157613140613101565b5b50565b600081905061315282613130565b919050565b600061316282613144565b9050919050565b61317281613157565b82525050565b600060408201905061318d60008301856110ba565b61319a6020830184613169565b9392505050565b6131aa816117cd565b82525050565b60006040820190506131c560008301856110ba565b6131d260208301846131a1565b9392505050565b600681106131e657600080fd5b50565b600681106131fa576131f9613101565b5b50565b600081905061320b826131e9565b919050565b6000813561321d816131d9565b80915050919050565b6000613231826131fd565b9050919050565b6000819050919050565b61324b82613226565b61325e61325782613238565b83546129f7565b8255505050565b6000808335600160200384360303811261328257613281612263565b5b80840192508235915067ffffffffffffffff8211156132a4576132a3612268565b5b6020830192506020820236038313156132c0576132bf61226d565b5b509250929050565b6000819050919050565b6000823560016040038336030381126132ee576132ed612263565b5b80830191505092915050565b600081549050919050565b6000819050613315826002612644565b9050919050565b60008190508160005260206000209050919050565b61333e600080830161289c565b6000600182015550565b6000821461335957613358612234565b5b61336281613331565b5050565b5b818110156133855761337a600082613348565b600281019050613367565b5050565b818310156133c25761339a82613305565b6133a384613305565b6133ac8361331c565b8181018382016133bc8183613366565b50505050505b505050565b680100000000000000008211156133e1576133e0611ba4565b5b6133ea816132fa565b8282556133f8838284613389565b505050565b600082905092915050565b60008135613415816115d3565b80915050919050565b600073ffffffffffffffffffffffffffffffffffffffff61343e846129ea565b9350801983169250808416831791505092915050565b600061346f61346a6134658461106f565b6123c4565b61106f565b9050919050565b600061348182613454565b9050919050565b600061349382613476565b9050919050565b6000819050919050565b6134ad82613488565b6134c06134b98261349a565b835461341e565b8255505050565b60008101600083016134d98185612272565b6134e48183866125bc565b505050506001810160208301806134fa81613408565b905061350681846134a4565b5050505050565b61351782826134c7565b5050565b61352583836133fd565b61352f81836133c7565b613538836132c8565b6135418361331c565b60005b838110156135785761355683876132d2565b613560818461350d565b60208401935060028301925050600181019050613544565b50505050505050565b61358c83838361351b565b505050565b6000810160008301806135a381613210565b90506135af8184613242565b50505060018101602083016135c48185613265565b6135cf818386613581565b505050505050565b6135e18282613591565b5050565b6000813590506135f4816131d9565b92915050565b600061360960208401846135e5565b905092915050565b600061361c826131fd565b9050919050565b61362c81613611565b82525050565b6000808335600160200384360303811261364f5761364e612af9565b5b83810192508235915060208301925067ffffffffffffffff82111561367757613676612aef565b5b60208202360383131561368d5761368c612af4565b5b509250929050565b600082825260208201905092915050565b60006136b560208401846115ea565b905092915050565b6136c68161108f565b82525050565b6000604083016136df6000840184612afe565b85830360008701526136f2838284612b70565b9250505061370360208401846136a6565b61371060208601826136bd565b508091505092915050565b600061372783836136cc565b905092915050565b60008235600160400383360303811261374b5761374a612af9565b5b82810191505092915050565b6000602082019050919050565b60006137708385613695565b935083602084028501613782846132c8565b8060005b878110156137c657848403895261379d828461372f565b6137a7858261371b565b94506137b283613757565b925060208a01995050600181019050613786565b50829750879450505050509392505050565b6000604083016137eb60008401846135fa565b6137f86000860182613623565b506138066020840184613632565b8583036020870152613819838284613764565b925050508091505092915050565b600060408201905061383c60008301856110ba565b818103602083015261384e81846137d8565b90509392505050565b6000613862826110b0565b91507fffffffffffffffffffffffffffffffffffffffffffffffffffffffffffffffff820361389457613893612179565b5b600182019050919050565b60006040820190506138b460008301856110ba565b6138c160208301846110a1565b939250505056fea26469706673582212200083fa3775951a791df94968cf370596f47d5b4a5f0e51552673405b97cd351d64736f6c63430008180033","opcodes":"PUSH1 0x80 PUSH1 0x40 MSTORE CALLVALUE DUP1 ISZERO PUSH3 0x11 JUMPI PUSH1 0x0 DUP1 REVERT JUMPDEST POP CALLER PUSH1 0x0 PUSH20 0xFFFFFFFFFFFFFFFFFFFFFFFFFFFFFFFFFFFFFFFF AND DUP2 PUSH20 0xFFFFFFFFFFFFFFFFFFFFFFFFFFFFFFFFFFFFFFFF AND SUB PUSH3 0x88 JUMPI PUSH1 0x0 PUSH1 0x40 MLOAD PUSH32 0x1E4FBDF700000000000000000000000000000000000000000000000000000000 DUP2 MSTORE PUSH1 0x4 ADD PUSH3 0x7F SWAP2 SWAP1 PUSH3 0x1A9 JUMP JUMPDEST PUSH1 0x40 MLOAD DUP1 SWAP2 SUB SWAP1 REVERT JUMPDEST PUSH3 0x99 DUP2 PUSH3 0xA0 PUSH1 0x20 SHL PUSH1 0x20 SHR JUMP JUMPDEST POP PUSH3 0x1C6 JUMP JUMPDEST PUSH1 0x0 DUP1 PUSH1 0x0 SWAP1 SLOAD SWAP1 PUSH2 0x100 EXP SWAP1 DIV PUSH20 0xFFFFFFFFFFFFFFFFFFFFFFFFFFFFFFFFFFFFFFFF AND SWAP1 POP DUP2 PUSH1 0x0 DUP1 PUSH2 0x100 EXP DUP2 SLOAD DUP2 PUSH20 0xFFFFFFFFFFFFFFFFFFFFFFFFFFFFFFFFFFFFFFFF MUL NOT AND SWAP1 DUP4 PUSH20 0xFFFFFFFFFFFFFFFFFFFFFFFFFFFFFFFFFFFFFFFF AND MUL OR SWAP1 SSTORE POP DUP2 PUSH20 0xFFFFFFFFFFFFFFFFFFFFFFFFFFFFFFFFFFFFFFFF AND DUP2 PUSH20 0xFFFFFFFFFFFFFFFFFFFFFFFFFFFFFFFFFFFFFFFF AND PUSH32 0x8BE0079C531659141344CD1FD0A4F28419497F9722A3DAAFE3B4186F6B6457E0 PUSH1 0x40 MLOAD PUSH1 0x40 MLOAD DUP1 SWAP2 SUB SWAP1 LOG3 POP POP JUMP JUMPDEST PUSH1 0x0 PUSH20 0xFFFFFFFFFFFFFFFFFFFFFFFFFFFFFFFFFFFFFFFF DUP3 AND SWAP1 POP SWAP2 SWAP1 POP JUMP JUMPDEST PUSH1 0x0 PUSH3 0x191 DUP3 PUSH3 0x164 JUMP JUMPDEST SWAP1 POP SWAP2 SWAP1 POP JUMP JUMPDEST PUSH3 0x1A3 DUP2 PUSH3 0x184 JUMP JUMPDEST DUP3 MSTORE POP POP JUMP JUMPDEST PUSH1 0x0 PUSH1 0x20 DUP3 ADD SWAP1 POP PUSH3 0x1C0 PUSH1 0x0 DUP4 ADD DUP5 PUSH3 0x198 JUMP JUMPDEST SWAP3 SWAP2 POP POP JUMP JUMPDEST PUSH2 0x38FE DUP1 PUSH3 0x1D6 PUSH1 0x0 CODECOPY PUSH1 0x0 RETURN INVALID PUSH1 0x80 PUSH1 0x40 MSTORE PUSH1 0x4 CALLDATASIZE LT PUSH2 0xF7 JUMPI PUSH1 0x0 CALLDATALOAD PUSH1 0xE0 SHR DUP1 PUSH4 0x715018A6 GT PUSH2 0x8A JUMPI DUP1 PUSH4 0xCD22BA84 GT PUSH2 0x59 JUMPI DUP1 PUSH4 0xCD22BA84 EQ PUSH2 0x32C JUMPI DUP1 PUSH4 0xD66917D9 EQ PUSH2 0x35C JUMPI DUP1 PUSH4 0xE1E009BA EQ PUSH2 0x385 JUMPI DUP1 PUSH4 0xF2FDE38B EQ PUSH2 0x3AE JUMPI PUSH2 0x137 JUMP JUMPDEST DUP1 PUSH4 0x715018A6 EQ PUSH2 0x298 JUMPI DUP1 PUSH4 0x8DA5CB5B EQ PUSH2 0x2AF JUMPI DUP1 PUSH4 0xC06FA4E9 EQ PUSH2 0x2DA JUMPI DUP1 PUSH4 0xCB5EEFD8 EQ PUSH2 0x303 JUMPI PUSH2 0x137 JUMP JUMPDEST DUP1 PUSH4 0x3C973F75 GT PUSH2 0xC6 JUMPI DUP1 PUSH4 0x3C973F75 EQ PUSH2 0x1F4 JUMPI DUP1 PUSH4 0x428D87C5 EQ PUSH2 0x21D JUMPI DUP1 PUSH4 0x67272A52 EQ PUSH2 0x246 JUMPI DUP1 PUSH4 0x6EBF3C4C EQ PUSH2 0x26F JUMPI PUSH2 0x137 JUMP JUMPDEST DUP1 PUSH4 0x13E86265 EQ PUSH2 0x13C JUMPI DUP1 PUSH4 0x264C408E EQ PUSH2 0x179 JUMPI DUP1 PUSH4 0x2893C86F EQ PUSH2 0x1A2 JUMPI DUP1 PUSH4 0x2EBF88F8 EQ PUSH2 0x1CB JUMPI PUSH2 0x137 JUMP JUMPDEST CALLDATASIZE PUSH2 0x137 JUMPI PUSH32 0xE1FFFCC4923D04B559F4D29A8BFC6CDA04EB5B0D3C460751C2402C5C5CC9109C CALLER CALLVALUE PUSH1 0x40 MLOAD PUSH2 0x12D SWAP3 SWAP2 SWAP1 PUSH2 0x10C9 JUMP JUMPDEST PUSH1 0x40 MLOAD DUP1 SWAP2 SUB SWAP1 LOG1 STOP JUMPDEST PUSH1 0x0 DUP1 REVERT JUMPDEST CALLVALUE DUP1 ISZERO PUSH2 0x148 JUMPI PUSH1 0x0 DUP1 REVERT JUMPDEST POP PUSH2 0x163 PUSH1 0x4 DUP1 CALLDATASIZE SUB DUP2 ADD SWAP1 PUSH2 0x15E SWAP2 SWAP1 PUSH2 0x1168 JUMP JUMPDEST PUSH2 0x3D7 JUMP JUMPDEST PUSH1 0x40 MLOAD PUSH2 0x170 SWAP2 SWAP1 PUSH2 0x1571 JUMP JUMPDEST PUSH1 0x40 MLOAD DUP1 SWAP2 SUB SWAP1 RETURN JUMPDEST CALLVALUE DUP1 ISZERO PUSH2 0x185 JUMPI PUSH1 0x0 DUP1 REVERT JUMPDEST POP PUSH2 0x1A0 PUSH1 0x4 DUP1 CALLDATASIZE SUB DUP2 ADD SWAP1 PUSH2 0x19B SWAP2 SWAP1 PUSH2 0x1593 JUMP JUMPDEST PUSH2 0x4A4 JUMP JUMPDEST STOP JUMPDEST CALLVALUE DUP1 ISZERO PUSH2 0x1AE JUMPI PUSH1 0x0 DUP1 REVERT JUMPDEST POP PUSH2 0x1C9 PUSH1 0x4 DUP1 CALLDATASIZE SUB DUP2 ADD SWAP1 PUSH2 0x1C4 SWAP2 SWAP1 PUSH2 0x15FF JUMP JUMPDEST PUSH2 0x5F6 JUMP JUMPDEST STOP JUMPDEST CALLVALUE DUP1 ISZERO PUSH2 0x1D7 JUMPI PUSH1 0x0 DUP1 REVERT JUMPDEST POP PUSH2 0x1F2 PUSH1 0x4 DUP1 CALLDATASIZE SUB DUP2 ADD SWAP1 PUSH2 0x1ED SWAP2 SWAP1 PUSH2 0x1650 JUMP JUMPDEST PUSH2 0x679 JUMP JUMPDEST STOP JUMPDEST CALLVALUE DUP1 ISZERO PUSH2 0x200 JUMPI PUSH1 0x0 DUP1 REVERT JUMPDEST POP PUSH2 0x21B PUSH1 0x4 DUP1 CALLDATASIZE SUB DUP2 ADD SWAP1 PUSH2 0x216 SWAP2 SWAP1 PUSH2 0x16CC JUMP JUMPDEST PUSH2 0x6DC JUMP JUMPDEST STOP JUMPDEST CALLVALUE DUP1 ISZERO PUSH2 0x229 JUMPI PUSH1 0x0 DUP1 REVERT JUMPDEST POP PUSH2 0x244 PUSH1 0x4 DUP1 CALLDATASIZE SUB DUP2 ADD SWAP1 PUSH2 0x23F SWAP2 SWAP1 PUSH2 0x173B JUMP JUMPDEST PUSH2 0x794 JUMP JUMPDEST STOP JUMPDEST CALLVALUE DUP1 ISZERO PUSH2 0x252 JUMPI PUSH1 0x0 DUP1 REVERT JUMPDEST POP PUSH2 0x26D PUSH1 0x4 DUP1 CALLDATASIZE SUB DUP2 ADD SWAP1 PUSH2 0x268 SWAP2 SWAP1 PUSH2 0x178D JUMP JUMPDEST PUSH2 0x7DD JUMP JUMPDEST STOP JUMPDEST CALLVALUE DUP1 ISZERO PUSH2 0x27B JUMPI PUSH1 0x0 DUP1 REVERT JUMPDEST POP PUSH2 0x296 PUSH1 0x4 DUP1 CALLDATASIZE SUB DUP2 ADD SWAP1 PUSH2 0x291 SWAP2 SWAP1 PUSH2 0x1805 JUMP JUMPDEST PUSH2 0x858 JUMP JUMPDEST STOP JUMPDEST CALLVALUE DUP1 ISZERO PUSH2 0x2A4 JUMPI PUSH1 0x0 DUP1 REVERT JUMPDEST POP PUSH2 0x2AD PUSH2 0x8C6 JUMP JUMPDEST STOP JUMPDEST CALLVALUE DUP1 ISZERO PUSH2 0x2BB JUMPI PUSH1 0x0 DUP1 REVERT JUMPDEST POP PUSH2 0x2C4 PUSH2 0x8DA JUMP JUMPDEST PUSH1 0x40 MLOAD PUSH2 0x2D1 SWAP2 SWAP1 PUSH2 0x1845 JUMP JUMPDEST PUSH1 0x40 MLOAD DUP1 SWAP2 SUB SWAP1 RETURN JUMPDEST CALLVALUE DUP1 ISZERO PUSH2 0x2E6 JUMPI PUSH1 0x0 DUP1 REVERT JUMPDEST POP PUSH2 0x301 PUSH1 0x4 DUP1 CALLDATASIZE SUB DUP2 ADD SWAP1 PUSH2 0x2FC SWAP2 SWAP1 PUSH2 0x18E4 JUMP JUMPDEST PUSH2 0x903 JUMP JUMPDEST STOP JUMPDEST CALLVALUE DUP1 ISZERO PUSH2 0x30F JUMPI PUSH1 0x0 DUP1 REVERT JUMPDEST POP PUSH2 0x32A PUSH1 0x4 DUP1 CALLDATASIZE SUB DUP2 ADD SWAP1 PUSH2 0x325 SWAP2 SWAP1 PUSH2 0x19DE JUMP JUMPDEST PUSH2 0xA85 JUMP JUMPDEST STOP JUMPDEST PUSH2 0x346 PUSH1 0x4 DUP1 CALLDATASIZE SUB DUP2 ADD SWAP1 PUSH2 0x341 SWAP2 SWAP1 PUSH2 0x1A3A JUMP JUMPDEST PUSH2 0xAE8 JUMP JUMPDEST PUSH1 0x40 MLOAD PUSH2 0x353 SWAP2 SWAP1 PUSH2 0x1B0C JUMP JUMPDEST PUSH1 0x40 MLOAD DUP1 SWAP2 SUB SWAP1 RETURN JUMPDEST CALLVALUE DUP1 ISZERO PUSH2 0x368 JUMPI PUSH1 0x0 DUP1 REVERT JUMPDEST POP PUSH2 0x383 PUSH1 0x4 DUP1 CALLDATASIZE SUB DUP2 ADD SWAP1 PUSH2 0x37E SWAP2 SWAP1 PUSH2 0x1B27 JUMP JUMPDEST PUSH2 0xCFD JUMP JUMPDEST STOP JUMPDEST CALLVALUE DUP1 ISZERO PUSH2 0x391 JUMPI PUSH1 0x0 DUP1 REVERT JUMPDEST POP PUSH2 0x3AC PUSH1 0x4 DUP1 CALLDATASIZE SUB DUP2 ADD SWAP1 PUSH2 0x3A7 SWAP2 SWAP1 PUSH2 0x1593 JUMP JUMPDEST PUSH2 0xD8F JUMP JUMPDEST STOP JUMPDEST CALLVALUE DUP1 ISZERO PUSH2 0x3BA JUMPI PUSH1 0x0 DUP1 REVERT JUMPDEST POP PUSH2 0x3D5 PUSH1 0x4 DUP1 CALLDATASIZE SUB DUP2 ADD SWAP1 PUSH2 0x3D0 SWAP2 SWAP1 PUSH2 0x15FF JUMP JUMPDEST PUSH2 0xE09 JUMP JUMPDEST STOP JUMPDEST PUSH2 0x3DF PUSH2 0xFE2 JUMP JUMPDEST PUSH1 0x0 PUSH1 0x1 PUSH1 0x0 DUP6 DUP2 MSTORE PUSH1 0x20 ADD SWAP1 DUP2 MSTORE PUSH1 0x20 ADD PUSH1 0x0 KECCAK256 PUSH1 0x7 ADD PUSH1 0x0 SWAP1 SLOAD SWAP1 PUSH2 0x100 EXP SWAP1 DIV PUSH20 0xFFFFFFFFFFFFFFFFFFFFFFFFFFFFFFFFFFFFFFFF AND SWAP1 POP DUP1 PUSH20 0xFFFFFFFFFFFFFFFFFFFFFFFFFFFFFFFFFFFFFFFF AND PUSH4 0x13E86265 DUP6 DUP6 PUSH1 0x40 MLOAD DUP4 PUSH4 0xFFFFFFFF AND PUSH1 0xE0 SHL DUP2 MSTORE PUSH1 0x4 ADD PUSH2 0x455 SWAP3 SWAP2 SWAP1 PUSH2 0x1B76 JUMP JUMPDEST PUSH1 0x0 PUSH1 0x40 MLOAD DUP1 DUP4 SUB DUP2 DUP7 GAS STATICCALL ISZERO DUP1 ISZERO PUSH2 0x472 JUMPI RETURNDATASIZE PUSH1 0x0 DUP1 RETURNDATACOPY RETURNDATASIZE PUSH1 0x0 REVERT JUMPDEST POP POP POP POP PUSH1 0x40 MLOAD RETURNDATASIZE PUSH1 0x0 DUP3 RETURNDATACOPY RETURNDATASIZE PUSH1 0x1F NOT PUSH1 0x1F DUP3 ADD AND DUP3 ADD DUP1 PUSH1 0x40 MSTORE POP DUP2 ADD SWAP1 PUSH2 0x49B SWAP2 SWAP1 PUSH2 0x2101 JUMP JUMPDEST SWAP2 POP POP SWAP3 SWAP2 POP POP JUMP JUMPDEST PUSH1 0x0 PUSH1 0x1 PUSH1 0x0 DUP5 DUP2 MSTORE PUSH1 0x20 ADD SWAP1 DUP2 MSTORE PUSH1 0x20 ADD PUSH1 0x0 KECCAK256 PUSH1 0x6 ADD SWAP1 POP PUSH1 0x0 JUMPDEST DUP2 DUP1 SLOAD SWAP1 POP DUP2 LT ISZERO PUSH2 0x5B4 JUMPI DUP3 DUP3 DUP3 DUP2 SLOAD DUP2 LT PUSH2 0x4E1 JUMPI PUSH2 0x4E0 PUSH2 0x214A JUMP JUMPDEST JUMPDEST SWAP1 PUSH1 0x0 MSTORE PUSH1 0x20 PUSH1 0x0 KECCAK256 ADD SLOAD SUB PUSH2 0x5A7 JUMPI DUP2 PUSH1 0x1 DUP4 DUP1 SLOAD SWAP1 POP PUSH2 0x503 SWAP2 SWAP1 PUSH2 0x21A8 JUMP JUMPDEST DUP2 SLOAD DUP2 LT PUSH2 0x514 JUMPI PUSH2 0x513 PUSH2 0x214A JUMP JUMPDEST JUMPDEST SWAP1 PUSH1 0x0 MSTORE PUSH1 0x20 PUSH1 0x0 KECCAK256 ADD SLOAD DUP3 DUP3 DUP2 SLOAD DUP2 LT PUSH2 0x532 JUMPI PUSH2 0x531 PUSH2 0x214A JUMP JUMPDEST JUMPDEST SWAP1 PUSH1 0x0 MSTORE PUSH1 0x20 PUSH1 0x0 KECCAK256 ADD DUP2 SWAP1 SSTORE POP DUP2 DUP1 SLOAD DUP1 PUSH2 0x551 JUMPI PUSH2 0x550 PUSH2 0x21DC JUMP JUMPDEST JUMPDEST PUSH1 0x1 SWAP1 SUB DUP2 DUP2 SWAP1 PUSH1 0x0 MSTORE PUSH1 0x20 PUSH1 0x0 KECCAK256 ADD PUSH1 0x0 SWAP1 SSTORE SWAP1 SSTORE PUSH32 0x2264FA092E5819982F4EDCA5B7E9C6318A16DC3E03673510429C078656DEA45C DUP5 DUP5 PUSH1 0x40 MLOAD PUSH2 0x598 SWAP3 SWAP2 SWAP1 PUSH2 0x220B JUMP JUMPDEST PUSH1 0x40 MLOAD DUP1 SWAP2 SUB SWAP1 LOG1 POP POP PUSH2 0x5F2 JUMP JUMPDEST DUP1 DUP1 PUSH1 0x1 ADD SWAP2 POP POP PUSH2 0x4C1 JUMP JUMPDEST POP DUP2 PUSH1 0x40 MLOAD PUSH32 0x84CE930A00000000000000000000000000000000000000000000000000000000 DUP2 MSTORE PUSH1 0x4 ADD PUSH2 0x5E9 SWAP2 SWAP1 PUSH2 0x1B0C JUMP JUMPDEST PUSH1 0x40 MLOAD DUP1 SWAP2 SUB SWAP1 REVERT JUMPDEST POP POP JUMP JUMPDEST PUSH2 0x5FE PUSH2 0xE8F JUMP JUMPDEST DUP1 PUSH1 0x4 PUSH1 0x0 PUSH2 0x100 EXP DUP2 SLOAD DUP2 PUSH20 0xFFFFFFFFFFFFFFFFFFFFFFFFFFFFFFFFFFFFFFFF MUL NOT AND SWAP1 DUP4 PUSH20 0xFFFFFFFFFFFFFFFFFFFFFFFFFFFFFFFFFFFFFFFF AND MUL OR SWAP1 SSTORE POP PUSH32 0x2F165C01002D221752E275A87B6ED91DF7C1B198B0BBE0E93DD28C7C834A08CC DUP2 PUSH1 0x40 MLOAD PUSH2 0x66E SWAP2 SWAP1 PUSH2 0x1845 JUMP JUMPDEST PUSH1 0x40 MLOAD DUP1 SWAP2 SUB SWAP1 LOG1 POP JUMP JUMPDEST DUP1 PUSH1 0x1 PUSH1 0x0 DUP5 DUP2 MSTORE PUSH1 0x20 ADD SWAP1 DUP2 MSTORE PUSH1 0x20 ADD PUSH1 0x0 KECCAK256 PUSH1 0x0 ADD DUP2 DUP2 PUSH2 0x69C SWAP2 SWAP1 PUSH2 0x2AE1 JUMP JUMPDEST SWAP1 POP POP PUSH32 0x94AAC65D269F9059E59AC9AFF9CFFE22DC1907D1F2AC8F6A9DDE667D8A0EB044 DUP3 DUP3 PUSH1 0x40 MLOAD PUSH2 0x6D0 SWAP3 SWAP2 SWAP1 PUSH2 0x2D56 JUMP JUMPDEST PUSH1 0x40 MLOAD DUP1 SWAP2 SUB SWAP1 LOG1 POP POP JUMP JUMPDEST PUSH2 0x6E4 PUSH2 0xE8F JUMP JUMPDEST PUSH1 0x0 PUSH1 0x1 PUSH1 0x0 DUP6 DUP2 MSTORE PUSH1 0x20 ADD SWAP1 DUP2 MSTORE PUSH1 0x20 ADD PUSH1 0x0 KECCAK256 PUSH1 0x7 ADD PUSH1 0x0 SWAP1 SLOAD SWAP1 PUSH2 0x100 EXP SWAP1 DIV PUSH20 0xFFFFFFFFFFFFFFFFFFFFFFFFFFFFFFFFFFFFFFFF AND SWAP1 POP DUP1 PUSH20 0xFFFFFFFFFFFFFFFFFFFFFFFFFFFFFFFFFFFFFFFF AND PUSH4 0x3C973F75 DUP6 DUP6 DUP6 PUSH1 0x40 MLOAD DUP5 PUSH4 0xFFFFFFFF AND PUSH1 0xE0 SHL DUP2 MSTORE PUSH1 0x4 ADD PUSH2 0x75C SWAP4 SWAP3 SWAP2 SWAP1 PUSH2 0x30C3 JUMP JUMPDEST PUSH1 0x0 PUSH1 0x40 MLOAD DUP1 DUP4 SUB DUP2 PUSH1 0x0 DUP8 DUP1 EXTCODESIZE ISZERO DUP1 ISZERO PUSH2 0x776 JUMPI PUSH1 0x0 DUP1 REVERT JUMPDEST POP GAS CALL ISZERO DUP1 ISZERO PUSH2 0x78A JUMPI RETURNDATASIZE PUSH1 0x0 DUP1 RETURNDATACOPY RETURNDATASIZE PUSH1 0x0 REVERT JUMPDEST POP POP POP POP POP POP POP POP JUMP JUMPDEST PUSH2 0x79C PUSH2 0xE8F JUMP JUMPDEST DUP1 PUSH1 0x2 DUP2 SWAP1 SSTORE POP PUSH32 0xAC9C054628BA106D4664C2C08386354E161EAB546A0A47FAF040BFC1062845E7 DUP2 PUSH1 0x40 MLOAD PUSH2 0x7D2 SWAP2 SWAP1 PUSH2 0x1B0C JUMP JUMPDEST PUSH1 0x40 MLOAD DUP1 SWAP2 SUB SWAP1 LOG1 POP JUMP JUMPDEST DUP1 PUSH1 0x1 PUSH1 0x0 DUP5 DUP2 MSTORE PUSH1 0x20 ADD SWAP1 DUP2 MSTORE PUSH1 0x20 ADD PUSH1 0x0 KECCAK256 PUSH1 0x7 ADD PUSH1 0x14 PUSH2 0x100 EXP DUP2 SLOAD DUP2 PUSH1 0xFF MUL NOT AND SWAP1 DUP4 PUSH1 0x1 DUP2 GT ISZERO PUSH2 0x816 JUMPI PUSH2 0x815 PUSH2 0x3101 JUMP JUMPDEST JUMPDEST MUL OR SWAP1 SSTORE POP PUSH32 0xEAEEE81CA4B132C1F2699CF2E7F71C26ADB6FFE780097AC7D6E9DDF978398B62 DUP3 DUP3 PUSH1 0x40 MLOAD PUSH2 0x84C SWAP3 SWAP2 SWAP1 PUSH2 0x3178 JUMP JUMPDEST PUSH1 0x40 MLOAD DUP1 SWAP2 SUB SWAP1 LOG1 POP POP JUMP JUMPDEST DUP1 PUSH1 0x1 PUSH1 0x0 DUP5 DUP2 MSTORE PUSH1 0x20 ADD SWAP1 DUP2 MSTORE PUSH1 0x20 ADD PUSH1 0x0 KECCAK256 PUSH1 0x0 ADD PUSH1 0x3 ADD PUSH1 0x0 PUSH2 0x100 EXP DUP2 SLOAD DUP2 PUSH1 0xFF MUL NOT AND SWAP1 DUP4 ISZERO ISZERO MUL OR SWAP1 SSTORE POP PUSH32 0xED2F2C7A2316DDC2F46A4581250611F807810052BB38BEF2FBD1A81D087E064B DUP3 DUP3 PUSH1 0x40 MLOAD PUSH2 0x8BA SWAP3 SWAP2 SWAP1 PUSH2 0x31B0 JUMP JUMPDEST PUSH1 0x40 MLOAD DUP1 SWAP2 SUB SWAP1 LOG1 POP POP JUMP JUMPDEST PUSH2 0x8CE PUSH2 0xE8F JUMP JUMPDEST PUSH2 0x8D8 PUSH1 0x0 PUSH2 0xF16 JUMP JUMPDEST JUMP JUMPDEST PUSH1 0x0 DUP1 PUSH1 0x0 SWAP1 SLOAD SWAP1 PUSH2 0x100 EXP SWAP1 DIV PUSH20 0xFFFFFFFFFFFFFFFFFFFFFFFFFFFFFFFFFFFFFFFF AND SWAP1 POP SWAP1 JUMP JUMPDEST PUSH2 0x90B PUSH2 0xE8F JUMP JUMPDEST PUSH1 0x0 PUSH1 0x1 PUSH1 0x0 DUP11 DUP2 MSTORE PUSH1 0x20 ADD SWAP1 DUP2 MSTORE PUSH1 0x20 ADD PUSH1 0x0 KECCAK256 SWAP1 POP DUP8 DUP2 PUSH1 0x0 ADD DUP2 DUP2 PUSH2 0x933 SWAP2 SWAP1 PUSH2 0x2AE1 JUMP JUMPDEST SWAP1 POP POP DUP7 DUP2 PUSH1 0x4 ADD DUP2 DUP2 PUSH2 0x947 SWAP2 SWAP1 PUSH2 0x35D7 JUMP JUMPDEST SWAP1 POP POP DUP4 DUP2 PUSH1 0x7 ADD PUSH1 0x0 PUSH2 0x100 EXP DUP2 SLOAD DUP2 PUSH20 0xFFFFFFFFFFFFFFFFFFFFFFFFFFFFFFFFFFFFFFFF MUL NOT AND SWAP1 DUP4 PUSH20 0xFFFFFFFFFFFFFFFFFFFFFFFFFFFFFFFFFFFFFFFF AND MUL OR SWAP1 SSTORE POP DUP3 DUP2 PUSH1 0x7 ADD PUSH1 0x14 PUSH2 0x100 EXP DUP2 SLOAD DUP2 PUSH1 0xFF MUL NOT AND SWAP1 DUP4 PUSH1 0x1 DUP2 GT ISZERO PUSH2 0x9B4 JUMPI PUSH2 0x9B3 PUSH2 0x3101 JUMP JUMPDEST JUMPDEST MUL OR SWAP1 SSTORE POP DUP2 DUP2 PUSH1 0x7 ADD PUSH1 0x15 PUSH2 0x100 EXP DUP2 SLOAD DUP2 PUSH1 0xFF MUL NOT AND SWAP1 DUP4 ISZERO ISZERO MUL OR SWAP1 SSTORE POP DUP1 PUSH1 0x6 ADD PUSH1 0x0 PUSH2 0x9E5 SWAP2 SWAP1 PUSH2 0x1031 JUMP JUMPDEST PUSH1 0x0 JUMPDEST DUP7 DUP7 SWAP1 POP DUP2 LT ISZERO PUSH2 0xA42 JUMPI DUP2 PUSH1 0x6 ADD DUP8 DUP8 DUP4 DUP2 DUP2 LT PUSH2 0xA0A JUMPI PUSH2 0xA09 PUSH2 0x214A JUMP JUMPDEST JUMPDEST SWAP1 POP PUSH1 0x20 MUL ADD CALLDATALOAD SWAP1 DUP1 PUSH1 0x1 DUP2 SLOAD ADD DUP1 DUP3 SSTORE DUP1 SWAP2 POP POP PUSH1 0x1 SWAP1 SUB SWAP1 PUSH1 0x0 MSTORE PUSH1 0x20 PUSH1 0x0 KECCAK256 ADD PUSH1 0x0 SWAP1 SWAP2 SWAP1 SWAP2 SWAP1 SWAP2 POP SSTORE DUP1 PUSH1 0x1 ADD SWAP1 POP PUSH2 0x9E8 JUMP JUMPDEST POP PUSH32 0x887CC86755221DB77FB9A404D4834A6CA76A28DF7C71C7650318819AD0F46A3C DUP10 PUSH1 0x40 MLOAD PUSH2 0xA72 SWAP2 SWAP1 PUSH2 0x1B0C JUMP JUMPDEST PUSH1 0x40 MLOAD DUP1 SWAP2 SUB SWAP1 LOG1 POP POP POP POP POP POP POP POP POP JUMP JUMPDEST DUP1 PUSH1 0x1 PUSH1 0x0 DUP5 DUP2 MSTORE PUSH1 0x20 ADD SWAP1 DUP2 MSTORE PUSH1 0x20 ADD PUSH1 0x0 KECCAK256 PUSH1 0x4 ADD DUP2 DUP2 PUSH2 0xAA8 SWAP2 SWAP1 PUSH2 0x35D7 JUMP JUMPDEST SWAP1 POP POP PUSH32 0xE9792EEE54764D34581473A0E844E57F5E07FA14E6D375C1F542B383CE48F0B7 DUP3 DUP3 PUSH1 0x40 MLOAD PUSH2 0xADC SWAP3 SWAP2 SWAP1 PUSH2 0x3827 JUMP JUMPDEST PUSH1 0x40 MLOAD DUP1 SWAP2 SUB SWAP1 LOG1 POP POP JUMP JUMPDEST PUSH1 0x0 PUSH1 0x2 SLOAD CALLVALUE EQ PUSH2 0xB34 JUMPI PUSH1 0x2 SLOAD CALLVALUE PUSH1 0x40 MLOAD PUSH32 0xCE6B173B00000000000000000000000000000000000000000000000000000000 DUP2 MSTORE PUSH1 0x4 ADD PUSH2 0xB2B SWAP3 SWAP2 SWAP1 PUSH2 0x220B JUMP JUMPDEST PUSH1 0x40 MLOAD DUP1 SWAP2 SUB SWAP1 REVERT JUMPDEST PUSH32 0xE1FFFCC4923D04B559F4D29A8BFC6CDA04EB5B0D3C460751C2402C5C5CC9109C CALLER CALLVALUE PUSH1 0x40 MLOAD PUSH2 0xB65 SWAP3 SWAP2 SWAP1 PUSH2 0x10C9 JUMP JUMPDEST PUSH1 0x40 MLOAD DUP1 SWAP2 SUB SWAP1 LOG1 PUSH1 0x0 PUSH1 0x3 SLOAD SWAP1 POP PUSH1 0x0 PUSH1 0x1 PUSH1 0x0 DUP4 DUP2 MSTORE PUSH1 0x20 ADD SWAP1 DUP2 MSTORE PUSH1 0x20 ADD PUSH1 0x0 KECCAK256 SWAP1 POP DUP9 DUP2 PUSH1 0x0 ADD DUP2 DUP2 PUSH2 0xB9C SWAP2 SWAP1 PUSH2 0x2AE1 JUMP JUMPDEST SWAP1 POP POP DUP8 DUP2 PUSH1 0x4 ADD DUP2 DUP2 PUSH2 0xBB0 SWAP2 SWAP1 PUSH2 0x35D7 JUMP JUMPDEST SWAP1 POP POP DUP5 DUP2 PUSH1 0x7 ADD PUSH1 0x0 PUSH2 0x100 EXP DUP2 SLOAD DUP2 PUSH20 0xFFFFFFFFFFFFFFFFFFFFFFFFFFFFFFFFFFFFFFFF MUL NOT AND SWAP1 DUP4 PUSH20 0xFFFFFFFFFFFFFFFFFFFFFFFFFFFFFFFFFFFFFFFF AND MUL OR SWAP1 SSTORE POP DUP4 DUP2 PUSH1 0x7 ADD PUSH1 0x14 PUSH2 0x100 EXP DUP2 SLOAD DUP2 PUSH1 0xFF MUL NOT AND SWAP1 DUP4 PUSH1 0x1 DUP2 GT ISZERO PUSH2 0xC1D JUMPI PUSH2 0xC1C PUSH2 0x3101 JUMP JUMPDEST JUMPDEST MUL OR SWAP1 SSTORE POP PUSH1 0x0 DUP2 PUSH1 0x7 ADD PUSH1 0x15 PUSH2 0x100 EXP DUP2 SLOAD DUP2 PUSH1 0xFF MUL NOT AND SWAP1 DUP4 ISZERO ISZERO MUL OR SWAP1 SSTORE POP PUSH1 0x0 JUMPDEST DUP8 DUP8 SWAP1 POP DUP2 LT ISZERO PUSH2 0xC9C JUMPI DUP2 PUSH1 0x6 ADD DUP9 DUP9 DUP4 DUP2 DUP2 LT PUSH2 0xC64 JUMPI PUSH2 0xC63 PUSH2 0x214A JUMP JUMPDEST JUMPDEST SWAP1 POP PUSH1 0x20 MUL ADD CALLDATALOAD SWAP1 DUP1 PUSH1 0x1 DUP2 SLOAD ADD DUP1 DUP3 SSTORE DUP1 SWAP2 POP POP PUSH1 0x1 SWAP1 SUB SWAP1 PUSH1 0x0 MSTORE PUSH1 0x20 PUSH1 0x0 KECCAK256 ADD PUSH1 0x0 SWAP1 SWAP2 SWAP1 SWAP2 SWAP1 SWAP2 POP SSTORE DUP1 PUSH1 0x1 ADD SWAP1 POP PUSH2 0xC42 JUMP JUMPDEST POP PUSH1 0x3 PUSH1 0x0 DUP2 SLOAD DUP1 SWAP3 SWAP2 SWAP1 PUSH2 0xCB0 SWAP1 PUSH2 0x3857 JUMP JUMPDEST SWAP2 SWAP1 POP SSTORE POP PUSH32 0x42C24A3323433819443A75D0E2651A9C84F696FBA638D730042960045EF27241 DUP3 CALLER PUSH1 0x40 MLOAD PUSH2 0xCE6 SWAP3 SWAP2 SWAP1 PUSH2 0x389F JUMP JUMPDEST PUSH1 0x40 MLOAD DUP1 SWAP2 SUB SWAP1 LOG1 DUP2 SWAP3 POP POP POP SWAP7 SWAP6 POP POP POP POP POP POP JUMP JUMPDEST DUP1 PUSH1 0x1 PUSH1 0x0 DUP5 DUP2 MSTORE PUSH1 0x20 ADD SWAP1 DUP2 MSTORE PUSH1 0x20 ADD PUSH1 0x0 KECCAK256 PUSH1 0x7 ADD PUSH1 0x0 PUSH2 0x100 EXP DUP2 SLOAD DUP2 PUSH20 0xFFFFFFFFFFFFFFFFFFFFFFFFFFFFFFFFFFFFFFFF MUL NOT AND SWAP1 DUP4 PUSH20 0xFFFFFFFFFFFFFFFFFFFFFFFFFFFFFFFFFFFFFFFF AND MUL OR SWAP1 SSTORE POP PUSH32 0xACD3BFB47D15F9F1D5DB04BF52AECE3B8C4FD63E70C97B91293415D2F2341F38 DUP3 DUP3 PUSH1 0x40 MLOAD PUSH2 0xD83 SWAP3 SWAP2 SWAP1 PUSH2 0x389F JUMP JUMPDEST PUSH1 0x40 MLOAD DUP1 SWAP2 SUB SWAP1 LOG1 POP POP JUMP JUMPDEST PUSH1 0x1 PUSH1 0x0 DUP4 DUP2 MSTORE PUSH1 0x20 ADD SWAP1 DUP2 MSTORE PUSH1 0x20 ADD PUSH1 0x0 KECCAK256 PUSH1 0x6 ADD DUP2 SWAP1 DUP1 PUSH1 0x1 DUP2 SLOAD ADD DUP1 DUP3 SSTORE DUP1 SWAP2 POP POP PUSH1 0x1 SWAP1 SUB SWAP1 PUSH1 0x0 MSTORE PUSH1 0x20 PUSH1 0x0 KECCAK256 ADD PUSH1 0x0 SWAP1 SWAP2 SWAP1 SWAP2 SWAP1 SWAP2 POP SSTORE PUSH32 0xFCDFD5AEB97F499CA134ED43F010F2A4F5B0AB73D317AC27246A066A050A73AF DUP3 DUP3 PUSH1 0x40 MLOAD PUSH2 0xDFD SWAP3 SWAP2 SWAP1 PUSH2 0x220B JUMP JUMPDEST PUSH1 0x40 MLOAD DUP1 SWAP2 SUB SWAP1 LOG1 POP POP JUMP JUMPDEST PUSH2 0xE11 PUSH2 0xE8F JUMP JUMPDEST PUSH1 0x0 PUSH20 0xFFFFFFFFFFFFFFFFFFFFFFFFFFFFFFFFFFFFFFFF AND DUP2 PUSH20 0xFFFFFFFFFFFFFFFFFFFFFFFFFFFFFFFFFFFFFFFF AND SUB PUSH2 0xE83 JUMPI PUSH1 0x0 PUSH1 0x40 MLOAD PUSH32 0x1E4FBDF700000000000000000000000000000000000000000000000000000000 DUP2 MSTORE PUSH1 0x4 ADD PUSH2 0xE7A SWAP2 SWAP1 PUSH2 0x1845 JUMP JUMPDEST PUSH1 0x40 MLOAD DUP1 SWAP2 SUB SWAP1 REVERT JUMPDEST PUSH2 0xE8C DUP2 PUSH2 0xF16 JUMP JUMPDEST POP JUMP JUMPDEST PUSH2 0xE97 PUSH2 0xFDA JUMP JUMPDEST PUSH20 0xFFFFFFFFFFFFFFFFFFFFFFFFFFFFFFFFFFFFFFFF AND PUSH2 0xEB5 PUSH2 0x8DA JUMP JUMPDEST PUSH20 0xFFFFFFFFFFFFFFFFFFFFFFFFFFFFFFFFFFFFFFFF AND EQ PUSH2 0xF14 JUMPI PUSH2 0xED8 PUSH2 0xFDA JUMP JUMPDEST PUSH1 0x40 MLOAD PUSH32 0x118CDAA700000000000000000000000000000000000000000000000000000000 DUP2 MSTORE PUSH1 0x4 ADD PUSH2 0xF0B SWAP2 SWAP1 PUSH2 0x1845 JUMP JUMPDEST PUSH1 0x40 MLOAD DUP1 SWAP2 SUB SWAP1 REVERT JUMPDEST JUMP JUMPDEST PUSH1 0x0 DUP1 PUSH1 0x0 SWAP1 SLOAD SWAP1 PUSH2 0x100 EXP SWAP1 DIV PUSH20 0xFFFFFFFFFFFFFFFFFFFFFFFFFFFFFFFFFFFFFFFF AND SWAP1 POP DUP2 PUSH1 0x0 DUP1 PUSH2 0x100 EXP DUP2 SLOAD DUP2 PUSH20 0xFFFFFFFFFFFFFFFFFFFFFFFFFFFFFFFFFFFFFFFF MUL NOT AND SWAP1 DUP4 PUSH20 0xFFFFFFFFFFFFFFFFFFFFFFFFFFFFFFFFFFFFFFFF AND MUL OR SWAP1 SSTORE POP DUP2 PUSH20 0xFFFFFFFFFFFFFFFFFFFFFFFFFFFFFFFFFFFFFFFF AND DUP2 PUSH20 0xFFFFFFFFFFFFFFFFFFFFFFFFFFFFFFFFFFFFFFFF AND PUSH32 0x8BE0079C531659141344CD1FD0A4F28419497F9722A3DAAFE3B4186F6B6457E0 PUSH1 0x40 MLOAD PUSH1 0x40 MLOAD DUP1 SWAP2 SUB SWAP1 LOG3 POP POP JUMP JUMPDEST PUSH1 0x0 CALLER SWAP1 POP SWAP1 JUMP JUMPDEST PUSH1 0x40 MLOAD DUP1 PUSH2 0x120 ADD PUSH1 0x40 MSTORE DUP1 PUSH1 0x60 DUP2 MSTORE PUSH1 0x20 ADD PUSH1 0x60 DUP2 MSTORE PUSH1 0x20 ADD PUSH1 0x60 DUP2 MSTORE PUSH1 0x20 ADD PUSH1 0x60 DUP2 MSTORE PUSH1 0x20 ADD PUSH1 0x0 DUP2 MSTORE PUSH1 0x20 ADD PUSH1 0x0 DUP2 MSTORE PUSH1 0x20 ADD PUSH1 0x60 DUP2 MSTORE PUSH1 0x20 ADD PUSH1 0x0 DUP1 NOT AND DUP2 MSTORE PUSH1 0x20 ADD PUSH1 0x60 DUP2 MSTORE POP SWAP1 JUMP JUMPDEST POP DUP1 SLOAD PUSH1 0x0 DUP3 SSTORE SWAP1 PUSH1 0x0 MSTORE PUSH1 0x20 PUSH1 0x0 KECCAK256 SWAP1 DUP2 ADD SWAP1 PUSH2 0x104F SWAP2 SWAP1 PUSH2 0x1052 JUMP JUMPDEST POP JUMP JUMPDEST JUMPDEST DUP1 DUP3 GT ISZERO PUSH2 0x106B JUMPI PUSH1 0x0 DUP2 PUSH1 0x0 SWAP1 SSTORE POP PUSH1 0x1 ADD PUSH2 0x1053 JUMP JUMPDEST POP SWAP1 JUMP JUMPDEST PUSH1 0x0 PUSH20 0xFFFFFFFFFFFFFFFFFFFFFFFFFFFFFFFFFFFFFFFF DUP3 AND SWAP1 POP SWAP2 SWAP1 POP JUMP JUMPDEST PUSH1 0x0 PUSH2 0x109A DUP3 PUSH2 0x106F JUMP JUMPDEST SWAP1 POP SWAP2 SWAP1 POP JUMP JUMPDEST PUSH2 0x10AA DUP2 PUSH2 0x108F JUMP JUMPDEST DUP3 MSTORE POP POP JUMP JUMPDEST PUSH1 0x0 DUP2 SWAP1 POP SWAP2 SWAP1 POP JUMP JUMPDEST PUSH2 0x10C3 DUP2 PUSH2 0x10B0 JUMP JUMPDEST DUP3 MSTORE POP POP JUMP JUMPDEST PUSH1 0x0 PUSH1 0x40 DUP3 ADD SWAP1 POP PUSH2 0x10DE PUSH1 0x0 DUP4 ADD DUP6 PUSH2 0x10A1 JUMP JUMPDEST PUSH2 0x10EB PUSH1 0x20 DUP4 ADD DUP5 PUSH2 0x10BA JUMP JUMPDEST SWAP4 SWAP3 POP POP POP JUMP JUMPDEST PUSH1 0x0 PUSH1 0x40 MLOAD SWAP1 POP SWAP1 JUMP JUMPDEST PUSH1 0x0 DUP1 REVERT JUMPDEST PUSH1 0x0 DUP1 REVERT JUMPDEST PUSH2 0x110F DUP2 PUSH2 0x10B0 JUMP JUMPDEST DUP2 EQ PUSH2 0x111A JUMPI PUSH1 0x0 DUP1 REVERT JUMPDEST POP JUMP JUMPDEST PUSH1 0x0 DUP2 CALLDATALOAD SWAP1 POP PUSH2 0x112C DUP2 PUSH2 0x1106 JUMP JUMPDEST SWAP3 SWAP2 POP POP JUMP JUMPDEST PUSH1 0x0 DUP2 SWAP1 POP SWAP2 SWAP1 POP JUMP JUMPDEST PUSH2 0x1145 DUP2 PUSH2 0x1132 JUMP JUMPDEST DUP2 EQ PUSH2 0x1150 JUMPI PUSH1 0x0 DUP1 REVERT JUMPDEST POP JUMP JUMPDEST PUSH1 0x0 DUP2 CALLDATALOAD SWAP1 POP PUSH2 0x1162 DUP2 PUSH2 0x113C JUMP JUMPDEST SWAP3 SWAP2 POP POP JUMP JUMPDEST PUSH1 0x0 DUP1 PUSH1 0x40 DUP4 DUP6 SUB SLT ISZERO PUSH2 0x117F JUMPI PUSH2 0x117E PUSH2 0x10FC JUMP JUMPDEST JUMPDEST PUSH1 0x0 PUSH2 0x118D DUP6 DUP3 DUP7 ADD PUSH2 0x111D JUMP JUMPDEST SWAP3 POP POP PUSH1 0x20 PUSH2 0x119E DUP6 DUP3 DUP7 ADD PUSH2 0x1153 JUMP JUMPDEST SWAP2 POP POP SWAP3 POP SWAP3 SWAP1 POP JUMP JUMPDEST PUSH1 0x0 DUP2 MLOAD SWAP1 POP SWAP2 SWAP1 POP JUMP JUMPDEST PUSH1 0x0 DUP3 DUP3 MSTORE PUSH1 0x20 DUP3 ADD SWAP1 POP SWAP3 SWAP2 POP POP JUMP JUMPDEST PUSH1 0x0 JUMPDEST DUP4 DUP2 LT ISZERO PUSH2 0x11E2 JUMPI DUP1 DUP3 ADD MLOAD DUP2 DUP5 ADD MSTORE PUSH1 0x20 DUP2 ADD SWAP1 POP PUSH2 0x11C7 JUMP JUMPDEST PUSH1 0x0 DUP5 DUP5 ADD MSTORE POP POP POP POP JUMP JUMPDEST PUSH1 0x0 PUSH1 0x1F NOT PUSH1 0x1F DUP4 ADD AND SWAP1 POP SWAP2 SWAP1 POP JUMP JUMPDEST PUSH1 0x0 PUSH2 0x120A DUP3 PUSH2 0x11A8 JUMP JUMPDEST PUSH2 0x1214 DUP2 DUP6 PUSH2 0x11B3 JUMP JUMPDEST SWAP4 POP PUSH2 0x1224 DUP2 DUP6 PUSH1 0x20 DUP7 ADD PUSH2 0x11C4 JUMP JUMPDEST PUSH2 0x122D DUP2 PUSH2 0x11EE JUMP JUMPDEST DUP5 ADD SWAP2 POP POP SWAP3 SWAP2 POP POP JUMP JUMPDEST PUSH1 0x0 DUP2 MLOAD SWAP1 POP SWAP2 SWAP1 POP JUMP JUMPDEST PUSH1 0x0 DUP3 DUP3 MSTORE PUSH1 0x20 DUP3 ADD SWAP1 POP SWAP3 SWAP2 POP POP JUMP JUMPDEST PUSH1 0x0 DUP2 SWAP1 POP PUSH1 0x20 DUP3 ADD SWAP1 POP SWAP2 SWAP1 POP JUMP JUMPDEST PUSH1 0x0 PUSH2 0x1270 DUP4 DUP4 PUSH2 0x11FF JUMP JUMPDEST SWAP1 POP SWAP3 SWAP2 POP POP JUMP JUMPDEST PUSH1 0x0 PUSH1 0x20 DUP3 ADD SWAP1 POP SWAP2 SWAP1 POP JUMP JUMPDEST PUSH1 0x0 PUSH2 0x1290 DUP3 PUSH2 0x1238 JUMP JUMPDEST PUSH2 0x129A DUP2 DUP6 PUSH2 0x1243 JUMP JUMPDEST SWAP4 POP DUP4 PUSH1 0x20 DUP3 MUL DUP6 ADD PUSH2 0x12AC DUP6 PUSH2 0x1254 JUMP JUMPDEST DUP1 PUSH1 0x0 JUMPDEST DUP6 DUP2 LT ISZERO PUSH2 0x12E8 JUMPI DUP5 DUP5 SUB DUP10 MSTORE DUP2 MLOAD PUSH2 0x12C9 DUP6 DUP3 PUSH2 0x1264 JUMP JUMPDEST SWAP5 POP PUSH2 0x12D4 DUP4 PUSH2 0x1278 JUMP JUMPDEST SWAP3 POP PUSH1 0x20 DUP11 ADD SWAP10 POP POP PUSH1 0x1 DUP2 ADD SWAP1 POP PUSH2 0x12B0 JUMP JUMPDEST POP DUP3 SWAP8 POP DUP8 SWAP6 POP POP POP POP POP POP SWAP3 SWAP2 POP POP JUMP JUMPDEST PUSH1 0x0 DUP2 MLOAD SWAP1 POP SWAP2 SWAP1 POP JUMP JUMPDEST PUSH1 0x0 DUP3 DUP3 MSTORE PUSH1 0x20 DUP3 ADD SWAP1 POP SWAP3 SWAP2 POP POP JUMP JUMPDEST PUSH1 0x0 DUP2 SWAP1 POP PUSH1 0x20 DUP3 ADD SWAP1 POP SWAP2 SWAP1 POP JUMP JUMPDEST PUSH1 0x0 DUP2 MLOAD SWAP1 POP SWAP2 SWAP1 POP JUMP JUMPDEST PUSH1 0x0 DUP3 DUP3 MSTORE PUSH1 0x20 DUP3 ADD SWAP1 POP SWAP3 SWAP2 POP POP JUMP JUMPDEST PUSH1 0x0 DUP2 SWAP1 POP PUSH1 0x20 DUP3 ADD SWAP1 POP SWAP2 SWAP1 POP JUMP JUMPDEST PUSH2 0x135B DUP2 PUSH2 0x10B0 JUMP JUMPDEST DUP3 MSTORE POP POP JUMP JUMPDEST PUSH1 0x0 PUSH2 0x136D DUP4 DUP4 PUSH2 0x1352 JUMP JUMPDEST PUSH1 0x20 DUP4 ADD SWAP1 POP SWAP3 SWAP2 POP POP JUMP JUMPDEST PUSH1 0x0 PUSH1 0x20 DUP3 ADD SWAP1 POP SWAP2 SWAP1 POP JUMP JUMPDEST PUSH1 0x0 PUSH2 0x1391 DUP3 PUSH2 0x1326 JUMP JUMPDEST PUSH2 0x139B DUP2 DUP6 PUSH2 0x1331 JUMP JUMPDEST SWAP4 POP PUSH2 0x13A6 DUP4 PUSH2 0x1342 JUMP JUMPDEST DUP1 PUSH1 0x0 JUMPDEST DUP4 DUP2 LT ISZERO PUSH2 0x13D7 JUMPI DUP2 MLOAD PUSH2 0x13BE DUP9 DUP3 PUSH2 0x1361 JUMP JUMPDEST SWAP8 POP PUSH2 0x13C9 DUP4 PUSH2 0x1379 JUMP JUMPDEST SWAP3 POP POP PUSH1 0x1 DUP2 ADD SWAP1 POP PUSH2 0x13AA JUMP JUMPDEST POP DUP6 SWAP4 POP POP POP POP SWAP3 SWAP2 POP POP JUMP JUMPDEST PUSH1 0x0 PUSH2 0x13F0 DUP4 DUP4 PUSH2 0x1386 JUMP JUMPDEST SWAP1 POP SWAP3 SWAP2 POP POP JUMP JUMPDEST PUSH1 0x0 PUSH1 0x20 DUP3 ADD SWAP1 POP SWAP2 SWAP1 POP JUMP JUMPDEST PUSH1 0x0 PUSH2 0x1410 DUP3 PUSH2 0x12FA JUMP JUMPDEST PUSH2 0x141A DUP2 DUP6 PUSH2 0x1305 JUMP JUMPDEST SWAP4 POP DUP4 PUSH1 0x20 DUP3 MUL DUP6 ADD PUSH2 0x142C DUP6 PUSH2 0x1316 JUMP JUMPDEST DUP1 PUSH1 0x0 JUMPDEST DUP6 DUP2 LT ISZERO PUSH2 0x1468 JUMPI DUP5 DUP5 SUB DUP10 MSTORE DUP2 MLOAD PUSH2 0x1449 DUP6 DUP3 PUSH2 0x13E4 JUMP JUMPDEST SWAP5 POP PUSH2 0x1454 DUP4 PUSH2 0x13F8 JUMP JUMPDEST SWAP3 POP PUSH1 0x20 DUP11 ADD SWAP10 POP POP PUSH1 0x1 DUP2 ADD SWAP1 POP PUSH2 0x1430 JUMP JUMPDEST POP DUP3 SWAP8 POP DUP8 SWAP6 POP POP POP POP POP POP SWAP3 SWAP2 POP POP JUMP JUMPDEST PUSH2 0x1483 DUP2 PUSH2 0x1132 JUMP JUMPDEST DUP3 MSTORE POP POP JUMP JUMPDEST PUSH1 0x0 PUSH2 0x120 DUP4 ADD PUSH1 0x0 DUP4 ADD MLOAD DUP5 DUP3 SUB PUSH1 0x0 DUP7 ADD MSTORE PUSH2 0x14A7 DUP3 DUP3 PUSH2 0x11FF JUMP JUMPDEST SWAP2 POP POP PUSH1 0x20 DUP4 ADD MLOAD DUP5 DUP3 SUB PUSH1 0x20 DUP7 ADD MSTORE PUSH2 0x14C1 DUP3 DUP3 PUSH2 0x1285 JUMP JUMPDEST SWAP2 POP POP PUSH1 0x40 DUP4 ADD MLOAD DUP5 DUP3 SUB PUSH1 0x40 DUP7 ADD MSTORE PUSH2 0x14DB DUP3 DUP3 PUSH2 0x11FF JUMP JUMPDEST SWAP2 POP POP PUSH1 0x60 DUP4 ADD MLOAD DUP5 DUP3 SUB PUSH1 0x60 DUP7 ADD MSTORE PUSH2 0x14F5 DUP3 DUP3 PUSH2 0x1405 JUMP JUMPDEST SWAP2 POP POP PUSH1 0x80 DUP4 ADD MLOAD PUSH2 0x150A PUSH1 0x80 DUP7 ADD DUP3 PUSH2 0x1352 JUMP JUMPDEST POP PUSH1 0xA0 DUP4 ADD MLOAD PUSH2 0x151D PUSH1 0xA0 DUP7 ADD DUP3 PUSH2 0x1352 JUMP JUMPDEST POP PUSH1 0xC0 DUP4 ADD MLOAD DUP5 DUP3 SUB PUSH1 0xC0 DUP7 ADD MSTORE PUSH2 0x1535 DUP3 DUP3 PUSH2 0x1386 JUMP JUMPDEST SWAP2 POP POP PUSH1 0xE0 DUP4 ADD MLOAD PUSH2 0x154A PUSH1 0xE0 DUP7 ADD DUP3 PUSH2 0x147A JUMP JUMPDEST POP PUSH2 0x100 DUP4 ADD MLOAD DUP5 DUP3 SUB PUSH2 0x100 DUP7 ADD MSTORE PUSH2 0x1564 DUP3 DUP3 PUSH2 0x11FF JUMP JUMPDEST SWAP2 POP POP DUP1 SWAP2 POP POP SWAP3 SWAP2 POP POP JUMP JUMPDEST PUSH1 0x0 PUSH1 0x20 DUP3 ADD SWAP1 POP DUP2 DUP2 SUB PUSH1 0x0 DUP4 ADD MSTORE PUSH2 0x158B DUP2 DUP5 PUSH2 0x1489 JUMP JUMPDEST SWAP1 POP SWAP3 SWAP2 POP POP JUMP JUMPDEST PUSH1 0x0 DUP1 PUSH1 0x40 DUP4 DUP6 SUB SLT ISZERO PUSH2 0x15AA JUMPI PUSH2 0x15A9 PUSH2 0x10FC JUMP JUMPDEST JUMPDEST PUSH1 0x0 PUSH2 0x15B8 DUP6 DUP3 DUP7 ADD PUSH2 0x111D JUMP JUMPDEST SWAP3 POP POP PUSH1 0x20 PUSH2 0x15C9 DUP6 DUP3 DUP7 ADD PUSH2 0x111D JUMP JUMPDEST SWAP2 POP POP SWAP3 POP SWAP3 SWAP1 POP JUMP JUMPDEST PUSH2 0x15DC DUP2 PUSH2 0x108F JUMP JUMPDEST DUP2 EQ PUSH2 0x15E7 JUMPI PUSH1 0x0 DUP1 REVERT JUMPDEST POP JUMP JUMPDEST PUSH1 0x0 DUP2 CALLDATALOAD SWAP1 POP PUSH2 0x15F9 DUP2 PUSH2 0x15D3 JUMP JUMPDEST SWAP3 SWAP2 POP POP JUMP JUMPDEST PUSH1 0x0 PUSH1 0x20 DUP3 DUP5 SUB SLT ISZERO PUSH2 0x1615 JUMPI PUSH2 0x1614 PUSH2 0x10FC JUMP JUMPDEST JUMPDEST PUSH1 0x0 PUSH2 0x1623 DUP5 DUP3 DUP6 ADD PUSH2 0x15EA JUMP JUMPDEST SWAP2 POP POP SWAP3 SWAP2 POP POP JUMP JUMPDEST PUSH1 0x0 DUP1 REVERT JUMPDEST PUSH1 0x0 PUSH1 0x80 DUP3 DUP5 SUB SLT ISZERO PUSH2 0x1647 JUMPI PUSH2 0x1646 PUSH2 0x162C JUMP JUMPDEST JUMPDEST DUP2 SWAP1 POP SWAP3 SWAP2 POP POP JUMP JUMPDEST PUSH1 0x0 DUP1 PUSH1 0x40 DUP4 DUP6 SUB SLT ISZERO PUSH2 0x1667 JUMPI PUSH2 0x1666 PUSH2 0x10FC JUMP JUMPDEST JUMPDEST PUSH1 0x0 PUSH2 0x1675 DUP6 DUP3 DUP7 ADD PUSH2 0x111D JUMP JUMPDEST SWAP3 POP POP PUSH1 0x20 DUP4 ADD CALLDATALOAD PUSH8 0xFFFFFFFFFFFFFFFF DUP2 GT ISZERO PUSH2 0x1696 JUMPI PUSH2 0x1695 PUSH2 0x1101 JUMP JUMPDEST JUMPDEST PUSH2 0x16A2 DUP6 DUP3 DUP7 ADD PUSH2 0x1631 JUMP JUMPDEST SWAP2 POP POP SWAP3 POP SWAP3 SWAP1 POP JUMP JUMPDEST PUSH1 0x0 PUSH2 0x120 DUP3 DUP5 SUB SLT ISZERO PUSH2 0x16C3 JUMPI PUSH2 0x16C2 PUSH2 0x162C JUMP JUMPDEST JUMPDEST DUP2 SWAP1 POP SWAP3 SWAP2 POP POP JUMP JUMPDEST PUSH1 0x0 DUP1 PUSH1 0x0 PUSH1 0x60 DUP5 DUP7 SUB SLT ISZERO PUSH2 0x16E5 JUMPI PUSH2 0x16E4 PUSH2 0x10FC JUMP JUMPDEST JUMPDEST PUSH1 0x0 PUSH2 0x16F3 DUP7 DUP3 DUP8 ADD PUSH2 0x111D JUMP JUMPDEST SWAP4 POP POP PUSH1 0x20 PUSH2 0x1704 DUP7 DUP3 DUP8 ADD PUSH2 0x1153 JUMP JUMPDEST SWAP3 POP POP PUSH1 0x40 DUP5 ADD CALLDATALOAD PUSH8 0xFFFFFFFFFFFFFFFF DUP2 GT ISZERO PUSH2 0x1725 JUMPI PUSH2 0x1724 PUSH2 0x1101 JUMP JUMPDEST JUMPDEST PUSH2 0x1731 DUP7 DUP3 DUP8 ADD PUSH2 0x16AC JUMP JUMPDEST SWAP2 POP POP SWAP3 POP SWAP3 POP SWAP3 JUMP JUMPDEST PUSH1 0x0 PUSH1 0x20 DUP3 DUP5 SUB SLT ISZERO PUSH2 0x1751 JUMPI PUSH2 0x1750 PUSH2 0x10FC JUMP JUMPDEST JUMPDEST PUSH1 0x0 PUSH2 0x175F DUP5 DUP3 DUP6 ADD PUSH2 0x111D JUMP JUMPDEST SWAP2 POP POP SWAP3 SWAP2 POP POP JUMP JUMPDEST PUSH1 0x2 DUP2 LT PUSH2 0x1775 JUMPI PUSH1 0x0 DUP1 REVERT JUMPDEST POP JUMP JUMPDEST PUSH1 0x0 DUP2 CALLDATALOAD SWAP1 POP PUSH2 0x1787 DUP2 PUSH2 0x1768 JUMP JUMPDEST SWAP3 SWAP2 POP POP JUMP JUMPDEST PUSH1 0x0 DUP1 PUSH1 0x40 DUP4 DUP6 SUB SLT ISZERO PUSH2 0x17A4 JUMPI PUSH2 0x17A3 PUSH2 0x10FC JUMP JUMPDEST JUMPDEST PUSH1 0x0 PUSH2 0x17B2 DUP6 DUP3 DUP7 ADD PUSH2 0x111D JUMP JUMPDEST SWAP3 POP POP PUSH1 0x20 PUSH2 0x17C3 DUP6 DUP3 DUP7 ADD PUSH2 0x1778 JUMP JUMPDEST SWAP2 POP POP SWAP3 POP SWAP3 SWAP1 POP JUMP JUMPDEST PUSH1 0x0 DUP2 ISZERO ISZERO SWAP1 POP SWAP2 SWAP1 POP JUMP JUMPDEST PUSH2 0x17E2 DUP2 PUSH2 0x17CD JUMP JUMPDEST DUP2 EQ PUSH2 0x17ED JUMPI PUSH1 0x0 DUP1 REVERT JUMPDEST POP JUMP JUMPDEST PUSH1 0x0 DUP2 CALLDATALOAD SWAP1 POP PUSH2 0x17FF DUP2 PUSH2 0x17D9 JUMP JUMPDEST SWAP3 SWAP2 POP POP JUMP JUMPDEST PUSH1 0x0 DUP1 PUSH1 0x40 DUP4 DUP6 SUB SLT ISZERO PUSH2 0x181C JUMPI PUSH2 0x181B PUSH2 0x10FC JUMP JUMPDEST JUMPDEST PUSH1 0x0 PUSH2 0x182A DUP6 DUP3 DUP7 ADD PUSH2 0x111D JUMP JUMPDEST SWAP3 POP POP PUSH1 0x20 PUSH2 0x183B DUP6 DUP3 DUP7 ADD PUSH2 0x17F0 JUMP JUMPDEST SWAP2 POP POP SWAP3 POP SWAP3 SWAP1 POP JUMP JUMPDEST PUSH1 0x0 PUSH1 0x20 DUP3 ADD SWAP1 POP PUSH2 0x185A PUSH1 0x0 DUP4 ADD DUP5 PUSH2 0x10A1 JUMP JUMPDEST SWAP3 SWAP2 POP POP JUMP JUMPDEST PUSH1 0x0 PUSH1 0x40 DUP3 DUP5 SUB SLT ISZERO PUSH2 0x1876 JUMPI PUSH2 0x1875 PUSH2 0x162C JUMP JUMPDEST JUMPDEST DUP2 SWAP1 POP SWAP3 SWAP2 POP POP JUMP JUMPDEST PUSH1 0x0 DUP1 REVERT JUMPDEST PUSH1 0x0 DUP1 REVERT JUMPDEST PUSH1 0x0 DUP1 REVERT JUMPDEST PUSH1 0x0 DUP1 DUP4 PUSH1 0x1F DUP5 ADD SLT PUSH2 0x18A4 JUMPI PUSH2 0x18A3 PUSH2 0x187F JUMP JUMPDEST JUMPDEST DUP3 CALLDATALOAD SWAP1 POP PUSH8 0xFFFFFFFFFFFFFFFF DUP2 GT ISZERO PUSH2 0x18C1 JUMPI PUSH2 0x18C0 PUSH2 0x1884 JUMP JUMPDEST JUMPDEST PUSH1 0x20 DUP4 ADD SWAP2 POP DUP4 PUSH1 0x20 DUP3 MUL DUP4 ADD GT ISZERO PUSH2 0x18DD JUMPI PUSH2 0x18DC PUSH2 0x1889 JUMP JUMPDEST JUMPDEST SWAP3 POP SWAP3 SWAP1 POP JUMP JUMPDEST PUSH1 0x0 DUP1 PUSH1 0x0 DUP1 PUSH1 0x0 DUP1 PUSH1 0x0 DUP1 PUSH1 0xE0 DUP10 DUP12 SUB SLT ISZERO PUSH2 0x1904 JUMPI PUSH2 0x1903 PUSH2 0x10FC JUMP JUMPDEST JUMPDEST PUSH1 0x0 PUSH2 0x1912 DUP12 DUP3 DUP13 ADD PUSH2 0x111D JUMP JUMPDEST SWAP9 POP POP PUSH1 0x20 DUP10 ADD CALLDATALOAD PUSH8 0xFFFFFFFFFFFFFFFF DUP2 GT ISZERO PUSH2 0x1933 JUMPI PUSH2 0x1932 PUSH2 0x1101 JUMP JUMPDEST JUMPDEST PUSH2 0x193F DUP12 DUP3 DUP13 ADD PUSH2 0x1631 JUMP JUMPDEST SWAP8 POP POP PUSH1 0x40 DUP10 ADD CALLDATALOAD PUSH8 0xFFFFFFFFFFFFFFFF DUP2 GT ISZERO PUSH2 0x1960 JUMPI PUSH2 0x195F PUSH2 0x1101 JUMP JUMPDEST JUMPDEST PUSH2 0x196C DUP12 DUP3 DUP13 ADD PUSH2 0x1860 JUMP JUMPDEST SWAP7 POP POP PUSH1 0x60 DUP10 ADD CALLDATALOAD PUSH8 0xFFFFFFFFFFFFFFFF DUP2 GT ISZERO PUSH2 0x198D JUMPI PUSH2 0x198C PUSH2 0x1101 JUMP JUMPDEST JUMPDEST PUSH2 0x1999 DUP12 DUP3 DUP13 ADD PUSH2 0x188E JUMP JUMPDEST SWAP6 POP SWAP6 POP POP PUSH1 0x80 PUSH2 0x19AC DUP12 DUP3 DUP13 ADD PUSH2 0x15EA JUMP JUMPDEST SWAP4 POP POP PUSH1 0xA0 PUSH2 0x19BD DUP12 DUP3 DUP13 ADD PUSH2 0x1778 JUMP JUMPDEST SWAP3 POP POP PUSH1 0xC0 PUSH2 0x19CE DUP12 DUP3 DUP13 ADD PUSH2 0x17F0 JUMP JUMPDEST SWAP2 POP POP SWAP3 SWAP6 SWAP9 POP SWAP3 SWAP6 SWAP9 SWAP1 SWAP4 SWAP7 POP JUMP JUMPDEST PUSH1 0x0 DUP1 PUSH1 0x40 DUP4 DUP6 SUB SLT ISZERO PUSH2 0x19F5 JUMPI PUSH2 0x19F4 PUSH2 0x10FC JUMP JUMPDEST JUMPDEST PUSH1 0x0 PUSH2 0x1A03 DUP6 DUP3 DUP7 ADD PUSH2 0x111D JUMP JUMPDEST SWAP3 POP POP PUSH1 0x20 DUP4 ADD CALLDATALOAD PUSH8 0xFFFFFFFFFFFFFFFF DUP2 GT ISZERO PUSH2 0x1A24 JUMPI PUSH2 0x1A23 PUSH2 0x1101 JUMP JUMPDEST JUMPDEST PUSH2 0x1A30 DUP6 DUP3 DUP7 ADD PUSH2 0x1860 JUMP JUMPDEST SWAP2 POP POP SWAP3 POP SWAP3 SWAP1 POP JUMP JUMPDEST PUSH1 0x0 DUP1 PUSH1 0x0 DUP1 PUSH1 0x0 DUP1 PUSH1 0xA0 DUP8 DUP10 SUB SLT ISZERO PUSH2 0x1A57 JUMPI PUSH2 0x1A56 PUSH2 0x10FC JUMP JUMPDEST JUMPDEST PUSH1 0x0 DUP8 ADD CALLDATALOAD PUSH8 0xFFFFFFFFFFFFFFFF DUP2 GT ISZERO PUSH2 0x1A75 JUMPI PUSH2 0x1A74 PUSH2 0x1101 JUMP JUMPDEST JUMPDEST PUSH2 0x1A81 DUP10 DUP3 DUP11 ADD PUSH2 0x1631 JUMP JUMPDEST SWAP7 POP POP PUSH1 0x20 DUP8 ADD CALLDATALOAD PUSH8 0xFFFFFFFFFFFFFFFF DUP2 GT ISZERO PUSH2 0x1AA2 JUMPI PUSH2 0x1AA1 PUSH2 0x1101 JUMP JUMPDEST JUMPDEST PUSH2 0x1AAE DUP10 DUP3 DUP11 ADD PUSH2 0x1860 JUMP JUMPDEST SWAP6 POP POP PUSH1 0x40 DUP8 ADD CALLDATALOAD PUSH8 0xFFFFFFFFFFFFFFFF DUP2 GT ISZERO PUSH2 0x1ACF JUMPI PUSH2 0x1ACE PUSH2 0x1101 JUMP JUMPDEST JUMPDEST PUSH2 0x1ADB DUP10 DUP3 DUP11 ADD PUSH2 0x188E JUMP JUMPDEST SWAP5 POP SWAP5 POP POP PUSH1 0x60 PUSH2 0x1AEE DUP10 DUP3 DUP11 ADD PUSH2 0x15EA JUMP JUMPDEST SWAP3 POP POP PUSH1 0x80 PUSH2 0x1AFF DUP10 DUP3 DUP11 ADD PUSH2 0x1778 JUMP JUMPDEST SWAP2 POP POP SWAP3 SWAP6 POP SWAP3 SWAP6 POP SWAP3 SWAP6 JUMP JUMPDEST PUSH1 0x0 PUSH1 0x20 DUP3 ADD SWAP1 POP PUSH2 0x1B21 PUSH1 0x0 DUP4 ADD DUP5 PUSH2 0x10BA JUMP JUMPDEST SWAP3 SWAP2 POP POP JUMP JUMPDEST PUSH1 0x0 DUP1 PUSH1 0x40 DUP4 DUP6 SUB SLT ISZERO PUSH2 0x1B3E JUMPI PUSH2 0x1B3D PUSH2 0x10FC JUMP JUMPDEST JUMPDEST PUSH1 0x0 PUSH2 0x1B4C DUP6 DUP3 DUP7 ADD PUSH2 0x111D JUMP JUMPDEST SWAP3 POP POP PUSH1 0x20 PUSH2 0x1B5D DUP6 DUP3 DUP7 ADD PUSH2 0x15EA JUMP JUMPDEST SWAP2 POP POP SWAP3 POP SWAP3 SWAP1 POP JUMP JUMPDEST PUSH2 0x1B70 DUP2 PUSH2 0x1132 JUMP JUMPDEST DUP3 MSTORE POP POP JUMP JUMPDEST PUSH1 0x0 PUSH1 0x40 DUP3 ADD SWAP1 POP PUSH2 0x1B8B PUSH1 0x0 DUP4 ADD DUP6 PUSH2 0x10BA JUMP JUMPDEST PUSH2 0x1B98 PUSH1 0x20 DUP4 ADD DUP5 PUSH2 0x1B67 JUMP JUMPDEST SWAP4 SWAP3 POP POP POP JUMP JUMPDEST PUSH1 0x0 DUP1 REVERT JUMPDEST PUSH32 0x4E487B7100000000000000000000000000000000000000000000000000000000 PUSH1 0x0 MSTORE PUSH1 0x41 PUSH1 0x4 MSTORE PUSH1 0x24 PUSH1 0x0 REVERT JUMPDEST PUSH2 0x1BDC DUP3 PUSH2 0x11EE JUMP JUMPDEST DUP2 ADD DUP2 DUP2 LT PUSH8 0xFFFFFFFFFFFFFFFF DUP3 GT OR ISZERO PUSH2 0x1BFB JUMPI PUSH2 0x1BFA PUSH2 0x1BA4 JUMP JUMPDEST JUMPDEST DUP1 PUSH1 0x40 MSTORE POP POP POP JUMP JUMPDEST PUSH1 0x0 PUSH2 0x1C0E PUSH2 0x10F2 JUMP JUMPDEST SWAP1 POP PUSH2 0x1C1A DUP3 DUP3 PUSH2 0x1BD3 JUMP JUMPDEST SWAP2 SWAP1 POP JUMP JUMPDEST PUSH1 0x0 DUP1 REVERT JUMPDEST PUSH1 0x0 DUP1 REVERT JUMPDEST PUSH1 0x0 PUSH8 0xFFFFFFFFFFFFFFFF DUP3 GT ISZERO PUSH2 0x1C44 JUMPI PUSH2 0x1C43 PUSH2 0x1BA4 JUMP JUMPDEST JUMPDEST PUSH2 0x1C4D DUP3 PUSH2 0x11EE JUMP JUMPDEST SWAP1 POP PUSH1 0x20 DUP2 ADD SWAP1 POP SWAP2 SWAP1 POP JUMP JUMPDEST PUSH1 0x0 PUSH2 0x1C6D PUSH2 0x1C68 DUP5 PUSH2 0x1C29 JUMP JUMPDEST PUSH2 0x1C04 JUMP JUMPDEST SWAP1 POP DUP3 DUP2 MSTORE PUSH1 0x20 DUP2 ADD DUP5 DUP5 DUP5 ADD GT ISZERO PUSH2 0x1C89 JUMPI PUSH2 0x1C88 PUSH2 0x1C24 JUMP JUMPDEST JUMPDEST PUSH2 0x1C94 DUP5 DUP3 DUP6 PUSH2 0x11C4 JUMP JUMPDEST POP SWAP4 SWAP3 POP POP POP JUMP JUMPDEST PUSH1 0x0 DUP3 PUSH1 0x1F DUP4 ADD SLT PUSH2 0x1CB1 JUMPI PUSH2 0x1CB0 PUSH2 0x187F JUMP JUMPDEST JUMPDEST DUP2 MLOAD PUSH2 0x1CC1 DUP5 DUP3 PUSH1 0x20 DUP7 ADD PUSH2 0x1C5A JUMP JUMPDEST SWAP2 POP POP SWAP3 SWAP2 POP POP JUMP JUMPDEST PUSH1 0x0 PUSH8 0xFFFFFFFFFFFFFFFF DUP3 GT ISZERO PUSH2 0x1CE5 JUMPI PUSH2 0x1CE4 PUSH2 0x1BA4 JUMP JUMPDEST JUMPDEST PUSH1 0x20 DUP3 MUL SWAP1 POP PUSH1 0x20 DUP2 ADD SWAP1 POP SWAP2 SWAP1 POP JUMP JUMPDEST PUSH1 0x0 PUSH2 0x1D09 PUSH2 0x1D04 DUP5 PUSH2 0x1CCA JUMP JUMPDEST PUSH2 0x1C04 JUMP JUMPDEST SWAP1 POP DUP1 DUP4 DUP3 MSTORE PUSH1 0x20 DUP3 ADD SWAP1 POP PUSH1 0x20 DUP5 MUL DUP4 ADD DUP6 DUP2 GT ISZERO PUSH2 0x1D2C JUMPI PUSH2 0x1D2B PUSH2 0x1889 JUMP JUMPDEST JUMPDEST DUP4 JUMPDEST DUP2 DUP2 LT ISZERO PUSH2 0x1D73 JUMPI DUP1 MLOAD PUSH8 0xFFFFFFFFFFFFFFFF DUP2 GT ISZERO PUSH2 0x1D51 JUMPI PUSH2 0x1D50 PUSH2 0x187F JUMP JUMPDEST JUMPDEST DUP1 DUP7 ADD PUSH2 0x1D5E DUP10 DUP3 PUSH2 0x1C9C JUMP JUMPDEST DUP6 MSTORE PUSH1 0x20 DUP6 ADD SWAP5 POP POP POP PUSH1 0x20 DUP2 ADD SWAP1 POP PUSH2 0x1D2E JUMP JUMPDEST POP POP POP SWAP4 SWAP3 POP POP POP JUMP JUMPDEST PUSH1 0x0 DUP3 PUSH1 0x1F DUP4 ADD SLT PUSH2 0x1D92 JUMPI PUSH2 0x1D91 PUSH2 0x187F JUMP JUMPDEST JUMPDEST DUP2 MLOAD PUSH2 0x1DA2 DUP5 DUP3 PUSH1 0x20 DUP7 ADD PUSH2 0x1CF6 JUMP JUMPDEST SWAP2 POP POP SWAP3 SWAP2 POP POP JUMP JUMPDEST PUSH1 0x0 PUSH8 0xFFFFFFFFFFFFFFFF DUP3 GT ISZERO PUSH2 0x1DC6 JUMPI PUSH2 0x1DC5 PUSH2 0x1BA4 JUMP JUMPDEST JUMPDEST PUSH1 0x20 DUP3 MUL SWAP1 POP PUSH1 0x20 DUP2 ADD SWAP1 POP SWAP2 SWAP1 POP JUMP JUMPDEST PUSH1 0x0 PUSH8 0xFFFFFFFFFFFFFFFF DUP3 GT ISZERO PUSH2 0x1DF2 JUMPI PUSH2 0x1DF1 PUSH2 0x1BA4 JUMP JUMPDEST JUMPDEST PUSH1 0x20 DUP3 MUL SWAP1 POP PUSH1 0x20 DUP2 ADD SWAP1 POP SWAP2 SWAP1 POP JUMP JUMPDEST PUSH1 0x0 DUP2 MLOAD SWAP1 POP PUSH2 0x1E12 DUP2 PUSH2 0x1106 JUMP JUMPDEST SWAP3 SWAP2 POP POP JUMP JUMPDEST PUSH1 0x0 PUSH2 0x1E2B PUSH2 0x1E26 DUP5 PUSH2 0x1DD7 JUMP JUMPDEST PUSH2 0x1C04 JUMP JUMPDEST SWAP1 POP DUP1 DUP4 DUP3 MSTORE PUSH1 0x20 DUP3 ADD SWAP1 POP PUSH1 0x20 DUP5 MUL DUP4 ADD DUP6 DUP2 GT ISZERO PUSH2 0x1E4E JUMPI PUSH2 0x1E4D PUSH2 0x1889 JUMP JUMPDEST JUMPDEST DUP4 JUMPDEST DUP2 DUP2 LT ISZERO PUSH2 0x1E77 JUMPI DUP1 PUSH2 0x1E63 DUP9 DUP3 PUSH2 0x1E03 JUMP JUMPDEST DUP5 MSTORE PUSH1 0x20 DUP5 ADD SWAP4 POP POP PUSH1 0x20 DUP2 ADD SWAP1 POP PUSH2 0x1E50 JUMP JUMPDEST POP POP POP SWAP4 SWAP3 POP POP POP JUMP JUMPDEST PUSH1 0x0 DUP3 PUSH1 0x1F DUP4 ADD SLT PUSH2 0x1E96 JUMPI PUSH2 0x1E95 PUSH2 0x187F JUMP JUMPDEST JUMPDEST DUP2 MLOAD PUSH2 0x1EA6 DUP5 DUP3 PUSH1 0x20 DUP7 ADD PUSH2 0x1E18 JUMP JUMPDEST SWAP2 POP POP SWAP3 SWAP2 POP POP JUMP JUMPDEST PUSH1 0x0 PUSH2 0x1EC2 PUSH2 0x1EBD DUP5 PUSH2 0x1DAB JUMP JUMPDEST PUSH2 0x1C04 JUMP JUMPDEST SWAP1 POP DUP1 DUP4 DUP3 MSTORE PUSH1 0x20 DUP3 ADD SWAP1 POP PUSH1 0x20 DUP5 MUL DUP4 ADD DUP6 DUP2 GT ISZERO PUSH2 0x1EE5 JUMPI PUSH2 0x1EE4 PUSH2 0x1889 JUMP JUMPDEST JUMPDEST DUP4 JUMPDEST DUP2 DUP2 LT ISZERO PUSH2 0x1F2C JUMPI DUP1 MLOAD PUSH8 0xFFFFFFFFFFFFFFFF DUP2 GT ISZERO PUSH2 0x1F0A JUMPI PUSH2 0x1F09 PUSH2 0x187F JUMP JUMPDEST JUMPDEST DUP1 DUP7 ADD PUSH2 0x1F17 DUP10 DUP3 PUSH2 0x1E81 JUMP JUMPDEST DUP6 MSTORE PUSH1 0x20 DUP6 ADD SWAP5 POP POP POP PUSH1 0x20 DUP2 ADD SWAP1 POP PUSH2 0x1EE7 JUMP JUMPDEST POP POP POP SWAP4 SWAP3 POP POP POP JUMP JUMPDEST PUSH1 0x0 DUP3 PUSH1 0x1F DUP4 ADD SLT PUSH2 0x1F4B JUMPI PUSH2 0x1F4A PUSH2 0x187F JUMP JUMPDEST JUMPDEST DUP2 MLOAD PUSH2 0x1F5B DUP5 DUP3 PUSH1 0x20 DUP7 ADD PUSH2 0x1EAF JUMP JUMPDEST SWAP2 POP POP SWAP3 SWAP2 POP POP JUMP JUMPDEST PUSH1 0x0 DUP2 MLOAD SWAP1 POP PUSH2 0x1F73 DUP2 PUSH2 0x113C JUMP JUMPDEST SWAP3 SWAP2 POP POP JUMP JUMPDEST PUSH1 0x0 PUSH2 0x120 DUP3 DUP5 SUB SLT ISZERO PUSH2 0x1F90 JUMPI PUSH2 0x1F8F PUSH2 0x1B9F JUMP JUMPDEST JUMPDEST PUSH2 0x1F9B PUSH2 0x120 PUSH2 0x1C04 JUMP JUMPDEST SWAP1 POP PUSH1 0x0 DUP3 ADD MLOAD PUSH8 0xFFFFFFFFFFFFFFFF DUP2 GT ISZERO PUSH2 0x1FBB JUMPI PUSH2 0x1FBA PUSH2 0x1C1F JUMP JUMPDEST JUMPDEST PUSH2 0x1FC7 DUP5 DUP3 DUP6 ADD PUSH2 0x1C9C JUMP JUMPDEST PUSH1 0x0 DUP4 ADD MSTORE POP PUSH1 0x20 DUP3 ADD MLOAD PUSH8 0xFFFFFFFFFFFFFFFF DUP2 GT ISZERO PUSH2 0x1FEB JUMPI PUSH2 0x1FEA PUSH2 0x1C1F JUMP JUMPDEST JUMPDEST PUSH2 0x1FF7 DUP5 DUP3 DUP6 ADD PUSH2 0x1D7D JUMP JUMPDEST PUSH1 0x20 DUP4 ADD MSTORE POP PUSH1 0x40 DUP3 ADD MLOAD PUSH8 0xFFFFFFFFFFFFFFFF DUP2 GT ISZERO PUSH2 0x201B JUMPI PUSH2 0x201A PUSH2 0x1C1F JUMP JUMPDEST JUMPDEST PUSH2 0x2027 DUP5 DUP3 DUP6 ADD PUSH2 0x1C9C JUMP JUMPDEST PUSH1 0x40 DUP4 ADD MSTORE POP PUSH1 0x60 DUP3 ADD MLOAD PUSH8 0xFFFFFFFFFFFFFFFF DUP2 GT ISZERO PUSH2 0x204B JUMPI PUSH2 0x204A PUSH2 0x1C1F JUMP JUMPDEST JUMPDEST PUSH2 0x2057 DUP5 DUP3 DUP6 ADD PUSH2 0x1F36 JUMP JUMPDEST PUSH1 0x60 DUP4 ADD MSTORE POP PUSH1 0x80 PUSH2 0x206B DUP5 DUP3 DUP6 ADD PUSH2 0x1E03 JUMP JUMPDEST PUSH1 0x80 DUP4 ADD MSTORE POP PUSH1 0xA0 PUSH2 0x207F DUP5 DUP3 DUP6 ADD PUSH2 0x1E03 JUMP JUMPDEST PUSH1 0xA0 DUP4 ADD MSTORE POP PUSH1 0xC0 DUP3 ADD MLOAD PUSH8 0xFFFFFFFFFFFFFFFF DUP2 GT ISZERO PUSH2 0x20A3 JUMPI PUSH2 0x20A2 PUSH2 0x1C1F JUMP JUMPDEST JUMPDEST PUSH2 0x20AF DUP5 DUP3 DUP6 ADD PUSH2 0x1E81 JUMP JUMPDEST PUSH1 0xC0 DUP4 ADD MSTORE POP PUSH1 0xE0 PUSH2 0x20C3 DUP5 DUP3 DUP6 ADD PUSH2 0x1F64 JUMP JUMPDEST PUSH1 0xE0 DUP4 ADD MSTORE POP PUSH2 0x100 DUP3 ADD MLOAD PUSH8 0xFFFFFFFFFFFFFFFF DUP2 GT ISZERO PUSH2 0x20E8 JUMPI PUSH2 0x20E7 PUSH2 0x1C1F JUMP JUMPDEST JUMPDEST PUSH2 0x20F4 DUP5 DUP3 DUP6 ADD PUSH2 0x1C9C JUMP JUMPDEST PUSH2 0x100 DUP4 ADD MSTORE POP SWAP3 SWAP2 POP POP JUMP JUMPDEST PUSH1 0x0 PUSH1 0x20 DUP3 DUP5 SUB SLT ISZERO PUSH2 0x2117 JUMPI PUSH2 0x2116 PUSH2 0x10FC JUMP JUMPDEST JUMPDEST PUSH1 0x0 DUP3 ADD MLOAD PUSH8 0xFFFFFFFFFFFFFFFF DUP2 GT ISZERO PUSH2 0x2135 JUMPI PUSH2 0x2134 PUSH2 0x1101 JUMP JUMPDEST JUMPDEST PUSH2 0x2141 DUP5 DUP3 DUP6 ADD PUSH2 0x1F79 JUMP JUMPDEST SWAP2 POP POP SWAP3 SWAP2 POP POP JUMP JUMPDEST PUSH32 0x4E487B7100000000000000000000000000000000000000000000000000000000 PUSH1 0x0 MSTORE PUSH1 0x32 PUSH1 0x4 MSTORE PUSH1 0x24 PUSH1 0x0 REVERT JUMPDEST PUSH32 0x4E487B7100000000000000000000000000000000000000000000000000000000 PUSH1 0x0 MSTORE PUSH1 0x11 PUSH1 0x4 MSTORE PUSH1 0x24 PUSH1 0x0 REVERT JUMPDEST PUSH1 0x0 PUSH2 0x21B3 DUP3 PUSH2 0x10B0 JUMP JUMPDEST SWAP2 POP PUSH2 0x21BE DUP4 PUSH2 0x10B0 JUMP JUMPDEST SWAP3 POP DUP3 DUP3 SUB SWAP1 POP DUP2 DUP2 GT ISZERO PUSH2 0x21D6 JUMPI PUSH2 0x21D5 PUSH2 0x2179 JUMP JUMPDEST JUMPDEST SWAP3 SWAP2 POP POP JUMP JUMPDEST PUSH32 0x4E487B7100000000000000000000000000000000000000000000000000000000 PUSH1 0x0 MSTORE PUSH1 0x31 PUSH1 0x4 MSTORE PUSH1 0x24 PUSH1 0x0 REVERT JUMPDEST PUSH1 0x0 PUSH1 0x40 DUP3 ADD SWAP1 POP PUSH2 0x2220 PUSH1 0x0 DUP4 ADD DUP6 PUSH2 0x10BA JUMP JUMPDEST PUSH2 0x222D PUSH1 0x20 DUP4 ADD DUP5 PUSH2 0x10BA JUMP JUMPDEST SWAP4 SWAP3 POP POP POP JUMP JUMPDEST PUSH32 0x4E487B7100000000000000000000000000000000000000000000000000000000 PUSH1 0x0 MSTORE PUSH1 0x0 PUSH1 0x4 MSTORE PUSH1 0x24 PUSH1 0x0 REVERT JUMPDEST PUSH1 0x0 DUP1 REVERT JUMPDEST PUSH1 0x0 DUP1 REVERT JUMPDEST PUSH1 0x0 DUP1 REVERT JUMPDEST PUSH1 0x0 DUP1 DUP4 CALLDATALOAD PUSH1 0x1 PUSH1 0x20 SUB DUP5 CALLDATASIZE SUB SUB DUP2 SLT PUSH2 0x228F JUMPI PUSH2 0x228E PUSH2 0x2263 JUMP JUMPDEST JUMPDEST DUP1 DUP5 ADD SWAP3 POP DUP3 CALLDATALOAD SWAP2 POP PUSH8 0xFFFFFFFFFFFFFFFF DUP3 GT ISZERO PUSH2 0x22B1 JUMPI PUSH2 0x22B0 PUSH2 0x2268 JUMP JUMPDEST JUMPDEST PUSH1 0x20 DUP4 ADD SWAP3 POP PUSH1 0x1 DUP3 MUL CALLDATASIZE SUB DUP4 SGT ISZERO PUSH2 0x22CD JUMPI PUSH2 0x22CC PUSH2 0x226D JUMP JUMPDEST JUMPDEST POP SWAP3 POP SWAP3 SWAP1 POP JUMP JUMPDEST PUSH1 0x0 DUP3 SWAP1 POP SWAP3 SWAP2 POP POP JUMP JUMPDEST PUSH32 0x4E487B7100000000000000000000000000000000000000000000000000000000 PUSH1 0x0 MSTORE PUSH1 0x22 PUSH1 0x4 MSTORE PUSH1 0x24 PUSH1 0x0 REVERT JUMPDEST PUSH1 0x0 PUSH1 0x2 DUP3 DIV SWAP1 POP PUSH1 0x1 DUP3 AND DUP1 PUSH2 0x2327 JUMPI PUSH1 0x7F DUP3 AND SWAP2 POP JUMPDEST PUSH1 0x20 DUP3 LT DUP2 SUB PUSH2 0x233A JUMPI PUSH2 0x2339 PUSH2 0x22E0 JUMP JUMPDEST JUMPDEST POP SWAP2 SWAP1 POP JUMP JUMPDEST PUSH1 0x0 DUP2 SWAP1 POP DUP2 PUSH1 0x0 MSTORE PUSH1 0x20 PUSH1 0x0 KECCAK256 SWAP1 POP SWAP2 SWAP1 POP JUMP JUMPDEST PUSH1 0x0 PUSH1 0x20 PUSH1 0x1F DUP4 ADD DIV SWAP1 POP SWAP2 SWAP1 POP JUMP JUMPDEST PUSH1 0x0 DUP3 DUP3 SHL SWAP1 POP SWAP3 SWAP2 POP POP JUMP JUMPDEST PUSH1 0x0 PUSH1 0x8 DUP4 MUL PUSH2 0x23A2 PUSH32 0xFFFFFFFFFFFFFFFFFFFFFFFFFFFFFFFFFFFFFFFFFFFFFFFFFFFFFFFFFFFFFFFF DUP3 PUSH2 0x2365 JUMP JUMPDEST PUSH2 0x23AC DUP7 DUP4 PUSH2 0x2365 JUMP JUMPDEST SWAP6 POP DUP1 NOT DUP5 AND SWAP4 POP DUP1 DUP7 AND DUP5 OR SWAP3 POP POP POP SWAP4 SWAP3 POP POP POP JUMP JUMPDEST PUSH1 0x0 DUP2 SWAP1 POP SWAP2 SWAP1 POP JUMP JUMPDEST PUSH1 0x0 PUSH2 0x23E9 PUSH2 0x23E4 PUSH2 0x23DF DUP5 PUSH2 0x10B0 JUMP JUMPDEST PUSH2 0x23C4 JUMP JUMPDEST PUSH2 0x10B0 JUMP JUMPDEST SWAP1 POP SWAP2 SWAP1 POP JUMP JUMPDEST PUSH1 0x0 DUP2 SWAP1 POP SWAP2 SWAP1 POP JUMP JUMPDEST PUSH2 0x2403 DUP4 PUSH2 0x23CE JUMP JUMPDEST PUSH2 0x2417 PUSH2 0x240F DUP3 PUSH2 0x23F0 JUMP JUMPDEST DUP5 DUP5 SLOAD PUSH2 0x2372 JUMP JUMPDEST DUP3 SSTORE POP POP POP POP JUMP JUMPDEST PUSH1 0x0 SWAP1 JUMP JUMPDEST PUSH2 0x242C PUSH2 0x241F JUMP JUMPDEST PUSH2 0x2437 DUP2 DUP5 DUP5 PUSH2 0x23FA JUMP JUMPDEST POP POP POP JUMP JUMPDEST JUMPDEST DUP2 DUP2 LT ISZERO PUSH2 0x245B JUMPI PUSH2 0x2450 PUSH1 0x0 DUP3 PUSH2 0x2424 JUMP JUMPDEST PUSH1 0x1 DUP2 ADD SWAP1 POP PUSH2 0x243D JUMP JUMPDEST POP POP JUMP JUMPDEST PUSH1 0x1F DUP3 GT ISZERO PUSH2 0x24A0 JUMPI PUSH2 0x2471 DUP2 PUSH2 0x2340 JUMP JUMPDEST PUSH2 0x247A DUP5 PUSH2 0x2355 JUMP JUMPDEST DUP2 ADD PUSH1 0x20 DUP6 LT ISZERO PUSH2 0x2489 JUMPI DUP2 SWAP1 POP JUMPDEST PUSH2 0x249D PUSH2 0x2495 DUP6 PUSH2 0x2355 JUMP JUMPDEST DUP4 ADD DUP3 PUSH2 0x243C JUMP JUMPDEST POP POP JUMPDEST POP POP POP JUMP JUMPDEST PUSH1 0x0 DUP3 DUP3 SHR SWAP1 POP SWAP3 SWAP2 POP POP JUMP JUMPDEST PUSH1 0x0 PUSH2 0x24C3 PUSH1 0x0 NOT DUP5 PUSH1 0x8 MUL PUSH2 0x24A5 JUMP JUMPDEST NOT DUP1 DUP4 AND SWAP2 POP POP SWAP3 SWAP2 POP POP JUMP JUMPDEST PUSH1 0x0 PUSH2 0x24DC DUP4 DUP4 PUSH2 0x24B2 JUMP JUMPDEST SWAP2 POP DUP3 PUSH1 0x2 MUL DUP3 OR SWAP1 POP SWAP3 SWAP2 POP POP JUMP JUMPDEST PUSH2 0x24F6 DUP4 DUP4 PUSH2 0x22D5 JUMP JUMPDEST PUSH8 0xFFFFFFFFFFFFFFFF DUP2 GT ISZERO PUSH2 0x250F JUMPI PUSH2 0x250E PUSH2 0x1BA4 JUMP JUMPDEST JUMPDEST PUSH2 0x2519 DUP3 SLOAD PUSH2 0x230F JUMP JUMPDEST PUSH2 0x2524 DUP3 DUP3 DUP6 PUSH2 0x245F JUMP JUMPDEST PUSH1 0x0 PUSH1 0x1F DUP4 GT PUSH1 0x1 DUP2 EQ PUSH2 0x2553 JUMPI PUSH1 0x0 DUP5 ISZERO PUSH2 0x2541 JUMPI DUP3 DUP8 ADD CALLDATALOAD SWAP1 POP JUMPDEST PUSH2 0x254B DUP6 DUP3 PUSH2 0x24D0 JUMP JUMPDEST DUP7 SSTORE POP PUSH2 0x25B3 JUMP JUMPDEST PUSH1 0x1F NOT DUP5 AND PUSH2 0x2561 DUP7 PUSH2 0x2340 JUMP JUMPDEST PUSH1 0x0 JUMPDEST DUP3 DUP2 LT ISZERO PUSH2 0x2589 JUMPI DUP5 DUP10 ADD CALLDATALOAD DUP3 SSTORE PUSH1 0x1 DUP3 ADD SWAP2 POP PUSH1 0x20 DUP6 ADD SWAP5 POP PUSH1 0x20 DUP2 ADD SWAP1 POP PUSH2 0x2564 JUMP JUMPDEST DUP7 DUP4 LT ISZERO PUSH2 0x25A6 JUMPI DUP5 DUP10 ADD CALLDATALOAD PUSH2 0x25A2 PUSH1 0x1F DUP10 AND DUP3 PUSH2 0x24B2 JUMP JUMPDEST DUP4 SSTORE POP JUMPDEST PUSH1 0x1 PUSH1 0x2 DUP9 MUL ADD DUP9 SSTORE POP POP POP JUMPDEST POP POP POP POP POP POP POP JUMP JUMPDEST PUSH2 0x25C7 DUP4 DUP4 DUP4 PUSH2 0x24EC JUMP JUMPDEST POP POP POP JUMP JUMPDEST PUSH1 0x0 DUP1 DUP4 CALLDATALOAD PUSH1 0x1 PUSH1 0x20 SUB DUP5 CALLDATASIZE SUB SUB DUP2 SLT PUSH2 0x25E9 JUMPI PUSH2 0x25E8 PUSH2 0x2263 JUMP JUMPDEST JUMPDEST DUP1 DUP5 ADD SWAP3 POP DUP3 CALLDATALOAD SWAP2 POP PUSH8 0xFFFFFFFFFFFFFFFF DUP3 GT ISZERO PUSH2 0x260B JUMPI PUSH2 0x260A PUSH2 0x2268 JUMP JUMPDEST JUMPDEST PUSH1 0x20 DUP4 ADD SWAP3 POP PUSH1 0x20 DUP3 MUL CALLDATASIZE SUB DUP4 SGT ISZERO PUSH2 0x2627 JUMPI PUSH2 0x2626 PUSH2 0x226D JUMP JUMPDEST JUMPDEST POP SWAP3 POP SWAP3 SWAP1 POP JUMP JUMPDEST PUSH1 0x0 DUP2 SWAP1 POP SWAP2 SWAP1 POP JUMP JUMPDEST PUSH1 0x0 DUP2 SLOAD SWAP1 POP SWAP2 SWAP1 POP JUMP JUMPDEST PUSH1 0x0 PUSH2 0x264F DUP3 PUSH2 0x10B0 JUMP JUMPDEST SWAP2 POP PUSH2 0x265A DUP4 PUSH2 0x10B0 JUMP JUMPDEST SWAP3 POP DUP3 DUP3 MUL PUSH2 0x2668 DUP2 PUSH2 0x10B0 JUMP JUMPDEST SWAP2 POP DUP3 DUP3 DIV DUP5 EQ DUP4 ISZERO OR PUSH2 0x267F JUMPI PUSH2 0x267E PUSH2 0x2179 JUMP JUMPDEST JUMPDEST POP SWAP3 SWAP2 POP POP JUMP JUMPDEST PUSH1 0x0 DUP2 SWAP1 POP PUSH1 0x1 DUP1 PUSH1 0x1 SUB DUP4 ADD DIV SWAP1 POP SWAP2 SWAP1 POP JUMP JUMPDEST PUSH1 0x0 DUP2 SWAP1 POP DUP2 PUSH1 0x0 MSTORE PUSH1 0x20 PUSH1 0x0 KECCAK256 SWAP1 POP SWAP2 SWAP1 POP JUMP JUMPDEST PUSH2 0x26E0 PUSH32 0xFFFFFFFFFFFFFFFFFFFFFFFFFFFFFFFFFFFFFFFFFFFFFFFFFFFFFFFFFFFFFFFF DUP4 PUSH1 0x20 SUB PUSH1 0x8 MUL PUSH2 0x24A5 JUMP JUMPDEST DUP2 SLOAD DUP2 AND DUP3 SSTORE POP POP POP JUMP JUMPDEST PUSH2 0x26F4 DUP2 PUSH2 0x2340 JUMP JUMPDEST PUSH2 0x26FF DUP4 DUP3 SLOAD PUSH2 0x24D0 JUMP JUMPDEST DUP1 DUP4 SSTORE PUSH1 0x0 DUP3 SSTORE POP POP POP POP JUMP JUMPDEST PUSH1 0x20 DUP5 LT PUSH1 0x0 DUP2 EQ PUSH2 0x2767 JUMPI PUSH1 0x1F DUP5 GT PUSH1 0x1 DUP2 EQ PUSH2 0x2735 JUMPI PUSH2 0x272E DUP7 DUP6 PUSH2 0x24D0 JUMP JUMPDEST DUP4 SSTORE PUSH2 0x2761 JUMP JUMPDEST PUSH2 0x273E DUP4 PUSH2 0x2340 JUMP JUMPDEST PUSH2 0x2755 PUSH2 0x274A DUP8 PUSH2 0x2355 JUMP JUMPDEST DUP3 ADD PUSH1 0x1 DUP4 ADD PUSH2 0x243C JUMP JUMPDEST PUSH2 0x275F DUP8 DUP6 PUSH2 0x26EB JUMP JUMPDEST POP JUMPDEST POP PUSH2 0x27B4 JUMP JUMPDEST PUSH2 0x2770 DUP3 PUSH2 0x2340 JUMP JUMPDEST PUSH2 0x2779 DUP7 PUSH2 0x2355 JUMP JUMPDEST DUP2 ADD PUSH1 0x1F DUP8 AND DUP1 ISZERO PUSH2 0x2793 JUMPI PUSH2 0x2792 DUP2 PUSH1 0x1 DUP5 SUB PUSH2 0x26B0 JUMP JUMPDEST JUMPDEST PUSH2 0x27A7 PUSH2 0x279F DUP9 PUSH2 0x2355 JUMP JUMPDEST DUP5 ADD DUP4 PUSH2 0x243C JUMP JUMPDEST PUSH1 0x1 DUP9 PUSH1 0x2 MUL OR DUP6 SSTORE POP POP POP JUMPDEST POP POP POP POP POP JUMP JUMPDEST PUSH9 0x10000000000000000 DUP5 GT ISZERO PUSH2 0x27D5 JUMPI PUSH2 0x27D4 PUSH2 0x1BA4 JUMP JUMPDEST JUMPDEST PUSH1 0x20 DUP4 LT PUSH1 0x0 DUP2 EQ PUSH2 0x2820 JUMPI PUSH1 0x20 DUP6 LT PUSH1 0x0 DUP2 EQ PUSH2 0x27FE JUMPI PUSH2 0x27F7 DUP7 DUP6 PUSH2 0x24D0 JUMP JUMPDEST DUP4 SSTORE PUSH2 0x281A JUMP JUMPDEST DUP4 PUSH1 0xFF NOT AND SWAP4 POP DUP4 PUSH2 0x280F DUP5 PUSH2 0x2340 JUMP JUMPDEST SSTORE PUSH1 0x1 DUP7 PUSH1 0x2 MUL ADD DUP4 SSTORE JUMPDEST POP PUSH2 0x282A JUMP JUMPDEST PUSH1 0x1 DUP6 PUSH1 0x2 MUL ADD DUP3 SSTORE JUMPDEST POP POP POP POP POP JUMP JUMPDEST DUP1 SLOAD PUSH2 0x283C DUP2 PUSH2 0x230F JUMP JUMPDEST DUP1 DUP5 GT ISZERO PUSH2 0x2851 JUMPI PUSH2 0x2850 DUP5 DUP3 DUP5 DUP7 PUSH2 0x27BB JUMP JUMPDEST JUMPDEST DUP1 DUP5 LT ISZERO PUSH2 0x2866 JUMPI PUSH2 0x2865 DUP5 DUP3 DUP5 DUP7 PUSH2 0x270C JUMP JUMPDEST JUMPDEST POP POP POP POP JUMP JUMPDEST DUP2 DUP2 LT ISZERO PUSH2 0x288A JUMPI PUSH2 0x287F PUSH1 0x0 DUP3 PUSH2 0x2424 JUMP JUMPDEST PUSH1 0x1 DUP2 ADD SWAP1 POP PUSH2 0x286C JUMP JUMPDEST POP POP JUMP JUMPDEST PUSH2 0x2899 PUSH1 0x0 DUP3 PUSH2 0x2831 JUMP JUMPDEST POP JUMP JUMPDEST PUSH1 0x0 DUP3 EQ PUSH2 0x28AD JUMPI PUSH2 0x28AC PUSH2 0x2234 JUMP JUMPDEST JUMPDEST PUSH2 0x28B6 DUP2 PUSH2 0x288E JUMP JUMPDEST POP POP JUMP JUMPDEST JUMPDEST DUP2 DUP2 LT ISZERO PUSH2 0x28D9 JUMPI PUSH2 0x28CE PUSH1 0x0 DUP3 PUSH2 0x289C JUMP JUMPDEST PUSH1 0x1 DUP2 ADD SWAP1 POP PUSH2 0x28BB JUMP JUMPDEST POP POP JUMP JUMPDEST DUP2 DUP4 LT ISZERO PUSH2 0x2916 JUMPI PUSH2 0x28EE DUP3 PUSH2 0x2686 JUMP JUMPDEST PUSH2 0x28F7 DUP5 PUSH2 0x2686 JUMP JUMPDEST PUSH2 0x2900 DUP4 PUSH2 0x269B JUMP JUMPDEST DUP2 DUP2 ADD DUP4 DUP3 ADD PUSH2 0x2910 DUP2 DUP4 PUSH2 0x28BA JUMP JUMPDEST POP POP POP POP POP JUMPDEST POP POP POP JUMP JUMPDEST PUSH9 0x10000000000000000 DUP3 GT ISZERO PUSH2 0x2935 JUMPI PUSH2 0x2934 PUSH2 0x1BA4 JUMP JUMPDEST JUMPDEST PUSH2 0x293E DUP2 PUSH2 0x2639 JUMP JUMPDEST DUP3 DUP3 SSTORE PUSH2 0x294C DUP4 DUP3 DUP5 PUSH2 0x28DD JUMP JUMPDEST POP POP POP JUMP JUMPDEST PUSH1 0x0 DUP3 SWAP1 POP SWAP3 SWAP2 POP POP JUMP JUMPDEST PUSH2 0x2966 DUP4 DUP4 PUSH2 0x2951 JUMP JUMPDEST PUSH2 0x2970 DUP2 DUP4 PUSH2 0x291B JUMP JUMPDEST PUSH2 0x2979 DUP4 PUSH2 0x262F JUMP JUMPDEST PUSH2 0x2982 DUP4 PUSH2 0x269B JUMP JUMPDEST PUSH1 0x0 JUMPDEST DUP4 DUP2 LT ISZERO PUSH2 0x29BB JUMPI PUSH2 0x2997 DUP4 DUP8 PUSH2 0x2272 JUMP JUMPDEST PUSH2 0x29A2 DUP2 DUP4 DUP7 PUSH2 0x25BC JUMP JUMPDEST PUSH1 0x20 DUP6 ADD SWAP5 POP PUSH1 0x1 DUP5 ADD SWAP4 POP POP POP PUSH1 0x1 DUP2 ADD SWAP1 POP PUSH2 0x2985 JUMP JUMPDEST POP POP POP POP POP POP POP JUMP JUMPDEST PUSH2 0x29CF DUP4 DUP4 DUP4 PUSH2 0x295C JUMP JUMPDEST POP POP POP JUMP JUMPDEST PUSH1 0x0 DUP2 CALLDATALOAD PUSH2 0x29E1 DUP2 PUSH2 0x17D9 JUMP JUMPDEST DUP1 SWAP2 POP POP SWAP2 SWAP1 POP JUMP JUMPDEST PUSH1 0x0 DUP2 PUSH1 0x0 SHL SWAP1 POP SWAP2 SWAP1 POP JUMP JUMPDEST PUSH1 0x0 PUSH1 0xFF PUSH2 0x2A04 DUP5 PUSH2 0x29EA JUMP JUMPDEST SWAP4 POP DUP1 NOT DUP4 AND SWAP3 POP DUP1 DUP5 AND DUP4 OR SWAP2 POP POP SWAP3 SWAP2 POP POP JUMP JUMPDEST PUSH1 0x0 PUSH2 0x2A25 DUP3 PUSH2 0x17CD JUMP JUMPDEST SWAP1 POP SWAP2 SWAP1 POP JUMP JUMPDEST PUSH1 0x0 DUP2 SWAP1 POP SWAP2 SWAP1 POP JUMP JUMPDEST PUSH2 0x2A3F DUP3 PUSH2 0x2A1A JUMP JUMPDEST PUSH2 0x2A52 PUSH2 0x2A4B DUP3 PUSH2 0x2A2C JUMP JUMPDEST DUP4 SLOAD PUSH2 0x29F7 JUMP JUMPDEST DUP3 SSTORE POP POP POP JUMP JUMPDEST PUSH1 0x0 DUP2 ADD PUSH1 0x0 DUP4 ADD PUSH2 0x2A6B DUP2 DUP6 PUSH2 0x2272 JUMP JUMPDEST PUSH2 0x2A76 DUP2 DUP4 DUP7 PUSH2 0x25BC JUMP JUMPDEST POP POP POP POP PUSH1 0x1 DUP2 ADD PUSH1 0x20 DUP4 ADD PUSH2 0x2A8C DUP2 DUP6 PUSH2 0x2272 JUMP JUMPDEST PUSH2 0x2A97 DUP2 DUP4 DUP7 PUSH2 0x25BC JUMP JUMPDEST POP POP POP POP PUSH1 0x2 DUP2 ADD PUSH1 0x40 DUP4 ADD PUSH2 0x2AAD DUP2 DUP6 PUSH2 0x25CC JUMP JUMPDEST PUSH2 0x2AB8 DUP2 DUP4 DUP7 PUSH2 0x29C4 JUMP JUMPDEST POP POP POP POP PUSH1 0x3 DUP2 ADD PUSH1 0x60 DUP4 ADD DUP1 PUSH2 0x2ACE DUP2 PUSH2 0x29D4 JUMP JUMPDEST SWAP1 POP PUSH2 0x2ADA DUP2 DUP5 PUSH2 0x2A36 JUMP JUMPDEST POP POP POP POP POP JUMP JUMPDEST PUSH2 0x2AEB DUP3 DUP3 PUSH2 0x2A59 JUMP JUMPDEST POP POP JUMP JUMPDEST PUSH1 0x0 DUP1 REVERT JUMPDEST PUSH1 0x0 DUP1 REVERT JUMPDEST PUSH1 0x0 DUP1 REVERT JUMPDEST PUSH1 0x0 DUP1 DUP4 CALLDATALOAD PUSH1 0x1 PUSH1 0x20 SUB DUP5 CALLDATASIZE SUB SUB DUP2 SLT PUSH2 0x2B1B JUMPI PUSH2 0x2B1A PUSH2 0x2AF9 JUMP JUMPDEST JUMPDEST DUP4 DUP2 ADD SWAP3 POP DUP3 CALLDATALOAD SWAP2 POP PUSH1 0x20 DUP4 ADD SWAP3 POP PUSH8 0xFFFFFFFFFFFFFFFF DUP3 GT ISZERO PUSH2 0x2B43 JUMPI PUSH2 0x2B42 PUSH2 0x2AEF JUMP JUMPDEST JUMPDEST PUSH1 0x1 DUP3 MUL CALLDATASIZE SUB DUP4 SGT ISZERO PUSH2 0x2B59 JUMPI PUSH2 0x2B58 PUSH2 0x2AF4 JUMP JUMPDEST JUMPDEST POP SWAP3 POP SWAP3 SWAP1 POP JUMP JUMPDEST DUP3 DUP2 DUP4 CALLDATACOPY PUSH1 0x0 DUP4 DUP4 ADD MSTORE POP POP POP JUMP JUMPDEST PUSH1 0x0 PUSH2 0x2B7C DUP4 DUP6 PUSH2 0x11B3 JUMP JUMPDEST SWAP4 POP PUSH2 0x2B89 DUP4 DUP6 DUP5 PUSH2 0x2B61 JUMP JUMPDEST PUSH2 0x2B92 DUP4 PUSH2 0x11EE JUMP JUMPDEST DUP5 ADD SWAP1 POP SWAP4 SWAP3 POP POP POP JUMP JUMPDEST PUSH1 0x0 DUP1 DUP4 CALLDATALOAD PUSH1 0x1 PUSH1 0x20 SUB DUP5 CALLDATASIZE SUB SUB DUP2 SLT PUSH2 0x2BBA JUMPI PUSH2 0x2BB9 PUSH2 0x2AF9 JUMP JUMPDEST JUMPDEST DUP4 DUP2 ADD SWAP3 POP DUP3 CALLDATALOAD SWAP2 POP PUSH1 0x20 DUP4 ADD SWAP3 POP PUSH8 0xFFFFFFFFFFFFFFFF DUP3 GT ISZERO PUSH2 0x2BE2 JUMPI PUSH2 0x2BE1 PUSH2 0x2AEF JUMP JUMPDEST JUMPDEST PUSH1 0x20 DUP3 MUL CALLDATASIZE SUB DUP4 SGT ISZERO PUSH2 0x2BF8 JUMPI PUSH2 0x2BF7 PUSH2 0x2AF4 JUMP JUMPDEST JUMPDEST POP SWAP3 POP SWAP3 SWAP1 POP JUMP JUMPDEST PUSH1 0x0 PUSH2 0x2C0D DUP5 DUP5 DUP5 PUSH2 0x2B70 JUMP JUMPDEST SWAP1 POP SWAP4 SWAP3 POP POP POP JUMP JUMPDEST PUSH1 0x0 PUSH1 0x20 DUP3 ADD SWAP1 POP SWAP2 SWAP1 POP JUMP JUMPDEST PUSH1 0x0 PUSH2 0x2C2F DUP4 DUP6 PUSH2 0x1243 JUMP JUMPDEST SWAP4 POP DUP4 PUSH1 0x20 DUP5 MUL DUP6 ADD PUSH2 0x2C41 DUP5 PUSH2 0x262F JUMP JUMPDEST DUP1 PUSH1 0x0 JUMPDEST DUP8 DUP2 LT ISZERO PUSH2 0x2C87 JUMPI DUP5 DUP5 SUB DUP10 MSTORE PUSH2 0x2C5C DUP3 DUP5 PUSH2 0x2AFE JUMP JUMPDEST PUSH2 0x2C67 DUP7 DUP3 DUP5 PUSH2 0x2C00 JUMP JUMPDEST SWAP6 POP PUSH2 0x2C72 DUP5 PUSH2 0x2C16 JUMP JUMPDEST SWAP4 POP PUSH1 0x20 DUP12 ADD SWAP11 POP POP POP PUSH1 0x1 DUP2 ADD SWAP1 POP PUSH2 0x2C45 JUMP JUMPDEST POP DUP3 SWAP8 POP DUP8 SWAP5 POP POP POP POP POP SWAP4 SWAP3 POP POP POP JUMP JUMPDEST PUSH1 0x0 PUSH2 0x2CA8 PUSH1 0x20 DUP5 ADD DUP5 PUSH2 0x17F0 JUMP JUMPDEST SWAP1 POP SWAP3 SWAP2 POP POP JUMP JUMPDEST PUSH2 0x2CB9 DUP2 PUSH2 0x17CD JUMP JUMPDEST DUP3 MSTORE POP POP JUMP JUMPDEST PUSH1 0x0 PUSH1 0x80 DUP4 ADD PUSH2 0x2CD2 PUSH1 0x0 DUP5 ADD DUP5 PUSH2 0x2AFE JUMP JUMPDEST DUP6 DUP4 SUB PUSH1 0x0 DUP8 ADD MSTORE PUSH2 0x2CE5 DUP4 DUP3 DUP5 PUSH2 0x2B70 JUMP JUMPDEST SWAP3 POP POP POP PUSH2 0x2CF6 PUSH1 0x20 DUP5 ADD DUP5 PUSH2 0x2AFE JUMP JUMPDEST DUP6 DUP4 SUB PUSH1 0x20 DUP8 ADD MSTORE PUSH2 0x2D09 DUP4 DUP3 DUP5 PUSH2 0x2B70 JUMP JUMPDEST SWAP3 POP POP POP PUSH2 0x2D1A PUSH1 0x40 DUP5 ADD DUP5 PUSH2 0x2B9D JUMP JUMPDEST DUP6 DUP4 SUB PUSH1 0x40 DUP8 ADD MSTORE PUSH2 0x2D2D DUP4 DUP3 DUP5 PUSH2 0x2C23 JUMP JUMPDEST SWAP3 POP POP POP PUSH2 0x2D3E PUSH1 0x60 DUP5 ADD DUP5 PUSH2 0x2C99 JUMP JUMPDEST PUSH2 0x2D4B PUSH1 0x60 DUP7 ADD DUP3 PUSH2 0x2CB0 JUMP JUMPDEST POP DUP1 SWAP2 POP POP SWAP3 SWAP2 POP POP JUMP JUMPDEST PUSH1 0x0 PUSH1 0x40 DUP3 ADD SWAP1 POP PUSH2 0x2D6B PUSH1 0x0 DUP4 ADD DUP6 PUSH2 0x10BA JUMP JUMPDEST DUP2 DUP2 SUB PUSH1 0x20 DUP4 ADD MSTORE PUSH2 0x2D7D DUP2 DUP5 PUSH2 0x2CBF JUMP JUMPDEST SWAP1 POP SWAP4 SWAP3 POP POP POP JUMP JUMPDEST PUSH1 0x0 DUP1 DUP4 CALLDATALOAD PUSH1 0x1 PUSH1 0x20 SUB DUP5 CALLDATASIZE SUB SUB DUP2 SLT PUSH2 0x2DA3 JUMPI PUSH2 0x2DA2 PUSH2 0x2AF9 JUMP JUMPDEST JUMPDEST DUP4 DUP2 ADD SWAP3 POP DUP3 CALLDATALOAD SWAP2 POP PUSH1 0x20 DUP4 ADD SWAP3 POP PUSH8 0xFFFFFFFFFFFFFFFF DUP3 GT ISZERO PUSH2 0x2DCB JUMPI PUSH2 0x2DCA PUSH2 0x2AEF JUMP JUMPDEST JUMPDEST PUSH1 0x20 DUP3 MUL CALLDATASIZE SUB DUP4 SGT ISZERO PUSH2 0x2DE1 JUMPI PUSH2 0x2DE0 PUSH2 0x2AF4 JUMP JUMPDEST JUMPDEST POP SWAP3 POP SWAP3 SWAP1 POP JUMP JUMPDEST PUSH1 0x0 DUP2 SWAP1 POP SWAP2 SWAP1 POP JUMP JUMPDEST PUSH1 0x0 DUP1 REVERT JUMPDEST DUP3 DUP2 DUP4 CALLDATACOPY POP POP POP JUMP JUMPDEST PUSH1 0x0 PUSH2 0x2E0D DUP4 DUP6 PUSH2 0x1331 JUMP JUMPDEST SWAP4 POP PUSH32 0x7FFFFFFFFFFFFFFFFFFFFFFFFFFFFFFFFFFFFFFFFFFFFFFFFFFFFFFFFFFFFFF DUP4 GT ISZERO PUSH2 0x2E40 JUMPI PUSH2 0x2E3F PUSH2 0x2DF3 JUMP JUMPDEST JUMPDEST PUSH1 0x20 DUP4 MUL SWAP3 POP PUSH2 0x2E51 DUP4 DUP6 DUP5 PUSH2 0x2DF8 JUMP JUMPDEST DUP3 DUP5 ADD SWAP1 POP SWAP4 SWAP3 POP POP POP JUMP JUMPDEST PUSH1 0x0 PUSH2 0x2E6A DUP5 DUP5 DUP5 PUSH2 0x2E01 JUMP JUMPDEST SWAP1 POP SWAP4 SWAP3 POP POP POP JUMP JUMPDEST PUSH1 0x0 DUP1 DUP4 CALLDATALOAD PUSH1 0x1 PUSH1 0x20 SUB DUP5 CALLDATASIZE SUB SUB DUP2 SLT PUSH2 0x2E90 JUMPI PUSH2 0x2E8F PUSH2 0x2AF9 JUMP JUMPDEST JUMPDEST DUP4 DUP2 ADD SWAP3 POP DUP3 CALLDATALOAD SWAP2 POP PUSH1 0x20 DUP4 ADD SWAP3 POP PUSH8 0xFFFFFFFFFFFFFFFF DUP3 GT ISZERO PUSH2 0x2EB8 JUMPI PUSH2 0x2EB7 PUSH2 0x2AEF JUMP JUMPDEST JUMPDEST PUSH1 0x20 DUP3 MUL CALLDATASIZE SUB DUP4 SGT ISZERO PUSH2 0x2ECE JUMPI PUSH2 0x2ECD PUSH2 0x2AF4 JUMP JUMPDEST JUMPDEST POP SWAP3 POP SWAP3 SWAP1 POP JUMP JUMPDEST PUSH1 0x0 PUSH1 0x20 DUP3 ADD SWAP1 POP SWAP2 SWAP1 POP JUMP JUMPDEST PUSH1 0x0 PUSH2 0x2EEF DUP4 DUP6 PUSH2 0x1305 JUMP JUMPDEST SWAP4 POP DUP4 PUSH1 0x20 DUP5 MUL DUP6 ADD PUSH2 0x2F01 DUP5 PUSH2 0x2DE9 JUMP JUMPDEST DUP1 PUSH1 0x0 JUMPDEST DUP8 DUP2 LT ISZERO PUSH2 0x2F47 JUMPI DUP5 DUP5 SUB DUP10 MSTORE PUSH2 0x2F1C DUP3 DUP5 PUSH2 0x2E73 JUMP JUMPDEST PUSH2 0x2F27 DUP7 DUP3 DUP5 PUSH2 0x2E5D JUMP JUMPDEST SWAP6 POP PUSH2 0x2F32 DUP5 PUSH2 0x2ED6 JUMP JUMPDEST SWAP4 POP PUSH1 0x20 DUP12 ADD SWAP11 POP POP POP PUSH1 0x1 DUP2 ADD SWAP1 POP PUSH2 0x2F05 JUMP JUMPDEST POP DUP3 SWAP8 POP DUP8 SWAP5 POP POP POP POP POP SWAP4 SWAP3 POP POP POP JUMP JUMPDEST PUSH1 0x0 PUSH2 0x2F68 PUSH1 0x20 DUP5 ADD DUP5 PUSH2 0x111D JUMP JUMPDEST SWAP1 POP SWAP3 SWAP2 POP POP JUMP JUMPDEST PUSH1 0x0 PUSH2 0x2F7F PUSH1 0x20 DUP5 ADD DUP5 PUSH2 0x1153 JUMP JUMPDEST SWAP1 POP SWAP3 SWAP2 POP POP JUMP JUMPDEST PUSH1 0x0 PUSH2 0x120 DUP4 ADD PUSH2 0x2F9B PUSH1 0x0 DUP5 ADD DUP5 PUSH2 0x2AFE JUMP JUMPDEST DUP6 DUP4 SUB PUSH1 0x0 DUP8 ADD MSTORE PUSH2 0x2FAE DUP4 DUP3 DUP5 PUSH2 0x2B70 JUMP JUMPDEST SWAP3 POP POP POP PUSH2 0x2FBF PUSH1 0x20 DUP5 ADD DUP5 PUSH2 0x2B9D JUMP JUMPDEST DUP6 DUP4 SUB PUSH1 0x20 DUP8 ADD MSTORE PUSH2 0x2FD2 DUP4 DUP3 DUP5 PUSH2 0x2C23 JUMP JUMPDEST SWAP3 POP POP POP PUSH2 0x2FE3 PUSH1 0x40 DUP5 ADD DUP5 PUSH2 0x2AFE JUMP JUMPDEST DUP6 DUP4 SUB PUSH1 0x40 DUP8 ADD MSTORE PUSH2 0x2FF6 DUP4 DUP3 DUP5 PUSH2 0x2B70 JUMP JUMPDEST SWAP3 POP POP POP PUSH2 0x3007 PUSH1 0x60 DUP5 ADD DUP5 PUSH2 0x2D86 JUMP JUMPDEST DUP6 DUP4 SUB PUSH1 0x60 DUP8 ADD MSTORE PUSH2 0x301A DUP4 DUP3 DUP5 PUSH2 0x2EE3 JUMP JUMPDEST SWAP3 POP POP POP PUSH2 0x302B PUSH1 0x80 DUP5 ADD DUP5 PUSH2 0x2F59 JUMP JUMPDEST PUSH2 0x3038 PUSH1 0x80 DUP7 ADD DUP3 PUSH2 0x1352 JUMP JUMPDEST POP PUSH2 0x3046 PUSH1 0xA0 DUP5 ADD DUP5 PUSH2 0x2F59 JUMP JUMPDEST PUSH2 0x3053 PUSH1 0xA0 DUP7 ADD DUP3 PUSH2 0x1352 JUMP JUMPDEST POP PUSH2 0x3061 PUSH1 0xC0 DUP5 ADD DUP5 PUSH2 0x2E73 JUMP JUMPDEST DUP6 DUP4 SUB PUSH1 0xC0 DUP8 ADD MSTORE PUSH2 0x3074 DUP4 DUP3 DUP5 PUSH2 0x2E01 JUMP JUMPDEST SWAP3 POP POP POP PUSH2 0x3085 PUSH1 0xE0 DUP5 ADD DUP5 PUSH2 0x2F70 JUMP JUMPDEST PUSH2 0x3092 PUSH1 0xE0 DUP7 ADD DUP3 PUSH2 0x147A JUMP JUMPDEST POP PUSH2 0x30A1 PUSH2 0x100 DUP5 ADD DUP5 PUSH2 0x2AFE JUMP JUMPDEST DUP6 DUP4 SUB PUSH2 0x100 DUP8 ADD MSTORE PUSH2 0x30B5 DUP4 DUP3 DUP5 PUSH2 0x2B70 JUMP JUMPDEST SWAP3 POP POP POP DUP1 SWAP2 POP POP SWAP3 SWAP2 POP POP JUMP JUMPDEST PUSH1 0x0 PUSH1 0x60 DUP3 ADD SWAP1 POP PUSH2 0x30D8 PUSH1 0x0 DUP4 ADD DUP7 PUSH2 0x10BA JUMP JUMPDEST PUSH2 0x30E5 PUSH1 0x20 DUP4 ADD DUP6 PUSH2 0x1B67 JUMP JUMPDEST DUP2 DUP2 SUB PUSH1 0x40 DUP4 ADD MSTORE PUSH2 0x30F7 DUP2 DUP5 PUSH2 0x2F87 JUMP JUMPDEST SWAP1 POP SWAP5 SWAP4 POP POP POP POP JUMP JUMPDEST PUSH32 0x4E487B7100000000000000000000000000000000000000000000000000000000 PUSH1 0x0 MSTORE PUSH1 0x21 PUSH1 0x4 MSTORE PUSH1 0x24 PUSH1 0x0 REVERT JUMPDEST PUSH1 0x2 DUP2 LT PUSH2 0x3141 JUMPI PUSH2 0x3140 PUSH2 0x3101 JUMP JUMPDEST JUMPDEST POP JUMP JUMPDEST PUSH1 0x0 DUP2 SWAP1 POP PUSH2 0x3152 DUP3 PUSH2 0x3130 JUMP JUMPDEST SWAP2 SWAP1 POP JUMP JUMPDEST PUSH1 0x0 PUSH2 0x3162 DUP3 PUSH2 0x3144 JUMP JUMPDEST SWAP1 POP SWAP2 SWAP1 POP JUMP JUMPDEST PUSH2 0x3172 DUP2 PUSH2 0x3157 JUMP JUMPDEST DUP3 MSTORE POP POP JUMP JUMPDEST PUSH1 0x0 PUSH1 0x40 DUP3 ADD SWAP1 POP PUSH2 0x318D PUSH1 0x0 DUP4 ADD DUP6 PUSH2 0x10BA JUMP JUMPDEST PUSH2 0x319A PUSH1 0x20 DUP4 ADD DUP5 PUSH2 0x3169 JUMP JUMPDEST SWAP4 SWAP3 POP POP POP JUMP JUMPDEST PUSH2 0x31AA DUP2 PUSH2 0x17CD JUMP JUMPDEST DUP3 MSTORE POP POP JUMP JUMPDEST PUSH1 0x0 PUSH1 0x40 DUP3 ADD SWAP1 POP PUSH2 0x31C5 PUSH1 0x0 DUP4 ADD DUP6 PUSH2 0x10BA JUMP JUMPDEST PUSH2 0x31D2 PUSH1 0x20 DUP4 ADD DUP5 PUSH2 0x31A1 JUMP JUMPDEST SWAP4 SWAP3 POP POP POP JUMP JUMPDEST PUSH1 0x6 DUP2 LT PUSH2 0x31E6 JUMPI PUSH1 0x0 DUP1 REVERT JUMPDEST POP JUMP JUMPDEST PUSH1 0x6 DUP2 LT PUSH2 0x31FA JUMPI PUSH2 0x31F9 PUSH2 0x3101 JUMP JUMPDEST JUMPDEST POP JUMP JUMPDEST PUSH1 0x0 DUP2 SWAP1 POP PUSH2 0x320B DUP3 PUSH2 0x31E9 JUMP JUMPDEST SWAP2 SWAP1 POP JUMP JUMPDEST PUSH1 0x0 DUP2 CALLDATALOAD PUSH2 0x321D DUP2 PUSH2 0x31D9 JUMP JUMPDEST DUP1 SWAP2 POP POP SWAP2 SWAP1 POP JUMP JUMPDEST PUSH1 0x0 PUSH2 0x3231 DUP3 PUSH2 0x31FD JUMP JUMPDEST SWAP1 POP SWAP2 SWAP1 POP JUMP JUMPDEST PUSH1 0x0 DUP2 SWAP1 POP SWAP2 SWAP1 POP JUMP JUMPDEST PUSH2 0x324B DUP3 PUSH2 0x3226 JUMP JUMPDEST PUSH2 0x325E PUSH2 0x3257 DUP3 PUSH2 0x3238 JUMP JUMPDEST DUP4 SLOAD PUSH2 0x29F7 JUMP JUMPDEST DUP3 SSTORE POP POP POP JUMP JUMPDEST PUSH1 0x0 DUP1 DUP4 CALLDATALOAD PUSH1 0x1 PUSH1 0x20 SUB DUP5 CALLDATASIZE SUB SUB DUP2 SLT PUSH2 0x3282 JUMPI PUSH2 0x3281 PUSH2 0x2263 JUMP JUMPDEST JUMPDEST DUP1 DUP5 ADD SWAP3 POP DUP3 CALLDATALOAD SWAP2 POP PUSH8 0xFFFFFFFFFFFFFFFF DUP3 GT ISZERO PUSH2 0x32A4 JUMPI PUSH2 0x32A3 PUSH2 0x2268 JUMP JUMPDEST JUMPDEST PUSH1 0x20 DUP4 ADD SWAP3 POP PUSH1 0x20 DUP3 MUL CALLDATASIZE SUB DUP4 SGT ISZERO PUSH2 0x32C0 JUMPI PUSH2 0x32BF PUSH2 0x226D JUMP JUMPDEST JUMPDEST POP SWAP3 POP SWAP3 SWAP1 POP JUMP JUMPDEST PUSH1 0x0 DUP2 SWAP1 POP SWAP2 SWAP1 POP JUMP JUMPDEST PUSH1 0x0 DUP3 CALLDATALOAD PUSH1 0x1 PUSH1 0x40 SUB DUP4 CALLDATASIZE SUB SUB DUP2 SLT PUSH2 0x32EE JUMPI PUSH2 0x32ED PUSH2 0x2263 JUMP JUMPDEST JUMPDEST DUP1 DUP4 ADD SWAP2 POP POP SWAP3 SWAP2 POP POP JUMP JUMPDEST PUSH1 0x0 DUP2 SLOAD SWAP1 POP SWAP2 SWAP1 POP JUMP JUMPDEST PUSH1 0x0 DUP2 SWAP1 POP PUSH2 0x3315 DUP3 PUSH1 0x2 PUSH2 0x2644 JUMP JUMPDEST SWAP1 POP SWAP2 SWAP1 POP JUMP JUMPDEST PUSH1 0x0 DUP2 SWAP1 POP DUP2 PUSH1 0x0 MSTORE PUSH1 0x20 PUSH1 0x0 KECCAK256 SWAP1 POP SWAP2 SWAP1 POP JUMP JUMPDEST PUSH2 0x333E PUSH1 0x0 DUP1 DUP4 ADD PUSH2 0x289C JUMP JUMPDEST PUSH1 0x0 PUSH1 0x1 DUP3 ADD SSTORE POP JUMP JUMPDEST PUSH1 0x0 DUP3 EQ PUSH2 0x3359 JUMPI PUSH2 0x3358 PUSH2 0x2234 JUMP JUMPDEST JUMPDEST PUSH2 0x3362 DUP2 PUSH2 0x3331 JUMP JUMPDEST POP POP JUMP JUMPDEST JUMPDEST DUP2 DUP2 LT ISZERO PUSH2 0x3385 JUMPI PUSH2 0x337A PUSH1 0x0 DUP3 PUSH2 0x3348 JUMP JUMPDEST PUSH1 0x2 DUP2 ADD SWAP1 POP PUSH2 0x3367 JUMP JUMPDEST POP POP JUMP JUMPDEST DUP2 DUP4 LT ISZERO PUSH2 0x33C2 JUMPI PUSH2 0x339A DUP3 PUSH2 0x3305 JUMP JUMPDEST PUSH2 0x33A3 DUP5 PUSH2 0x3305 JUMP JUMPDEST PUSH2 0x33AC DUP4 PUSH2 0x331C JUMP JUMPDEST DUP2 DUP2 ADD DUP4 DUP3 ADD PUSH2 0x33BC DUP2 DUP4 PUSH2 0x3366 JUMP JUMPDEST POP POP POP POP POP JUMPDEST POP POP POP JUMP JUMPDEST PUSH9 0x10000000000000000 DUP3 GT ISZERO PUSH2 0x33E1 JUMPI PUSH2 0x33E0 PUSH2 0x1BA4 JUMP JUMPDEST JUMPDEST PUSH2 0x33EA DUP2 PUSH2 0x32FA JUMP JUMPDEST DUP3 DUP3 SSTORE PUSH2 0x33F8 DUP4 DUP3 DUP5 PUSH2 0x3389 JUMP JUMPDEST POP POP POP JUMP JUMPDEST PUSH1 0x0 DUP3 SWAP1 POP SWAP3 SWAP2 POP POP JUMP JUMPDEST PUSH1 0x0 DUP2 CALLDATALOAD PUSH2 0x3415 DUP2 PUSH2 0x15D3 JUMP JUMPDEST DUP1 SWAP2 POP POP SWAP2 SWAP1 POP JUMP JUMPDEST PUSH1 0x0 PUSH20 0xFFFFFFFFFFFFFFFFFFFFFFFFFFFFFFFFFFFFFFFF PUSH2 0x343E DUP5 PUSH2 0x29EA JUMP JUMPDEST SWAP4 POP DUP1 NOT DUP4 AND SWAP3 POP DUP1 DUP5 AND DUP4 OR SWAP2 POP POP SWAP3 SWAP2 POP POP JUMP JUMPDEST PUSH1 0x0 PUSH2 0x346F PUSH2 0x346A PUSH2 0x3465 DUP5 PUSH2 0x106F JUMP JUMPDEST PUSH2 0x23C4 JUMP JUMPDEST PUSH2 0x106F JUMP JUMPDEST SWAP1 POP SWAP2 SWAP1 POP JUMP JUMPDEST PUSH1 0x0 PUSH2 0x3481 DUP3 PUSH2 0x3454 JUMP JUMPDEST SWAP1 POP SWAP2 SWAP1 POP JUMP JUMPDEST PUSH1 0x0 PUSH2 0x3493 DUP3 PUSH2 0x3476 JUMP JUMPDEST SWAP1 POP SWAP2 SWAP1 POP JUMP JUMPDEST PUSH1 0x0 DUP2 SWAP1 POP SWAP2 SWAP1 POP JUMP JUMPDEST PUSH2 0x34AD DUP3 PUSH2 0x3488 JUMP JUMPDEST PUSH2 0x34C0 PUSH2 0x34B9 DUP3 PUSH2 0x349A JUMP JUMPDEST DUP4 SLOAD PUSH2 0x341E JUMP JUMPDEST DUP3 SSTORE POP POP POP JUMP JUMPDEST PUSH1 0x0 DUP2 ADD PUSH1 0x0 DUP4 ADD PUSH2 0x34D9 DUP2 DUP6 PUSH2 0x2272 JUMP JUMPDEST PUSH2 0x34E4 DUP2 DUP4 DUP7 PUSH2 0x25BC JUMP JUMPDEST POP POP POP POP PUSH1 0x1 DUP2 ADD PUSH1 0x20 DUP4 ADD DUP1 PUSH2 0x34FA DUP2 PUSH2 0x3408 JUMP JUMPDEST SWAP1 POP PUSH2 0x3506 DUP2 DUP5 PUSH2 0x34A4 JUMP JUMPDEST POP POP POP POP POP JUMP JUMPDEST PUSH2 0x3517 DUP3 DUP3 PUSH2 0x34C7 JUMP JUMPDEST POP POP JUMP JUMPDEST PUSH2 0x3525 DUP4 DUP4 PUSH2 0x33FD JUMP JUMPDEST PUSH2 0x352F DUP2 DUP4 PUSH2 0x33C7 JUMP JUMPDEST PUSH2 0x3538 DUP4 PUSH2 0x32C8 JUMP JUMPDEST PUSH2 0x3541 DUP4 PUSH2 0x331C JUMP JUMPDEST PUSH1 0x0 JUMPDEST DUP4 DUP2 LT ISZERO PUSH2 0x3578 JUMPI PUSH2 0x3556 DUP4 DUP8 PUSH2 0x32D2 JUMP JUMPDEST PUSH2 0x3560 DUP2 DUP5 PUSH2 0x350D JUMP JUMPDEST PUSH1 0x20 DUP5 ADD SWAP4 POP PUSH1 0x2 DUP4 ADD SWAP3 POP POP PUSH1 0x1 DUP2 ADD SWAP1 POP PUSH2 0x3544 JUMP JUMPDEST POP POP POP POP POP POP POP JUMP JUMPDEST PUSH2 0x358C DUP4 DUP4 DUP4 PUSH2 0x351B JUMP JUMPDEST POP POP POP JUMP JUMPDEST PUSH1 0x0 DUP2 ADD PUSH1 0x0 DUP4 ADD DUP1 PUSH2 0x35A3 DUP2 PUSH2 0x3210 JUMP JUMPDEST SWAP1 POP PUSH2 0x35AF DUP2 DUP5 PUSH2 0x3242 JUMP JUMPDEST POP POP POP PUSH1 0x1 DUP2 ADD PUSH1 0x20 DUP4 ADD PUSH2 0x35C4 DUP2 DUP6 PUSH2 0x3265 JUMP JUMPDEST PUSH2 0x35CF DUP2 DUP4 DUP7 PUSH2 0x3581 JUMP JUMPDEST POP POP POP POP POP POP JUMP JUMPDEST PUSH2 0x35E1 DUP3 DUP3 PUSH2 0x3591 JUMP JUMPDEST POP POP JUMP JUMPDEST PUSH1 0x0 DUP2 CALLDATALOAD SWAP1 POP PUSH2 0x35F4 DUP2 PUSH2 0x31D9 JUMP JUMPDEST SWAP3 SWAP2 POP POP JUMP JUMPDEST PUSH1 0x0 PUSH2 0x3609 PUSH1 0x20 DUP5 ADD DUP5 PUSH2 0x35E5 JUMP JUMPDEST SWAP1 POP SWAP3 SWAP2 POP POP JUMP JUMPDEST PUSH1 0x0 PUSH2 0x361C DUP3 PUSH2 0x31FD JUMP JUMPDEST SWAP1 POP SWAP2 SWAP1 POP JUMP JUMPDEST PUSH2 0x362C DUP2 PUSH2 0x3611 JUMP JUMPDEST DUP3 MSTORE POP POP JUMP JUMPDEST PUSH1 0x0 DUP1 DUP4 CALLDATALOAD PUSH1 0x1 PUSH1 0x20 SUB DUP5 CALLDATASIZE SUB SUB DUP2 SLT PUSH2 0x364F JUMPI PUSH2 0x364E PUSH2 0x2AF9 JUMP JUMPDEST JUMPDEST DUP4 DUP2 ADD SWAP3 POP DUP3 CALLDATALOAD SWAP2 POP PUSH1 0x20 DUP4 ADD SWAP3 POP PUSH8 0xFFFFFFFFFFFFFFFF DUP3 GT ISZERO PUSH2 0x3677 JUMPI PUSH2 0x3676 PUSH2 0x2AEF JUMP JUMPDEST JUMPDEST PUSH1 0x20 DUP3 MUL CALLDATASIZE SUB DUP4 SGT ISZERO PUSH2 0x368D JUMPI PUSH2 0x368C PUSH2 0x2AF4 JUMP JUMPDEST JUMPDEST POP SWAP3 POP SWAP3 SWAP1 POP JUMP JUMPDEST PUSH1 0x0 DUP3 DUP3 MSTORE PUSH1 0x20 DUP3 ADD SWAP1 POP SWAP3 SWAP2 POP POP JUMP JUMPDEST PUSH1 0x0 PUSH2 0x36B5 PUSH1 0x20 DUP5 ADD DUP5 PUSH2 0x15EA JUMP JUMPDEST SWAP1 POP SWAP3 SWAP2 POP POP JUMP JUMPDEST PUSH2 0x36C6 DUP2 PUSH2 0x108F JUMP JUMPDEST DUP3 MSTORE POP POP JUMP JUMPDEST PUSH1 0x0 PUSH1 0x40 DUP4 ADD PUSH2 0x36DF PUSH1 0x0 DUP5 ADD DUP5 PUSH2 0x2AFE JUMP JUMPDEST DUP6 DUP4 SUB PUSH1 0x0 DUP8 ADD MSTORE PUSH2 0x36F2 DUP4 DUP3 DUP5 PUSH2 0x2B70 JUMP JUMPDEST SWAP3 POP POP POP PUSH2 0x3703 PUSH1 0x20 DUP5 ADD DUP5 PUSH2 0x36A6 JUMP JUMPDEST PUSH2 0x3710 PUSH1 0x20 DUP7 ADD DUP3 PUSH2 0x36BD JUMP JUMPDEST POP DUP1 SWAP2 POP POP SWAP3 SWAP2 POP POP JUMP JUMPDEST PUSH1 0x0 PUSH2 0x3727 DUP4 DUP4 PUSH2 0x36CC JUMP JUMPDEST SWAP1 POP SWAP3 SWAP2 POP POP JUMP JUMPDEST PUSH1 0x0 DUP3 CALLDATALOAD PUSH1 0x1 PUSH1 0x40 SUB DUP4 CALLDATASIZE SUB SUB DUP2 SLT PUSH2 0x374B JUMPI PUSH2 0x374A PUSH2 0x2AF9 JUMP JUMPDEST JUMPDEST DUP3 DUP2 ADD SWAP2 POP POP SWAP3 SWAP2 POP POP JUMP JUMPDEST PUSH1 0x0 PUSH1 0x20 DUP3 ADD SWAP1 POP SWAP2 SWAP1 POP JUMP JUMPDEST PUSH1 0x0 PUSH2 0x3770 DUP4 DUP6 PUSH2 0x3695 JUMP JUMPDEST SWAP4 POP DUP4 PUSH1 0x20 DUP5 MUL DUP6 ADD PUSH2 0x3782 DUP5 PUSH2 0x32C8 JUMP JUMPDEST DUP1 PUSH1 0x0 JUMPDEST DUP8 DUP2 LT ISZERO PUSH2 0x37C6 JUMPI DUP5 DUP5 SUB DUP10 MSTORE PUSH2 0x379D DUP3 DUP5 PUSH2 0x372F JUMP JUMPDEST PUSH2 0x37A7 DUP6 DUP3 PUSH2 0x371B JUMP JUMPDEST SWAP5 POP PUSH2 0x37B2 DUP4 PUSH2 0x3757 JUMP JUMPDEST SWAP3 POP PUSH1 0x20 DUP11 ADD SWAP10 POP POP PUSH1 0x1 DUP2 ADD SWAP1 POP PUSH2 0x3786 JUMP JUMPDEST POP DUP3 SWAP8 POP DUP8 SWAP5 POP POP POP POP POP SWAP4 SWAP3 POP POP POP JUMP JUMPDEST PUSH1 0x0 PUSH1 0x40 DUP4 ADD PUSH2 0x37EB PUSH1 0x0 DUP5 ADD DUP5 PUSH2 0x35FA JUMP JUMPDEST PUSH2 0x37F8 PUSH1 0x0 DUP7 ADD DUP3 PUSH2 0x3623 JUMP JUMPDEST POP PUSH2 0x3806 PUSH1 0x20 DUP5 ADD DUP5 PUSH2 0x3632 JUMP JUMPDEST DUP6 DUP4 SUB PUSH1 0x20 DUP8 ADD MSTORE PUSH2 0x3819 DUP4 DUP3 DUP5 PUSH2 0x3764 JUMP JUMPDEST SWAP3 POP POP POP DUP1 SWAP2 POP POP SWAP3 SWAP2 POP POP JUMP JUMPDEST PUSH1 0x0 PUSH1 0x40 DUP3 ADD SWAP1 POP PUSH2 0x383C PUSH1 0x0 DUP4 ADD DUP6 PUSH2 0x10BA JUMP JUMPDEST DUP2 DUP2 SUB PUSH1 0x20 DUP4 ADD MSTORE PUSH2 0x384E DUP2 DUP5 PUSH2 0x37D8 JUMP JUMPDEST SWAP1 POP SWAP4 SWAP3 POP POP POP JUMP JUMPDEST PUSH1 0x0 PUSH2 0x3862 DUP3 PUSH2 0x10B0 JUMP JUMPDEST SWAP2 POP PUSH32 0xFFFFFFFFFFFFFFFFFFFFFFFFFFFFFFFFFFFFFFFFFFFFFFFFFFFFFFFFFFFFFFFF DUP3 SUB PUSH2 0x3894 JUMPI PUSH2 0x3893 PUSH2 0x2179 JUMP JUMPDEST JUMPDEST PUSH1 0x1 DUP3 ADD SWAP1 POP SWAP2 SWAP1 POP JUMP JUMPDEST PUSH1 0x0 PUSH1 0x40 DUP3 ADD SWAP1 POP PUSH2 0x38B4 PUSH1 0x0 DUP4 ADD DUP6 PUSH2 0x10BA JUMP JUMPDEST PUSH2 0x38C1 PUSH1 0x20 DUP4 ADD DUP5 PUSH2 0x10A1 JUMP JUMPDEST SWAP4 SWAP3 POP POP POP JUMP INVALID LOG2 PUSH5 0x6970667358 0x22 SLT KECCAK256 STOP DUP4 STATICCALL CALLDATACOPY PUSH22 0x951A791DF94968CF370596F47D5B4A5F0E5155267340 JUMPDEST SWAP8 0xCD CALLDATALOAD SAR PUSH5 0x736F6C6343 STOP ADDMOD XOR STOP CALLER "},"methodIdentifiers":{"AddGuardian(uint256,uint256)":"e1e009ba","AdminManageCommunity(uint256,(string,string,string[],bool),(uint8,(string,address)[]),uint256[],address,uint8,bool)":"c06fa4e9","AdminSetCommunityPrice(uint256)":"428d87c5","AdminSetDefaultElectionResultsContract(address)":"2893c86f","CreateCommunity((string,string,string[],bool),(uint8,(string,address)[]),uint256[],address,uint8)":"cd22ba84","RemoveGuardian(uint256,uint256)":"264c408e","SetCensus(uint256,(uint8,(string,address)[]))":"cb5eefd8","SetCreateElectionPermission(uint256,uint8)":"67272a52","SetElectionResultsContract(uint256,address)":"d66917d9","SetMetadata(uint256,(string,string,string[],bool))":"2ebf88f8","SetNotifiableElections(uint256,bool)":"6ebf3c4c","getResult(uint256,bytes32)":"13e86265","owner()":"8da5cb5b","renounceOwnership()":"715018a6","setResult(uint256,bytes32,(string,string[],string,uint256[][],uint256,uint256,uint256[],bytes32,string))":"3c973f75","transferOwnership(address)":"f2fde38b"}}}}}