{"src/CommunityHub.sol":{"CommunityHub":{"abi":[{"inputs":[{"internalType":"address","name":"target","type":"address"}],"name":"AddressEmptyCode","type":"error"},{"inputs":[{"internalType":"uint256","name":"expected","type":"uint256"},{"internalType":"uint256","name":"actual","type":"uint256"}],"name":"AmountMismatch","type":"error"},{"inputs":[{"internalType":"address","name":"implementation","type":"address"}],"name":"ERC1967InvalidImplementation","type":"error"},{"inputs":[],"name":"ERC1967NonPayable","type":"error"},{"inputs":[],"name":"FailedInnerCall","type":"error"},{"inputs":[{"internalType":"uint256","name":"guardian","type":"uint256"}],"name":"GuardianNotFound","type":"error"},{"inputs":[],"name":"InvalidCreateElectionPermission","type":"error"},{"inputs":[],"name":"InvalidInitialization","type":"error"},{"inputs":[],"name":"NotInitializing","type":"error"},{"inputs":[{"internalType":"address","name":"owner","type":"address"}],"name":"OwnableInvalidOwner","type":"error"},{"inputs":[{"internalType":"address","name":"account","type":"address"}],"name":"OwnableUnauthorizedAccount","type":"error"},{"inputs":[],"name":"UUPSUnauthorizedCallContext","type":"error"},{"inputs":[{"internalType":"bytes32","name":"slot","type":"bytes32"}],"name":"UUPSUnsupportedProxiableUUID","type":"error"},{"inputs":[],"name":"ZeroAmount","type":"error"},{"anonymous":false,"inputs":[{"indexed":false,"internalType":"uint256","name":"communityId","type":"uint256"}],"name":"AdminCommunityManaged","type":"event"},{"anonymous":false,"inputs":[{"indexed":false,"internalType":"uint256","name":"communityId","type":"uint256"},{"components":[{"internalType":"enum ICommunityHub.CensusType","name":"censusType","type":"uint8"},{"components":[{"internalType":"string","name":"blockchain","type":"string"},{"internalType":"address","name":"contractAddress","type":"address"}],"internalType":"struct ICommunityHub.Token[]","name":"tokens","type":"tuple[]"},{"internalType":"string","name":"channel","type":"string"}],"indexed":false,"internalType":"struct ICommunityHub.Census","name":"census","type":"tuple"}],"name":"CensusSet","type":"event"},{"anonymous":false,"inputs":[{"indexed":false,"internalType":"uint256","name":"communityId","type":"uint256"},{"indexed":false,"internalType":"address","name":"creator","type":"address"}],"name":"CommunityCreated","type":"event"},{"anonymous":false,"inputs":[{"indexed":false,"internalType":"address","name":"sender","type":"address"},{"indexed":false,"internalType":"uint256","name":"amount","type":"uint256"},{"indexed":false,"internalType":"uint256","name":"communityId","type":"uint256"}],"name":"CommunityDeposit","type":"event"},{"anonymous":false,"inputs":[{"indexed":false,"internalType":"uint256","name":"communityId","type":"uint256"}],"name":"CommunityDisabled","type":"event"},{"anonymous":false,"inputs":[{"indexed":false,"internalType":"uint256","name":"communityId","type":"uint256"}],"name":"CommunityEnabled","type":"event"},{"anonymous":false,"inputs":[{"indexed":false,"internalType":"uint256","name":"price","type":"uint256"}],"name":"CreateCommunityPriceSet","type":"event"},{"anonymous":false,"inputs":[{"indexed":false,"internalType":"uint256","name":"communityId","type":"uint256"},{"indexed":false,"internalType":"enum ICommunityHub.CreateElectionPermission","name":"createElectionPermission","type":"uint8"}],"name":"CreateElectionPermissionSet","type":"event"},{"anonymous":false,"inputs":[{"indexed":false,"internalType":"address","name":"sender","type":"address"},{"indexed":false,"internalType":"uint256","name":"amount","type":"uint256"}],"name":"Deposit","type":"event"},{"anonymous":false,"inputs":[{"indexed":false,"internalType":"uint256","name":"communityId","type":"uint256"},{"indexed":false,"internalType":"uint256","name":"guardian","type":"uint256"}],"name":"GuardianAdded","type":"event"},{"anonymous":false,"inputs":[{"indexed":false,"internalType":"uint256","name":"communityId","type":"uint256"},{"indexed":false,"internalType":"uint256","name":"guardian","type":"uint256"}],"name":"GuardianRemoved","type":"event"},{"anonymous":false,"inputs":[{"indexed":false,"internalType":"uint64","name":"version","type":"uint64"}],"name":"Initialized","type":"event"},{"anonymous":false,"inputs":[{"indexed":false,"internalType":"uint256","name":"communityId","type":"uint256"},{"components":[{"internalType":"string","name":"name","type":"string"},{"internalType":"string","name":"imageURI","type":"string"},{"internalType":"string","name":"groupChatURL","type":"string"},{"internalType":"string[]","name":"channels","type":"string[]"},{"internalType":"bool","name":"notifications","type":"bool"}],"indexed":false,"internalType":"struct ICommunityHub.CommunityMetadata","name":"metadata","type":"tuple"}],"name":"MetadataSet","type":"event"},{"anonymous":false,"inputs":[{"indexed":false,"internalType":"uint256","name":"communityId","type":"uint256"},{"indexed":false,"internalType":"bool","name":"notifiableElections","type":"bool"}],"name":"NotifiableElectionsSet","type":"event"},{"anonymous":false,"inputs":[{"indexed":true,"internalType":"address","name":"previousOwner","type":"address"},{"indexed":true,"internalType":"address","name":"newOwner","type":"address"}],"name":"OwnershipTransferred","type":"event"},{"anonymous":false,"inputs":[{"indexed":false,"internalType":"uint256","name":"price","type":"uint256"}],"name":"PricePerElectionSet","type":"event"},{"anonymous":false,"inputs":[{"indexed":false,"internalType":"uint256","name":"communityId","type":"uint256"},{"indexed":false,"internalType":"bytes32","name":"electionId","type":"bytes32"}],"name":"ResultsSet","type":"event"},{"anonymous":false,"inputs":[{"indexed":true,"internalType":"address","name":"implementation","type":"address"}],"name":"Upgraded","type":"event"},{"anonymous":false,"inputs":[{"indexed":false,"internalType":"uint256","name":"amount","type":"uint256"},{"indexed":false,"internalType":"address","name":"to","type":"address"}],"name":"Withdrawal","type":"event"},{"inputs":[],"name":"UPGRADE_INTERFACE_VERSION","outputs":[{"internalType":"string","name":"","type":"string"}],"stateMutability":"view","type":"function"},{"inputs":[{"internalType":"uint256","name":"_communityId","type":"uint256"},{"internalType":"uint256","name":"_guardian","type":"uint256"}],"name":"addGuardian","outputs":[],"stateMutability":"nonpayable","type":"function"},{"inputs":[{"internalType":"uint256","name":"_communityId","type":"uint256"},{"components":[{"internalType":"string","name":"name","type":"string"},{"internalType":"string","name":"imageURI","type":"string"},{"internalType":"string","name":"groupChatURL","type":"string"},{"internalType":"string[]","name":"channels","type":"string[]"},{"internalType":"bool","name":"notifications","type":"bool"}],"internalType":"struct ICommunityHub.CommunityMetadata","name":"_metadata","type":"tuple"},{"components":[{"internalType":"enum ICommunityHub.CensusType","name":"censusType","type":"uint8"},{"components":[{"internalType":"string","name":"blockchain","type":"string"},{"internalType":"address","name":"contractAddress","type":"address"}],"internalType":"struct ICommunityHub.Token[]","name":"tokens","type":"tuple[]"},{"internalType":"string","name":"channel","type":"string"}],"internalType":"struct ICommunityHub.Census","name":"_census","type":"tuple"},{"internalType":"uint256[]","name":"_guardians","type":"uint256[]"},{"internalType":"enum ICommunityHub.CreateElectionPermission","name":"_createElectionPermission","type":"uint8"},{"internalType":"bool","name":"_disabled","type":"bool"}],"name":"adminManageCommunity","outputs":[],"stateMutability":"nonpayable","type":"function"},{"inputs":[{"internalType":"uint256","name":"_price","type":"uint256"}],"name":"adminSetCommunityPrice","outputs":[],"stateMutability":"nonpayable","type":"function"},{"inputs":[{"internalType":"uint256","name":"_price","type":"uint256"}],"name":"adminSetPricePerElection","outputs":[],"stateMutability":"nonpayable","type":"function"},{"inputs":[{"components":[{"internalType":"string","name":"name","type":"string"},{"internalType":"string","name":"imageURI","type":"string"},{"internalType":"string","name":"groupChatURL","type":"string"},{"internalType":"string[]","name":"channels","type":"string[]"},{"internalType":"bool","name":"notifications","type":"bool"}],"internalType":"struct ICommunityHub.CommunityMetadata","name":"_metadata","type":"tuple"},{"components":[{"internalType":"enum ICommunityHub.CensusType","name":"censusType","type":"uint8"},{"components":[{"internalType":"string","name":"blockchain","type":"string"},{"internalType":"address","name":"contractAddress","type":"address"}],"internalType":"struct ICommunityHub.Token[]","name":"tokens","type":"tuple[]"},{"internalType":"string","name":"channel","type":"string"}],"internalType":"struct ICommunityHub.Census","name":"_census","type":"tuple"},{"internalType":"uint256[]","name":"_guardians","type":"uint256[]"},{"internalType":"enum ICommunityHub.CreateElectionPermission","name":"_createElectionPermission","type":"uint8"}],"name":"createCommunity","outputs":[],"stateMutability":"payable","type":"function"},{"inputs":[{"internalType":"uint256","name":"_communityId","type":"uint256"}],"name":"deposit","outputs":[],"stateMutability":"payable","type":"function"},{"inputs":[{"internalType":"uint256","name":"_communityId","type":"uint256"}],"name":"getCommunity","outputs":[{"components":[{"components":[{"internalType":"string","name":"name","type":"string"},{"internalType":"string","name":"imageURI","type":"string"},{"internalType":"string","name":"groupChatURL","type":"string"},{"internalType":"string[]","name":"channels","type":"string[]"},{"internalType":"bool","name":"notifications","type":"bool"}],"internalType":"struct ICommunityHub.CommunityMetadata","name":"metadata","type":"tuple"},{"components":[{"internalType":"enum ICommunityHub.CensusType","name":"censusType","type":"uint8"},{"components":[{"internalType":"string","name":"blockchain","type":"string"},{"internalType":"address","name":"contractAddress","type":"address"}],"internalType":"struct ICommunityHub.Token[]","name":"tokens","type":"tuple[]"},{"internalType":"string","name":"channel","type":"string"}],"internalType":"struct ICommunityHub.Census","name":"census","type":"tuple"},{"internalType":"uint256[]","name":"guardians","type":"uint256[]"},{"internalType":"enum ICommunityHub.CreateElectionPermission","name":"createElectionPermission","type":"uint8"},{"internalType":"bool","name":"disabled","type":"bool"},{"internalType":"uint256","name":"funds","type":"uint256"}],"internalType":"struct ICommunityHub.Community","name":"","type":"tuple"}],"stateMutability":"view","type":"function"},{"inputs":[],"name":"getCreateCommunityPrice","outputs":[{"internalType":"uint256","name":"","type":"uint256"}],"stateMutability":"view","type":"function"},{"inputs":[],"name":"getNextCommunityId","outputs":[{"internalType":"uint256","name":"","type":"uint256"}],"stateMutability":"view","type":"function"},{"inputs":[],"name":"getPricePerElection","outputs":[{"internalType":"uint256","name":"","type":"uint256"}],"stateMutability":"view","type":"function"},{"inputs":[{"internalType":"uint256","name":"_communityId","type":"uint256"},{"internalType":"bytes32","name":"_electionId","type":"bytes32"}],"name":"getResult","outputs":[{"components":[{"internalType":"string","name":"question","type":"string"},{"internalType":"string[]","name":"options","type":"string[]"},{"internalType":"string","name":"date","type":"string"},{"internalType":"uint256[][]","name":"tally","type":"uint256[][]"},{"internalType":"uint256","name":"turnout","type":"uint256"},{"internalType":"uint256","name":"totalVotingPower","type":"uint256"},{"internalType":"uint256[]","name":"participants","type":"uint256[]"},{"internalType":"bytes32","name":"censusRoot","type":"bytes32"},{"internalType":"string","name":"censusURI","type":"string"}],"internalType":"struct IResult.Result","name":"result","type":"tuple"}],"stateMutability":"view","type":"function"},{"inputs":[],"name":"initialize","outputs":[],"stateMutability":"nonpayable","type":"function"},{"inputs":[],"name":"owner","outputs":[{"internalType":"address","name":"","type":"address"}],"stateMutability":"view","type":"function"},{"inputs":[],"name":"proxiableUUID","outputs":[{"internalType":"bytes32","name":"","type":"bytes32"}],"stateMutability":"view","type":"function"},{"inputs":[{"internalType":"uint256","name":"_communityId","type":"uint256"},{"internalType":"uint256","name":"_guardian","type":"uint256"}],"name":"removeGuardian","outputs":[],"stateMutability":"nonpayable","type":"function"},{"inputs":[],"name":"renounceOwnership","outputs":[],"stateMutability":"nonpayable","type":"function"},{"inputs":[{"internalType":"uint256","name":"_communityId","type":"uint256"},{"components":[{"internalType":"enum ICommunityHub.CensusType","name":"censusType","type":"uint8"},{"components":[{"internalType":"string","name":"blockchain","type":"string"},{"internalType":"address","name":"contractAddress","type":"address"}],"internalType":"struct ICommunityHub.Token[]","name":"tokens","type":"tuple[]"},{"internalType":"string","name":"channel","type":"string"}],"internalType":"struct ICommunityHub.Census","name":"_census","type":"tuple"}],"name":"setCensus","outputs":[],"stateMutability":"nonpayable","type":"function"},{"inputs":[{"internalType":"uint256","name":"_communityId","type":"uint256"},{"internalType":"enum ICommunityHub.CreateElectionPermission","name":"_createElectionPermission","type":"uint8"}],"name":"setCreateElectionPermission","outputs":[],"stateMutability":"nonpayable","type":"function"},{"inputs":[{"internalType":"uint256","name":"_communityId","type":"uint256"},{"components":[{"internalType":"string","name":"name","type":"string"},{"internalType":"string","name":"imageURI","type":"string"},{"internalType":"string","name":"groupChatURL","type":"string"},{"internalType":"string[]","name":"channels","type":"string[]"},{"internalType":"bool","name":"notifications","type":"bool"}],"internalType":"struct ICommunityHub.CommunityMetadata","name":"_metadata","type":"tuple"}],"name":"setMetadata","outputs":[],"stateMutability":"nonpayable","type":"function"},{"inputs":[{"internalType":"uint256","name":"_communityId","type":"uint256"},{"internalType":"bool","name":"_notifiableElections","type":"bool"}],"name":"setNotifiableElections","outputs":[],"stateMutability":"nonpayable","type":"function"},{"inputs":[{"internalType":"uint256","name":"_communityId","type":"uint256"},{"internalType":"bytes32","name":"_electionId","type":"bytes32"},{"components":[{"internalType":"string","name":"question","type":"string"},{"internalType":"string[]","name":"options","type":"string[]"},{"internalType":"string","name":"date","type":"string"},{"internalType":"uint256[][]","name":"tally","type":"uint256[][]"},{"internalType":"uint256","name":"turnout","type":"uint256"},{"internalType":"uint256","name":"totalVotingPower","type":"uint256"},{"internalType":"uint256[]","name":"participants","type":"uint256[]"},{"internalType":"bytes32","name":"censusRoot","type":"bytes32"},{"internalType":"string","name":"censusURI","type":"string"}],"internalType":"struct IResult.Result","name":"_result","type":"tuple"}],"name":"setResult","outputs":[],"stateMutability":"nonpayable","type":"function"},{"inputs":[{"internalType":"address","name":"newOwner","type":"address"}],"name":"transferOwnership","outputs":[],"stateMutability":"nonpayable","type":"function"},{"inputs":[{"internalType":"address","name":"newImplementation","type":"address"},{"internalType":"bytes","name":"data","type":"bytes"}],"name":"upgradeToAndCall","outputs":[],"stateMutability":"payable","type":"function"},{"inputs":[],"name":"withdraw","outputs":[],"stateMutability":"nonpayable","type":"function"},{"stateMutability":"payable","type":"receive"}],"evm":{"bytecode":{"linkReferences":{},"object":"60a06040523073ffffffffffffffffffffffffffffffffffffffff1660809073ffffffffffffffffffffffffffffffffffffffff1681525034801561004357600080fd5b506080516159e66200006e6000396000818161228d015281816122e2015261249d01526159e66000f3fe60806040526004361061016a5760003560e01c80638129fc1c116100d1578063ad3cb1cc1161008a578063c8b785f311610064578063c8b785f3146104e1578063d62b5c591461050a578063e6160fa314610535578063f2fde38b1461055e576101aa565b8063ad3cb1cc1461046f578063b6b55f251461049a578063c5bf44ab146104b6576101aa565b80638129fc1c1461038757806382e6d6381461039e578063873ceb2e146103c75780638da5cb5b146103f05780639532c8c31461041b578063aba675b014610446576101aa565b80634f1ef286116101235780634f1ef286146102bb57806352d1902d146102d757806356c4e4ba146103025780636061a4601461032b578063715018a6146103475780637824c05c1461035e576101aa565b8063040cdd0a146101af57806313e86265146101d8578063370603f8146102155780633c973f75146102525780633ccfd60b1461027b5780633e512ebc14610292576101aa565b366101aa577fe1fffcc4923d04b559f4d29a8bfc6cda04eb5b0d3c460751c2402c5c5cc9109c33346040516101a0929190612dba565b60405180910390a1005b600080fd5b3480156101bb57600080fd5b506101d660048036038101906101d19190612f28565b610587565b005b3480156101e457600080fd5b506101ff60048036038101906101fa9190613045565b610799565b60405161020c919061344e565b60405180910390f35b34801561022157600080fd5b5061023c60048036038101906102379190613470565b610b7d565b60405161024991906137f2565b60405180910390f35b34801561025e57600080fd5b5061027960048036038101906102749190613834565b611147565b005b34801561028757600080fd5b506102906115c1565b005b34801561029e57600080fd5b506102b960048036038101906102b49190613470565b611707565b005b6102d560048036038101906102d091906139ff565b611750565b005b3480156102e357600080fd5b506102ec61176f565b6040516102f99190613a6a565b60405180910390f35b34801561030e57600080fd5b5061032960048036038101906103249190613a85565b6117a2565b005b61034560048036038101906103409190613ae1565b61180c565b005b34801561035357600080fd5b5061035c611a70565b005b34801561036a57600080fd5b5061038560048036038101906103809190613ba1565b611a84565b005b34801561039357600080fd5b5061039c611b06565b005b3480156103aa57600080fd5b506103c560048036038101906103c09190613be1565b611c9c565b005b3480156103d357600080fd5b506103ee60048036038101906103e99190613470565b611d06565b005b3480156103fc57600080fd5b50610405611d4f565b6040516104129190613c3d565b60405180910390f35b34801561042757600080fd5b50610430611d87565b60405161043d9190613c58565b60405180910390f35b34801561045257600080fd5b5061046d60048036038101906104689190613c73565b611d91565b005b34801561047b57600080fd5b50610484611eea565b6040516104919190613cfd565b60405180910390f35b6104b460048036038101906104af9190613470565b611f23565b005b3480156104c257600080fd5b506104cb612074565b6040516104d89190613c58565b60405180910390f35b3480156104ed57600080fd5b5061050860048036038101906105039190613c73565b61207e565b005b34801561051657600080fd5b5061051f6120ff565b60405161052c9190613c58565b60405180910390f35b34801561054157600080fd5b5061055c60048036038101906105579190613d1f565b612109565b005b34801561056a57600080fd5b5061058560048036038101906105809190613d5f565b61217e565b005b61058f612204565b60008060008981526020019081526020016000209050868160000181816105b69190614689565b905050858160050181816105ca9190614a8f565b905050828160090160006101000a81548160ff021916908360018111156105f4576105f3613537565b5b02179055508060090160019054906101000a900460ff161580156106155750815b156106735760018160090160016101000a81548160ff0219169083151502179055507fd5d88098de5ba30573f08926c4e6445cab93ce09d98c1147a64045608a50797f886040516106669190613c58565b60405180910390a16106ea565b8060090160019054906101000a900460ff16801561068f575081155b156106e95760008160090160016101000a81548160ff0219169083151502179055507f8da007fc61f3601008aa139c728ea9bf16672668b03c07f6c402ab74c034fc81886040516106e09190613c58565b60405180910390a15b5b8060080160006106fa9190612a8b565b60005b85859050811015610757578160080186868381811061071f5761071e614a9d565b5b9050602002013590806001815401808255809150506001900390600052602060002001600090919091909150558060010190506106fd565b507f887cc86755221db77fb9a404d4834a6ca76a28df7c71c7650318819ad0f46a3c886040516107879190613c58565b60405180910390a15050505050505050565b6107a1612aac565b600160008481526020019081526020016000206000838152602001908152602001600020604051806101200160405290816000820180546107e190613e67565b80601f016020809104026020016040519081016040528092919081815260200182805461080d90613e67565b801561085a5780601f1061082f5761010080835404028352916020019161085a565b820191906000526020600020905b81548152906001019060200180831161083d57829003601f168201915b5050505050815260200160018201805480602002602001604051908101604052809291908181526020016000905b828210156109345783829060005260206000200180546108a790613e67565b80601f01602080910402602001604051908101604052809291908181526020018280546108d390613e67565b80156109205780601f106108f557610100808354040283529160200191610920565b820191906000526020600020905b81548152906001019060200180831161090357829003601f168201915b505050505081526020019060010190610888565b50505050815260200160028201805461094c90613e67565b80601f016020809104026020016040519081016040528092919081815260200182805461097890613e67565b80156109c55780601f1061099a576101008083540402835291602001916109c5565b820191906000526020600020905b8154815290600101906020018083116109a857829003601f168201915b5050505050815260200160038201805480602002602001604051908101604052809291908181526020016000905b82821015610a6557838290600052602060002001805480602002602001604051908101604052809291908181526020018280548015610a5157602002820191906000526020600020905b815481526020019060010190808311610a3d575b5050505050815260200190600101906109f3565b505050508152602001600482015481526020016005820154815260200160068201805480602002602001604051908101604052809291908181526020018280548015610ad057602002820191906000526020600020905b815481526020019060010190808311610abc575b5050505050815260200160078201548152602001600882018054610af390613e67565b80601f0160208091040260200160405190810160405280929190818152602001828054610b1f90613e67565b8015610b6c5780601f10610b4157610100808354040283529160200191610b6c565b820191906000526020600020905b815481529060010190602001808311610b4f57829003601f168201915b505050505081525050905092915050565b610b85612afb565b6000808381526020019081526020016000206040518060c0016040529081600082016040518060a0016040529081600082018054610bc290613e67565b80601f0160208091040260200160405190810160405280929190818152602001828054610bee90613e67565b8015610c3b5780601f10610c1057610100808354040283529160200191610c3b565b820191906000526020600020905b815481529060010190602001808311610c1e57829003601f168201915b50505050508152602001600182018054610c5490613e67565b80601f0160208091040260200160405190810160405280929190818152602001828054610c8090613e67565b8015610ccd5780601f10610ca257610100808354040283529160200191610ccd565b820191906000526020600020905b815481529060010190602001808311610cb057829003601f168201915b50505050508152602001600282018054610ce690613e67565b80601f0160208091040260200160405190810160405280929190818152602001828054610d1290613e67565b8015610d5f5780601f10610d3457610100808354040283529160200191610d5f565b820191906000526020600020905b815481529060010190602001808311610d4257829003601f168201915b5050505050815260200160038201805480602002602001604051908101604052809291908181526020016000905b82821015610e39578382906000526020600020018054610dac90613e67565b80601f0160208091040260200160405190810160405280929190818152602001828054610dd890613e67565b8015610e255780601f10610dfa57610100808354040283529160200191610e25565b820191906000526020600020905b815481529060010190602001808311610e0857829003601f168201915b505050505081526020019060010190610d8d565b5050505081526020016004820160009054906101000a900460ff1615151515815250508152602001600582016040518060600160405290816000820160009054906101000a900460ff166005811115610e9557610e94613537565b5b6005811115610ea757610ea6613537565b5b815260200160018201805480602002602001604051908101604052809291908181526020016000905b82821015610fea5783829060005260206000209060020201604051806040016040529081600082018054610f0390613e67565b80601f0160208091040260200160405190810160405280929190818152602001828054610f2f90613e67565b8015610f7c5780601f10610f5157610100808354040283529160200191610f7c565b820191906000526020600020905b815481529060010190602001808311610f5f57829003601f168201915b505050505081526020016001820160009054906101000a900473ffffffffffffffffffffffffffffffffffffffff1673ffffffffffffffffffffffffffffffffffffffff1673ffffffffffffffffffffffffffffffffffffffff168152505081526020019060010190610ed0565b50505050815260200160028201805461100290613e67565b80601f016020809104026020016040519081016040528092919081815260200182805461102e90613e67565b801561107b5780601f106110505761010080835404028352916020019161107b565b820191906000526020600020905b81548152906001019060200180831161105e57829003601f168201915b5050505050815250508152602001600882018054806020026020016040519081016040528092919081815260200182805480156110d757602002820191906000526020600020905b8154815260200190600101908083116110c3575b505050505081526020016009820160009054906101000a900460ff16600181111561110557611104613537565b5b600181111561111757611116613537565b5b81526020016009820160019054906101000a900460ff16151515158152602001600a820154815250509050919050565b61114f612204565b60008084815260200190815260200160002060090160019054906101000a900460ff16156111b2576040517f08c379a00000000000000000000000000000000000000000000000000000000081526004016111a990614b18565b60405180910390fd5b600354600080858152602001908152602001600020600a0154101561120c576040517f08c379a000000000000000000000000000000000000000000000000000000000815260040161120390614baa565b60405180910390fd5b600354600080858152602001908152602001600020600a0160008282546112339190614bca565b92505081905550600354600080858152602001908152602001600020600a015410156112bf57600160008085815260200190815260200160002060090160016101000a81548160ff0219169083151502179055507fd5d88098de5ba30573f08926c4e6445cab93ce09d98c1147a64045608a50797f836040516112b69190613c58565b60405180910390a15b6112c7612aac565b8180600001906112d79190613dca565b8080601f016020809104026020016040519081016040528093929190818152602001838380828437600081840152601f19601f8201169050808301925050505050505081600001819052508180602001906113329190614124565b9061133d9190614d52565b81602001819052508180604001906113559190613dca565b8080601f016020809104026020016040519081016040528093929190818152602001838380828437600081840152601f19601f8201169050808301925050505050505081604001819052508180606001906113b09190614d67565b906113bb9190614f40565b816060018190525081608001358160800181815250508160a001358160a0018181525050818060c001906113ef9190614f55565b80806020026020016040519081016040528093929190818152602001838360200280828437600081840152601f19601f820116905080830192505050505050508160c001819052508160e001358160e0018181525050818061010001906114569190613dca565b8080601f016020809104026020016040519081016040528093929190818152602001838380828437600081840152601f19601f820116905080830192505050505050508161010001819052508060016000868152602001908152602001600020600085815260200190815260200160002060008201518160000190816114dc9190614fb8565b5060208201518160010190805190602001906114f9929190612b51565b50604082015181600201908161150f9190614fb8565b50606082015181600301908051906020019061152c929190612baa565b506080820151816004015560a0820151816005015560c082015181600601908051906020019061155d929190612c0a565b5060e0820151816007015561010082015181600801908161157e9190614fb8565b509050507f77deb32519991dda7821b0b9367f9124aa3fd934f4845bcfd5dc6fa3f192266384846040516115b392919061508a565b60405180910390a150505050565b6115c9612204565b600047905060008111611611576040517f08c379a0000000000000000000000000000000000000000000000000000000008152600401611608906150ff565b60405180910390fd5b600061161b611d4f565b905060008173ffffffffffffffffffffffffffffffffffffffff168360405161164390615150565b60006040518083038185875af1925050503d8060008114611680576040519150601f19603f3d011682016040523d82523d6000602084013e611685565b606091505b50509050806116c9576040517f08c379a00000000000000000000000000000000000000000000000000000000081526004016116c0906151b1565b60405180910390fd5b7fd964a27d45f595739c13d8b1160b57491050cacf3a2e5602207277d6228f64ee83836040516116fa9291906151f2565b60405180910390a1505050565b61170f612204565b806003819055507f0840c2296c4c97ecdc9b8dc544cd67f45a8d629b9d6109410530bb58b7f17b92816040516117459190613c58565b60405180910390a150565b61175861228b565b61176182612371565b61176b828261237c565b5050565b600061177961249b565b7f360894a13ba1a3210667c828492db98dca3e2076cc3735a920a3ca505d382bbc60001b905090565b6117aa612204565b8060008084815260200190815260200160002060050181816117cc9190614a8f565b9050507ff768bb0dd5bd987cdbc2706c837263b29e7326b0651e4fe20c16372d24cc02ac82826040516118009291906154df565b60405180910390a15050565b60018081111561181f5761181e613537565b5b81600181111561183257611831613537565b5b1415801561186557506000600181111561184f5761184e613537565b5b81600181111561186257611861613537565b5b14155b1561189c576040517fec4d40f400000000000000000000000000000000000000000000000000000000815260040160405180910390fd5b6000600454905060025434146118ed57600254346040517fce6b173b0000000000000000000000000000000000000000000000000000000081526004016118e492919061550f565b60405180910390fd5b7fd6e9bd49f32ce5202a849c6ab581631b3e952257363b06975f32872e9e1656c933348360405161192093929190615538565b60405180910390a1600080600083815260200190815260200160002090508681600001818161194f9190614689565b905050858160050181816119639190614a8f565b905050828160090160006101000a81548160ff0219169083600181111561198d5761198c613537565b5b021790555060008160090160016101000a81548160ff0219169083151502179055503481600a018190555060005b85859050811015611a1557816008018686838181106119dd576119dc614a9d565b5b9050602002013590806001815401808255809150506001900390600052602060002001600090919091909150558060010190506119bb565b5060046000815480929190611a299061556f565b91905055507f42c24a3323433819443a75d0e2651a9c84f696fba638d730042960045ef272418233604051611a5f9291906155b7565b60405180910390a150505050505050565b611a78612204565b611a826000612522565b565b611a8c612204565b8060008084815260200190815260200160002060090160006101000a81548160ff02191690836001811115611ac457611ac3613537565b5b02179055507feaeee81ca4b132c1f2699cf2e7f71c26adb6ffe780097ac7d6e9ddf978398b628282604051611afa9291906155ef565b60405180910390a15050565b6000611b106125f9565b905060008160000160089054906101000a900460ff1615905060008260000160009054906101000a900467ffffffffffffffff1690506000808267ffffffffffffffff16148015611b5e5750825b9050600060018367ffffffffffffffff16148015611b93575060003073ffffffffffffffffffffffffffffffffffffffff163b145b905081158015611ba1575080155b15611bd8576040517ff92ee8a900000000000000000000000000000000000000000000000000000000815260040160405180910390fd5b60018560000160006101000a81548167ffffffffffffffff021916908367ffffffffffffffff1602179055508315611c285760018560000160086101000a81548160ff0219169083151502179055505b611c30612621565b611c393361262b565b8315611c955760008560000160086101000a81548160ff0219169083151502179055507fc7f505b2f371ae2175ee4913f4499e1f2633a7b5936321eed1cdaeb6115181d26001604051611c8c9190615667565b60405180910390a15b5050505050565b611ca4612204565b806000808481526020019081526020016000206000018181611cc69190614689565b9050507f440c55e385a61cd472c0cd76ee015cab9bd0760aef9634633e6597fdea583fd58282604051611cfa929190615850565b60405180910390a15050565b611d0e612204565b806002819055507fac9c054628ba106d4664c2c08386354e161eab546a0a47faf040bfc1062845e781604051611d449190613c58565b60405180910390a150565b600080611d5a61263f565b90508060000160009054906101000a900473ffffffffffffffffffffffffffffffffffffffff1691505090565b6000600454905090565b611d99612204565b6000806000848152602001908152602001600020600801905060005b8180549050811015611ea85782828281548110611dd557611dd4614a9d565b5b906000526020600020015403611e9b578160018380549050611df79190614bca565b81548110611e0857611e07614a9d565b5b9060005260206000200154828281548110611e2657611e25614a9d565b5b906000526020600020018190555081805480611e4557611e44615880565b5b600190038181906000526020600020016000905590557f2264fa092e5819982f4edca5b7e9c6318a16dc3e03673510429c078656dea45c8484604051611e8c92919061550f565b60405180910390a15050611ee6565b8080600101915050611db5565b50816040517f84ce930a000000000000000000000000000000000000000000000000000000008152600401611edd9190613c58565b60405180910390fd5b5050565b6040518060400160405280600581526020017f352e302e3000000000000000000000000000000000000000000000000000000081525081565b60003403611f5d576040517f1f2a200500000000000000000000000000000000000000000000000000000000815260040160405180910390fd5b34600080838152602001908152602001600020600a016000828254611f8291906158af565b9250508190555060008082815260200190815260200160002060090160019054906101000a900460ff161561203657600354600080838152602001908152602001600020600a01541061203557600080600083815260200190815260200160002060090160016101000a81548160ff0219169083151502179055507f8da007fc61f3601008aa139c728ea9bf16672668b03c07f6c402ab74c034fc818160405161202c9190613c58565b60405180910390a15b5b7fd6e9bd49f32ce5202a849c6ab581631b3e952257363b06975f32872e9e1656c933348360405161206993929190615538565b60405180910390a150565b6000600254905090565b612086612204565b6000808381526020019081526020016000206008018190806001815401808255809150506001900390600052602060002001600090919091909150557ffcdfd5aeb97f499ca134ed43f010f2a4f5b0ab73d317ac27246a066a050a73af82826040516120f392919061550f565b60405180910390a15050565b6000600354905090565b612111612204565b8060008084815260200190815260200160002060000160040160006101000a81548160ff0219169083151502179055507fed2f2c7a2316ddc2f46a4581250611f807810052bb38bef2fbd1a81d087e064b82826040516121729291906158f2565b60405180910390a15050565b612186612204565b600073ffffffffffffffffffffffffffffffffffffffff168173ffffffffffffffffffffffffffffffffffffffff16036121f85760006040517f1e4fbdf70000000000000000000000000000000000000000000000000000000081526004016121ef9190613c3d565b60405180910390fd5b61220181612522565b50565b61220c612667565b73ffffffffffffffffffffffffffffffffffffffff1661222a611d4f565b73ffffffffffffffffffffffffffffffffffffffff16146122895761224d612667565b6040517f118cdaa70000000000000000000000000000000000000000000000000000000081526004016122809190613c3d565b60405180910390fd5b565b7f000000000000000000000000000000000000000000000000000000000000000073ffffffffffffffffffffffffffffffffffffffff163073ffffffffffffffffffffffffffffffffffffffff16148061233857507f000000000000000000000000000000000000000000000000000000000000000073ffffffffffffffffffffffffffffffffffffffff1661231f61266f565b73ffffffffffffffffffffffffffffffffffffffff1614155b1561236f576040517fe07c8dba00000000000000000000000000000000000000000000000000000000815260040160405180910390fd5b565b612379612204565b50565b8173ffffffffffffffffffffffffffffffffffffffff166352d1902d6040518163ffffffff1660e01b8152600401602060405180830381865afa9250505080156123e457506040513d601f19601f820116820180604052508101906123e19190615930565b60015b61242557816040517f4c9c8ce300000000000000000000000000000000000000000000000000000000815260040161241c9190613c3d565b60405180910390fd5b7f360894a13ba1a3210667c828492db98dca3e2076cc3735a920a3ca505d382bbc60001b811461248c57806040517faa1d49a40000000000000000000000000000000000000000000000000000000081526004016124839190613a6a565b60405180910390fd5b61249683836126c6565b505050565b7f000000000000000000000000000000000000000000000000000000000000000073ffffffffffffffffffffffffffffffffffffffff163073ffffffffffffffffffffffffffffffffffffffff1614612520576040517fe07c8dba00000000000000000000000000000000000000000000000000000000815260040160405180910390fd5b565b600061252c61263f565b905060008160000160009054906101000a900473ffffffffffffffffffffffffffffffffffffffff169050828260000160006101000a81548173ffffffffffffffffffffffffffffffffffffffff021916908373ffffffffffffffffffffffffffffffffffffffff1602179055508273ffffffffffffffffffffffffffffffffffffffff168173ffffffffffffffffffffffffffffffffffffffff167f8be0079c531659141344cd1fd0a4f28419497f9722a3daafe3b4186f6b6457e060405160405180910390a3505050565b60007ff0c57e16840df040f15088dc2f81fe391c3923bec73e23a9662efc9c229c6a00905090565b612629612739565b565b612633612739565b61263c81612779565b50565b60007f9016d09d72d40fdae2fd8ceac6b6234c7706214fd39c1cd1e609a0528c199300905090565b600033905090565b600061269d7f360894a13ba1a3210667c828492db98dca3e2076cc3735a920a3ca505d382bbc60001b6127ff565b60000160009054906101000a900473ffffffffffffffffffffffffffffffffffffffff16905090565b6126cf82612809565b8173ffffffffffffffffffffffffffffffffffffffff167fbc7cd75a20ee27fd9adebab32041f755214dbc6bffa90cc0225b39da2e5c2d3b60405160405180910390a260008151111561272c5761272682826128d6565b50612735565b61273461295a565b5b5050565b612741612997565b612777576040517fd7e6bcf800000000000000000000000000000000000000000000000000000000815260040160405180910390fd5b565b612781612739565b600073ffffffffffffffffffffffffffffffffffffffff168173ffffffffffffffffffffffffffffffffffffffff16036127f35760006040517f1e4fbdf70000000000000000000000000000000000000000000000000000000081526004016127ea9190613c3d565b60405180910390fd5b6127fc81612522565b50565b6000819050919050565b60008173ffffffffffffffffffffffffffffffffffffffff163b0361286557806040517f4c9c8ce300000000000000000000000000000000000000000000000000000000815260040161285c9190613c3d565b60405180910390fd5b806128927f360894a13ba1a3210667c828492db98dca3e2076cc3735a920a3ca505d382bbc60001b6127ff565b60000160006101000a81548173ffffffffffffffffffffffffffffffffffffffff021916908373ffffffffffffffffffffffffffffffffffffffff16021790555050565b60606000808473ffffffffffffffffffffffffffffffffffffffff16846040516129009190615999565b600060405180830381855af49150503d806000811461293b576040519150601f19603f3d011682016040523d82523d6000602084013e612940565b606091505b50915091506129508583836129b7565b9250505092915050565b6000341115612995576040517fb398979f00000000000000000000000000000000000000000000000000000000815260040160405180910390fd5b565b60006129a16125f9565b60000160089054906101000a900460ff16905090565b6060826129cc576129c782612a46565b612a3e565b600082511480156129f4575060008473ffffffffffffffffffffffffffffffffffffffff163b145b15612a3657836040517f9996b315000000000000000000000000000000000000000000000000000000008152600401612a2d9190613c3d565b60405180910390fd5b819050612a3f565b5b9392505050565b600081511115612a595780518082602001fd5b6040517f1425ea4200000000000000000000000000000000000000000000000000000000815260040160405180910390fd5b5080546000825590600052602060002090810190612aa99190612c57565b50565b6040518061012001604052806060815260200160608152602001606081526020016060815260200160008152602001600081526020016060815260200160008019168152602001606081525090565b6040518060c00160405280612b0e612c74565b8152602001612b1b612ca5565b81526020016060815260200160006001811115612b3b57612b3a613537565b5b8152602001600015158152602001600081525090565b828054828255906000526020600020908101928215612b99579160200282015b82811115612b98578251829081612b889190614fb8565b5091602001919060010190612b71565b5b509050612ba69190612cd8565b5090565b828054828255906000526020600020908101928215612bf9579160200282015b82811115612bf8578251829080519060200190612be8929190612c0a565b5091602001919060010190612bca565b5b509050612c069190612cfc565b5090565b828054828255906000526020600020908101928215612c46579160200282015b82811115612c45578251825591602001919060010190612c2a565b5b509050612c539190612c57565b5090565b5b80821115612c70576000816000905550600101612c58565b5090565b6040518060a00160405280606081526020016060815260200160608152602001606081526020016000151581525090565b604051806060016040528060006005811115612cc457612cc3613537565b5b815260200160608152602001606081525090565b5b80821115612cf85760008181612cef9190612d20565b50600101612cd9565b5090565b5b80821115612d1c5760008181612d139190612a8b565b50600101612cfd565b5090565b508054612d2c90613e67565b6000825580601f10612d3e5750612d5d565b601f016020900490600052602060002090810190612d5c9190612c57565b5b50565b600073ffffffffffffffffffffffffffffffffffffffff82169050919050565b6000612d8b82612d60565b9050919050565b612d9b81612d80565b82525050565b6000819050919050565b612db481612da1565b82525050565b6000604082019050612dcf6000830185612d92565b612ddc6020830184612dab565b9392505050565b6000604051905090565b600080fd5b600080fd5b612e0081612da1565b8114612e0b57600080fd5b50565b600081359050612e1d81612df7565b92915050565b600080fd5b600060a08284031215612e3e57612e3d612e23565b5b81905092915050565b600060608284031215612e5d57612e5c612e23565b5b81905092915050565b600080fd5b600080fd5b600080fd5b60008083601f840112612e8b57612e8a612e66565b5b8235905067ffffffffffffffff811115612ea857612ea7612e6b565b5b602083019150836020820283011115612ec457612ec3612e70565b5b9250929050565b60028110612ed857600080fd5b50565b600081359050612eea81612ecb565b92915050565b60008115159050919050565b612f0581612ef0565b8114612f1057600080fd5b50565b600081359050612f2281612efc565b92915050565b600080600080600080600060c0888a031215612f4757612f46612ded565b5b6000612f558a828b01612e0e565b975050602088013567ffffffffffffffff811115612f7657612f75612df2565b5b612f828a828b01612e28565b965050604088013567ffffffffffffffff811115612fa357612fa2612df2565b5b612faf8a828b01612e47565b955050606088013567ffffffffffffffff811115612fd057612fcf612df2565b5b612fdc8a828b01612e75565b94509450506080612fef8a828b01612edb565b92505060a06130008a828b01612f13565b91505092959891949750929550565b6000819050919050565b6130228161300f565b811461302d57600080fd5b50565b60008135905061303f81613019565b92915050565b6000806040838503121561305c5761305b612ded565b5b600061306a85828601612e0e565b925050602061307b85828601613030565b9150509250929050565b600081519050919050565b600082825260208201905092915050565b60005b838110156130bf5780820151818401526020810190506130a4565b60008484015250505050565b6000601f19601f8301169050919050565b60006130e782613085565b6130f18185613090565b93506131018185602086016130a1565b61310a816130cb565b840191505092915050565b600081519050919050565b600082825260208201905092915050565b6000819050602082019050919050565b600061314d83836130dc565b905092915050565b6000602082019050919050565b600061316d82613115565b6131778185613120565b93508360208202850161318985613131565b8060005b858110156131c557848403895281516131a68582613141565b94506131b183613155565b925060208a0199505060018101905061318d565b50829750879550505050505092915050565b600081519050919050565b600082825260208201905092915050565b6000819050602082019050919050565b600081519050919050565b600082825260208201905092915050565b6000819050602082019050919050565b61323881612da1565b82525050565b600061324a838361322f565b60208301905092915050565b6000602082019050919050565b600061326e82613203565b613278818561320e565b93506132838361321f565b8060005b838110156132b457815161329b888261323e565b97506132a683613256565b925050600181019050613287565b5085935050505092915050565b60006132cd8383613263565b905092915050565b6000602082019050919050565b60006132ed826131d7565b6132f781856131e2565b935083602082028501613309856131f3565b8060005b85811015613345578484038952815161332685826132c1565b9450613331836132d5565b925060208a0199505060018101905061330d565b50829750879550505050505092915050565b6133608161300f565b82525050565b600061012083016000830151848203600086015261338482826130dc565b9150506020830151848203602086015261339e8282613162565b915050604083015184820360408601526133b882826130dc565b915050606083015184820360608601526133d282826132e2565b91505060808301516133e7608086018261322f565b5060a08301516133fa60a086018261322f565b5060c083015184820360c08601526134128282613263565b91505060e083015161342760e0860182613357565b5061010083015184820361010086015261344182826130dc565b9150508091505092915050565b600060208201905081810360008301526134688184613366565b905092915050565b60006020828403121561348657613485612ded565b5b600061349484828501612e0e565b91505092915050565b6134a681612ef0565b82525050565b600060a08301600083015184820360008601526134c982826130dc565b915050602083015184820360208601526134e382826130dc565b915050604083015184820360408601526134fd82826130dc565b915050606083015184820360608601526135178282613162565b915050608083015161352c608086018261349d565b508091505092915050565b7f4e487b7100000000000000000000000000000000000000000000000000000000600052602160045260246000fd5b6006811061357757613576613537565b5b50565b600081905061358882613566565b919050565b60006135988261357a565b9050919050565b6135a88161358d565b82525050565b600081519050919050565b600082825260208201905092915050565b6000819050602082019050919050565b6135e381612d80565b82525050565b6000604083016000830151848203600086015261360682826130dc565b915050602083015161361b60208601826135da565b508091505092915050565b600061363283836135e9565b905092915050565b6000602082019050919050565b6000613652826135ae565b61365c81856135b9565b93508360208202850161366e856135ca565b8060005b858110156136aa578484038952815161368b8582613626565b94506136968361363a565b925060208a01995050600181019050613672565b50829750879550505050505092915050565b60006060830160008301516136d4600086018261359f565b50602083015184820360208601526136ec8282613647565b9150506040830151848203604086015261370682826130dc565b9150508091505092915050565b6002811061372457613723613537565b5b50565b600081905061373582613713565b919050565b600061374582613727565b9050919050565b6137558161373a565b82525050565b600060c083016000830151848203600086015261377882826134ac565b9150506020830151848203602086015261379282826136bc565b915050604083015184820360408601526137ac8282613263565b91505060608301516137c1606086018261374c565b5060808301516137d4608086018261349d565b5060a08301516137e760a086018261322f565b508091505092915050565b6000602082019050818103600083015261380c818461375b565b905092915050565b6000610120828403121561382b5761382a612e23565b5b81905092915050565b60008060006060848603121561384d5761384c612ded565b5b600061385b86828701612e0e565b935050602061386c86828701613030565b925050604084013567ffffffffffffffff81111561388d5761388c612df2565b5b61389986828701613814565b9150509250925092565b6138ac81612d80565b81146138b757600080fd5b50565b6000813590506138c9816138a3565b92915050565b600080fd5b7f4e487b7100000000000000000000000000000000000000000000000000000000600052604160045260246000fd5b61390c826130cb565b810181811067ffffffffffffffff8211171561392b5761392a6138d4565b5b80604052505050565b600061393e612de3565b905061394a8282613903565b919050565b600067ffffffffffffffff82111561396a576139696138d4565b5b613973826130cb565b9050602081019050919050565b82818337600083830152505050565b60006139a261399d8461394f565b613934565b9050828152602081018484840111156139be576139bd6138cf565b5b6139c9848285613980565b509392505050565b600082601f8301126139e6576139e5612e66565b5b81356139f684826020860161398f565b91505092915050565b60008060408385031215613a1657613a15612ded565b5b6000613a24858286016138ba565b925050602083013567ffffffffffffffff811115613a4557613a44612df2565b5b613a51858286016139d1565b9150509250929050565b613a648161300f565b82525050565b6000602082019050613a7f6000830184613a5b565b92915050565b60008060408385031215613a9c57613a9b612ded565b5b6000613aaa85828601612e0e565b925050602083013567ffffffffffffffff811115613acb57613aca612df2565b5b613ad785828601612e47565b9150509250929050565b600080600080600060808688031215613afd57613afc612ded565b5b600086013567ffffffffffffffff811115613b1b57613b1a612df2565b5b613b2788828901612e28565b955050602086013567ffffffffffffffff811115613b4857613b47612df2565b5b613b5488828901612e47565b945050604086013567ffffffffffffffff811115613b7557613b74612df2565b5b613b8188828901612e75565b93509350506060613b9488828901612edb565b9150509295509295909350565b60008060408385031215613bb857613bb7612ded565b5b6000613bc685828601612e0e565b9250506020613bd785828601612edb565b9150509250929050565b60008060408385031215613bf857613bf7612ded565b5b6000613c0685828601612e0e565b925050602083013567ffffffffffffffff811115613c2757613c26612df2565b5b613c3385828601612e28565b9150509250929050565b6000602082019050613c526000830184612d92565b92915050565b6000602082019050613c6d6000830184612dab565b92915050565b60008060408385031215613c8a57613c89612ded565b5b6000613c9885828601612e0e565b9250506020613ca985828601612e0e565b9150509250929050565b600082825260208201905092915050565b6000613ccf82613085565b613cd98185613cb3565b9350613ce98185602086016130a1565b613cf2816130cb565b840191505092915050565b60006020820190508181036000830152613d178184613cc4565b905092915050565b60008060408385031215613d3657613d35612ded565b5b6000613d4485828601612e0e565b9250506020613d5585828601612f13565b9150509250929050565b600060208284031215613d7557613d74612ded565b5b6000613d83848285016138ba565b91505092915050565b7f4e487b7100000000000000000000000000000000000000000000000000000000600052600060045260246000fd5b600080fd5b600080fd5b600080fd5b60008083356001602003843603038112613de757613de6613dbb565b5b80840192508235915067ffffffffffffffff821115613e0957613e08613dc0565b5b602083019250600182023603831315613e2557613e24613dc5565b5b509250929050565b600082905092915050565b7f4e487b7100000000000000000000000000000000000000000000000000000000600052602260045260246000fd5b60006002820490506001821680613e7f57607f821691505b602082108103613e9257613e91613e38565b5b50919050565b60008190508160005260206000209050919050565b60006020601f8301049050919050565b600082821b905092915050565b600060088302613efa7fffffffffffffffffffffffffffffffffffffffffffffffffffffffffffffffff82613ebd565b613f048683613ebd565b95508019841693508086168417925050509392505050565b6000819050919050565b6000613f41613f3c613f3784612da1565b613f1c565b612da1565b9050919050565b6000819050919050565b613f5b83613f26565b613f6f613f6782613f48565b848454613eca565b825550505050565b600090565b613f84613f77565b613f8f818484613f52565b505050565b5b81811015613fb357613fa8600082613f7c565b600181019050613f95565b5050565b601f821115613ff857613fc981613e98565b613fd284613ead565b81016020851015613fe1578190505b613ff5613fed85613ead565b830182613f94565b50505b505050565b600082821c905092915050565b600061401b60001984600802613ffd565b1980831691505092915050565b6000614034838361400a565b9150826002028217905092915050565b61404e8383613e2d565b67ffffffffffffffff811115614067576140666138d4565b5b6140718254613e67565b61407c828285613fb7565b6000601f8311600181146140ab5760008415614099578287013590505b6140a38582614028565b86555061410b565b601f1984166140b986613e98565b60005b828110156140e1578489013582556001820191506020850194506020810190506140bc565b868310156140fe57848901356140fa601f89168261400a565b8355505b6001600288020188555050505b50505050505050565b61411f838383614044565b505050565b6000808335600160200384360303811261414157614140613dbb565b5b80840192508235915067ffffffffffffffff82111561416357614162613dc0565b5b60208301925060208202360383131561417f5761417e613dc5565b5b509250929050565b6000819050919050565b600081549050919050565b7f4e487b7100000000000000000000000000000000000000000000000000000000600052601160045260246000fd5b60006141d682612da1565b91506141e183612da1565b92508282026141ef81612da1565b915082820484148315176142065761420561419c565b5b5092915050565b60008190506001806001038301049050919050565b60008190508160005260206000209050919050565b6142677fffffffffffffffffffffffffffffffffffffffffffffffffffffffffffffffff83602003600802613ffd565b815481168255505050565b61427b81613e98565b614286838254614028565b8083556000825550505050565b60208410600081146142ee57601f8411600181146142bc576142b58685614028565b83556142e8565b6142c583613e98565b6142dc6142d187613ead565b820160018301613f94565b6142e68785614272565b505b5061433b565b6142f782613e98565b61430086613ead565b8101601f8716801561431a576143198160018403614237565b5b61432e61432688613ead565b840183613f94565b6001886002021785555050505b5050505050565b6801000000000000000084111561435c5761435b6138d4565b5b60208310600081146143a75760208510600081146143855761437e8685614028565b83556143a1565b8360ff191693508361439684613e98565b556001866002020183555b506143b1565b6001856002020182555b5050505050565b80546143c381613e67565b808411156143d8576143d784828486614342565b5b808410156143ed576143ec84828486614293565b5b50505050565b8181101561441157614406600082613f7c565b6001810190506143f3565b5050565b6144206000826143b8565b50565b6000821461443457614433613d8c565b5b61443d81614415565b5050565b5b8181101561446057614455600082614423565b600181019050614442565b5050565b8183101561449d576144758261420d565b61447e8461420d565b61448783614222565b8181018382016144978183614441565b50505050505b505050565b680100000000000000008211156144bc576144bb6138d4565b5b6144c581614191565b8282556144d3838284614464565b505050565b600082905092915050565b6144ed83836144d8565b6144f781836144a2565b61450083614187565b61450983614222565b60005b838110156145425761451e8387613dca565b614529818386614114565b602085019450600184019350505060018101905061450c565b50505050505050565b6145568383836144e3565b505050565b6000813561456881612efc565b80915050919050565b60008160001b9050919050565b600060ff61458b84614571565b9350801983169250808416831791505092915050565b60006145ac82612ef0565b9050919050565b6000819050919050565b6145c6826145a1565b6145d96145d2826145b3565b835461457e565b8255505050565b60008101600083016145f28185613dca565b6145fd818386614114565b5050505060018101602083016146138185613dca565b61461e818386614114565b5050505060028101604083016146348185613dca565b61463f818386614114565b5050505060038101606083016146558185614124565b61466081838661454b565b505050506004810160808301806146768161455b565b905061468281846145bd565b5050505050565b61469382826145e0565b5050565b600681106146a457600080fd5b50565b600081356146b481614697565b80915050919050565b60006146c88261357a565b9050919050565b6000819050919050565b6146e2826146bd565b6146f56146ee826146cf565b835461457e565b8255505050565b6000808335600160200384360303811261471957614718613dbb565b5b80840192508235915067ffffffffffffffff82111561473b5761473a613dc0565b5b60208301925060208202360383131561475757614756613dc5565b5b509250929050565b6000819050919050565b60008235600160400383360303811261478557614784613dbb565b5b80830191505092915050565b600081549050919050565b60008190506147ac8260026141cb565b9050919050565b60008190508160005260206000209050919050565b6147d56000808301614423565b6000600182015550565b600082146147f0576147ef613d8c565b5b6147f9816147c8565b5050565b5b8181101561481c576148116000826147df565b6002810190506147fe565b5050565b81831015614859576148318261479c565b61483a8461479c565b614843836147b3565b81810183820161485381836147fd565b50505050505b505050565b68010000000000000000821115614878576148776138d4565b5b61488181614791565b82825561488f838284614820565b505050565b600082905092915050565b600081356148ac816138a3565b80915050919050565b600073ffffffffffffffffffffffffffffffffffffffff6148d584614571565b9350801983169250808416831791505092915050565b60006149066149016148fc84612d60565b613f1c565b612d60565b9050919050565b6000614918826148eb565b9050919050565b600061492a8261490d565b9050919050565b6000819050919050565b6149448261491f565b61495761495082614931565b83546148b5565b8255505050565b60008101600083016149708185613dca565b61497b818386614114565b505050506001810160208301806149918161489f565b905061499d818461493b565b5050505050565b6149ae828261495e565b5050565b6149bc8383614894565b6149c6818361485e565b6149cf8361475f565b6149d8836147b3565b60005b83811015614a0f576149ed8387614769565b6149f781846149a4565b602084019350600283019250506001810190506149db565b50505050505050565b614a238383836149b2565b505050565b600081016000830180614a3a816146a7565b9050614a4681846146d9565b5050506001810160208301614a5b81856146fc565b614a66818386614a18565b505050506002810160408301614a7c8185613dca565b614a87818386614114565b505050505050565b614a998282614a28565b5050565b7f4e487b7100000000000000000000000000000000000000000000000000000000600052603260045260246000fd5b7f436f6d6d756e6974792069732064697361626c65640000000000000000000000600082015250565b6000614b02601583613cb3565b9150614b0d82614acc565b602082019050919050565b60006020820190508181036000830152614b3181614af5565b9050919050565b7f496e73756666696369656e742066756e647320666f722074686973206f70657260008201527f6174696f6e000000000000000000000000000000000000000000000000000000602082015250565b6000614b94602583613cb3565b9150614b9f82614b38565b604082019050919050565b60006020820190508181036000830152614bc381614b87565b9050919050565b6000614bd582612da1565b9150614be083612da1565b9250828203905081811115614bf857614bf761419c565b5b92915050565b600067ffffffffffffffff821115614c1957614c186138d4565b5b602082029050602081019050919050565b600067ffffffffffffffff821115614c4557614c446138d4565b5b614c4e826130cb565b9050602081019050919050565b6000614c6e614c6984614c2a565b613934565b905082815260208101848484011115614c8a57614c896138cf565b5b614c95848285613980565b509392505050565b600082601f830112614cb257614cb1612e66565b5b8135614cc2848260208601614c5b565b91505092915050565b6000614cde614cd984614bfe565b613934565b90508083825260208201905060208402830185811115614d0157614d00612e70565b5b835b81811015614d4857803567ffffffffffffffff811115614d2657614d25612e66565b5b808601614d338982614c9d565b85526020850194505050602081019050614d03565b5050509392505050565b6000614d5f368484614ccb565b905092915050565b60008083356001602003843603038112614d8457614d83613dbb565b5b80840192508235915067ffffffffffffffff821115614da657614da5613dc0565b5b602083019250602082023603831315614dc257614dc1613dc5565b5b509250929050565b600067ffffffffffffffff821115614de557614de46138d4565b5b602082029050602081019050919050565b600067ffffffffffffffff821115614e1157614e106138d4565b5b602082029050602081019050919050565b6000614e35614e3084614df6565b613934565b90508083825260208201905060208402830185811115614e5857614e57612e70565b5b835b81811015614e815780614e6d8882612e0e565b845260208401935050602081019050614e5a565b5050509392505050565b600082601f830112614ea057614e9f612e66565b5b8135614eb0848260208601614e22565b91505092915050565b6000614ecc614ec784614dca565b613934565b90508083825260208201905060208402830185811115614eef57614eee612e70565b5b835b81811015614f3657803567ffffffffffffffff811115614f1457614f13612e66565b5b808601614f218982614e8b565b85526020850194505050602081019050614ef1565b5050509392505050565b6000614f4d368484614eb9565b905092915050565b60008083356001602003843603038112614f7257614f71613dbb565b5b80840192508235915067ffffffffffffffff821115614f9457614f93613dc0565b5b602083019250602082023603831315614fb057614faf613dc5565b5b509250929050565b614fc182613085565b67ffffffffffffffff811115614fda57614fd96138d4565b5b614fe48254613e67565b614fef828285613fb7565b600060209050601f8311600181146150225760008415615010578287015190505b61501a8582614028565b865550615082565b601f19841661503086613e98565b60005b8281101561505857848901518255600182019150602085019450602081019050615033565b868310156150755784890151615071601f89168261400a565b8355505b6001600288020188555050505b505050505050565b600060408201905061509f6000830185612dab565b6150ac6020830184613a5b565b9392505050565b7f4e6f2066756e647320617661696c61626c650000000000000000000000000000600082015250565b60006150e9601283613cb3565b91506150f4826150b3565b602082019050919050565b60006020820190508181036000830152615118816150dc565b9050919050565b600081905092915050565b50565b600061513a60008361511f565b91506151458261512a565b600082019050919050565b600061515b8261512d565b9150819050919050565b7f4661696c656420746f2073656e64204574686572000000000000000000000000600082015250565b600061519b601483613cb3565b91506151a682615165565b602082019050919050565b600060208201905081810360008301526151ca8161518e565b9050919050565b60006151dc8261490d565b9050919050565b6151ec816151d1565b82525050565b60006040820190506152076000830185612dab565b61521460208301846151e3565b9392505050565b60008135905061522a81614697565b92915050565b600061523f602084018461521b565b905092915050565b600080fd5b600080fd5b600080fd5b6000808335600160200384360303811261527357615272615251565b5b83810192508235915060208301925067ffffffffffffffff82111561529b5761529a615247565b5b6020820236038313156152b1576152b061524c565b5b509250929050565b600080833560016020038436030381126152d6576152d5615251565b5b83810192508235915060208301925067ffffffffffffffff8211156152fe576152fd615247565b5b6001820236038313156153145761531361524c565b5b509250929050565b60006153288385613090565b9350615335838584613980565b61533e836130cb565b840190509392505050565b600061535860208401846138ba565b905092915050565b60006040830161537360008401846152b9565b858303600087015261538683828461531c565b925050506153976020840184615349565b6153a460208601826135da565b508091505092915050565b60006153bb8383615360565b905092915050565b6000823560016040038336030381126153df576153de615251565b5b82810191505092915050565b6000602082019050919050565b600061540483856135b9565b9350836020840285016154168461475f565b8060005b8781101561545a57848403895261543182846153c3565b61543b85826153af565b9450615446836153eb565b925060208a0199505060018101905061541a565b50829750879450505050509392505050565b60006060830161547f6000840184615230565b61548c600086018261359f565b5061549a6020840184615256565b85830360208701526154ad8382846153f8565b925050506154be60408401846152b9565b85830360408701526154d183828461531c565b925050508091505092915050565b60006040820190506154f46000830185612dab565b8181036020830152615506818461546c565b90509392505050565b60006040820190506155246000830185612dab565b6155316020830184612dab565b9392505050565b600060608201905061554d6000830186612d92565b61555a6020830185612dab565b6155676040830184612dab565b949350505050565b600061557a82612da1565b91507fffffffffffffffffffffffffffffffffffffffffffffffffffffffffffffffff82036155ac576155ab61419c565b5b600182019050919050565b60006040820190506155cc6000830185612dab565b6155d96020830184612d92565b9392505050565b6155e98161373a565b82525050565b60006040820190506156046000830185612dab565b61561160208301846155e0565b9392505050565b6000819050919050565b600067ffffffffffffffff82169050919050565b600061565161564c61564784615618565b613f1c565b615622565b9050919050565b61566181615636565b82525050565b600060208201905061567c6000830184615658565b92915050565b6000808335600160200384360303811261569f5761569e615251565b5b83810192508235915060208301925067ffffffffffffffff8211156156c7576156c6615247565b5b6020820236038313156156dd576156dc61524c565b5b509250929050565b60006156f284848461531c565b90509392505050565b6000602082019050919050565b60006157148385613120565b93508360208402850161572684614187565b8060005b8781101561576c57848403895261574182846152b9565b61574c8682846156e5565b9550615757846156fb565b935060208b019a50505060018101905061572a565b50829750879450505050509392505050565b600061578d6020840184612f13565b905092915050565b600060a083016157a860008401846152b9565b85830360008701526157bb83828461531c565b925050506157cc60208401846152b9565b85830360208701526157df83828461531c565b925050506157f060408401846152b9565b858303604087015261580383828461531c565b925050506158146060840184615682565b8583036060870152615827838284615708565b92505050615838608084018461577e565b615845608086018261349d565b508091505092915050565b60006040820190506158656000830185612dab565b81810360208301526158778184615795565b90509392505050565b7f4e487b7100000000000000000000000000000000000000000000000000000000600052603160045260246000fd5b60006158ba82612da1565b91506158c583612da1565b92508282019050808211156158dd576158dc61419c565b5b92915050565b6158ec81612ef0565b82525050565b60006040820190506159076000830185612dab565b61591460208301846158e3565b9392505050565b60008151905061592a81613019565b92915050565b60006020828403121561594657615945612ded565b5b60006159548482850161591b565b91505092915050565b600081519050919050565b60006159738261595d565b61597d818561511f565b935061598d8185602086016130a1565b80840191505092915050565b60006159a58284615968565b91508190509291505056fea26469706673582212205ccabfea73a0974fe7dc8307c2b7619501e2f6da3a86a702d44148c89253884f64736f6c63430008180033","opcodes":"PUSH1 0xA0 PUSH1 0x40 MSTORE ADDRESS PUSH20 0xFFFFFFFFFFFFFFFFFFFFFFFFFFFFFFFFFFFFFFFF AND PUSH1 0x80 SWAP1 PUSH20 0xFFFFFFFFFFFFFFFFFFFFFFFFFFFFFFFFFFFFFFFF AND DUP2 MSTORE POP CALLVALUE DUP1 ISZERO PUSH2 0x43 JUMPI PUSH1 0x0 DUP1 REVERT JUMPDEST POP PUSH1 0x80 MLOAD PUSH2 0x59E6 PUSH3 0x6E PUSH1 0x0 CODECOPY PUSH1 0x0 DUP2 DUP2 PUSH2 0x228D ADD MSTORE DUP2 DUP2 PUSH2 0x22E2 ADD MSTORE PUSH2 0x249D ADD MSTORE PUSH2 0x59E6 PUSH1 0x0 RETURN INVALID PUSH1 0x80 PUSH1 0x40 MSTORE PUSH1 0x4 CALLDATASIZE LT PUSH2 0x16A JUMPI PUSH1 0x0 CALLDATALOAD PUSH1 0xE0 SHR DUP1 PUSH4 0x8129FC1C GT PUSH2 0xD1 JUMPI DUP1 PUSH4 0xAD3CB1CC GT PUSH2 0x8A JUMPI DUP1 PUSH4 0xC8B785F3 GT PUSH2 0x64 JUMPI DUP1 PUSH4 0xC8B785F3 EQ PUSH2 0x4E1 JUMPI DUP1 PUSH4 0xD62B5C59 EQ PUSH2 0x50A JUMPI DUP1 PUSH4 0xE6160FA3 EQ PUSH2 0x535 JUMPI DUP1 PUSH4 0xF2FDE38B EQ PUSH2 0x55E JUMPI PUSH2 0x1AA JUMP JUMPDEST DUP1 PUSH4 0xAD3CB1CC EQ PUSH2 0x46F JUMPI DUP1 PUSH4 0xB6B55F25 EQ PUSH2 0x49A JUMPI DUP1 PUSH4 0xC5BF44AB EQ PUSH2 0x4B6 JUMPI PUSH2 0x1AA JUMP JUMPDEST DUP1 PUSH4 0x8129FC1C EQ PUSH2 0x387 JUMPI DUP1 PUSH4 0x82E6D638 EQ PUSH2 0x39E JUMPI DUP1 PUSH4 0x873CEB2E EQ PUSH2 0x3C7 JUMPI DUP1 PUSH4 0x8DA5CB5B EQ PUSH2 0x3F0 JUMPI DUP1 PUSH4 0x9532C8C3 EQ PUSH2 0x41B JUMPI DUP1 PUSH4 0xABA675B0 EQ PUSH2 0x446 JUMPI PUSH2 0x1AA JUMP JUMPDEST DUP1 PUSH4 0x4F1EF286 GT PUSH2 0x123 JUMPI DUP1 PUSH4 0x4F1EF286 EQ PUSH2 0x2BB JUMPI DUP1 PUSH4 0x52D1902D EQ PUSH2 0x2D7 JUMPI DUP1 PUSH4 0x56C4E4BA EQ PUSH2 0x302 JUMPI DUP1 PUSH4 0x6061A460 EQ PUSH2 0x32B JUMPI DUP1 PUSH4 0x715018A6 EQ PUSH2 0x347 JUMPI DUP1 PUSH4 0x7824C05C EQ PUSH2 0x35E JUMPI PUSH2 0x1AA JUMP JUMPDEST DUP1 PUSH4 0x40CDD0A EQ PUSH2 0x1AF JUMPI DUP1 PUSH4 0x13E86265 EQ PUSH2 0x1D8 JUMPI DUP1 PUSH4 0x370603F8 EQ PUSH2 0x215 JUMPI DUP1 PUSH4 0x3C973F75 EQ PUSH2 0x252 JUMPI DUP1 PUSH4 0x3CCFD60B EQ PUSH2 0x27B JUMPI DUP1 PUSH4 0x3E512EBC EQ PUSH2 0x292 JUMPI PUSH2 0x1AA JUMP JUMPDEST CALLDATASIZE PUSH2 0x1AA JUMPI PUSH32 0xE1FFFCC4923D04B559F4D29A8BFC6CDA04EB5B0D3C460751C2402C5C5CC9109C CALLER CALLVALUE PUSH1 0x40 MLOAD PUSH2 0x1A0 SWAP3 SWAP2 SWAP1 PUSH2 0x2DBA JUMP JUMPDEST PUSH1 0x40 MLOAD DUP1 SWAP2 SUB SWAP1 LOG1 STOP JUMPDEST PUSH1 0x0 DUP1 REVERT JUMPDEST CALLVALUE DUP1 ISZERO PUSH2 0x1BB JUMPI PUSH1 0x0 DUP1 REVERT JUMPDEST POP PUSH2 0x1D6 PUSH1 0x4 DUP1 CALLDATASIZE SUB DUP2 ADD SWAP1 PUSH2 0x1D1 SWAP2 SWAP1 PUSH2 0x2F28 JUMP JUMPDEST PUSH2 0x587 JUMP JUMPDEST STOP JUMPDEST CALLVALUE DUP1 ISZERO PUSH2 0x1E4 JUMPI PUSH1 0x0 DUP1 REVERT JUMPDEST POP PUSH2 0x1FF PUSH1 0x4 DUP1 CALLDATASIZE SUB DUP2 ADD SWAP1 PUSH2 0x1FA SWAP2 SWAP1 PUSH2 0x3045 JUMP JUMPDEST PUSH2 0x799 JUMP JUMPDEST PUSH1 0x40 MLOAD PUSH2 0x20C SWAP2 SWAP1 PUSH2 0x344E JUMP JUMPDEST PUSH1 0x40 MLOAD DUP1 SWAP2 SUB SWAP1 RETURN JUMPDEST CALLVALUE DUP1 ISZERO PUSH2 0x221 JUMPI PUSH1 0x0 DUP1 REVERT JUMPDEST POP PUSH2 0x23C PUSH1 0x4 DUP1 CALLDATASIZE SUB DUP2 ADD SWAP1 PUSH2 0x237 SWAP2 SWAP1 PUSH2 0x3470 JUMP JUMPDEST PUSH2 0xB7D JUMP JUMPDEST PUSH1 0x40 MLOAD PUSH2 0x249 SWAP2 SWAP1 PUSH2 0x37F2 JUMP JUMPDEST PUSH1 0x40 MLOAD DUP1 SWAP2 SUB SWAP1 RETURN JUMPDEST CALLVALUE DUP1 ISZERO PUSH2 0x25E JUMPI PUSH1 0x0 DUP1 REVERT JUMPDEST POP PUSH2 0x279 PUSH1 0x4 DUP1 CALLDATASIZE SUB DUP2 ADD SWAP1 PUSH2 0x274 SWAP2 SWAP1 PUSH2 0x3834 JUMP JUMPDEST PUSH2 0x1147 JUMP JUMPDEST STOP JUMPDEST CALLVALUE DUP1 ISZERO PUSH2 0x287 JUMPI PUSH1 0x0 DUP1 REVERT JUMPDEST POP PUSH2 0x290 PUSH2 0x15C1 JUMP JUMPDEST STOP JUMPDEST CALLVALUE DUP1 ISZERO PUSH2 0x29E JUMPI PUSH1 0x0 DUP1 REVERT JUMPDEST POP PUSH2 0x2B9 PUSH1 0x4 DUP1 CALLDATASIZE SUB DUP2 ADD SWAP1 PUSH2 0x2B4 SWAP2 SWAP1 PUSH2 0x3470 JUMP JUMPDEST PUSH2 0x1707 JUMP JUMPDEST STOP JUMPDEST PUSH2 0x2D5 PUSH1 0x4 DUP1 CALLDATASIZE SUB DUP2 ADD SWAP1 PUSH2 0x2D0 SWAP2 SWAP1 PUSH2 0x39FF JUMP JUMPDEST PUSH2 0x1750 JUMP JUMPDEST STOP JUMPDEST CALLVALUE DUP1 ISZERO PUSH2 0x2E3 JUMPI PUSH1 0x0 DUP1 REVERT JUMPDEST POP PUSH2 0x2EC PUSH2 0x176F JUMP JUMPDEST PUSH1 0x40 MLOAD PUSH2 0x2F9 SWAP2 SWAP1 PUSH2 0x3A6A JUMP JUMPDEST PUSH1 0x40 MLOAD DUP1 SWAP2 SUB SWAP1 RETURN JUMPDEST CALLVALUE DUP1 ISZERO PUSH2 0x30E JUMPI PUSH1 0x0 DUP1 REVERT JUMPDEST POP PUSH2 0x329 PUSH1 0x4 DUP1 CALLDATASIZE SUB DUP2 ADD SWAP1 PUSH2 0x324 SWAP2 SWAP1 PUSH2 0x3A85 JUMP JUMPDEST PUSH2 0x17A2 JUMP JUMPDEST STOP JUMPDEST PUSH2 0x345 PUSH1 0x4 DUP1 CALLDATASIZE SUB DUP2 ADD SWAP1 PUSH2 0x340 SWAP2 SWAP1 PUSH2 0x3AE1 JUMP JUMPDEST PUSH2 0x180C JUMP JUMPDEST STOP JUMPDEST CALLVALUE DUP1 ISZERO PUSH2 0x353 JUMPI PUSH1 0x0 DUP1 REVERT JUMPDEST POP PUSH2 0x35C PUSH2 0x1A70 JUMP JUMPDEST STOP JUMPDEST CALLVALUE DUP1 ISZERO PUSH2 0x36A JUMPI PUSH1 0x0 DUP1 REVERT JUMPDEST POP PUSH2 0x385 PUSH1 0x4 DUP1 CALLDATASIZE SUB DUP2 ADD SWAP1 PUSH2 0x380 SWAP2 SWAP1 PUSH2 0x3BA1 JUMP JUMPDEST PUSH2 0x1A84 JUMP JUMPDEST STOP JUMPDEST CALLVALUE DUP1 ISZERO PUSH2 0x393 JUMPI PUSH1 0x0 DUP1 REVERT JUMPDEST POP PUSH2 0x39C PUSH2 0x1B06 JUMP JUMPDEST STOP JUMPDEST CALLVALUE DUP1 ISZERO PUSH2 0x3AA JUMPI PUSH1 0x0 DUP1 REVERT JUMPDEST POP PUSH2 0x3C5 PUSH1 0x4 DUP1 CALLDATASIZE SUB DUP2 ADD SWAP1 PUSH2 0x3C0 SWAP2 SWAP1 PUSH2 0x3BE1 JUMP JUMPDEST PUSH2 0x1C9C JUMP JUMPDEST STOP JUMPDEST CALLVALUE DUP1 ISZERO PUSH2 0x3D3 JUMPI PUSH1 0x0 DUP1 REVERT JUMPDEST POP PUSH2 0x3EE PUSH1 0x4 DUP1 CALLDATASIZE SUB DUP2 ADD SWAP1 PUSH2 0x3E9 SWAP2 SWAP1 PUSH2 0x3470 JUMP JUMPDEST PUSH2 0x1D06 JUMP JUMPDEST STOP JUMPDEST CALLVALUE DUP1 ISZERO PUSH2 0x3FC JUMPI PUSH1 0x0 DUP1 REVERT JUMPDEST POP PUSH2 0x405 PUSH2 0x1D4F JUMP JUMPDEST PUSH1 0x40 MLOAD PUSH2 0x412 SWAP2 SWAP1 PUSH2 0x3C3D JUMP JUMPDEST PUSH1 0x40 MLOAD DUP1 SWAP2 SUB SWAP1 RETURN JUMPDEST CALLVALUE DUP1 ISZERO PUSH2 0x427 JUMPI PUSH1 0x0 DUP1 REVERT JUMPDEST POP PUSH2 0x430 PUSH2 0x1D87 JUMP JUMPDEST PUSH1 0x40 MLOAD PUSH2 0x43D SWAP2 SWAP1 PUSH2 0x3C58 JUMP JUMPDEST PUSH1 0x40 MLOAD DUP1 SWAP2 SUB SWAP1 RETURN JUMPDEST CALLVALUE DUP1 ISZERO PUSH2 0x452 JUMPI PUSH1 0x0 DUP1 REVERT JUMPDEST POP PUSH2 0x46D PUSH1 0x4 DUP1 CALLDATASIZE SUB DUP2 ADD SWAP1 PUSH2 0x468 SWAP2 SWAP1 PUSH2 0x3C73 JUMP JUMPDEST PUSH2 0x1D91 JUMP JUMPDEST STOP JUMPDEST CALLVALUE DUP1 ISZERO PUSH2 0x47B JUMPI PUSH1 0x0 DUP1 REVERT JUMPDEST POP PUSH2 0x484 PUSH2 0x1EEA JUMP JUMPDEST PUSH1 0x40 MLOAD PUSH2 0x491 SWAP2 SWAP1 PUSH2 0x3CFD JUMP JUMPDEST PUSH1 0x40 MLOAD DUP1 SWAP2 SUB SWAP1 RETURN JUMPDEST PUSH2 0x4B4 PUSH1 0x4 DUP1 CALLDATASIZE SUB DUP2 ADD SWAP1 PUSH2 0x4AF SWAP2 SWAP1 PUSH2 0x3470 JUMP JUMPDEST PUSH2 0x1F23 JUMP JUMPDEST STOP JUMPDEST CALLVALUE DUP1 ISZERO PUSH2 0x4C2 JUMPI PUSH1 0x0 DUP1 REVERT JUMPDEST POP PUSH2 0x4CB PUSH2 0x2074 JUMP JUMPDEST PUSH1 0x40 MLOAD PUSH2 0x4D8 SWAP2 SWAP1 PUSH2 0x3C58 JUMP JUMPDEST PUSH1 0x40 MLOAD DUP1 SWAP2 SUB SWAP1 RETURN JUMPDEST CALLVALUE DUP1 ISZERO PUSH2 0x4ED JUMPI PUSH1 0x0 DUP1 REVERT JUMPDEST POP PUSH2 0x508 PUSH1 0x4 DUP1 CALLDATASIZE SUB DUP2 ADD SWAP1 PUSH2 0x503 SWAP2 SWAP1 PUSH2 0x3C73 JUMP JUMPDEST PUSH2 0x207E JUMP JUMPDEST STOP JUMPDEST CALLVALUE DUP1 ISZERO PUSH2 0x516 JUMPI PUSH1 0x0 DUP1 REVERT JUMPDEST POP PUSH2 0x51F PUSH2 0x20FF JUMP JUMPDEST PUSH1 0x40 MLOAD PUSH2 0x52C SWAP2 SWAP1 PUSH2 0x3C58 JUMP JUMPDEST PUSH1 0x40 MLOAD DUP1 SWAP2 SUB SWAP1 RETURN JUMPDEST CALLVALUE DUP1 ISZERO PUSH2 0x541 JUMPI PUSH1 0x0 DUP1 REVERT JUMPDEST POP PUSH2 0x55C PUSH1 0x4 DUP1 CALLDATASIZE SUB DUP2 ADD SWAP1 PUSH2 0x557 SWAP2 SWAP1 PUSH2 0x3D1F JUMP JUMPDEST PUSH2 0x2109 JUMP JUMPDEST STOP JUMPDEST CALLVALUE DUP1 ISZERO PUSH2 0x56A JUMPI PUSH1 0x0 DUP1 REVERT JUMPDEST POP PUSH2 0x585 PUSH1 0x4 DUP1 CALLDATASIZE SUB DUP2 ADD SWAP1 PUSH2 0x580 SWAP2 SWAP1 PUSH2 0x3D5F JUMP JUMPDEST PUSH2 0x217E JUMP JUMPDEST STOP JUMPDEST PUSH2 0x58F PUSH2 0x2204 JUMP JUMPDEST PUSH1 0x0 DUP1 PUSH1 0x0 DUP10 DUP2 MSTORE PUSH1 0x20 ADD SWAP1 DUP2 MSTORE PUSH1 0x20 ADD PUSH1 0x0 KECCAK256 SWAP1 POP DUP7 DUP2 PUSH1 0x0 ADD DUP2 DUP2 PUSH2 0x5B6 SWAP2 SWAP1 PUSH2 0x4689 JUMP JUMPDEST SWAP1 POP POP DUP6 DUP2 PUSH1 0x5 ADD DUP2 DUP2 PUSH2 0x5CA SWAP2 SWAP1 PUSH2 0x4A8F JUMP JUMPDEST SWAP1 POP POP DUP3 DUP2 PUSH1 0x9 ADD PUSH1 0x0 PUSH2 0x100 EXP DUP2 SLOAD DUP2 PUSH1 0xFF MUL NOT AND SWAP1 DUP4 PUSH1 0x1 DUP2 GT ISZERO PUSH2 0x5F4 JUMPI PUSH2 0x5F3 PUSH2 0x3537 JUMP JUMPDEST JUMPDEST MUL OR SWAP1 SSTORE POP DUP1 PUSH1 0x9 ADD PUSH1 0x1 SWAP1 SLOAD SWAP1 PUSH2 0x100 EXP SWAP1 DIV PUSH1 0xFF AND ISZERO DUP1 ISZERO PUSH2 0x615 JUMPI POP DUP2 JUMPDEST ISZERO PUSH2 0x673 JUMPI PUSH1 0x1 DUP2 PUSH1 0x9 ADD PUSH1 0x1 PUSH2 0x100 EXP DUP2 SLOAD DUP2 PUSH1 0xFF MUL NOT AND SWAP1 DUP4 ISZERO ISZERO MUL OR SWAP1 SSTORE POP PUSH32 0xD5D88098DE5BA30573F08926C4E6445CAB93CE09D98C1147A64045608A50797F DUP9 PUSH1 0x40 MLOAD PUSH2 0x666 SWAP2 SWAP1 PUSH2 0x3C58 JUMP JUMPDEST PUSH1 0x40 MLOAD DUP1 SWAP2 SUB SWAP1 LOG1 PUSH2 0x6EA JUMP JUMPDEST DUP1 PUSH1 0x9 ADD PUSH1 0x1 SWAP1 SLOAD SWAP1 PUSH2 0x100 EXP SWAP1 DIV PUSH1 0xFF AND DUP1 ISZERO PUSH2 0x68F JUMPI POP DUP2 ISZERO JUMPDEST ISZERO PUSH2 0x6E9 JUMPI PUSH1 0x0 DUP2 PUSH1 0x9 ADD PUSH1 0x1 PUSH2 0x100 EXP DUP2 SLOAD DUP2 PUSH1 0xFF MUL NOT AND SWAP1 DUP4 ISZERO ISZERO MUL OR SWAP1 SSTORE POP PUSH32 0x8DA007FC61F3601008AA139C728EA9BF16672668B03C07F6C402AB74C034FC81 DUP9 PUSH1 0x40 MLOAD PUSH2 0x6E0 SWAP2 SWAP1 PUSH2 0x3C58 JUMP JUMPDEST PUSH1 0x40 MLOAD DUP1 SWAP2 SUB SWAP1 LOG1 JUMPDEST JUMPDEST DUP1 PUSH1 0x8 ADD PUSH1 0x0 PUSH2 0x6FA SWAP2 SWAP1 PUSH2 0x2A8B JUMP JUMPDEST PUSH1 0x0 JUMPDEST DUP6 DUP6 SWAP1 POP DUP2 LT ISZERO PUSH2 0x757 JUMPI DUP2 PUSH1 0x8 ADD DUP7 DUP7 DUP4 DUP2 DUP2 LT PUSH2 0x71F JUMPI PUSH2 0x71E PUSH2 0x4A9D JUMP JUMPDEST JUMPDEST SWAP1 POP PUSH1 0x20 MUL ADD CALLDATALOAD SWAP1 DUP1 PUSH1 0x1 DUP2 SLOAD ADD DUP1 DUP3 SSTORE DUP1 SWAP2 POP POP PUSH1 0x1 SWAP1 SUB SWAP1 PUSH1 0x0 MSTORE PUSH1 0x20 PUSH1 0x0 KECCAK256 ADD PUSH1 0x0 SWAP1 SWAP2 SWAP1 SWAP2 SWAP1 SWAP2 POP SSTORE DUP1 PUSH1 0x1 ADD SWAP1 POP PUSH2 0x6FD JUMP JUMPDEST POP PUSH32 0x887CC86755221DB77FB9A404D4834A6CA76A28DF7C71C7650318819AD0F46A3C DUP9 PUSH1 0x40 MLOAD PUSH2 0x787 SWAP2 SWAP1 PUSH2 0x3C58 JUMP JUMPDEST PUSH1 0x40 MLOAD DUP1 SWAP2 SUB SWAP1 LOG1 POP POP POP POP POP POP POP POP JUMP JUMPDEST PUSH2 0x7A1 PUSH2 0x2AAC JUMP JUMPDEST PUSH1 0x1 PUSH1 0x0 DUP5 DUP2 MSTORE PUSH1 0x20 ADD SWAP1 DUP2 MSTORE PUSH1 0x20 ADD PUSH1 0x0 KECCAK256 PUSH1 0x0 DUP4 DUP2 MSTORE PUSH1 0x20 ADD SWAP1 DUP2 MSTORE PUSH1 0x20 ADD PUSH1 0x0 KECCAK256 PUSH1 0x40 MLOAD DUP1 PUSH2 0x120 ADD PUSH1 0x40 MSTORE SWAP1 DUP2 PUSH1 0x0 DUP3 ADD DUP1 SLOAD PUSH2 0x7E1 SWAP1 PUSH2 0x3E67 JUMP JUMPDEST DUP1 PUSH1 0x1F ADD PUSH1 0x20 DUP1 SWAP2 DIV MUL PUSH1 0x20 ADD PUSH1 0x40 MLOAD SWAP1 DUP2 ADD PUSH1 0x40 MSTORE DUP1 SWAP3 SWAP2 SWAP1 DUP2 DUP2 MSTORE PUSH1 0x20 ADD DUP3 DUP1 SLOAD PUSH2 0x80D SWAP1 PUSH2 0x3E67 JUMP JUMPDEST DUP1 ISZERO PUSH2 0x85A JUMPI DUP1 PUSH1 0x1F LT PUSH2 0x82F JUMPI PUSH2 0x100 DUP1 DUP4 SLOAD DIV MUL DUP4 MSTORE SWAP2 PUSH1 0x20 ADD SWAP2 PUSH2 0x85A JUMP JUMPDEST DUP3 ADD SWAP2 SWAP1 PUSH1 0x0 MSTORE PUSH1 0x20 PUSH1 0x0 KECCAK256 SWAP1 JUMPDEST DUP2 SLOAD DUP2 MSTORE SWAP1 PUSH1 0x1 ADD SWAP1 PUSH1 0x20 ADD DUP1 DUP4 GT PUSH2 0x83D JUMPI DUP3 SWAP1 SUB PUSH1 0x1F AND DUP3 ADD SWAP2 JUMPDEST POP POP POP POP POP DUP2 MSTORE PUSH1 0x20 ADD PUSH1 0x1 DUP3 ADD DUP1 SLOAD DUP1 PUSH1 0x20 MUL PUSH1 0x20 ADD PUSH1 0x40 MLOAD SWAP1 DUP2 ADD PUSH1 0x40 MSTORE DUP1 SWAP3 SWAP2 SWAP1 DUP2 DUP2 MSTORE PUSH1 0x20 ADD PUSH1 0x0 SWAP1 JUMPDEST DUP3 DUP3 LT ISZERO PUSH2 0x934 JUMPI DUP4 DUP3 SWAP1 PUSH1 0x0 MSTORE PUSH1 0x20 PUSH1 0x0 KECCAK256 ADD DUP1 SLOAD PUSH2 0x8A7 SWAP1 PUSH2 0x3E67 JUMP JUMPDEST DUP1 PUSH1 0x1F ADD PUSH1 0x20 DUP1 SWAP2 DIV MUL PUSH1 0x20 ADD PUSH1 0x40 MLOAD SWAP1 DUP2 ADD PUSH1 0x40 MSTORE DUP1 SWAP3 SWAP2 SWAP1 DUP2 DUP2 MSTORE PUSH1 0x20 ADD DUP3 DUP1 SLOAD PUSH2 0x8D3 SWAP1 PUSH2 0x3E67 JUMP JUMPDEST DUP1 ISZERO PUSH2 0x920 JUMPI DUP1 PUSH1 0x1F LT PUSH2 0x8F5 JUMPI PUSH2 0x100 DUP1 DUP4 SLOAD DIV MUL DUP4 MSTORE SWAP2 PUSH1 0x20 ADD SWAP2 PUSH2 0x920 JUMP JUMPDEST DUP3 ADD SWAP2 SWAP1 PUSH1 0x0 MSTORE PUSH1 0x20 PUSH1 0x0 KECCAK256 SWAP1 JUMPDEST DUP2 SLOAD DUP2 MSTORE SWAP1 PUSH1 0x1 ADD SWAP1 PUSH1 0x20 ADD DUP1 DUP4 GT PUSH2 0x903 JUMPI DUP3 SWAP1 SUB PUSH1 0x1F AND DUP3 ADD SWAP2 JUMPDEST POP POP POP POP POP DUP2 MSTORE PUSH1 0x20 ADD SWAP1 PUSH1 0x1 ADD SWAP1 PUSH2 0x888 JUMP JUMPDEST POP POP POP POP DUP2 MSTORE PUSH1 0x20 ADD PUSH1 0x2 DUP3 ADD DUP1 SLOAD PUSH2 0x94C SWAP1 PUSH2 0x3E67 JUMP JUMPDEST DUP1 PUSH1 0x1F ADD PUSH1 0x20 DUP1 SWAP2 DIV MUL PUSH1 0x20 ADD PUSH1 0x40 MLOAD SWAP1 DUP2 ADD PUSH1 0x40 MSTORE DUP1 SWAP3 SWAP2 SWAP1 DUP2 DUP2 MSTORE PUSH1 0x20 ADD DUP3 DUP1 SLOAD PUSH2 0x978 SWAP1 PUSH2 0x3E67 JUMP JUMPDEST DUP1 ISZERO PUSH2 0x9C5 JUMPI DUP1 PUSH1 0x1F LT PUSH2 0x99A JUMPI PUSH2 0x100 DUP1 DUP4 SLOAD DIV MUL DUP4 MSTORE SWAP2 PUSH1 0x20 ADD SWAP2 PUSH2 0x9C5 JUMP JUMPDEST DUP3 ADD SWAP2 SWAP1 PUSH1 0x0 MSTORE PUSH1 0x20 PUSH1 0x0 KECCAK256 SWAP1 JUMPDEST DUP2 SLOAD DUP2 MSTORE SWAP1 PUSH1 0x1 ADD SWAP1 PUSH1 0x20 ADD DUP1 DUP4 GT PUSH2 0x9A8 JUMPI DUP3 SWAP1 SUB PUSH1 0x1F AND DUP3 ADD SWAP2 JUMPDEST POP POP POP POP POP DUP2 MSTORE PUSH1 0x20 ADD PUSH1 0x3 DUP3 ADD DUP1 SLOAD DUP1 PUSH1 0x20 MUL PUSH1 0x20 ADD PUSH1 0x40 MLOAD SWAP1 DUP2 ADD PUSH1 0x40 MSTORE DUP1 SWAP3 SWAP2 SWAP1 DUP2 DUP2 MSTORE PUSH1 0x20 ADD PUSH1 0x0 SWAP1 JUMPDEST DUP3 DUP3 LT ISZERO PUSH2 0xA65 JUMPI DUP4 DUP3 SWAP1 PUSH1 0x0 MSTORE PUSH1 0x20 PUSH1 0x0 KECCAK256 ADD DUP1 SLOAD DUP1 PUSH1 0x20 MUL PUSH1 0x20 ADD PUSH1 0x40 MLOAD SWAP1 DUP2 ADD PUSH1 0x40 MSTORE DUP1 SWAP3 SWAP2 SWAP1 DUP2 DUP2 MSTORE PUSH1 0x20 ADD DUP3 DUP1 SLOAD DUP1 ISZERO PUSH2 0xA51 JUMPI PUSH1 0x20 MUL DUP3 ADD SWAP2 SWAP1 PUSH1 0x0 MSTORE PUSH1 0x20 PUSH1 0x0 KECCAK256 SWAP1 JUMPDEST DUP2 SLOAD DUP2 MSTORE PUSH1 0x20 ADD SWAP1 PUSH1 0x1 ADD SWAP1 DUP1 DUP4 GT PUSH2 0xA3D JUMPI JUMPDEST POP POP POP POP POP DUP2 MSTORE PUSH1 0x20 ADD SWAP1 PUSH1 0x1 ADD SWAP1 PUSH2 0x9F3 JUMP JUMPDEST POP POP POP POP DUP2 MSTORE PUSH1 0x20 ADD PUSH1 0x4 DUP3 ADD SLOAD DUP2 MSTORE PUSH1 0x20 ADD PUSH1 0x5 DUP3 ADD SLOAD DUP2 MSTORE PUSH1 0x20 ADD PUSH1 0x6 DUP3 ADD DUP1 SLOAD DUP1 PUSH1 0x20 MUL PUSH1 0x20 ADD PUSH1 0x40 MLOAD SWAP1 DUP2 ADD PUSH1 0x40 MSTORE DUP1 SWAP3 SWAP2 SWAP1 DUP2 DUP2 MSTORE PUSH1 0x20 ADD DUP3 DUP1 SLOAD DUP1 ISZERO PUSH2 0xAD0 JUMPI PUSH1 0x20 MUL DUP3 ADD SWAP2 SWAP1 PUSH1 0x0 MSTORE PUSH1 0x20 PUSH1 0x0 KECCAK256 SWAP1 JUMPDEST DUP2 SLOAD DUP2 MSTORE PUSH1 0x20 ADD SWAP1 PUSH1 0x1 ADD SWAP1 DUP1 DUP4 GT PUSH2 0xABC JUMPI JUMPDEST POP POP POP POP POP DUP2 MSTORE PUSH1 0x20 ADD PUSH1 0x7 DUP3 ADD SLOAD DUP2 MSTORE PUSH1 0x20 ADD PUSH1 0x8 DUP3 ADD DUP1 SLOAD PUSH2 0xAF3 SWAP1 PUSH2 0x3E67 JUMP JUMPDEST DUP1 PUSH1 0x1F ADD PUSH1 0x20 DUP1 SWAP2 DIV MUL PUSH1 0x20 ADD PUSH1 0x40 MLOAD SWAP1 DUP2 ADD PUSH1 0x40 MSTORE DUP1 SWAP3 SWAP2 SWAP1 DUP2 DUP2 MSTORE PUSH1 0x20 ADD DUP3 DUP1 SLOAD PUSH2 0xB1F SWAP1 PUSH2 0x3E67 JUMP JUMPDEST DUP1 ISZERO PUSH2 0xB6C JUMPI DUP1 PUSH1 0x1F LT PUSH2 0xB41 JUMPI PUSH2 0x100 DUP1 DUP4 SLOAD DIV MUL DUP4 MSTORE SWAP2 PUSH1 0x20 ADD SWAP2 PUSH2 0xB6C JUMP JUMPDEST DUP3 ADD SWAP2 SWAP1 PUSH1 0x0 MSTORE PUSH1 0x20 PUSH1 0x0 KECCAK256 SWAP1 JUMPDEST DUP2 SLOAD DUP2 MSTORE SWAP1 PUSH1 0x1 ADD SWAP1 PUSH1 0x20 ADD DUP1 DUP4 GT PUSH2 0xB4F JUMPI DUP3 SWAP1 SUB PUSH1 0x1F AND DUP3 ADD SWAP2 JUMPDEST POP POP POP POP POP DUP2 MSTORE POP POP SWAP1 POP SWAP3 SWAP2 POP POP JUMP JUMPDEST PUSH2 0xB85 PUSH2 0x2AFB JUMP JUMPDEST PUSH1 0x0 DUP1 DUP4 DUP2 MSTORE PUSH1 0x20 ADD SWAP1 DUP2 MSTORE PUSH1 0x20 ADD PUSH1 0x0 KECCAK256 PUSH1 0x40 MLOAD DUP1 PUSH1 0xC0 ADD PUSH1 0x40 MSTORE SWAP1 DUP2 PUSH1 0x0 DUP3 ADD PUSH1 0x40 MLOAD DUP1 PUSH1 0xA0 ADD PUSH1 0x40 MSTORE SWAP1 DUP2 PUSH1 0x0 DUP3 ADD DUP1 SLOAD PUSH2 0xBC2 SWAP1 PUSH2 0x3E67 JUMP JUMPDEST DUP1 PUSH1 0x1F ADD PUSH1 0x20 DUP1 SWAP2 DIV MUL PUSH1 0x20 ADD PUSH1 0x40 MLOAD SWAP1 DUP2 ADD PUSH1 0x40 MSTORE DUP1 SWAP3 SWAP2 SWAP1 DUP2 DUP2 MSTORE PUSH1 0x20 ADD DUP3 DUP1 SLOAD PUSH2 0xBEE SWAP1 PUSH2 0x3E67 JUMP JUMPDEST DUP1 ISZERO PUSH2 0xC3B JUMPI DUP1 PUSH1 0x1F LT PUSH2 0xC10 JUMPI PUSH2 0x100 DUP1 DUP4 SLOAD DIV MUL DUP4 MSTORE SWAP2 PUSH1 0x20 ADD SWAP2 PUSH2 0xC3B JUMP JUMPDEST DUP3 ADD SWAP2 SWAP1 PUSH1 0x0 MSTORE PUSH1 0x20 PUSH1 0x0 KECCAK256 SWAP1 JUMPDEST DUP2 SLOAD DUP2 MSTORE SWAP1 PUSH1 0x1 ADD SWAP1 PUSH1 0x20 ADD DUP1 DUP4 GT PUSH2 0xC1E JUMPI DUP3 SWAP1 SUB PUSH1 0x1F AND DUP3 ADD SWAP2 JUMPDEST POP POP POP POP POP DUP2 MSTORE PUSH1 0x20 ADD PUSH1 0x1 DUP3 ADD DUP1 SLOAD PUSH2 0xC54 SWAP1 PUSH2 0x3E67 JUMP JUMPDEST DUP1 PUSH1 0x1F ADD PUSH1 0x20 DUP1 SWAP2 DIV MUL PUSH1 0x20 ADD PUSH1 0x40 MLOAD SWAP1 DUP2 ADD PUSH1 0x40 MSTORE DUP1 SWAP3 SWAP2 SWAP1 DUP2 DUP2 MSTORE PUSH1 0x20 ADD DUP3 DUP1 SLOAD PUSH2 0xC80 SWAP1 PUSH2 0x3E67 JUMP JUMPDEST DUP1 ISZERO PUSH2 0xCCD JUMPI DUP1 PUSH1 0x1F LT PUSH2 0xCA2 JUMPI PUSH2 0x100 DUP1 DUP4 SLOAD DIV MUL DUP4 MSTORE SWAP2 PUSH1 0x20 ADD SWAP2 PUSH2 0xCCD JUMP JUMPDEST DUP3 ADD SWAP2 SWAP1 PUSH1 0x0 MSTORE PUSH1 0x20 PUSH1 0x0 KECCAK256 SWAP1 JUMPDEST DUP2 SLOAD DUP2 MSTORE SWAP1 PUSH1 0x1 ADD SWAP1 PUSH1 0x20 ADD DUP1 DUP4 GT PUSH2 0xCB0 JUMPI DUP3 SWAP1 SUB PUSH1 0x1F AND DUP3 ADD SWAP2 JUMPDEST POP POP POP POP POP DUP2 MSTORE PUSH1 0x20 ADD PUSH1 0x2 DUP3 ADD DUP1 SLOAD PUSH2 0xCE6 SWAP1 PUSH2 0x3E67 JUMP JUMPDEST DUP1 PUSH1 0x1F ADD PUSH1 0x20 DUP1 SWAP2 DIV MUL PUSH1 0x20 ADD PUSH1 0x40 MLOAD SWAP1 DUP2 ADD PUSH1 0x40 MSTORE DUP1 SWAP3 SWAP2 SWAP1 DUP2 DUP2 MSTORE PUSH1 0x20 ADD DUP3 DUP1 SLOAD PUSH2 0xD12 SWAP1 PUSH2 0x3E67 JUMP JUMPDEST DUP1 ISZERO PUSH2 0xD5F JUMPI DUP1 PUSH1 0x1F LT PUSH2 0xD34 JUMPI PUSH2 0x100 DUP1 DUP4 SLOAD DIV MUL DUP4 MSTORE SWAP2 PUSH1 0x20 ADD SWAP2 PUSH2 0xD5F JUMP JUMPDEST DUP3 ADD SWAP2 SWAP1 PUSH1 0x0 MSTORE PUSH1 0x20 PUSH1 0x0 KECCAK256 SWAP1 JUMPDEST DUP2 SLOAD DUP2 MSTORE SWAP1 PUSH1 0x1 ADD SWAP1 PUSH1 0x20 ADD DUP1 DUP4 GT PUSH2 0xD42 JUMPI DUP3 SWAP1 SUB PUSH1 0x1F AND DUP3 ADD SWAP2 JUMPDEST POP POP POP POP POP DUP2 MSTORE PUSH1 0x20 ADD PUSH1 0x3 DUP3 ADD DUP1 SLOAD DUP1 PUSH1 0x20 MUL PUSH1 0x20 ADD PUSH1 0x40 MLOAD SWAP1 DUP2 ADD PUSH1 0x40 MSTORE DUP1 SWAP3 SWAP2 SWAP1 DUP2 DUP2 MSTORE PUSH1 0x20 ADD PUSH1 0x0 SWAP1 JUMPDEST DUP3 DUP3 LT ISZERO PUSH2 0xE39 JUMPI DUP4 DUP3 SWAP1 PUSH1 0x0 MSTORE PUSH1 0x20 PUSH1 0x0 KECCAK256 ADD DUP1 SLOAD PUSH2 0xDAC SWAP1 PUSH2 0x3E67 JUMP JUMPDEST DUP1 PUSH1 0x1F ADD PUSH1 0x20 DUP1 SWAP2 DIV MUL PUSH1 0x20 ADD PUSH1 0x40 MLOAD SWAP1 DUP2 ADD PUSH1 0x40 MSTORE DUP1 SWAP3 SWAP2 SWAP1 DUP2 DUP2 MSTORE PUSH1 0x20 ADD DUP3 DUP1 SLOAD PUSH2 0xDD8 SWAP1 PUSH2 0x3E67 JUMP JUMPDEST DUP1 ISZERO PUSH2 0xE25 JUMPI DUP1 PUSH1 0x1F LT PUSH2 0xDFA JUMPI PUSH2 0x100 DUP1 DUP4 SLOAD DIV MUL DUP4 MSTORE SWAP2 PUSH1 0x20 ADD SWAP2 PUSH2 0xE25 JUMP JUMPDEST DUP3 ADD SWAP2 SWAP1 PUSH1 0x0 MSTORE PUSH1 0x20 PUSH1 0x0 KECCAK256 SWAP1 JUMPDEST DUP2 SLOAD DUP2 MSTORE SWAP1 PUSH1 0x1 ADD SWAP1 PUSH1 0x20 ADD DUP1 DUP4 GT PUSH2 0xE08 JUMPI DUP3 SWAP1 SUB PUSH1 0x1F AND DUP3 ADD SWAP2 JUMPDEST POP POP POP POP POP DUP2 MSTORE PUSH1 0x20 ADD SWAP1 PUSH1 0x1 ADD SWAP1 PUSH2 0xD8D JUMP JUMPDEST POP POP POP POP DUP2 MSTORE PUSH1 0x20 ADD PUSH1 0x4 DUP3 ADD PUSH1 0x0 SWAP1 SLOAD SWAP1 PUSH2 0x100 EXP SWAP1 DIV PUSH1 0xFF AND ISZERO ISZERO ISZERO ISZERO DUP2 MSTORE POP POP DUP2 MSTORE PUSH1 0x20 ADD PUSH1 0x5 DUP3 ADD PUSH1 0x40 MLOAD DUP1 PUSH1 0x60 ADD PUSH1 0x40 MSTORE SWAP1 DUP2 PUSH1 0x0 DUP3 ADD PUSH1 0x0 SWAP1 SLOAD SWAP1 PUSH2 0x100 EXP SWAP1 DIV PUSH1 0xFF AND PUSH1 0x5 DUP2 GT ISZERO PUSH2 0xE95 JUMPI PUSH2 0xE94 PUSH2 0x3537 JUMP JUMPDEST JUMPDEST PUSH1 0x5 DUP2 GT ISZERO PUSH2 0xEA7 JUMPI PUSH2 0xEA6 PUSH2 0x3537 JUMP JUMPDEST JUMPDEST DUP2 MSTORE PUSH1 0x20 ADD PUSH1 0x1 DUP3 ADD DUP1 SLOAD DUP1 PUSH1 0x20 MUL PUSH1 0x20 ADD PUSH1 0x40 MLOAD SWAP1 DUP2 ADD PUSH1 0x40 MSTORE DUP1 SWAP3 SWAP2 SWAP1 DUP2 DUP2 MSTORE PUSH1 0x20 ADD PUSH1 0x0 SWAP1 JUMPDEST DUP3 DUP3 LT ISZERO PUSH2 0xFEA JUMPI DUP4 DUP3 SWAP1 PUSH1 0x0 MSTORE PUSH1 0x20 PUSH1 0x0 KECCAK256 SWAP1 PUSH1 0x2 MUL ADD PUSH1 0x40 MLOAD DUP1 PUSH1 0x40 ADD PUSH1 0x40 MSTORE SWAP1 DUP2 PUSH1 0x0 DUP3 ADD DUP1 SLOAD PUSH2 0xF03 SWAP1 PUSH2 0x3E67 JUMP JUMPDEST DUP1 PUSH1 0x1F ADD PUSH1 0x20 DUP1 SWAP2 DIV MUL PUSH1 0x20 ADD PUSH1 0x40 MLOAD SWAP1 DUP2 ADD PUSH1 0x40 MSTORE DUP1 SWAP3 SWAP2 SWAP1 DUP2 DUP2 MSTORE PUSH1 0x20 ADD DUP3 DUP1 SLOAD PUSH2 0xF2F SWAP1 PUSH2 0x3E67 JUMP JUMPDEST DUP1 ISZERO PUSH2 0xF7C JUMPI DUP1 PUSH1 0x1F LT PUSH2 0xF51 JUMPI PUSH2 0x100 DUP1 DUP4 SLOAD DIV MUL DUP4 MSTORE SWAP2 PUSH1 0x20 ADD SWAP2 PUSH2 0xF7C JUMP JUMPDEST DUP3 ADD SWAP2 SWAP1 PUSH1 0x0 MSTORE PUSH1 0x20 PUSH1 0x0 KECCAK256 SWAP1 JUMPDEST DUP2 SLOAD DUP2 MSTORE SWAP1 PUSH1 0x1 ADD SWAP1 PUSH1 0x20 ADD DUP1 DUP4 GT PUSH2 0xF5F JUMPI DUP3 SWAP1 SUB PUSH1 0x1F AND DUP3 ADD SWAP2 JUMPDEST POP POP POP POP POP DUP2 MSTORE PUSH1 0x20 ADD PUSH1 0x1 DUP3 ADD PUSH1 0x0 SWAP1 SLOAD SWAP1 PUSH2 0x100 EXP SWAP1 DIV PUSH20 0xFFFFFFFFFFFFFFFFFFFFFFFFFFFFFFFFFFFFFFFF AND PUSH20 0xFFFFFFFFFFFFFFFFFFFFFFFFFFFFFFFFFFFFFFFF AND PUSH20 0xFFFFFFFFFFFFFFFFFFFFFFFFFFFFFFFFFFFFFFFF AND DUP2 MSTORE POP POP DUP2 MSTORE PUSH1 0x20 ADD SWAP1 PUSH1 0x1 ADD SWAP1 PUSH2 0xED0 JUMP JUMPDEST POP POP POP POP DUP2 MSTORE PUSH1 0x20 ADD PUSH1 0x2 DUP3 ADD DUP1 SLOAD PUSH2 0x1002 SWAP1 PUSH2 0x3E67 JUMP JUMPDEST DUP1 PUSH1 0x1F ADD PUSH1 0x20 DUP1 SWAP2 DIV MUL PUSH1 0x20 ADD PUSH1 0x40 MLOAD SWAP1 DUP2 ADD PUSH1 0x40 MSTORE DUP1 SWAP3 SWAP2 SWAP1 DUP2 DUP2 MSTORE PUSH1 0x20 ADD DUP3 DUP1 SLOAD PUSH2 0x102E SWAP1 PUSH2 0x3E67 JUMP JUMPDEST DUP1 ISZERO PUSH2 0x107B JUMPI DUP1 PUSH1 0x1F LT PUSH2 0x1050 JUMPI PUSH2 0x100 DUP1 DUP4 SLOAD DIV MUL DUP4 MSTORE SWAP2 PUSH1 0x20 ADD SWAP2 PUSH2 0x107B JUMP JUMPDEST DUP3 ADD SWAP2 SWAP1 PUSH1 0x0 MSTORE PUSH1 0x20 PUSH1 0x0 KECCAK256 SWAP1 JUMPDEST DUP2 SLOAD DUP2 MSTORE SWAP1 PUSH1 0x1 ADD SWAP1 PUSH1 0x20 ADD DUP1 DUP4 GT PUSH2 0x105E JUMPI DUP3 SWAP1 SUB PUSH1 0x1F AND DUP3 ADD SWAP2 JUMPDEST POP POP POP POP POP DUP2 MSTORE POP POP DUP2 MSTORE PUSH1 0x20 ADD PUSH1 0x8 DUP3 ADD DUP1 SLOAD DUP1 PUSH1 0x20 MUL PUSH1 0x20 ADD PUSH1 0x40 MLOAD SWAP1 DUP2 ADD PUSH1 0x40 MSTORE DUP1 SWAP3 SWAP2 SWAP1 DUP2 DUP2 MSTORE PUSH1 0x20 ADD DUP3 DUP1 SLOAD DUP1 ISZERO PUSH2 0x10D7 JUMPI PUSH1 0x20 MUL DUP3 ADD SWAP2 SWAP1 PUSH1 0x0 MSTORE PUSH1 0x20 PUSH1 0x0 KECCAK256 SWAP1 JUMPDEST DUP2 SLOAD DUP2 MSTORE PUSH1 0x20 ADD SWAP1 PUSH1 0x1 ADD SWAP1 DUP1 DUP4 GT PUSH2 0x10C3 JUMPI JUMPDEST POP POP POP POP POP DUP2 MSTORE PUSH1 0x20 ADD PUSH1 0x9 DUP3 ADD PUSH1 0x0 SWAP1 SLOAD SWAP1 PUSH2 0x100 EXP SWAP1 DIV PUSH1 0xFF AND PUSH1 0x1 DUP2 GT ISZERO PUSH2 0x1105 JUMPI PUSH2 0x1104 PUSH2 0x3537 JUMP JUMPDEST JUMPDEST PUSH1 0x1 DUP2 GT ISZERO PUSH2 0x1117 JUMPI PUSH2 0x1116 PUSH2 0x3537 JUMP JUMPDEST JUMPDEST DUP2 MSTORE PUSH1 0x20 ADD PUSH1 0x9 DUP3 ADD PUSH1 0x1 SWAP1 SLOAD SWAP1 PUSH2 0x100 EXP SWAP1 DIV PUSH1 0xFF AND ISZERO ISZERO ISZERO ISZERO DUP2 MSTORE PUSH1 0x20 ADD PUSH1 0xA DUP3 ADD SLOAD DUP2 MSTORE POP POP SWAP1 POP SWAP2 SWAP1 POP JUMP JUMPDEST PUSH2 0x114F PUSH2 0x2204 JUMP JUMPDEST PUSH1 0x0 DUP1 DUP5 DUP2 MSTORE PUSH1 0x20 ADD SWAP1 DUP2 MSTORE PUSH1 0x20 ADD PUSH1 0x0 KECCAK256 PUSH1 0x9 ADD PUSH1 0x1 SWAP1 SLOAD SWAP1 PUSH2 0x100 EXP SWAP1 DIV PUSH1 0xFF AND ISZERO PUSH2 0x11B2 JUMPI PUSH1 0x40 MLOAD PUSH32 0x8C379A000000000000000000000000000000000000000000000000000000000 DUP2 MSTORE PUSH1 0x4 ADD PUSH2 0x11A9 SWAP1 PUSH2 0x4B18 JUMP JUMPDEST PUSH1 0x40 MLOAD DUP1 SWAP2 SUB SWAP1 REVERT JUMPDEST PUSH1 0x3 SLOAD PUSH1 0x0 DUP1 DUP6 DUP2 MSTORE PUSH1 0x20 ADD SWAP1 DUP2 MSTORE PUSH1 0x20 ADD PUSH1 0x0 KECCAK256 PUSH1 0xA ADD SLOAD LT ISZERO PUSH2 0x120C JUMPI PUSH1 0x40 MLOAD PUSH32 0x8C379A000000000000000000000000000000000000000000000000000000000 DUP2 MSTORE PUSH1 0x4 ADD PUSH2 0x1203 SWAP1 PUSH2 0x4BAA JUMP JUMPDEST PUSH1 0x40 MLOAD DUP1 SWAP2 SUB SWAP1 REVERT JUMPDEST PUSH1 0x3 SLOAD PUSH1 0x0 DUP1 DUP6 DUP2 MSTORE PUSH1 0x20 ADD SWAP1 DUP2 MSTORE PUSH1 0x20 ADD PUSH1 0x0 KECCAK256 PUSH1 0xA ADD PUSH1 0x0 DUP3 DUP3 SLOAD PUSH2 0x1233 SWAP2 SWAP1 PUSH2 0x4BCA JUMP JUMPDEST SWAP3 POP POP DUP2 SWAP1 SSTORE POP PUSH1 0x3 SLOAD PUSH1 0x0 DUP1 DUP6 DUP2 MSTORE PUSH1 0x20 ADD SWAP1 DUP2 MSTORE PUSH1 0x20 ADD PUSH1 0x0 KECCAK256 PUSH1 0xA ADD SLOAD LT ISZERO PUSH2 0x12BF JUMPI PUSH1 0x1 PUSH1 0x0 DUP1 DUP6 DUP2 MSTORE PUSH1 0x20 ADD SWAP1 DUP2 MSTORE PUSH1 0x20 ADD PUSH1 0x0 KECCAK256 PUSH1 0x9 ADD PUSH1 0x1 PUSH2 0x100 EXP DUP2 SLOAD DUP2 PUSH1 0xFF MUL NOT AND SWAP1 DUP4 ISZERO ISZERO MUL OR SWAP1 SSTORE POP PUSH32 0xD5D88098DE5BA30573F08926C4E6445CAB93CE09D98C1147A64045608A50797F DUP4 PUSH1 0x40 MLOAD PUSH2 0x12B6 SWAP2 SWAP1 PUSH2 0x3C58 JUMP JUMPDEST PUSH1 0x40 MLOAD DUP1 SWAP2 SUB SWAP1 LOG1 JUMPDEST PUSH2 0x12C7 PUSH2 0x2AAC JUMP JUMPDEST DUP2 DUP1 PUSH1 0x0 ADD SWAP1 PUSH2 0x12D7 SWAP2 SWAP1 PUSH2 0x3DCA JUMP JUMPDEST DUP1 DUP1 PUSH1 0x1F ADD PUSH1 0x20 DUP1 SWAP2 DIV MUL PUSH1 0x20 ADD PUSH1 0x40 MLOAD SWAP1 DUP2 ADD PUSH1 0x40 MSTORE DUP1 SWAP4 SWAP3 SWAP2 SWAP1 DUP2 DUP2 MSTORE PUSH1 0x20 ADD DUP4 DUP4 DUP1 DUP3 DUP5 CALLDATACOPY PUSH1 0x0 DUP2 DUP5 ADD MSTORE PUSH1 0x1F NOT PUSH1 0x1F DUP3 ADD AND SWAP1 POP DUP1 DUP4 ADD SWAP3 POP POP POP POP POP POP POP DUP2 PUSH1 0x0 ADD DUP2 SWAP1 MSTORE POP DUP2 DUP1 PUSH1 0x20 ADD SWAP1 PUSH2 0x1332 SWAP2 SWAP1 PUSH2 0x4124 JUMP JUMPDEST SWAP1 PUSH2 0x133D SWAP2 SWAP1 PUSH2 0x4D52 JUMP JUMPDEST DUP2 PUSH1 0x20 ADD DUP2 SWAP1 MSTORE POP DUP2 DUP1 PUSH1 0x40 ADD SWAP1 PUSH2 0x1355 SWAP2 SWAP1 PUSH2 0x3DCA JUMP JUMPDEST DUP1 DUP1 PUSH1 0x1F ADD PUSH1 0x20 DUP1 SWAP2 DIV MUL PUSH1 0x20 ADD PUSH1 0x40 MLOAD SWAP1 DUP2 ADD PUSH1 0x40 MSTORE DUP1 SWAP4 SWAP3 SWAP2 SWAP1 DUP2 DUP2 MSTORE PUSH1 0x20 ADD DUP4 DUP4 DUP1 DUP3 DUP5 CALLDATACOPY PUSH1 0x0 DUP2 DUP5 ADD MSTORE PUSH1 0x1F NOT PUSH1 0x1F DUP3 ADD AND SWAP1 POP DUP1 DUP4 ADD SWAP3 POP POP POP POP POP POP POP DUP2 PUSH1 0x40 ADD DUP2 SWAP1 MSTORE POP DUP2 DUP1 PUSH1 0x60 ADD SWAP1 PUSH2 0x13B0 SWAP2 SWAP1 PUSH2 0x4D67 JUMP JUMPDEST SWAP1 PUSH2 0x13BB SWAP2 SWAP1 PUSH2 0x4F40 JUMP JUMPDEST DUP2 PUSH1 0x60 ADD DUP2 SWAP1 MSTORE POP DUP2 PUSH1 0x80 ADD CALLDATALOAD DUP2 PUSH1 0x80 ADD DUP2 DUP2 MSTORE POP POP DUP2 PUSH1 0xA0 ADD CALLDATALOAD DUP2 PUSH1 0xA0 ADD DUP2 DUP2 MSTORE POP POP DUP2 DUP1 PUSH1 0xC0 ADD SWAP1 PUSH2 0x13EF SWAP2 SWAP1 PUSH2 0x4F55 JUMP JUMPDEST DUP1 DUP1 PUSH1 0x20 MUL PUSH1 0x20 ADD PUSH1 0x40 MLOAD SWAP1 DUP2 ADD PUSH1 0x40 MSTORE DUP1 SWAP4 SWAP3 SWAP2 SWAP1 DUP2 DUP2 MSTORE PUSH1 0x20 ADD DUP4 DUP4 PUSH1 0x20 MUL DUP1 DUP3 DUP5 CALLDATACOPY PUSH1 0x0 DUP2 DUP5 ADD MSTORE PUSH1 0x1F NOT PUSH1 0x1F DUP3 ADD AND SWAP1 POP DUP1 DUP4 ADD SWAP3 POP POP POP POP POP POP POP DUP2 PUSH1 0xC0 ADD DUP2 SWAP1 MSTORE POP DUP2 PUSH1 0xE0 ADD CALLDATALOAD DUP2 PUSH1 0xE0 ADD DUP2 DUP2 MSTORE POP POP DUP2 DUP1 PUSH2 0x100 ADD SWAP1 PUSH2 0x1456 SWAP2 SWAP1 PUSH2 0x3DCA JUMP JUMPDEST DUP1 DUP1 PUSH1 0x1F ADD PUSH1 0x20 DUP1 SWAP2 DIV MUL PUSH1 0x20 ADD PUSH1 0x40 MLOAD SWAP1 DUP2 ADD PUSH1 0x40 MSTORE DUP1 SWAP4 SWAP3 SWAP2 SWAP1 DUP2 DUP2 MSTORE PUSH1 0x20 ADD DUP4 DUP4 DUP1 DUP3 DUP5 CALLDATACOPY PUSH1 0x0 DUP2 DUP5 ADD MSTORE PUSH1 0x1F NOT PUSH1 0x1F DUP3 ADD AND SWAP1 POP DUP1 DUP4 ADD SWAP3 POP POP POP POP POP POP POP DUP2 PUSH2 0x100 ADD DUP2 SWAP1 MSTORE POP DUP1 PUSH1 0x1 PUSH1 0x0 DUP7 DUP2 MSTORE PUSH1 0x20 ADD SWAP1 DUP2 MSTORE PUSH1 0x20 ADD PUSH1 0x0 KECCAK256 PUSH1 0x0 DUP6 DUP2 MSTORE PUSH1 0x20 ADD SWAP1 DUP2 MSTORE PUSH1 0x20 ADD PUSH1 0x0 KECCAK256 PUSH1 0x0 DUP3 ADD MLOAD DUP2 PUSH1 0x0 ADD SWAP1 DUP2 PUSH2 0x14DC SWAP2 SWAP1 PUSH2 0x4FB8 JUMP JUMPDEST POP PUSH1 0x20 DUP3 ADD MLOAD DUP2 PUSH1 0x1 ADD SWAP1 DUP1 MLOAD SWAP1 PUSH1 0x20 ADD SWAP1 PUSH2 0x14F9 SWAP3 SWAP2 SWAP1 PUSH2 0x2B51 JUMP JUMPDEST POP PUSH1 0x40 DUP3 ADD MLOAD DUP2 PUSH1 0x2 ADD SWAP1 DUP2 PUSH2 0x150F SWAP2 SWAP1 PUSH2 0x4FB8 JUMP JUMPDEST POP PUSH1 0x60 DUP3 ADD MLOAD DUP2 PUSH1 0x3 ADD SWAP1 DUP1 MLOAD SWAP1 PUSH1 0x20 ADD SWAP1 PUSH2 0x152C SWAP3 SWAP2 SWAP1 PUSH2 0x2BAA JUMP JUMPDEST POP PUSH1 0x80 DUP3 ADD MLOAD DUP2 PUSH1 0x4 ADD SSTORE PUSH1 0xA0 DUP3 ADD MLOAD DUP2 PUSH1 0x5 ADD SSTORE PUSH1 0xC0 DUP3 ADD MLOAD DUP2 PUSH1 0x6 ADD SWAP1 DUP1 MLOAD SWAP1 PUSH1 0x20 ADD SWAP1 PUSH2 0x155D SWAP3 SWAP2 SWAP1 PUSH2 0x2C0A JUMP JUMPDEST POP PUSH1 0xE0 DUP3 ADD MLOAD DUP2 PUSH1 0x7 ADD SSTORE PUSH2 0x100 DUP3 ADD MLOAD DUP2 PUSH1 0x8 ADD SWAP1 DUP2 PUSH2 0x157E SWAP2 SWAP1 PUSH2 0x4FB8 JUMP JUMPDEST POP SWAP1 POP POP PUSH32 0x77DEB32519991DDA7821B0B9367F9124AA3FD934F4845BCFD5DC6FA3F1922663 DUP5 DUP5 PUSH1 0x40 MLOAD PUSH2 0x15B3 SWAP3 SWAP2 SWAP1 PUSH2 0x508A JUMP JUMPDEST PUSH1 0x40 MLOAD DUP1 SWAP2 SUB SWAP1 LOG1 POP POP POP POP JUMP JUMPDEST PUSH2 0x15C9 PUSH2 0x2204 JUMP JUMPDEST PUSH1 0x0 SELFBALANCE SWAP1 POP PUSH1 0x0 DUP2 GT PUSH2 0x1611 JUMPI PUSH1 0x40 MLOAD PUSH32 0x8C379A000000000000000000000000000000000000000000000000000000000 DUP2 MSTORE PUSH1 0x4 ADD PUSH2 0x1608 SWAP1 PUSH2 0x50FF JUMP JUMPDEST PUSH1 0x40 MLOAD DUP1 SWAP2 SUB SWAP1 REVERT JUMPDEST PUSH1 0x0 PUSH2 0x161B PUSH2 0x1D4F JUMP JUMPDEST SWAP1 POP PUSH1 0x0 DUP2 PUSH20 0xFFFFFFFFFFFFFFFFFFFFFFFFFFFFFFFFFFFFFFFF AND DUP4 PUSH1 0x40 MLOAD PUSH2 0x1643 SWAP1 PUSH2 0x5150 JUMP JUMPDEST PUSH1 0x0 PUSH1 0x40 MLOAD DUP1 DUP4 SUB DUP2 DUP6 DUP8 GAS CALL SWAP3 POP POP POP RETURNDATASIZE DUP1 PUSH1 0x0 DUP2 EQ PUSH2 0x1680 JUMPI PUSH1 0x40 MLOAD SWAP2 POP PUSH1 0x1F NOT PUSH1 0x3F RETURNDATASIZE ADD AND DUP3 ADD PUSH1 0x40 MSTORE RETURNDATASIZE DUP3 MSTORE RETURNDATASIZE PUSH1 0x0 PUSH1 0x20 DUP5 ADD RETURNDATACOPY PUSH2 0x1685 JUMP JUMPDEST PUSH1 0x60 SWAP2 POP JUMPDEST POP POP SWAP1 POP DUP1 PUSH2 0x16C9 JUMPI PUSH1 0x40 MLOAD PUSH32 0x8C379A000000000000000000000000000000000000000000000000000000000 DUP2 MSTORE PUSH1 0x4 ADD PUSH2 0x16C0 SWAP1 PUSH2 0x51B1 JUMP JUMPDEST PUSH1 0x40 MLOAD DUP1 SWAP2 SUB SWAP1 REVERT JUMPDEST PUSH32 0xD964A27D45F595739C13D8B1160B57491050CACF3A2E5602207277D6228F64EE DUP4 DUP4 PUSH1 0x40 MLOAD PUSH2 0x16FA SWAP3 SWAP2 SWAP1 PUSH2 0x51F2 JUMP JUMPDEST PUSH1 0x40 MLOAD DUP1 SWAP2 SUB SWAP1 LOG1 POP POP POP JUMP JUMPDEST PUSH2 0x170F PUSH2 0x2204 JUMP JUMPDEST DUP1 PUSH1 0x3 DUP2 SWAP1 SSTORE POP PUSH32 0x840C2296C4C97ECDC9B8DC544CD67F45A8D629B9D6109410530BB58B7F17B92 DUP2 PUSH1 0x40 MLOAD PUSH2 0x1745 SWAP2 SWAP1 PUSH2 0x3C58 JUMP JUMPDEST PUSH1 0x40 MLOAD DUP1 SWAP2 SUB SWAP1 LOG1 POP JUMP JUMPDEST PUSH2 0x1758 PUSH2 0x228B JUMP JUMPDEST PUSH2 0x1761 DUP3 PUSH2 0x2371 JUMP JUMPDEST PUSH2 0x176B DUP3 DUP3 PUSH2 0x237C JUMP JUMPDEST POP POP JUMP JUMPDEST PUSH1 0x0 PUSH2 0x1779 PUSH2 0x249B JUMP JUMPDEST PUSH32 0x360894A13BA1A3210667C828492DB98DCA3E2076CC3735A920A3CA505D382BBC PUSH1 0x0 SHL SWAP1 POP SWAP1 JUMP JUMPDEST PUSH2 0x17AA PUSH2 0x2204 JUMP JUMPDEST DUP1 PUSH1 0x0 DUP1 DUP5 DUP2 MSTORE PUSH1 0x20 ADD SWAP1 DUP2 MSTORE PUSH1 0x20 ADD PUSH1 0x0 KECCAK256 PUSH1 0x5 ADD DUP2 DUP2 PUSH2 0x17CC SWAP2 SWAP1 PUSH2 0x4A8F JUMP JUMPDEST SWAP1 POP POP PUSH32 0xF768BB0DD5BD987CDBC2706C837263B29E7326B0651E4FE20C16372D24CC02AC DUP3 DUP3 PUSH1 0x40 MLOAD PUSH2 0x1800 SWAP3 SWAP2 SWAP1 PUSH2 0x54DF JUMP JUMPDEST PUSH1 0x40 MLOAD DUP1 SWAP2 SUB SWAP1 LOG1 POP POP JUMP JUMPDEST PUSH1 0x1 DUP1 DUP2 GT ISZERO PUSH2 0x181F JUMPI PUSH2 0x181E PUSH2 0x3537 JUMP JUMPDEST JUMPDEST DUP2 PUSH1 0x1 DUP2 GT ISZERO PUSH2 0x1832 JUMPI PUSH2 0x1831 PUSH2 0x3537 JUMP JUMPDEST JUMPDEST EQ ISZERO DUP1 ISZERO PUSH2 0x1865 JUMPI POP PUSH1 0x0 PUSH1 0x1 DUP2 GT ISZERO PUSH2 0x184F JUMPI PUSH2 0x184E PUSH2 0x3537 JUMP JUMPDEST JUMPDEST DUP2 PUSH1 0x1 DUP2 GT ISZERO PUSH2 0x1862 JUMPI PUSH2 0x1861 PUSH2 0x3537 JUMP JUMPDEST JUMPDEST EQ ISZERO JUMPDEST ISZERO PUSH2 0x189C JUMPI PUSH1 0x40 MLOAD PUSH32 0xEC4D40F400000000000000000000000000000000000000000000000000000000 DUP2 MSTORE PUSH1 0x4 ADD PUSH1 0x40 MLOAD DUP1 SWAP2 SUB SWAP1 REVERT JUMPDEST PUSH1 0x0 PUSH1 0x4 SLOAD SWAP1 POP PUSH1 0x2 SLOAD CALLVALUE EQ PUSH2 0x18ED JUMPI PUSH1 0x2 SLOAD CALLVALUE PUSH1 0x40 MLOAD PUSH32 0xCE6B173B00000000000000000000000000000000000000000000000000000000 DUP2 MSTORE PUSH1 0x4 ADD PUSH2 0x18E4 SWAP3 SWAP2 SWAP1 PUSH2 0x550F JUMP JUMPDEST PUSH1 0x40 MLOAD DUP1 SWAP2 SUB SWAP1 REVERT JUMPDEST PUSH32 0xD6E9BD49F32CE5202A849C6AB581631B3E952257363B06975F32872E9E1656C9 CALLER CALLVALUE DUP4 PUSH1 0x40 MLOAD PUSH2 0x1920 SWAP4 SWAP3 SWAP2 SWAP1 PUSH2 0x5538 JUMP JUMPDEST PUSH1 0x40 MLOAD DUP1 SWAP2 SUB SWAP1 LOG1 PUSH1 0x0 DUP1 PUSH1 0x0 DUP4 DUP2 MSTORE PUSH1 0x20 ADD SWAP1 DUP2 MSTORE PUSH1 0x20 ADD PUSH1 0x0 KECCAK256 SWAP1 POP DUP7 DUP2 PUSH1 0x0 ADD DUP2 DUP2 PUSH2 0x194F SWAP2 SWAP1 PUSH2 0x4689 JUMP JUMPDEST SWAP1 POP POP DUP6 DUP2 PUSH1 0x5 ADD DUP2 DUP2 PUSH2 0x1963 SWAP2 SWAP1 PUSH2 0x4A8F JUMP JUMPDEST SWAP1 POP POP DUP3 DUP2 PUSH1 0x9 ADD PUSH1 0x0 PUSH2 0x100 EXP DUP2 SLOAD DUP2 PUSH1 0xFF MUL NOT AND SWAP1 DUP4 PUSH1 0x1 DUP2 GT ISZERO PUSH2 0x198D JUMPI PUSH2 0x198C PUSH2 0x3537 JUMP JUMPDEST JUMPDEST MUL OR SWAP1 SSTORE POP PUSH1 0x0 DUP2 PUSH1 0x9 ADD PUSH1 0x1 PUSH2 0x100 EXP DUP2 SLOAD DUP2 PUSH1 0xFF MUL NOT AND SWAP1 DUP4 ISZERO ISZERO MUL OR SWAP1 SSTORE POP CALLVALUE DUP2 PUSH1 0xA ADD DUP2 SWAP1 SSTORE POP PUSH1 0x0 JUMPDEST DUP6 DUP6 SWAP1 POP DUP2 LT ISZERO PUSH2 0x1A15 JUMPI DUP2 PUSH1 0x8 ADD DUP7 DUP7 DUP4 DUP2 DUP2 LT PUSH2 0x19DD JUMPI PUSH2 0x19DC PUSH2 0x4A9D JUMP JUMPDEST JUMPDEST SWAP1 POP PUSH1 0x20 MUL ADD CALLDATALOAD SWAP1 DUP1 PUSH1 0x1 DUP2 SLOAD ADD DUP1 DUP3 SSTORE DUP1 SWAP2 POP POP PUSH1 0x1 SWAP1 SUB SWAP1 PUSH1 0x0 MSTORE PUSH1 0x20 PUSH1 0x0 KECCAK256 ADD PUSH1 0x0 SWAP1 SWAP2 SWAP1 SWAP2 SWAP1 SWAP2 POP SSTORE DUP1 PUSH1 0x1 ADD SWAP1 POP PUSH2 0x19BB JUMP JUMPDEST POP PUSH1 0x4 PUSH1 0x0 DUP2 SLOAD DUP1 SWAP3 SWAP2 SWAP1 PUSH2 0x1A29 SWAP1 PUSH2 0x556F JUMP JUMPDEST SWAP2 SWAP1 POP SSTORE POP PUSH32 0x42C24A3323433819443A75D0E2651A9C84F696FBA638D730042960045EF27241 DUP3 CALLER PUSH1 0x40 MLOAD PUSH2 0x1A5F SWAP3 SWAP2 SWAP1 PUSH2 0x55B7 JUMP JUMPDEST PUSH1 0x40 MLOAD DUP1 SWAP2 SUB SWAP1 LOG1 POP POP POP POP POP POP POP JUMP JUMPDEST PUSH2 0x1A78 PUSH2 0x2204 JUMP JUMPDEST PUSH2 0x1A82 PUSH1 0x0 PUSH2 0x2522 JUMP JUMPDEST JUMP JUMPDEST PUSH2 0x1A8C PUSH2 0x2204 JUMP JUMPDEST DUP1 PUSH1 0x0 DUP1 DUP5 DUP2 MSTORE PUSH1 0x20 ADD SWAP1 DUP2 MSTORE PUSH1 0x20 ADD PUSH1 0x0 KECCAK256 PUSH1 0x9 ADD PUSH1 0x0 PUSH2 0x100 EXP DUP2 SLOAD DUP2 PUSH1 0xFF MUL NOT AND SWAP1 DUP4 PUSH1 0x1 DUP2 GT ISZERO PUSH2 0x1AC4 JUMPI PUSH2 0x1AC3 PUSH2 0x3537 JUMP JUMPDEST JUMPDEST MUL OR SWAP1 SSTORE POP PUSH32 0xEAEEE81CA4B132C1F2699CF2E7F71C26ADB6FFE780097AC7D6E9DDF978398B62 DUP3 DUP3 PUSH1 0x40 MLOAD PUSH2 0x1AFA SWAP3 SWAP2 SWAP1 PUSH2 0x55EF JUMP JUMPDEST PUSH1 0x40 MLOAD DUP1 SWAP2 SUB SWAP1 LOG1 POP POP JUMP JUMPDEST PUSH1 0x0 PUSH2 0x1B10 PUSH2 0x25F9 JUMP JUMPDEST SWAP1 POP PUSH1 0x0 DUP2 PUSH1 0x0 ADD PUSH1 0x8 SWAP1 SLOAD SWAP1 PUSH2 0x100 EXP SWAP1 DIV PUSH1 0xFF AND ISZERO SWAP1 POP PUSH1 0x0 DUP3 PUSH1 0x0 ADD PUSH1 0x0 SWAP1 SLOAD SWAP1 PUSH2 0x100 EXP SWAP1 DIV PUSH8 0xFFFFFFFFFFFFFFFF AND SWAP1 POP PUSH1 0x0 DUP1 DUP3 PUSH8 0xFFFFFFFFFFFFFFFF AND EQ DUP1 ISZERO PUSH2 0x1B5E JUMPI POP DUP3 JUMPDEST SWAP1 POP PUSH1 0x0 PUSH1 0x1 DUP4 PUSH8 0xFFFFFFFFFFFFFFFF AND EQ DUP1 ISZERO PUSH2 0x1B93 JUMPI POP PUSH1 0x0 ADDRESS PUSH20 0xFFFFFFFFFFFFFFFFFFFFFFFFFFFFFFFFFFFFFFFF AND EXTCODESIZE EQ JUMPDEST SWAP1 POP DUP2 ISZERO DUP1 ISZERO PUSH2 0x1BA1 JUMPI POP DUP1 ISZERO JUMPDEST ISZERO PUSH2 0x1BD8 JUMPI PUSH1 0x40 MLOAD PUSH32 0xF92EE8A900000000000000000000000000000000000000000000000000000000 DUP2 MSTORE PUSH1 0x4 ADD PUSH1 0x40 MLOAD DUP1 SWAP2 SUB SWAP1 REVERT JUMPDEST PUSH1 0x1 DUP6 PUSH1 0x0 ADD PUSH1 0x0 PUSH2 0x100 EXP DUP2 SLOAD DUP2 PUSH8 0xFFFFFFFFFFFFFFFF MUL NOT AND SWAP1 DUP4 PUSH8 0xFFFFFFFFFFFFFFFF AND MUL OR SWAP1 SSTORE POP DUP4 ISZERO PUSH2 0x1C28 JUMPI PUSH1 0x1 DUP6 PUSH1 0x0 ADD PUSH1 0x8 PUSH2 0x100 EXP DUP2 SLOAD DUP2 PUSH1 0xFF MUL NOT AND SWAP1 DUP4 ISZERO ISZERO MUL OR SWAP1 SSTORE POP JUMPDEST PUSH2 0x1C30 PUSH2 0x2621 JUMP JUMPDEST PUSH2 0x1C39 CALLER PUSH2 0x262B JUMP JUMPDEST DUP4 ISZERO PUSH2 0x1C95 JUMPI PUSH1 0x0 DUP6 PUSH1 0x0 ADD PUSH1 0x8 PUSH2 0x100 EXP DUP2 SLOAD DUP2 PUSH1 0xFF MUL NOT AND SWAP1 DUP4 ISZERO ISZERO MUL OR SWAP1 SSTORE POP PUSH32 0xC7F505B2F371AE2175EE4913F4499E1F2633A7B5936321EED1CDAEB6115181D2 PUSH1 0x1 PUSH1 0x40 MLOAD PUSH2 0x1C8C SWAP2 SWAP1 PUSH2 0x5667 JUMP JUMPDEST PUSH1 0x40 MLOAD DUP1 SWAP2 SUB SWAP1 LOG1 JUMPDEST POP POP POP POP POP JUMP JUMPDEST PUSH2 0x1CA4 PUSH2 0x2204 JUMP JUMPDEST DUP1 PUSH1 0x0 DUP1 DUP5 DUP2 MSTORE PUSH1 0x20 ADD SWAP1 DUP2 MSTORE PUSH1 0x20 ADD PUSH1 0x0 KECCAK256 PUSH1 0x0 ADD DUP2 DUP2 PUSH2 0x1CC6 SWAP2 SWAP1 PUSH2 0x4689 JUMP JUMPDEST SWAP1 POP POP PUSH32 0x440C55E385A61CD472C0CD76EE015CAB9BD0760AEF9634633E6597FDEA583FD5 DUP3 DUP3 PUSH1 0x40 MLOAD PUSH2 0x1CFA SWAP3 SWAP2 SWAP1 PUSH2 0x5850 JUMP JUMPDEST PUSH1 0x40 MLOAD DUP1 SWAP2 SUB SWAP1 LOG1 POP POP JUMP JUMPDEST PUSH2 0x1D0E PUSH2 0x2204 JUMP JUMPDEST DUP1 PUSH1 0x2 DUP2 SWAP1 SSTORE POP PUSH32 0xAC9C054628BA106D4664C2C08386354E161EAB546A0A47FAF040BFC1062845E7 DUP2 PUSH1 0x40 MLOAD PUSH2 0x1D44 SWAP2 SWAP1 PUSH2 0x3C58 JUMP JUMPDEST PUSH1 0x40 MLOAD DUP1 SWAP2 SUB SWAP1 LOG1 POP JUMP JUMPDEST PUSH1 0x0 DUP1 PUSH2 0x1D5A PUSH2 0x263F JUMP JUMPDEST SWAP1 POP DUP1 PUSH1 0x0 ADD PUSH1 0x0 SWAP1 SLOAD SWAP1 PUSH2 0x100 EXP SWAP1 DIV PUSH20 0xFFFFFFFFFFFFFFFFFFFFFFFFFFFFFFFFFFFFFFFF AND SWAP2 POP POP SWAP1 JUMP JUMPDEST PUSH1 0x0 PUSH1 0x4 SLOAD SWAP1 POP SWAP1 JUMP JUMPDEST PUSH2 0x1D99 PUSH2 0x2204 JUMP JUMPDEST PUSH1 0x0 DUP1 PUSH1 0x0 DUP5 DUP2 MSTORE PUSH1 0x20 ADD SWAP1 DUP2 MSTORE PUSH1 0x20 ADD PUSH1 0x0 KECCAK256 PUSH1 0x8 ADD SWAP1 POP PUSH1 0x0 JUMPDEST DUP2 DUP1 SLOAD SWAP1 POP DUP2 LT ISZERO PUSH2 0x1EA8 JUMPI DUP3 DUP3 DUP3 DUP2 SLOAD DUP2 LT PUSH2 0x1DD5 JUMPI PUSH2 0x1DD4 PUSH2 0x4A9D JUMP JUMPDEST JUMPDEST SWAP1 PUSH1 0x0 MSTORE PUSH1 0x20 PUSH1 0x0 KECCAK256 ADD SLOAD SUB PUSH2 0x1E9B JUMPI DUP2 PUSH1 0x1 DUP4 DUP1 SLOAD SWAP1 POP PUSH2 0x1DF7 SWAP2 SWAP1 PUSH2 0x4BCA JUMP JUMPDEST DUP2 SLOAD DUP2 LT PUSH2 0x1E08 JUMPI PUSH2 0x1E07 PUSH2 0x4A9D JUMP JUMPDEST JUMPDEST SWAP1 PUSH1 0x0 MSTORE PUSH1 0x20 PUSH1 0x0 KECCAK256 ADD SLOAD DUP3 DUP3 DUP2 SLOAD DUP2 LT PUSH2 0x1E26 JUMPI PUSH2 0x1E25 PUSH2 0x4A9D JUMP JUMPDEST JUMPDEST SWAP1 PUSH1 0x0 MSTORE PUSH1 0x20 PUSH1 0x0 KECCAK256 ADD DUP2 SWAP1 SSTORE POP DUP2 DUP1 SLOAD DUP1 PUSH2 0x1E45 JUMPI PUSH2 0x1E44 PUSH2 0x5880 JUMP JUMPDEST JUMPDEST PUSH1 0x1 SWAP1 SUB DUP2 DUP2 SWAP1 PUSH1 0x0 MSTORE PUSH1 0x20 PUSH1 0x0 KECCAK256 ADD PUSH1 0x0 SWAP1 SSTORE SWAP1 SSTORE PUSH32 0x2264FA092E5819982F4EDCA5B7E9C6318A16DC3E03673510429C078656DEA45C DUP5 DUP5 PUSH1 0x40 MLOAD PUSH2 0x1E8C SWAP3 SWAP2 SWAP1 PUSH2 0x550F JUMP JUMPDEST PUSH1 0x40 MLOAD DUP1 SWAP2 SUB SWAP1 LOG1 POP POP PUSH2 0x1EE6 JUMP JUMPDEST DUP1 DUP1 PUSH1 0x1 ADD SWAP2 POP POP PUSH2 0x1DB5 JUMP JUMPDEST POP DUP2 PUSH1 0x40 MLOAD PUSH32 0x84CE930A00000000000000000000000000000000000000000000000000000000 DUP2 MSTORE PUSH1 0x4 ADD PUSH2 0x1EDD SWAP2 SWAP1 PUSH2 0x3C58 JUMP JUMPDEST PUSH1 0x40 MLOAD DUP1 SWAP2 SUB SWAP1 REVERT JUMPDEST POP POP JUMP JUMPDEST PUSH1 0x40 MLOAD DUP1 PUSH1 0x40 ADD PUSH1 0x40 MSTORE DUP1 PUSH1 0x5 DUP2 MSTORE PUSH1 0x20 ADD PUSH32 0x352E302E30000000000000000000000000000000000000000000000000000000 DUP2 MSTORE POP DUP2 JUMP JUMPDEST PUSH1 0x0 CALLVALUE SUB PUSH2 0x1F5D JUMPI PUSH1 0x40 MLOAD PUSH32 0x1F2A200500000000000000000000000000000000000000000000000000000000 DUP2 MSTORE PUSH1 0x4 ADD PUSH1 0x40 MLOAD DUP1 SWAP2 SUB SWAP1 REVERT JUMPDEST CALLVALUE PUSH1 0x0 DUP1 DUP4 DUP2 MSTORE PUSH1 0x20 ADD SWAP1 DUP2 MSTORE PUSH1 0x20 ADD PUSH1 0x0 KECCAK256 PUSH1 0xA ADD PUSH1 0x0 DUP3 DUP3 SLOAD PUSH2 0x1F82 SWAP2 SWAP1 PUSH2 0x58AF JUMP JUMPDEST SWAP3 POP POP DUP2 SWAP1 SSTORE POP PUSH1 0x0 DUP1 DUP3 DUP2 MSTORE PUSH1 0x20 ADD SWAP1 DUP2 MSTORE PUSH1 0x20 ADD PUSH1 0x0 KECCAK256 PUSH1 0x9 ADD PUSH1 0x1 SWAP1 SLOAD SWAP1 PUSH2 0x100 EXP SWAP1 DIV PUSH1 0xFF AND ISZERO PUSH2 0x2036 JUMPI PUSH1 0x3 SLOAD PUSH1 0x0 DUP1 DUP4 DUP2 MSTORE PUSH1 0x20 ADD SWAP1 DUP2 MSTORE PUSH1 0x20 ADD PUSH1 0x0 KECCAK256 PUSH1 0xA ADD SLOAD LT PUSH2 0x2035 JUMPI PUSH1 0x0 DUP1 PUSH1 0x0 DUP4 DUP2 MSTORE PUSH1 0x20 ADD SWAP1 DUP2 MSTORE PUSH1 0x20 ADD PUSH1 0x0 KECCAK256 PUSH1 0x9 ADD PUSH1 0x1 PUSH2 0x100 EXP DUP2 SLOAD DUP2 PUSH1 0xFF MUL NOT AND SWAP1 DUP4 ISZERO ISZERO MUL OR SWAP1 SSTORE POP PUSH32 0x8DA007FC61F3601008AA139C728EA9BF16672668B03C07F6C402AB74C034FC81 DUP2 PUSH1 0x40 MLOAD PUSH2 0x202C SWAP2 SWAP1 PUSH2 0x3C58 JUMP JUMPDEST PUSH1 0x40 MLOAD DUP1 SWAP2 SUB SWAP1 LOG1 JUMPDEST JUMPDEST PUSH32 0xD6E9BD49F32CE5202A849C6AB581631B3E952257363B06975F32872E9E1656C9 CALLER CALLVALUE DUP4 PUSH1 0x40 MLOAD PUSH2 0x2069 SWAP4 SWAP3 SWAP2 SWAP1 PUSH2 0x5538 JUMP JUMPDEST PUSH1 0x40 MLOAD DUP1 SWAP2 SUB SWAP1 LOG1 POP JUMP JUMPDEST PUSH1 0x0 PUSH1 0x2 SLOAD SWAP1 POP SWAP1 JUMP JUMPDEST PUSH2 0x2086 PUSH2 0x2204 JUMP JUMPDEST PUSH1 0x0 DUP1 DUP4 DUP2 MSTORE PUSH1 0x20 ADD SWAP1 DUP2 MSTORE PUSH1 0x20 ADD PUSH1 0x0 KECCAK256 PUSH1 0x8 ADD DUP2 SWAP1 DUP1 PUSH1 0x1 DUP2 SLOAD ADD DUP1 DUP3 SSTORE DUP1 SWAP2 POP POP PUSH1 0x1 SWAP1 SUB SWAP1 PUSH1 0x0 MSTORE PUSH1 0x20 PUSH1 0x0 KECCAK256 ADD PUSH1 0x0 SWAP1 SWAP2 SWAP1 SWAP2 SWAP1 SWAP2 POP SSTORE PUSH32 0xFCDFD5AEB97F499CA134ED43F010F2A4F5B0AB73D317AC27246A066A050A73AF DUP3 DUP3 PUSH1 0x40 MLOAD PUSH2 0x20F3 SWAP3 SWAP2 SWAP1 PUSH2 0x550F JUMP JUMPDEST PUSH1 0x40 MLOAD DUP1 SWAP2 SUB SWAP1 LOG1 POP POP JUMP JUMPDEST PUSH1 0x0 PUSH1 0x3 SLOAD SWAP1 POP SWAP1 JUMP JUMPDEST PUSH2 0x2111 PUSH2 0x2204 JUMP JUMPDEST DUP1 PUSH1 0x0 DUP1 DUP5 DUP2 MSTORE PUSH1 0x20 ADD SWAP1 DUP2 MSTORE PUSH1 0x20 ADD PUSH1 0x0 KECCAK256 PUSH1 0x0 ADD PUSH1 0x4 ADD PUSH1 0x0 PUSH2 0x100 EXP DUP2 SLOAD DUP2 PUSH1 0xFF MUL NOT AND SWAP1 DUP4 ISZERO ISZERO MUL OR SWAP1 SSTORE POP PUSH32 0xED2F2C7A2316DDC2F46A4581250611F807810052BB38BEF2FBD1A81D087E064B DUP3 DUP3 PUSH1 0x40 MLOAD PUSH2 0x2172 SWAP3 SWAP2 SWAP1 PUSH2 0x58F2 JUMP JUMPDEST PUSH1 0x40 MLOAD DUP1 SWAP2 SUB SWAP1 LOG1 POP POP JUMP JUMPDEST PUSH2 0x2186 PUSH2 0x2204 JUMP JUMPDEST PUSH1 0x0 PUSH20 0xFFFFFFFFFFFFFFFFFFFFFFFFFFFFFFFFFFFFFFFF AND DUP2 PUSH20 0xFFFFFFFFFFFFFFFFFFFFFFFFFFFFFFFFFFFFFFFF AND SUB PUSH2 0x21F8 JUMPI PUSH1 0x0 PUSH1 0x40 MLOAD PUSH32 0x1E4FBDF700000000000000000000000000000000000000000000000000000000 DUP2 MSTORE PUSH1 0x4 ADD PUSH2 0x21EF SWAP2 SWAP1 PUSH2 0x3C3D JUMP JUMPDEST PUSH1 0x40 MLOAD DUP1 SWAP2 SUB SWAP1 REVERT JUMPDEST PUSH2 0x2201 DUP2 PUSH2 0x2522 JUMP JUMPDEST POP JUMP JUMPDEST PUSH2 0x220C PUSH2 0x2667 JUMP JUMPDEST PUSH20 0xFFFFFFFFFFFFFFFFFFFFFFFFFFFFFFFFFFFFFFFF AND PUSH2 0x222A PUSH2 0x1D4F JUMP JUMPDEST PUSH20 0xFFFFFFFFFFFFFFFFFFFFFFFFFFFFFFFFFFFFFFFF AND EQ PUSH2 0x2289 JUMPI PUSH2 0x224D PUSH2 0x2667 JUMP JUMPDEST PUSH1 0x40 MLOAD PUSH32 0x118CDAA700000000000000000000000000000000000000000000000000000000 DUP2 MSTORE PUSH1 0x4 ADD PUSH2 0x2280 SWAP2 SWAP1 PUSH2 0x3C3D JUMP JUMPDEST PUSH1 0x40 MLOAD DUP1 SWAP2 SUB SWAP1 REVERT JUMPDEST JUMP JUMPDEST PUSH32 0x0 PUSH20 0xFFFFFFFFFFFFFFFFFFFFFFFFFFFFFFFFFFFFFFFF AND ADDRESS PUSH20 0xFFFFFFFFFFFFFFFFFFFFFFFFFFFFFFFFFFFFFFFF AND EQ DUP1 PUSH2 0x2338 JUMPI POP PUSH32 0x0 PUSH20 0xFFFFFFFFFFFFFFFFFFFFFFFFFFFFFFFFFFFFFFFF AND PUSH2 0x231F PUSH2 0x266F JUMP JUMPDEST PUSH20 0xFFFFFFFFFFFFFFFFFFFFFFFFFFFFFFFFFFFFFFFF AND EQ ISZERO JUMPDEST ISZERO PUSH2 0x236F JUMPI PUSH1 0x40 MLOAD PUSH32 0xE07C8DBA00000000000000000000000000000000000000000000000000000000 DUP2 MSTORE PUSH1 0x4 ADD PUSH1 0x40 MLOAD DUP1 SWAP2 SUB SWAP1 REVERT JUMPDEST JUMP JUMPDEST PUSH2 0x2379 PUSH2 0x2204 JUMP JUMPDEST POP JUMP JUMPDEST DUP2 PUSH20 0xFFFFFFFFFFFFFFFFFFFFFFFFFFFFFFFFFFFFFFFF AND PUSH4 0x52D1902D PUSH1 0x40 MLOAD DUP2 PUSH4 0xFFFFFFFF AND PUSH1 0xE0 SHL DUP2 MSTORE PUSH1 0x4 ADD PUSH1 0x20 PUSH1 0x40 MLOAD DUP1 DUP4 SUB DUP2 DUP7 GAS STATICCALL SWAP3 POP POP POP DUP1 ISZERO PUSH2 0x23E4 JUMPI POP PUSH1 0x40 MLOAD RETURNDATASIZE PUSH1 0x1F NOT PUSH1 0x1F DUP3 ADD AND DUP3 ADD DUP1 PUSH1 0x40 MSTORE POP DUP2 ADD SWAP1 PUSH2 0x23E1 SWAP2 SWAP1 PUSH2 0x5930 JUMP JUMPDEST PUSH1 0x1 JUMPDEST PUSH2 0x2425 JUMPI DUP2 PUSH1 0x40 MLOAD PUSH32 0x4C9C8CE300000000000000000000000000000000000000000000000000000000 DUP2 MSTORE PUSH1 0x4 ADD PUSH2 0x241C SWAP2 SWAP1 PUSH2 0x3C3D JUMP JUMPDEST PUSH1 0x40 MLOAD DUP1 SWAP2 SUB SWAP1 REVERT JUMPDEST PUSH32 0x360894A13BA1A3210667C828492DB98DCA3E2076CC3735A920A3CA505D382BBC PUSH1 0x0 SHL DUP2 EQ PUSH2 0x248C JUMPI DUP1 PUSH1 0x40 MLOAD PUSH32 0xAA1D49A400000000000000000000000000000000000000000000000000000000 DUP2 MSTORE PUSH1 0x4 ADD PUSH2 0x2483 SWAP2 SWAP1 PUSH2 0x3A6A JUMP JUMPDEST PUSH1 0x40 MLOAD DUP1 SWAP2 SUB SWAP1 REVERT JUMPDEST PUSH2 0x2496 DUP4 DUP4 PUSH2 0x26C6 JUMP JUMPDEST POP POP POP JUMP JUMPDEST PUSH32 0x0 PUSH20 0xFFFFFFFFFFFFFFFFFFFFFFFFFFFFFFFFFFFFFFFF AND ADDRESS PUSH20 0xFFFFFFFFFFFFFFFFFFFFFFFFFFFFFFFFFFFFFFFF AND EQ PUSH2 0x2520 JUMPI PUSH1 0x40 MLOAD PUSH32 0xE07C8DBA00000000000000000000000000000000000000000000000000000000 DUP2 MSTORE PUSH1 0x4 ADD PUSH1 0x40 MLOAD DUP1 SWAP2 SUB SWAP1 REVERT JUMPDEST JUMP JUMPDEST PUSH1 0x0 PUSH2 0x252C PUSH2 0x263F JUMP JUMPDEST SWAP1 POP PUSH1 0x0 DUP2 PUSH1 0x0 ADD PUSH1 0x0 SWAP1 SLOAD SWAP1 PUSH2 0x100 EXP SWAP1 DIV PUSH20 0xFFFFFFFFFFFFFFFFFFFFFFFFFFFFFFFFFFFFFFFF AND SWAP1 POP DUP3 DUP3 PUSH1 0x0 ADD PUSH1 0x0 PUSH2 0x100 EXP DUP2 SLOAD DUP2 PUSH20 0xFFFFFFFFFFFFFFFFFFFFFFFFFFFFFFFFFFFFFFFF MUL NOT AND SWAP1 DUP4 PUSH20 0xFFFFFFFFFFFFFFFFFFFFFFFFFFFFFFFFFFFFFFFF AND MUL OR SWAP1 SSTORE POP DUP3 PUSH20 0xFFFFFFFFFFFFFFFFFFFFFFFFFFFFFFFFFFFFFFFF AND DUP2 PUSH20 0xFFFFFFFFFFFFFFFFFFFFFFFFFFFFFFFFFFFFFFFF AND PUSH32 0x8BE0079C531659141344CD1FD0A4F28419497F9722A3DAAFE3B4186F6B6457E0 PUSH1 0x40 MLOAD PUSH1 0x40 MLOAD DUP1 SWAP2 SUB SWAP1 LOG3 POP POP POP JUMP JUMPDEST PUSH1 0x0 PUSH32 0xF0C57E16840DF040F15088DC2F81FE391C3923BEC73E23A9662EFC9C229C6A00 SWAP1 POP SWAP1 JUMP JUMPDEST PUSH2 0x2629 PUSH2 0x2739 JUMP JUMPDEST JUMP JUMPDEST PUSH2 0x2633 PUSH2 0x2739 JUMP JUMPDEST PUSH2 0x263C DUP2 PUSH2 0x2779 JUMP JUMPDEST POP JUMP JUMPDEST PUSH1 0x0 PUSH32 0x9016D09D72D40FDAE2FD8CEAC6B6234C7706214FD39C1CD1E609A0528C199300 SWAP1 POP SWAP1 JUMP JUMPDEST PUSH1 0x0 CALLER SWAP1 POP SWAP1 JUMP JUMPDEST PUSH1 0x0 PUSH2 0x269D PUSH32 0x360894A13BA1A3210667C828492DB98DCA3E2076CC3735A920A3CA505D382BBC PUSH1 0x0 SHL PUSH2 0x27FF JUMP JUMPDEST PUSH1 0x0 ADD PUSH1 0x0 SWAP1 SLOAD SWAP1 PUSH2 0x100 EXP SWAP1 DIV PUSH20 0xFFFFFFFFFFFFFFFFFFFFFFFFFFFFFFFFFFFFFFFF AND SWAP1 POP SWAP1 JUMP JUMPDEST PUSH2 0x26CF DUP3 PUSH2 0x2809 JUMP JUMPDEST DUP2 PUSH20 0xFFFFFFFFFFFFFFFFFFFFFFFFFFFFFFFFFFFFFFFF AND PUSH32 0xBC7CD75A20EE27FD9ADEBAB32041F755214DBC6BFFA90CC0225B39DA2E5C2D3B PUSH1 0x40 MLOAD PUSH1 0x40 MLOAD DUP1 SWAP2 SUB SWAP1 LOG2 PUSH1 0x0 DUP2 MLOAD GT ISZERO PUSH2 0x272C JUMPI PUSH2 0x2726 DUP3 DUP3 PUSH2 0x28D6 JUMP JUMPDEST POP PUSH2 0x2735 JUMP JUMPDEST PUSH2 0x2734 PUSH2 0x295A JUMP JUMPDEST JUMPDEST POP POP JUMP JUMPDEST PUSH2 0x2741 PUSH2 0x2997 JUMP JUMPDEST PUSH2 0x2777 JUMPI PUSH1 0x40 MLOAD PUSH32 0xD7E6BCF800000000000000000000000000000000000000000000000000000000 DUP2 MSTORE PUSH1 0x4 ADD PUSH1 0x40 MLOAD DUP1 SWAP2 SUB SWAP1 REVERT JUMPDEST JUMP JUMPDEST PUSH2 0x2781 PUSH2 0x2739 JUMP JUMPDEST PUSH1 0x0 PUSH20 0xFFFFFFFFFFFFFFFFFFFFFFFFFFFFFFFFFFFFFFFF AND DUP2 PUSH20 0xFFFFFFFFFFFFFFFFFFFFFFFFFFFFFFFFFFFFFFFF AND SUB PUSH2 0x27F3 JUMPI PUSH1 0x0 PUSH1 0x40 MLOAD PUSH32 0x1E4FBDF700000000000000000000000000000000000000000000000000000000 DUP2 MSTORE PUSH1 0x4 ADD PUSH2 0x27EA SWAP2 SWAP1 PUSH2 0x3C3D JUMP JUMPDEST PUSH1 0x40 MLOAD DUP1 SWAP2 SUB SWAP1 REVERT JUMPDEST PUSH2 0x27FC DUP2 PUSH2 0x2522 JUMP JUMPDEST POP JUMP JUMPDEST PUSH1 0x0 DUP2 SWAP1 POP SWAP2 SWAP1 POP JUMP JUMPDEST PUSH1 0x0 DUP2 PUSH20 0xFFFFFFFFFFFFFFFFFFFFFFFFFFFFFFFFFFFFFFFF AND EXTCODESIZE SUB PUSH2 0x2865 JUMPI DUP1 PUSH1 0x40 MLOAD PUSH32 0x4C9C8CE300000000000000000000000000000000000000000000000000000000 DUP2 MSTORE PUSH1 0x4 ADD PUSH2 0x285C SWAP2 SWAP1 PUSH2 0x3C3D JUMP JUMPDEST PUSH1 0x40 MLOAD DUP1 SWAP2 SUB SWAP1 REVERT JUMPDEST DUP1 PUSH2 0x2892 PUSH32 0x360894A13BA1A3210667C828492DB98DCA3E2076CC3735A920A3CA505D382BBC PUSH1 0x0 SHL PUSH2 0x27FF JUMP JUMPDEST PUSH1 0x0 ADD PUSH1 0x0 PUSH2 0x100 EXP DUP2 SLOAD DUP2 PUSH20 0xFFFFFFFFFFFFFFFFFFFFFFFFFFFFFFFFFFFFFFFF MUL NOT AND SWAP1 DUP4 PUSH20 0xFFFFFFFFFFFFFFFFFFFFFFFFFFFFFFFFFFFFFFFF AND MUL OR SWAP1 SSTORE POP POP JUMP JUMPDEST PUSH1 0x60 PUSH1 0x0 DUP1 DUP5 PUSH20 0xFFFFFFFFFFFFFFFFFFFFFFFFFFFFFFFFFFFFFFFF AND DUP5 PUSH1 0x40 MLOAD PUSH2 0x2900 SWAP2 SWAP1 PUSH2 0x5999 JUMP JUMPDEST PUSH1 0x0 PUSH1 0x40 MLOAD DUP1 DUP4 SUB DUP2 DUP6 GAS DELEGATECALL SWAP2 POP POP RETURNDATASIZE DUP1 PUSH1 0x0 DUP2 EQ PUSH2 0x293B JUMPI PUSH1 0x40 MLOAD SWAP2 POP PUSH1 0x1F NOT PUSH1 0x3F RETURNDATASIZE ADD AND DUP3 ADD PUSH1 0x40 MSTORE RETURNDATASIZE DUP3 MSTORE RETURNDATASIZE PUSH1 0x0 PUSH1 0x20 DUP5 ADD RETURNDATACOPY PUSH2 0x2940 JUMP JUMPDEST PUSH1 0x60 SWAP2 POP JUMPDEST POP SWAP2 POP SWAP2 POP PUSH2 0x2950 DUP6 DUP4 DUP4 PUSH2 0x29B7 JUMP JUMPDEST SWAP3 POP POP POP SWAP3 SWAP2 POP POP JUMP JUMPDEST PUSH1 0x0 CALLVALUE GT ISZERO PUSH2 0x2995 JUMPI PUSH1 0x40 MLOAD PUSH32 0xB398979F00000000000000000000000000000000000000000000000000000000 DUP2 MSTORE PUSH1 0x4 ADD PUSH1 0x40 MLOAD DUP1 SWAP2 SUB SWAP1 REVERT JUMPDEST JUMP JUMPDEST PUSH1 0x0 PUSH2 0x29A1 PUSH2 0x25F9 JUMP JUMPDEST PUSH1 0x0 ADD PUSH1 0x8 SWAP1 SLOAD SWAP1 PUSH2 0x100 EXP SWAP1 DIV PUSH1 0xFF AND SWAP1 POP SWAP1 JUMP JUMPDEST PUSH1 0x60 DUP3 PUSH2 0x29CC JUMPI PUSH2 0x29C7 DUP3 PUSH2 0x2A46 JUMP JUMPDEST PUSH2 0x2A3E JUMP JUMPDEST PUSH1 0x0 DUP3 MLOAD EQ DUP1 ISZERO PUSH2 0x29F4 JUMPI POP PUSH1 0x0 DUP5 PUSH20 0xFFFFFFFFFFFFFFFFFFFFFFFFFFFFFFFFFFFFFFFF AND EXTCODESIZE EQ JUMPDEST ISZERO PUSH2 0x2A36 JUMPI DUP4 PUSH1 0x40 MLOAD PUSH32 0x9996B31500000000000000000000000000000000000000000000000000000000 DUP2 MSTORE PUSH1 0x4 ADD PUSH2 0x2A2D SWAP2 SWAP1 PUSH2 0x3C3D JUMP JUMPDEST PUSH1 0x40 MLOAD DUP1 SWAP2 SUB SWAP1 REVERT JUMPDEST DUP2 SWAP1 POP PUSH2 0x2A3F JUMP JUMPDEST JUMPDEST SWAP4 SWAP3 POP POP POP JUMP JUMPDEST PUSH1 0x0 DUP2 MLOAD GT ISZERO PUSH2 0x2A59 JUMPI DUP1 MLOAD DUP1 DUP3 PUSH1 0x20 ADD REVERT JUMPDEST PUSH1 0x40 MLOAD PUSH32 0x1425EA4200000000000000000000000000000000000000000000000000000000 DUP2 MSTORE PUSH1 0x4 ADD PUSH1 0x40 MLOAD DUP1 SWAP2 SUB SWAP1 REVERT JUMPDEST POP DUP1 SLOAD PUSH1 0x0 DUP3 SSTORE SWAP1 PUSH1 0x0 MSTORE PUSH1 0x20 PUSH1 0x0 KECCAK256 SWAP1 DUP2 ADD SWAP1 PUSH2 0x2AA9 SWAP2 SWAP1 PUSH2 0x2C57 JUMP JUMPDEST POP JUMP JUMPDEST PUSH1 0x40 MLOAD DUP1 PUSH2 0x120 ADD PUSH1 0x40 MSTORE DUP1 PUSH1 0x60 DUP2 MSTORE PUSH1 0x20 ADD PUSH1 0x60 DUP2 MSTORE PUSH1 0x20 ADD PUSH1 0x60 DUP2 MSTORE PUSH1 0x20 ADD PUSH1 0x60 DUP2 MSTORE PUSH1 0x20 ADD PUSH1 0x0 DUP2 MSTORE PUSH1 0x20 ADD PUSH1 0x0 DUP2 MSTORE PUSH1 0x20 ADD PUSH1 0x60 DUP2 MSTORE PUSH1 0x20 ADD PUSH1 0x0 DUP1 NOT AND DUP2 MSTORE PUSH1 0x20 ADD PUSH1 0x60 DUP2 MSTORE POP SWAP1 JUMP JUMPDEST PUSH1 0x40 MLOAD DUP1 PUSH1 0xC0 ADD PUSH1 0x40 MSTORE DUP1 PUSH2 0x2B0E PUSH2 0x2C74 JUMP JUMPDEST DUP2 MSTORE PUSH1 0x20 ADD PUSH2 0x2B1B PUSH2 0x2CA5 JUMP JUMPDEST DUP2 MSTORE PUSH1 0x20 ADD PUSH1 0x60 DUP2 MSTORE PUSH1 0x20 ADD PUSH1 0x0 PUSH1 0x1 DUP2 GT ISZERO PUSH2 0x2B3B JUMPI PUSH2 0x2B3A PUSH2 0x3537 JUMP JUMPDEST JUMPDEST DUP2 MSTORE PUSH1 0x20 ADD PUSH1 0x0 ISZERO ISZERO DUP2 MSTORE PUSH1 0x20 ADD PUSH1 0x0 DUP2 MSTORE POP SWAP1 JUMP JUMPDEST DUP3 DUP1 SLOAD DUP3 DUP3 SSTORE SWAP1 PUSH1 0x0 MSTORE PUSH1 0x20 PUSH1 0x0 KECCAK256 SWAP1 DUP2 ADD SWAP3 DUP3 ISZERO PUSH2 0x2B99 JUMPI SWAP2 PUSH1 0x20 MUL DUP3 ADD JUMPDEST DUP3 DUP2 GT ISZERO PUSH2 0x2B98 JUMPI DUP3 MLOAD DUP3 SWAP1 DUP2 PUSH2 0x2B88 SWAP2 SWAP1 PUSH2 0x4FB8 JUMP JUMPDEST POP SWAP2 PUSH1 0x20 ADD SWAP2 SWAP1 PUSH1 0x1 ADD SWAP1 PUSH2 0x2B71 JUMP JUMPDEST JUMPDEST POP SWAP1 POP PUSH2 0x2BA6 SWAP2 SWAP1 PUSH2 0x2CD8 JUMP JUMPDEST POP SWAP1 JUMP JUMPDEST DUP3 DUP1 SLOAD DUP3 DUP3 SSTORE SWAP1 PUSH1 0x0 MSTORE PUSH1 0x20 PUSH1 0x0 KECCAK256 SWAP1 DUP2 ADD SWAP3 DUP3 ISZERO PUSH2 0x2BF9 JUMPI SWAP2 PUSH1 0x20 MUL DUP3 ADD JUMPDEST DUP3 DUP2 GT ISZERO PUSH2 0x2BF8 JUMPI DUP3 MLOAD DUP3 SWAP1 DUP1 MLOAD SWAP1 PUSH1 0x20 ADD SWAP1 PUSH2 0x2BE8 SWAP3 SWAP2 SWAP1 PUSH2 0x2C0A JUMP JUMPDEST POP SWAP2 PUSH1 0x20 ADD SWAP2 SWAP1 PUSH1 0x1 ADD SWAP1 PUSH2 0x2BCA JUMP JUMPDEST JUMPDEST POP SWAP1 POP PUSH2 0x2C06 SWAP2 SWAP1 PUSH2 0x2CFC JUMP JUMPDEST POP SWAP1 JUMP JUMPDEST DUP3 DUP1 SLOAD DUP3 DUP3 SSTORE SWAP1 PUSH1 0x0 MSTORE PUSH1 0x20 PUSH1 0x0 KECCAK256 SWAP1 DUP2 ADD SWAP3 DUP3 ISZERO PUSH2 0x2C46 JUMPI SWAP2 PUSH1 0x20 MUL DUP3 ADD JUMPDEST DUP3 DUP2 GT ISZERO PUSH2 0x2C45 JUMPI DUP3 MLOAD DUP3 SSTORE SWAP2 PUSH1 0x20 ADD SWAP2 SWAP1 PUSH1 0x1 ADD SWAP1 PUSH2 0x2C2A JUMP JUMPDEST JUMPDEST POP SWAP1 POP PUSH2 0x2C53 SWAP2 SWAP1 PUSH2 0x2C57 JUMP JUMPDEST POP SWAP1 JUMP JUMPDEST JUMPDEST DUP1 DUP3 GT ISZERO PUSH2 0x2C70 JUMPI PUSH1 0x0 DUP2 PUSH1 0x0 SWAP1 SSTORE POP PUSH1 0x1 ADD PUSH2 0x2C58 JUMP JUMPDEST POP SWAP1 JUMP JUMPDEST PUSH1 0x40 MLOAD DUP1 PUSH1 0xA0 ADD PUSH1 0x40 MSTORE DUP1 PUSH1 0x60 DUP2 MSTORE PUSH1 0x20 ADD PUSH1 0x60 DUP2 MSTORE PUSH1 0x20 ADD PUSH1 0x60 DUP2 MSTORE PUSH1 0x20 ADD PUSH1 0x60 DUP2 MSTORE PUSH1 0x20 ADD PUSH1 0x0 ISZERO ISZERO DUP2 MSTORE POP SWAP1 JUMP JUMPDEST PUSH1 0x40 MLOAD DUP1 PUSH1 0x60 ADD PUSH1 0x40 MSTORE DUP1 PUSH1 0x0 PUSH1 0x5 DUP2 GT ISZERO PUSH2 0x2CC4 JUMPI PUSH2 0x2CC3 PUSH2 0x3537 JUMP JUMPDEST JUMPDEST DUP2 MSTORE PUSH1 0x20 ADD PUSH1 0x60 DUP2 MSTORE PUSH1 0x20 ADD PUSH1 0x60 DUP2 MSTORE POP SWAP1 JUMP JUMPDEST JUMPDEST DUP1 DUP3 GT ISZERO PUSH2 0x2CF8 JUMPI PUSH1 0x0 DUP2 DUP2 PUSH2 0x2CEF SWAP2 SWAP1 PUSH2 0x2D20 JUMP JUMPDEST POP PUSH1 0x1 ADD PUSH2 0x2CD9 JUMP JUMPDEST POP SWAP1 JUMP JUMPDEST JUMPDEST DUP1 DUP3 GT ISZERO PUSH2 0x2D1C JUMPI PUSH1 0x0 DUP2 DUP2 PUSH2 0x2D13 SWAP2 SWAP1 PUSH2 0x2A8B JUMP JUMPDEST POP PUSH1 0x1 ADD PUSH2 0x2CFD JUMP JUMPDEST POP SWAP1 JUMP JUMPDEST POP DUP1 SLOAD PUSH2 0x2D2C SWAP1 PUSH2 0x3E67 JUMP JUMPDEST PUSH1 0x0 DUP3 SSTORE DUP1 PUSH1 0x1F LT PUSH2 0x2D3E JUMPI POP PUSH2 0x2D5D JUMP JUMPDEST PUSH1 0x1F ADD PUSH1 0x20 SWAP1 DIV SWAP1 PUSH1 0x0 MSTORE PUSH1 0x20 PUSH1 0x0 KECCAK256 SWAP1 DUP2 ADD SWAP1 PUSH2 0x2D5C SWAP2 SWAP1 PUSH2 0x2C57 JUMP JUMPDEST JUMPDEST POP JUMP JUMPDEST PUSH1 0x0 PUSH20 0xFFFFFFFFFFFFFFFFFFFFFFFFFFFFFFFFFFFFFFFF DUP3 AND SWAP1 POP SWAP2 SWAP1 POP JUMP JUMPDEST PUSH1 0x0 PUSH2 0x2D8B DUP3 PUSH2 0x2D60 JUMP JUMPDEST SWAP1 POP SWAP2 SWAP1 POP JUMP JUMPDEST PUSH2 0x2D9B DUP2 PUSH2 0x2D80 JUMP JUMPDEST DUP3 MSTORE POP POP JUMP JUMPDEST PUSH1 0x0 DUP2 SWAP1 POP SWAP2 SWAP1 POP JUMP JUMPDEST PUSH2 0x2DB4 DUP2 PUSH2 0x2DA1 JUMP JUMPDEST DUP3 MSTORE POP POP JUMP JUMPDEST PUSH1 0x0 PUSH1 0x40 DUP3 ADD SWAP1 POP PUSH2 0x2DCF PUSH1 0x0 DUP4 ADD DUP6 PUSH2 0x2D92 JUMP JUMPDEST PUSH2 0x2DDC PUSH1 0x20 DUP4 ADD DUP5 PUSH2 0x2DAB JUMP JUMPDEST SWAP4 SWAP3 POP POP POP JUMP JUMPDEST PUSH1 0x0 PUSH1 0x40 MLOAD SWAP1 POP SWAP1 JUMP JUMPDEST PUSH1 0x0 DUP1 REVERT JUMPDEST PUSH1 0x0 DUP1 REVERT JUMPDEST PUSH2 0x2E00 DUP2 PUSH2 0x2DA1 JUMP JUMPDEST DUP2 EQ PUSH2 0x2E0B JUMPI PUSH1 0x0 DUP1 REVERT JUMPDEST POP JUMP JUMPDEST PUSH1 0x0 DUP2 CALLDATALOAD SWAP1 POP PUSH2 0x2E1D DUP2 PUSH2 0x2DF7 JUMP JUMPDEST SWAP3 SWAP2 POP POP JUMP JUMPDEST PUSH1 0x0 DUP1 REVERT JUMPDEST PUSH1 0x0 PUSH1 0xA0 DUP3 DUP5 SUB SLT ISZERO PUSH2 0x2E3E JUMPI PUSH2 0x2E3D PUSH2 0x2E23 JUMP JUMPDEST JUMPDEST DUP2 SWAP1 POP SWAP3 SWAP2 POP POP JUMP JUMPDEST PUSH1 0x0 PUSH1 0x60 DUP3 DUP5 SUB SLT ISZERO PUSH2 0x2E5D JUMPI PUSH2 0x2E5C PUSH2 0x2E23 JUMP JUMPDEST JUMPDEST DUP2 SWAP1 POP SWAP3 SWAP2 POP POP JUMP JUMPDEST PUSH1 0x0 DUP1 REVERT JUMPDEST PUSH1 0x0 DUP1 REVERT JUMPDEST PUSH1 0x0 DUP1 REVERT JUMPDEST PUSH1 0x0 DUP1 DUP4 PUSH1 0x1F DUP5 ADD SLT PUSH2 0x2E8B JUMPI PUSH2 0x2E8A PUSH2 0x2E66 JUMP JUMPDEST JUMPDEST DUP3 CALLDATALOAD SWAP1 POP PUSH8 0xFFFFFFFFFFFFFFFF DUP2 GT ISZERO PUSH2 0x2EA8 JUMPI PUSH2 0x2EA7 PUSH2 0x2E6B JUMP JUMPDEST JUMPDEST PUSH1 0x20 DUP4 ADD SWAP2 POP DUP4 PUSH1 0x20 DUP3 MUL DUP4 ADD GT ISZERO PUSH2 0x2EC4 JUMPI PUSH2 0x2EC3 PUSH2 0x2E70 JUMP JUMPDEST JUMPDEST SWAP3 POP SWAP3 SWAP1 POP JUMP JUMPDEST PUSH1 0x2 DUP2 LT PUSH2 0x2ED8 JUMPI PUSH1 0x0 DUP1 REVERT JUMPDEST POP JUMP JUMPDEST PUSH1 0x0 DUP2 CALLDATALOAD SWAP1 POP PUSH2 0x2EEA DUP2 PUSH2 0x2ECB JUMP JUMPDEST SWAP3 SWAP2 POP POP JUMP JUMPDEST PUSH1 0x0 DUP2 ISZERO ISZERO SWAP1 POP SWAP2 SWAP1 POP JUMP JUMPDEST PUSH2 0x2F05 DUP2 PUSH2 0x2EF0 JUMP JUMPDEST DUP2 EQ PUSH2 0x2F10 JUMPI PUSH1 0x0 DUP1 REVERT JUMPDEST POP JUMP JUMPDEST PUSH1 0x0 DUP2 CALLDATALOAD SWAP1 POP PUSH2 0x2F22 DUP2 PUSH2 0x2EFC JUMP JUMPDEST SWAP3 SWAP2 POP POP JUMP JUMPDEST PUSH1 0x0 DUP1 PUSH1 0x0 DUP1 PUSH1 0x0 DUP1 PUSH1 0x0 PUSH1 0xC0 DUP9 DUP11 SUB SLT ISZERO PUSH2 0x2F47 JUMPI PUSH2 0x2F46 PUSH2 0x2DED JUMP JUMPDEST JUMPDEST PUSH1 0x0 PUSH2 0x2F55 DUP11 DUP3 DUP12 ADD PUSH2 0x2E0E JUMP JUMPDEST SWAP8 POP POP PUSH1 0x20 DUP9 ADD CALLDATALOAD PUSH8 0xFFFFFFFFFFFFFFFF DUP2 GT ISZERO PUSH2 0x2F76 JUMPI PUSH2 0x2F75 PUSH2 0x2DF2 JUMP JUMPDEST JUMPDEST PUSH2 0x2F82 DUP11 DUP3 DUP12 ADD PUSH2 0x2E28 JUMP JUMPDEST SWAP7 POP POP PUSH1 0x40 DUP9 ADD CALLDATALOAD PUSH8 0xFFFFFFFFFFFFFFFF DUP2 GT ISZERO PUSH2 0x2FA3 JUMPI PUSH2 0x2FA2 PUSH2 0x2DF2 JUMP JUMPDEST JUMPDEST PUSH2 0x2FAF DUP11 DUP3 DUP12 ADD PUSH2 0x2E47 JUMP JUMPDEST SWAP6 POP POP PUSH1 0x60 DUP9 ADD CALLDATALOAD PUSH8 0xFFFFFFFFFFFFFFFF DUP2 GT ISZERO PUSH2 0x2FD0 JUMPI PUSH2 0x2FCF PUSH2 0x2DF2 JUMP JUMPDEST JUMPDEST PUSH2 0x2FDC DUP11 DUP3 DUP12 ADD PUSH2 0x2E75 JUMP JUMPDEST SWAP5 POP SWAP5 POP POP PUSH1 0x80 PUSH2 0x2FEF DUP11 DUP3 DUP12 ADD PUSH2 0x2EDB JUMP JUMPDEST SWAP3 POP POP PUSH1 0xA0 PUSH2 0x3000 DUP11 DUP3 DUP12 ADD PUSH2 0x2F13 JUMP JUMPDEST SWAP2 POP POP SWAP3 SWAP6 SWAP9 SWAP2 SWAP5 SWAP8 POP SWAP3 SWAP6 POP JUMP JUMPDEST PUSH1 0x0 DUP2 SWAP1 POP SWAP2 SWAP1 POP JUMP JUMPDEST PUSH2 0x3022 DUP2 PUSH2 0x300F JUMP JUMPDEST DUP2 EQ PUSH2 0x302D JUMPI PUSH1 0x0 DUP1 REVERT JUMPDEST POP JUMP JUMPDEST PUSH1 0x0 DUP2 CALLDATALOAD SWAP1 POP PUSH2 0x303F DUP2 PUSH2 0x3019 JUMP JUMPDEST SWAP3 SWAP2 POP POP JUMP JUMPDEST PUSH1 0x0 DUP1 PUSH1 0x40 DUP4 DUP6 SUB SLT ISZERO PUSH2 0x305C JUMPI PUSH2 0x305B PUSH2 0x2DED JUMP JUMPDEST JUMPDEST PUSH1 0x0 PUSH2 0x306A DUP6 DUP3 DUP7 ADD PUSH2 0x2E0E JUMP JUMPDEST SWAP3 POP POP PUSH1 0x20 PUSH2 0x307B DUP6 DUP3 DUP7 ADD PUSH2 0x3030 JUMP JUMPDEST SWAP2 POP POP SWAP3 POP SWAP3 SWAP1 POP JUMP JUMPDEST PUSH1 0x0 DUP2 MLOAD SWAP1 POP SWAP2 SWAP1 POP JUMP JUMPDEST PUSH1 0x0 DUP3 DUP3 MSTORE PUSH1 0x20 DUP3 ADD SWAP1 POP SWAP3 SWAP2 POP POP JUMP JUMPDEST PUSH1 0x0 JUMPDEST DUP4 DUP2 LT ISZERO PUSH2 0x30BF JUMPI DUP1 DUP3 ADD MLOAD DUP2 DUP5 ADD MSTORE PUSH1 0x20 DUP2 ADD SWAP1 POP PUSH2 0x30A4 JUMP JUMPDEST PUSH1 0x0 DUP5 DUP5 ADD MSTORE POP POP POP POP JUMP JUMPDEST PUSH1 0x0 PUSH1 0x1F NOT PUSH1 0x1F DUP4 ADD AND SWAP1 POP SWAP2 SWAP1 POP JUMP JUMPDEST PUSH1 0x0 PUSH2 0x30E7 DUP3 PUSH2 0x3085 JUMP JUMPDEST PUSH2 0x30F1 DUP2 DUP6 PUSH2 0x3090 JUMP JUMPDEST SWAP4 POP PUSH2 0x3101 DUP2 DUP6 PUSH1 0x20 DUP7 ADD PUSH2 0x30A1 JUMP JUMPDEST PUSH2 0x310A DUP2 PUSH2 0x30CB JUMP JUMPDEST DUP5 ADD SWAP2 POP POP SWAP3 SWAP2 POP POP JUMP JUMPDEST PUSH1 0x0 DUP2 MLOAD SWAP1 POP SWAP2 SWAP1 POP JUMP JUMPDEST PUSH1 0x0 DUP3 DUP3 MSTORE PUSH1 0x20 DUP3 ADD SWAP1 POP SWAP3 SWAP2 POP POP JUMP JUMPDEST PUSH1 0x0 DUP2 SWAP1 POP PUSH1 0x20 DUP3 ADD SWAP1 POP SWAP2 SWAP1 POP JUMP JUMPDEST PUSH1 0x0 PUSH2 0x314D DUP4 DUP4 PUSH2 0x30DC JUMP JUMPDEST SWAP1 POP SWAP3 SWAP2 POP POP JUMP JUMPDEST PUSH1 0x0 PUSH1 0x20 DUP3 ADD SWAP1 POP SWAP2 SWAP1 POP JUMP JUMPDEST PUSH1 0x0 PUSH2 0x316D DUP3 PUSH2 0x3115 JUMP JUMPDEST PUSH2 0x3177 DUP2 DUP6 PUSH2 0x3120 JUMP JUMPDEST SWAP4 POP DUP4 PUSH1 0x20 DUP3 MUL DUP6 ADD PUSH2 0x3189 DUP6 PUSH2 0x3131 JUMP JUMPDEST DUP1 PUSH1 0x0 JUMPDEST DUP6 DUP2 LT ISZERO PUSH2 0x31C5 JUMPI DUP5 DUP5 SUB DUP10 MSTORE DUP2 MLOAD PUSH2 0x31A6 DUP6 DUP3 PUSH2 0x3141 JUMP JUMPDEST SWAP5 POP PUSH2 0x31B1 DUP4 PUSH2 0x3155 JUMP JUMPDEST SWAP3 POP PUSH1 0x20 DUP11 ADD SWAP10 POP POP PUSH1 0x1 DUP2 ADD SWAP1 POP PUSH2 0x318D JUMP JUMPDEST POP DUP3 SWAP8 POP DUP8 SWAP6 POP POP POP POP POP POP SWAP3 SWAP2 POP POP JUMP JUMPDEST PUSH1 0x0 DUP2 MLOAD SWAP1 POP SWAP2 SWAP1 POP JUMP JUMPDEST PUSH1 0x0 DUP3 DUP3 MSTORE PUSH1 0x20 DUP3 ADD SWAP1 POP SWAP3 SWAP2 POP POP JUMP JUMPDEST PUSH1 0x0 DUP2 SWAP1 POP PUSH1 0x20 DUP3 ADD SWAP1 POP SWAP2 SWAP1 POP JUMP JUMPDEST PUSH1 0x0 DUP2 MLOAD SWAP1 POP SWAP2 SWAP1 POP JUMP JUMPDEST PUSH1 0x0 DUP3 DUP3 MSTORE PUSH1 0x20 DUP3 ADD SWAP1 POP SWAP3 SWAP2 POP POP JUMP JUMPDEST PUSH1 0x0 DUP2 SWAP1 POP PUSH1 0x20 DUP3 ADD SWAP1 POP SWAP2 SWAP1 POP JUMP JUMPDEST PUSH2 0x3238 DUP2 PUSH2 0x2DA1 JUMP JUMPDEST DUP3 MSTORE POP POP JUMP JUMPDEST PUSH1 0x0 PUSH2 0x324A DUP4 DUP4 PUSH2 0x322F JUMP JUMPDEST PUSH1 0x20 DUP4 ADD SWAP1 POP SWAP3 SWAP2 POP POP JUMP JUMPDEST PUSH1 0x0 PUSH1 0x20 DUP3 ADD SWAP1 POP SWAP2 SWAP1 POP JUMP JUMPDEST PUSH1 0x0 PUSH2 0x326E DUP3 PUSH2 0x3203 JUMP JUMPDEST PUSH2 0x3278 DUP2 DUP6 PUSH2 0x320E JUMP JUMPDEST SWAP4 POP PUSH2 0x3283 DUP4 PUSH2 0x321F JUMP JUMPDEST DUP1 PUSH1 0x0 JUMPDEST DUP4 DUP2 LT ISZERO PUSH2 0x32B4 JUMPI DUP2 MLOAD PUSH2 0x329B DUP9 DUP3 PUSH2 0x323E JUMP JUMPDEST SWAP8 POP PUSH2 0x32A6 DUP4 PUSH2 0x3256 JUMP JUMPDEST SWAP3 POP POP PUSH1 0x1 DUP2 ADD SWAP1 POP PUSH2 0x3287 JUMP JUMPDEST POP DUP6 SWAP4 POP POP POP POP SWAP3 SWAP2 POP POP JUMP JUMPDEST PUSH1 0x0 PUSH2 0x32CD DUP4 DUP4 PUSH2 0x3263 JUMP JUMPDEST SWAP1 POP SWAP3 SWAP2 POP POP JUMP JUMPDEST PUSH1 0x0 PUSH1 0x20 DUP3 ADD SWAP1 POP SWAP2 SWAP1 POP JUMP JUMPDEST PUSH1 0x0 PUSH2 0x32ED DUP3 PUSH2 0x31D7 JUMP JUMPDEST PUSH2 0x32F7 DUP2 DUP6 PUSH2 0x31E2 JUMP JUMPDEST SWAP4 POP DUP4 PUSH1 0x20 DUP3 MUL DUP6 ADD PUSH2 0x3309 DUP6 PUSH2 0x31F3 JUMP JUMPDEST DUP1 PUSH1 0x0 JUMPDEST DUP6 DUP2 LT ISZERO PUSH2 0x3345 JUMPI DUP5 DUP5 SUB DUP10 MSTORE DUP2 MLOAD PUSH2 0x3326 DUP6 DUP3 PUSH2 0x32C1 JUMP JUMPDEST SWAP5 POP PUSH2 0x3331 DUP4 PUSH2 0x32D5 JUMP JUMPDEST SWAP3 POP PUSH1 0x20 DUP11 ADD SWAP10 POP POP PUSH1 0x1 DUP2 ADD SWAP1 POP PUSH2 0x330D JUMP JUMPDEST POP DUP3 SWAP8 POP DUP8 SWAP6 POP POP POP POP POP POP SWAP3 SWAP2 POP POP JUMP JUMPDEST PUSH2 0x3360 DUP2 PUSH2 0x300F JUMP JUMPDEST DUP3 MSTORE POP POP JUMP JUMPDEST PUSH1 0x0 PUSH2 0x120 DUP4 ADD PUSH1 0x0 DUP4 ADD MLOAD DUP5 DUP3 SUB PUSH1 0x0 DUP7 ADD MSTORE PUSH2 0x3384 DUP3 DUP3 PUSH2 0x30DC JUMP JUMPDEST SWAP2 POP POP PUSH1 0x20 DUP4 ADD MLOAD DUP5 DUP3 SUB PUSH1 0x20 DUP7 ADD MSTORE PUSH2 0x339E DUP3 DUP3 PUSH2 0x3162 JUMP JUMPDEST SWAP2 POP POP PUSH1 0x40 DUP4 ADD MLOAD DUP5 DUP3 SUB PUSH1 0x40 DUP7 ADD MSTORE PUSH2 0x33B8 DUP3 DUP3 PUSH2 0x30DC JUMP JUMPDEST SWAP2 POP POP PUSH1 0x60 DUP4 ADD MLOAD DUP5 DUP3 SUB PUSH1 0x60 DUP7 ADD MSTORE PUSH2 0x33D2 DUP3 DUP3 PUSH2 0x32E2 JUMP JUMPDEST SWAP2 POP POP PUSH1 0x80 DUP4 ADD MLOAD PUSH2 0x33E7 PUSH1 0x80 DUP7 ADD DUP3 PUSH2 0x322F JUMP JUMPDEST POP PUSH1 0xA0 DUP4 ADD MLOAD PUSH2 0x33FA PUSH1 0xA0 DUP7 ADD DUP3 PUSH2 0x322F JUMP JUMPDEST POP PUSH1 0xC0 DUP4 ADD MLOAD DUP5 DUP3 SUB PUSH1 0xC0 DUP7 ADD MSTORE PUSH2 0x3412 DUP3 DUP3 PUSH2 0x3263 JUMP JUMPDEST SWAP2 POP POP PUSH1 0xE0 DUP4 ADD MLOAD PUSH2 0x3427 PUSH1 0xE0 DUP7 ADD DUP3 PUSH2 0x3357 JUMP JUMPDEST POP PUSH2 0x100 DUP4 ADD MLOAD DUP5 DUP3 SUB PUSH2 0x100 DUP7 ADD MSTORE PUSH2 0x3441 DUP3 DUP3 PUSH2 0x30DC JUMP JUMPDEST SWAP2 POP POP DUP1 SWAP2 POP POP SWAP3 SWAP2 POP POP JUMP JUMPDEST PUSH1 0x0 PUSH1 0x20 DUP3 ADD SWAP1 POP DUP2 DUP2 SUB PUSH1 0x0 DUP4 ADD MSTORE PUSH2 0x3468 DUP2 DUP5 PUSH2 0x3366 JUMP JUMPDEST SWAP1 POP SWAP3 SWAP2 POP POP JUMP JUMPDEST PUSH1 0x0 PUSH1 0x20 DUP3 DUP5 SUB SLT ISZERO PUSH2 0x3486 JUMPI PUSH2 0x3485 PUSH2 0x2DED JUMP JUMPDEST JUMPDEST PUSH1 0x0 PUSH2 0x3494 DUP5 DUP3 DUP6 ADD PUSH2 0x2E0E JUMP JUMPDEST SWAP2 POP POP SWAP3 SWAP2 POP POP JUMP JUMPDEST PUSH2 0x34A6 DUP2 PUSH2 0x2EF0 JUMP JUMPDEST DUP3 MSTORE POP POP JUMP JUMPDEST PUSH1 0x0 PUSH1 0xA0 DUP4 ADD PUSH1 0x0 DUP4 ADD MLOAD DUP5 DUP3 SUB PUSH1 0x0 DUP7 ADD MSTORE PUSH2 0x34C9 DUP3 DUP3 PUSH2 0x30DC JUMP JUMPDEST SWAP2 POP POP PUSH1 0x20 DUP4 ADD MLOAD DUP5 DUP3 SUB PUSH1 0x20 DUP7 ADD MSTORE PUSH2 0x34E3 DUP3 DUP3 PUSH2 0x30DC JUMP JUMPDEST SWAP2 POP POP PUSH1 0x40 DUP4 ADD MLOAD DUP5 DUP3 SUB PUSH1 0x40 DUP7 ADD MSTORE PUSH2 0x34FD DUP3 DUP3 PUSH2 0x30DC JUMP JUMPDEST SWAP2 POP POP PUSH1 0x60 DUP4 ADD MLOAD DUP5 DUP3 SUB PUSH1 0x60 DUP7 ADD MSTORE PUSH2 0x3517 DUP3 DUP3 PUSH2 0x3162 JUMP JUMPDEST SWAP2 POP POP PUSH1 0x80 DUP4 ADD MLOAD PUSH2 0x352C PUSH1 0x80 DUP7 ADD DUP3 PUSH2 0x349D JUMP JUMPDEST POP DUP1 SWAP2 POP POP SWAP3 SWAP2 POP POP JUMP JUMPDEST PUSH32 0x4E487B7100000000000000000000000000000000000000000000000000000000 PUSH1 0x0 MSTORE PUSH1 0x21 PUSH1 0x4 MSTORE PUSH1 0x24 PUSH1 0x0 REVERT JUMPDEST PUSH1 0x6 DUP2 LT PUSH2 0x3577 JUMPI PUSH2 0x3576 PUSH2 0x3537 JUMP JUMPDEST JUMPDEST POP JUMP JUMPDEST PUSH1 0x0 DUP2 SWAP1 POP PUSH2 0x3588 DUP3 PUSH2 0x3566 JUMP JUMPDEST SWAP2 SWAP1 POP JUMP JUMPDEST PUSH1 0x0 PUSH2 0x3598 DUP3 PUSH2 0x357A JUMP JUMPDEST SWAP1 POP SWAP2 SWAP1 POP JUMP JUMPDEST PUSH2 0x35A8 DUP2 PUSH2 0x358D JUMP JUMPDEST DUP3 MSTORE POP POP JUMP JUMPDEST PUSH1 0x0 DUP2 MLOAD SWAP1 POP SWAP2 SWAP1 POP JUMP JUMPDEST PUSH1 0x0 DUP3 DUP3 MSTORE PUSH1 0x20 DUP3 ADD SWAP1 POP SWAP3 SWAP2 POP POP JUMP JUMPDEST PUSH1 0x0 DUP2 SWAP1 POP PUSH1 0x20 DUP3 ADD SWAP1 POP SWAP2 SWAP1 POP JUMP JUMPDEST PUSH2 0x35E3 DUP2 PUSH2 0x2D80 JUMP JUMPDEST DUP3 MSTORE POP POP JUMP JUMPDEST PUSH1 0x0 PUSH1 0x40 DUP4 ADD PUSH1 0x0 DUP4 ADD MLOAD DUP5 DUP3 SUB PUSH1 0x0 DUP7 ADD MSTORE PUSH2 0x3606 DUP3 DUP3 PUSH2 0x30DC JUMP JUMPDEST SWAP2 POP POP PUSH1 0x20 DUP4 ADD MLOAD PUSH2 0x361B PUSH1 0x20 DUP7 ADD DUP3 PUSH2 0x35DA JUMP JUMPDEST POP DUP1 SWAP2 POP POP SWAP3 SWAP2 POP POP JUMP JUMPDEST PUSH1 0x0 PUSH2 0x3632 DUP4 DUP4 PUSH2 0x35E9 JUMP JUMPDEST SWAP1 POP SWAP3 SWAP2 POP POP JUMP JUMPDEST PUSH1 0x0 PUSH1 0x20 DUP3 ADD SWAP1 POP SWAP2 SWAP1 POP JUMP JUMPDEST PUSH1 0x0 PUSH2 0x3652 DUP3 PUSH2 0x35AE JUMP JUMPDEST PUSH2 0x365C DUP2 DUP6 PUSH2 0x35B9 JUMP JUMPDEST SWAP4 POP DUP4 PUSH1 0x20 DUP3 MUL DUP6 ADD PUSH2 0x366E DUP6 PUSH2 0x35CA JUMP JUMPDEST DUP1 PUSH1 0x0 JUMPDEST DUP6 DUP2 LT ISZERO PUSH2 0x36AA JUMPI DUP5 DUP5 SUB DUP10 MSTORE DUP2 MLOAD PUSH2 0x368B DUP6 DUP3 PUSH2 0x3626 JUMP JUMPDEST SWAP5 POP PUSH2 0x3696 DUP4 PUSH2 0x363A JUMP JUMPDEST SWAP3 POP PUSH1 0x20 DUP11 ADD SWAP10 POP POP PUSH1 0x1 DUP2 ADD SWAP1 POP PUSH2 0x3672 JUMP JUMPDEST POP DUP3 SWAP8 POP DUP8 SWAP6 POP POP POP POP POP POP SWAP3 SWAP2 POP POP JUMP JUMPDEST PUSH1 0x0 PUSH1 0x60 DUP4 ADD PUSH1 0x0 DUP4 ADD MLOAD PUSH2 0x36D4 PUSH1 0x0 DUP7 ADD DUP3 PUSH2 0x359F JUMP JUMPDEST POP PUSH1 0x20 DUP4 ADD MLOAD DUP5 DUP3 SUB PUSH1 0x20 DUP7 ADD MSTORE PUSH2 0x36EC DUP3 DUP3 PUSH2 0x3647 JUMP JUMPDEST SWAP2 POP POP PUSH1 0x40 DUP4 ADD MLOAD DUP5 DUP3 SUB PUSH1 0x40 DUP7 ADD MSTORE PUSH2 0x3706 DUP3 DUP3 PUSH2 0x30DC JUMP JUMPDEST SWAP2 POP POP DUP1 SWAP2 POP POP SWAP3 SWAP2 POP POP JUMP JUMPDEST PUSH1 0x2 DUP2 LT PUSH2 0x3724 JUMPI PUSH2 0x3723 PUSH2 0x3537 JUMP JUMPDEST JUMPDEST POP JUMP JUMPDEST PUSH1 0x0 DUP2 SWAP1 POP PUSH2 0x3735 DUP3 PUSH2 0x3713 JUMP JUMPDEST SWAP2 SWAP1 POP JUMP JUMPDEST PUSH1 0x0 PUSH2 0x3745 DUP3 PUSH2 0x3727 JUMP JUMPDEST SWAP1 POP SWAP2 SWAP1 POP JUMP JUMPDEST PUSH2 0x3755 DUP2 PUSH2 0x373A JUMP JUMPDEST DUP3 MSTORE POP POP JUMP JUMPDEST PUSH1 0x0 PUSH1 0xC0 DUP4 ADD PUSH1 0x0 DUP4 ADD MLOAD DUP5 DUP3 SUB PUSH1 0x0 DUP7 ADD MSTORE PUSH2 0x3778 DUP3 DUP3 PUSH2 0x34AC JUMP JUMPDEST SWAP2 POP POP PUSH1 0x20 DUP4 ADD MLOAD DUP5 DUP3 SUB PUSH1 0x20 DUP7 ADD MSTORE PUSH2 0x3792 DUP3 DUP3 PUSH2 0x36BC JUMP JUMPDEST SWAP2 POP POP PUSH1 0x40 DUP4 ADD MLOAD DUP5 DUP3 SUB PUSH1 0x40 DUP7 ADD MSTORE PUSH2 0x37AC DUP3 DUP3 PUSH2 0x3263 JUMP JUMPDEST SWAP2 POP POP PUSH1 0x60 DUP4 ADD MLOAD PUSH2 0x37C1 PUSH1 0x60 DUP7 ADD DUP3 PUSH2 0x374C JUMP JUMPDEST POP PUSH1 0x80 DUP4 ADD MLOAD PUSH2 0x37D4 PUSH1 0x80 DUP7 ADD DUP3 PUSH2 0x349D JUMP JUMPDEST POP PUSH1 0xA0 DUP4 ADD MLOAD PUSH2 0x37E7 PUSH1 0xA0 DUP7 ADD DUP3 PUSH2 0x322F JUMP JUMPDEST POP DUP1 SWAP2 POP POP SWAP3 SWAP2 POP POP JUMP JUMPDEST PUSH1 0x0 PUSH1 0x20 DUP3 ADD SWAP1 POP DUP2 DUP2 SUB PUSH1 0x0 DUP4 ADD MSTORE PUSH2 0x380C DUP2 DUP5 PUSH2 0x375B JUMP JUMPDEST SWAP1 POP SWAP3 SWAP2 POP POP JUMP JUMPDEST PUSH1 0x0 PUSH2 0x120 DUP3 DUP5 SUB SLT ISZERO PUSH2 0x382B JUMPI PUSH2 0x382A PUSH2 0x2E23 JUMP JUMPDEST JUMPDEST DUP2 SWAP1 POP SWAP3 SWAP2 POP POP JUMP JUMPDEST PUSH1 0x0 DUP1 PUSH1 0x0 PUSH1 0x60 DUP5 DUP7 SUB SLT ISZERO PUSH2 0x384D JUMPI PUSH2 0x384C PUSH2 0x2DED JUMP JUMPDEST JUMPDEST PUSH1 0x0 PUSH2 0x385B DUP7 DUP3 DUP8 ADD PUSH2 0x2E0E JUMP JUMPDEST SWAP4 POP POP PUSH1 0x20 PUSH2 0x386C DUP7 DUP3 DUP8 ADD PUSH2 0x3030 JUMP JUMPDEST SWAP3 POP POP PUSH1 0x40 DUP5 ADD CALLDATALOAD PUSH8 0xFFFFFFFFFFFFFFFF DUP2 GT ISZERO PUSH2 0x388D JUMPI PUSH2 0x388C PUSH2 0x2DF2 JUMP JUMPDEST JUMPDEST PUSH2 0x3899 DUP7 DUP3 DUP8 ADD PUSH2 0x3814 JUMP JUMPDEST SWAP2 POP POP SWAP3 POP SWAP3 POP SWAP3 JUMP JUMPDEST PUSH2 0x38AC DUP2 PUSH2 0x2D80 JUMP JUMPDEST DUP2 EQ PUSH2 0x38B7 JUMPI PUSH1 0x0 DUP1 REVERT JUMPDEST POP JUMP JUMPDEST PUSH1 0x0 DUP2 CALLDATALOAD SWAP1 POP PUSH2 0x38C9 DUP2 PUSH2 0x38A3 JUMP JUMPDEST SWAP3 SWAP2 POP POP JUMP JUMPDEST PUSH1 0x0 DUP1 REVERT JUMPDEST PUSH32 0x4E487B7100000000000000000000000000000000000000000000000000000000 PUSH1 0x0 MSTORE PUSH1 0x41 PUSH1 0x4 MSTORE PUSH1 0x24 PUSH1 0x0 REVERT JUMPDEST PUSH2 0x390C DUP3 PUSH2 0x30CB JUMP JUMPDEST DUP2 ADD DUP2 DUP2 LT PUSH8 0xFFFFFFFFFFFFFFFF DUP3 GT OR ISZERO PUSH2 0x392B JUMPI PUSH2 0x392A PUSH2 0x38D4 JUMP JUMPDEST JUMPDEST DUP1 PUSH1 0x40 MSTORE POP POP POP JUMP JUMPDEST PUSH1 0x0 PUSH2 0x393E PUSH2 0x2DE3 JUMP JUMPDEST SWAP1 POP PUSH2 0x394A DUP3 DUP3 PUSH2 0x3903 JUMP JUMPDEST SWAP2 SWAP1 POP JUMP JUMPDEST PUSH1 0x0 PUSH8 0xFFFFFFFFFFFFFFFF DUP3 GT ISZERO PUSH2 0x396A JUMPI PUSH2 0x3969 PUSH2 0x38D4 JUMP JUMPDEST JUMPDEST PUSH2 0x3973 DUP3 PUSH2 0x30CB JUMP JUMPDEST SWAP1 POP PUSH1 0x20 DUP2 ADD SWAP1 POP SWAP2 SWAP1 POP JUMP JUMPDEST DUP3 DUP2 DUP4 CALLDATACOPY PUSH1 0x0 DUP4 DUP4 ADD MSTORE POP POP POP JUMP JUMPDEST PUSH1 0x0 PUSH2 0x39A2 PUSH2 0x399D DUP5 PUSH2 0x394F JUMP JUMPDEST PUSH2 0x3934 JUMP JUMPDEST SWAP1 POP DUP3 DUP2 MSTORE PUSH1 0x20 DUP2 ADD DUP5 DUP5 DUP5 ADD GT ISZERO PUSH2 0x39BE JUMPI PUSH2 0x39BD PUSH2 0x38CF JUMP JUMPDEST JUMPDEST PUSH2 0x39C9 DUP5 DUP3 DUP6 PUSH2 0x3980 JUMP JUMPDEST POP SWAP4 SWAP3 POP POP POP JUMP JUMPDEST PUSH1 0x0 DUP3 PUSH1 0x1F DUP4 ADD SLT PUSH2 0x39E6 JUMPI PUSH2 0x39E5 PUSH2 0x2E66 JUMP JUMPDEST JUMPDEST DUP2 CALLDATALOAD PUSH2 0x39F6 DUP5 DUP3 PUSH1 0x20 DUP7 ADD PUSH2 0x398F JUMP JUMPDEST SWAP2 POP POP SWAP3 SWAP2 POP POP JUMP JUMPDEST PUSH1 0x0 DUP1 PUSH1 0x40 DUP4 DUP6 SUB SLT ISZERO PUSH2 0x3A16 JUMPI PUSH2 0x3A15 PUSH2 0x2DED JUMP JUMPDEST JUMPDEST PUSH1 0x0 PUSH2 0x3A24 DUP6 DUP3 DUP7 ADD PUSH2 0x38BA JUMP JUMPDEST SWAP3 POP POP PUSH1 0x20 DUP4 ADD CALLDATALOAD PUSH8 0xFFFFFFFFFFFFFFFF DUP2 GT ISZERO PUSH2 0x3A45 JUMPI PUSH2 0x3A44 PUSH2 0x2DF2 JUMP JUMPDEST JUMPDEST PUSH2 0x3A51 DUP6 DUP3 DUP7 ADD PUSH2 0x39D1 JUMP JUMPDEST SWAP2 POP POP SWAP3 POP SWAP3 SWAP1 POP JUMP JUMPDEST PUSH2 0x3A64 DUP2 PUSH2 0x300F JUMP JUMPDEST DUP3 MSTORE POP POP JUMP JUMPDEST PUSH1 0x0 PUSH1 0x20 DUP3 ADD SWAP1 POP PUSH2 0x3A7F PUSH1 0x0 DUP4 ADD DUP5 PUSH2 0x3A5B JUMP JUMPDEST SWAP3 SWAP2 POP POP JUMP JUMPDEST PUSH1 0x0 DUP1 PUSH1 0x40 DUP4 DUP6 SUB SLT ISZERO PUSH2 0x3A9C JUMPI PUSH2 0x3A9B PUSH2 0x2DED JUMP JUMPDEST JUMPDEST PUSH1 0x0 PUSH2 0x3AAA DUP6 DUP3 DUP7 ADD PUSH2 0x2E0E JUMP JUMPDEST SWAP3 POP POP PUSH1 0x20 DUP4 ADD CALLDATALOAD PUSH8 0xFFFFFFFFFFFFFFFF DUP2 GT ISZERO PUSH2 0x3ACB JUMPI PUSH2 0x3ACA PUSH2 0x2DF2 JUMP JUMPDEST JUMPDEST PUSH2 0x3AD7 DUP6 DUP3 DUP7 ADD PUSH2 0x2E47 JUMP JUMPDEST SWAP2 POP POP SWAP3 POP SWAP3 SWAP1 POP JUMP JUMPDEST PUSH1 0x0 DUP1 PUSH1 0x0 DUP1 PUSH1 0x0 PUSH1 0x80 DUP7 DUP9 SUB SLT ISZERO PUSH2 0x3AFD JUMPI PUSH2 0x3AFC PUSH2 0x2DED JUMP JUMPDEST JUMPDEST PUSH1 0x0 DUP7 ADD CALLDATALOAD PUSH8 0xFFFFFFFFFFFFFFFF DUP2 GT ISZERO PUSH2 0x3B1B JUMPI PUSH2 0x3B1A PUSH2 0x2DF2 JUMP JUMPDEST JUMPDEST PUSH2 0x3B27 DUP9 DUP3 DUP10 ADD PUSH2 0x2E28 JUMP JUMPDEST SWAP6 POP POP PUSH1 0x20 DUP7 ADD CALLDATALOAD PUSH8 0xFFFFFFFFFFFFFFFF DUP2 GT ISZERO PUSH2 0x3B48 JUMPI PUSH2 0x3B47 PUSH2 0x2DF2 JUMP JUMPDEST JUMPDEST PUSH2 0x3B54 DUP9 DUP3 DUP10 ADD PUSH2 0x2E47 JUMP JUMPDEST SWAP5 POP POP PUSH1 0x40 DUP7 ADD CALLDATALOAD PUSH8 0xFFFFFFFFFFFFFFFF DUP2 GT ISZERO PUSH2 0x3B75 JUMPI PUSH2 0x3B74 PUSH2 0x2DF2 JUMP JUMPDEST JUMPDEST PUSH2 0x3B81 DUP9 DUP3 DUP10 ADD PUSH2 0x2E75 JUMP JUMPDEST SWAP4 POP SWAP4 POP POP PUSH1 0x60 PUSH2 0x3B94 DUP9 DUP3 DUP10 ADD PUSH2 0x2EDB JUMP JUMPDEST SWAP2 POP POP SWAP3 SWAP6 POP SWAP3 SWAP6 SWAP1 SWAP4 POP JUMP JUMPDEST PUSH1 0x0 DUP1 PUSH1 0x40 DUP4 DUP6 SUB SLT ISZERO PUSH2 0x3BB8 JUMPI PUSH2 0x3BB7 PUSH2 0x2DED JUMP JUMPDEST JUMPDEST PUSH1 0x0 PUSH2 0x3BC6 DUP6 DUP3 DUP7 ADD PUSH2 0x2E0E JUMP JUMPDEST SWAP3 POP POP PUSH1 0x20 PUSH2 0x3BD7 DUP6 DUP3 DUP7 ADD PUSH2 0x2EDB JUMP JUMPDEST SWAP2 POP POP SWAP3 POP SWAP3 SWAP1 POP JUMP JUMPDEST PUSH1 0x0 DUP1 PUSH1 0x40 DUP4 DUP6 SUB SLT ISZERO PUSH2 0x3BF8 JUMPI PUSH2 0x3BF7 PUSH2 0x2DED JUMP JUMPDEST JUMPDEST PUSH1 0x0 PUSH2 0x3C06 DUP6 DUP3 DUP7 ADD PUSH2 0x2E0E JUMP JUMPDEST SWAP3 POP POP PUSH1 0x20 DUP4 ADD CALLDATALOAD PUSH8 0xFFFFFFFFFFFFFFFF DUP2 GT ISZERO PUSH2 0x3C27 JUMPI PUSH2 0x3C26 PUSH2 0x2DF2 JUMP JUMPDEST JUMPDEST PUSH2 0x3C33 DUP6 DUP3 DUP7 ADD PUSH2 0x2E28 JUMP JUMPDEST SWAP2 POP POP SWAP3 POP SWAP3 SWAP1 POP JUMP JUMPDEST PUSH1 0x0 PUSH1 0x20 DUP3 ADD SWAP1 POP PUSH2 0x3C52 PUSH1 0x0 DUP4 ADD DUP5 PUSH2 0x2D92 JUMP JUMPDEST SWAP3 SWAP2 POP POP JUMP JUMPDEST PUSH1 0x0 PUSH1 0x20 DUP3 ADD SWAP1 POP PUSH2 0x3C6D PUSH1 0x0 DUP4 ADD DUP5 PUSH2 0x2DAB JUMP JUMPDEST SWAP3 SWAP2 POP POP JUMP JUMPDEST PUSH1 0x0 DUP1 PUSH1 0x40 DUP4 DUP6 SUB SLT ISZERO PUSH2 0x3C8A JUMPI PUSH2 0x3C89 PUSH2 0x2DED JUMP JUMPDEST JUMPDEST PUSH1 0x0 PUSH2 0x3C98 DUP6 DUP3 DUP7 ADD PUSH2 0x2E0E JUMP JUMPDEST SWAP3 POP POP PUSH1 0x20 PUSH2 0x3CA9 DUP6 DUP3 DUP7 ADD PUSH2 0x2E0E JUMP JUMPDEST SWAP2 POP POP SWAP3 POP SWAP3 SWAP1 POP JUMP JUMPDEST PUSH1 0x0 DUP3 DUP3 MSTORE PUSH1 0x20 DUP3 ADD SWAP1 POP SWAP3 SWAP2 POP POP JUMP JUMPDEST PUSH1 0x0 PUSH2 0x3CCF DUP3 PUSH2 0x3085 JUMP JUMPDEST PUSH2 0x3CD9 DUP2 DUP6 PUSH2 0x3CB3 JUMP JUMPDEST SWAP4 POP PUSH2 0x3CE9 DUP2 DUP6 PUSH1 0x20 DUP7 ADD PUSH2 0x30A1 JUMP JUMPDEST PUSH2 0x3CF2 DUP2 PUSH2 0x30CB JUMP JUMPDEST DUP5 ADD SWAP2 POP POP SWAP3 SWAP2 POP POP JUMP JUMPDEST PUSH1 0x0 PUSH1 0x20 DUP3 ADD SWAP1 POP DUP2 DUP2 SUB PUSH1 0x0 DUP4 ADD MSTORE PUSH2 0x3D17 DUP2 DUP5 PUSH2 0x3CC4 JUMP JUMPDEST SWAP1 POP SWAP3 SWAP2 POP POP JUMP JUMPDEST PUSH1 0x0 DUP1 PUSH1 0x40 DUP4 DUP6 SUB SLT ISZERO PUSH2 0x3D36 JUMPI PUSH2 0x3D35 PUSH2 0x2DED JUMP JUMPDEST JUMPDEST PUSH1 0x0 PUSH2 0x3D44 DUP6 DUP3 DUP7 ADD PUSH2 0x2E0E JUMP JUMPDEST SWAP3 POP POP PUSH1 0x20 PUSH2 0x3D55 DUP6 DUP3 DUP7 ADD PUSH2 0x2F13 JUMP JUMPDEST SWAP2 POP POP SWAP3 POP SWAP3 SWAP1 POP JUMP JUMPDEST PUSH1 0x0 PUSH1 0x20 DUP3 DUP5 SUB SLT ISZERO PUSH2 0x3D75 JUMPI PUSH2 0x3D74 PUSH2 0x2DED JUMP JUMPDEST JUMPDEST PUSH1 0x0 PUSH2 0x3D83 DUP5 DUP3 DUP6 ADD PUSH2 0x38BA JUMP JUMPDEST SWAP2 POP POP SWAP3 SWAP2 POP POP JUMP JUMPDEST PUSH32 0x4E487B7100000000000000000000000000000000000000000000000000000000 PUSH1 0x0 MSTORE PUSH1 0x0 PUSH1 0x4 MSTORE PUSH1 0x24 PUSH1 0x0 REVERT JUMPDEST PUSH1 0x0 DUP1 REVERT JUMPDEST PUSH1 0x0 DUP1 REVERT JUMPDEST PUSH1 0x0 DUP1 REVERT JUMPDEST PUSH1 0x0 DUP1 DUP4 CALLDATALOAD PUSH1 0x1 PUSH1 0x20 SUB DUP5 CALLDATASIZE SUB SUB DUP2 SLT PUSH2 0x3DE7 JUMPI PUSH2 0x3DE6 PUSH2 0x3DBB JUMP JUMPDEST JUMPDEST DUP1 DUP5 ADD SWAP3 POP DUP3 CALLDATALOAD SWAP2 POP PUSH8 0xFFFFFFFFFFFFFFFF DUP3 GT ISZERO PUSH2 0x3E09 JUMPI PUSH2 0x3E08 PUSH2 0x3DC0 JUMP JUMPDEST JUMPDEST PUSH1 0x20 DUP4 ADD SWAP3 POP PUSH1 0x1 DUP3 MUL CALLDATASIZE SUB DUP4 SGT ISZERO PUSH2 0x3E25 JUMPI PUSH2 0x3E24 PUSH2 0x3DC5 JUMP JUMPDEST JUMPDEST POP SWAP3 POP SWAP3 SWAP1 POP JUMP JUMPDEST PUSH1 0x0 DUP3 SWAP1 POP SWAP3 SWAP2 POP POP JUMP JUMPDEST PUSH32 0x4E487B7100000000000000000000000000000000000000000000000000000000 PUSH1 0x0 MSTORE PUSH1 0x22 PUSH1 0x4 MSTORE PUSH1 0x24 PUSH1 0x0 REVERT JUMPDEST PUSH1 0x0 PUSH1 0x2 DUP3 DIV SWAP1 POP PUSH1 0x1 DUP3 AND DUP1 PUSH2 0x3E7F JUMPI PUSH1 0x7F DUP3 AND SWAP2 POP JUMPDEST PUSH1 0x20 DUP3 LT DUP2 SUB PUSH2 0x3E92 JUMPI PUSH2 0x3E91 PUSH2 0x3E38 JUMP JUMPDEST JUMPDEST POP SWAP2 SWAP1 POP JUMP JUMPDEST PUSH1 0x0 DUP2 SWAP1 POP DUP2 PUSH1 0x0 MSTORE PUSH1 0x20 PUSH1 0x0 KECCAK256 SWAP1 POP SWAP2 SWAP1 POP JUMP JUMPDEST PUSH1 0x0 PUSH1 0x20 PUSH1 0x1F DUP4 ADD DIV SWAP1 POP SWAP2 SWAP1 POP JUMP JUMPDEST PUSH1 0x0 DUP3 DUP3 SHL SWAP1 POP SWAP3 SWAP2 POP POP JUMP JUMPDEST PUSH1 0x0 PUSH1 0x8 DUP4 MUL PUSH2 0x3EFA PUSH32 0xFFFFFFFFFFFFFFFFFFFFFFFFFFFFFFFFFFFFFFFFFFFFFFFFFFFFFFFFFFFFFFFF DUP3 PUSH2 0x3EBD JUMP JUMPDEST PUSH2 0x3F04 DUP7 DUP4 PUSH2 0x3EBD JUMP JUMPDEST SWAP6 POP DUP1 NOT DUP5 AND SWAP4 POP DUP1 DUP7 AND DUP5 OR SWAP3 POP POP POP SWAP4 SWAP3 POP POP POP JUMP JUMPDEST PUSH1 0x0 DUP2 SWAP1 POP SWAP2 SWAP1 POP JUMP JUMPDEST PUSH1 0x0 PUSH2 0x3F41 PUSH2 0x3F3C PUSH2 0x3F37 DUP5 PUSH2 0x2DA1 JUMP JUMPDEST PUSH2 0x3F1C JUMP JUMPDEST PUSH2 0x2DA1 JUMP JUMPDEST SWAP1 POP SWAP2 SWAP1 POP JUMP JUMPDEST PUSH1 0x0 DUP2 SWAP1 POP SWAP2 SWAP1 POP JUMP JUMPDEST PUSH2 0x3F5B DUP4 PUSH2 0x3F26 JUMP JUMPDEST PUSH2 0x3F6F PUSH2 0x3F67 DUP3 PUSH2 0x3F48 JUMP JUMPDEST DUP5 DUP5 SLOAD PUSH2 0x3ECA JUMP JUMPDEST DUP3 SSTORE POP POP POP POP JUMP JUMPDEST PUSH1 0x0 SWAP1 JUMP JUMPDEST PUSH2 0x3F84 PUSH2 0x3F77 JUMP JUMPDEST PUSH2 0x3F8F DUP2 DUP5 DUP5 PUSH2 0x3F52 JUMP JUMPDEST POP POP POP JUMP JUMPDEST JUMPDEST DUP2 DUP2 LT ISZERO PUSH2 0x3FB3 JUMPI PUSH2 0x3FA8 PUSH1 0x0 DUP3 PUSH2 0x3F7C JUMP JUMPDEST PUSH1 0x1 DUP2 ADD SWAP1 POP PUSH2 0x3F95 JUMP JUMPDEST POP POP JUMP JUMPDEST PUSH1 0x1F DUP3 GT ISZERO PUSH2 0x3FF8 JUMPI PUSH2 0x3FC9 DUP2 PUSH2 0x3E98 JUMP JUMPDEST PUSH2 0x3FD2 DUP5 PUSH2 0x3EAD JUMP JUMPDEST DUP2 ADD PUSH1 0x20 DUP6 LT ISZERO PUSH2 0x3FE1 JUMPI DUP2 SWAP1 POP JUMPDEST PUSH2 0x3FF5 PUSH2 0x3FED DUP6 PUSH2 0x3EAD JUMP JUMPDEST DUP4 ADD DUP3 PUSH2 0x3F94 JUMP JUMPDEST POP POP JUMPDEST POP POP POP JUMP JUMPDEST PUSH1 0x0 DUP3 DUP3 SHR SWAP1 POP SWAP3 SWAP2 POP POP JUMP JUMPDEST PUSH1 0x0 PUSH2 0x401B PUSH1 0x0 NOT DUP5 PUSH1 0x8 MUL PUSH2 0x3FFD JUMP JUMPDEST NOT DUP1 DUP4 AND SWAP2 POP POP SWAP3 SWAP2 POP POP JUMP JUMPDEST PUSH1 0x0 PUSH2 0x4034 DUP4 DUP4 PUSH2 0x400A JUMP JUMPDEST SWAP2 POP DUP3 PUSH1 0x2 MUL DUP3 OR SWAP1 POP SWAP3 SWAP2 POP POP JUMP JUMPDEST PUSH2 0x404E DUP4 DUP4 PUSH2 0x3E2D JUMP JUMPDEST PUSH8 0xFFFFFFFFFFFFFFFF DUP2 GT ISZERO PUSH2 0x4067 JUMPI PUSH2 0x4066 PUSH2 0x38D4 JUMP JUMPDEST JUMPDEST PUSH2 0x4071 DUP3 SLOAD PUSH2 0x3E67 JUMP JUMPDEST PUSH2 0x407C DUP3 DUP3 DUP6 PUSH2 0x3FB7 JUMP JUMPDEST PUSH1 0x0 PUSH1 0x1F DUP4 GT PUSH1 0x1 DUP2 EQ PUSH2 0x40AB JUMPI PUSH1 0x0 DUP5 ISZERO PUSH2 0x4099 JUMPI DUP3 DUP8 ADD CALLDATALOAD SWAP1 POP JUMPDEST PUSH2 0x40A3 DUP6 DUP3 PUSH2 0x4028 JUMP JUMPDEST DUP7 SSTORE POP PUSH2 0x410B JUMP JUMPDEST PUSH1 0x1F NOT DUP5 AND PUSH2 0x40B9 DUP7 PUSH2 0x3E98 JUMP JUMPDEST PUSH1 0x0 JUMPDEST DUP3 DUP2 LT ISZERO PUSH2 0x40E1 JUMPI DUP5 DUP10 ADD CALLDATALOAD DUP3 SSTORE PUSH1 0x1 DUP3 ADD SWAP2 POP PUSH1 0x20 DUP6 ADD SWAP5 POP PUSH1 0x20 DUP2 ADD SWAP1 POP PUSH2 0x40BC JUMP JUMPDEST DUP7 DUP4 LT ISZERO PUSH2 0x40FE JUMPI DUP5 DUP10 ADD CALLDATALOAD PUSH2 0x40FA PUSH1 0x1F DUP10 AND DUP3 PUSH2 0x400A JUMP JUMPDEST DUP4 SSTORE POP JUMPDEST PUSH1 0x1 PUSH1 0x2 DUP9 MUL ADD DUP9 SSTORE POP POP POP JUMPDEST POP POP POP POP POP POP POP JUMP JUMPDEST PUSH2 0x411F DUP4 DUP4 DUP4 PUSH2 0x4044 JUMP JUMPDEST POP POP POP JUMP JUMPDEST PUSH1 0x0 DUP1 DUP4 CALLDATALOAD PUSH1 0x1 PUSH1 0x20 SUB DUP5 CALLDATASIZE SUB SUB DUP2 SLT PUSH2 0x4141 JUMPI PUSH2 0x4140 PUSH2 0x3DBB JUMP JUMPDEST JUMPDEST DUP1 DUP5 ADD SWAP3 POP DUP3 CALLDATALOAD SWAP2 POP PUSH8 0xFFFFFFFFFFFFFFFF DUP3 GT ISZERO PUSH2 0x4163 JUMPI PUSH2 0x4162 PUSH2 0x3DC0 JUMP JUMPDEST JUMPDEST PUSH1 0x20 DUP4 ADD SWAP3 POP PUSH1 0x20 DUP3 MUL CALLDATASIZE SUB DUP4 SGT ISZERO PUSH2 0x417F JUMPI PUSH2 0x417E PUSH2 0x3DC5 JUMP JUMPDEST JUMPDEST POP SWAP3 POP SWAP3 SWAP1 POP JUMP JUMPDEST PUSH1 0x0 DUP2 SWAP1 POP SWAP2 SWAP1 POP JUMP JUMPDEST PUSH1 0x0 DUP2 SLOAD SWAP1 POP SWAP2 SWAP1 POP JUMP JUMPDEST PUSH32 0x4E487B7100000000000000000000000000000000000000000000000000000000 PUSH1 0x0 MSTORE PUSH1 0x11 PUSH1 0x4 MSTORE PUSH1 0x24 PUSH1 0x0 REVERT JUMPDEST PUSH1 0x0 PUSH2 0x41D6 DUP3 PUSH2 0x2DA1 JUMP JUMPDEST SWAP2 POP PUSH2 0x41E1 DUP4 PUSH2 0x2DA1 JUMP JUMPDEST SWAP3 POP DUP3 DUP3 MUL PUSH2 0x41EF DUP2 PUSH2 0x2DA1 JUMP JUMPDEST SWAP2 POP DUP3 DUP3 DIV DUP5 EQ DUP4 ISZERO OR PUSH2 0x4206 JUMPI PUSH2 0x4205 PUSH2 0x419C JUMP JUMPDEST JUMPDEST POP SWAP3 SWAP2 POP POP JUMP JUMPDEST PUSH1 0x0 DUP2 SWAP1 POP PUSH1 0x1 DUP1 PUSH1 0x1 SUB DUP4 ADD DIV SWAP1 POP SWAP2 SWAP1 POP JUMP JUMPDEST PUSH1 0x0 DUP2 SWAP1 POP DUP2 PUSH1 0x0 MSTORE PUSH1 0x20 PUSH1 0x0 KECCAK256 SWAP1 POP SWAP2 SWAP1 POP JUMP JUMPDEST PUSH2 0x4267 PUSH32 0xFFFFFFFFFFFFFFFFFFFFFFFFFFFFFFFFFFFFFFFFFFFFFFFFFFFFFFFFFFFFFFFF DUP4 PUSH1 0x20 SUB PUSH1 0x8 MUL PUSH2 0x3FFD JUMP JUMPDEST DUP2 SLOAD DUP2 AND DUP3 SSTORE POP POP POP JUMP JUMPDEST PUSH2 0x427B DUP2 PUSH2 0x3E98 JUMP JUMPDEST PUSH2 0x4286 DUP4 DUP3 SLOAD PUSH2 0x4028 JUMP JUMPDEST DUP1 DUP4 SSTORE PUSH1 0x0 DUP3 SSTORE POP POP POP POP JUMP JUMPDEST PUSH1 0x20 DUP5 LT PUSH1 0x0 DUP2 EQ PUSH2 0x42EE JUMPI PUSH1 0x1F DUP5 GT PUSH1 0x1 DUP2 EQ PUSH2 0x42BC JUMPI PUSH2 0x42B5 DUP7 DUP6 PUSH2 0x4028 JUMP JUMPDEST DUP4 SSTORE PUSH2 0x42E8 JUMP JUMPDEST PUSH2 0x42C5 DUP4 PUSH2 0x3E98 JUMP JUMPDEST PUSH2 0x42DC PUSH2 0x42D1 DUP8 PUSH2 0x3EAD JUMP JUMPDEST DUP3 ADD PUSH1 0x1 DUP4 ADD PUSH2 0x3F94 JUMP JUMPDEST PUSH2 0x42E6 DUP8 DUP6 PUSH2 0x4272 JUMP JUMPDEST POP JUMPDEST POP PUSH2 0x433B JUMP JUMPDEST PUSH2 0x42F7 DUP3 PUSH2 0x3E98 JUMP JUMPDEST PUSH2 0x4300 DUP7 PUSH2 0x3EAD JUMP JUMPDEST DUP2 ADD PUSH1 0x1F DUP8 AND DUP1 ISZERO PUSH2 0x431A JUMPI PUSH2 0x4319 DUP2 PUSH1 0x1 DUP5 SUB PUSH2 0x4237 JUMP JUMPDEST JUMPDEST PUSH2 0x432E PUSH2 0x4326 DUP9 PUSH2 0x3EAD JUMP JUMPDEST DUP5 ADD DUP4 PUSH2 0x3F94 JUMP JUMPDEST PUSH1 0x1 DUP9 PUSH1 0x2 MUL OR DUP6 SSTORE POP POP POP JUMPDEST POP POP POP POP POP JUMP JUMPDEST PUSH9 0x10000000000000000 DUP5 GT ISZERO PUSH2 0x435C JUMPI PUSH2 0x435B PUSH2 0x38D4 JUMP JUMPDEST JUMPDEST PUSH1 0x20 DUP4 LT PUSH1 0x0 DUP2 EQ PUSH2 0x43A7 JUMPI PUSH1 0x20 DUP6 LT PUSH1 0x0 DUP2 EQ PUSH2 0x4385 JUMPI PUSH2 0x437E DUP7 DUP6 PUSH2 0x4028 JUMP JUMPDEST DUP4 SSTORE PUSH2 0x43A1 JUMP JUMPDEST DUP4 PUSH1 0xFF NOT AND SWAP4 POP DUP4 PUSH2 0x4396 DUP5 PUSH2 0x3E98 JUMP JUMPDEST SSTORE PUSH1 0x1 DUP7 PUSH1 0x2 MUL ADD DUP4 SSTORE JUMPDEST POP PUSH2 0x43B1 JUMP JUMPDEST PUSH1 0x1 DUP6 PUSH1 0x2 MUL ADD DUP3 SSTORE JUMPDEST POP POP POP POP POP JUMP JUMPDEST DUP1 SLOAD PUSH2 0x43C3 DUP2 PUSH2 0x3E67 JUMP JUMPDEST DUP1 DUP5 GT ISZERO PUSH2 0x43D8 JUMPI PUSH2 0x43D7 DUP5 DUP3 DUP5 DUP7 PUSH2 0x4342 JUMP JUMPDEST JUMPDEST DUP1 DUP5 LT ISZERO PUSH2 0x43ED JUMPI PUSH2 0x43EC DUP5 DUP3 DUP5 DUP7 PUSH2 0x4293 JUMP JUMPDEST JUMPDEST POP POP POP POP JUMP JUMPDEST DUP2 DUP2 LT ISZERO PUSH2 0x4411 JUMPI PUSH2 0x4406 PUSH1 0x0 DUP3 PUSH2 0x3F7C JUMP JUMPDEST PUSH1 0x1 DUP2 ADD SWAP1 POP PUSH2 0x43F3 JUMP JUMPDEST POP POP JUMP JUMPDEST PUSH2 0x4420 PUSH1 0x0 DUP3 PUSH2 0x43B8 JUMP JUMPDEST POP JUMP JUMPDEST PUSH1 0x0 DUP3 EQ PUSH2 0x4434 JUMPI PUSH2 0x4433 PUSH2 0x3D8C JUMP JUMPDEST JUMPDEST PUSH2 0x443D DUP2 PUSH2 0x4415 JUMP JUMPDEST POP POP JUMP JUMPDEST JUMPDEST DUP2 DUP2 LT ISZERO PUSH2 0x4460 JUMPI PUSH2 0x4455 PUSH1 0x0 DUP3 PUSH2 0x4423 JUMP JUMPDEST PUSH1 0x1 DUP2 ADD SWAP1 POP PUSH2 0x4442 JUMP JUMPDEST POP POP JUMP JUMPDEST DUP2 DUP4 LT ISZERO PUSH2 0x449D JUMPI PUSH2 0x4475 DUP3 PUSH2 0x420D JUMP JUMPDEST PUSH2 0x447E DUP5 PUSH2 0x420D JUMP JUMPDEST PUSH2 0x4487 DUP4 PUSH2 0x4222 JUMP JUMPDEST DUP2 DUP2 ADD DUP4 DUP3 ADD PUSH2 0x4497 DUP2 DUP4 PUSH2 0x4441 JUMP JUMPDEST POP POP POP POP POP JUMPDEST POP POP POP JUMP JUMPDEST PUSH9 0x10000000000000000 DUP3 GT ISZERO PUSH2 0x44BC JUMPI PUSH2 0x44BB PUSH2 0x38D4 JUMP JUMPDEST JUMPDEST PUSH2 0x44C5 DUP2 PUSH2 0x4191 JUMP JUMPDEST DUP3 DUP3 SSTORE PUSH2 0x44D3 DUP4 DUP3 DUP5 PUSH2 0x4464 JUMP JUMPDEST POP POP POP JUMP JUMPDEST PUSH1 0x0 DUP3 SWAP1 POP SWAP3 SWAP2 POP POP JUMP JUMPDEST PUSH2 0x44ED DUP4 DUP4 PUSH2 0x44D8 JUMP JUMPDEST PUSH2 0x44F7 DUP2 DUP4 PUSH2 0x44A2 JUMP JUMPDEST PUSH2 0x4500 DUP4 PUSH2 0x4187 JUMP JUMPDEST PUSH2 0x4509 DUP4 PUSH2 0x4222 JUMP JUMPDEST PUSH1 0x0 JUMPDEST DUP4 DUP2 LT ISZERO PUSH2 0x4542 JUMPI PUSH2 0x451E DUP4 DUP8 PUSH2 0x3DCA JUMP JUMPDEST PUSH2 0x4529 DUP2 DUP4 DUP7 PUSH2 0x4114 JUMP JUMPDEST PUSH1 0x20 DUP6 ADD SWAP5 POP PUSH1 0x1 DUP5 ADD SWAP4 POP POP POP PUSH1 0x1 DUP2 ADD SWAP1 POP PUSH2 0x450C JUMP JUMPDEST POP POP POP POP POP POP POP JUMP JUMPDEST PUSH2 0x4556 DUP4 DUP4 DUP4 PUSH2 0x44E3 JUMP JUMPDEST POP POP POP JUMP JUMPDEST PUSH1 0x0 DUP2 CALLDATALOAD PUSH2 0x4568 DUP2 PUSH2 0x2EFC JUMP JUMPDEST DUP1 SWAP2 POP POP SWAP2 SWAP1 POP JUMP JUMPDEST PUSH1 0x0 DUP2 PUSH1 0x0 SHL SWAP1 POP SWAP2 SWAP1 POP JUMP JUMPDEST PUSH1 0x0 PUSH1 0xFF PUSH2 0x458B DUP5 PUSH2 0x4571 JUMP JUMPDEST SWAP4 POP DUP1 NOT DUP4 AND SWAP3 POP DUP1 DUP5 AND DUP4 OR SWAP2 POP POP SWAP3 SWAP2 POP POP JUMP JUMPDEST PUSH1 0x0 PUSH2 0x45AC DUP3 PUSH2 0x2EF0 JUMP JUMPDEST SWAP1 POP SWAP2 SWAP1 POP JUMP JUMPDEST PUSH1 0x0 DUP2 SWAP1 POP SWAP2 SWAP1 POP JUMP JUMPDEST PUSH2 0x45C6 DUP3 PUSH2 0x45A1 JUMP JUMPDEST PUSH2 0x45D9 PUSH2 0x45D2 DUP3 PUSH2 0x45B3 JUMP JUMPDEST DUP4 SLOAD PUSH2 0x457E JUMP JUMPDEST DUP3 SSTORE POP POP POP JUMP JUMPDEST PUSH1 0x0 DUP2 ADD PUSH1 0x0 DUP4 ADD PUSH2 0x45F2 DUP2 DUP6 PUSH2 0x3DCA JUMP JUMPDEST PUSH2 0x45FD DUP2 DUP4 DUP7 PUSH2 0x4114 JUMP JUMPDEST POP POP POP POP PUSH1 0x1 DUP2 ADD PUSH1 0x20 DUP4 ADD PUSH2 0x4613 DUP2 DUP6 PUSH2 0x3DCA JUMP JUMPDEST PUSH2 0x461E DUP2 DUP4 DUP7 PUSH2 0x4114 JUMP JUMPDEST POP POP POP POP PUSH1 0x2 DUP2 ADD PUSH1 0x40 DUP4 ADD PUSH2 0x4634 DUP2 DUP6 PUSH2 0x3DCA JUMP JUMPDEST PUSH2 0x463F DUP2 DUP4 DUP7 PUSH2 0x4114 JUMP JUMPDEST POP POP POP POP PUSH1 0x3 DUP2 ADD PUSH1 0x60 DUP4 ADD PUSH2 0x4655 DUP2 DUP6 PUSH2 0x4124 JUMP JUMPDEST PUSH2 0x4660 DUP2 DUP4 DUP7 PUSH2 0x454B JUMP JUMPDEST POP POP POP POP PUSH1 0x4 DUP2 ADD PUSH1 0x80 DUP4 ADD DUP1 PUSH2 0x4676 DUP2 PUSH2 0x455B JUMP JUMPDEST SWAP1 POP PUSH2 0x4682 DUP2 DUP5 PUSH2 0x45BD JUMP JUMPDEST POP POP POP POP POP JUMP JUMPDEST PUSH2 0x4693 DUP3 DUP3 PUSH2 0x45E0 JUMP JUMPDEST POP POP JUMP JUMPDEST PUSH1 0x6 DUP2 LT PUSH2 0x46A4 JUMPI PUSH1 0x0 DUP1 REVERT JUMPDEST POP JUMP JUMPDEST PUSH1 0x0 DUP2 CALLDATALOAD PUSH2 0x46B4 DUP2 PUSH2 0x4697 JUMP JUMPDEST DUP1 SWAP2 POP POP SWAP2 SWAP1 POP JUMP JUMPDEST PUSH1 0x0 PUSH2 0x46C8 DUP3 PUSH2 0x357A JUMP JUMPDEST SWAP1 POP SWAP2 SWAP1 POP JUMP JUMPDEST PUSH1 0x0 DUP2 SWAP1 POP SWAP2 SWAP1 POP JUMP JUMPDEST PUSH2 0x46E2 DUP3 PUSH2 0x46BD JUMP JUMPDEST PUSH2 0x46F5 PUSH2 0x46EE DUP3 PUSH2 0x46CF JUMP JUMPDEST DUP4 SLOAD PUSH2 0x457E JUMP JUMPDEST DUP3 SSTORE POP POP POP JUMP JUMPDEST PUSH1 0x0 DUP1 DUP4 CALLDATALOAD PUSH1 0x1 PUSH1 0x20 SUB DUP5 CALLDATASIZE SUB SUB DUP2 SLT PUSH2 0x4719 JUMPI PUSH2 0x4718 PUSH2 0x3DBB JUMP JUMPDEST JUMPDEST DUP1 DUP5 ADD SWAP3 POP DUP3 CALLDATALOAD SWAP2 POP PUSH8 0xFFFFFFFFFFFFFFFF DUP3 GT ISZERO PUSH2 0x473B JUMPI PUSH2 0x473A PUSH2 0x3DC0 JUMP JUMPDEST JUMPDEST PUSH1 0x20 DUP4 ADD SWAP3 POP PUSH1 0x20 DUP3 MUL CALLDATASIZE SUB DUP4 SGT ISZERO PUSH2 0x4757 JUMPI PUSH2 0x4756 PUSH2 0x3DC5 JUMP JUMPDEST JUMPDEST POP SWAP3 POP SWAP3 SWAP1 POP JUMP JUMPDEST PUSH1 0x0 DUP2 SWAP1 POP SWAP2 SWAP1 POP JUMP JUMPDEST PUSH1 0x0 DUP3 CALLDATALOAD PUSH1 0x1 PUSH1 0x40 SUB DUP4 CALLDATASIZE SUB SUB DUP2 SLT PUSH2 0x4785 JUMPI PUSH2 0x4784 PUSH2 0x3DBB JUMP JUMPDEST JUMPDEST DUP1 DUP4 ADD SWAP2 POP POP SWAP3 SWAP2 POP POP JUMP JUMPDEST PUSH1 0x0 DUP2 SLOAD SWAP1 POP SWAP2 SWAP1 POP JUMP JUMPDEST PUSH1 0x0 DUP2 SWAP1 POP PUSH2 0x47AC DUP3 PUSH1 0x2 PUSH2 0x41CB JUMP JUMPDEST SWAP1 POP SWAP2 SWAP1 POP JUMP JUMPDEST PUSH1 0x0 DUP2 SWAP1 POP DUP2 PUSH1 0x0 MSTORE PUSH1 0x20 PUSH1 0x0 KECCAK256 SWAP1 POP SWAP2 SWAP1 POP JUMP JUMPDEST PUSH2 0x47D5 PUSH1 0x0 DUP1 DUP4 ADD PUSH2 0x4423 JUMP JUMPDEST PUSH1 0x0 PUSH1 0x1 DUP3 ADD SSTORE POP JUMP JUMPDEST PUSH1 0x0 DUP3 EQ PUSH2 0x47F0 JUMPI PUSH2 0x47EF PUSH2 0x3D8C JUMP JUMPDEST JUMPDEST PUSH2 0x47F9 DUP2 PUSH2 0x47C8 JUMP JUMPDEST POP POP JUMP JUMPDEST JUMPDEST DUP2 DUP2 LT ISZERO PUSH2 0x481C JUMPI PUSH2 0x4811 PUSH1 0x0 DUP3 PUSH2 0x47DF JUMP JUMPDEST PUSH1 0x2 DUP2 ADD SWAP1 POP PUSH2 0x47FE JUMP JUMPDEST POP POP JUMP JUMPDEST DUP2 DUP4 LT ISZERO PUSH2 0x4859 JUMPI PUSH2 0x4831 DUP3 PUSH2 0x479C JUMP JUMPDEST PUSH2 0x483A DUP5 PUSH2 0x479C JUMP JUMPDEST PUSH2 0x4843 DUP4 PUSH2 0x47B3 JUMP JUMPDEST DUP2 DUP2 ADD DUP4 DUP3 ADD PUSH2 0x4853 DUP2 DUP4 PUSH2 0x47FD JUMP JUMPDEST POP POP POP POP POP JUMPDEST POP POP POP JUMP JUMPDEST PUSH9 0x10000000000000000 DUP3 GT ISZERO PUSH2 0x4878 JUMPI PUSH2 0x4877 PUSH2 0x38D4 JUMP JUMPDEST JUMPDEST PUSH2 0x4881 DUP2 PUSH2 0x4791 JUMP JUMPDEST DUP3 DUP3 SSTORE PUSH2 0x488F DUP4 DUP3 DUP5 PUSH2 0x4820 JUMP JUMPDEST POP POP POP JUMP JUMPDEST PUSH1 0x0 DUP3 SWAP1 POP SWAP3 SWAP2 POP POP JUMP JUMPDEST PUSH1 0x0 DUP2 CALLDATALOAD PUSH2 0x48AC DUP2 PUSH2 0x38A3 JUMP JUMPDEST DUP1 SWAP2 POP POP SWAP2 SWAP1 POP JUMP JUMPDEST PUSH1 0x0 PUSH20 0xFFFFFFFFFFFFFFFFFFFFFFFFFFFFFFFFFFFFFFFF PUSH2 0x48D5 DUP5 PUSH2 0x4571 JUMP JUMPDEST SWAP4 POP DUP1 NOT DUP4 AND SWAP3 POP DUP1 DUP5 AND DUP4 OR SWAP2 POP POP SWAP3 SWAP2 POP POP JUMP JUMPDEST PUSH1 0x0 PUSH2 0x4906 PUSH2 0x4901 PUSH2 0x48FC DUP5 PUSH2 0x2D60 JUMP JUMPDEST PUSH2 0x3F1C JUMP JUMPDEST PUSH2 0x2D60 JUMP JUMPDEST SWAP1 POP SWAP2 SWAP1 POP JUMP JUMPDEST PUSH1 0x0 PUSH2 0x4918 DUP3 PUSH2 0x48EB JUMP JUMPDEST SWAP1 POP SWAP2 SWAP1 POP JUMP JUMPDEST PUSH1 0x0 PUSH2 0x492A DUP3 PUSH2 0x490D JUMP JUMPDEST SWAP1 POP SWAP2 SWAP1 POP JUMP JUMPDEST PUSH1 0x0 DUP2 SWAP1 POP SWAP2 SWAP1 POP JUMP JUMPDEST PUSH2 0x4944 DUP3 PUSH2 0x491F JUMP JUMPDEST PUSH2 0x4957 PUSH2 0x4950 DUP3 PUSH2 0x4931 JUMP JUMPDEST DUP4 SLOAD PUSH2 0x48B5 JUMP JUMPDEST DUP3 SSTORE POP POP POP JUMP JUMPDEST PUSH1 0x0 DUP2 ADD PUSH1 0x0 DUP4 ADD PUSH2 0x4970 DUP2 DUP6 PUSH2 0x3DCA JUMP JUMPDEST PUSH2 0x497B DUP2 DUP4 DUP7 PUSH2 0x4114 JUMP JUMPDEST POP POP POP POP PUSH1 0x1 DUP2 ADD PUSH1 0x20 DUP4 ADD DUP1 PUSH2 0x4991 DUP2 PUSH2 0x489F JUMP JUMPDEST SWAP1 POP PUSH2 0x499D DUP2 DUP5 PUSH2 0x493B JUMP JUMPDEST POP POP POP POP POP JUMP JUMPDEST PUSH2 0x49AE DUP3 DUP3 PUSH2 0x495E JUMP JUMPDEST POP POP JUMP JUMPDEST PUSH2 0x49BC DUP4 DUP4 PUSH2 0x4894 JUMP JUMPDEST PUSH2 0x49C6 DUP2 DUP4 PUSH2 0x485E JUMP JUMPDEST PUSH2 0x49CF DUP4 PUSH2 0x475F JUMP JUMPDEST PUSH2 0x49D8 DUP4 PUSH2 0x47B3 JUMP JUMPDEST PUSH1 0x0 JUMPDEST DUP4 DUP2 LT ISZERO PUSH2 0x4A0F JUMPI PUSH2 0x49ED DUP4 DUP8 PUSH2 0x4769 JUMP JUMPDEST PUSH2 0x49F7 DUP2 DUP5 PUSH2 0x49A4 JUMP JUMPDEST PUSH1 0x20 DUP5 ADD SWAP4 POP PUSH1 0x2 DUP4 ADD SWAP3 POP POP PUSH1 0x1 DUP2 ADD SWAP1 POP PUSH2 0x49DB JUMP JUMPDEST POP POP POP POP POP POP POP JUMP JUMPDEST PUSH2 0x4A23 DUP4 DUP4 DUP4 PUSH2 0x49B2 JUMP JUMPDEST POP POP POP JUMP JUMPDEST PUSH1 0x0 DUP2 ADD PUSH1 0x0 DUP4 ADD DUP1 PUSH2 0x4A3A DUP2 PUSH2 0x46A7 JUMP JUMPDEST SWAP1 POP PUSH2 0x4A46 DUP2 DUP5 PUSH2 0x46D9 JUMP JUMPDEST POP POP POP PUSH1 0x1 DUP2 ADD PUSH1 0x20 DUP4 ADD PUSH2 0x4A5B DUP2 DUP6 PUSH2 0x46FC JUMP JUMPDEST PUSH2 0x4A66 DUP2 DUP4 DUP7 PUSH2 0x4A18 JUMP JUMPDEST POP POP POP POP PUSH1 0x2 DUP2 ADD PUSH1 0x40 DUP4 ADD PUSH2 0x4A7C DUP2 DUP6 PUSH2 0x3DCA JUMP JUMPDEST PUSH2 0x4A87 DUP2 DUP4 DUP7 PUSH2 0x4114 JUMP JUMPDEST POP POP POP POP POP POP JUMP JUMPDEST PUSH2 0x4A99 DUP3 DUP3 PUSH2 0x4A28 JUMP JUMPDEST POP POP JUMP JUMPDEST PUSH32 0x4E487B7100000000000000000000000000000000000000000000000000000000 PUSH1 0x0 MSTORE PUSH1 0x32 PUSH1 0x4 MSTORE PUSH1 0x24 PUSH1 0x0 REVERT JUMPDEST PUSH32 0x436F6D6D756E6974792069732064697361626C65640000000000000000000000 PUSH1 0x0 DUP3 ADD MSTORE POP JUMP JUMPDEST PUSH1 0x0 PUSH2 0x4B02 PUSH1 0x15 DUP4 PUSH2 0x3CB3 JUMP JUMPDEST SWAP2 POP PUSH2 0x4B0D DUP3 PUSH2 0x4ACC JUMP JUMPDEST PUSH1 0x20 DUP3 ADD SWAP1 POP SWAP2 SWAP1 POP JUMP JUMPDEST PUSH1 0x0 PUSH1 0x20 DUP3 ADD SWAP1 POP DUP2 DUP2 SUB PUSH1 0x0 DUP4 ADD MSTORE PUSH2 0x4B31 DUP2 PUSH2 0x4AF5 JUMP JUMPDEST SWAP1 POP SWAP2 SWAP1 POP JUMP JUMPDEST PUSH32 0x496E73756666696369656E742066756E647320666F722074686973206F706572 PUSH1 0x0 DUP3 ADD MSTORE PUSH32 0x6174696F6E000000000000000000000000000000000000000000000000000000 PUSH1 0x20 DUP3 ADD MSTORE POP JUMP JUMPDEST PUSH1 0x0 PUSH2 0x4B94 PUSH1 0x25 DUP4 PUSH2 0x3CB3 JUMP JUMPDEST SWAP2 POP PUSH2 0x4B9F DUP3 PUSH2 0x4B38 JUMP JUMPDEST PUSH1 0x40 DUP3 ADD SWAP1 POP SWAP2 SWAP1 POP JUMP JUMPDEST PUSH1 0x0 PUSH1 0x20 DUP3 ADD SWAP1 POP DUP2 DUP2 SUB PUSH1 0x0 DUP4 ADD MSTORE PUSH2 0x4BC3 DUP2 PUSH2 0x4B87 JUMP JUMPDEST SWAP1 POP SWAP2 SWAP1 POP JUMP JUMPDEST PUSH1 0x0 PUSH2 0x4BD5 DUP3 PUSH2 0x2DA1 JUMP JUMPDEST SWAP2 POP PUSH2 0x4BE0 DUP4 PUSH2 0x2DA1 JUMP JUMPDEST SWAP3 POP DUP3 DUP3 SUB SWAP1 POP DUP2 DUP2 GT ISZERO PUSH2 0x4BF8 JUMPI PUSH2 0x4BF7 PUSH2 0x419C JUMP JUMPDEST JUMPDEST SWAP3 SWAP2 POP POP JUMP JUMPDEST PUSH1 0x0 PUSH8 0xFFFFFFFFFFFFFFFF DUP3 GT ISZERO PUSH2 0x4C19 JUMPI PUSH2 0x4C18 PUSH2 0x38D4 JUMP JUMPDEST JUMPDEST PUSH1 0x20 DUP3 MUL SWAP1 POP PUSH1 0x20 DUP2 ADD SWAP1 POP SWAP2 SWAP1 POP JUMP JUMPDEST PUSH1 0x0 PUSH8 0xFFFFFFFFFFFFFFFF DUP3 GT ISZERO PUSH2 0x4C45 JUMPI PUSH2 0x4C44 PUSH2 0x38D4 JUMP JUMPDEST JUMPDEST PUSH2 0x4C4E DUP3 PUSH2 0x30CB JUMP JUMPDEST SWAP1 POP PUSH1 0x20 DUP2 ADD SWAP1 POP SWAP2 SWAP1 POP JUMP JUMPDEST PUSH1 0x0 PUSH2 0x4C6E PUSH2 0x4C69 DUP5 PUSH2 0x4C2A JUMP JUMPDEST PUSH2 0x3934 JUMP JUMPDEST SWAP1 POP DUP3 DUP2 MSTORE PUSH1 0x20 DUP2 ADD DUP5 DUP5 DUP5 ADD GT ISZERO PUSH2 0x4C8A JUMPI PUSH2 0x4C89 PUSH2 0x38CF JUMP JUMPDEST JUMPDEST PUSH2 0x4C95 DUP5 DUP3 DUP6 PUSH2 0x3980 JUMP JUMPDEST POP SWAP4 SWAP3 POP POP POP JUMP JUMPDEST PUSH1 0x0 DUP3 PUSH1 0x1F DUP4 ADD SLT PUSH2 0x4CB2 JUMPI PUSH2 0x4CB1 PUSH2 0x2E66 JUMP JUMPDEST JUMPDEST DUP2 CALLDATALOAD PUSH2 0x4CC2 DUP5 DUP3 PUSH1 0x20 DUP7 ADD PUSH2 0x4C5B JUMP JUMPDEST SWAP2 POP POP SWAP3 SWAP2 POP POP JUMP JUMPDEST PUSH1 0x0 PUSH2 0x4CDE PUSH2 0x4CD9 DUP5 PUSH2 0x4BFE JUMP JUMPDEST PUSH2 0x3934 JUMP JUMPDEST SWAP1 POP DUP1 DUP4 DUP3 MSTORE PUSH1 0x20 DUP3 ADD SWAP1 POP PUSH1 0x20 DUP5 MUL DUP4 ADD DUP6 DUP2 GT ISZERO PUSH2 0x4D01 JUMPI PUSH2 0x4D00 PUSH2 0x2E70 JUMP JUMPDEST JUMPDEST DUP4 JUMPDEST DUP2 DUP2 LT ISZERO PUSH2 0x4D48 JUMPI DUP1 CALLDATALOAD PUSH8 0xFFFFFFFFFFFFFFFF DUP2 GT ISZERO PUSH2 0x4D26 JUMPI PUSH2 0x4D25 PUSH2 0x2E66 JUMP JUMPDEST JUMPDEST DUP1 DUP7 ADD PUSH2 0x4D33 DUP10 DUP3 PUSH2 0x4C9D JUMP JUMPDEST DUP6 MSTORE PUSH1 0x20 DUP6 ADD SWAP5 POP POP POP PUSH1 0x20 DUP2 ADD SWAP1 POP PUSH2 0x4D03 JUMP JUMPDEST POP POP POP SWAP4 SWAP3 POP POP POP JUMP JUMPDEST PUSH1 0x0 PUSH2 0x4D5F CALLDATASIZE DUP5 DUP5 PUSH2 0x4CCB JUMP JUMPDEST SWAP1 POP SWAP3 SWAP2 POP POP JUMP JUMPDEST PUSH1 0x0 DUP1 DUP4 CALLDATALOAD PUSH1 0x1 PUSH1 0x20 SUB DUP5 CALLDATASIZE SUB SUB DUP2 SLT PUSH2 0x4D84 JUMPI PUSH2 0x4D83 PUSH2 0x3DBB JUMP JUMPDEST JUMPDEST DUP1 DUP5 ADD SWAP3 POP DUP3 CALLDATALOAD SWAP2 POP PUSH8 0xFFFFFFFFFFFFFFFF DUP3 GT ISZERO PUSH2 0x4DA6 JUMPI PUSH2 0x4DA5 PUSH2 0x3DC0 JUMP JUMPDEST JUMPDEST PUSH1 0x20 DUP4 ADD SWAP3 POP PUSH1 0x20 DUP3 MUL CALLDATASIZE SUB DUP4 SGT ISZERO PUSH2 0x4DC2 JUMPI PUSH2 0x4DC1 PUSH2 0x3DC5 JUMP JUMPDEST JUMPDEST POP SWAP3 POP SWAP3 SWAP1 POP JUMP JUMPDEST PUSH1 0x0 PUSH8 0xFFFFFFFFFFFFFFFF DUP3 GT ISZERO PUSH2 0x4DE5 JUMPI PUSH2 0x4DE4 PUSH2 0x38D4 JUMP JUMPDEST JUMPDEST PUSH1 0x20 DUP3 MUL SWAP1 POP PUSH1 0x20 DUP2 ADD SWAP1 POP SWAP2 SWAP1 POP JUMP JUMPDEST PUSH1 0x0 PUSH8 0xFFFFFFFFFFFFFFFF DUP3 GT ISZERO PUSH2 0x4E11 JUMPI PUSH2 0x4E10 PUSH2 0x38D4 JUMP JUMPDEST JUMPDEST PUSH1 0x20 DUP3 MUL SWAP1 POP PUSH1 0x20 DUP2 ADD SWAP1 POP SWAP2 SWAP1 POP JUMP JUMPDEST PUSH1 0x0 PUSH2 0x4E35 PUSH2 0x4E30 DUP5 PUSH2 0x4DF6 JUMP JUMPDEST PUSH2 0x3934 JUMP JUMPDEST SWAP1 POP DUP1 DUP4 DUP3 MSTORE PUSH1 0x20 DUP3 ADD SWAP1 POP PUSH1 0x20 DUP5 MUL DUP4 ADD DUP6 DUP2 GT ISZERO PUSH2 0x4E58 JUMPI PUSH2 0x4E57 PUSH2 0x2E70 JUMP JUMPDEST JUMPDEST DUP4 JUMPDEST DUP2 DUP2 LT ISZERO PUSH2 0x4E81 JUMPI DUP1 PUSH2 0x4E6D DUP9 DUP3 PUSH2 0x2E0E JUMP JUMPDEST DUP5 MSTORE PUSH1 0x20 DUP5 ADD SWAP4 POP POP PUSH1 0x20 DUP2 ADD SWAP1 POP PUSH2 0x4E5A JUMP JUMPDEST POP POP POP SWAP4 SWAP3 POP POP POP JUMP JUMPDEST PUSH1 0x0 DUP3 PUSH1 0x1F DUP4 ADD SLT PUSH2 0x4EA0 JUMPI PUSH2 0x4E9F PUSH2 0x2E66 JUMP JUMPDEST JUMPDEST DUP2 CALLDATALOAD PUSH2 0x4EB0 DUP5 DUP3 PUSH1 0x20 DUP7 ADD PUSH2 0x4E22 JUMP JUMPDEST SWAP2 POP POP SWAP3 SWAP2 POP POP JUMP JUMPDEST PUSH1 0x0 PUSH2 0x4ECC PUSH2 0x4EC7 DUP5 PUSH2 0x4DCA JUMP JUMPDEST PUSH2 0x3934 JUMP JUMPDEST SWAP1 POP DUP1 DUP4 DUP3 MSTORE PUSH1 0x20 DUP3 ADD SWAP1 POP PUSH1 0x20 DUP5 MUL DUP4 ADD DUP6 DUP2 GT ISZERO PUSH2 0x4EEF JUMPI PUSH2 0x4EEE PUSH2 0x2E70 JUMP JUMPDEST JUMPDEST DUP4 JUMPDEST DUP2 DUP2 LT ISZERO PUSH2 0x4F36 JUMPI DUP1 CALLDATALOAD PUSH8 0xFFFFFFFFFFFFFFFF DUP2 GT ISZERO PUSH2 0x4F14 JUMPI PUSH2 0x4F13 PUSH2 0x2E66 JUMP JUMPDEST JUMPDEST DUP1 DUP7 ADD PUSH2 0x4F21 DUP10 DUP3 PUSH2 0x4E8B JUMP JUMPDEST DUP6 MSTORE PUSH1 0x20 DUP6 ADD SWAP5 POP POP POP PUSH1 0x20 DUP2 ADD SWAP1 POP PUSH2 0x4EF1 JUMP JUMPDEST POP POP POP SWAP4 SWAP3 POP POP POP JUMP JUMPDEST PUSH1 0x0 PUSH2 0x4F4D CALLDATASIZE DUP5 DUP5 PUSH2 0x4EB9 JUMP JUMPDEST SWAP1 POP SWAP3 SWAP2 POP POP JUMP JUMPDEST PUSH1 0x0 DUP1 DUP4 CALLDATALOAD PUSH1 0x1 PUSH1 0x20 SUB DUP5 CALLDATASIZE SUB SUB DUP2 SLT PUSH2 0x4F72 JUMPI PUSH2 0x4F71 PUSH2 0x3DBB JUMP JUMPDEST JUMPDEST DUP1 DUP5 ADD SWAP3 POP DUP3 CALLDATALOAD SWAP2 POP PUSH8 0xFFFFFFFFFFFFFFFF DUP3 GT ISZERO PUSH2 0x4F94 JUMPI PUSH2 0x4F93 PUSH2 0x3DC0 JUMP JUMPDEST JUMPDEST PUSH1 0x20 DUP4 ADD SWAP3 POP PUSH1 0x20 DUP3 MUL CALLDATASIZE SUB DUP4 SGT ISZERO PUSH2 0x4FB0 JUMPI PUSH2 0x4FAF PUSH2 0x3DC5 JUMP JUMPDEST JUMPDEST POP SWAP3 POP SWAP3 SWAP1 POP JUMP JUMPDEST PUSH2 0x4FC1 DUP3 PUSH2 0x3085 JUMP JUMPDEST PUSH8 0xFFFFFFFFFFFFFFFF DUP2 GT ISZERO PUSH2 0x4FDA JUMPI PUSH2 0x4FD9 PUSH2 0x38D4 JUMP JUMPDEST JUMPDEST PUSH2 0x4FE4 DUP3 SLOAD PUSH2 0x3E67 JUMP JUMPDEST PUSH2 0x4FEF DUP3 DUP3 DUP6 PUSH2 0x3FB7 JUMP JUMPDEST PUSH1 0x0 PUSH1 0x20 SWAP1 POP PUSH1 0x1F DUP4 GT PUSH1 0x1 DUP2 EQ PUSH2 0x5022 JUMPI PUSH1 0x0 DUP5 ISZERO PUSH2 0x5010 JUMPI DUP3 DUP8 ADD MLOAD SWAP1 POP JUMPDEST PUSH2 0x501A DUP6 DUP3 PUSH2 0x4028 JUMP JUMPDEST DUP7 SSTORE POP PUSH2 0x5082 JUMP JUMPDEST PUSH1 0x1F NOT DUP5 AND PUSH2 0x5030 DUP7 PUSH2 0x3E98 JUMP JUMPDEST PUSH1 0x0 JUMPDEST DUP3 DUP2 LT ISZERO PUSH2 0x5058 JUMPI DUP5 DUP10 ADD MLOAD DUP3 SSTORE PUSH1 0x1 DUP3 ADD SWAP2 POP PUSH1 0x20 DUP6 ADD SWAP5 POP PUSH1 0x20 DUP2 ADD SWAP1 POP PUSH2 0x5033 JUMP JUMPDEST DUP7 DUP4 LT ISZERO PUSH2 0x5075 JUMPI DUP5 DUP10 ADD MLOAD PUSH2 0x5071 PUSH1 0x1F DUP10 AND DUP3 PUSH2 0x400A JUMP JUMPDEST DUP4 SSTORE POP JUMPDEST PUSH1 0x1 PUSH1 0x2 DUP9 MUL ADD DUP9 SSTORE POP POP POP JUMPDEST POP POP POP POP POP POP JUMP JUMPDEST PUSH1 0x0 PUSH1 0x40 DUP3 ADD SWAP1 POP PUSH2 0x509F PUSH1 0x0 DUP4 ADD DUP6 PUSH2 0x2DAB JUMP JUMPDEST PUSH2 0x50AC PUSH1 0x20 DUP4 ADD DUP5 PUSH2 0x3A5B JUMP JUMPDEST SWAP4 SWAP3 POP POP POP JUMP JUMPDEST PUSH32 0x4E6F2066756E647320617661696C61626C650000000000000000000000000000 PUSH1 0x0 DUP3 ADD MSTORE POP JUMP JUMPDEST PUSH1 0x0 PUSH2 0x50E9 PUSH1 0x12 DUP4 PUSH2 0x3CB3 JUMP JUMPDEST SWAP2 POP PUSH2 0x50F4 DUP3 PUSH2 0x50B3 JUMP JUMPDEST PUSH1 0x20 DUP3 ADD SWAP1 POP SWAP2 SWAP1 POP JUMP JUMPDEST PUSH1 0x0 PUSH1 0x20 DUP3 ADD SWAP1 POP DUP2 DUP2 SUB PUSH1 0x0 DUP4 ADD MSTORE PUSH2 0x5118 DUP2 PUSH2 0x50DC JUMP JUMPDEST SWAP1 POP SWAP2 SWAP1 POP JUMP JUMPDEST PUSH1 0x0 DUP2 SWAP1 POP SWAP3 SWAP2 POP POP JUMP JUMPDEST POP JUMP JUMPDEST PUSH1 0x0 PUSH2 0x513A PUSH1 0x0 DUP4 PUSH2 0x511F JUMP JUMPDEST SWAP2 POP PUSH2 0x5145 DUP3 PUSH2 0x512A JUMP JUMPDEST PUSH1 0x0 DUP3 ADD SWAP1 POP SWAP2 SWAP1 POP JUMP JUMPDEST PUSH1 0x0 PUSH2 0x515B DUP3 PUSH2 0x512D JUMP JUMPDEST SWAP2 POP DUP2 SWAP1 POP SWAP2 SWAP1 POP JUMP JUMPDEST PUSH32 0x4661696C656420746F2073656E64204574686572000000000000000000000000 PUSH1 0x0 DUP3 ADD MSTORE POP JUMP JUMPDEST PUSH1 0x0 PUSH2 0x519B PUSH1 0x14 DUP4 PUSH2 0x3CB3 JUMP JUMPDEST SWAP2 POP PUSH2 0x51A6 DUP3 PUSH2 0x5165 JUMP JUMPDEST PUSH1 0x20 DUP3 ADD SWAP1 POP SWAP2 SWAP1 POP JUMP JUMPDEST PUSH1 0x0 PUSH1 0x20 DUP3 ADD SWAP1 POP DUP2 DUP2 SUB PUSH1 0x0 DUP4 ADD MSTORE PUSH2 0x51CA DUP2 PUSH2 0x518E JUMP JUMPDEST SWAP1 POP SWAP2 SWAP1 POP JUMP JUMPDEST PUSH1 0x0 PUSH2 0x51DC DUP3 PUSH2 0x490D JUMP JUMPDEST SWAP1 POP SWAP2 SWAP1 POP JUMP JUMPDEST PUSH2 0x51EC DUP2 PUSH2 0x51D1 JUMP JUMPDEST DUP3 MSTORE POP POP JUMP JUMPDEST PUSH1 0x0 PUSH1 0x40 DUP3 ADD SWAP1 POP PUSH2 0x5207 PUSH1 0x0 DUP4 ADD DUP6 PUSH2 0x2DAB JUMP JUMPDEST PUSH2 0x5214 PUSH1 0x20 DUP4 ADD DUP5 PUSH2 0x51E3 JUMP JUMPDEST SWAP4 SWAP3 POP POP POP JUMP JUMPDEST PUSH1 0x0 DUP2 CALLDATALOAD SWAP1 POP PUSH2 0x522A DUP2 PUSH2 0x4697 JUMP JUMPDEST SWAP3 SWAP2 POP POP JUMP JUMPDEST PUSH1 0x0 PUSH2 0x523F PUSH1 0x20 DUP5 ADD DUP5 PUSH2 0x521B JUMP JUMPDEST SWAP1 POP SWAP3 SWAP2 POP POP JUMP JUMPDEST PUSH1 0x0 DUP1 REVERT JUMPDEST PUSH1 0x0 DUP1 REVERT JUMPDEST PUSH1 0x0 DUP1 REVERT JUMPDEST PUSH1 0x0 DUP1 DUP4 CALLDATALOAD PUSH1 0x1 PUSH1 0x20 SUB DUP5 CALLDATASIZE SUB SUB DUP2 SLT PUSH2 0x5273 JUMPI PUSH2 0x5272 PUSH2 0x5251 JUMP JUMPDEST JUMPDEST DUP4 DUP2 ADD SWAP3 POP DUP3 CALLDATALOAD SWAP2 POP PUSH1 0x20 DUP4 ADD SWAP3 POP PUSH8 0xFFFFFFFFFFFFFFFF DUP3 GT ISZERO PUSH2 0x529B JUMPI PUSH2 0x529A PUSH2 0x5247 JUMP JUMPDEST JUMPDEST PUSH1 0x20 DUP3 MUL CALLDATASIZE SUB DUP4 SGT ISZERO PUSH2 0x52B1 JUMPI PUSH2 0x52B0 PUSH2 0x524C JUMP JUMPDEST JUMPDEST POP SWAP3 POP SWAP3 SWAP1 POP JUMP JUMPDEST PUSH1 0x0 DUP1 DUP4 CALLDATALOAD PUSH1 0x1 PUSH1 0x20 SUB DUP5 CALLDATASIZE SUB SUB DUP2 SLT PUSH2 0x52D6 JUMPI PUSH2 0x52D5 PUSH2 0x5251 JUMP JUMPDEST JUMPDEST DUP4 DUP2 ADD SWAP3 POP DUP3 CALLDATALOAD SWAP2 POP PUSH1 0x20 DUP4 ADD SWAP3 POP PUSH8 0xFFFFFFFFFFFFFFFF DUP3 GT ISZERO PUSH2 0x52FE JUMPI PUSH2 0x52FD PUSH2 0x5247 JUMP JUMPDEST JUMPDEST PUSH1 0x1 DUP3 MUL CALLDATASIZE SUB DUP4 SGT ISZERO PUSH2 0x5314 JUMPI PUSH2 0x5313 PUSH2 0x524C JUMP JUMPDEST JUMPDEST POP SWAP3 POP SWAP3 SWAP1 POP JUMP JUMPDEST PUSH1 0x0 PUSH2 0x5328 DUP4 DUP6 PUSH2 0x3090 JUMP JUMPDEST SWAP4 POP PUSH2 0x5335 DUP4 DUP6 DUP5 PUSH2 0x3980 JUMP JUMPDEST PUSH2 0x533E DUP4 PUSH2 0x30CB JUMP JUMPDEST DUP5 ADD SWAP1 POP SWAP4 SWAP3 POP POP POP JUMP JUMPDEST PUSH1 0x0 PUSH2 0x5358 PUSH1 0x20 DUP5 ADD DUP5 PUSH2 0x38BA JUMP JUMPDEST SWAP1 POP SWAP3 SWAP2 POP POP JUMP JUMPDEST PUSH1 0x0 PUSH1 0x40 DUP4 ADD PUSH2 0x5373 PUSH1 0x0 DUP5 ADD DUP5 PUSH2 0x52B9 JUMP JUMPDEST DUP6 DUP4 SUB PUSH1 0x0 DUP8 ADD MSTORE PUSH2 0x5386 DUP4 DUP3 DUP5 PUSH2 0x531C JUMP JUMPDEST SWAP3 POP POP POP PUSH2 0x5397 PUSH1 0x20 DUP5 ADD DUP5 PUSH2 0x5349 JUMP JUMPDEST PUSH2 0x53A4 PUSH1 0x20 DUP7 ADD DUP3 PUSH2 0x35DA JUMP JUMPDEST POP DUP1 SWAP2 POP POP SWAP3 SWAP2 POP POP JUMP JUMPDEST PUSH1 0x0 PUSH2 0x53BB DUP4 DUP4 PUSH2 0x5360 JUMP JUMPDEST SWAP1 POP SWAP3 SWAP2 POP POP JUMP JUMPDEST PUSH1 0x0 DUP3 CALLDATALOAD PUSH1 0x1 PUSH1 0x40 SUB DUP4 CALLDATASIZE SUB SUB DUP2 SLT PUSH2 0x53DF JUMPI PUSH2 0x53DE PUSH2 0x5251 JUMP JUMPDEST JUMPDEST DUP3 DUP2 ADD SWAP2 POP POP SWAP3 SWAP2 POP POP JUMP JUMPDEST PUSH1 0x0 PUSH1 0x20 DUP3 ADD SWAP1 POP SWAP2 SWAP1 POP JUMP JUMPDEST PUSH1 0x0 PUSH2 0x5404 DUP4 DUP6 PUSH2 0x35B9 JUMP JUMPDEST SWAP4 POP DUP4 PUSH1 0x20 DUP5 MUL DUP6 ADD PUSH2 0x5416 DUP5 PUSH2 0x475F JUMP JUMPDEST DUP1 PUSH1 0x0 JUMPDEST DUP8 DUP2 LT ISZERO PUSH2 0x545A JUMPI DUP5 DUP5 SUB DUP10 MSTORE PUSH2 0x5431 DUP3 DUP5 PUSH2 0x53C3 JUMP JUMPDEST PUSH2 0x543B DUP6 DUP3 PUSH2 0x53AF JUMP JUMPDEST SWAP5 POP PUSH2 0x5446 DUP4 PUSH2 0x53EB JUMP JUMPDEST SWAP3 POP PUSH1 0x20 DUP11 ADD SWAP10 POP POP PUSH1 0x1 DUP2 ADD SWAP1 POP PUSH2 0x541A JUMP JUMPDEST POP DUP3 SWAP8 POP DUP8 SWAP5 POP POP POP POP POP SWAP4 SWAP3 POP POP POP JUMP JUMPDEST PUSH1 0x0 PUSH1 0x60 DUP4 ADD PUSH2 0x547F PUSH1 0x0 DUP5 ADD DUP5 PUSH2 0x5230 JUMP JUMPDEST PUSH2 0x548C PUSH1 0x0 DUP7 ADD DUP3 PUSH2 0x359F JUMP JUMPDEST POP PUSH2 0x549A PUSH1 0x20 DUP5 ADD DUP5 PUSH2 0x5256 JUMP JUMPDEST DUP6 DUP4 SUB PUSH1 0x20 DUP8 ADD MSTORE PUSH2 0x54AD DUP4 DUP3 DUP5 PUSH2 0x53F8 JUMP JUMPDEST SWAP3 POP POP POP PUSH2 0x54BE PUSH1 0x40 DUP5 ADD DUP5 PUSH2 0x52B9 JUMP JUMPDEST DUP6 DUP4 SUB PUSH1 0x40 DUP8 ADD MSTORE PUSH2 0x54D1 DUP4 DUP3 DUP5 PUSH2 0x531C JUMP JUMPDEST SWAP3 POP POP POP DUP1 SWAP2 POP POP SWAP3 SWAP2 POP POP JUMP JUMPDEST PUSH1 0x0 PUSH1 0x40 DUP3 ADD SWAP1 POP PUSH2 0x54F4 PUSH1 0x0 DUP4 ADD DUP6 PUSH2 0x2DAB JUMP JUMPDEST DUP2 DUP2 SUB PUSH1 0x20 DUP4 ADD MSTORE PUSH2 0x5506 DUP2 DUP5 PUSH2 0x546C JUMP JUMPDEST SWAP1 POP SWAP4 SWAP3 POP POP POP JUMP JUMPDEST PUSH1 0x0 PUSH1 0x40 DUP3 ADD SWAP1 POP PUSH2 0x5524 PUSH1 0x0 DUP4 ADD DUP6 PUSH2 0x2DAB JUMP JUMPDEST PUSH2 0x5531 PUSH1 0x20 DUP4 ADD DUP5 PUSH2 0x2DAB JUMP JUMPDEST SWAP4 SWAP3 POP POP POP JUMP JUMPDEST PUSH1 0x0 PUSH1 0x60 DUP3 ADD SWAP1 POP PUSH2 0x554D PUSH1 0x0 DUP4 ADD DUP7 PUSH2 0x2D92 JUMP JUMPDEST PUSH2 0x555A PUSH1 0x20 DUP4 ADD DUP6 PUSH2 0x2DAB JUMP JUMPDEST PUSH2 0x5567 PUSH1 0x40 DUP4 ADD DUP5 PUSH2 0x2DAB JUMP JUMPDEST SWAP5 SWAP4 POP POP POP POP JUMP JUMPDEST PUSH1 0x0 PUSH2 0x557A DUP3 PUSH2 0x2DA1 JUMP JUMPDEST SWAP2 POP PUSH32 0xFFFFFFFFFFFFFFFFFFFFFFFFFFFFFFFFFFFFFFFFFFFFFFFFFFFFFFFFFFFFFFFF DUP3 SUB PUSH2 0x55AC JUMPI PUSH2 0x55AB PUSH2 0x419C JUMP JUMPDEST JUMPDEST PUSH1 0x1 DUP3 ADD SWAP1 POP SWAP2 SWAP1 POP JUMP JUMPDEST PUSH1 0x0 PUSH1 0x40 DUP3 ADD SWAP1 POP PUSH2 0x55CC PUSH1 0x0 DUP4 ADD DUP6 PUSH2 0x2DAB JUMP JUMPDEST PUSH2 0x55D9 PUSH1 0x20 DUP4 ADD DUP5 PUSH2 0x2D92 JUMP JUMPDEST SWAP4 SWAP3 POP POP POP JUMP JUMPDEST PUSH2 0x55E9 DUP2 PUSH2 0x373A JUMP JUMPDEST DUP3 MSTORE POP POP JUMP JUMPDEST PUSH1 0x0 PUSH1 0x40 DUP3 ADD SWAP1 POP PUSH2 0x5604 PUSH1 0x0 DUP4 ADD DUP6 PUSH2 0x2DAB JUMP JUMPDEST PUSH2 0x5611 PUSH1 0x20 DUP4 ADD DUP5 PUSH2 0x55E0 JUMP JUMPDEST SWAP4 SWAP3 POP POP POP JUMP JUMPDEST PUSH1 0x0 DUP2 SWAP1 POP SWAP2 SWAP1 POP JUMP JUMPDEST PUSH1 0x0 PUSH8 0xFFFFFFFFFFFFFFFF DUP3 AND SWAP1 POP SWAP2 SWAP1 POP JUMP JUMPDEST PUSH1 0x0 PUSH2 0x5651 PUSH2 0x564C PUSH2 0x5647 DUP5 PUSH2 0x5618 JUMP JUMPDEST PUSH2 0x3F1C JUMP JUMPDEST PUSH2 0x5622 JUMP JUMPDEST SWAP1 POP SWAP2 SWAP1 POP JUMP JUMPDEST PUSH2 0x5661 DUP2 PUSH2 0x5636 JUMP JUMPDEST DUP3 MSTORE POP POP JUMP JUMPDEST PUSH1 0x0 PUSH1 0x20 DUP3 ADD SWAP1 POP PUSH2 0x567C PUSH1 0x0 DUP4 ADD DUP5 PUSH2 0x5658 JUMP JUMPDEST SWAP3 SWAP2 POP POP JUMP JUMPDEST PUSH1 0x0 DUP1 DUP4 CALLDATALOAD PUSH1 0x1 PUSH1 0x20 SUB DUP5 CALLDATASIZE SUB SUB DUP2 SLT PUSH2 0x569F JUMPI PUSH2 0x569E PUSH2 0x5251 JUMP JUMPDEST JUMPDEST DUP4 DUP2 ADD SWAP3 POP DUP3 CALLDATALOAD SWAP2 POP PUSH1 0x20 DUP4 ADD SWAP3 POP PUSH8 0xFFFFFFFFFFFFFFFF DUP3 GT ISZERO PUSH2 0x56C7 JUMPI PUSH2 0x56C6 PUSH2 0x5247 JUMP JUMPDEST JUMPDEST PUSH1 0x20 DUP3 MUL CALLDATASIZE SUB DUP4 SGT ISZERO PUSH2 0x56DD JUMPI PUSH2 0x56DC PUSH2 0x524C JUMP JUMPDEST JUMPDEST POP SWAP3 POP SWAP3 SWAP1 POP JUMP JUMPDEST PUSH1 0x0 PUSH2 0x56F2 DUP5 DUP5 DUP5 PUSH2 0x531C JUMP JUMPDEST SWAP1 POP SWAP4 SWAP3 POP POP POP JUMP JUMPDEST PUSH1 0x0 PUSH1 0x20 DUP3 ADD SWAP1 POP SWAP2 SWAP1 POP JUMP JUMPDEST PUSH1 0x0 PUSH2 0x5714 DUP4 DUP6 PUSH2 0x3120 JUMP JUMPDEST SWAP4 POP DUP4 PUSH1 0x20 DUP5 MUL DUP6 ADD PUSH2 0x5726 DUP5 PUSH2 0x4187 JUMP JUMPDEST DUP1 PUSH1 0x0 JUMPDEST DUP8 DUP2 LT ISZERO PUSH2 0x576C JUMPI DUP5 DUP5 SUB DUP10 MSTORE PUSH2 0x5741 DUP3 DUP5 PUSH2 0x52B9 JUMP JUMPDEST PUSH2 0x574C DUP7 DUP3 DUP5 PUSH2 0x56E5 JUMP JUMPDEST SWAP6 POP PUSH2 0x5757 DUP5 PUSH2 0x56FB JUMP JUMPDEST SWAP4 POP PUSH1 0x20 DUP12 ADD SWAP11 POP POP POP PUSH1 0x1 DUP2 ADD SWAP1 POP PUSH2 0x572A JUMP JUMPDEST POP DUP3 SWAP8 POP DUP8 SWAP5 POP POP POP POP POP SWAP4 SWAP3 POP POP POP JUMP JUMPDEST PUSH1 0x0 PUSH2 0x578D PUSH1 0x20 DUP5 ADD DUP5 PUSH2 0x2F13 JUMP JUMPDEST SWAP1 POP SWAP3 SWAP2 POP POP JUMP JUMPDEST PUSH1 0x0 PUSH1 0xA0 DUP4 ADD PUSH2 0x57A8 PUSH1 0x0 DUP5 ADD DUP5 PUSH2 0x52B9 JUMP JUMPDEST DUP6 DUP4 SUB PUSH1 0x0 DUP8 ADD MSTORE PUSH2 0x57BB DUP4 DUP3 DUP5 PUSH2 0x531C JUMP JUMPDEST SWAP3 POP POP POP PUSH2 0x57CC PUSH1 0x20 DUP5 ADD DUP5 PUSH2 0x52B9 JUMP JUMPDEST DUP6 DUP4 SUB PUSH1 0x20 DUP8 ADD MSTORE PUSH2 0x57DF DUP4 DUP3 DUP5 PUSH2 0x531C JUMP JUMPDEST SWAP3 POP POP POP PUSH2 0x57F0 PUSH1 0x40 DUP5 ADD DUP5 PUSH2 0x52B9 JUMP JUMPDEST DUP6 DUP4 SUB PUSH1 0x40 DUP8 ADD MSTORE PUSH2 0x5803 DUP4 DUP3 DUP5 PUSH2 0x531C JUMP JUMPDEST SWAP3 POP POP POP PUSH2 0x5814 PUSH1 0x60 DUP5 ADD DUP5 PUSH2 0x5682 JUMP JUMPDEST DUP6 DUP4 SUB PUSH1 0x60 DUP8 ADD MSTORE PUSH2 0x5827 DUP4 DUP3 DUP5 PUSH2 0x5708 JUMP JUMPDEST SWAP3 POP POP POP PUSH2 0x5838 PUSH1 0x80 DUP5 ADD DUP5 PUSH2 0x577E JUMP JUMPDEST PUSH2 0x5845 PUSH1 0x80 DUP7 ADD DUP3 PUSH2 0x349D JUMP JUMPDEST POP DUP1 SWAP2 POP POP SWAP3 SWAP2 POP POP JUMP JUMPDEST PUSH1 0x0 PUSH1 0x40 DUP3 ADD SWAP1 POP PUSH2 0x5865 PUSH1 0x0 DUP4 ADD DUP6 PUSH2 0x2DAB JUMP JUMPDEST DUP2 DUP2 SUB PUSH1 0x20 DUP4 ADD MSTORE PUSH2 0x5877 DUP2 DUP5 PUSH2 0x5795 JUMP JUMPDEST SWAP1 POP SWAP4 SWAP3 POP POP POP JUMP JUMPDEST PUSH32 0x4E487B7100000000000000000000000000000000000000000000000000000000 PUSH1 0x0 MSTORE PUSH1 0x31 PUSH1 0x4 MSTORE PUSH1 0x24 PUSH1 0x0 REVERT JUMPDEST PUSH1 0x0 PUSH2 0x58BA DUP3 PUSH2 0x2DA1 JUMP JUMPDEST SWAP2 POP PUSH2 0x58C5 DUP4 PUSH2 0x2DA1 JUMP JUMPDEST SWAP3 POP DUP3 DUP3 ADD SWAP1 POP DUP1 DUP3 GT ISZERO PUSH2 0x58DD JUMPI PUSH2 0x58DC PUSH2 0x419C JUMP JUMPDEST JUMPDEST SWAP3 SWAP2 POP POP JUMP JUMPDEST PUSH2 0x58EC DUP2 PUSH2 0x2EF0 JUMP JUMPDEST DUP3 MSTORE POP POP JUMP JUMPDEST PUSH1 0x0 PUSH1 0x40 DUP3 ADD SWAP1 POP PUSH2 0x5907 PUSH1 0x0 DUP4 ADD DUP6 PUSH2 0x2DAB JUMP JUMPDEST PUSH2 0x5914 PUSH1 0x20 DUP4 ADD DUP5 PUSH2 0x58E3 JUMP JUMPDEST SWAP4 SWAP3 POP POP POP JUMP JUMPDEST PUSH1 0x0 DUP2 MLOAD SWAP1 POP PUSH2 0x592A DUP2 PUSH2 0x3019 JUMP JUMPDEST SWAP3 SWAP2 POP POP JUMP JUMPDEST PUSH1 0x0 PUSH1 0x20 DUP3 DUP5 SUB SLT ISZERO PUSH2 0x5946 JUMPI PUSH2 0x5945 PUSH2 0x2DED JUMP JUMPDEST JUMPDEST PUSH1 0x0 PUSH2 0x5954 DUP5 DUP3 DUP6 ADD PUSH2 0x591B JUMP JUMPDEST SWAP2 POP POP SWAP3 SWAP2 POP POP JUMP JUMPDEST PUSH1 0x0 DUP2 MLOAD SWAP1 POP SWAP2 SWAP1 POP JUMP JUMPDEST PUSH1 0x0 PUSH2 0x5973 DUP3 PUSH2 0x595D JUMP JUMPDEST PUSH2 0x597D DUP2 DUP6 PUSH2 0x511F JUMP JUMPDEST SWAP4 POP PUSH2 0x598D DUP2 DUP6 PUSH1 0x20 DUP7 ADD PUSH2 0x30A1 JUMP JUMPDEST DUP1 DUP5 ADD SWAP2 POP POP SWAP3 SWAP2 POP POP JUMP JUMPDEST PUSH1 0x0 PUSH2 0x59A5 DUP3 DUP5 PUSH2 0x5968 JUMP JUMPDEST SWAP2 POP DUP2 SWAP1 POP SWAP3 SWAP2 POP POP JUMP INVALID LOG2 PUSH5 0x6970667358 0x22 SLT KECCAK256 TLOAD 0xCA 0xBF 0xEA PUSH20 0xA0974FE7DC8307C2B7619501E2F6DA3A86A702D4 COINBASE BASEFEE 0xC8 SWAP3 MSTORE8 DUP9 0x4F PUSH5 0x736F6C6343 STOP ADDMOD XOR STOP CALLER "},"methodIdentifiers":{"UPGRADE_INTERFACE_VERSION()":"ad3cb1cc","addGuardian(uint256,uint256)":"c8b785f3","adminManageCommunity(uint256,(string,string,string,string[],bool),(uint8,(string,address)[],string),uint256[],uint8,bool)":"040cdd0a","adminSetCommunityPrice(uint256)":"873ceb2e","adminSetPricePerElection(uint256)":"3e512ebc","createCommunity((string,string,string,string[],bool),(uint8,(string,address)[],string),uint256[],uint8)":"6061a460","deposit(uint256)":"b6b55f25","getCommunity(uint256)":"370603f8","getCreateCommunityPrice()":"c5bf44ab","getNextCommunityId()":"9532c8c3","getPricePerElection()":"d62b5c59","getResult(uint256,bytes32)":"13e86265","initialize()":"8129fc1c","owner()":"8da5cb5b","proxiableUUID()":"52d1902d","removeGuardian(uint256,uint256)":"aba675b0","renounceOwnership()":"715018a6","setCensus(uint256,(uint8,(string,address)[],string))":"56c4e4ba","setCreateElectionPermission(uint256,uint8)":"7824c05c","setMetadata(uint256,(string,string,string,string[],bool))":"82e6d638","setNotifiableElections(uint256,bool)":"e6160fa3","setResult(uint256,bytes32,(string,string[],string,uint256[][],uint256,uint256,uint256[],bytes32,string))":"3c973f75","transferOwnership(address)":"f2fde38b","upgradeToAndCall(address,bytes)":"4f1ef286","withdraw()":"3ccfd60b"}}}}}