{"src/CommunityHub.sol":{"CommunityHub":{"abi":[{"inputs":[],"stateMutability":"nonpayable","type":"constructor"},{"inputs":[{"internalType":"uint256","name":"expected","type":"uint256"},{"internalType":"uint256","name":"actual","type":"uint256"}],"name":"AmountMismatch","type":"error"},{"inputs":[{"internalType":"uint256","name":"guardian","type":"uint256"}],"name":"GuardianNotFound","type":"error"},{"inputs":[{"internalType":"address","name":"owner","type":"address"}],"name":"OwnableInvalidOwner","type":"error"},{"inputs":[{"internalType":"address","name":"account","type":"address"}],"name":"OwnableUnauthorizedAccount","type":"error"},{"inputs":[],"name":"ZeroAmount","type":"error"},{"anonymous":false,"inputs":[{"indexed":false,"internalType":"uint256","name":"communityId","type":"uint256"}],"name":"AdminCommunityManaged","type":"event"},{"anonymous":false,"inputs":[{"indexed":false,"internalType":"uint256","name":"communityId","type":"uint256"},{"components":[{"internalType":"enum ICommunityHub.CensusType","name":"censusType","type":"uint8"},{"components":[{"internalType":"string","name":"blockchain","type":"string"},{"internalType":"address","name":"contractAddress","type":"address"}],"internalType":"struct ICommunityHub.Token[]","name":"tokens","type":"tuple[]"}],"indexed":false,"internalType":"struct ICommunityHub.Census","name":"census","type":"tuple"}],"name":"CensusSet","type":"event"},{"anonymous":false,"inputs":[{"indexed":false,"internalType":"uint256","name":"communityId","type":"uint256"},{"indexed":false,"internalType":"address","name":"creator","type":"address"}],"name":"CommunityCreated","type":"event"},{"anonymous":false,"inputs":[{"indexed":false,"internalType":"uint256","name":"price","type":"uint256"}],"name":"CreateCommunityPriceSet","type":"event"},{"anonymous":false,"inputs":[{"indexed":false,"internalType":"uint256","name":"communityId","type":"uint256"},{"indexed":false,"internalType":"enum ICommunityHub.CreateElectionPermission","name":"createElectionPermission","type":"uint8"}],"name":"CreateElectionPermissionSet","type":"event"},{"anonymous":false,"inputs":[{"indexed":false,"internalType":"address","name":"electionResultsContract","type":"address"}],"name":"DefaultElectionResultsContractSet","type":"event"},{"anonymous":false,"inputs":[{"indexed":false,"internalType":"address","name":"sender","type":"address"},{"indexed":false,"internalType":"uint256","name":"amount","type":"uint256"}],"name":"Deposit","type":"event"},{"anonymous":false,"inputs":[{"indexed":false,"internalType":"uint256","name":"communityId","type":"uint256"},{"indexed":false,"internalType":"address","name":"electionResultsContract","type":"address"}],"name":"ElectionResultsContractSet","type":"event"},{"anonymous":false,"inputs":[{"indexed":false,"internalType":"uint256","name":"communityId","type":"uint256"},{"indexed":false,"internalType":"uint256","name":"guardian","type":"uint256"}],"name":"GuardianAdded","type":"event"},{"anonymous":false,"inputs":[{"indexed":false,"internalType":"uint256","name":"communityId","type":"uint256"},{"indexed":false,"internalType":"uint256","name":"guardian","type":"uint256"}],"name":"GuardianRemoved","type":"event"},{"anonymous":false,"inputs":[{"indexed":false,"internalType":"uint256","name":"communityId","type":"uint256"},{"components":[{"internalType":"string","name":"name","type":"string"},{"internalType":"string","name":"imageURI","type":"string"},{"internalType":"string[]","name":"channels","type":"string[]"},{"internalType":"bool","name":"notifications","type":"bool"}],"indexed":false,"internalType":"struct ICommunityHub.CommunityMetadata","name":"metadata","type":"tuple"}],"name":"MetadataSet","type":"event"},{"anonymous":false,"inputs":[{"indexed":false,"internalType":"uint256","name":"communityId","type":"uint256"},{"indexed":false,"internalType":"bool","name":"notifiableElections","type":"bool"}],"name":"NotifiableElectionsSet","type":"event"},{"anonymous":false,"inputs":[{"indexed":true,"internalType":"address","name":"previousOwner","type":"address"},{"indexed":true,"internalType":"address","name":"newOwner","type":"address"}],"name":"OwnershipTransferred","type":"event"},{"anonymous":false,"inputs":[{"indexed":false,"internalType":"uint256","name":"communityId","type":"uint256"},{"indexed":false,"internalType":"bytes32","name":"electionId","type":"bytes32"}],"name":"ResultsSet","type":"event"},{"inputs":[{"internalType":"uint256","name":"_communityId","type":"uint256"},{"internalType":"uint256","name":"_guardian","type":"uint256"}],"name":"AddGuardian","outputs":[],"stateMutability":"nonpayable","type":"function"},{"inputs":[{"internalType":"uint256","name":"_communityId","type":"uint256"},{"components":[{"internalType":"string","name":"name","type":"string"},{"internalType":"string","name":"imageURI","type":"string"},{"internalType":"string[]","name":"channels","type":"string[]"},{"internalType":"bool","name":"notifications","type":"bool"}],"internalType":"struct ICommunityHub.CommunityMetadata","name":"_metadata","type":"tuple"},{"components":[{"internalType":"enum ICommunityHub.CensusType","name":"censusType","type":"uint8"},{"components":[{"internalType":"string","name":"blockchain","type":"string"},{"internalType":"address","name":"contractAddress","type":"address"}],"internalType":"struct ICommunityHub.Token[]","name":"tokens","type":"tuple[]"}],"internalType":"struct ICommunityHub.Census","name":"_census","type":"tuple"},{"internalType":"uint256[]","name":"_guardians","type":"uint256[]"},{"internalType":"address","name":"_electionResultsContract","type":"address"},{"internalType":"enum ICommunityHub.CreateElectionPermission","name":"_createElectionPermission","type":"uint8"},{"internalType":"bool","name":"_disabled","type":"bool"}],"name":"AdminManageCommunity","outputs":[],"stateMutability":"nonpayable","type":"function"},{"inputs":[{"internalType":"uint256","name":"_price","type":"uint256"}],"name":"AdminSetCommunityPrice","outputs":[],"stateMutability":"nonpayable","type":"function"},{"inputs":[{"internalType":"address","name":"_electionResultsContract","type":"address"}],"name":"AdminSetDefaultElectionResultsContract","outputs":[],"stateMutability":"nonpayable","type":"function"},{"inputs":[{"components":[{"internalType":"string","name":"name","type":"string"},{"internalType":"string","name":"imageURI","type":"string"},{"internalType":"string[]","name":"channels","type":"string[]"},{"internalType":"bool","name":"notifications","type":"bool"}],"internalType":"struct ICommunityHub.CommunityMetadata","name":"_metadata","type":"tuple"},{"components":[{"internalType":"enum ICommunityHub.CensusType","name":"censusType","type":"uint8"},{"components":[{"internalType":"string","name":"blockchain","type":"string"},{"internalType":"address","name":"contractAddress","type":"address"}],"internalType":"struct ICommunityHub.Token[]","name":"tokens","type":"tuple[]"}],"internalType":"struct ICommunityHub.Census","name":"_census","type":"tuple"},{"internalType":"uint256[]","name":"_guardians","type":"uint256[]"},{"internalType":"address","name":"_electionResultsContract","type":"address"},{"internalType":"enum ICommunityHub.CreateElectionPermission","name":"_createElectionPermission","type":"uint8"}],"name":"CreateCommunity","outputs":[{"internalType":"uint256","name":"","type":"uint256"}],"stateMutability":"payable","type":"function"},{"inputs":[{"internalType":"uint256","name":"_communityId","type":"uint256"}],"name":"GetCommunity","outputs":[{"components":[{"components":[{"internalType":"string","name":"name","type":"string"},{"internalType":"string","name":"imageURI","type":"string"},{"internalType":"string[]","name":"channels","type":"string[]"},{"internalType":"bool","name":"notifications","type":"bool"}],"internalType":"struct ICommunityHub.CommunityMetadata","name":"metadata","type":"tuple"},{"components":[{"internalType":"enum ICommunityHub.CensusType","name":"censusType","type":"uint8"},{"components":[{"internalType":"string","name":"blockchain","type":"string"},{"internalType":"address","name":"contractAddress","type":"address"}],"internalType":"struct ICommunityHub.Token[]","name":"tokens","type":"tuple[]"}],"internalType":"struct ICommunityHub.Census","name":"census","type":"tuple"},{"internalType":"uint256[]","name":"guardians","type":"uint256[]"},{"internalType":"address","name":"electionResultsContract","type":"address"},{"internalType":"enum ICommunityHub.CreateElectionPermission","name":"createElectionPermission","type":"uint8"},{"internalType":"bool","name":"disabled","type":"bool"}],"internalType":"struct ICommunityHub.Community","name":"","type":"tuple"}],"stateMutability":"view","type":"function"},{"inputs":[],"name":"GetCreateCommunityPrice","outputs":[{"internalType":"uint256","name":"","type":"uint256"}],"stateMutability":"view","type":"function"},{"inputs":[],"name":"GetDefaultElectionResultsContract","outputs":[{"internalType":"address","name":"","type":"address"}],"stateMutability":"view","type":"function"},{"inputs":[],"name":"GetNextCommunityId","outputs":[{"internalType":"uint256","name":"","type":"uint256"}],"stateMutability":"view","type":"function"},{"inputs":[{"internalType":"uint256","name":"_communityId","type":"uint256"},{"internalType":"uint256","name":"_guardian","type":"uint256"}],"name":"RemoveGuardian","outputs":[],"stateMutability":"nonpayable","type":"function"},{"inputs":[{"internalType":"uint256","name":"_communityId","type":"uint256"},{"components":[{"internalType":"enum ICommunityHub.CensusType","name":"censusType","type":"uint8"},{"components":[{"internalType":"string","name":"blockchain","type":"string"},{"internalType":"address","name":"contractAddress","type":"address"}],"internalType":"struct ICommunityHub.Token[]","name":"tokens","type":"tuple[]"}],"internalType":"struct ICommunityHub.Census","name":"_census","type":"tuple"}],"name":"SetCensus","outputs":[],"stateMutability":"nonpayable","type":"function"},{"inputs":[{"internalType":"uint256","name":"_communityId","type":"uint256"},{"internalType":"enum ICommunityHub.CreateElectionPermission","name":"_createElectionPermission","type":"uint8"}],"name":"SetCreateElectionPermission","outputs":[],"stateMutability":"nonpayable","type":"function"},{"inputs":[{"internalType":"uint256","name":"_communityId","type":"uint256"},{"internalType":"address","name":"_electionResultsContract","type":"address"}],"name":"SetElectionResultsContract","outputs":[],"stateMutability":"nonpayable","type":"function"},{"inputs":[{"internalType":"uint256","name":"_communityId","type":"uint256"},{"components":[{"internalType":"string","name":"name","type":"string"},{"internalType":"string","name":"imageURI","type":"string"},{"internalType":"string[]","name":"channels","type":"string[]"},{"internalType":"bool","name":"notifications","type":"bool"}],"internalType":"struct ICommunityHub.CommunityMetadata","name":"_metadata","type":"tuple"}],"name":"SetMetadata","outputs":[],"stateMutability":"nonpayable","type":"function"},{"inputs":[{"internalType":"uint256","name":"_communityId","type":"uint256"},{"internalType":"bool","name":"_notifiableElections","type":"bool"}],"name":"SetNotifiableElections","outputs":[],"stateMutability":"nonpayable","type":"function"},{"inputs":[{"internalType":"uint256","name":"_communityId","type":"uint256"},{"internalType":"bytes32","name":"_electionId","type":"bytes32"}],"name":"getResult","outputs":[{"components":[{"internalType":"string","name":"question","type":"string"},{"internalType":"string[]","name":"options","type":"string[]"},{"internalType":"string","name":"date","type":"string"},{"internalType":"uint256[][]","name":"tally","type":"uint256[][]"},{"internalType":"uint256","name":"turnout","type":"uint256"},{"internalType":"uint256","name":"totalVotingPower","type":"uint256"},{"internalType":"uint256[]","name":"participants","type":"uint256[]"},{"internalType":"bytes32","name":"censusRoot","type":"bytes32"},{"internalType":"string","name":"censusURI","type":"string"}],"internalType":"struct IElectionResults.Result","name":"","type":"tuple"}],"stateMutability":"view","type":"function"},{"inputs":[],"name":"owner","outputs":[{"internalType":"address","name":"","type":"address"}],"stateMutability":"view","type":"function"},{"inputs":[],"name":"renounceOwnership","outputs":[],"stateMutability":"nonpayable","type":"function"},{"inputs":[{"internalType":"uint256","name":"_communityId","type":"uint256"},{"internalType":"bytes32","name":"_electionId","type":"bytes32"},{"components":[{"internalType":"string","name":"question","type":"string"},{"internalType":"string[]","name":"options","type":"string[]"},{"internalType":"string","name":"date","type":"string"},{"internalType":"uint256[][]","name":"tally","type":"uint256[][]"},{"internalType":"uint256","name":"turnout","type":"uint256"},{"internalType":"uint256","name":"totalVotingPower","type":"uint256"},{"internalType":"uint256[]","name":"participants","type":"uint256[]"},{"internalType":"bytes32","name":"censusRoot","type":"bytes32"},{"internalType":"string","name":"censusURI","type":"string"}],"internalType":"struct IElectionResults.Result","name":"_result","type":"tuple"}],"name":"setResult","outputs":[],"stateMutability":"nonpayable","type":"function"},{"inputs":[{"internalType":"address","name":"newOwner","type":"address"}],"name":"transferOwnership","outputs":[],"stateMutability":"nonpayable","type":"function"},{"stateMutability":"payable","type":"receive"}],"evm":{"bytecode":{"linkReferences":{},"object":"60806040523480156200001157600080fd5b5033600073ffffffffffffffffffffffffffffffffffffffff168173ffffffffffffffffffffffffffffffffffffffff1603620000885760006040517f1e4fbdf70000000000000000000000000000000000000000000000000000000081526004016200007f9190620001a9565b60405180910390fd5b6200009981620000a060201b60201c565b50620001c6565b60008060009054906101000a900473ffffffffffffffffffffffffffffffffffffffff169050816000806101000a81548173ffffffffffffffffffffffffffffffffffffffff021916908373ffffffffffffffffffffffffffffffffffffffff1602179055508173ffffffffffffffffffffffffffffffffffffffff168173ffffffffffffffffffffffffffffffffffffffff167f8be0079c531659141344cd1fd0a4f28419497f9722a3daafe3b4186f6b6457e060405160405180910390a35050565b600073ffffffffffffffffffffffffffffffffffffffff82169050919050565b6000620001918262000164565b9050919050565b620001a38162000184565b82525050565b6000602082019050620001c0600083018462000198565b92915050565b61423f80620001d66000396000f3fe6080604052600436106101235760003560e01c8063715018a6116100a0578063cb5eefd811610064578063cb5eefd8146103ed578063cd22ba8414610416578063d66917d914610446578063e1e009ba1461046f578063f2fde38b1461049857610163565b8063715018a61461031a5780637208219414610331578063781bc0531461035c5780638da5cb5b14610399578063c06fa4e9146103c457610163565b8063407d699f116100e7578063407d699f14610249578063428d87c51461027457806367272a521461029d5780636ebf3c4c146102c6578063708270b8146102ef57610163565b806313e8626514610168578063264c408e146101a55780632893c86f146101ce5780632ebf88f8146101f75780633c973f751461022057610163565b36610163577fe1fffcc4923d04b559f4d29a8bfc6cda04eb5b0d3c460751c2402c5c5cc9109c33346040516101599291906117a6565b60405180910390a1005b600080fd5b34801561017457600080fd5b5061018f600480360381019061018a9190611845565b6104c1565b60405161019c9190611c4e565b60405180910390f35b3480156101b157600080fd5b506101cc60048036038101906101c79190611c70565b61058e565b005b3480156101da57600080fd5b506101f560048036038101906101f09190611cdc565b6106e0565b005b34801561020357600080fd5b5061021e60048036038101906102199190611d2d565b610763565b005b34801561022c57600080fd5b5061024760048036038101906102429190611da9565b6107c6565b005b34801561025557600080fd5b5061025e61087e565b60405161026b9190611e18565b60405180910390f35b34801561028057600080fd5b5061029b60048036038101906102969190611e33565b610888565b005b3480156102a957600080fd5b506102c460048036038101906102bf9190611e85565b6108d1565b005b3480156102d257600080fd5b506102ed60048036038101906102e89190611efd565b61094c565b005b3480156102fb57600080fd5b506103046109ba565b6040516103119190611e18565b60405180910390f35b34801561032657600080fd5b5061032f6109c4565b005b34801561033d57600080fd5b506103466109d8565b6040516103539190611f3d565b60405180910390f35b34801561036857600080fd5b50610383600480360381019061037e9190611e33565b610a02565b6040516103909190612279565b60405180910390f35b3480156103a557600080fd5b506103ae610ef5565b6040516103bb9190611f3d565b60405180910390f35b3480156103d057600080fd5b506103eb60048036038101906103e6919061231f565b610f1e565b005b3480156103f957600080fd5b50610414600480360381019061040f9190612419565b6110a0565b005b610430600480360381019061042b9190612475565b611103565b60405161043d9190611e18565b60405180910390f35b34801561045257600080fd5b5061046d60048036038101906104689190612547565b611318565b005b34801561047b57600080fd5b5061049660048036038101906104919190611c70565b6113aa565b005b3480156104a457600080fd5b506104bf60048036038101906104ba9190611cdc565b611424565b005b6104c96115fd565b60006001600085815260200190815260200160002060070160009054906101000a900473ffffffffffffffffffffffffffffffffffffffff1690508073ffffffffffffffffffffffffffffffffffffffff166313e8626585856040518363ffffffff1660e01b815260040161053f929190612596565b600060405180830381865afa15801561055c573d6000803e3d6000fd5b505050506040513d6000823e3d601f19601f820116820180604052508101906105859190612b21565b91505092915050565b600060016000848152602001908152602001600020600601905060005b818054905081101561069e57828282815481106105cb576105ca612b6a565b5b9060005260206000200154036106915781600183805490506105ed9190612bc8565b815481106105fe576105fd612b6a565b5b906000526020600020015482828154811061061c5761061b612b6a565b5b90600052602060002001819055508180548061063b5761063a612bfc565b5b600190038181906000526020600020016000905590557f2264fa092e5819982f4edca5b7e9c6318a16dc3e03673510429c078656dea45c8484604051610682929190612c2b565b60405180910390a150506106dc565b80806001019150506105ab565b50816040517f84ce930a0000000000000000000000000000000000000000000000000000000081526004016106d39190611e18565b60405180910390fd5b5050565b6106e86114aa565b80600460006101000a81548173ffffffffffffffffffffffffffffffffffffffff021916908373ffffffffffffffffffffffffffffffffffffffff1602179055507f2f165c01002d221752e275a87b6ed91df7c1b198b0bbe0e93dd28c7c834a08cc816040516107589190611f3d565b60405180910390a150565b806001600084815260200190815260200160002060000181816107869190613501565b9050507f94aac65d269f9059e59ac9aff9cffe22dc1907d1f2ac8f6a9dde667d8a0eb04482826040516107ba929190613767565b60405180910390a15050565b6107ce6114aa565b60006001600085815260200190815260200160002060070160009054906101000a900473ffffffffffffffffffffffffffffffffffffffff1690508073ffffffffffffffffffffffffffffffffffffffff16633c973f758585856040518463ffffffff1660e01b815260040161084693929190613ad4565b600060405180830381600087803b15801561086057600080fd5b505af1158015610874573d6000803e3d6000fd5b5050505050505050565b6000600254905090565b6108906114aa565b806002819055507fac9c054628ba106d4664c2c08386354e161eab546a0a47faf040bfc1062845e7816040516108c69190611e18565b60405180910390a150565b806001600084815260200190815260200160002060070160146101000a81548160ff0219169083600181111561090a57610909611fd8565b5b02179055507feaeee81ca4b132c1f2699cf2e7f71c26adb6ffe780097ac7d6e9ddf978398b628282604051610940929190613b21565b60405180910390a15050565b806001600084815260200190815260200160002060000160030160006101000a81548160ff0219169083151502179055507fed2f2c7a2316ddc2f46a4581250611f807810052bb38bef2fbd1a81d087e064b82826040516109ae929190613b59565b60405180910390a15050565b6000600354905090565b6109cc6114aa565b6109d66000611531565b565b6000600460009054906101000a900473ffffffffffffffffffffffffffffffffffffffff16905090565b610a0a61164c565b600160008381526020019081526020016000206040518060c001604052908160008201604051806080016040529081600082018054610a4890612d2f565b80601f0160208091040260200160405190810160405280929190818152602001828054610a7490612d2f565b8015610ac15780601f10610a9657610100808354040283529160200191610ac1565b820191906000526020600020905b815481529060010190602001808311610aa457829003601f168201915b50505050508152602001600182018054610ada90612d2f565b80601f0160208091040260200160405190810160405280929190818152602001828054610b0690612d2f565b8015610b535780601f10610b2857610100808354040283529160200191610b53565b820191906000526020600020905b815481529060010190602001808311610b3657829003601f168201915b5050505050815260200160028201805480602002602001604051908101604052809291908181526020016000905b82821015610c2d578382906000526020600020018054610ba090612d2f565b80601f0160208091040260200160405190810160405280929190818152602001828054610bcc90612d2f565b8015610c195780601f10610bee57610100808354040283529160200191610c19565b820191906000526020600020905b815481529060010190602001808311610bfc57829003601f168201915b505050505081526020019060010190610b81565b5050505081526020016003820160009054906101000a900460ff1615151515815250508152602001600482016040518060400160405290816000820160009054906101000a900460ff166005811115610c8957610c88611fd8565b5b6005811115610c9b57610c9a611fd8565b5b815260200160018201805480602002602001604051908101604052809291908181526020016000905b82821015610dde5783829060005260206000209060020201604051806040016040529081600082018054610cf790612d2f565b80601f0160208091040260200160405190810160405280929190818152602001828054610d2390612d2f565b8015610d705780601f10610d4557610100808354040283529160200191610d70565b820191906000526020600020905b815481529060010190602001808311610d5357829003601f168201915b505050505081526020016001820160009054906101000a900473ffffffffffffffffffffffffffffffffffffffff1673ffffffffffffffffffffffffffffffffffffffff1673ffffffffffffffffffffffffffffffffffffffff168152505081526020019060010190610cc4565b5050505081525050815260200160068201805480602002602001604051908101604052809291908181526020018280548015610e3957602002820191906000526020600020905b815481526020019060010190808311610e25575b505050505081526020016007820160009054906101000a900473ffffffffffffffffffffffffffffffffffffffff1673ffffffffffffffffffffffffffffffffffffffff1673ffffffffffffffffffffffffffffffffffffffff1681526020016007820160149054906101000a900460ff166001811115610ebd57610ebc611fd8565b5b6001811115610ecf57610ece611fd8565b5b81526020016007820160159054906101000a900460ff1615151515815250509050919050565b60008060009054906101000a900473ffffffffffffffffffffffffffffffffffffffff16905090565b610f266114aa565b6000600160008a8152602001908152602001600020905087816000018181610f4e9190613501565b90505086816004018181610f629190613f59565b905050838160070160006101000a81548173ffffffffffffffffffffffffffffffffffffffff021916908373ffffffffffffffffffffffffffffffffffffffff160217905550828160070160146101000a81548160ff02191690836001811115610fcf57610fce611fd8565b5b0217905550818160070160156101000a81548160ff02191690831515021790555080600601600061100091906116b8565b60005b8686905081101561105d578160060187878381811061102557611024612b6a565b5b905060200201359080600181540180825580915050600190039060005260206000200160009091909190915055806001019050611003565b507f887cc86755221db77fb9a404d4834a6ca76a28df7c71c7650318819ad0f46a3c8960405161108d9190611e18565b60405180910390a1505050505050505050565b806001600084815260200190815260200160002060040181816110c39190613f59565b9050507fe9792eee54764d34581473a0e844e57f5e07fa14e6d375c1f542b383ce48f0b782826040516110f7929190614168565b60405180910390a15050565b6000600254341461114f57600254346040517fce6b173b000000000000000000000000000000000000000000000000000000008152600401611146929190612c2b565b60405180910390fd5b7fe1fffcc4923d04b559f4d29a8bfc6cda04eb5b0d3c460751c2402c5c5cc9109c33346040516111809291906117a6565b60405180910390a1600060035490506000600160008381526020019081526020016000209050888160000181816111b79190613501565b905050878160040181816111cb9190613f59565b905050848160070160006101000a81548173ffffffffffffffffffffffffffffffffffffffff021916908373ffffffffffffffffffffffffffffffffffffffff160217905550838160070160146101000a81548160ff0219169083600181111561123857611237611fd8565b5b021790555060008160070160156101000a81548160ff02191690831515021790555060005b878790508110156112b7578160060188888381811061127f5761127e612b6a565b5b90506020020135908060018154018082558091505060019003906000526020600020016000909190919091505580600101905061125d565b50600360008154809291906112cb90614198565b91905055507f42c24a3323433819443a75d0e2651a9c84f696fba638d730042960045ef2724182336040516113019291906141e0565b60405180910390a181925050509695505050505050565b806001600084815260200190815260200160002060070160006101000a81548173ffffffffffffffffffffffffffffffffffffffff021916908373ffffffffffffffffffffffffffffffffffffffff1602179055507facd3bfb47d15f9f1d5db04bf52aece3b8c4fd63e70c97b91293415d2f2341f38828260405161139e9291906141e0565b60405180910390a15050565b600160008381526020019081526020016000206006018190806001815401808255809150506001900390600052602060002001600090919091909150557ffcdfd5aeb97f499ca134ed43f010f2a4f5b0ab73d317ac27246a066a050a73af8282604051611418929190612c2b565b60405180910390a15050565b61142c6114aa565b600073ffffffffffffffffffffffffffffffffffffffff168173ffffffffffffffffffffffffffffffffffffffff160361149e5760006040517f1e4fbdf70000000000000000000000000000000000000000000000000000000081526004016114959190611f3d565b60405180910390fd5b6114a781611531565b50565b6114b26115f5565b73ffffffffffffffffffffffffffffffffffffffff166114d0610ef5565b73ffffffffffffffffffffffffffffffffffffffff161461152f576114f36115f5565b6040517f118cdaa70000000000000000000000000000000000000000000000000000000081526004016115269190611f3d565b60405180910390fd5b565b60008060009054906101000a900473ffffffffffffffffffffffffffffffffffffffff169050816000806101000a81548173ffffffffffffffffffffffffffffffffffffffff021916908373ffffffffffffffffffffffffffffffffffffffff1602179055508173ffffffffffffffffffffffffffffffffffffffff168173ffffffffffffffffffffffffffffffffffffffff167f8be0079c531659141344cd1fd0a4f28419497f9722a3daafe3b4186f6b6457e060405160405180910390a35050565b600033905090565b6040518061012001604052806060815260200160608152602001606081526020016060815260200160008152602001600081526020016060815260200160008019168152602001606081525090565b6040518060c0016040528061165f6116d9565b815260200161166c611703565b815260200160608152602001600073ffffffffffffffffffffffffffffffffffffffff168152602001600060018111156116a9576116a8611fd8565b5b81526020016000151581525090565b50805460008255906000526020600020908101906116d6919061172f565b50565b60405180608001604052806060815260200160608152602001606081526020016000151581525090565b60405180604001604052806000600581111561172257611721611fd8565b5b8152602001606081525090565b5b80821115611748576000816000905550600101611730565b5090565b600073ffffffffffffffffffffffffffffffffffffffff82169050919050565b60006117778261174c565b9050919050565b6117878161176c565b82525050565b6000819050919050565b6117a08161178d565b82525050565b60006040820190506117bb600083018561177e565b6117c86020830184611797565b9392505050565b6000604051905090565b600080fd5b600080fd5b6117ec8161178d565b81146117f757600080fd5b50565b600081359050611809816117e3565b92915050565b6000819050919050565b6118228161180f565b811461182d57600080fd5b50565b60008135905061183f81611819565b92915050565b6000806040838503121561185c5761185b6117d9565b5b600061186a858286016117fa565b925050602061187b85828601611830565b9150509250929050565b600081519050919050565b600082825260208201905092915050565b60005b838110156118bf5780820151818401526020810190506118a4565b60008484015250505050565b6000601f19601f8301169050919050565b60006118e782611885565b6118f18185611890565b93506119018185602086016118a1565b61190a816118cb565b840191505092915050565b600081519050919050565b600082825260208201905092915050565b6000819050602082019050919050565b600061194d83836118dc565b905092915050565b6000602082019050919050565b600061196d82611915565b6119778185611920565b93508360208202850161198985611931565b8060005b858110156119c557848403895281516119a68582611941565b94506119b183611955565b925060208a0199505060018101905061198d565b50829750879550505050505092915050565b600081519050919050565b600082825260208201905092915050565b6000819050602082019050919050565b600081519050919050565b600082825260208201905092915050565b6000819050602082019050919050565b611a388161178d565b82525050565b6000611a4a8383611a2f565b60208301905092915050565b6000602082019050919050565b6000611a6e82611a03565b611a788185611a0e565b9350611a8383611a1f565b8060005b83811015611ab4578151611a9b8882611a3e565b9750611aa683611a56565b925050600181019050611a87565b5085935050505092915050565b6000611acd8383611a63565b905092915050565b6000602082019050919050565b6000611aed826119d7565b611af781856119e2565b935083602082028501611b09856119f3565b8060005b85811015611b455784840389528151611b268582611ac1565b9450611b3183611ad5565b925060208a01995050600181019050611b0d565b50829750879550505050505092915050565b611b608161180f565b82525050565b6000610120830160008301518482036000860152611b8482826118dc565b91505060208301518482036020860152611b9e8282611962565b91505060408301518482036040860152611bb882826118dc565b91505060608301518482036060860152611bd28282611ae2565b9150506080830151611be76080860182611a2f565b5060a0830151611bfa60a0860182611a2f565b5060c083015184820360c0860152611c128282611a63565b91505060e0830151611c2760e0860182611b57565b50610100830151848203610100860152611c4182826118dc565b9150508091505092915050565b60006020820190508181036000830152611c688184611b66565b905092915050565b60008060408385031215611c8757611c866117d9565b5b6000611c95858286016117fa565b9250506020611ca6858286016117fa565b9150509250929050565b611cb98161176c565b8114611cc457600080fd5b50565b600081359050611cd681611cb0565b92915050565b600060208284031215611cf257611cf16117d9565b5b6000611d0084828501611cc7565b91505092915050565b600080fd5b600060808284031215611d2457611d23611d09565b5b81905092915050565b60008060408385031215611d4457611d436117d9565b5b6000611d52858286016117fa565b925050602083013567ffffffffffffffff811115611d7357611d726117de565b5b611d7f85828601611d0e565b9150509250929050565b60006101208284031215611da057611d9f611d09565b5b81905092915050565b600080600060608486031215611dc257611dc16117d9565b5b6000611dd0868287016117fa565b9350506020611de186828701611830565b925050604084013567ffffffffffffffff811115611e0257611e016117de565b5b611e0e86828701611d89565b9150509250925092565b6000602082019050611e2d6000830184611797565b92915050565b600060208284031215611e4957611e486117d9565b5b6000611e57848285016117fa565b91505092915050565b60028110611e6d57600080fd5b50565b600081359050611e7f81611e60565b92915050565b60008060408385031215611e9c57611e9b6117d9565b5b6000611eaa858286016117fa565b9250506020611ebb85828601611e70565b9150509250929050565b60008115159050919050565b611eda81611ec5565b8114611ee557600080fd5b50565b600081359050611ef781611ed1565b92915050565b60008060408385031215611f1457611f136117d9565b5b6000611f22858286016117fa565b9250506020611f3385828601611ee8565b9150509250929050565b6000602082019050611f52600083018461177e565b92915050565b611f6181611ec5565b82525050565b60006080830160008301518482036000860152611f8482826118dc565b91505060208301518482036020860152611f9e82826118dc565b91505060408301518482036040860152611fb88282611962565b9150506060830151611fcd6060860182611f58565b508091505092915050565b7f4e487b7100000000000000000000000000000000000000000000000000000000600052602160045260246000fd5b6006811061201857612017611fd8565b5b50565b600081905061202982612007565b919050565b60006120398261201b565b9050919050565b6120498161202e565b82525050565b600081519050919050565b600082825260208201905092915050565b6000819050602082019050919050565b6120848161176c565b82525050565b600060408301600083015184820360008601526120a782826118dc565b91505060208301516120bc602086018261207b565b508091505092915050565b60006120d3838361208a565b905092915050565b6000602082019050919050565b60006120f38261204f565b6120fd818561205a565b93508360208202850161210f8561206b565b8060005b8581101561214b578484038952815161212c85826120c7565b9450612137836120db565b925060208a01995050600181019050612113565b50829750879550505050505092915050565b60006040830160008301516121756000860182612040565b506020830151848203602086015261218d82826120e8565b9150508091505092915050565b600281106121ab576121aa611fd8565b5b50565b60008190506121bc8261219a565b919050565b60006121cc826121ae565b9050919050565b6121dc816121c1565b82525050565b600060c08301600083015184820360008601526121ff8282611f67565b91505060208301518482036020860152612219828261215d565b915050604083015184820360408601526122338282611a63565b9150506060830151612248606086018261207b565b50608083015161225b60808601826121d3565b5060a083015161226e60a0860182611f58565b508091505092915050565b6000602082019050818103600083015261229381846121e2565b905092915050565b6000604082840312156122b1576122b0611d09565b5b81905092915050565b600080fd5b600080fd5b600080fd5b60008083601f8401126122df576122de6122ba565b5b8235905067ffffffffffffffff8111156122fc576122fb6122bf565b5b602083019150836020820283011115612318576123176122c4565b5b9250929050565b60008060008060008060008060e0898b03121561233f5761233e6117d9565b5b600061234d8b828c016117fa565b985050602089013567ffffffffffffffff81111561236e5761236d6117de565b5b61237a8b828c01611d0e565b975050604089013567ffffffffffffffff81111561239b5761239a6117de565b5b6123a78b828c0161229b565b965050606089013567ffffffffffffffff8111156123c8576123c76117de565b5b6123d48b828c016122c9565b955095505060806123e78b828c01611cc7565b93505060a06123f88b828c01611e70565b92505060c06124098b828c01611ee8565b9150509295985092959890939650565b600080604083850312156124305761242f6117d9565b5b600061243e858286016117fa565b925050602083013567ffffffffffffffff81111561245f5761245e6117de565b5b61246b8582860161229b565b9150509250929050565b60008060008060008060a08789031215612492576124916117d9565b5b600087013567ffffffffffffffff8111156124b0576124af6117de565b5b6124bc89828a01611d0e565b965050602087013567ffffffffffffffff8111156124dd576124dc6117de565b5b6124e989828a0161229b565b955050604087013567ffffffffffffffff81111561250a576125096117de565b5b61251689828a016122c9565b9450945050606061252989828a01611cc7565b925050608061253a89828a01611e70565b9150509295509295509295565b6000806040838503121561255e5761255d6117d9565b5b600061256c858286016117fa565b925050602061257d85828601611cc7565b9150509250929050565b6125908161180f565b82525050565b60006040820190506125ab6000830185611797565b6125b86020830184612587565b9392505050565b600080fd5b7f4e487b7100000000000000000000000000000000000000000000000000000000600052604160045260246000fd5b6125fc826118cb565b810181811067ffffffffffffffff8211171561261b5761261a6125c4565b5b80604052505050565b600061262e6117cf565b905061263a82826125f3565b919050565b600080fd5b600080fd5b600067ffffffffffffffff821115612664576126636125c4565b5b61266d826118cb565b9050602081019050919050565b600061268d61268884612649565b612624565b9050828152602081018484840111156126a9576126a8612644565b5b6126b48482856118a1565b509392505050565b600082601f8301126126d1576126d06122ba565b5b81516126e184826020860161267a565b91505092915050565b600067ffffffffffffffff821115612705576127046125c4565b5b602082029050602081019050919050565b6000612729612724846126ea565b612624565b9050808382526020820190506020840283018581111561274c5761274b6122c4565b5b835b8181101561279357805167ffffffffffffffff811115612771576127706122ba565b5b80860161277e89826126bc565b8552602085019450505060208101905061274e565b5050509392505050565b600082601f8301126127b2576127b16122ba565b5b81516127c2848260208601612716565b91505092915050565b600067ffffffffffffffff8211156127e6576127e56125c4565b5b602082029050602081019050919050565b600067ffffffffffffffff821115612812576128116125c4565b5b602082029050602081019050919050565b600081519050612832816117e3565b92915050565b600061284b612846846127f7565b612624565b9050808382526020820190506020840283018581111561286e5761286d6122c4565b5b835b8181101561289757806128838882612823565b845260208401935050602081019050612870565b5050509392505050565b600082601f8301126128b6576128b56122ba565b5b81516128c6848260208601612838565b91505092915050565b60006128e26128dd846127cb565b612624565b90508083825260208201905060208402830185811115612905576129046122c4565b5b835b8181101561294c57805167ffffffffffffffff81111561292a576129296122ba565b5b80860161293789826128a1565b85526020850194505050602081019050612907565b5050509392505050565b600082601f83011261296b5761296a6122ba565b5b815161297b8482602086016128cf565b91505092915050565b60008151905061299381611819565b92915050565b600061012082840312156129b0576129af6125bf565b5b6129bb610120612624565b9050600082015167ffffffffffffffff8111156129db576129da61263f565b5b6129e7848285016126bc565b600083015250602082015167ffffffffffffffff811115612a0b57612a0a61263f565b5b612a178482850161279d565b602083015250604082015167ffffffffffffffff811115612a3b57612a3a61263f565b5b612a47848285016126bc565b604083015250606082015167ffffffffffffffff811115612a6b57612a6a61263f565b5b612a7784828501612956565b6060830152506080612a8b84828501612823565b60808301525060a0612a9f84828501612823565b60a08301525060c082015167ffffffffffffffff811115612ac357612ac261263f565b5b612acf848285016128a1565b60c08301525060e0612ae384828501612984565b60e08301525061010082015167ffffffffffffffff811115612b0857612b0761263f565b5b612b14848285016126bc565b6101008301525092915050565b600060208284031215612b3757612b366117d9565b5b600082015167ffffffffffffffff811115612b5557612b546117de565b5b612b6184828501612999565b91505092915050565b7f4e487b7100000000000000000000000000000000000000000000000000000000600052603260045260246000fd5b7f4e487b7100000000000000000000000000000000000000000000000000000000600052601160045260246000fd5b6000612bd38261178d565b9150612bde8361178d565b9250828203905081811115612bf657612bf5612b99565b5b92915050565b7f4e487b7100000000000000000000000000000000000000000000000000000000600052603160045260246000fd5b6000604082019050612c406000830185611797565b612c4d6020830184611797565b9392505050565b7f4e487b7100000000000000000000000000000000000000000000000000000000600052600060045260246000fd5b600080fd5b600080fd5b600080fd5b60008083356001602003843603038112612caf57612cae612c83565b5b80840192508235915067ffffffffffffffff821115612cd157612cd0612c88565b5b602083019250600182023603831315612ced57612cec612c8d565b5b509250929050565b600082905092915050565b7f4e487b7100000000000000000000000000000000000000000000000000000000600052602260045260246000fd5b60006002820490506001821680612d4757607f821691505b602082108103612d5a57612d59612d00565b5b50919050565b60008190508160005260206000209050919050565b60006020601f8301049050919050565b600082821b905092915050565b600060088302612dc27fffffffffffffffffffffffffffffffffffffffffffffffffffffffffffffffff82612d85565b612dcc8683612d85565b95508019841693508086168417925050509392505050565b6000819050919050565b6000612e09612e04612dff8461178d565b612de4565b61178d565b9050919050565b6000819050919050565b612e2383612dee565b612e37612e2f82612e10565b848454612d92565b825550505050565b600090565b612e4c612e3f565b612e57818484612e1a565b505050565b5b81811015612e7b57612e70600082612e44565b600181019050612e5d565b5050565b601f821115612ec057612e9181612d60565b612e9a84612d75565b81016020851015612ea9578190505b612ebd612eb585612d75565b830182612e5c565b50505b505050565b600082821c905092915050565b6000612ee360001984600802612ec5565b1980831691505092915050565b6000612efc8383612ed2565b9150826002028217905092915050565b612f168383612cf5565b67ffffffffffffffff811115612f2f57612f2e6125c4565b5b612f398254612d2f565b612f44828285612e7f565b6000601f831160018114612f735760008415612f61578287013590505b612f6b8582612ef0565b865550612fd3565b601f198416612f8186612d60565b60005b82811015612fa957848901358255600182019150602085019450602081019050612f84565b86831015612fc65784890135612fc2601f891682612ed2565b8355505b6001600288020188555050505b50505050505050565b612fe7838383612f0c565b505050565b6000808335600160200384360303811261300957613008612c83565b5b80840192508235915067ffffffffffffffff82111561302b5761302a612c88565b5b60208301925060208202360383131561304757613046612c8d565b5b509250929050565b6000819050919050565b600081549050919050565b600061306f8261178d565b915061307a8361178d565b92508282026130888161178d565b9150828204841483151761309f5761309e612b99565b5b5092915050565b60008190506001806001038301049050919050565b60008190508160005260206000209050919050565b6131007fffffffffffffffffffffffffffffffffffffffffffffffffffffffffffffffff83602003600802612ec5565b815481168255505050565b61311481612d60565b61311f838254612ef0565b8083556000825550505050565b602084106000811461318757601f8411600181146131555761314e8685612ef0565b8355613181565b61315e83612d60565b61317561316a87612d75565b820160018301612e5c565b61317f878561310b565b505b506131d4565b61319082612d60565b61319986612d75565b8101601f871680156131b3576131b281600184036130d0565b5b6131c76131bf88612d75565b840183612e5c565b6001886002021785555050505b5050505050565b680100000000000000008411156131f5576131f46125c4565b5b602083106000811461324057602085106000811461321e576132178685612ef0565b835561323a565b8360ff191693508361322f84612d60565b556001866002020183555b5061324a565b6001856002020182555b5050505050565b805461325c81612d2f565b8084111561327157613270848284866131db565b5b80841015613286576132858482848661312c565b5b50505050565b818110156132aa5761329f600082612e44565b60018101905061328c565b5050565b6132b9600082613251565b50565b600082146132cd576132cc612c54565b5b6132d6816132ae565b5050565b5b818110156132f9576132ee6000826132bc565b6001810190506132db565b5050565b818310156133365761330e826130a6565b613317846130a6565b613320836130bb565b81810183820161333081836132da565b50505050505b505050565b68010000000000000000821115613355576133546125c4565b5b61335e81613059565b82825561336c8382846132fd565b505050565b600082905092915050565b6133868383613371565b613390818361333b565b6133998361304f565b6133a2836130bb565b60005b838110156133db576133b78387612c92565b6133c2818386612fdc565b60208501945060018401935050506001810190506133a5565b50505050505050565b6133ef83838361337c565b505050565b6000813561340181611ed1565b80915050919050565b60008160001b9050919050565b600060ff6134248461340a565b9350801983169250808416831791505092915050565b600061344582611ec5565b9050919050565b6000819050919050565b61345f8261343a565b61347261346b8261344c565b8354613417565b8255505050565b600081016000830161348b8185612c92565b613496818386612fdc565b5050505060018101602083016134ac8185612c92565b6134b7818386612fdc565b5050505060028101604083016134cd8185612fec565b6134d88183866133e4565b505050506003810160608301806134ee816133f4565b90506134fa8184613456565b5050505050565b61350b8282613479565b5050565b600080fd5b600080fd5b600080fd5b6000808335600160200384360303811261353b5761353a613519565b5b83810192508235915060208301925067ffffffffffffffff8211156135635761356261350f565b5b60018202360383131561357957613578613514565b5b509250929050565b82818337600083830152505050565b600061359c8385611890565b93506135a9838584613581565b6135b2836118cb565b840190509392505050565b600080833560016020038436030381126135da576135d9613519565b5b83810192508235915060208301925067ffffffffffffffff8211156136025761360161350f565b5b60208202360383131561361857613617613514565b5b509250929050565b600061362d848484613590565b90509392505050565b6000602082019050919050565b600061364f8385611920565b9350836020840285016136618461304f565b8060005b878110156136a757848403895261367c828461351e565b613687868284613620565b955061369284613636565b935060208b019a505050600181019050613665565b50829750879450505050509392505050565b60006136c86020840184611ee8565b905092915050565b6000608083016136e3600084018461351e565b85830360008701526136f6838284613590565b92505050613707602084018461351e565b858303602087015261371a838284613590565b9250505061372b60408401846135bd565b858303604087015261373e838284613643565b9250505061374f60608401846136b9565b61375c6060860182611f58565b508091505092915050565b600060408201905061377c6000830185611797565b818103602083015261378e81846136d0565b90509392505050565b600080833560016020038436030381126137b4576137b3613519565b5b83810192508235915060208301925067ffffffffffffffff8211156137dc576137db61350f565b5b6020820236038313156137f2576137f1613514565b5b509250929050565b6000819050919050565b600080fd5b82818337505050565b600061381e8385611a0e565b93507f07ffffffffffffffffffffffffffffffffffffffffffffffffffffffffffffff83111561385157613850613804565b5b602083029250613862838584613809565b82840190509392505050565b600061387b848484613812565b90509392505050565b600080833560016020038436030381126138a1576138a0613519565b5b83810192508235915060208301925067ffffffffffffffff8211156138c9576138c861350f565b5b6020820236038313156138df576138de613514565b5b509250929050565b6000602082019050919050565b600061390083856119e2565b935083602084028501613912846137fa565b8060005b8781101561395857848403895261392d8284613884565b61393886828461386e565b9550613943846138e7565b935060208b019a505050600181019050613916565b50829750879450505050509392505050565b600061397960208401846117fa565b905092915050565b60006139906020840184611830565b905092915050565b600061012083016139ac600084018461351e565b85830360008701526139bf838284613590565b925050506139d060208401846135bd565b85830360208701526139e3838284613643565b925050506139f4604084018461351e565b8583036040870152613a07838284613590565b92505050613a186060840184613797565b8583036060870152613a2b8382846138f4565b92505050613a3c608084018461396a565b613a496080860182611a2f565b50613a5760a084018461396a565b613a6460a0860182611a2f565b50613a7260c0840184613884565b85830360c0870152613a85838284613812565b92505050613a9660e0840184613981565b613aa360e0860182611b57565b50613ab261010084018461351e565b858303610100870152613ac6838284613590565b925050508091505092915050565b6000606082019050613ae96000830186611797565b613af66020830185612587565b8181036040830152613b088184613998565b9050949350505050565b613b1b816121c1565b82525050565b6000604082019050613b366000830185611797565b613b436020830184613b12565b9392505050565b613b5381611ec5565b82525050565b6000604082019050613b6e6000830185611797565b613b7b6020830184613b4a565b9392505050565b60068110613b8f57600080fd5b50565b60008135613b9f81613b82565b80915050919050565b6000613bb38261201b565b9050919050565b6000819050919050565b613bcd82613ba8565b613be0613bd982613bba565b8354613417565b8255505050565b60008083356001602003843603038112613c0457613c03612c83565b5b80840192508235915067ffffffffffffffff821115613c2657613c25612c88565b5b602083019250602082023603831315613c4257613c41612c8d565b5b509250929050565b6000819050919050565b600082356001604003833603038112613c7057613c6f612c83565b5b80830191505092915050565b600081549050919050565b6000819050613c97826002613064565b9050919050565b60008190508160005260206000209050919050565b613cc060008083016132bc565b6000600182015550565b60008214613cdb57613cda612c54565b5b613ce481613cb3565b5050565b5b81811015613d0757613cfc600082613cca565b600281019050613ce9565b5050565b81831015613d4457613d1c82613c87565b613d2584613c87565b613d2e83613c9e565b818101838201613d3e8183613ce8565b50505050505b505050565b68010000000000000000821115613d6357613d626125c4565b5b613d6c81613c7c565b828255613d7a838284613d0b565b505050565b600082905092915050565b60008135613d9781611cb0565b80915050919050565b600073ffffffffffffffffffffffffffffffffffffffff613dc08461340a565b9350801983169250808416831791505092915050565b6000613df1613dec613de78461174c565b612de4565b61174c565b9050919050565b6000613e0382613dd6565b9050919050565b6000613e1582613df8565b9050919050565b6000819050919050565b613e2f82613e0a565b613e42613e3b82613e1c565b8354613da0565b8255505050565b6000810160008301613e5b8185612c92565b613e66818386612fdc565b50505050600181016020830180613e7c81613d8a565b9050613e888184613e26565b5050505050565b613e998282613e49565b5050565b613ea78383613d7f565b613eb18183613d49565b613eba83613c4a565b613ec383613c9e565b60005b83811015613efa57613ed88387613c54565b613ee28184613e8f565b60208401935060028301925050600181019050613ec6565b50505050505050565b613f0e838383613e9d565b505050565b600081016000830180613f2581613b92565b9050613f318184613bc4565b5050506001810160208301613f468185613be7565b613f51818386613f03565b505050505050565b613f638282613f13565b5050565b600081359050613f7681613b82565b92915050565b6000613f8b6020840184613f67565b905092915050565b60008083356001602003843603038112613fb057613faf613519565b5b83810192508235915060208301925067ffffffffffffffff821115613fd857613fd761350f565b5b602082023603831315613fee57613fed613514565b5b509250929050565b60006140056020840184611cc7565b905092915050565b600060408301614020600084018461351e565b8583036000870152614033838284613590565b925050506140446020840184613ff6565b614051602086018261207b565b508091505092915050565b6000614068838361400d565b905092915050565b60008235600160400383360303811261408c5761408b613519565b5b82810191505092915050565b6000602082019050919050565b60006140b1838561205a565b9350836020840285016140c384613c4a565b8060005b878110156141075784840389526140de8284614070565b6140e8858261405c565b94506140f383614098565b925060208a019950506001810190506140c7565b50829750879450505050509392505050565b60006040830161412c6000840184613f7c565b6141396000860182612040565b506141476020840184613f93565b858303602087015261415a8382846140a5565b925050508091505092915050565b600060408201905061417d6000830185611797565b818103602083015261418f8184614119565b90509392505050565b60006141a38261178d565b91507fffffffffffffffffffffffffffffffffffffffffffffffffffffffffffffffff82036141d5576141d4612b99565b5b600182019050919050565b60006040820190506141f56000830185611797565b614202602083018461177e565b939250505056fea264697066735822122010abbd2082d6dfa9c6646ca687424b03efe810a9be46bf21e99aa8695431825964736f6c63430008180033","opcodes":"PUSH1 0x80 PUSH1 0x40 MSTORE CALLVALUE DUP1 ISZERO PUSH3 0x11 JUMPI PUSH1 0x0 DUP1 REVERT JUMPDEST POP CALLER PUSH1 0x0 PUSH20 0xFFFFFFFFFFFFFFFFFFFFFFFFFFFFFFFFFFFFFFFF AND DUP2 PUSH20 0xFFFFFFFFFFFFFFFFFFFFFFFFFFFFFFFFFFFFFFFF AND SUB PUSH3 0x88 JUMPI PUSH1 0x0 PUSH1 0x40 MLOAD PUSH32 0x1E4FBDF700000000000000000000000000000000000000000000000000000000 DUP2 MSTORE PUSH1 0x4 ADD PUSH3 0x7F SWAP2 SWAP1 PUSH3 0x1A9 JUMP JUMPDEST PUSH1 0x40 MLOAD DUP1 SWAP2 SUB SWAP1 REVERT JUMPDEST PUSH3 0x99 DUP2 PUSH3 0xA0 PUSH1 0x20 SHL PUSH1 0x20 SHR JUMP JUMPDEST POP PUSH3 0x1C6 JUMP JUMPDEST PUSH1 0x0 DUP1 PUSH1 0x0 SWAP1 SLOAD SWAP1 PUSH2 0x100 EXP SWAP1 DIV PUSH20 0xFFFFFFFFFFFFFFFFFFFFFFFFFFFFFFFFFFFFFFFF AND SWAP1 POP DUP2 PUSH1 0x0 DUP1 PUSH2 0x100 EXP DUP2 SLOAD DUP2 PUSH20 0xFFFFFFFFFFFFFFFFFFFFFFFFFFFFFFFFFFFFFFFF MUL NOT AND SWAP1 DUP4 PUSH20 0xFFFFFFFFFFFFFFFFFFFFFFFFFFFFFFFFFFFFFFFF AND MUL OR SWAP1 SSTORE POP DUP2 PUSH20 0xFFFFFFFFFFFFFFFFFFFFFFFFFFFFFFFFFFFFFFFF AND DUP2 PUSH20 0xFFFFFFFFFFFFFFFFFFFFFFFFFFFFFFFFFFFFFFFF AND PUSH32 0x8BE0079C531659141344CD1FD0A4F28419497F9722A3DAAFE3B4186F6B6457E0 PUSH1 0x40 MLOAD PUSH1 0x40 MLOAD DUP1 SWAP2 SUB SWAP1 LOG3 POP POP JUMP JUMPDEST PUSH1 0x0 PUSH20 0xFFFFFFFFFFFFFFFFFFFFFFFFFFFFFFFFFFFFFFFF DUP3 AND SWAP1 POP SWAP2 SWAP1 POP JUMP JUMPDEST PUSH1 0x0 PUSH3 0x191 DUP3 PUSH3 0x164 JUMP JUMPDEST SWAP1 POP SWAP2 SWAP1 POP JUMP JUMPDEST PUSH3 0x1A3 DUP2 PUSH3 0x184 JUMP JUMPDEST DUP3 MSTORE POP POP JUMP JUMPDEST PUSH1 0x0 PUSH1 0x20 DUP3 ADD SWAP1 POP PUSH3 0x1C0 PUSH1 0x0 DUP4 ADD DUP5 PUSH3 0x198 JUMP JUMPDEST SWAP3 SWAP2 POP POP JUMP JUMPDEST PUSH2 0x423F DUP1 PUSH3 0x1D6 PUSH1 0x0 CODECOPY PUSH1 0x0 RETURN INVALID PUSH1 0x80 PUSH1 0x40 MSTORE PUSH1 0x4 CALLDATASIZE LT PUSH2 0x123 JUMPI PUSH1 0x0 CALLDATALOAD PUSH1 0xE0 SHR DUP1 PUSH4 0x715018A6 GT PUSH2 0xA0 JUMPI DUP1 PUSH4 0xCB5EEFD8 GT PUSH2 0x64 JUMPI DUP1 PUSH4 0xCB5EEFD8 EQ PUSH2 0x3ED JUMPI DUP1 PUSH4 0xCD22BA84 EQ PUSH2 0x416 JUMPI DUP1 PUSH4 0xD66917D9 EQ PUSH2 0x446 JUMPI DUP1 PUSH4 0xE1E009BA EQ PUSH2 0x46F JUMPI DUP1 PUSH4 0xF2FDE38B EQ PUSH2 0x498 JUMPI PUSH2 0x163 JUMP JUMPDEST DUP1 PUSH4 0x715018A6 EQ PUSH2 0x31A JUMPI DUP1 PUSH4 0x72082194 EQ PUSH2 0x331 JUMPI DUP1 PUSH4 0x781BC053 EQ PUSH2 0x35C JUMPI DUP1 PUSH4 0x8DA5CB5B EQ PUSH2 0x399 JUMPI DUP1 PUSH4 0xC06FA4E9 EQ PUSH2 0x3C4 JUMPI PUSH2 0x163 JUMP JUMPDEST DUP1 PUSH4 0x407D699F GT PUSH2 0xE7 JUMPI DUP1 PUSH4 0x407D699F EQ PUSH2 0x249 JUMPI DUP1 PUSH4 0x428D87C5 EQ PUSH2 0x274 JUMPI DUP1 PUSH4 0x67272A52 EQ PUSH2 0x29D JUMPI DUP1 PUSH4 0x6EBF3C4C EQ PUSH2 0x2C6 JUMPI DUP1 PUSH4 0x708270B8 EQ PUSH2 0x2EF JUMPI PUSH2 0x163 JUMP JUMPDEST DUP1 PUSH4 0x13E86265 EQ PUSH2 0x168 JUMPI DUP1 PUSH4 0x264C408E EQ PUSH2 0x1A5 JUMPI DUP1 PUSH4 0x2893C86F EQ PUSH2 0x1CE JUMPI DUP1 PUSH4 0x2EBF88F8 EQ PUSH2 0x1F7 JUMPI DUP1 PUSH4 0x3C973F75 EQ PUSH2 0x220 JUMPI PUSH2 0x163 JUMP JUMPDEST CALLDATASIZE PUSH2 0x163 JUMPI PUSH32 0xE1FFFCC4923D04B559F4D29A8BFC6CDA04EB5B0D3C460751C2402C5C5CC9109C CALLER CALLVALUE PUSH1 0x40 MLOAD PUSH2 0x159 SWAP3 SWAP2 SWAP1 PUSH2 0x17A6 JUMP JUMPDEST PUSH1 0x40 MLOAD DUP1 SWAP2 SUB SWAP1 LOG1 STOP JUMPDEST PUSH1 0x0 DUP1 REVERT JUMPDEST CALLVALUE DUP1 ISZERO PUSH2 0x174 JUMPI PUSH1 0x0 DUP1 REVERT JUMPDEST POP PUSH2 0x18F PUSH1 0x4 DUP1 CALLDATASIZE SUB DUP2 ADD SWAP1 PUSH2 0x18A SWAP2 SWAP1 PUSH2 0x1845 JUMP JUMPDEST PUSH2 0x4C1 JUMP JUMPDEST PUSH1 0x40 MLOAD PUSH2 0x19C SWAP2 SWAP1 PUSH2 0x1C4E JUMP JUMPDEST PUSH1 0x40 MLOAD DUP1 SWAP2 SUB SWAP1 RETURN JUMPDEST CALLVALUE DUP1 ISZERO PUSH2 0x1B1 JUMPI PUSH1 0x0 DUP1 REVERT JUMPDEST POP PUSH2 0x1CC PUSH1 0x4 DUP1 CALLDATASIZE SUB DUP2 ADD SWAP1 PUSH2 0x1C7 SWAP2 SWAP1 PUSH2 0x1C70 JUMP JUMPDEST PUSH2 0x58E JUMP JUMPDEST STOP JUMPDEST CALLVALUE DUP1 ISZERO PUSH2 0x1DA JUMPI PUSH1 0x0 DUP1 REVERT JUMPDEST POP PUSH2 0x1F5 PUSH1 0x4 DUP1 CALLDATASIZE SUB DUP2 ADD SWAP1 PUSH2 0x1F0 SWAP2 SWAP1 PUSH2 0x1CDC JUMP JUMPDEST PUSH2 0x6E0 JUMP JUMPDEST STOP JUMPDEST CALLVALUE DUP1 ISZERO PUSH2 0x203 JUMPI PUSH1 0x0 DUP1 REVERT JUMPDEST POP PUSH2 0x21E PUSH1 0x4 DUP1 CALLDATASIZE SUB DUP2 ADD SWAP1 PUSH2 0x219 SWAP2 SWAP1 PUSH2 0x1D2D JUMP JUMPDEST PUSH2 0x763 JUMP JUMPDEST STOP JUMPDEST CALLVALUE DUP1 ISZERO PUSH2 0x22C JUMPI PUSH1 0x0 DUP1 REVERT JUMPDEST POP PUSH2 0x247 PUSH1 0x4 DUP1 CALLDATASIZE SUB DUP2 ADD SWAP1 PUSH2 0x242 SWAP2 SWAP1 PUSH2 0x1DA9 JUMP JUMPDEST PUSH2 0x7C6 JUMP JUMPDEST STOP JUMPDEST CALLVALUE DUP1 ISZERO PUSH2 0x255 JUMPI PUSH1 0x0 DUP1 REVERT JUMPDEST POP PUSH2 0x25E PUSH2 0x87E JUMP JUMPDEST PUSH1 0x40 MLOAD PUSH2 0x26B SWAP2 SWAP1 PUSH2 0x1E18 JUMP JUMPDEST PUSH1 0x40 MLOAD DUP1 SWAP2 SUB SWAP1 RETURN JUMPDEST CALLVALUE DUP1 ISZERO PUSH2 0x280 JUMPI PUSH1 0x0 DUP1 REVERT JUMPDEST POP PUSH2 0x29B PUSH1 0x4 DUP1 CALLDATASIZE SUB DUP2 ADD SWAP1 PUSH2 0x296 SWAP2 SWAP1 PUSH2 0x1E33 JUMP JUMPDEST PUSH2 0x888 JUMP JUMPDEST STOP JUMPDEST CALLVALUE DUP1 ISZERO PUSH2 0x2A9 JUMPI PUSH1 0x0 DUP1 REVERT JUMPDEST POP PUSH2 0x2C4 PUSH1 0x4 DUP1 CALLDATASIZE SUB DUP2 ADD SWAP1 PUSH2 0x2BF SWAP2 SWAP1 PUSH2 0x1E85 JUMP JUMPDEST PUSH2 0x8D1 JUMP JUMPDEST STOP JUMPDEST CALLVALUE DUP1 ISZERO PUSH2 0x2D2 JUMPI PUSH1 0x0 DUP1 REVERT JUMPDEST POP PUSH2 0x2ED PUSH1 0x4 DUP1 CALLDATASIZE SUB DUP2 ADD SWAP1 PUSH2 0x2E8 SWAP2 SWAP1 PUSH2 0x1EFD JUMP JUMPDEST PUSH2 0x94C JUMP JUMPDEST STOP JUMPDEST CALLVALUE DUP1 ISZERO PUSH2 0x2FB JUMPI PUSH1 0x0 DUP1 REVERT JUMPDEST POP PUSH2 0x304 PUSH2 0x9BA JUMP JUMPDEST PUSH1 0x40 MLOAD PUSH2 0x311 SWAP2 SWAP1 PUSH2 0x1E18 JUMP JUMPDEST PUSH1 0x40 MLOAD DUP1 SWAP2 SUB SWAP1 RETURN JUMPDEST CALLVALUE DUP1 ISZERO PUSH2 0x326 JUMPI PUSH1 0x0 DUP1 REVERT JUMPDEST POP PUSH2 0x32F PUSH2 0x9C4 JUMP JUMPDEST STOP JUMPDEST CALLVALUE DUP1 ISZERO PUSH2 0x33D JUMPI PUSH1 0x0 DUP1 REVERT JUMPDEST POP PUSH2 0x346 PUSH2 0x9D8 JUMP JUMPDEST PUSH1 0x40 MLOAD PUSH2 0x353 SWAP2 SWAP1 PUSH2 0x1F3D JUMP JUMPDEST PUSH1 0x40 MLOAD DUP1 SWAP2 SUB SWAP1 RETURN JUMPDEST CALLVALUE DUP1 ISZERO PUSH2 0x368 JUMPI PUSH1 0x0 DUP1 REVERT JUMPDEST POP PUSH2 0x383 PUSH1 0x4 DUP1 CALLDATASIZE SUB DUP2 ADD SWAP1 PUSH2 0x37E SWAP2 SWAP1 PUSH2 0x1E33 JUMP JUMPDEST PUSH2 0xA02 JUMP JUMPDEST PUSH1 0x40 MLOAD PUSH2 0x390 SWAP2 SWAP1 PUSH2 0x2279 JUMP JUMPDEST PUSH1 0x40 MLOAD DUP1 SWAP2 SUB SWAP1 RETURN JUMPDEST CALLVALUE DUP1 ISZERO PUSH2 0x3A5 JUMPI PUSH1 0x0 DUP1 REVERT JUMPDEST POP PUSH2 0x3AE PUSH2 0xEF5 JUMP JUMPDEST PUSH1 0x40 MLOAD PUSH2 0x3BB SWAP2 SWAP1 PUSH2 0x1F3D JUMP JUMPDEST PUSH1 0x40 MLOAD DUP1 SWAP2 SUB SWAP1 RETURN JUMPDEST CALLVALUE DUP1 ISZERO PUSH2 0x3D0 JUMPI PUSH1 0x0 DUP1 REVERT JUMPDEST POP PUSH2 0x3EB PUSH1 0x4 DUP1 CALLDATASIZE SUB DUP2 ADD SWAP1 PUSH2 0x3E6 SWAP2 SWAP1 PUSH2 0x231F JUMP JUMPDEST PUSH2 0xF1E JUMP JUMPDEST STOP JUMPDEST CALLVALUE DUP1 ISZERO PUSH2 0x3F9 JUMPI PUSH1 0x0 DUP1 REVERT JUMPDEST POP PUSH2 0x414 PUSH1 0x4 DUP1 CALLDATASIZE SUB DUP2 ADD SWAP1 PUSH2 0x40F SWAP2 SWAP1 PUSH2 0x2419 JUMP JUMPDEST PUSH2 0x10A0 JUMP JUMPDEST STOP JUMPDEST PUSH2 0x430 PUSH1 0x4 DUP1 CALLDATASIZE SUB DUP2 ADD SWAP1 PUSH2 0x42B SWAP2 SWAP1 PUSH2 0x2475 JUMP JUMPDEST PUSH2 0x1103 JUMP JUMPDEST PUSH1 0x40 MLOAD PUSH2 0x43D SWAP2 SWAP1 PUSH2 0x1E18 JUMP JUMPDEST PUSH1 0x40 MLOAD DUP1 SWAP2 SUB SWAP1 RETURN JUMPDEST CALLVALUE DUP1 ISZERO PUSH2 0x452 JUMPI PUSH1 0x0 DUP1 REVERT JUMPDEST POP PUSH2 0x46D PUSH1 0x4 DUP1 CALLDATASIZE SUB DUP2 ADD SWAP1 PUSH2 0x468 SWAP2 SWAP1 PUSH2 0x2547 JUMP JUMPDEST PUSH2 0x1318 JUMP JUMPDEST STOP JUMPDEST CALLVALUE DUP1 ISZERO PUSH2 0x47B JUMPI PUSH1 0x0 DUP1 REVERT JUMPDEST POP PUSH2 0x496 PUSH1 0x4 DUP1 CALLDATASIZE SUB DUP2 ADD SWAP1 PUSH2 0x491 SWAP2 SWAP1 PUSH2 0x1C70 JUMP JUMPDEST PUSH2 0x13AA JUMP JUMPDEST STOP JUMPDEST CALLVALUE DUP1 ISZERO PUSH2 0x4A4 JUMPI PUSH1 0x0 DUP1 REVERT JUMPDEST POP PUSH2 0x4BF PUSH1 0x4 DUP1 CALLDATASIZE SUB DUP2 ADD SWAP1 PUSH2 0x4BA SWAP2 SWAP1 PUSH2 0x1CDC JUMP JUMPDEST PUSH2 0x1424 JUMP JUMPDEST STOP JUMPDEST PUSH2 0x4C9 PUSH2 0x15FD JUMP JUMPDEST PUSH1 0x0 PUSH1 0x1 PUSH1 0x0 DUP6 DUP2 MSTORE PUSH1 0x20 ADD SWAP1 DUP2 MSTORE PUSH1 0x20 ADD PUSH1 0x0 KECCAK256 PUSH1 0x7 ADD PUSH1 0x0 SWAP1 SLOAD SWAP1 PUSH2 0x100 EXP SWAP1 DIV PUSH20 0xFFFFFFFFFFFFFFFFFFFFFFFFFFFFFFFFFFFFFFFF AND SWAP1 POP DUP1 PUSH20 0xFFFFFFFFFFFFFFFFFFFFFFFFFFFFFFFFFFFFFFFF AND PUSH4 0x13E86265 DUP6 DUP6 PUSH1 0x40 MLOAD DUP4 PUSH4 0xFFFFFFFF AND PUSH1 0xE0 SHL DUP2 MSTORE PUSH1 0x4 ADD PUSH2 0x53F SWAP3 SWAP2 SWAP1 PUSH2 0x2596 JUMP JUMPDEST PUSH1 0x0 PUSH1 0x40 MLOAD DUP1 DUP4 SUB DUP2 DUP7 GAS STATICCALL ISZERO DUP1 ISZERO PUSH2 0x55C JUMPI RETURNDATASIZE PUSH1 0x0 DUP1 RETURNDATACOPY RETURNDATASIZE PUSH1 0x0 REVERT JUMPDEST POP POP POP POP PUSH1 0x40 MLOAD RETURNDATASIZE PUSH1 0x0 DUP3 RETURNDATACOPY RETURNDATASIZE PUSH1 0x1F NOT PUSH1 0x1F DUP3 ADD AND DUP3 ADD DUP1 PUSH1 0x40 MSTORE POP DUP2 ADD SWAP1 PUSH2 0x585 SWAP2 SWAP1 PUSH2 0x2B21 JUMP JUMPDEST SWAP2 POP POP SWAP3 SWAP2 POP POP JUMP JUMPDEST PUSH1 0x0 PUSH1 0x1 PUSH1 0x0 DUP5 DUP2 MSTORE PUSH1 0x20 ADD SWAP1 DUP2 MSTORE PUSH1 0x20 ADD PUSH1 0x0 KECCAK256 PUSH1 0x6 ADD SWAP1 POP PUSH1 0x0 JUMPDEST DUP2 DUP1 SLOAD SWAP1 POP DUP2 LT ISZERO PUSH2 0x69E JUMPI DUP3 DUP3 DUP3 DUP2 SLOAD DUP2 LT PUSH2 0x5CB JUMPI PUSH2 0x5CA PUSH2 0x2B6A JUMP JUMPDEST JUMPDEST SWAP1 PUSH1 0x0 MSTORE PUSH1 0x20 PUSH1 0x0 KECCAK256 ADD SLOAD SUB PUSH2 0x691 JUMPI DUP2 PUSH1 0x1 DUP4 DUP1 SLOAD SWAP1 POP PUSH2 0x5ED SWAP2 SWAP1 PUSH2 0x2BC8 JUMP JUMPDEST DUP2 SLOAD DUP2 LT PUSH2 0x5FE JUMPI PUSH2 0x5FD PUSH2 0x2B6A JUMP JUMPDEST JUMPDEST SWAP1 PUSH1 0x0 MSTORE PUSH1 0x20 PUSH1 0x0 KECCAK256 ADD SLOAD DUP3 DUP3 DUP2 SLOAD DUP2 LT PUSH2 0x61C JUMPI PUSH2 0x61B PUSH2 0x2B6A JUMP JUMPDEST JUMPDEST SWAP1 PUSH1 0x0 MSTORE PUSH1 0x20 PUSH1 0x0 KECCAK256 ADD DUP2 SWAP1 SSTORE POP DUP2 DUP1 SLOAD DUP1 PUSH2 0x63B JUMPI PUSH2 0x63A PUSH2 0x2BFC JUMP JUMPDEST JUMPDEST PUSH1 0x1 SWAP1 SUB DUP2 DUP2 SWAP1 PUSH1 0x0 MSTORE PUSH1 0x20 PUSH1 0x0 KECCAK256 ADD PUSH1 0x0 SWAP1 SSTORE SWAP1 SSTORE PUSH32 0x2264FA092E5819982F4EDCA5B7E9C6318A16DC3E03673510429C078656DEA45C DUP5 DUP5 PUSH1 0x40 MLOAD PUSH2 0x682 SWAP3 SWAP2 SWAP1 PUSH2 0x2C2B JUMP JUMPDEST PUSH1 0x40 MLOAD DUP1 SWAP2 SUB SWAP1 LOG1 POP POP PUSH2 0x6DC JUMP JUMPDEST DUP1 DUP1 PUSH1 0x1 ADD SWAP2 POP POP PUSH2 0x5AB JUMP JUMPDEST POP DUP2 PUSH1 0x40 MLOAD PUSH32 0x84CE930A00000000000000000000000000000000000000000000000000000000 DUP2 MSTORE PUSH1 0x4 ADD PUSH2 0x6D3 SWAP2 SWAP1 PUSH2 0x1E18 JUMP JUMPDEST PUSH1 0x40 MLOAD DUP1 SWAP2 SUB SWAP1 REVERT JUMPDEST POP POP JUMP JUMPDEST PUSH2 0x6E8 PUSH2 0x14AA JUMP JUMPDEST DUP1 PUSH1 0x4 PUSH1 0x0 PUSH2 0x100 EXP DUP2 SLOAD DUP2 PUSH20 0xFFFFFFFFFFFFFFFFFFFFFFFFFFFFFFFFFFFFFFFF MUL NOT AND SWAP1 DUP4 PUSH20 0xFFFFFFFFFFFFFFFFFFFFFFFFFFFFFFFFFFFFFFFF AND MUL OR SWAP1 SSTORE POP PUSH32 0x2F165C01002D221752E275A87B6ED91DF7C1B198B0BBE0E93DD28C7C834A08CC DUP2 PUSH1 0x40 MLOAD PUSH2 0x758 SWAP2 SWAP1 PUSH2 0x1F3D JUMP JUMPDEST PUSH1 0x40 MLOAD DUP1 SWAP2 SUB SWAP1 LOG1 POP JUMP JUMPDEST DUP1 PUSH1 0x1 PUSH1 0x0 DUP5 DUP2 MSTORE PUSH1 0x20 ADD SWAP1 DUP2 MSTORE PUSH1 0x20 ADD PUSH1 0x0 KECCAK256 PUSH1 0x0 ADD DUP2 DUP2 PUSH2 0x786 SWAP2 SWAP1 PUSH2 0x3501 JUMP JUMPDEST SWAP1 POP POP PUSH32 0x94AAC65D269F9059E59AC9AFF9CFFE22DC1907D1F2AC8F6A9DDE667D8A0EB044 DUP3 DUP3 PUSH1 0x40 MLOAD PUSH2 0x7BA SWAP3 SWAP2 SWAP1 PUSH2 0x3767 JUMP JUMPDEST PUSH1 0x40 MLOAD DUP1 SWAP2 SUB SWAP1 LOG1 POP POP JUMP JUMPDEST PUSH2 0x7CE PUSH2 0x14AA JUMP JUMPDEST PUSH1 0x0 PUSH1 0x1 PUSH1 0x0 DUP6 DUP2 MSTORE PUSH1 0x20 ADD SWAP1 DUP2 MSTORE PUSH1 0x20 ADD PUSH1 0x0 KECCAK256 PUSH1 0x7 ADD PUSH1 0x0 SWAP1 SLOAD SWAP1 PUSH2 0x100 EXP SWAP1 DIV PUSH20 0xFFFFFFFFFFFFFFFFFFFFFFFFFFFFFFFFFFFFFFFF AND SWAP1 POP DUP1 PUSH20 0xFFFFFFFFFFFFFFFFFFFFFFFFFFFFFFFFFFFFFFFF AND PUSH4 0x3C973F75 DUP6 DUP6 DUP6 PUSH1 0x40 MLOAD DUP5 PUSH4 0xFFFFFFFF AND PUSH1 0xE0 SHL DUP2 MSTORE PUSH1 0x4 ADD PUSH2 0x846 SWAP4 SWAP3 SWAP2 SWAP1 PUSH2 0x3AD4 JUMP JUMPDEST PUSH1 0x0 PUSH1 0x40 MLOAD DUP1 DUP4 SUB DUP2 PUSH1 0x0 DUP8 DUP1 EXTCODESIZE ISZERO DUP1 ISZERO PUSH2 0x860 JUMPI PUSH1 0x0 DUP1 REVERT JUMPDEST POP GAS CALL ISZERO DUP1 ISZERO PUSH2 0x874 JUMPI RETURNDATASIZE PUSH1 0x0 DUP1 RETURNDATACOPY RETURNDATASIZE PUSH1 0x0 REVERT JUMPDEST POP POP POP POP POP POP POP POP JUMP JUMPDEST PUSH1 0x0 PUSH1 0x2 SLOAD SWAP1 POP SWAP1 JUMP JUMPDEST PUSH2 0x890 PUSH2 0x14AA JUMP JUMPDEST DUP1 PUSH1 0x2 DUP2 SWAP1 SSTORE POP PUSH32 0xAC9C054628BA106D4664C2C08386354E161EAB546A0A47FAF040BFC1062845E7 DUP2 PUSH1 0x40 MLOAD PUSH2 0x8C6 SWAP2 SWAP1 PUSH2 0x1E18 JUMP JUMPDEST PUSH1 0x40 MLOAD DUP1 SWAP2 SUB SWAP1 LOG1 POP JUMP JUMPDEST DUP1 PUSH1 0x1 PUSH1 0x0 DUP5 DUP2 MSTORE PUSH1 0x20 ADD SWAP1 DUP2 MSTORE PUSH1 0x20 ADD PUSH1 0x0 KECCAK256 PUSH1 0x7 ADD PUSH1 0x14 PUSH2 0x100 EXP DUP2 SLOAD DUP2 PUSH1 0xFF MUL NOT AND SWAP1 DUP4 PUSH1 0x1 DUP2 GT ISZERO PUSH2 0x90A JUMPI PUSH2 0x909 PUSH2 0x1FD8 JUMP JUMPDEST JUMPDEST MUL OR SWAP1 SSTORE POP PUSH32 0xEAEEE81CA4B132C1F2699CF2E7F71C26ADB6FFE780097AC7D6E9DDF978398B62 DUP3 DUP3 PUSH1 0x40 MLOAD PUSH2 0x940 SWAP3 SWAP2 SWAP1 PUSH2 0x3B21 JUMP JUMPDEST PUSH1 0x40 MLOAD DUP1 SWAP2 SUB SWAP1 LOG1 POP POP JUMP JUMPDEST DUP1 PUSH1 0x1 PUSH1 0x0 DUP5 DUP2 MSTORE PUSH1 0x20 ADD SWAP1 DUP2 MSTORE PUSH1 0x20 ADD PUSH1 0x0 KECCAK256 PUSH1 0x0 ADD PUSH1 0x3 ADD PUSH1 0x0 PUSH2 0x100 EXP DUP2 SLOAD DUP2 PUSH1 0xFF MUL NOT AND SWAP1 DUP4 ISZERO ISZERO MUL OR SWAP1 SSTORE POP PUSH32 0xED2F2C7A2316DDC2F46A4581250611F807810052BB38BEF2FBD1A81D087E064B DUP3 DUP3 PUSH1 0x40 MLOAD PUSH2 0x9AE SWAP3 SWAP2 SWAP1 PUSH2 0x3B59 JUMP JUMPDEST PUSH1 0x40 MLOAD DUP1 SWAP2 SUB SWAP1 LOG1 POP POP JUMP JUMPDEST PUSH1 0x0 PUSH1 0x3 SLOAD SWAP1 POP SWAP1 JUMP JUMPDEST PUSH2 0x9CC PUSH2 0x14AA JUMP JUMPDEST PUSH2 0x9D6 PUSH1 0x0 PUSH2 0x1531 JUMP JUMPDEST JUMP JUMPDEST PUSH1 0x0 PUSH1 0x4 PUSH1 0x0 SWAP1 SLOAD SWAP1 PUSH2 0x100 EXP SWAP1 DIV PUSH20 0xFFFFFFFFFFFFFFFFFFFFFFFFFFFFFFFFFFFFFFFF AND SWAP1 POP SWAP1 JUMP JUMPDEST PUSH2 0xA0A PUSH2 0x164C JUMP JUMPDEST PUSH1 0x1 PUSH1 0x0 DUP4 DUP2 MSTORE PUSH1 0x20 ADD SWAP1 DUP2 MSTORE PUSH1 0x20 ADD PUSH1 0x0 KECCAK256 PUSH1 0x40 MLOAD DUP1 PUSH1 0xC0 ADD PUSH1 0x40 MSTORE SWAP1 DUP2 PUSH1 0x0 DUP3 ADD PUSH1 0x40 MLOAD DUP1 PUSH1 0x80 ADD PUSH1 0x40 MSTORE SWAP1 DUP2 PUSH1 0x0 DUP3 ADD DUP1 SLOAD PUSH2 0xA48 SWAP1 PUSH2 0x2D2F JUMP JUMPDEST DUP1 PUSH1 0x1F ADD PUSH1 0x20 DUP1 SWAP2 DIV MUL PUSH1 0x20 ADD PUSH1 0x40 MLOAD SWAP1 DUP2 ADD PUSH1 0x40 MSTORE DUP1 SWAP3 SWAP2 SWAP1 DUP2 DUP2 MSTORE PUSH1 0x20 ADD DUP3 DUP1 SLOAD PUSH2 0xA74 SWAP1 PUSH2 0x2D2F JUMP JUMPDEST DUP1 ISZERO PUSH2 0xAC1 JUMPI DUP1 PUSH1 0x1F LT PUSH2 0xA96 JUMPI PUSH2 0x100 DUP1 DUP4 SLOAD DIV MUL DUP4 MSTORE SWAP2 PUSH1 0x20 ADD SWAP2 PUSH2 0xAC1 JUMP JUMPDEST DUP3 ADD SWAP2 SWAP1 PUSH1 0x0 MSTORE PUSH1 0x20 PUSH1 0x0 KECCAK256 SWAP1 JUMPDEST DUP2 SLOAD DUP2 MSTORE SWAP1 PUSH1 0x1 ADD SWAP1 PUSH1 0x20 ADD DUP1 DUP4 GT PUSH2 0xAA4 JUMPI DUP3 SWAP1 SUB PUSH1 0x1F AND DUP3 ADD SWAP2 JUMPDEST POP POP POP POP POP DUP2 MSTORE PUSH1 0x20 ADD PUSH1 0x1 DUP3 ADD DUP1 SLOAD PUSH2 0xADA SWAP1 PUSH2 0x2D2F JUMP JUMPDEST DUP1 PUSH1 0x1F ADD PUSH1 0x20 DUP1 SWAP2 DIV MUL PUSH1 0x20 ADD PUSH1 0x40 MLOAD SWAP1 DUP2 ADD PUSH1 0x40 MSTORE DUP1 SWAP3 SWAP2 SWAP1 DUP2 DUP2 MSTORE PUSH1 0x20 ADD DUP3 DUP1 SLOAD PUSH2 0xB06 SWAP1 PUSH2 0x2D2F JUMP JUMPDEST DUP1 ISZERO PUSH2 0xB53 JUMPI DUP1 PUSH1 0x1F LT PUSH2 0xB28 JUMPI PUSH2 0x100 DUP1 DUP4 SLOAD DIV MUL DUP4 MSTORE SWAP2 PUSH1 0x20 ADD SWAP2 PUSH2 0xB53 JUMP JUMPDEST DUP3 ADD SWAP2 SWAP1 PUSH1 0x0 MSTORE PUSH1 0x20 PUSH1 0x0 KECCAK256 SWAP1 JUMPDEST DUP2 SLOAD DUP2 MSTORE SWAP1 PUSH1 0x1 ADD SWAP1 PUSH1 0x20 ADD DUP1 DUP4 GT PUSH2 0xB36 JUMPI DUP3 SWAP1 SUB PUSH1 0x1F AND DUP3 ADD SWAP2 JUMPDEST POP POP POP POP POP DUP2 MSTORE PUSH1 0x20 ADD PUSH1 0x2 DUP3 ADD DUP1 SLOAD DUP1 PUSH1 0x20 MUL PUSH1 0x20 ADD PUSH1 0x40 MLOAD SWAP1 DUP2 ADD PUSH1 0x40 MSTORE DUP1 SWAP3 SWAP2 SWAP1 DUP2 DUP2 MSTORE PUSH1 0x20 ADD PUSH1 0x0 SWAP1 JUMPDEST DUP3 DUP3 LT ISZERO PUSH2 0xC2D JUMPI DUP4 DUP3 SWAP1 PUSH1 0x0 MSTORE PUSH1 0x20 PUSH1 0x0 KECCAK256 ADD DUP1 SLOAD PUSH2 0xBA0 SWAP1 PUSH2 0x2D2F JUMP JUMPDEST DUP1 PUSH1 0x1F ADD PUSH1 0x20 DUP1 SWAP2 DIV MUL PUSH1 0x20 ADD PUSH1 0x40 MLOAD SWAP1 DUP2 ADD PUSH1 0x40 MSTORE DUP1 SWAP3 SWAP2 SWAP1 DUP2 DUP2 MSTORE PUSH1 0x20 ADD DUP3 DUP1 SLOAD PUSH2 0xBCC SWAP1 PUSH2 0x2D2F JUMP JUMPDEST DUP1 ISZERO PUSH2 0xC19 JUMPI DUP1 PUSH1 0x1F LT PUSH2 0xBEE JUMPI PUSH2 0x100 DUP1 DUP4 SLOAD DIV MUL DUP4 MSTORE SWAP2 PUSH1 0x20 ADD SWAP2 PUSH2 0xC19 JUMP JUMPDEST DUP3 ADD SWAP2 SWAP1 PUSH1 0x0 MSTORE PUSH1 0x20 PUSH1 0x0 KECCAK256 SWAP1 JUMPDEST DUP2 SLOAD DUP2 MSTORE SWAP1 PUSH1 0x1 ADD SWAP1 PUSH1 0x20 ADD DUP1 DUP4 GT PUSH2 0xBFC JUMPI DUP3 SWAP1 SUB PUSH1 0x1F AND DUP3 ADD SWAP2 JUMPDEST POP POP POP POP POP DUP2 MSTORE PUSH1 0x20 ADD SWAP1 PUSH1 0x1 ADD SWAP1 PUSH2 0xB81 JUMP JUMPDEST POP POP POP POP DUP2 MSTORE PUSH1 0x20 ADD PUSH1 0x3 DUP3 ADD PUSH1 0x0 SWAP1 SLOAD SWAP1 PUSH2 0x100 EXP SWAP1 DIV PUSH1 0xFF AND ISZERO ISZERO ISZERO ISZERO DUP2 MSTORE POP POP DUP2 MSTORE PUSH1 0x20 ADD PUSH1 0x4 DUP3 ADD PUSH1 0x40 MLOAD DUP1 PUSH1 0x40 ADD PUSH1 0x40 MSTORE SWAP1 DUP2 PUSH1 0x0 DUP3 ADD PUSH1 0x0 SWAP1 SLOAD SWAP1 PUSH2 0x100 EXP SWAP1 DIV PUSH1 0xFF AND PUSH1 0x5 DUP2 GT ISZERO PUSH2 0xC89 JUMPI PUSH2 0xC88 PUSH2 0x1FD8 JUMP JUMPDEST JUMPDEST PUSH1 0x5 DUP2 GT ISZERO PUSH2 0xC9B JUMPI PUSH2 0xC9A PUSH2 0x1FD8 JUMP JUMPDEST JUMPDEST DUP2 MSTORE PUSH1 0x20 ADD PUSH1 0x1 DUP3 ADD DUP1 SLOAD DUP1 PUSH1 0x20 MUL PUSH1 0x20 ADD PUSH1 0x40 MLOAD SWAP1 DUP2 ADD PUSH1 0x40 MSTORE DUP1 SWAP3 SWAP2 SWAP1 DUP2 DUP2 MSTORE PUSH1 0x20 ADD PUSH1 0x0 SWAP1 JUMPDEST DUP3 DUP3 LT ISZERO PUSH2 0xDDE JUMPI DUP4 DUP3 SWAP1 PUSH1 0x0 MSTORE PUSH1 0x20 PUSH1 0x0 KECCAK256 SWAP1 PUSH1 0x2 MUL ADD PUSH1 0x40 MLOAD DUP1 PUSH1 0x40 ADD PUSH1 0x40 MSTORE SWAP1 DUP2 PUSH1 0x0 DUP3 ADD DUP1 SLOAD PUSH2 0xCF7 SWAP1 PUSH2 0x2D2F JUMP JUMPDEST DUP1 PUSH1 0x1F ADD PUSH1 0x20 DUP1 SWAP2 DIV MUL PUSH1 0x20 ADD PUSH1 0x40 MLOAD SWAP1 DUP2 ADD PUSH1 0x40 MSTORE DUP1 SWAP3 SWAP2 SWAP1 DUP2 DUP2 MSTORE PUSH1 0x20 ADD DUP3 DUP1 SLOAD PUSH2 0xD23 SWAP1 PUSH2 0x2D2F JUMP JUMPDEST DUP1 ISZERO PUSH2 0xD70 JUMPI DUP1 PUSH1 0x1F LT PUSH2 0xD45 JUMPI PUSH2 0x100 DUP1 DUP4 SLOAD DIV MUL DUP4 MSTORE SWAP2 PUSH1 0x20 ADD SWAP2 PUSH2 0xD70 JUMP JUMPDEST DUP3 ADD SWAP2 SWAP1 PUSH1 0x0 MSTORE PUSH1 0x20 PUSH1 0x0 KECCAK256 SWAP1 JUMPDEST DUP2 SLOAD DUP2 MSTORE SWAP1 PUSH1 0x1 ADD SWAP1 PUSH1 0x20 ADD DUP1 DUP4 GT PUSH2 0xD53 JUMPI DUP3 SWAP1 SUB PUSH1 0x1F AND DUP3 ADD SWAP2 JUMPDEST POP POP POP POP POP DUP2 MSTORE PUSH1 0x20 ADD PUSH1 0x1 DUP3 ADD PUSH1 0x0 SWAP1 SLOAD SWAP1 PUSH2 0x100 EXP SWAP1 DIV PUSH20 0xFFFFFFFFFFFFFFFFFFFFFFFFFFFFFFFFFFFFFFFF AND PUSH20 0xFFFFFFFFFFFFFFFFFFFFFFFFFFFFFFFFFFFFFFFF AND PUSH20 0xFFFFFFFFFFFFFFFFFFFFFFFFFFFFFFFFFFFFFFFF AND DUP2 MSTORE POP POP DUP2 MSTORE PUSH1 0x20 ADD SWAP1 PUSH1 0x1 ADD SWAP1 PUSH2 0xCC4 JUMP JUMPDEST POP POP POP POP DUP2 MSTORE POP POP DUP2 MSTORE PUSH1 0x20 ADD PUSH1 0x6 DUP3 ADD DUP1 SLOAD DUP1 PUSH1 0x20 MUL PUSH1 0x20 ADD PUSH1 0x40 MLOAD SWAP1 DUP2 ADD PUSH1 0x40 MSTORE DUP1 SWAP3 SWAP2 SWAP1 DUP2 DUP2 MSTORE PUSH1 0x20 ADD DUP3 DUP1 SLOAD DUP1 ISZERO PUSH2 0xE39 JUMPI PUSH1 0x20 MUL DUP3 ADD SWAP2 SWAP1 PUSH1 0x0 MSTORE PUSH1 0x20 PUSH1 0x0 KECCAK256 SWAP1 JUMPDEST DUP2 SLOAD DUP2 MSTORE PUSH1 0x20 ADD SWAP1 PUSH1 0x1 ADD SWAP1 DUP1 DUP4 GT PUSH2 0xE25 JUMPI JUMPDEST POP POP POP POP POP DUP2 MSTORE PUSH1 0x20 ADD PUSH1 0x7 DUP3 ADD PUSH1 0x0 SWAP1 SLOAD SWAP1 PUSH2 0x100 EXP SWAP1 DIV PUSH20 0xFFFFFFFFFFFFFFFFFFFFFFFFFFFFFFFFFFFFFFFF AND PUSH20 0xFFFFFFFFFFFFFFFFFFFFFFFFFFFFFFFFFFFFFFFF AND PUSH20 0xFFFFFFFFFFFFFFFFFFFFFFFFFFFFFFFFFFFFFFFF AND DUP2 MSTORE PUSH1 0x20 ADD PUSH1 0x7 DUP3 ADD PUSH1 0x14 SWAP1 SLOAD SWAP1 PUSH2 0x100 EXP SWAP1 DIV PUSH1 0xFF AND PUSH1 0x1 DUP2 GT ISZERO PUSH2 0xEBD JUMPI PUSH2 0xEBC PUSH2 0x1FD8 JUMP JUMPDEST JUMPDEST PUSH1 0x1 DUP2 GT ISZERO PUSH2 0xECF JUMPI PUSH2 0xECE PUSH2 0x1FD8 JUMP JUMPDEST JUMPDEST DUP2 MSTORE PUSH1 0x20 ADD PUSH1 0x7 DUP3 ADD PUSH1 0x15 SWAP1 SLOAD SWAP1 PUSH2 0x100 EXP SWAP1 DIV PUSH1 0xFF AND ISZERO ISZERO ISZERO ISZERO DUP2 MSTORE POP POP SWAP1 POP SWAP2 SWAP1 POP JUMP JUMPDEST PUSH1 0x0 DUP1 PUSH1 0x0 SWAP1 SLOAD SWAP1 PUSH2 0x100 EXP SWAP1 DIV PUSH20 0xFFFFFFFFFFFFFFFFFFFFFFFFFFFFFFFFFFFFFFFF AND SWAP1 POP SWAP1 JUMP JUMPDEST PUSH2 0xF26 PUSH2 0x14AA JUMP JUMPDEST PUSH1 0x0 PUSH1 0x1 PUSH1 0x0 DUP11 DUP2 MSTORE PUSH1 0x20 ADD SWAP1 DUP2 MSTORE PUSH1 0x20 ADD PUSH1 0x0 KECCAK256 SWAP1 POP DUP8 DUP2 PUSH1 0x0 ADD DUP2 DUP2 PUSH2 0xF4E SWAP2 SWAP1 PUSH2 0x3501 JUMP JUMPDEST SWAP1 POP POP DUP7 DUP2 PUSH1 0x4 ADD DUP2 DUP2 PUSH2 0xF62 SWAP2 SWAP1 PUSH2 0x3F59 JUMP JUMPDEST SWAP1 POP POP DUP4 DUP2 PUSH1 0x7 ADD PUSH1 0x0 PUSH2 0x100 EXP DUP2 SLOAD DUP2 PUSH20 0xFFFFFFFFFFFFFFFFFFFFFFFFFFFFFFFFFFFFFFFF MUL NOT AND SWAP1 DUP4 PUSH20 0xFFFFFFFFFFFFFFFFFFFFFFFFFFFFFFFFFFFFFFFF AND MUL OR SWAP1 SSTORE POP DUP3 DUP2 PUSH1 0x7 ADD PUSH1 0x14 PUSH2 0x100 EXP DUP2 SLOAD DUP2 PUSH1 0xFF MUL NOT AND SWAP1 DUP4 PUSH1 0x1 DUP2 GT ISZERO PUSH2 0xFCF JUMPI PUSH2 0xFCE PUSH2 0x1FD8 JUMP JUMPDEST JUMPDEST MUL OR SWAP1 SSTORE POP DUP2 DUP2 PUSH1 0x7 ADD PUSH1 0x15 PUSH2 0x100 EXP DUP2 SLOAD DUP2 PUSH1 0xFF MUL NOT AND SWAP1 DUP4 ISZERO ISZERO MUL OR SWAP1 SSTORE POP DUP1 PUSH1 0x6 ADD PUSH1 0x0 PUSH2 0x1000 SWAP2 SWAP1 PUSH2 0x16B8 JUMP JUMPDEST PUSH1 0x0 JUMPDEST DUP7 DUP7 SWAP1 POP DUP2 LT ISZERO PUSH2 0x105D JUMPI DUP2 PUSH1 0x6 ADD DUP8 DUP8 DUP4 DUP2 DUP2 LT PUSH2 0x1025 JUMPI PUSH2 0x1024 PUSH2 0x2B6A JUMP JUMPDEST JUMPDEST SWAP1 POP PUSH1 0x20 MUL ADD CALLDATALOAD SWAP1 DUP1 PUSH1 0x1 DUP2 SLOAD ADD DUP1 DUP3 SSTORE DUP1 SWAP2 POP POP PUSH1 0x1 SWAP1 SUB SWAP1 PUSH1 0x0 MSTORE PUSH1 0x20 PUSH1 0x0 KECCAK256 ADD PUSH1 0x0 SWAP1 SWAP2 SWAP1 SWAP2 SWAP1 SWAP2 POP SSTORE DUP1 PUSH1 0x1 ADD SWAP1 POP PUSH2 0x1003 JUMP JUMPDEST POP PUSH32 0x887CC86755221DB77FB9A404D4834A6CA76A28DF7C71C7650318819AD0F46A3C DUP10 PUSH1 0x40 MLOAD PUSH2 0x108D SWAP2 SWAP1 PUSH2 0x1E18 JUMP JUMPDEST PUSH1 0x40 MLOAD DUP1 SWAP2 SUB SWAP1 LOG1 POP POP POP POP POP POP POP POP POP JUMP JUMPDEST DUP1 PUSH1 0x1 PUSH1 0x0 DUP5 DUP2 MSTORE PUSH1 0x20 ADD SWAP1 DUP2 MSTORE PUSH1 0x20 ADD PUSH1 0x0 KECCAK256 PUSH1 0x4 ADD DUP2 DUP2 PUSH2 0x10C3 SWAP2 SWAP1 PUSH2 0x3F59 JUMP JUMPDEST SWAP1 POP POP PUSH32 0xE9792EEE54764D34581473A0E844E57F5E07FA14E6D375C1F542B383CE48F0B7 DUP3 DUP3 PUSH1 0x40 MLOAD PUSH2 0x10F7 SWAP3 SWAP2 SWAP1 PUSH2 0x4168 JUMP JUMPDEST PUSH1 0x40 MLOAD DUP1 SWAP2 SUB SWAP1 LOG1 POP POP JUMP JUMPDEST PUSH1 0x0 PUSH1 0x2 SLOAD CALLVALUE EQ PUSH2 0x114F JUMPI PUSH1 0x2 SLOAD CALLVALUE PUSH1 0x40 MLOAD PUSH32 0xCE6B173B00000000000000000000000000000000000000000000000000000000 DUP2 MSTORE PUSH1 0x4 ADD PUSH2 0x1146 SWAP3 SWAP2 SWAP1 PUSH2 0x2C2B JUMP JUMPDEST PUSH1 0x40 MLOAD DUP1 SWAP2 SUB SWAP1 REVERT JUMPDEST PUSH32 0xE1FFFCC4923D04B559F4D29A8BFC6CDA04EB5B0D3C460751C2402C5C5CC9109C CALLER CALLVALUE PUSH1 0x40 MLOAD PUSH2 0x1180 SWAP3 SWAP2 SWAP1 PUSH2 0x17A6 JUMP JUMPDEST PUSH1 0x40 MLOAD DUP1 SWAP2 SUB SWAP1 LOG1 PUSH1 0x0 PUSH1 0x3 SLOAD SWAP1 POP PUSH1 0x0 PUSH1 0x1 PUSH1 0x0 DUP4 DUP2 MSTORE PUSH1 0x20 ADD SWAP1 DUP2 MSTORE PUSH1 0x20 ADD PUSH1 0x0 KECCAK256 SWAP1 POP DUP9 DUP2 PUSH1 0x0 ADD DUP2 DUP2 PUSH2 0x11B7 SWAP2 SWAP1 PUSH2 0x3501 JUMP JUMPDEST SWAP1 POP POP DUP8 DUP2 PUSH1 0x4 ADD DUP2 DUP2 PUSH2 0x11CB SWAP2 SWAP1 PUSH2 0x3F59 JUMP JUMPDEST SWAP1 POP POP DUP5 DUP2 PUSH1 0x7 ADD PUSH1 0x0 PUSH2 0x100 EXP DUP2 SLOAD DUP2 PUSH20 0xFFFFFFFFFFFFFFFFFFFFFFFFFFFFFFFFFFFFFFFF MUL NOT AND SWAP1 DUP4 PUSH20 0xFFFFFFFFFFFFFFFFFFFFFFFFFFFFFFFFFFFFFFFF AND MUL OR SWAP1 SSTORE POP DUP4 DUP2 PUSH1 0x7 ADD PUSH1 0x14 PUSH2 0x100 EXP DUP2 SLOAD DUP2 PUSH1 0xFF MUL NOT AND SWAP1 DUP4 PUSH1 0x1 DUP2 GT ISZERO PUSH2 0x1238 JUMPI PUSH2 0x1237 PUSH2 0x1FD8 JUMP JUMPDEST JUMPDEST MUL OR SWAP1 SSTORE POP PUSH1 0x0 DUP2 PUSH1 0x7 ADD PUSH1 0x15 PUSH2 0x100 EXP DUP2 SLOAD DUP2 PUSH1 0xFF MUL NOT AND SWAP1 DUP4 ISZERO ISZERO MUL OR SWAP1 SSTORE POP PUSH1 0x0 JUMPDEST DUP8 DUP8 SWAP1 POP DUP2 LT ISZERO PUSH2 0x12B7 JUMPI DUP2 PUSH1 0x6 ADD DUP9 DUP9 DUP4 DUP2 DUP2 LT PUSH2 0x127F JUMPI PUSH2 0x127E PUSH2 0x2B6A JUMP JUMPDEST JUMPDEST SWAP1 POP PUSH1 0x20 MUL ADD CALLDATALOAD SWAP1 DUP1 PUSH1 0x1 DUP2 SLOAD ADD DUP1 DUP3 SSTORE DUP1 SWAP2 POP POP PUSH1 0x1 SWAP1 SUB SWAP1 PUSH1 0x0 MSTORE PUSH1 0x20 PUSH1 0x0 KECCAK256 ADD PUSH1 0x0 SWAP1 SWAP2 SWAP1 SWAP2 SWAP1 SWAP2 POP SSTORE DUP1 PUSH1 0x1 ADD SWAP1 POP PUSH2 0x125D JUMP JUMPDEST POP PUSH1 0x3 PUSH1 0x0 DUP2 SLOAD DUP1 SWAP3 SWAP2 SWAP1 PUSH2 0x12CB SWAP1 PUSH2 0x4198 JUMP JUMPDEST SWAP2 SWAP1 POP SSTORE POP PUSH32 0x42C24A3323433819443A75D0E2651A9C84F696FBA638D730042960045EF27241 DUP3 CALLER PUSH1 0x40 MLOAD PUSH2 0x1301 SWAP3 SWAP2 SWAP1 PUSH2 0x41E0 JUMP JUMPDEST PUSH1 0x40 MLOAD DUP1 SWAP2 SUB SWAP1 LOG1 DUP2 SWAP3 POP POP POP SWAP7 SWAP6 POP POP POP POP POP POP JUMP JUMPDEST DUP1 PUSH1 0x1 PUSH1 0x0 DUP5 DUP2 MSTORE PUSH1 0x20 ADD SWAP1 DUP2 MSTORE PUSH1 0x20 ADD PUSH1 0x0 KECCAK256 PUSH1 0x7 ADD PUSH1 0x0 PUSH2 0x100 EXP DUP2 SLOAD DUP2 PUSH20 0xFFFFFFFFFFFFFFFFFFFFFFFFFFFFFFFFFFFFFFFF MUL NOT AND SWAP1 DUP4 PUSH20 0xFFFFFFFFFFFFFFFFFFFFFFFFFFFFFFFFFFFFFFFF AND MUL OR SWAP1 SSTORE POP PUSH32 0xACD3BFB47D15F9F1D5DB04BF52AECE3B8C4FD63E70C97B91293415D2F2341F38 DUP3 DUP3 PUSH1 0x40 MLOAD PUSH2 0x139E SWAP3 SWAP2 SWAP1 PUSH2 0x41E0 JUMP JUMPDEST PUSH1 0x40 MLOAD DUP1 SWAP2 SUB SWAP1 LOG1 POP POP JUMP JUMPDEST PUSH1 0x1 PUSH1 0x0 DUP4 DUP2 MSTORE PUSH1 0x20 ADD SWAP1 DUP2 MSTORE PUSH1 0x20 ADD PUSH1 0x0 KECCAK256 PUSH1 0x6 ADD DUP2 SWAP1 DUP1 PUSH1 0x1 DUP2 SLOAD ADD DUP1 DUP3 SSTORE DUP1 SWAP2 POP POP PUSH1 0x1 SWAP1 SUB SWAP1 PUSH1 0x0 MSTORE PUSH1 0x20 PUSH1 0x0 KECCAK256 ADD PUSH1 0x0 SWAP1 SWAP2 SWAP1 SWAP2 SWAP1 SWAP2 POP SSTORE PUSH32 0xFCDFD5AEB97F499CA134ED43F010F2A4F5B0AB73D317AC27246A066A050A73AF DUP3 DUP3 PUSH1 0x40 MLOAD PUSH2 0x1418 SWAP3 SWAP2 SWAP1 PUSH2 0x2C2B JUMP JUMPDEST PUSH1 0x40 MLOAD DUP1 SWAP2 SUB SWAP1 LOG1 POP POP JUMP JUMPDEST PUSH2 0x142C PUSH2 0x14AA JUMP JUMPDEST PUSH1 0x0 PUSH20 0xFFFFFFFFFFFFFFFFFFFFFFFFFFFFFFFFFFFFFFFF AND DUP2 PUSH20 0xFFFFFFFFFFFFFFFFFFFFFFFFFFFFFFFFFFFFFFFF AND SUB PUSH2 0x149E JUMPI PUSH1 0x0 PUSH1 0x40 MLOAD PUSH32 0x1E4FBDF700000000000000000000000000000000000000000000000000000000 DUP2 MSTORE PUSH1 0x4 ADD PUSH2 0x1495 SWAP2 SWAP1 PUSH2 0x1F3D JUMP JUMPDEST PUSH1 0x40 MLOAD DUP1 SWAP2 SUB SWAP1 REVERT JUMPDEST PUSH2 0x14A7 DUP2 PUSH2 0x1531 JUMP JUMPDEST POP JUMP JUMPDEST PUSH2 0x14B2 PUSH2 0x15F5 JUMP JUMPDEST PUSH20 0xFFFFFFFFFFFFFFFFFFFFFFFFFFFFFFFFFFFFFFFF AND PUSH2 0x14D0 PUSH2 0xEF5 JUMP JUMPDEST PUSH20 0xFFFFFFFFFFFFFFFFFFFFFFFFFFFFFFFFFFFFFFFF AND EQ PUSH2 0x152F JUMPI PUSH2 0x14F3 PUSH2 0x15F5 JUMP JUMPDEST PUSH1 0x40 MLOAD PUSH32 0x118CDAA700000000000000000000000000000000000000000000000000000000 DUP2 MSTORE PUSH1 0x4 ADD PUSH2 0x1526 SWAP2 SWAP1 PUSH2 0x1F3D JUMP JUMPDEST PUSH1 0x40 MLOAD DUP1 SWAP2 SUB SWAP1 REVERT JUMPDEST JUMP JUMPDEST PUSH1 0x0 DUP1 PUSH1 0x0 SWAP1 SLOAD SWAP1 PUSH2 0x100 EXP SWAP1 DIV PUSH20 0xFFFFFFFFFFFFFFFFFFFFFFFFFFFFFFFFFFFFFFFF AND SWAP1 POP DUP2 PUSH1 0x0 DUP1 PUSH2 0x100 EXP DUP2 SLOAD DUP2 PUSH20 0xFFFFFFFFFFFFFFFFFFFFFFFFFFFFFFFFFFFFFFFF MUL NOT AND SWAP1 DUP4 PUSH20 0xFFFFFFFFFFFFFFFFFFFFFFFFFFFFFFFFFFFFFFFF AND MUL OR SWAP1 SSTORE POP DUP2 PUSH20 0xFFFFFFFFFFFFFFFFFFFFFFFFFFFFFFFFFFFFFFFF AND DUP2 PUSH20 0xFFFFFFFFFFFFFFFFFFFFFFFFFFFFFFFFFFFFFFFF AND PUSH32 0x8BE0079C531659141344CD1FD0A4F28419497F9722A3DAAFE3B4186F6B6457E0 PUSH1 0x40 MLOAD PUSH1 0x40 MLOAD DUP1 SWAP2 SUB SWAP1 LOG3 POP POP JUMP JUMPDEST PUSH1 0x0 CALLER SWAP1 POP SWAP1 JUMP JUMPDEST PUSH1 0x40 MLOAD DUP1 PUSH2 0x120 ADD PUSH1 0x40 MSTORE DUP1 PUSH1 0x60 DUP2 MSTORE PUSH1 0x20 ADD PUSH1 0x60 DUP2 MSTORE PUSH1 0x20 ADD PUSH1 0x60 DUP2 MSTORE PUSH1 0x20 ADD PUSH1 0x60 DUP2 MSTORE PUSH1 0x20 ADD PUSH1 0x0 DUP2 MSTORE PUSH1 0x20 ADD PUSH1 0x0 DUP2 MSTORE PUSH1 0x20 ADD PUSH1 0x60 DUP2 MSTORE PUSH1 0x20 ADD PUSH1 0x0 DUP1 NOT AND DUP2 MSTORE PUSH1 0x20 ADD PUSH1 0x60 DUP2 MSTORE POP SWAP1 JUMP JUMPDEST PUSH1 0x40 MLOAD DUP1 PUSH1 0xC0 ADD PUSH1 0x40 MSTORE DUP1 PUSH2 0x165F PUSH2 0x16D9 JUMP JUMPDEST DUP2 MSTORE PUSH1 0x20 ADD PUSH2 0x166C PUSH2 0x1703 JUMP JUMPDEST DUP2 MSTORE PUSH1 0x20 ADD PUSH1 0x60 DUP2 MSTORE PUSH1 0x20 ADD PUSH1 0x0 PUSH20 0xFFFFFFFFFFFFFFFFFFFFFFFFFFFFFFFFFFFFFFFF AND DUP2 MSTORE PUSH1 0x20 ADD PUSH1 0x0 PUSH1 0x1 DUP2 GT ISZERO PUSH2 0x16A9 JUMPI PUSH2 0x16A8 PUSH2 0x1FD8 JUMP JUMPDEST JUMPDEST DUP2 MSTORE PUSH1 0x20 ADD PUSH1 0x0 ISZERO ISZERO DUP2 MSTORE POP SWAP1 JUMP JUMPDEST POP DUP1 SLOAD PUSH1 0x0 DUP3 SSTORE SWAP1 PUSH1 0x0 MSTORE PUSH1 0x20 PUSH1 0x0 KECCAK256 SWAP1 DUP2 ADD SWAP1 PUSH2 0x16D6 SWAP2 SWAP1 PUSH2 0x172F JUMP JUMPDEST POP JUMP JUMPDEST PUSH1 0x40 MLOAD DUP1 PUSH1 0x80 ADD PUSH1 0x40 MSTORE DUP1 PUSH1 0x60 DUP2 MSTORE PUSH1 0x20 ADD PUSH1 0x60 DUP2 MSTORE PUSH1 0x20 ADD PUSH1 0x60 DUP2 MSTORE PUSH1 0x20 ADD PUSH1 0x0 ISZERO ISZERO DUP2 MSTORE POP SWAP1 JUMP JUMPDEST PUSH1 0x40 MLOAD DUP1 PUSH1 0x40 ADD PUSH1 0x40 MSTORE DUP1 PUSH1 0x0 PUSH1 0x5 DUP2 GT ISZERO PUSH2 0x1722 JUMPI PUSH2 0x1721 PUSH2 0x1FD8 JUMP JUMPDEST JUMPDEST DUP2 MSTORE PUSH1 0x20 ADD PUSH1 0x60 DUP2 MSTORE POP SWAP1 JUMP JUMPDEST JUMPDEST DUP1 DUP3 GT ISZERO PUSH2 0x1748 JUMPI PUSH1 0x0 DUP2 PUSH1 0x0 SWAP1 SSTORE POP PUSH1 0x1 ADD PUSH2 0x1730 JUMP JUMPDEST POP SWAP1 JUMP JUMPDEST PUSH1 0x0 PUSH20 0xFFFFFFFFFFFFFFFFFFFFFFFFFFFFFFFFFFFFFFFF DUP3 AND SWAP1 POP SWAP2 SWAP1 POP JUMP JUMPDEST PUSH1 0x0 PUSH2 0x1777 DUP3 PUSH2 0x174C JUMP JUMPDEST SWAP1 POP SWAP2 SWAP1 POP JUMP JUMPDEST PUSH2 0x1787 DUP2 PUSH2 0x176C JUMP JUMPDEST DUP3 MSTORE POP POP JUMP JUMPDEST PUSH1 0x0 DUP2 SWAP1 POP SWAP2 SWAP1 POP JUMP JUMPDEST PUSH2 0x17A0 DUP2 PUSH2 0x178D JUMP JUMPDEST DUP3 MSTORE POP POP JUMP JUMPDEST PUSH1 0x0 PUSH1 0x40 DUP3 ADD SWAP1 POP PUSH2 0x17BB PUSH1 0x0 DUP4 ADD DUP6 PUSH2 0x177E JUMP JUMPDEST PUSH2 0x17C8 PUSH1 0x20 DUP4 ADD DUP5 PUSH2 0x1797 JUMP JUMPDEST SWAP4 SWAP3 POP POP POP JUMP JUMPDEST PUSH1 0x0 PUSH1 0x40 MLOAD SWAP1 POP SWAP1 JUMP JUMPDEST PUSH1 0x0 DUP1 REVERT JUMPDEST PUSH1 0x0 DUP1 REVERT JUMPDEST PUSH2 0x17EC DUP2 PUSH2 0x178D JUMP JUMPDEST DUP2 EQ PUSH2 0x17F7 JUMPI PUSH1 0x0 DUP1 REVERT JUMPDEST POP JUMP JUMPDEST PUSH1 0x0 DUP2 CALLDATALOAD SWAP1 POP PUSH2 0x1809 DUP2 PUSH2 0x17E3 JUMP JUMPDEST SWAP3 SWAP2 POP POP JUMP JUMPDEST PUSH1 0x0 DUP2 SWAP1 POP SWAP2 SWAP1 POP JUMP JUMPDEST PUSH2 0x1822 DUP2 PUSH2 0x180F JUMP JUMPDEST DUP2 EQ PUSH2 0x182D JUMPI PUSH1 0x0 DUP1 REVERT JUMPDEST POP JUMP JUMPDEST PUSH1 0x0 DUP2 CALLDATALOAD SWAP1 POP PUSH2 0x183F DUP2 PUSH2 0x1819 JUMP JUMPDEST SWAP3 SWAP2 POP POP JUMP JUMPDEST PUSH1 0x0 DUP1 PUSH1 0x40 DUP4 DUP6 SUB SLT ISZERO PUSH2 0x185C JUMPI PUSH2 0x185B PUSH2 0x17D9 JUMP JUMPDEST JUMPDEST PUSH1 0x0 PUSH2 0x186A DUP6 DUP3 DUP7 ADD PUSH2 0x17FA JUMP JUMPDEST SWAP3 POP POP PUSH1 0x20 PUSH2 0x187B DUP6 DUP3 DUP7 ADD PUSH2 0x1830 JUMP JUMPDEST SWAP2 POP POP SWAP3 POP SWAP3 SWAP1 POP JUMP JUMPDEST PUSH1 0x0 DUP2 MLOAD SWAP1 POP SWAP2 SWAP1 POP JUMP JUMPDEST PUSH1 0x0 DUP3 DUP3 MSTORE PUSH1 0x20 DUP3 ADD SWAP1 POP SWAP3 SWAP2 POP POP JUMP JUMPDEST PUSH1 0x0 JUMPDEST DUP4 DUP2 LT ISZERO PUSH2 0x18BF JUMPI DUP1 DUP3 ADD MLOAD DUP2 DUP5 ADD MSTORE PUSH1 0x20 DUP2 ADD SWAP1 POP PUSH2 0x18A4 JUMP JUMPDEST PUSH1 0x0 DUP5 DUP5 ADD MSTORE POP POP POP POP JUMP JUMPDEST PUSH1 0x0 PUSH1 0x1F NOT PUSH1 0x1F DUP4 ADD AND SWAP1 POP SWAP2 SWAP1 POP JUMP JUMPDEST PUSH1 0x0 PUSH2 0x18E7 DUP3 PUSH2 0x1885 JUMP JUMPDEST PUSH2 0x18F1 DUP2 DUP6 PUSH2 0x1890 JUMP JUMPDEST SWAP4 POP PUSH2 0x1901 DUP2 DUP6 PUSH1 0x20 DUP7 ADD PUSH2 0x18A1 JUMP JUMPDEST PUSH2 0x190A DUP2 PUSH2 0x18CB JUMP JUMPDEST DUP5 ADD SWAP2 POP POP SWAP3 SWAP2 POP POP JUMP JUMPDEST PUSH1 0x0 DUP2 MLOAD SWAP1 POP SWAP2 SWAP1 POP JUMP JUMPDEST PUSH1 0x0 DUP3 DUP3 MSTORE PUSH1 0x20 DUP3 ADD SWAP1 POP SWAP3 SWAP2 POP POP JUMP JUMPDEST PUSH1 0x0 DUP2 SWAP1 POP PUSH1 0x20 DUP3 ADD SWAP1 POP SWAP2 SWAP1 POP JUMP JUMPDEST PUSH1 0x0 PUSH2 0x194D DUP4 DUP4 PUSH2 0x18DC JUMP JUMPDEST SWAP1 POP SWAP3 SWAP2 POP POP JUMP JUMPDEST PUSH1 0x0 PUSH1 0x20 DUP3 ADD SWAP1 POP SWAP2 SWAP1 POP JUMP JUMPDEST PUSH1 0x0 PUSH2 0x196D DUP3 PUSH2 0x1915 JUMP JUMPDEST PUSH2 0x1977 DUP2 DUP6 PUSH2 0x1920 JUMP JUMPDEST SWAP4 POP DUP4 PUSH1 0x20 DUP3 MUL DUP6 ADD PUSH2 0x1989 DUP6 PUSH2 0x1931 JUMP JUMPDEST DUP1 PUSH1 0x0 JUMPDEST DUP6 DUP2 LT ISZERO PUSH2 0x19C5 JUMPI DUP5 DUP5 SUB DUP10 MSTORE DUP2 MLOAD PUSH2 0x19A6 DUP6 DUP3 PUSH2 0x1941 JUMP JUMPDEST SWAP5 POP PUSH2 0x19B1 DUP4 PUSH2 0x1955 JUMP JUMPDEST SWAP3 POP PUSH1 0x20 DUP11 ADD SWAP10 POP POP PUSH1 0x1 DUP2 ADD SWAP1 POP PUSH2 0x198D JUMP JUMPDEST POP DUP3 SWAP8 POP DUP8 SWAP6 POP POP POP POP POP POP SWAP3 SWAP2 POP POP JUMP JUMPDEST PUSH1 0x0 DUP2 MLOAD SWAP1 POP SWAP2 SWAP1 POP JUMP JUMPDEST PUSH1 0x0 DUP3 DUP3 MSTORE PUSH1 0x20 DUP3 ADD SWAP1 POP SWAP3 SWAP2 POP POP JUMP JUMPDEST PUSH1 0x0 DUP2 SWAP1 POP PUSH1 0x20 DUP3 ADD SWAP1 POP SWAP2 SWAP1 POP JUMP JUMPDEST PUSH1 0x0 DUP2 MLOAD SWAP1 POP SWAP2 SWAP1 POP JUMP JUMPDEST PUSH1 0x0 DUP3 DUP3 MSTORE PUSH1 0x20 DUP3 ADD SWAP1 POP SWAP3 SWAP2 POP POP JUMP JUMPDEST PUSH1 0x0 DUP2 SWAP1 POP PUSH1 0x20 DUP3 ADD SWAP1 POP SWAP2 SWAP1 POP JUMP JUMPDEST PUSH2 0x1A38 DUP2 PUSH2 0x178D JUMP JUMPDEST DUP3 MSTORE POP POP JUMP JUMPDEST PUSH1 0x0 PUSH2 0x1A4A DUP4 DUP4 PUSH2 0x1A2F JUMP JUMPDEST PUSH1 0x20 DUP4 ADD SWAP1 POP SWAP3 SWAP2 POP POP JUMP JUMPDEST PUSH1 0x0 PUSH1 0x20 DUP3 ADD SWAP1 POP SWAP2 SWAP1 POP JUMP JUMPDEST PUSH1 0x0 PUSH2 0x1A6E DUP3 PUSH2 0x1A03 JUMP JUMPDEST PUSH2 0x1A78 DUP2 DUP6 PUSH2 0x1A0E JUMP JUMPDEST SWAP4 POP PUSH2 0x1A83 DUP4 PUSH2 0x1A1F JUMP JUMPDEST DUP1 PUSH1 0x0 JUMPDEST DUP4 DUP2 LT ISZERO PUSH2 0x1AB4 JUMPI DUP2 MLOAD PUSH2 0x1A9B DUP9 DUP3 PUSH2 0x1A3E JUMP JUMPDEST SWAP8 POP PUSH2 0x1AA6 DUP4 PUSH2 0x1A56 JUMP JUMPDEST SWAP3 POP POP PUSH1 0x1 DUP2 ADD SWAP1 POP PUSH2 0x1A87 JUMP JUMPDEST POP DUP6 SWAP4 POP POP POP POP SWAP3 SWAP2 POP POP JUMP JUMPDEST PUSH1 0x0 PUSH2 0x1ACD DUP4 DUP4 PUSH2 0x1A63 JUMP JUMPDEST SWAP1 POP SWAP3 SWAP2 POP POP JUMP JUMPDEST PUSH1 0x0 PUSH1 0x20 DUP3 ADD SWAP1 POP SWAP2 SWAP1 POP JUMP JUMPDEST PUSH1 0x0 PUSH2 0x1AED DUP3 PUSH2 0x19D7 JUMP JUMPDEST PUSH2 0x1AF7 DUP2 DUP6 PUSH2 0x19E2 JUMP JUMPDEST SWAP4 POP DUP4 PUSH1 0x20 DUP3 MUL DUP6 ADD PUSH2 0x1B09 DUP6 PUSH2 0x19F3 JUMP JUMPDEST DUP1 PUSH1 0x0 JUMPDEST DUP6 DUP2 LT ISZERO PUSH2 0x1B45 JUMPI DUP5 DUP5 SUB DUP10 MSTORE DUP2 MLOAD PUSH2 0x1B26 DUP6 DUP3 PUSH2 0x1AC1 JUMP JUMPDEST SWAP5 POP PUSH2 0x1B31 DUP4 PUSH2 0x1AD5 JUMP JUMPDEST SWAP3 POP PUSH1 0x20 DUP11 ADD SWAP10 POP POP PUSH1 0x1 DUP2 ADD SWAP1 POP PUSH2 0x1B0D JUMP JUMPDEST POP DUP3 SWAP8 POP DUP8 SWAP6 POP POP POP POP POP POP SWAP3 SWAP2 POP POP JUMP JUMPDEST PUSH2 0x1B60 DUP2 PUSH2 0x180F JUMP JUMPDEST DUP3 MSTORE POP POP JUMP JUMPDEST PUSH1 0x0 PUSH2 0x120 DUP4 ADD PUSH1 0x0 DUP4 ADD MLOAD DUP5 DUP3 SUB PUSH1 0x0 DUP7 ADD MSTORE PUSH2 0x1B84 DUP3 DUP3 PUSH2 0x18DC JUMP JUMPDEST SWAP2 POP POP PUSH1 0x20 DUP4 ADD MLOAD DUP5 DUP3 SUB PUSH1 0x20 DUP7 ADD MSTORE PUSH2 0x1B9E DUP3 DUP3 PUSH2 0x1962 JUMP JUMPDEST SWAP2 POP POP PUSH1 0x40 DUP4 ADD MLOAD DUP5 DUP3 SUB PUSH1 0x40 DUP7 ADD MSTORE PUSH2 0x1BB8 DUP3 DUP3 PUSH2 0x18DC JUMP JUMPDEST SWAP2 POP POP PUSH1 0x60 DUP4 ADD MLOAD DUP5 DUP3 SUB PUSH1 0x60 DUP7 ADD MSTORE PUSH2 0x1BD2 DUP3 DUP3 PUSH2 0x1AE2 JUMP JUMPDEST SWAP2 POP POP PUSH1 0x80 DUP4 ADD MLOAD PUSH2 0x1BE7 PUSH1 0x80 DUP7 ADD DUP3 PUSH2 0x1A2F JUMP JUMPDEST POP PUSH1 0xA0 DUP4 ADD MLOAD PUSH2 0x1BFA PUSH1 0xA0 DUP7 ADD DUP3 PUSH2 0x1A2F JUMP JUMPDEST POP PUSH1 0xC0 DUP4 ADD MLOAD DUP5 DUP3 SUB PUSH1 0xC0 DUP7 ADD MSTORE PUSH2 0x1C12 DUP3 DUP3 PUSH2 0x1A63 JUMP JUMPDEST SWAP2 POP POP PUSH1 0xE0 DUP4 ADD MLOAD PUSH2 0x1C27 PUSH1 0xE0 DUP7 ADD DUP3 PUSH2 0x1B57 JUMP JUMPDEST POP PUSH2 0x100 DUP4 ADD MLOAD DUP5 DUP3 SUB PUSH2 0x100 DUP7 ADD MSTORE PUSH2 0x1C41 DUP3 DUP3 PUSH2 0x18DC JUMP JUMPDEST SWAP2 POP POP DUP1 SWAP2 POP POP SWAP3 SWAP2 POP POP JUMP JUMPDEST PUSH1 0x0 PUSH1 0x20 DUP3 ADD SWAP1 POP DUP2 DUP2 SUB PUSH1 0x0 DUP4 ADD MSTORE PUSH2 0x1C68 DUP2 DUP5 PUSH2 0x1B66 JUMP JUMPDEST SWAP1 POP SWAP3 SWAP2 POP POP JUMP JUMPDEST PUSH1 0x0 DUP1 PUSH1 0x40 DUP4 DUP6 SUB SLT ISZERO PUSH2 0x1C87 JUMPI PUSH2 0x1C86 PUSH2 0x17D9 JUMP JUMPDEST JUMPDEST PUSH1 0x0 PUSH2 0x1C95 DUP6 DUP3 DUP7 ADD PUSH2 0x17FA JUMP JUMPDEST SWAP3 POP POP PUSH1 0x20 PUSH2 0x1CA6 DUP6 DUP3 DUP7 ADD PUSH2 0x17FA JUMP JUMPDEST SWAP2 POP POP SWAP3 POP SWAP3 SWAP1 POP JUMP JUMPDEST PUSH2 0x1CB9 DUP2 PUSH2 0x176C JUMP JUMPDEST DUP2 EQ PUSH2 0x1CC4 JUMPI PUSH1 0x0 DUP1 REVERT JUMPDEST POP JUMP JUMPDEST PUSH1 0x0 DUP2 CALLDATALOAD SWAP1 POP PUSH2 0x1CD6 DUP2 PUSH2 0x1CB0 JUMP JUMPDEST SWAP3 SWAP2 POP POP JUMP JUMPDEST PUSH1 0x0 PUSH1 0x20 DUP3 DUP5 SUB SLT ISZERO PUSH2 0x1CF2 JUMPI PUSH2 0x1CF1 PUSH2 0x17D9 JUMP JUMPDEST JUMPDEST PUSH1 0x0 PUSH2 0x1D00 DUP5 DUP3 DUP6 ADD PUSH2 0x1CC7 JUMP JUMPDEST SWAP2 POP POP SWAP3 SWAP2 POP POP JUMP JUMPDEST PUSH1 0x0 DUP1 REVERT JUMPDEST PUSH1 0x0 PUSH1 0x80 DUP3 DUP5 SUB SLT ISZERO PUSH2 0x1D24 JUMPI PUSH2 0x1D23 PUSH2 0x1D09 JUMP JUMPDEST JUMPDEST DUP2 SWAP1 POP SWAP3 SWAP2 POP POP JUMP JUMPDEST PUSH1 0x0 DUP1 PUSH1 0x40 DUP4 DUP6 SUB SLT ISZERO PUSH2 0x1D44 JUMPI PUSH2 0x1D43 PUSH2 0x17D9 JUMP JUMPDEST JUMPDEST PUSH1 0x0 PUSH2 0x1D52 DUP6 DUP3 DUP7 ADD PUSH2 0x17FA JUMP JUMPDEST SWAP3 POP POP PUSH1 0x20 DUP4 ADD CALLDATALOAD PUSH8 0xFFFFFFFFFFFFFFFF DUP2 GT ISZERO PUSH2 0x1D73 JUMPI PUSH2 0x1D72 PUSH2 0x17DE JUMP JUMPDEST JUMPDEST PUSH2 0x1D7F DUP6 DUP3 DUP7 ADD PUSH2 0x1D0E JUMP JUMPDEST SWAP2 POP POP SWAP3 POP SWAP3 SWAP1 POP JUMP JUMPDEST PUSH1 0x0 PUSH2 0x120 DUP3 DUP5 SUB SLT ISZERO PUSH2 0x1DA0 JUMPI PUSH2 0x1D9F PUSH2 0x1D09 JUMP JUMPDEST JUMPDEST DUP2 SWAP1 POP SWAP3 SWAP2 POP POP JUMP JUMPDEST PUSH1 0x0 DUP1 PUSH1 0x0 PUSH1 0x60 DUP5 DUP7 SUB SLT ISZERO PUSH2 0x1DC2 JUMPI PUSH2 0x1DC1 PUSH2 0x17D9 JUMP JUMPDEST JUMPDEST PUSH1 0x0 PUSH2 0x1DD0 DUP7 DUP3 DUP8 ADD PUSH2 0x17FA JUMP JUMPDEST SWAP4 POP POP PUSH1 0x20 PUSH2 0x1DE1 DUP7 DUP3 DUP8 ADD PUSH2 0x1830 JUMP JUMPDEST SWAP3 POP POP PUSH1 0x40 DUP5 ADD CALLDATALOAD PUSH8 0xFFFFFFFFFFFFFFFF DUP2 GT ISZERO PUSH2 0x1E02 JUMPI PUSH2 0x1E01 PUSH2 0x17DE JUMP JUMPDEST JUMPDEST PUSH2 0x1E0E DUP7 DUP3 DUP8 ADD PUSH2 0x1D89 JUMP JUMPDEST SWAP2 POP POP SWAP3 POP SWAP3 POP SWAP3 JUMP JUMPDEST PUSH1 0x0 PUSH1 0x20 DUP3 ADD SWAP1 POP PUSH2 0x1E2D PUSH1 0x0 DUP4 ADD DUP5 PUSH2 0x1797 JUMP JUMPDEST SWAP3 SWAP2 POP POP JUMP JUMPDEST PUSH1 0x0 PUSH1 0x20 DUP3 DUP5 SUB SLT ISZERO PUSH2 0x1E49 JUMPI PUSH2 0x1E48 PUSH2 0x17D9 JUMP JUMPDEST JUMPDEST PUSH1 0x0 PUSH2 0x1E57 DUP5 DUP3 DUP6 ADD PUSH2 0x17FA JUMP JUMPDEST SWAP2 POP POP SWAP3 SWAP2 POP POP JUMP JUMPDEST PUSH1 0x2 DUP2 LT PUSH2 0x1E6D JUMPI PUSH1 0x0 DUP1 REVERT JUMPDEST POP JUMP JUMPDEST PUSH1 0x0 DUP2 CALLDATALOAD SWAP1 POP PUSH2 0x1E7F DUP2 PUSH2 0x1E60 JUMP JUMPDEST SWAP3 SWAP2 POP POP JUMP JUMPDEST PUSH1 0x0 DUP1 PUSH1 0x40 DUP4 DUP6 SUB SLT ISZERO PUSH2 0x1E9C JUMPI PUSH2 0x1E9B PUSH2 0x17D9 JUMP JUMPDEST JUMPDEST PUSH1 0x0 PUSH2 0x1EAA DUP6 DUP3 DUP7 ADD PUSH2 0x17FA JUMP JUMPDEST SWAP3 POP POP PUSH1 0x20 PUSH2 0x1EBB DUP6 DUP3 DUP7 ADD PUSH2 0x1E70 JUMP JUMPDEST SWAP2 POP POP SWAP3 POP SWAP3 SWAP1 POP JUMP JUMPDEST PUSH1 0x0 DUP2 ISZERO ISZERO SWAP1 POP SWAP2 SWAP1 POP JUMP JUMPDEST PUSH2 0x1EDA DUP2 PUSH2 0x1EC5 JUMP JUMPDEST DUP2 EQ PUSH2 0x1EE5 JUMPI PUSH1 0x0 DUP1 REVERT JUMPDEST POP JUMP JUMPDEST PUSH1 0x0 DUP2 CALLDATALOAD SWAP1 POP PUSH2 0x1EF7 DUP2 PUSH2 0x1ED1 JUMP JUMPDEST SWAP3 SWAP2 POP POP JUMP JUMPDEST PUSH1 0x0 DUP1 PUSH1 0x40 DUP4 DUP6 SUB SLT ISZERO PUSH2 0x1F14 JUMPI PUSH2 0x1F13 PUSH2 0x17D9 JUMP JUMPDEST JUMPDEST PUSH1 0x0 PUSH2 0x1F22 DUP6 DUP3 DUP7 ADD PUSH2 0x17FA JUMP JUMPDEST SWAP3 POP POP PUSH1 0x20 PUSH2 0x1F33 DUP6 DUP3 DUP7 ADD PUSH2 0x1EE8 JUMP JUMPDEST SWAP2 POP POP SWAP3 POP SWAP3 SWAP1 POP JUMP JUMPDEST PUSH1 0x0 PUSH1 0x20 DUP3 ADD SWAP1 POP PUSH2 0x1F52 PUSH1 0x0 DUP4 ADD DUP5 PUSH2 0x177E JUMP JUMPDEST SWAP3 SWAP2 POP POP JUMP JUMPDEST PUSH2 0x1F61 DUP2 PUSH2 0x1EC5 JUMP JUMPDEST DUP3 MSTORE POP POP JUMP JUMPDEST PUSH1 0x0 PUSH1 0x80 DUP4 ADD PUSH1 0x0 DUP4 ADD MLOAD DUP5 DUP3 SUB PUSH1 0x0 DUP7 ADD MSTORE PUSH2 0x1F84 DUP3 DUP3 PUSH2 0x18DC JUMP JUMPDEST SWAP2 POP POP PUSH1 0x20 DUP4 ADD MLOAD DUP5 DUP3 SUB PUSH1 0x20 DUP7 ADD MSTORE PUSH2 0x1F9E DUP3 DUP3 PUSH2 0x18DC JUMP JUMPDEST SWAP2 POP POP PUSH1 0x40 DUP4 ADD MLOAD DUP5 DUP3 SUB PUSH1 0x40 DUP7 ADD MSTORE PUSH2 0x1FB8 DUP3 DUP3 PUSH2 0x1962 JUMP JUMPDEST SWAP2 POP POP PUSH1 0x60 DUP4 ADD MLOAD PUSH2 0x1FCD PUSH1 0x60 DUP7 ADD DUP3 PUSH2 0x1F58 JUMP JUMPDEST POP DUP1 SWAP2 POP POP SWAP3 SWAP2 POP POP JUMP JUMPDEST PUSH32 0x4E487B7100000000000000000000000000000000000000000000000000000000 PUSH1 0x0 MSTORE PUSH1 0x21 PUSH1 0x4 MSTORE PUSH1 0x24 PUSH1 0x0 REVERT JUMPDEST PUSH1 0x6 DUP2 LT PUSH2 0x2018 JUMPI PUSH2 0x2017 PUSH2 0x1FD8 JUMP JUMPDEST JUMPDEST POP JUMP JUMPDEST PUSH1 0x0 DUP2 SWAP1 POP PUSH2 0x2029 DUP3 PUSH2 0x2007 JUMP JUMPDEST SWAP2 SWAP1 POP JUMP JUMPDEST PUSH1 0x0 PUSH2 0x2039 DUP3 PUSH2 0x201B JUMP JUMPDEST SWAP1 POP SWAP2 SWAP1 POP JUMP JUMPDEST PUSH2 0x2049 DUP2 PUSH2 0x202E JUMP JUMPDEST DUP3 MSTORE POP POP JUMP JUMPDEST PUSH1 0x0 DUP2 MLOAD SWAP1 POP SWAP2 SWAP1 POP JUMP JUMPDEST PUSH1 0x0 DUP3 DUP3 MSTORE PUSH1 0x20 DUP3 ADD SWAP1 POP SWAP3 SWAP2 POP POP JUMP JUMPDEST PUSH1 0x0 DUP2 SWAP1 POP PUSH1 0x20 DUP3 ADD SWAP1 POP SWAP2 SWAP1 POP JUMP JUMPDEST PUSH2 0x2084 DUP2 PUSH2 0x176C JUMP JUMPDEST DUP3 MSTORE POP POP JUMP JUMPDEST PUSH1 0x0 PUSH1 0x40 DUP4 ADD PUSH1 0x0 DUP4 ADD MLOAD DUP5 DUP3 SUB PUSH1 0x0 DUP7 ADD MSTORE PUSH2 0x20A7 DUP3 DUP3 PUSH2 0x18DC JUMP JUMPDEST SWAP2 POP POP PUSH1 0x20 DUP4 ADD MLOAD PUSH2 0x20BC PUSH1 0x20 DUP7 ADD DUP3 PUSH2 0x207B JUMP JUMPDEST POP DUP1 SWAP2 POP POP SWAP3 SWAP2 POP POP JUMP JUMPDEST PUSH1 0x0 PUSH2 0x20D3 DUP4 DUP4 PUSH2 0x208A JUMP JUMPDEST SWAP1 POP SWAP3 SWAP2 POP POP JUMP JUMPDEST PUSH1 0x0 PUSH1 0x20 DUP3 ADD SWAP1 POP SWAP2 SWAP1 POP JUMP JUMPDEST PUSH1 0x0 PUSH2 0x20F3 DUP3 PUSH2 0x204F JUMP JUMPDEST PUSH2 0x20FD DUP2 DUP6 PUSH2 0x205A JUMP JUMPDEST SWAP4 POP DUP4 PUSH1 0x20 DUP3 MUL DUP6 ADD PUSH2 0x210F DUP6 PUSH2 0x206B JUMP JUMPDEST DUP1 PUSH1 0x0 JUMPDEST DUP6 DUP2 LT ISZERO PUSH2 0x214B JUMPI DUP5 DUP5 SUB DUP10 MSTORE DUP2 MLOAD PUSH2 0x212C DUP6 DUP3 PUSH2 0x20C7 JUMP JUMPDEST SWAP5 POP PUSH2 0x2137 DUP4 PUSH2 0x20DB JUMP JUMPDEST SWAP3 POP PUSH1 0x20 DUP11 ADD SWAP10 POP POP PUSH1 0x1 DUP2 ADD SWAP1 POP PUSH2 0x2113 JUMP JUMPDEST POP DUP3 SWAP8 POP DUP8 SWAP6 POP POP POP POP POP POP SWAP3 SWAP2 POP POP JUMP JUMPDEST PUSH1 0x0 PUSH1 0x40 DUP4 ADD PUSH1 0x0 DUP4 ADD MLOAD PUSH2 0x2175 PUSH1 0x0 DUP7 ADD DUP3 PUSH2 0x2040 JUMP JUMPDEST POP PUSH1 0x20 DUP4 ADD MLOAD DUP5 DUP3 SUB PUSH1 0x20 DUP7 ADD MSTORE PUSH2 0x218D DUP3 DUP3 PUSH2 0x20E8 JUMP JUMPDEST SWAP2 POP POP DUP1 SWAP2 POP POP SWAP3 SWAP2 POP POP JUMP JUMPDEST PUSH1 0x2 DUP2 LT PUSH2 0x21AB JUMPI PUSH2 0x21AA PUSH2 0x1FD8 JUMP JUMPDEST JUMPDEST POP JUMP JUMPDEST PUSH1 0x0 DUP2 SWAP1 POP PUSH2 0x21BC DUP3 PUSH2 0x219A JUMP JUMPDEST SWAP2 SWAP1 POP JUMP JUMPDEST PUSH1 0x0 PUSH2 0x21CC DUP3 PUSH2 0x21AE JUMP JUMPDEST SWAP1 POP SWAP2 SWAP1 POP JUMP JUMPDEST PUSH2 0x21DC DUP2 PUSH2 0x21C1 JUMP JUMPDEST DUP3 MSTORE POP POP JUMP JUMPDEST PUSH1 0x0 PUSH1 0xC0 DUP4 ADD PUSH1 0x0 DUP4 ADD MLOAD DUP5 DUP3 SUB PUSH1 0x0 DUP7 ADD MSTORE PUSH2 0x21FF DUP3 DUP3 PUSH2 0x1F67 JUMP JUMPDEST SWAP2 POP POP PUSH1 0x20 DUP4 ADD MLOAD DUP5 DUP3 SUB PUSH1 0x20 DUP7 ADD MSTORE PUSH2 0x2219 DUP3 DUP3 PUSH2 0x215D JUMP JUMPDEST SWAP2 POP POP PUSH1 0x40 DUP4 ADD MLOAD DUP5 DUP3 SUB PUSH1 0x40 DUP7 ADD MSTORE PUSH2 0x2233 DUP3 DUP3 PUSH2 0x1A63 JUMP JUMPDEST SWAP2 POP POP PUSH1 0x60 DUP4 ADD MLOAD PUSH2 0x2248 PUSH1 0x60 DUP7 ADD DUP3 PUSH2 0x207B JUMP JUMPDEST POP PUSH1 0x80 DUP4 ADD MLOAD PUSH2 0x225B PUSH1 0x80 DUP7 ADD DUP3 PUSH2 0x21D3 JUMP JUMPDEST POP PUSH1 0xA0 DUP4 ADD MLOAD PUSH2 0x226E PUSH1 0xA0 DUP7 ADD DUP3 PUSH2 0x1F58 JUMP JUMPDEST POP DUP1 SWAP2 POP POP SWAP3 SWAP2 POP POP JUMP JUMPDEST PUSH1 0x0 PUSH1 0x20 DUP3 ADD SWAP1 POP DUP2 DUP2 SUB PUSH1 0x0 DUP4 ADD MSTORE PUSH2 0x2293 DUP2 DUP5 PUSH2 0x21E2 JUMP JUMPDEST SWAP1 POP SWAP3 SWAP2 POP POP JUMP JUMPDEST PUSH1 0x0 PUSH1 0x40 DUP3 DUP5 SUB SLT ISZERO PUSH2 0x22B1 JUMPI PUSH2 0x22B0 PUSH2 0x1D09 JUMP JUMPDEST JUMPDEST DUP2 SWAP1 POP SWAP3 SWAP2 POP POP JUMP JUMPDEST PUSH1 0x0 DUP1 REVERT JUMPDEST PUSH1 0x0 DUP1 REVERT JUMPDEST PUSH1 0x0 DUP1 REVERT JUMPDEST PUSH1 0x0 DUP1 DUP4 PUSH1 0x1F DUP5 ADD SLT PUSH2 0x22DF JUMPI PUSH2 0x22DE PUSH2 0x22BA JUMP JUMPDEST JUMPDEST DUP3 CALLDATALOAD SWAP1 POP PUSH8 0xFFFFFFFFFFFFFFFF DUP2 GT ISZERO PUSH2 0x22FC JUMPI PUSH2 0x22FB PUSH2 0x22BF JUMP JUMPDEST JUMPDEST PUSH1 0x20 DUP4 ADD SWAP2 POP DUP4 PUSH1 0x20 DUP3 MUL DUP4 ADD GT ISZERO PUSH2 0x2318 JUMPI PUSH2 0x2317 PUSH2 0x22C4 JUMP JUMPDEST JUMPDEST SWAP3 POP SWAP3 SWAP1 POP JUMP JUMPDEST PUSH1 0x0 DUP1 PUSH1 0x0 DUP1 PUSH1 0x0 DUP1 PUSH1 0x0 DUP1 PUSH1 0xE0 DUP10 DUP12 SUB SLT ISZERO PUSH2 0x233F JUMPI PUSH2 0x233E PUSH2 0x17D9 JUMP JUMPDEST JUMPDEST PUSH1 0x0 PUSH2 0x234D DUP12 DUP3 DUP13 ADD PUSH2 0x17FA JUMP JUMPDEST SWAP9 POP POP PUSH1 0x20 DUP10 ADD CALLDATALOAD PUSH8 0xFFFFFFFFFFFFFFFF DUP2 GT ISZERO PUSH2 0x236E JUMPI PUSH2 0x236D PUSH2 0x17DE JUMP JUMPDEST JUMPDEST PUSH2 0x237A DUP12 DUP3 DUP13 ADD PUSH2 0x1D0E JUMP JUMPDEST SWAP8 POP POP PUSH1 0x40 DUP10 ADD CALLDATALOAD PUSH8 0xFFFFFFFFFFFFFFFF DUP2 GT ISZERO PUSH2 0x239B JUMPI PUSH2 0x239A PUSH2 0x17DE JUMP JUMPDEST JUMPDEST PUSH2 0x23A7 DUP12 DUP3 DUP13 ADD PUSH2 0x229B JUMP JUMPDEST SWAP7 POP POP PUSH1 0x60 DUP10 ADD CALLDATALOAD PUSH8 0xFFFFFFFFFFFFFFFF DUP2 GT ISZERO PUSH2 0x23C8 JUMPI PUSH2 0x23C7 PUSH2 0x17DE JUMP JUMPDEST JUMPDEST PUSH2 0x23D4 DUP12 DUP3 DUP13 ADD PUSH2 0x22C9 JUMP JUMPDEST SWAP6 POP SWAP6 POP POP PUSH1 0x80 PUSH2 0x23E7 DUP12 DUP3 DUP13 ADD PUSH2 0x1CC7 JUMP JUMPDEST SWAP4 POP POP PUSH1 0xA0 PUSH2 0x23F8 DUP12 DUP3 DUP13 ADD PUSH2 0x1E70 JUMP JUMPDEST SWAP3 POP POP PUSH1 0xC0 PUSH2 0x2409 DUP12 DUP3 DUP13 ADD PUSH2 0x1EE8 JUMP JUMPDEST SWAP2 POP POP SWAP3 SWAP6 SWAP9 POP SWAP3 SWAP6 SWAP9 SWAP1 SWAP4 SWAP7 POP JUMP JUMPDEST PUSH1 0x0 DUP1 PUSH1 0x40 DUP4 DUP6 SUB SLT ISZERO PUSH2 0x2430 JUMPI PUSH2 0x242F PUSH2 0x17D9 JUMP JUMPDEST JUMPDEST PUSH1 0x0 PUSH2 0x243E DUP6 DUP3 DUP7 ADD PUSH2 0x17FA JUMP JUMPDEST SWAP3 POP POP PUSH1 0x20 DUP4 ADD CALLDATALOAD PUSH8 0xFFFFFFFFFFFFFFFF DUP2 GT ISZERO PUSH2 0x245F JUMPI PUSH2 0x245E PUSH2 0x17DE JUMP JUMPDEST JUMPDEST PUSH2 0x246B DUP6 DUP3 DUP7 ADD PUSH2 0x229B JUMP JUMPDEST SWAP2 POP POP SWAP3 POP SWAP3 SWAP1 POP JUMP JUMPDEST PUSH1 0x0 DUP1 PUSH1 0x0 DUP1 PUSH1 0x0 DUP1 PUSH1 0xA0 DUP8 DUP10 SUB SLT ISZERO PUSH2 0x2492 JUMPI PUSH2 0x2491 PUSH2 0x17D9 JUMP JUMPDEST JUMPDEST PUSH1 0x0 DUP8 ADD CALLDATALOAD PUSH8 0xFFFFFFFFFFFFFFFF DUP2 GT ISZERO PUSH2 0x24B0 JUMPI PUSH2 0x24AF PUSH2 0x17DE JUMP JUMPDEST JUMPDEST PUSH2 0x24BC DUP10 DUP3 DUP11 ADD PUSH2 0x1D0E JUMP JUMPDEST SWAP7 POP POP PUSH1 0x20 DUP8 ADD CALLDATALOAD PUSH8 0xFFFFFFFFFFFFFFFF DUP2 GT ISZERO PUSH2 0x24DD JUMPI PUSH2 0x24DC PUSH2 0x17DE JUMP JUMPDEST JUMPDEST PUSH2 0x24E9 DUP10 DUP3 DUP11 ADD PUSH2 0x229B JUMP JUMPDEST SWAP6 POP POP PUSH1 0x40 DUP8 ADD CALLDATALOAD PUSH8 0xFFFFFFFFFFFFFFFF DUP2 GT ISZERO PUSH2 0x250A JUMPI PUSH2 0x2509 PUSH2 0x17DE JUMP JUMPDEST JUMPDEST PUSH2 0x2516 DUP10 DUP3 DUP11 ADD PUSH2 0x22C9 JUMP JUMPDEST SWAP5 POP SWAP5 POP POP PUSH1 0x60 PUSH2 0x2529 DUP10 DUP3 DUP11 ADD PUSH2 0x1CC7 JUMP JUMPDEST SWAP3 POP POP PUSH1 0x80 PUSH2 0x253A DUP10 DUP3 DUP11 ADD PUSH2 0x1E70 JUMP JUMPDEST SWAP2 POP POP SWAP3 SWAP6 POP SWAP3 SWAP6 POP SWAP3 SWAP6 JUMP JUMPDEST PUSH1 0x0 DUP1 PUSH1 0x40 DUP4 DUP6 SUB SLT ISZERO PUSH2 0x255E JUMPI PUSH2 0x255D PUSH2 0x17D9 JUMP JUMPDEST JUMPDEST PUSH1 0x0 PUSH2 0x256C DUP6 DUP3 DUP7 ADD PUSH2 0x17FA JUMP JUMPDEST SWAP3 POP POP PUSH1 0x20 PUSH2 0x257D DUP6 DUP3 DUP7 ADD PUSH2 0x1CC7 JUMP JUMPDEST SWAP2 POP POP SWAP3 POP SWAP3 SWAP1 POP JUMP JUMPDEST PUSH2 0x2590 DUP2 PUSH2 0x180F JUMP JUMPDEST DUP3 MSTORE POP POP JUMP JUMPDEST PUSH1 0x0 PUSH1 0x40 DUP3 ADD SWAP1 POP PUSH2 0x25AB PUSH1 0x0 DUP4 ADD DUP6 PUSH2 0x1797 JUMP JUMPDEST PUSH2 0x25B8 PUSH1 0x20 DUP4 ADD DUP5 PUSH2 0x2587 JUMP JUMPDEST SWAP4 SWAP3 POP POP POP JUMP JUMPDEST PUSH1 0x0 DUP1 REVERT JUMPDEST PUSH32 0x4E487B7100000000000000000000000000000000000000000000000000000000 PUSH1 0x0 MSTORE PUSH1 0x41 PUSH1 0x4 MSTORE PUSH1 0x24 PUSH1 0x0 REVERT JUMPDEST PUSH2 0x25FC DUP3 PUSH2 0x18CB JUMP JUMPDEST DUP2 ADD DUP2 DUP2 LT PUSH8 0xFFFFFFFFFFFFFFFF DUP3 GT OR ISZERO PUSH2 0x261B JUMPI PUSH2 0x261A PUSH2 0x25C4 JUMP JUMPDEST JUMPDEST DUP1 PUSH1 0x40 MSTORE POP POP POP JUMP JUMPDEST PUSH1 0x0 PUSH2 0x262E PUSH2 0x17CF JUMP JUMPDEST SWAP1 POP PUSH2 0x263A DUP3 DUP3 PUSH2 0x25F3 JUMP JUMPDEST SWAP2 SWAP1 POP JUMP JUMPDEST PUSH1 0x0 DUP1 REVERT JUMPDEST PUSH1 0x0 DUP1 REVERT JUMPDEST PUSH1 0x0 PUSH8 0xFFFFFFFFFFFFFFFF DUP3 GT ISZERO PUSH2 0x2664 JUMPI PUSH2 0x2663 PUSH2 0x25C4 JUMP JUMPDEST JUMPDEST PUSH2 0x266D DUP3 PUSH2 0x18CB JUMP JUMPDEST SWAP1 POP PUSH1 0x20 DUP2 ADD SWAP1 POP SWAP2 SWAP1 POP JUMP JUMPDEST PUSH1 0x0 PUSH2 0x268D PUSH2 0x2688 DUP5 PUSH2 0x2649 JUMP JUMPDEST PUSH2 0x2624 JUMP JUMPDEST SWAP1 POP DUP3 DUP2 MSTORE PUSH1 0x20 DUP2 ADD DUP5 DUP5 DUP5 ADD GT ISZERO PUSH2 0x26A9 JUMPI PUSH2 0x26A8 PUSH2 0x2644 JUMP JUMPDEST JUMPDEST PUSH2 0x26B4 DUP5 DUP3 DUP6 PUSH2 0x18A1 JUMP JUMPDEST POP SWAP4 SWAP3 POP POP POP JUMP JUMPDEST PUSH1 0x0 DUP3 PUSH1 0x1F DUP4 ADD SLT PUSH2 0x26D1 JUMPI PUSH2 0x26D0 PUSH2 0x22BA JUMP JUMPDEST JUMPDEST DUP2 MLOAD PUSH2 0x26E1 DUP5 DUP3 PUSH1 0x20 DUP7 ADD PUSH2 0x267A JUMP JUMPDEST SWAP2 POP POP SWAP3 SWAP2 POP POP JUMP JUMPDEST PUSH1 0x0 PUSH8 0xFFFFFFFFFFFFFFFF DUP3 GT ISZERO PUSH2 0x2705 JUMPI PUSH2 0x2704 PUSH2 0x25C4 JUMP JUMPDEST JUMPDEST PUSH1 0x20 DUP3 MUL SWAP1 POP PUSH1 0x20 DUP2 ADD SWAP1 POP SWAP2 SWAP1 POP JUMP JUMPDEST PUSH1 0x0 PUSH2 0x2729 PUSH2 0x2724 DUP5 PUSH2 0x26EA JUMP JUMPDEST PUSH2 0x2624 JUMP JUMPDEST SWAP1 POP DUP1 DUP4 DUP3 MSTORE PUSH1 0x20 DUP3 ADD SWAP1 POP PUSH1 0x20 DUP5 MUL DUP4 ADD DUP6 DUP2 GT ISZERO PUSH2 0x274C JUMPI PUSH2 0x274B PUSH2 0x22C4 JUMP JUMPDEST JUMPDEST DUP4 JUMPDEST DUP2 DUP2 LT ISZERO PUSH2 0x2793 JUMPI DUP1 MLOAD PUSH8 0xFFFFFFFFFFFFFFFF DUP2 GT ISZERO PUSH2 0x2771 JUMPI PUSH2 0x2770 PUSH2 0x22BA JUMP JUMPDEST JUMPDEST DUP1 DUP7 ADD PUSH2 0x277E DUP10 DUP3 PUSH2 0x26BC JUMP JUMPDEST DUP6 MSTORE PUSH1 0x20 DUP6 ADD SWAP5 POP POP POP PUSH1 0x20 DUP2 ADD SWAP1 POP PUSH2 0x274E JUMP JUMPDEST POP POP POP SWAP4 SWAP3 POP POP POP JUMP JUMPDEST PUSH1 0x0 DUP3 PUSH1 0x1F DUP4 ADD SLT PUSH2 0x27B2 JUMPI PUSH2 0x27B1 PUSH2 0x22BA JUMP JUMPDEST JUMPDEST DUP2 MLOAD PUSH2 0x27C2 DUP5 DUP3 PUSH1 0x20 DUP7 ADD PUSH2 0x2716 JUMP JUMPDEST SWAP2 POP POP SWAP3 SWAP2 POP POP JUMP JUMPDEST PUSH1 0x0 PUSH8 0xFFFFFFFFFFFFFFFF DUP3 GT ISZERO PUSH2 0x27E6 JUMPI PUSH2 0x27E5 PUSH2 0x25C4 JUMP JUMPDEST JUMPDEST PUSH1 0x20 DUP3 MUL SWAP1 POP PUSH1 0x20 DUP2 ADD SWAP1 POP SWAP2 SWAP1 POP JUMP JUMPDEST PUSH1 0x0 PUSH8 0xFFFFFFFFFFFFFFFF DUP3 GT ISZERO PUSH2 0x2812 JUMPI PUSH2 0x2811 PUSH2 0x25C4 JUMP JUMPDEST JUMPDEST PUSH1 0x20 DUP3 MUL SWAP1 POP PUSH1 0x20 DUP2 ADD SWAP1 POP SWAP2 SWAP1 POP JUMP JUMPDEST PUSH1 0x0 DUP2 MLOAD SWAP1 POP PUSH2 0x2832 DUP2 PUSH2 0x17E3 JUMP JUMPDEST SWAP3 SWAP2 POP POP JUMP JUMPDEST PUSH1 0x0 PUSH2 0x284B PUSH2 0x2846 DUP5 PUSH2 0x27F7 JUMP JUMPDEST PUSH2 0x2624 JUMP JUMPDEST SWAP1 POP DUP1 DUP4 DUP3 MSTORE PUSH1 0x20 DUP3 ADD SWAP1 POP PUSH1 0x20 DUP5 MUL DUP4 ADD DUP6 DUP2 GT ISZERO PUSH2 0x286E JUMPI PUSH2 0x286D PUSH2 0x22C4 JUMP JUMPDEST JUMPDEST DUP4 JUMPDEST DUP2 DUP2 LT ISZERO PUSH2 0x2897 JUMPI DUP1 PUSH2 0x2883 DUP9 DUP3 PUSH2 0x2823 JUMP JUMPDEST DUP5 MSTORE PUSH1 0x20 DUP5 ADD SWAP4 POP POP PUSH1 0x20 DUP2 ADD SWAP1 POP PUSH2 0x2870 JUMP JUMPDEST POP POP POP SWAP4 SWAP3 POP POP POP JUMP JUMPDEST PUSH1 0x0 DUP3 PUSH1 0x1F DUP4 ADD SLT PUSH2 0x28B6 JUMPI PUSH2 0x28B5 PUSH2 0x22BA JUMP JUMPDEST JUMPDEST DUP2 MLOAD PUSH2 0x28C6 DUP5 DUP3 PUSH1 0x20 DUP7 ADD PUSH2 0x2838 JUMP JUMPDEST SWAP2 POP POP SWAP3 SWAP2 POP POP JUMP JUMPDEST PUSH1 0x0 PUSH2 0x28E2 PUSH2 0x28DD DUP5 PUSH2 0x27CB JUMP JUMPDEST PUSH2 0x2624 JUMP JUMPDEST SWAP1 POP DUP1 DUP4 DUP3 MSTORE PUSH1 0x20 DUP3 ADD SWAP1 POP PUSH1 0x20 DUP5 MUL DUP4 ADD DUP6 DUP2 GT ISZERO PUSH2 0x2905 JUMPI PUSH2 0x2904 PUSH2 0x22C4 JUMP JUMPDEST JUMPDEST DUP4 JUMPDEST DUP2 DUP2 LT ISZERO PUSH2 0x294C JUMPI DUP1 MLOAD PUSH8 0xFFFFFFFFFFFFFFFF DUP2 GT ISZERO PUSH2 0x292A JUMPI PUSH2 0x2929 PUSH2 0x22BA JUMP JUMPDEST JUMPDEST DUP1 DUP7 ADD PUSH2 0x2937 DUP10 DUP3 PUSH2 0x28A1 JUMP JUMPDEST DUP6 MSTORE PUSH1 0x20 DUP6 ADD SWAP5 POP POP POP PUSH1 0x20 DUP2 ADD SWAP1 POP PUSH2 0x2907 JUMP JUMPDEST POP POP POP SWAP4 SWAP3 POP POP POP JUMP JUMPDEST PUSH1 0x0 DUP3 PUSH1 0x1F DUP4 ADD SLT PUSH2 0x296B JUMPI PUSH2 0x296A PUSH2 0x22BA JUMP JUMPDEST JUMPDEST DUP2 MLOAD PUSH2 0x297B DUP5 DUP3 PUSH1 0x20 DUP7 ADD PUSH2 0x28CF JUMP JUMPDEST SWAP2 POP POP SWAP3 SWAP2 POP POP JUMP JUMPDEST PUSH1 0x0 DUP2 MLOAD SWAP1 POP PUSH2 0x2993 DUP2 PUSH2 0x1819 JUMP JUMPDEST SWAP3 SWAP2 POP POP JUMP JUMPDEST PUSH1 0x0 PUSH2 0x120 DUP3 DUP5 SUB SLT ISZERO PUSH2 0x29B0 JUMPI PUSH2 0x29AF PUSH2 0x25BF JUMP JUMPDEST JUMPDEST PUSH2 0x29BB PUSH2 0x120 PUSH2 0x2624 JUMP JUMPDEST SWAP1 POP PUSH1 0x0 DUP3 ADD MLOAD PUSH8 0xFFFFFFFFFFFFFFFF DUP2 GT ISZERO PUSH2 0x29DB JUMPI PUSH2 0x29DA PUSH2 0x263F JUMP JUMPDEST JUMPDEST PUSH2 0x29E7 DUP5 DUP3 DUP6 ADD PUSH2 0x26BC JUMP JUMPDEST PUSH1 0x0 DUP4 ADD MSTORE POP PUSH1 0x20 DUP3 ADD MLOAD PUSH8 0xFFFFFFFFFFFFFFFF DUP2 GT ISZERO PUSH2 0x2A0B JUMPI PUSH2 0x2A0A PUSH2 0x263F JUMP JUMPDEST JUMPDEST PUSH2 0x2A17 DUP5 DUP3 DUP6 ADD PUSH2 0x279D JUMP JUMPDEST PUSH1 0x20 DUP4 ADD MSTORE POP PUSH1 0x40 DUP3 ADD MLOAD PUSH8 0xFFFFFFFFFFFFFFFF DUP2 GT ISZERO PUSH2 0x2A3B JUMPI PUSH2 0x2A3A PUSH2 0x263F JUMP JUMPDEST JUMPDEST PUSH2 0x2A47 DUP5 DUP3 DUP6 ADD PUSH2 0x26BC JUMP JUMPDEST PUSH1 0x40 DUP4 ADD MSTORE POP PUSH1 0x60 DUP3 ADD MLOAD PUSH8 0xFFFFFFFFFFFFFFFF DUP2 GT ISZERO PUSH2 0x2A6B JUMPI PUSH2 0x2A6A PUSH2 0x263F JUMP JUMPDEST JUMPDEST PUSH2 0x2A77 DUP5 DUP3 DUP6 ADD PUSH2 0x2956 JUMP JUMPDEST PUSH1 0x60 DUP4 ADD MSTORE POP PUSH1 0x80 PUSH2 0x2A8B DUP5 DUP3 DUP6 ADD PUSH2 0x2823 JUMP JUMPDEST PUSH1 0x80 DUP4 ADD MSTORE POP PUSH1 0xA0 PUSH2 0x2A9F DUP5 DUP3 DUP6 ADD PUSH2 0x2823 JUMP JUMPDEST PUSH1 0xA0 DUP4 ADD MSTORE POP PUSH1 0xC0 DUP3 ADD MLOAD PUSH8 0xFFFFFFFFFFFFFFFF DUP2 GT ISZERO PUSH2 0x2AC3 JUMPI PUSH2 0x2AC2 PUSH2 0x263F JUMP JUMPDEST JUMPDEST PUSH2 0x2ACF DUP5 DUP3 DUP6 ADD PUSH2 0x28A1 JUMP JUMPDEST PUSH1 0xC0 DUP4 ADD MSTORE POP PUSH1 0xE0 PUSH2 0x2AE3 DUP5 DUP3 DUP6 ADD PUSH2 0x2984 JUMP JUMPDEST PUSH1 0xE0 DUP4 ADD MSTORE POP PUSH2 0x100 DUP3 ADD MLOAD PUSH8 0xFFFFFFFFFFFFFFFF DUP2 GT ISZERO PUSH2 0x2B08 JUMPI PUSH2 0x2B07 PUSH2 0x263F JUMP JUMPDEST JUMPDEST PUSH2 0x2B14 DUP5 DUP3 DUP6 ADD PUSH2 0x26BC JUMP JUMPDEST PUSH2 0x100 DUP4 ADD MSTORE POP SWAP3 SWAP2 POP POP JUMP JUMPDEST PUSH1 0x0 PUSH1 0x20 DUP3 DUP5 SUB SLT ISZERO PUSH2 0x2B37 JUMPI PUSH2 0x2B36 PUSH2 0x17D9 JUMP JUMPDEST JUMPDEST PUSH1 0x0 DUP3 ADD MLOAD PUSH8 0xFFFFFFFFFFFFFFFF DUP2 GT ISZERO PUSH2 0x2B55 JUMPI PUSH2 0x2B54 PUSH2 0x17DE JUMP JUMPDEST JUMPDEST PUSH2 0x2B61 DUP5 DUP3 DUP6 ADD PUSH2 0x2999 JUMP JUMPDEST SWAP2 POP POP SWAP3 SWAP2 POP POP JUMP JUMPDEST PUSH32 0x4E487B7100000000000000000000000000000000000000000000000000000000 PUSH1 0x0 MSTORE PUSH1 0x32 PUSH1 0x4 MSTORE PUSH1 0x24 PUSH1 0x0 REVERT JUMPDEST PUSH32 0x4E487B7100000000000000000000000000000000000000000000000000000000 PUSH1 0x0 MSTORE PUSH1 0x11 PUSH1 0x4 MSTORE PUSH1 0x24 PUSH1 0x0 REVERT JUMPDEST PUSH1 0x0 PUSH2 0x2BD3 DUP3 PUSH2 0x178D JUMP JUMPDEST SWAP2 POP PUSH2 0x2BDE DUP4 PUSH2 0x178D JUMP JUMPDEST SWAP3 POP DUP3 DUP3 SUB SWAP1 POP DUP2 DUP2 GT ISZERO PUSH2 0x2BF6 JUMPI PUSH2 0x2BF5 PUSH2 0x2B99 JUMP JUMPDEST JUMPDEST SWAP3 SWAP2 POP POP JUMP JUMPDEST PUSH32 0x4E487B7100000000000000000000000000000000000000000000000000000000 PUSH1 0x0 MSTORE PUSH1 0x31 PUSH1 0x4 MSTORE PUSH1 0x24 PUSH1 0x0 REVERT JUMPDEST PUSH1 0x0 PUSH1 0x40 DUP3 ADD SWAP1 POP PUSH2 0x2C40 PUSH1 0x0 DUP4 ADD DUP6 PUSH2 0x1797 JUMP JUMPDEST PUSH2 0x2C4D PUSH1 0x20 DUP4 ADD DUP5 PUSH2 0x1797 JUMP JUMPDEST SWAP4 SWAP3 POP POP POP JUMP JUMPDEST PUSH32 0x4E487B7100000000000000000000000000000000000000000000000000000000 PUSH1 0x0 MSTORE PUSH1 0x0 PUSH1 0x4 MSTORE PUSH1 0x24 PUSH1 0x0 REVERT JUMPDEST PUSH1 0x0 DUP1 REVERT JUMPDEST PUSH1 0x0 DUP1 REVERT JUMPDEST PUSH1 0x0 DUP1 REVERT JUMPDEST PUSH1 0x0 DUP1 DUP4 CALLDATALOAD PUSH1 0x1 PUSH1 0x20 SUB DUP5 CALLDATASIZE SUB SUB DUP2 SLT PUSH2 0x2CAF JUMPI PUSH2 0x2CAE PUSH2 0x2C83 JUMP JUMPDEST JUMPDEST DUP1 DUP5 ADD SWAP3 POP DUP3 CALLDATALOAD SWAP2 POP PUSH8 0xFFFFFFFFFFFFFFFF DUP3 GT ISZERO PUSH2 0x2CD1 JUMPI PUSH2 0x2CD0 PUSH2 0x2C88 JUMP JUMPDEST JUMPDEST PUSH1 0x20 DUP4 ADD SWAP3 POP PUSH1 0x1 DUP3 MUL CALLDATASIZE SUB DUP4 SGT ISZERO PUSH2 0x2CED JUMPI PUSH2 0x2CEC PUSH2 0x2C8D JUMP JUMPDEST JUMPDEST POP SWAP3 POP SWAP3 SWAP1 POP JUMP JUMPDEST PUSH1 0x0 DUP3 SWAP1 POP SWAP3 SWAP2 POP POP JUMP JUMPDEST PUSH32 0x4E487B7100000000000000000000000000000000000000000000000000000000 PUSH1 0x0 MSTORE PUSH1 0x22 PUSH1 0x4 MSTORE PUSH1 0x24 PUSH1 0x0 REVERT JUMPDEST PUSH1 0x0 PUSH1 0x2 DUP3 DIV SWAP1 POP PUSH1 0x1 DUP3 AND DUP1 PUSH2 0x2D47 JUMPI PUSH1 0x7F DUP3 AND SWAP2 POP JUMPDEST PUSH1 0x20 DUP3 LT DUP2 SUB PUSH2 0x2D5A JUMPI PUSH2 0x2D59 PUSH2 0x2D00 JUMP JUMPDEST JUMPDEST POP SWAP2 SWAP1 POP JUMP JUMPDEST PUSH1 0x0 DUP2 SWAP1 POP DUP2 PUSH1 0x0 MSTORE PUSH1 0x20 PUSH1 0x0 KECCAK256 SWAP1 POP SWAP2 SWAP1 POP JUMP JUMPDEST PUSH1 0x0 PUSH1 0x20 PUSH1 0x1F DUP4 ADD DIV SWAP1 POP SWAP2 SWAP1 POP JUMP JUMPDEST PUSH1 0x0 DUP3 DUP3 SHL SWAP1 POP SWAP3 SWAP2 POP POP JUMP JUMPDEST PUSH1 0x0 PUSH1 0x8 DUP4 MUL PUSH2 0x2DC2 PUSH32 0xFFFFFFFFFFFFFFFFFFFFFFFFFFFFFFFFFFFFFFFFFFFFFFFFFFFFFFFFFFFFFFFF DUP3 PUSH2 0x2D85 JUMP JUMPDEST PUSH2 0x2DCC DUP7 DUP4 PUSH2 0x2D85 JUMP JUMPDEST SWAP6 POP DUP1 NOT DUP5 AND SWAP4 POP DUP1 DUP7 AND DUP5 OR SWAP3 POP POP POP SWAP4 SWAP3 POP POP POP JUMP JUMPDEST PUSH1 0x0 DUP2 SWAP1 POP SWAP2 SWAP1 POP JUMP JUMPDEST PUSH1 0x0 PUSH2 0x2E09 PUSH2 0x2E04 PUSH2 0x2DFF DUP5 PUSH2 0x178D JUMP JUMPDEST PUSH2 0x2DE4 JUMP JUMPDEST PUSH2 0x178D JUMP JUMPDEST SWAP1 POP SWAP2 SWAP1 POP JUMP JUMPDEST PUSH1 0x0 DUP2 SWAP1 POP SWAP2 SWAP1 POP JUMP JUMPDEST PUSH2 0x2E23 DUP4 PUSH2 0x2DEE JUMP JUMPDEST PUSH2 0x2E37 PUSH2 0x2E2F DUP3 PUSH2 0x2E10 JUMP JUMPDEST DUP5 DUP5 SLOAD PUSH2 0x2D92 JUMP JUMPDEST DUP3 SSTORE POP POP POP POP JUMP JUMPDEST PUSH1 0x0 SWAP1 JUMP JUMPDEST PUSH2 0x2E4C PUSH2 0x2E3F JUMP JUMPDEST PUSH2 0x2E57 DUP2 DUP5 DUP5 PUSH2 0x2E1A JUMP JUMPDEST POP POP POP JUMP JUMPDEST JUMPDEST DUP2 DUP2 LT ISZERO PUSH2 0x2E7B JUMPI PUSH2 0x2E70 PUSH1 0x0 DUP3 PUSH2 0x2E44 JUMP JUMPDEST PUSH1 0x1 DUP2 ADD SWAP1 POP PUSH2 0x2E5D JUMP JUMPDEST POP POP JUMP JUMPDEST PUSH1 0x1F DUP3 GT ISZERO PUSH2 0x2EC0 JUMPI PUSH2 0x2E91 DUP2 PUSH2 0x2D60 JUMP JUMPDEST PUSH2 0x2E9A DUP5 PUSH2 0x2D75 JUMP JUMPDEST DUP2 ADD PUSH1 0x20 DUP6 LT ISZERO PUSH2 0x2EA9 JUMPI DUP2 SWAP1 POP JUMPDEST PUSH2 0x2EBD PUSH2 0x2EB5 DUP6 PUSH2 0x2D75 JUMP JUMPDEST DUP4 ADD DUP3 PUSH2 0x2E5C JUMP JUMPDEST POP POP JUMPDEST POP POP POP JUMP JUMPDEST PUSH1 0x0 DUP3 DUP3 SHR SWAP1 POP SWAP3 SWAP2 POP POP JUMP JUMPDEST PUSH1 0x0 PUSH2 0x2EE3 PUSH1 0x0 NOT DUP5 PUSH1 0x8 MUL PUSH2 0x2EC5 JUMP JUMPDEST NOT DUP1 DUP4 AND SWAP2 POP POP SWAP3 SWAP2 POP POP JUMP JUMPDEST PUSH1 0x0 PUSH2 0x2EFC DUP4 DUP4 PUSH2 0x2ED2 JUMP JUMPDEST SWAP2 POP DUP3 PUSH1 0x2 MUL DUP3 OR SWAP1 POP SWAP3 SWAP2 POP POP JUMP JUMPDEST PUSH2 0x2F16 DUP4 DUP4 PUSH2 0x2CF5 JUMP JUMPDEST PUSH8 0xFFFFFFFFFFFFFFFF DUP2 GT ISZERO PUSH2 0x2F2F JUMPI PUSH2 0x2F2E PUSH2 0x25C4 JUMP JUMPDEST JUMPDEST PUSH2 0x2F39 DUP3 SLOAD PUSH2 0x2D2F JUMP JUMPDEST PUSH2 0x2F44 DUP3 DUP3 DUP6 PUSH2 0x2E7F JUMP JUMPDEST PUSH1 0x0 PUSH1 0x1F DUP4 GT PUSH1 0x1 DUP2 EQ PUSH2 0x2F73 JUMPI PUSH1 0x0 DUP5 ISZERO PUSH2 0x2F61 JUMPI DUP3 DUP8 ADD CALLDATALOAD SWAP1 POP JUMPDEST PUSH2 0x2F6B DUP6 DUP3 PUSH2 0x2EF0 JUMP JUMPDEST DUP7 SSTORE POP PUSH2 0x2FD3 JUMP JUMPDEST PUSH1 0x1F NOT DUP5 AND PUSH2 0x2F81 DUP7 PUSH2 0x2D60 JUMP JUMPDEST PUSH1 0x0 JUMPDEST DUP3 DUP2 LT ISZERO PUSH2 0x2FA9 JUMPI DUP5 DUP10 ADD CALLDATALOAD DUP3 SSTORE PUSH1 0x1 DUP3 ADD SWAP2 POP PUSH1 0x20 DUP6 ADD SWAP5 POP PUSH1 0x20 DUP2 ADD SWAP1 POP PUSH2 0x2F84 JUMP JUMPDEST DUP7 DUP4 LT ISZERO PUSH2 0x2FC6 JUMPI DUP5 DUP10 ADD CALLDATALOAD PUSH2 0x2FC2 PUSH1 0x1F DUP10 AND DUP3 PUSH2 0x2ED2 JUMP JUMPDEST DUP4 SSTORE POP JUMPDEST PUSH1 0x1 PUSH1 0x2 DUP9 MUL ADD DUP9 SSTORE POP POP POP JUMPDEST POP POP POP POP POP POP POP JUMP JUMPDEST PUSH2 0x2FE7 DUP4 DUP4 DUP4 PUSH2 0x2F0C JUMP JUMPDEST POP POP POP JUMP JUMPDEST PUSH1 0x0 DUP1 DUP4 CALLDATALOAD PUSH1 0x1 PUSH1 0x20 SUB DUP5 CALLDATASIZE SUB SUB DUP2 SLT PUSH2 0x3009 JUMPI PUSH2 0x3008 PUSH2 0x2C83 JUMP JUMPDEST JUMPDEST DUP1 DUP5 ADD SWAP3 POP DUP3 CALLDATALOAD SWAP2 POP PUSH8 0xFFFFFFFFFFFFFFFF DUP3 GT ISZERO PUSH2 0x302B JUMPI PUSH2 0x302A PUSH2 0x2C88 JUMP JUMPDEST JUMPDEST PUSH1 0x20 DUP4 ADD SWAP3 POP PUSH1 0x20 DUP3 MUL CALLDATASIZE SUB DUP4 SGT ISZERO PUSH2 0x3047 JUMPI PUSH2 0x3046 PUSH2 0x2C8D JUMP JUMPDEST JUMPDEST POP SWAP3 POP SWAP3 SWAP1 POP JUMP JUMPDEST PUSH1 0x0 DUP2 SWAP1 POP SWAP2 SWAP1 POP JUMP JUMPDEST PUSH1 0x0 DUP2 SLOAD SWAP1 POP SWAP2 SWAP1 POP JUMP JUMPDEST PUSH1 0x0 PUSH2 0x306F DUP3 PUSH2 0x178D JUMP JUMPDEST SWAP2 POP PUSH2 0x307A DUP4 PUSH2 0x178D JUMP JUMPDEST SWAP3 POP DUP3 DUP3 MUL PUSH2 0x3088 DUP2 PUSH2 0x178D JUMP JUMPDEST SWAP2 POP DUP3 DUP3 DIV DUP5 EQ DUP4 ISZERO OR PUSH2 0x309F JUMPI PUSH2 0x309E PUSH2 0x2B99 JUMP JUMPDEST JUMPDEST POP SWAP3 SWAP2 POP POP JUMP JUMPDEST PUSH1 0x0 DUP2 SWAP1 POP PUSH1 0x1 DUP1 PUSH1 0x1 SUB DUP4 ADD DIV SWAP1 POP SWAP2 SWAP1 POP JUMP JUMPDEST PUSH1 0x0 DUP2 SWAP1 POP DUP2 PUSH1 0x0 MSTORE PUSH1 0x20 PUSH1 0x0 KECCAK256 SWAP1 POP SWAP2 SWAP1 POP JUMP JUMPDEST PUSH2 0x3100 PUSH32 0xFFFFFFFFFFFFFFFFFFFFFFFFFFFFFFFFFFFFFFFFFFFFFFFFFFFFFFFFFFFFFFFF DUP4 PUSH1 0x20 SUB PUSH1 0x8 MUL PUSH2 0x2EC5 JUMP JUMPDEST DUP2 SLOAD DUP2 AND DUP3 SSTORE POP POP POP JUMP JUMPDEST PUSH2 0x3114 DUP2 PUSH2 0x2D60 JUMP JUMPDEST PUSH2 0x311F DUP4 DUP3 SLOAD PUSH2 0x2EF0 JUMP JUMPDEST DUP1 DUP4 SSTORE PUSH1 0x0 DUP3 SSTORE POP POP POP POP JUMP JUMPDEST PUSH1 0x20 DUP5 LT PUSH1 0x0 DUP2 EQ PUSH2 0x3187 JUMPI PUSH1 0x1F DUP5 GT PUSH1 0x1 DUP2 EQ PUSH2 0x3155 JUMPI PUSH2 0x314E DUP7 DUP6 PUSH2 0x2EF0 JUMP JUMPDEST DUP4 SSTORE PUSH2 0x3181 JUMP JUMPDEST PUSH2 0x315E DUP4 PUSH2 0x2D60 JUMP JUMPDEST PUSH2 0x3175 PUSH2 0x316A DUP8 PUSH2 0x2D75 JUMP JUMPDEST DUP3 ADD PUSH1 0x1 DUP4 ADD PUSH2 0x2E5C JUMP JUMPDEST PUSH2 0x317F DUP8 DUP6 PUSH2 0x310B JUMP JUMPDEST POP JUMPDEST POP PUSH2 0x31D4 JUMP JUMPDEST PUSH2 0x3190 DUP3 PUSH2 0x2D60 JUMP JUMPDEST PUSH2 0x3199 DUP7 PUSH2 0x2D75 JUMP JUMPDEST DUP2 ADD PUSH1 0x1F DUP8 AND DUP1 ISZERO PUSH2 0x31B3 JUMPI PUSH2 0x31B2 DUP2 PUSH1 0x1 DUP5 SUB PUSH2 0x30D0 JUMP JUMPDEST JUMPDEST PUSH2 0x31C7 PUSH2 0x31BF DUP9 PUSH2 0x2D75 JUMP JUMPDEST DUP5 ADD DUP4 PUSH2 0x2E5C JUMP JUMPDEST PUSH1 0x1 DUP9 PUSH1 0x2 MUL OR DUP6 SSTORE POP POP POP JUMPDEST POP POP POP POP POP JUMP JUMPDEST PUSH9 0x10000000000000000 DUP5 GT ISZERO PUSH2 0x31F5 JUMPI PUSH2 0x31F4 PUSH2 0x25C4 JUMP JUMPDEST JUMPDEST PUSH1 0x20 DUP4 LT PUSH1 0x0 DUP2 EQ PUSH2 0x3240 JUMPI PUSH1 0x20 DUP6 LT PUSH1 0x0 DUP2 EQ PUSH2 0x321E JUMPI PUSH2 0x3217 DUP7 DUP6 PUSH2 0x2EF0 JUMP JUMPDEST DUP4 SSTORE PUSH2 0x323A JUMP JUMPDEST DUP4 PUSH1 0xFF NOT AND SWAP4 POP DUP4 PUSH2 0x322F DUP5 PUSH2 0x2D60 JUMP JUMPDEST SSTORE PUSH1 0x1 DUP7 PUSH1 0x2 MUL ADD DUP4 SSTORE JUMPDEST POP PUSH2 0x324A JUMP JUMPDEST PUSH1 0x1 DUP6 PUSH1 0x2 MUL ADD DUP3 SSTORE JUMPDEST POP POP POP POP POP JUMP JUMPDEST DUP1 SLOAD PUSH2 0x325C DUP2 PUSH2 0x2D2F JUMP JUMPDEST DUP1 DUP5 GT ISZERO PUSH2 0x3271 JUMPI PUSH2 0x3270 DUP5 DUP3 DUP5 DUP7 PUSH2 0x31DB JUMP JUMPDEST JUMPDEST DUP1 DUP5 LT ISZERO PUSH2 0x3286 JUMPI PUSH2 0x3285 DUP5 DUP3 DUP5 DUP7 PUSH2 0x312C JUMP JUMPDEST JUMPDEST POP POP POP POP JUMP JUMPDEST DUP2 DUP2 LT ISZERO PUSH2 0x32AA JUMPI PUSH2 0x329F PUSH1 0x0 DUP3 PUSH2 0x2E44 JUMP JUMPDEST PUSH1 0x1 DUP2 ADD SWAP1 POP PUSH2 0x328C JUMP JUMPDEST POP POP JUMP JUMPDEST PUSH2 0x32B9 PUSH1 0x0 DUP3 PUSH2 0x3251 JUMP JUMPDEST POP JUMP JUMPDEST PUSH1 0x0 DUP3 EQ PUSH2 0x32CD JUMPI PUSH2 0x32CC PUSH2 0x2C54 JUMP JUMPDEST JUMPDEST PUSH2 0x32D6 DUP2 PUSH2 0x32AE JUMP JUMPDEST POP POP JUMP JUMPDEST JUMPDEST DUP2 DUP2 LT ISZERO PUSH2 0x32F9 JUMPI PUSH2 0x32EE PUSH1 0x0 DUP3 PUSH2 0x32BC JUMP JUMPDEST PUSH1 0x1 DUP2 ADD SWAP1 POP PUSH2 0x32DB JUMP JUMPDEST POP POP JUMP JUMPDEST DUP2 DUP4 LT ISZERO PUSH2 0x3336 JUMPI PUSH2 0x330E DUP3 PUSH2 0x30A6 JUMP JUMPDEST PUSH2 0x3317 DUP5 PUSH2 0x30A6 JUMP JUMPDEST PUSH2 0x3320 DUP4 PUSH2 0x30BB JUMP JUMPDEST DUP2 DUP2 ADD DUP4 DUP3 ADD PUSH2 0x3330 DUP2 DUP4 PUSH2 0x32DA JUMP JUMPDEST POP POP POP POP POP JUMPDEST POP POP POP JUMP JUMPDEST PUSH9 0x10000000000000000 DUP3 GT ISZERO PUSH2 0x3355 JUMPI PUSH2 0x3354 PUSH2 0x25C4 JUMP JUMPDEST JUMPDEST PUSH2 0x335E DUP2 PUSH2 0x3059 JUMP JUMPDEST DUP3 DUP3 SSTORE PUSH2 0x336C DUP4 DUP3 DUP5 PUSH2 0x32FD JUMP JUMPDEST POP POP POP JUMP JUMPDEST PUSH1 0x0 DUP3 SWAP1 POP SWAP3 SWAP2 POP POP JUMP JUMPDEST PUSH2 0x3386 DUP4 DUP4 PUSH2 0x3371 JUMP JUMPDEST PUSH2 0x3390 DUP2 DUP4 PUSH2 0x333B JUMP JUMPDEST PUSH2 0x3399 DUP4 PUSH2 0x304F JUMP JUMPDEST PUSH2 0x33A2 DUP4 PUSH2 0x30BB JUMP JUMPDEST PUSH1 0x0 JUMPDEST DUP4 DUP2 LT ISZERO PUSH2 0x33DB JUMPI PUSH2 0x33B7 DUP4 DUP8 PUSH2 0x2C92 JUMP JUMPDEST PUSH2 0x33C2 DUP2 DUP4 DUP7 PUSH2 0x2FDC JUMP JUMPDEST PUSH1 0x20 DUP6 ADD SWAP5 POP PUSH1 0x1 DUP5 ADD SWAP4 POP POP POP PUSH1 0x1 DUP2 ADD SWAP1 POP PUSH2 0x33A5 JUMP JUMPDEST POP POP POP POP POP POP POP JUMP JUMPDEST PUSH2 0x33EF DUP4 DUP4 DUP4 PUSH2 0x337C JUMP JUMPDEST POP POP POP JUMP JUMPDEST PUSH1 0x0 DUP2 CALLDATALOAD PUSH2 0x3401 DUP2 PUSH2 0x1ED1 JUMP JUMPDEST DUP1 SWAP2 POP POP SWAP2 SWAP1 POP JUMP JUMPDEST PUSH1 0x0 DUP2 PUSH1 0x0 SHL SWAP1 POP SWAP2 SWAP1 POP JUMP JUMPDEST PUSH1 0x0 PUSH1 0xFF PUSH2 0x3424 DUP5 PUSH2 0x340A JUMP JUMPDEST SWAP4 POP DUP1 NOT DUP4 AND SWAP3 POP DUP1 DUP5 AND DUP4 OR SWAP2 POP POP SWAP3 SWAP2 POP POP JUMP JUMPDEST PUSH1 0x0 PUSH2 0x3445 DUP3 PUSH2 0x1EC5 JUMP JUMPDEST SWAP1 POP SWAP2 SWAP1 POP JUMP JUMPDEST PUSH1 0x0 DUP2 SWAP1 POP SWAP2 SWAP1 POP JUMP JUMPDEST PUSH2 0x345F DUP3 PUSH2 0x343A JUMP JUMPDEST PUSH2 0x3472 PUSH2 0x346B DUP3 PUSH2 0x344C JUMP JUMPDEST DUP4 SLOAD PUSH2 0x3417 JUMP JUMPDEST DUP3 SSTORE POP POP POP JUMP JUMPDEST PUSH1 0x0 DUP2 ADD PUSH1 0x0 DUP4 ADD PUSH2 0x348B DUP2 DUP6 PUSH2 0x2C92 JUMP JUMPDEST PUSH2 0x3496 DUP2 DUP4 DUP7 PUSH2 0x2FDC JUMP JUMPDEST POP POP POP POP PUSH1 0x1 DUP2 ADD PUSH1 0x20 DUP4 ADD PUSH2 0x34AC DUP2 DUP6 PUSH2 0x2C92 JUMP JUMPDEST PUSH2 0x34B7 DUP2 DUP4 DUP7 PUSH2 0x2FDC JUMP JUMPDEST POP POP POP POP PUSH1 0x2 DUP2 ADD PUSH1 0x40 DUP4 ADD PUSH2 0x34CD DUP2 DUP6 PUSH2 0x2FEC JUMP JUMPDEST PUSH2 0x34D8 DUP2 DUP4 DUP7 PUSH2 0x33E4 JUMP JUMPDEST POP POP POP POP PUSH1 0x3 DUP2 ADD PUSH1 0x60 DUP4 ADD DUP1 PUSH2 0x34EE DUP2 PUSH2 0x33F4 JUMP JUMPDEST SWAP1 POP PUSH2 0x34FA DUP2 DUP5 PUSH2 0x3456 JUMP JUMPDEST POP POP POP POP POP JUMP JUMPDEST PUSH2 0x350B DUP3 DUP3 PUSH2 0x3479 JUMP JUMPDEST POP POP JUMP JUMPDEST PUSH1 0x0 DUP1 REVERT JUMPDEST PUSH1 0x0 DUP1 REVERT JUMPDEST PUSH1 0x0 DUP1 REVERT JUMPDEST PUSH1 0x0 DUP1 DUP4 CALLDATALOAD PUSH1 0x1 PUSH1 0x20 SUB DUP5 CALLDATASIZE SUB SUB DUP2 SLT PUSH2 0x353B JUMPI PUSH2 0x353A PUSH2 0x3519 JUMP JUMPDEST JUMPDEST DUP4 DUP2 ADD SWAP3 POP DUP3 CALLDATALOAD SWAP2 POP PUSH1 0x20 DUP4 ADD SWAP3 POP PUSH8 0xFFFFFFFFFFFFFFFF DUP3 GT ISZERO PUSH2 0x3563 JUMPI PUSH2 0x3562 PUSH2 0x350F JUMP JUMPDEST JUMPDEST PUSH1 0x1 DUP3 MUL CALLDATASIZE SUB DUP4 SGT ISZERO PUSH2 0x3579 JUMPI PUSH2 0x3578 PUSH2 0x3514 JUMP JUMPDEST JUMPDEST POP SWAP3 POP SWAP3 SWAP1 POP JUMP JUMPDEST DUP3 DUP2 DUP4 CALLDATACOPY PUSH1 0x0 DUP4 DUP4 ADD MSTORE POP POP POP JUMP JUMPDEST PUSH1 0x0 PUSH2 0x359C DUP4 DUP6 PUSH2 0x1890 JUMP JUMPDEST SWAP4 POP PUSH2 0x35A9 DUP4 DUP6 DUP5 PUSH2 0x3581 JUMP JUMPDEST PUSH2 0x35B2 DUP4 PUSH2 0x18CB JUMP JUMPDEST DUP5 ADD SWAP1 POP SWAP4 SWAP3 POP POP POP JUMP JUMPDEST PUSH1 0x0 DUP1 DUP4 CALLDATALOAD PUSH1 0x1 PUSH1 0x20 SUB DUP5 CALLDATASIZE SUB SUB DUP2 SLT PUSH2 0x35DA JUMPI PUSH2 0x35D9 PUSH2 0x3519 JUMP JUMPDEST JUMPDEST DUP4 DUP2 ADD SWAP3 POP DUP3 CALLDATALOAD SWAP2 POP PUSH1 0x20 DUP4 ADD SWAP3 POP PUSH8 0xFFFFFFFFFFFFFFFF DUP3 GT ISZERO PUSH2 0x3602 JUMPI PUSH2 0x3601 PUSH2 0x350F JUMP JUMPDEST JUMPDEST PUSH1 0x20 DUP3 MUL CALLDATASIZE SUB DUP4 SGT ISZERO PUSH2 0x3618 JUMPI PUSH2 0x3617 PUSH2 0x3514 JUMP JUMPDEST JUMPDEST POP SWAP3 POP SWAP3 SWAP1 POP JUMP JUMPDEST PUSH1 0x0 PUSH2 0x362D DUP5 DUP5 DUP5 PUSH2 0x3590 JUMP JUMPDEST SWAP1 POP SWAP4 SWAP3 POP POP POP JUMP JUMPDEST PUSH1 0x0 PUSH1 0x20 DUP3 ADD SWAP1 POP SWAP2 SWAP1 POP JUMP JUMPDEST PUSH1 0x0 PUSH2 0x364F DUP4 DUP6 PUSH2 0x1920 JUMP JUMPDEST SWAP4 POP DUP4 PUSH1 0x20 DUP5 MUL DUP6 ADD PUSH2 0x3661 DUP5 PUSH2 0x304F JUMP JUMPDEST DUP1 PUSH1 0x0 JUMPDEST DUP8 DUP2 LT ISZERO PUSH2 0x36A7 JUMPI DUP5 DUP5 SUB DUP10 MSTORE PUSH2 0x367C DUP3 DUP5 PUSH2 0x351E JUMP JUMPDEST PUSH2 0x3687 DUP7 DUP3 DUP5 PUSH2 0x3620 JUMP JUMPDEST SWAP6 POP PUSH2 0x3692 DUP5 PUSH2 0x3636 JUMP JUMPDEST SWAP4 POP PUSH1 0x20 DUP12 ADD SWAP11 POP POP POP PUSH1 0x1 DUP2 ADD SWAP1 POP PUSH2 0x3665 JUMP JUMPDEST POP DUP3 SWAP8 POP DUP8 SWAP5 POP POP POP POP POP SWAP4 SWAP3 POP POP POP JUMP JUMPDEST PUSH1 0x0 PUSH2 0x36C8 PUSH1 0x20 DUP5 ADD DUP5 PUSH2 0x1EE8 JUMP JUMPDEST SWAP1 POP SWAP3 SWAP2 POP POP JUMP JUMPDEST PUSH1 0x0 PUSH1 0x80 DUP4 ADD PUSH2 0x36E3 PUSH1 0x0 DUP5 ADD DUP5 PUSH2 0x351E JUMP JUMPDEST DUP6 DUP4 SUB PUSH1 0x0 DUP8 ADD MSTORE PUSH2 0x36F6 DUP4 DUP3 DUP5 PUSH2 0x3590 JUMP JUMPDEST SWAP3 POP POP POP PUSH2 0x3707 PUSH1 0x20 DUP5 ADD DUP5 PUSH2 0x351E JUMP JUMPDEST DUP6 DUP4 SUB PUSH1 0x20 DUP8 ADD MSTORE PUSH2 0x371A DUP4 DUP3 DUP5 PUSH2 0x3590 JUMP JUMPDEST SWAP3 POP POP POP PUSH2 0x372B PUSH1 0x40 DUP5 ADD DUP5 PUSH2 0x35BD JUMP JUMPDEST DUP6 DUP4 SUB PUSH1 0x40 DUP8 ADD MSTORE PUSH2 0x373E DUP4 DUP3 DUP5 PUSH2 0x3643 JUMP JUMPDEST SWAP3 POP POP POP PUSH2 0x374F PUSH1 0x60 DUP5 ADD DUP5 PUSH2 0x36B9 JUMP JUMPDEST PUSH2 0x375C PUSH1 0x60 DUP7 ADD DUP3 PUSH2 0x1F58 JUMP JUMPDEST POP DUP1 SWAP2 POP POP SWAP3 SWAP2 POP POP JUMP JUMPDEST PUSH1 0x0 PUSH1 0x40 DUP3 ADD SWAP1 POP PUSH2 0x377C PUSH1 0x0 DUP4 ADD DUP6 PUSH2 0x1797 JUMP JUMPDEST DUP2 DUP2 SUB PUSH1 0x20 DUP4 ADD MSTORE PUSH2 0x378E DUP2 DUP5 PUSH2 0x36D0 JUMP JUMPDEST SWAP1 POP SWAP4 SWAP3 POP POP POP JUMP JUMPDEST PUSH1 0x0 DUP1 DUP4 CALLDATALOAD PUSH1 0x1 PUSH1 0x20 SUB DUP5 CALLDATASIZE SUB SUB DUP2 SLT PUSH2 0x37B4 JUMPI PUSH2 0x37B3 PUSH2 0x3519 JUMP JUMPDEST JUMPDEST DUP4 DUP2 ADD SWAP3 POP DUP3 CALLDATALOAD SWAP2 POP PUSH1 0x20 DUP4 ADD SWAP3 POP PUSH8 0xFFFFFFFFFFFFFFFF DUP3 GT ISZERO PUSH2 0x37DC JUMPI PUSH2 0x37DB PUSH2 0x350F JUMP JUMPDEST JUMPDEST PUSH1 0x20 DUP3 MUL CALLDATASIZE SUB DUP4 SGT ISZERO PUSH2 0x37F2 JUMPI PUSH2 0x37F1 PUSH2 0x3514 JUMP JUMPDEST JUMPDEST POP SWAP3 POP SWAP3 SWAP1 POP JUMP JUMPDEST PUSH1 0x0 DUP2 SWAP1 POP SWAP2 SWAP1 POP JUMP JUMPDEST PUSH1 0x0 DUP1 REVERT JUMPDEST DUP3 DUP2 DUP4 CALLDATACOPY POP POP POP JUMP JUMPDEST PUSH1 0x0 PUSH2 0x381E DUP4 DUP6 PUSH2 0x1A0E JUMP JUMPDEST SWAP4 POP PUSH32 0x7FFFFFFFFFFFFFFFFFFFFFFFFFFFFFFFFFFFFFFFFFFFFFFFFFFFFFFFFFFFFFF DUP4 GT ISZERO PUSH2 0x3851 JUMPI PUSH2 0x3850 PUSH2 0x3804 JUMP JUMPDEST JUMPDEST PUSH1 0x20 DUP4 MUL SWAP3 POP PUSH2 0x3862 DUP4 DUP6 DUP5 PUSH2 0x3809 JUMP JUMPDEST DUP3 DUP5 ADD SWAP1 POP SWAP4 SWAP3 POP POP POP JUMP JUMPDEST PUSH1 0x0 PUSH2 0x387B DUP5 DUP5 DUP5 PUSH2 0x3812 JUMP JUMPDEST SWAP1 POP SWAP4 SWAP3 POP POP POP JUMP JUMPDEST PUSH1 0x0 DUP1 DUP4 CALLDATALOAD PUSH1 0x1 PUSH1 0x20 SUB DUP5 CALLDATASIZE SUB SUB DUP2 SLT PUSH2 0x38A1 JUMPI PUSH2 0x38A0 PUSH2 0x3519 JUMP JUMPDEST JUMPDEST DUP4 DUP2 ADD SWAP3 POP DUP3 CALLDATALOAD SWAP2 POP PUSH1 0x20 DUP4 ADD SWAP3 POP PUSH8 0xFFFFFFFFFFFFFFFF DUP3 GT ISZERO PUSH2 0x38C9 JUMPI PUSH2 0x38C8 PUSH2 0x350F JUMP JUMPDEST JUMPDEST PUSH1 0x20 DUP3 MUL CALLDATASIZE SUB DUP4 SGT ISZERO PUSH2 0x38DF JUMPI PUSH2 0x38DE PUSH2 0x3514 JUMP JUMPDEST JUMPDEST POP SWAP3 POP SWAP3 SWAP1 POP JUMP JUMPDEST PUSH1 0x0 PUSH1 0x20 DUP3 ADD SWAP1 POP SWAP2 SWAP1 POP JUMP JUMPDEST PUSH1 0x0 PUSH2 0x3900 DUP4 DUP6 PUSH2 0x19E2 JUMP JUMPDEST SWAP4 POP DUP4 PUSH1 0x20 DUP5 MUL DUP6 ADD PUSH2 0x3912 DUP5 PUSH2 0x37FA JUMP JUMPDEST DUP1 PUSH1 0x0 JUMPDEST DUP8 DUP2 LT ISZERO PUSH2 0x3958 JUMPI DUP5 DUP5 SUB DUP10 MSTORE PUSH2 0x392D DUP3 DUP5 PUSH2 0x3884 JUMP JUMPDEST PUSH2 0x3938 DUP7 DUP3 DUP5 PUSH2 0x386E JUMP JUMPDEST SWAP6 POP PUSH2 0x3943 DUP5 PUSH2 0x38E7 JUMP JUMPDEST SWAP4 POP PUSH1 0x20 DUP12 ADD SWAP11 POP POP POP PUSH1 0x1 DUP2 ADD SWAP1 POP PUSH2 0x3916 JUMP JUMPDEST POP DUP3 SWAP8 POP DUP8 SWAP5 POP POP POP POP POP SWAP4 SWAP3 POP POP POP JUMP JUMPDEST PUSH1 0x0 PUSH2 0x3979 PUSH1 0x20 DUP5 ADD DUP5 PUSH2 0x17FA JUMP JUMPDEST SWAP1 POP SWAP3 SWAP2 POP POP JUMP JUMPDEST PUSH1 0x0 PUSH2 0x3990 PUSH1 0x20 DUP5 ADD DUP5 PUSH2 0x1830 JUMP JUMPDEST SWAP1 POP SWAP3 SWAP2 POP POP JUMP JUMPDEST PUSH1 0x0 PUSH2 0x120 DUP4 ADD PUSH2 0x39AC PUSH1 0x0 DUP5 ADD DUP5 PUSH2 0x351E JUMP JUMPDEST DUP6 DUP4 SUB PUSH1 0x0 DUP8 ADD MSTORE PUSH2 0x39BF DUP4 DUP3 DUP5 PUSH2 0x3590 JUMP JUMPDEST SWAP3 POP POP POP PUSH2 0x39D0 PUSH1 0x20 DUP5 ADD DUP5 PUSH2 0x35BD JUMP JUMPDEST DUP6 DUP4 SUB PUSH1 0x20 DUP8 ADD MSTORE PUSH2 0x39E3 DUP4 DUP3 DUP5 PUSH2 0x3643 JUMP JUMPDEST SWAP3 POP POP POP PUSH2 0x39F4 PUSH1 0x40 DUP5 ADD DUP5 PUSH2 0x351E JUMP JUMPDEST DUP6 DUP4 SUB PUSH1 0x40 DUP8 ADD MSTORE PUSH2 0x3A07 DUP4 DUP3 DUP5 PUSH2 0x3590 JUMP JUMPDEST SWAP3 POP POP POP PUSH2 0x3A18 PUSH1 0x60 DUP5 ADD DUP5 PUSH2 0x3797 JUMP JUMPDEST DUP6 DUP4 SUB PUSH1 0x60 DUP8 ADD MSTORE PUSH2 0x3A2B DUP4 DUP3 DUP5 PUSH2 0x38F4 JUMP JUMPDEST SWAP3 POP POP POP PUSH2 0x3A3C PUSH1 0x80 DUP5 ADD DUP5 PUSH2 0x396A JUMP JUMPDEST PUSH2 0x3A49 PUSH1 0x80 DUP7 ADD DUP3 PUSH2 0x1A2F JUMP JUMPDEST POP PUSH2 0x3A57 PUSH1 0xA0 DUP5 ADD DUP5 PUSH2 0x396A JUMP JUMPDEST PUSH2 0x3A64 PUSH1 0xA0 DUP7 ADD DUP3 PUSH2 0x1A2F JUMP JUMPDEST POP PUSH2 0x3A72 PUSH1 0xC0 DUP5 ADD DUP5 PUSH2 0x3884 JUMP JUMPDEST DUP6 DUP4 SUB PUSH1 0xC0 DUP8 ADD MSTORE PUSH2 0x3A85 DUP4 DUP3 DUP5 PUSH2 0x3812 JUMP JUMPDEST SWAP3 POP POP POP PUSH2 0x3A96 PUSH1 0xE0 DUP5 ADD DUP5 PUSH2 0x3981 JUMP JUMPDEST PUSH2 0x3AA3 PUSH1 0xE0 DUP7 ADD DUP3 PUSH2 0x1B57 JUMP JUMPDEST POP PUSH2 0x3AB2 PUSH2 0x100 DUP5 ADD DUP5 PUSH2 0x351E JUMP JUMPDEST DUP6 DUP4 SUB PUSH2 0x100 DUP8 ADD MSTORE PUSH2 0x3AC6 DUP4 DUP3 DUP5 PUSH2 0x3590 JUMP JUMPDEST SWAP3 POP POP POP DUP1 SWAP2 POP POP SWAP3 SWAP2 POP POP JUMP JUMPDEST PUSH1 0x0 PUSH1 0x60 DUP3 ADD SWAP1 POP PUSH2 0x3AE9 PUSH1 0x0 DUP4 ADD DUP7 PUSH2 0x1797 JUMP JUMPDEST PUSH2 0x3AF6 PUSH1 0x20 DUP4 ADD DUP6 PUSH2 0x2587 JUMP JUMPDEST DUP2 DUP2 SUB PUSH1 0x40 DUP4 ADD MSTORE PUSH2 0x3B08 DUP2 DUP5 PUSH2 0x3998 JUMP JUMPDEST SWAP1 POP SWAP5 SWAP4 POP POP POP POP JUMP JUMPDEST PUSH2 0x3B1B DUP2 PUSH2 0x21C1 JUMP JUMPDEST DUP3 MSTORE POP POP JUMP JUMPDEST PUSH1 0x0 PUSH1 0x40 DUP3 ADD SWAP1 POP PUSH2 0x3B36 PUSH1 0x0 DUP4 ADD DUP6 PUSH2 0x1797 JUMP JUMPDEST PUSH2 0x3B43 PUSH1 0x20 DUP4 ADD DUP5 PUSH2 0x3B12 JUMP JUMPDEST SWAP4 SWAP3 POP POP POP JUMP JUMPDEST PUSH2 0x3B53 DUP2 PUSH2 0x1EC5 JUMP JUMPDEST DUP3 MSTORE POP POP JUMP JUMPDEST PUSH1 0x0 PUSH1 0x40 DUP3 ADD SWAP1 POP PUSH2 0x3B6E PUSH1 0x0 DUP4 ADD DUP6 PUSH2 0x1797 JUMP JUMPDEST PUSH2 0x3B7B PUSH1 0x20 DUP4 ADD DUP5 PUSH2 0x3B4A JUMP JUMPDEST SWAP4 SWAP3 POP POP POP JUMP JUMPDEST PUSH1 0x6 DUP2 LT PUSH2 0x3B8F JUMPI PUSH1 0x0 DUP1 REVERT JUMPDEST POP JUMP JUMPDEST PUSH1 0x0 DUP2 CALLDATALOAD PUSH2 0x3B9F DUP2 PUSH2 0x3B82 JUMP JUMPDEST DUP1 SWAP2 POP POP SWAP2 SWAP1 POP JUMP JUMPDEST PUSH1 0x0 PUSH2 0x3BB3 DUP3 PUSH2 0x201B JUMP JUMPDEST SWAP1 POP SWAP2 SWAP1 POP JUMP JUMPDEST PUSH1 0x0 DUP2 SWAP1 POP SWAP2 SWAP1 POP JUMP JUMPDEST PUSH2 0x3BCD DUP3 PUSH2 0x3BA8 JUMP JUMPDEST PUSH2 0x3BE0 PUSH2 0x3BD9 DUP3 PUSH2 0x3BBA JUMP JUMPDEST DUP4 SLOAD PUSH2 0x3417 JUMP JUMPDEST DUP3 SSTORE POP POP POP JUMP JUMPDEST PUSH1 0x0 DUP1 DUP4 CALLDATALOAD PUSH1 0x1 PUSH1 0x20 SUB DUP5 CALLDATASIZE SUB SUB DUP2 SLT PUSH2 0x3C04 JUMPI PUSH2 0x3C03 PUSH2 0x2C83 JUMP JUMPDEST JUMPDEST DUP1 DUP5 ADD SWAP3 POP DUP3 CALLDATALOAD SWAP2 POP PUSH8 0xFFFFFFFFFFFFFFFF DUP3 GT ISZERO PUSH2 0x3C26 JUMPI PUSH2 0x3C25 PUSH2 0x2C88 JUMP JUMPDEST JUMPDEST PUSH1 0x20 DUP4 ADD SWAP3 POP PUSH1 0x20 DUP3 MUL CALLDATASIZE SUB DUP4 SGT ISZERO PUSH2 0x3C42 JUMPI PUSH2 0x3C41 PUSH2 0x2C8D JUMP JUMPDEST JUMPDEST POP SWAP3 POP SWAP3 SWAP1 POP JUMP JUMPDEST PUSH1 0x0 DUP2 SWAP1 POP SWAP2 SWAP1 POP JUMP JUMPDEST PUSH1 0x0 DUP3 CALLDATALOAD PUSH1 0x1 PUSH1 0x40 SUB DUP4 CALLDATASIZE SUB SUB DUP2 SLT PUSH2 0x3C70 JUMPI PUSH2 0x3C6F PUSH2 0x2C83 JUMP JUMPDEST JUMPDEST DUP1 DUP4 ADD SWAP2 POP POP SWAP3 SWAP2 POP POP JUMP JUMPDEST PUSH1 0x0 DUP2 SLOAD SWAP1 POP SWAP2 SWAP1 POP JUMP JUMPDEST PUSH1 0x0 DUP2 SWAP1 POP PUSH2 0x3C97 DUP3 PUSH1 0x2 PUSH2 0x3064 JUMP JUMPDEST SWAP1 POP SWAP2 SWAP1 POP JUMP JUMPDEST PUSH1 0x0 DUP2 SWAP1 POP DUP2 PUSH1 0x0 MSTORE PUSH1 0x20 PUSH1 0x0 KECCAK256 SWAP1 POP SWAP2 SWAP1 POP JUMP JUMPDEST PUSH2 0x3CC0 PUSH1 0x0 DUP1 DUP4 ADD PUSH2 0x32BC JUMP JUMPDEST PUSH1 0x0 PUSH1 0x1 DUP3 ADD SSTORE POP JUMP JUMPDEST PUSH1 0x0 DUP3 EQ PUSH2 0x3CDB JUMPI PUSH2 0x3CDA PUSH2 0x2C54 JUMP JUMPDEST JUMPDEST PUSH2 0x3CE4 DUP2 PUSH2 0x3CB3 JUMP JUMPDEST POP POP JUMP JUMPDEST JUMPDEST DUP2 DUP2 LT ISZERO PUSH2 0x3D07 JUMPI PUSH2 0x3CFC PUSH1 0x0 DUP3 PUSH2 0x3CCA JUMP JUMPDEST PUSH1 0x2 DUP2 ADD SWAP1 POP PUSH2 0x3CE9 JUMP JUMPDEST POP POP JUMP JUMPDEST DUP2 DUP4 LT ISZERO PUSH2 0x3D44 JUMPI PUSH2 0x3D1C DUP3 PUSH2 0x3C87 JUMP JUMPDEST PUSH2 0x3D25 DUP5 PUSH2 0x3C87 JUMP JUMPDEST PUSH2 0x3D2E DUP4 PUSH2 0x3C9E JUMP JUMPDEST DUP2 DUP2 ADD DUP4 DUP3 ADD PUSH2 0x3D3E DUP2 DUP4 PUSH2 0x3CE8 JUMP JUMPDEST POP POP POP POP POP JUMPDEST POP POP POP JUMP JUMPDEST PUSH9 0x10000000000000000 DUP3 GT ISZERO PUSH2 0x3D63 JUMPI PUSH2 0x3D62 PUSH2 0x25C4 JUMP JUMPDEST JUMPDEST PUSH2 0x3D6C DUP2 PUSH2 0x3C7C JUMP JUMPDEST DUP3 DUP3 SSTORE PUSH2 0x3D7A DUP4 DUP3 DUP5 PUSH2 0x3D0B JUMP JUMPDEST POP POP POP JUMP JUMPDEST PUSH1 0x0 DUP3 SWAP1 POP SWAP3 SWAP2 POP POP JUMP JUMPDEST PUSH1 0x0 DUP2 CALLDATALOAD PUSH2 0x3D97 DUP2 PUSH2 0x1CB0 JUMP JUMPDEST DUP1 SWAP2 POP POP SWAP2 SWAP1 POP JUMP JUMPDEST PUSH1 0x0 PUSH20 0xFFFFFFFFFFFFFFFFFFFFFFFFFFFFFFFFFFFFFFFF PUSH2 0x3DC0 DUP5 PUSH2 0x340A JUMP JUMPDEST SWAP4 POP DUP1 NOT DUP4 AND SWAP3 POP DUP1 DUP5 AND DUP4 OR SWAP2 POP POP SWAP3 SWAP2 POP POP JUMP JUMPDEST PUSH1 0x0 PUSH2 0x3DF1 PUSH2 0x3DEC PUSH2 0x3DE7 DUP5 PUSH2 0x174C JUMP JUMPDEST PUSH2 0x2DE4 JUMP JUMPDEST PUSH2 0x174C JUMP JUMPDEST SWAP1 POP SWAP2 SWAP1 POP JUMP JUMPDEST PUSH1 0x0 PUSH2 0x3E03 DUP3 PUSH2 0x3DD6 JUMP JUMPDEST SWAP1 POP SWAP2 SWAP1 POP JUMP JUMPDEST PUSH1 0x0 PUSH2 0x3E15 DUP3 PUSH2 0x3DF8 JUMP JUMPDEST SWAP1 POP SWAP2 SWAP1 POP JUMP JUMPDEST PUSH1 0x0 DUP2 SWAP1 POP SWAP2 SWAP1 POP JUMP JUMPDEST PUSH2 0x3E2F DUP3 PUSH2 0x3E0A JUMP JUMPDEST PUSH2 0x3E42 PUSH2 0x3E3B DUP3 PUSH2 0x3E1C JUMP JUMPDEST DUP4 SLOAD PUSH2 0x3DA0 JUMP JUMPDEST DUP3 SSTORE POP POP POP JUMP JUMPDEST PUSH1 0x0 DUP2 ADD PUSH1 0x0 DUP4 ADD PUSH2 0x3E5B DUP2 DUP6 PUSH2 0x2C92 JUMP JUMPDEST PUSH2 0x3E66 DUP2 DUP4 DUP7 PUSH2 0x2FDC JUMP JUMPDEST POP POP POP POP PUSH1 0x1 DUP2 ADD PUSH1 0x20 DUP4 ADD DUP1 PUSH2 0x3E7C DUP2 PUSH2 0x3D8A JUMP JUMPDEST SWAP1 POP PUSH2 0x3E88 DUP2 DUP5 PUSH2 0x3E26 JUMP JUMPDEST POP POP POP POP POP JUMP JUMPDEST PUSH2 0x3E99 DUP3 DUP3 PUSH2 0x3E49 JUMP JUMPDEST POP POP JUMP JUMPDEST PUSH2 0x3EA7 DUP4 DUP4 PUSH2 0x3D7F JUMP JUMPDEST PUSH2 0x3EB1 DUP2 DUP4 PUSH2 0x3D49 JUMP JUMPDEST PUSH2 0x3EBA DUP4 PUSH2 0x3C4A JUMP JUMPDEST PUSH2 0x3EC3 DUP4 PUSH2 0x3C9E JUMP JUMPDEST PUSH1 0x0 JUMPDEST DUP4 DUP2 LT ISZERO PUSH2 0x3EFA JUMPI PUSH2 0x3ED8 DUP4 DUP8 PUSH2 0x3C54 JUMP JUMPDEST PUSH2 0x3EE2 DUP2 DUP5 PUSH2 0x3E8F JUMP JUMPDEST PUSH1 0x20 DUP5 ADD SWAP4 POP PUSH1 0x2 DUP4 ADD SWAP3 POP POP PUSH1 0x1 DUP2 ADD SWAP1 POP PUSH2 0x3EC6 JUMP JUMPDEST POP POP POP POP POP POP POP JUMP JUMPDEST PUSH2 0x3F0E DUP4 DUP4 DUP4 PUSH2 0x3E9D JUMP JUMPDEST POP POP POP JUMP JUMPDEST PUSH1 0x0 DUP2 ADD PUSH1 0x0 DUP4 ADD DUP1 PUSH2 0x3F25 DUP2 PUSH2 0x3B92 JUMP JUMPDEST SWAP1 POP PUSH2 0x3F31 DUP2 DUP5 PUSH2 0x3BC4 JUMP JUMPDEST POP POP POP PUSH1 0x1 DUP2 ADD PUSH1 0x20 DUP4 ADD PUSH2 0x3F46 DUP2 DUP6 PUSH2 0x3BE7 JUMP JUMPDEST PUSH2 0x3F51 DUP2 DUP4 DUP7 PUSH2 0x3F03 JUMP JUMPDEST POP POP POP POP POP POP JUMP JUMPDEST PUSH2 0x3F63 DUP3 DUP3 PUSH2 0x3F13 JUMP JUMPDEST POP POP JUMP JUMPDEST PUSH1 0x0 DUP2 CALLDATALOAD SWAP1 POP PUSH2 0x3F76 DUP2 PUSH2 0x3B82 JUMP JUMPDEST SWAP3 SWAP2 POP POP JUMP JUMPDEST PUSH1 0x0 PUSH2 0x3F8B PUSH1 0x20 DUP5 ADD DUP5 PUSH2 0x3F67 JUMP JUMPDEST SWAP1 POP SWAP3 SWAP2 POP POP JUMP JUMPDEST PUSH1 0x0 DUP1 DUP4 CALLDATALOAD PUSH1 0x1 PUSH1 0x20 SUB DUP5 CALLDATASIZE SUB SUB DUP2 SLT PUSH2 0x3FB0 JUMPI PUSH2 0x3FAF PUSH2 0x3519 JUMP JUMPDEST JUMPDEST DUP4 DUP2 ADD SWAP3 POP DUP3 CALLDATALOAD SWAP2 POP PUSH1 0x20 DUP4 ADD SWAP3 POP PUSH8 0xFFFFFFFFFFFFFFFF DUP3 GT ISZERO PUSH2 0x3FD8 JUMPI PUSH2 0x3FD7 PUSH2 0x350F JUMP JUMPDEST JUMPDEST PUSH1 0x20 DUP3 MUL CALLDATASIZE SUB DUP4 SGT ISZERO PUSH2 0x3FEE JUMPI PUSH2 0x3FED PUSH2 0x3514 JUMP JUMPDEST JUMPDEST POP SWAP3 POP SWAP3 SWAP1 POP JUMP JUMPDEST PUSH1 0x0 PUSH2 0x4005 PUSH1 0x20 DUP5 ADD DUP5 PUSH2 0x1CC7 JUMP JUMPDEST SWAP1 POP SWAP3 SWAP2 POP POP JUMP JUMPDEST PUSH1 0x0 PUSH1 0x40 DUP4 ADD PUSH2 0x4020 PUSH1 0x0 DUP5 ADD DUP5 PUSH2 0x351E JUMP JUMPDEST DUP6 DUP4 SUB PUSH1 0x0 DUP8 ADD MSTORE PUSH2 0x4033 DUP4 DUP3 DUP5 PUSH2 0x3590 JUMP JUMPDEST SWAP3 POP POP POP PUSH2 0x4044 PUSH1 0x20 DUP5 ADD DUP5 PUSH2 0x3FF6 JUMP JUMPDEST PUSH2 0x4051 PUSH1 0x20 DUP7 ADD DUP3 PUSH2 0x207B JUMP JUMPDEST POP DUP1 SWAP2 POP POP SWAP3 SWAP2 POP POP JUMP JUMPDEST PUSH1 0x0 PUSH2 0x4068 DUP4 DUP4 PUSH2 0x400D JUMP JUMPDEST SWAP1 POP SWAP3 SWAP2 POP POP JUMP JUMPDEST PUSH1 0x0 DUP3 CALLDATALOAD PUSH1 0x1 PUSH1 0x40 SUB DUP4 CALLDATASIZE SUB SUB DUP2 SLT PUSH2 0x408C JUMPI PUSH2 0x408B PUSH2 0x3519 JUMP JUMPDEST JUMPDEST DUP3 DUP2 ADD SWAP2 POP POP SWAP3 SWAP2 POP POP JUMP JUMPDEST PUSH1 0x0 PUSH1 0x20 DUP3 ADD SWAP1 POP SWAP2 SWAP1 POP JUMP JUMPDEST PUSH1 0x0 PUSH2 0x40B1 DUP4 DUP6 PUSH2 0x205A JUMP JUMPDEST SWAP4 POP DUP4 PUSH1 0x20 DUP5 MUL DUP6 ADD PUSH2 0x40C3 DUP5 PUSH2 0x3C4A JUMP JUMPDEST DUP1 PUSH1 0x0 JUMPDEST DUP8 DUP2 LT ISZERO PUSH2 0x4107 JUMPI DUP5 DUP5 SUB DUP10 MSTORE PUSH2 0x40DE DUP3 DUP5 PUSH2 0x4070 JUMP JUMPDEST PUSH2 0x40E8 DUP6 DUP3 PUSH2 0x405C JUMP JUMPDEST SWAP5 POP PUSH2 0x40F3 DUP4 PUSH2 0x4098 JUMP JUMPDEST SWAP3 POP PUSH1 0x20 DUP11 ADD SWAP10 POP POP PUSH1 0x1 DUP2 ADD SWAP1 POP PUSH2 0x40C7 JUMP JUMPDEST POP DUP3 SWAP8 POP DUP8 SWAP5 POP POP POP POP POP SWAP4 SWAP3 POP POP POP JUMP JUMPDEST PUSH1 0x0 PUSH1 0x40 DUP4 ADD PUSH2 0x412C PUSH1 0x0 DUP5 ADD DUP5 PUSH2 0x3F7C JUMP JUMPDEST PUSH2 0x4139 PUSH1 0x0 DUP7 ADD DUP3 PUSH2 0x2040 JUMP JUMPDEST POP PUSH2 0x4147 PUSH1 0x20 DUP5 ADD DUP5 PUSH2 0x3F93 JUMP JUMPDEST DUP6 DUP4 SUB PUSH1 0x20 DUP8 ADD MSTORE PUSH2 0x415A DUP4 DUP3 DUP5 PUSH2 0x40A5 JUMP JUMPDEST SWAP3 POP POP POP DUP1 SWAP2 POP POP SWAP3 SWAP2 POP POP JUMP JUMPDEST PUSH1 0x0 PUSH1 0x40 DUP3 ADD SWAP1 POP PUSH2 0x417D PUSH1 0x0 DUP4 ADD DUP6 PUSH2 0x1797 JUMP JUMPDEST DUP2 DUP2 SUB PUSH1 0x20 DUP4 ADD MSTORE PUSH2 0x418F DUP2 DUP5 PUSH2 0x4119 JUMP JUMPDEST SWAP1 POP SWAP4 SWAP3 POP POP POP JUMP JUMPDEST PUSH1 0x0 PUSH2 0x41A3 DUP3 PUSH2 0x178D JUMP JUMPDEST SWAP2 POP PUSH32 0xFFFFFFFFFFFFFFFFFFFFFFFFFFFFFFFFFFFFFFFFFFFFFFFFFFFFFFFFFFFFFFFF DUP3 SUB PUSH2 0x41D5 JUMPI PUSH2 0x41D4 PUSH2 0x2B99 JUMP JUMPDEST JUMPDEST PUSH1 0x1 DUP3 ADD SWAP1 POP SWAP2 SWAP1 POP JUMP JUMPDEST PUSH1 0x0 PUSH1 0x40 DUP3 ADD SWAP1 POP PUSH2 0x41F5 PUSH1 0x0 DUP4 ADD DUP6 PUSH2 0x1797 JUMP JUMPDEST PUSH2 0x4202 PUSH1 0x20 DUP4 ADD DUP5 PUSH2 0x177E JUMP JUMPDEST SWAP4 SWAP3 POP POP POP JUMP INVALID LOG2 PUSH5 0x6970667358 0x22 SLT KECCAK256 LT 0xAB 0xBD KECCAK256 DUP3 0xD6 0xDF 0xA9 0xC6 PUSH5 0x6CA687424B SUB 0xEF 0xE8 LT 0xA9 0xBE CHAINID 0xBF 0x21 0xE9 SWAP11 0xA8 PUSH10 0x5431825964736F6C6343 STOP ADDMOD XOR STOP CALLER "},"methodIdentifiers":{"AddGuardian(uint256,uint256)":"e1e009ba","AdminManageCommunity(uint256,(string,string,string[],bool),(uint8,(string,address)[]),uint256[],address,uint8,bool)":"c06fa4e9","AdminSetCommunityPrice(uint256)":"428d87c5","AdminSetDefaultElectionResultsContract(address)":"2893c86f","CreateCommunity((string,string,string[],bool),(uint8,(string,address)[]),uint256[],address,uint8)":"cd22ba84","GetCommunity(uint256)":"781bc053","GetCreateCommunityPrice()":"407d699f","GetDefaultElectionResultsContract()":"72082194","GetNextCommunityId()":"708270b8","RemoveGuardian(uint256,uint256)":"264c408e","SetCensus(uint256,(uint8,(string,address)[]))":"cb5eefd8","SetCreateElectionPermission(uint256,uint8)":"67272a52","SetElectionResultsContract(uint256,address)":"d66917d9","SetMetadata(uint256,(string,string,string[],bool))":"2ebf88f8","SetNotifiableElections(uint256,bool)":"6ebf3c4c","getResult(uint256,bytes32)":"13e86265","owner()":"8da5cb5b","renounceOwnership()":"715018a6","setResult(uint256,bytes32,(string,string[],string,uint256[][],uint256,uint256,uint256[],bytes32,string))":"3c973f75","transferOwnership(address)":"f2fde38b"}}}}}