{"src/CommunityHub.sol":{"CommunityHub":{"abi":[{"inputs":[],"stateMutability":"nonpayable","type":"constructor"},{"inputs":[{"internalType":"uint256","name":"expected","type":"uint256"},{"internalType":"uint256","name":"actual","type":"uint256"}],"name":"AmountMismatch","type":"error"},{"inputs":[{"internalType":"uint256","name":"guardian","type":"uint256"}],"name":"GuardianNotFound","type":"error"},{"inputs":[],"name":"InvalidCreateElectionPermission","type":"error"},{"inputs":[{"internalType":"address","name":"owner","type":"address"}],"name":"OwnableInvalidOwner","type":"error"},{"inputs":[{"internalType":"address","name":"account","type":"address"}],"name":"OwnableUnauthorizedAccount","type":"error"},{"inputs":[],"name":"ZeroAmount","type":"error"},{"anonymous":false,"inputs":[{"indexed":false,"internalType":"uint256","name":"communityId","type":"uint256"}],"name":"AdminCommunityManaged","type":"event"},{"anonymous":false,"inputs":[{"indexed":false,"internalType":"uint256","name":"communityId","type":"uint256"},{"components":[{"internalType":"enum ICommunityHub.CensusType","name":"censusType","type":"uint8"},{"components":[{"internalType":"string","name":"blockchain","type":"string"},{"internalType":"address","name":"contractAddress","type":"address"}],"internalType":"struct ICommunityHub.Token[]","name":"tokens","type":"tuple[]"},{"internalType":"string","name":"channel","type":"string"}],"indexed":false,"internalType":"struct ICommunityHub.Census","name":"census","type":"tuple"}],"name":"CensusSet","type":"event"},{"anonymous":false,"inputs":[{"indexed":false,"internalType":"uint256","name":"communityId","type":"uint256"},{"indexed":false,"internalType":"address","name":"creator","type":"address"}],"name":"CommunityCreated","type":"event"},{"anonymous":false,"inputs":[{"indexed":false,"internalType":"address","name":"sender","type":"address"},{"indexed":false,"internalType":"uint256","name":"amount","type":"uint256"},{"indexed":false,"internalType":"uint256","name":"communityId","type":"uint256"}],"name":"CommunityDeposit","type":"event"},{"anonymous":false,"inputs":[{"indexed":false,"internalType":"uint256","name":"price","type":"uint256"}],"name":"CreateCommunityPriceSet","type":"event"},{"anonymous":false,"inputs":[{"indexed":false,"internalType":"uint256","name":"communityId","type":"uint256"},{"indexed":false,"internalType":"enum ICommunityHub.CreateElectionPermission","name":"createElectionPermission","type":"uint8"}],"name":"CreateElectionPermissionSet","type":"event"},{"anonymous":false,"inputs":[{"indexed":false,"internalType":"address","name":"electionResultsContract","type":"address"}],"name":"DefaultElectionResultsContractSet","type":"event"},{"anonymous":false,"inputs":[{"indexed":false,"internalType":"address","name":"sender","type":"address"},{"indexed":false,"internalType":"uint256","name":"amount","type":"uint256"}],"name":"Deposit","type":"event"},{"anonymous":false,"inputs":[{"indexed":false,"internalType":"uint256","name":"communityId","type":"uint256"},{"indexed":false,"internalType":"address","name":"electionResultsContract","type":"address"}],"name":"ElectionResultsContractSet","type":"event"},{"anonymous":false,"inputs":[{"indexed":false,"internalType":"uint256","name":"communityId","type":"uint256"},{"indexed":false,"internalType":"uint256","name":"guardian","type":"uint256"}],"name":"GuardianAdded","type":"event"},{"anonymous":false,"inputs":[{"indexed":false,"internalType":"uint256","name":"communityId","type":"uint256"},{"indexed":false,"internalType":"uint256","name":"guardian","type":"uint256"}],"name":"GuardianRemoved","type":"event"},{"anonymous":false,"inputs":[{"indexed":false,"internalType":"uint256","name":"communityId","type":"uint256"},{"components":[{"internalType":"string","name":"name","type":"string"},{"internalType":"string","name":"imageURI","type":"string"},{"internalType":"string","name":"groupChatURL","type":"string"},{"internalType":"string[]","name":"channels","type":"string[]"},{"internalType":"bool","name":"notifications","type":"bool"}],"indexed":false,"internalType":"struct ICommunityHub.CommunityMetadata","name":"metadata","type":"tuple"}],"name":"MetadataSet","type":"event"},{"anonymous":false,"inputs":[{"indexed":false,"internalType":"uint256","name":"communityId","type":"uint256"},{"indexed":false,"internalType":"bool","name":"notifiableElections","type":"bool"}],"name":"NotifiableElectionsSet","type":"event"},{"anonymous":false,"inputs":[{"indexed":true,"internalType":"address","name":"previousOwner","type":"address"},{"indexed":true,"internalType":"address","name":"newOwner","type":"address"}],"name":"OwnershipTransferred","type":"event"},{"anonymous":false,"inputs":[{"indexed":false,"internalType":"uint256","name":"price","type":"uint256"}],"name":"PricePerElectionSet","type":"event"},{"anonymous":false,"inputs":[{"indexed":false,"internalType":"uint256","name":"communityId","type":"uint256"},{"indexed":false,"internalType":"bytes32","name":"electionId","type":"bytes32"}],"name":"ResultsSet","type":"event"},{"anonymous":false,"inputs":[{"indexed":false,"internalType":"uint256","name":"amount","type":"uint256"},{"indexed":false,"internalType":"address","name":"to","type":"address"}],"name":"Withdrawal","type":"event"},{"inputs":[{"internalType":"uint256","name":"_communityId","type":"uint256"},{"internalType":"uint256","name":"_guardian","type":"uint256"}],"name":"addGuardian","outputs":[],"stateMutability":"nonpayable","type":"function"},{"inputs":[{"internalType":"uint256","name":"_communityId","type":"uint256"},{"components":[{"internalType":"string","name":"name","type":"string"},{"internalType":"string","name":"imageURI","type":"string"},{"internalType":"string","name":"groupChatURL","type":"string"},{"internalType":"string[]","name":"channels","type":"string[]"},{"internalType":"bool","name":"notifications","type":"bool"}],"internalType":"struct ICommunityHub.CommunityMetadata","name":"_metadata","type":"tuple"},{"components":[{"internalType":"enum ICommunityHub.CensusType","name":"censusType","type":"uint8"},{"components":[{"internalType":"string","name":"blockchain","type":"string"},{"internalType":"address","name":"contractAddress","type":"address"}],"internalType":"struct ICommunityHub.Token[]","name":"tokens","type":"tuple[]"},{"internalType":"string","name":"channel","type":"string"}],"internalType":"struct ICommunityHub.Census","name":"_census","type":"tuple"},{"internalType":"uint256[]","name":"_guardians","type":"uint256[]"},{"internalType":"address","name":"_electionResultsContract","type":"address"},{"internalType":"enum ICommunityHub.CreateElectionPermission","name":"_createElectionPermission","type":"uint8"},{"internalType":"bool","name":"_disabled","type":"bool"}],"name":"adminManageCommunity","outputs":[],"stateMutability":"nonpayable","type":"function"},{"inputs":[{"internalType":"uint256","name":"_price","type":"uint256"}],"name":"adminSetCommunityPrice","outputs":[],"stateMutability":"nonpayable","type":"function"},{"inputs":[{"internalType":"address","name":"_electionResultsContract","type":"address"}],"name":"adminSetDefaultElectionResultsContract","outputs":[],"stateMutability":"nonpayable","type":"function"},{"inputs":[{"internalType":"uint256","name":"_price","type":"uint256"}],"name":"adminSetPricePerElection","outputs":[],"stateMutability":"nonpayable","type":"function"},{"inputs":[{"components":[{"internalType":"string","name":"name","type":"string"},{"internalType":"string","name":"imageURI","type":"string"},{"internalType":"string","name":"groupChatURL","type":"string"},{"internalType":"string[]","name":"channels","type":"string[]"},{"internalType":"bool","name":"notifications","type":"bool"}],"internalType":"struct ICommunityHub.CommunityMetadata","name":"_metadata","type":"tuple"},{"components":[{"internalType":"enum ICommunityHub.CensusType","name":"censusType","type":"uint8"},{"components":[{"internalType":"string","name":"blockchain","type":"string"},{"internalType":"address","name":"contractAddress","type":"address"}],"internalType":"struct ICommunityHub.Token[]","name":"tokens","type":"tuple[]"},{"internalType":"string","name":"channel","type":"string"}],"internalType":"struct ICommunityHub.Census","name":"_census","type":"tuple"},{"internalType":"uint256[]","name":"_guardians","type":"uint256[]"},{"internalType":"address","name":"_electionResultsContract","type":"address"},{"internalType":"enum ICommunityHub.CreateElectionPermission","name":"_createElectionPermission","type":"uint8"}],"name":"createCommunity","outputs":[{"internalType":"uint256","name":"","type":"uint256"}],"stateMutability":"payable","type":"function"},{"inputs":[{"internalType":"uint256","name":"_communityId","type":"uint256"}],"name":"deposit","outputs":[],"stateMutability":"payable","type":"function"},{"inputs":[{"internalType":"uint256","name":"_communityId","type":"uint256"}],"name":"getCommunity","outputs":[{"components":[{"components":[{"internalType":"string","name":"name","type":"string"},{"internalType":"string","name":"imageURI","type":"string"},{"internalType":"string","name":"groupChatURL","type":"string"},{"internalType":"string[]","name":"channels","type":"string[]"},{"internalType":"bool","name":"notifications","type":"bool"}],"internalType":"struct ICommunityHub.CommunityMetadata","name":"metadata","type":"tuple"},{"components":[{"internalType":"enum ICommunityHub.CensusType","name":"censusType","type":"uint8"},{"components":[{"internalType":"string","name":"blockchain","type":"string"},{"internalType":"address","name":"contractAddress","type":"address"}],"internalType":"struct ICommunityHub.Token[]","name":"tokens","type":"tuple[]"},{"internalType":"string","name":"channel","type":"string"}],"internalType":"struct ICommunityHub.Census","name":"census","type":"tuple"},{"internalType":"uint256[]","name":"guardians","type":"uint256[]"},{"internalType":"address","name":"electionResultsContract","type":"address"},{"internalType":"enum ICommunityHub.CreateElectionPermission","name":"createElectionPermission","type":"uint8"},{"internalType":"bool","name":"disabled","type":"bool"},{"internalType":"uint256","name":"funds","type":"uint256"}],"internalType":"struct ICommunityHub.Community","name":"","type":"tuple"}],"stateMutability":"view","type":"function"},{"inputs":[],"name":"getCreateCommunityPrice","outputs":[{"internalType":"uint256","name":"","type":"uint256"}],"stateMutability":"view","type":"function"},{"inputs":[],"name":"getDefaultElectionResultsContract","outputs":[{"internalType":"address","name":"","type":"address"}],"stateMutability":"view","type":"function"},{"inputs":[],"name":"getNextCommunityId","outputs":[{"internalType":"uint256","name":"","type":"uint256"}],"stateMutability":"view","type":"function"},{"inputs":[],"name":"getPricePerElection","outputs":[{"internalType":"uint256","name":"","type":"uint256"}],"stateMutability":"view","type":"function"},{"inputs":[{"internalType":"uint256","name":"_communityId","type":"uint256"},{"internalType":"bytes32","name":"_electionId","type":"bytes32"}],"name":"getResult","outputs":[{"components":[{"internalType":"string","name":"question","type":"string"},{"internalType":"string[]","name":"options","type":"string[]"},{"internalType":"string","name":"date","type":"string"},{"internalType":"uint256[][]","name":"tally","type":"uint256[][]"},{"internalType":"uint256","name":"turnout","type":"uint256"},{"internalType":"uint256","name":"totalVotingPower","type":"uint256"},{"internalType":"uint256[]","name":"participants","type":"uint256[]"},{"internalType":"bytes32","name":"censusRoot","type":"bytes32"},{"internalType":"string","name":"censusURI","type":"string"}],"internalType":"struct IElectionResults.Result","name":"","type":"tuple"}],"stateMutability":"view","type":"function"},{"inputs":[],"name":"owner","outputs":[{"internalType":"address","name":"","type":"address"}],"stateMutability":"view","type":"function"},{"inputs":[{"internalType":"uint256","name":"_communityId","type":"uint256"},{"internalType":"uint256","name":"_guardian","type":"uint256"}],"name":"removeGuardian","outputs":[],"stateMutability":"nonpayable","type":"function"},{"inputs":[],"name":"renounceOwnership","outputs":[],"stateMutability":"nonpayable","type":"function"},{"inputs":[{"internalType":"uint256","name":"_communityId","type":"uint256"},{"components":[{"internalType":"enum ICommunityHub.CensusType","name":"censusType","type":"uint8"},{"components":[{"internalType":"string","name":"blockchain","type":"string"},{"internalType":"address","name":"contractAddress","type":"address"}],"internalType":"struct ICommunityHub.Token[]","name":"tokens","type":"tuple[]"},{"internalType":"string","name":"channel","type":"string"}],"internalType":"struct ICommunityHub.Census","name":"_census","type":"tuple"}],"name":"setCensus","outputs":[],"stateMutability":"nonpayable","type":"function"},{"inputs":[{"internalType":"uint256","name":"_communityId","type":"uint256"},{"internalType":"enum ICommunityHub.CreateElectionPermission","name":"_createElectionPermission","type":"uint8"}],"name":"setCreateElectionPermission","outputs":[],"stateMutability":"nonpayable","type":"function"},{"inputs":[{"internalType":"uint256","name":"_communityId","type":"uint256"},{"internalType":"address","name":"_electionResultsContract","type":"address"}],"name":"setElectionResultsContract","outputs":[],"stateMutability":"nonpayable","type":"function"},{"inputs":[{"internalType":"uint256","name":"_communityId","type":"uint256"},{"components":[{"internalType":"string","name":"name","type":"string"},{"internalType":"string","name":"imageURI","type":"string"},{"internalType":"string","name":"groupChatURL","type":"string"},{"internalType":"string[]","name":"channels","type":"string[]"},{"internalType":"bool","name":"notifications","type":"bool"}],"internalType":"struct ICommunityHub.CommunityMetadata","name":"_metadata","type":"tuple"}],"name":"setMetadata","outputs":[],"stateMutability":"nonpayable","type":"function"},{"inputs":[{"internalType":"uint256","name":"_communityId","type":"uint256"},{"internalType":"bool","name":"_notifiableElections","type":"bool"}],"name":"setNotifiableElections","outputs":[],"stateMutability":"nonpayable","type":"function"},{"inputs":[{"internalType":"uint256","name":"_communityId","type":"uint256"},{"internalType":"bytes32","name":"_electionId","type":"bytes32"},{"components":[{"internalType":"string","name":"question","type":"string"},{"internalType":"string[]","name":"options","type":"string[]"},{"internalType":"string","name":"date","type":"string"},{"internalType":"uint256[][]","name":"tally","type":"uint256[][]"},{"internalType":"uint256","name":"turnout","type":"uint256"},{"internalType":"uint256","name":"totalVotingPower","type":"uint256"},{"internalType":"uint256[]","name":"participants","type":"uint256[]"},{"internalType":"bytes32","name":"censusRoot","type":"bytes32"},{"internalType":"string","name":"censusURI","type":"string"}],"internalType":"struct IElectionResults.Result","name":"_result","type":"tuple"}],"name":"setResult","outputs":[],"stateMutability":"nonpayable","type":"function"},{"inputs":[{"internalType":"address","name":"newOwner","type":"address"}],"name":"transferOwnership","outputs":[],"stateMutability":"nonpayable","type":"function"},{"inputs":[],"name":"withdraw","outputs":[],"stateMutability":"nonpayable","type":"function"},{"stateMutability":"payable","type":"receive"}],"evm":{"bytecode":{"linkReferences":{},"object":"60806040523480156200001157600080fd5b5033600073ffffffffffffffffffffffffffffffffffffffff168173ffffffffffffffffffffffffffffffffffffffff1603620000885760006040517f1e4fbdf70000000000000000000000000000000000000000000000000000000081526004016200007f9190620001a9565b60405180910390fd5b6200009981620000a060201b60201c565b50620001c6565b60008060009054906101000a900473ffffffffffffffffffffffffffffffffffffffff169050816000806101000a81548173ffffffffffffffffffffffffffffffffffffffff021916908373ffffffffffffffffffffffffffffffffffffffff1602179055508173ffffffffffffffffffffffffffffffffffffffff168173ffffffffffffffffffffffffffffffffffffffff167f8be0079c531659141344cd1fd0a4f28419497f9722a3daafe3b4186f6b6457e060405160405180910390a35050565b600073ffffffffffffffffffffffffffffffffffffffff82169050919050565b6000620001918262000164565b9050919050565b620001a38162000184565b82525050565b6000602082019050620001c0600083018462000198565b92915050565b614da480620001d66000396000f3fe60806040526004361061014f5760003560e01c8063873ceb2e116100b6578063c5bf44ab1161006f578063c5bf44ab14610473578063c8b785f31461049e578063d62b5c59146104c7578063e6160fa3146104f2578063f2fde38b1461051b578063f8867041146105445761018f565b8063873ceb2e146103845780638da5cb5b146103ad5780639532c8c3146103d8578063988a314c14610403578063aba675b01461042e578063b6b55f25146104575761018f565b806356c4e4ba1161010857806356c4e4ba146102a05780635a6cad96146102c9578063654f6a75146102f2578063715018a61461031b5780637824c05c1461033257806382e6d6381461035b5761018f565b806313e862651461019457806325fe08c9146101d1578063370603f8146101fa5780633c973f75146102375780633ccfd60b146102605780633e512ebc146102775761018f565b3661018f577fe1fffcc4923d04b559f4d29a8bfc6cda04eb5b0d3c460751c2402c5c5cc9109c3334604051610185929190611ebc565b60405180910390a1005b600080fd5b3480156101a057600080fd5b506101bb60048036038101906101b69190611f5b565b610574565b6040516101c89190612364565b60405180910390f35b3480156101dd57600080fd5b506101f860048036038101906101f391906123b2565b610641565b005b34801561020657600080fd5b50610221600480360381019061021c91906123df565b6106c4565b60405161022e9190612780565b60405180910390f35b34801561024357600080fd5b5061025e60048036038101906102599190612cf3565b610ce5565b005b34801561026c57600080fd5b50610275610eda565b005b34801561028357600080fd5b5061029e600480360381019061029991906123df565b611020565b005b3480156102ac57600080fd5b506102c760048036038101906102c29190612d86565b611069565b005b3480156102d557600080fd5b506102f060048036038101906102eb9190612de2565b6110d4565b005b3480156102fe57600080fd5b5061031960048036038101906103149190612eed565b61116e565b005b34801561032757600080fd5b506103306112f0565b005b34801561033e57600080fd5b5061035960048036038101906103549190612fe7565b611304565b005b34801561036757600080fd5b50610382600480360381019061037d9190613027565b611387565b005b34801561039057600080fd5b506103ab60048036038101906103a691906123df565b6113f2565b005b3480156103b957600080fd5b506103c261143b565b6040516103cf9190613083565b60405180910390f35b3480156103e457600080fd5b506103ed611464565b6040516103fa919061309e565b60405180910390f35b34801561040f57600080fd5b5061041861146e565b6040516104259190613083565b60405180910390f35b34801561043a57600080fd5b50610455600480360381019061045091906130b9565b611498565b005b610471600480360381019061046c91906123df565b6115f2565b005b34801561047f57600080fd5b50610488611710565b604051610495919061309e565b60405180910390f35b3480156104aa57600080fd5b506104c560048036038101906104c091906130b9565b61171a565b005b3480156104d357600080fd5b506104dc61179c565b6040516104e9919061309e565b60405180910390f35b3480156104fe57600080fd5b50610519600480360381019061051491906130f9565b6117a6565b005b34801561052757600080fd5b50610542600480360381019061053d91906123b2565b61181c565b005b61055e60048036038101906105599190613139565b6118a2565b60405161056b919061309e565b60405180910390f35b61057c611cfe565b60006001600085815260200190815260200160002060090160009054906101000a900473ffffffffffffffffffffffffffffffffffffffff1690508073ffffffffffffffffffffffffffffffffffffffff166313e8626585856040518363ffffffff1660e01b81526004016105f292919061321a565b600060405180830381865afa15801561060f573d6000803e3d6000fd5b505050506040513d6000823e3d601f19601f820116820180604052508101906106389190613666565b91505092915050565b610649611bab565b80600560006101000a81548173ffffffffffffffffffffffffffffffffffffffff021916908373ffffffffffffffffffffffffffffffffffffffff1602179055507f2f165c01002d221752e275a87b6ed91df7c1b198b0bbe0e93dd28c7c834a08cc816040516106b99190613083565b60405180910390a150565b6106cc611d4d565b600160008381526020019081526020016000206040518060e0016040529081600082016040518060a001604052908160008201805461070a906136de565b80601f0160208091040260200160405190810160405280929190818152602001828054610736906136de565b80156107835780601f1061075857610100808354040283529160200191610783565b820191906000526020600020905b81548152906001019060200180831161076657829003601f168201915b5050505050815260200160018201805461079c906136de565b80601f01602080910402602001604051908101604052809291908181526020018280546107c8906136de565b80156108155780601f106107ea57610100808354040283529160200191610815565b820191906000526020600020905b8154815290600101906020018083116107f857829003601f168201915b5050505050815260200160028201805461082e906136de565b80601f016020809104026020016040519081016040528092919081815260200182805461085a906136de565b80156108a75780601f1061087c576101008083540402835291602001916108a7565b820191906000526020600020905b81548152906001019060200180831161088a57829003601f168201915b5050505050815260200160038201805480602002602001604051908101604052809291908181526020016000905b828210156109815783829060005260206000200180546108f4906136de565b80601f0160208091040260200160405190810160405280929190818152602001828054610920906136de565b801561096d5780601f106109425761010080835404028352916020019161096d565b820191906000526020600020905b81548152906001019060200180831161095057829003601f168201915b5050505050815260200190600101906108d5565b5050505081526020016004820160009054906101000a900460ff1615151515815250508152602001600582016040518060600160405290816000820160009054906101000a900460ff1660058111156109dd576109dc6124b2565b5b60058111156109ef576109ee6124b2565b5b815260200160018201805480602002602001604051908101604052809291908181526020016000905b82821015610b325783829060005260206000209060020201604051806040016040529081600082018054610a4b906136de565b80601f0160208091040260200160405190810160405280929190818152602001828054610a77906136de565b8015610ac45780601f10610a9957610100808354040283529160200191610ac4565b820191906000526020600020905b815481529060010190602001808311610aa757829003601f168201915b505050505081526020016001820160009054906101000a900473ffffffffffffffffffffffffffffffffffffffff1673ffffffffffffffffffffffffffffffffffffffff1673ffffffffffffffffffffffffffffffffffffffff168152505081526020019060010190610a18565b505050508152602001600282018054610b4a906136de565b80601f0160208091040260200160405190810160405280929190818152602001828054610b76906136de565b8015610bc35780601f10610b9857610100808354040283529160200191610bc3565b820191906000526020600020905b815481529060010190602001808311610ba657829003601f168201915b505050505081525050815260200160088201805480602002602001604051908101604052809291908181526020018280548015610c1f57602002820191906000526020600020905b815481526020019060010190808311610c0b575b505050505081526020016009820160009054906101000a900473ffffffffffffffffffffffffffffffffffffffff1673ffffffffffffffffffffffffffffffffffffffff1673ffffffffffffffffffffffffffffffffffffffff1681526020016009820160149054906101000a900460ff166001811115610ca357610ca26124b2565b5b6001811115610cb557610cb46124b2565b5b81526020016009820160159054906101000a900460ff16151515158152602001600a820154815250509050919050565b610ced611bab565b6001600084815260200190815260200160002060090160159054906101000a900460ff1615610d51576040517f08c379a0000000000000000000000000000000000000000000000000000000008152600401610d489061376c565b60405180910390fd5b60035460016000858152602001908152602001600020600a01541015610dac576040517f08c379a0000000000000000000000000000000000000000000000000000000008152600401610da3906137fe565b60405180910390fd5b60035460016000858152602001908152602001600020600a016000828254610dd4919061384d565b9250508190555060035460016000858152602001908152602001600020600a01541015610e2a57600180600085815260200190815260200160002060090160156101000a81548160ff0219169083151502179055505b60006001600085815260200190815260200160002060090160009054906101000a900473ffffffffffffffffffffffffffffffffffffffff1690508073ffffffffffffffffffffffffffffffffffffffff16633c973f758585856040518463ffffffff1660e01b8152600401610ea293929190613881565b600060405180830381600087803b158015610ebc57600080fd5b505af1158015610ed0573d6000803e3d6000fd5b5050505050505050565b610ee2611bab565b600047905060008111610f2a576040517f08c379a0000000000000000000000000000000000000000000000000000000008152600401610f219061390b565b60405180910390fd5b6000610f3461143b565b905060008173ffffffffffffffffffffffffffffffffffffffff1683604051610f5c9061395c565b60006040518083038185875af1925050503d8060008114610f99576040519150601f19603f3d011682016040523d82523d6000602084013e610f9e565b606091505b5050905080610fe2576040517f08c379a0000000000000000000000000000000000000000000000000000000008152600401610fd9906139bd565b60405180910390fd5b7fd964a27d45f595739c13d8b1160b57491050cacf3a2e5602207277d6228f64ee8383604051611013929190613a3c565b60405180910390a1505050565b611028611bab565b806003819055507f0840c2296c4c97ecdc9b8dc544cd67f45a8d629b9d6109410530bb58b7f17b928160405161105e919061309e565b60405180910390a150565b611071611bab565b8060016000848152602001908152602001600020600501818161109491906143d3565b9050507ff768bb0dd5bd987cdbc2706c837263b29e7326b0651e4fe20c16372d24cc02ac82826040516110c89291906146a5565b60405180910390a15050565b6110dc611bab565b806001600084815260200190815260200160002060090160006101000a81548173ffffffffffffffffffffffffffffffffffffffff021916908373ffffffffffffffffffffffffffffffffffffffff1602179055507facd3bfb47d15f9f1d5db04bf52aece3b8c4fd63e70c97b91293415d2f2341f3882826040516111629291906146d5565b60405180910390a15050565b611176611bab565b6000600160008a815260200190815260200160002090508781600001818161119e91906149b8565b905050868160050181816111b291906143d3565b905050838160090160006101000a81548173ffffffffffffffffffffffffffffffffffffffff021916908373ffffffffffffffffffffffffffffffffffffffff160217905550828160090160146101000a81548160ff0219169083600181111561121f5761121e6124b2565b5b0217905550818160090160156101000a81548160ff0219169083151502179055508060080160006112509190611dc0565b60005b868690508110156112ad5781600801878783818110611275576112746149c6565b5b905060200201359080600181540180825580915050600190039060005260206000200160009091909190915055806001019050611253565b507f887cc86755221db77fb9a404d4834a6ca76a28df7c71c7650318819ad0f46a3c896040516112dd919061309e565b60405180910390a1505050505050505050565b6112f8611bab565b6113026000611c32565b565b61130c611bab565b806001600084815260200190815260200160002060090160146101000a81548160ff02191690836001811115611345576113446124b2565b5b02179055507feaeee81ca4b132c1f2699cf2e7f71c26adb6ffe780097ac7d6e9ddf978398b62828260405161137b929190614a04565b60405180910390a15050565b61138f611bab565b806001600084815260200190815260200160002060000181816113b291906149b8565b9050507f440c55e385a61cd472c0cd76ee015cab9bd0760aef9634633e6597fdea583fd582826040516113e6929190614bfb565b60405180910390a15050565b6113fa611bab565b806002819055507fac9c054628ba106d4664c2c08386354e161eab546a0a47faf040bfc1062845e781604051611430919061309e565b60405180910390a150565b60008060009054906101000a900473ffffffffffffffffffffffffffffffffffffffff16905090565b6000600454905090565b6000600560009054906101000a900473ffffffffffffffffffffffffffffffffffffffff16905090565b6114a0611bab565b600060016000848152602001908152602001600020600801905060005b81805490508110156115b057828282815481106114dd576114dc6149c6565b5b9060005260206000200154036115a35781600183805490506114ff919061384d565b815481106115105761150f6149c6565b5b906000526020600020015482828154811061152e5761152d6149c6565b5b90600052602060002001819055508180548061154d5761154c614c2b565b5b600190038181906000526020600020016000905590557f2264fa092e5819982f4edca5b7e9c6318a16dc3e03673510429c078656dea45c8484604051611594929190614c5a565b60405180910390a150506115ee565b80806001019150506114bd565b50816040517f84ce930a0000000000000000000000000000000000000000000000000000000081526004016115e5919061309e565b60405180910390fd5b5050565b6000340361162c576040517f1f2a200500000000000000000000000000000000000000000000000000000000815260040160405180910390fd5b3460016000838152602001908152602001600020600a0160008282546116529190614c83565b925050819055506001600082815260200190815260200160002060090160159054906101000a900460ff16156116d25760035460016000838152602001908152602001600020600a0154106116d15760006001600083815260200190815260200160002060090160156101000a81548160ff0219169083151502179055505b5b7fd6e9bd49f32ce5202a849c6ab581631b3e952257363b06975f32872e9e1656c933348360405161170593929190614cb7565b60405180910390a150565b6000600254905090565b611722611bab565b600160008381526020019081526020016000206008018190806001815401808255809150506001900390600052602060002001600090919091909150557ffcdfd5aeb97f499ca134ed43f010f2a4f5b0ab73d317ac27246a066a050a73af8282604051611790929190614c5a565b60405180910390a15050565b6000600354905090565b6117ae611bab565b806001600084815260200190815260200160002060000160040160006101000a81548160ff0219169083151502179055507fed2f2c7a2316ddc2f46a4581250611f807810052bb38bef2fbd1a81d087e064b8282604051611810929190614cfd565b60405180910390a15050565b611824611bab565b600073ffffffffffffffffffffffffffffffffffffffff168173ffffffffffffffffffffffffffffffffffffffff16036118965760006040517f1e4fbdf700000000000000000000000000000000000000000000000000000000815260040161188d9190613083565b60405180910390fd5b61189f81611c32565b50565b60008073ffffffffffffffffffffffffffffffffffffffff168373ffffffffffffffffffffffffffffffffffffffff16036118fd57600560009054906101000a900473ffffffffffffffffffffffffffffffffffffffff1692505b6001808111156119105761190f6124b2565b5b826001811115611923576119226124b2565b5b141580156119565750600060018111156119405761193f6124b2565b5b826001811115611953576119526124b2565b5b14155b1561198d576040517fec4d40f400000000000000000000000000000000000000000000000000000000815260040160405180910390fd5b6000600454905060025434146119de57600254346040517fce6b173b0000000000000000000000000000000000000000000000000000000081526004016119d5929190614c5a565b60405180910390fd5b7fd6e9bd49f32ce5202a849c6ab581631b3e952257363b06975f32872e9e1656c9333483604051611a1193929190614cb7565b60405180910390a1600060016000838152602001908152602001600020905088816000018181611a4191906149b8565b90505087816005018181611a5591906143d3565b905050848160090160006101000a81548173ffffffffffffffffffffffffffffffffffffffff021916908373ffffffffffffffffffffffffffffffffffffffff160217905550838160090160146101000a81548160ff02191690836001811115611ac257611ac16124b2565b5b021790555060008160090160156101000a81548160ff0219169083151502179055503481600a018190555060005b87879050811015611b4a5781600801888883818110611b1257611b116149c6565b5b905060200201359080600181540180825580915050600190039060005260206000200160009091909190915055806001019050611af0565b5060046000815480929190611b5e90614d26565b91905055507f42c24a3323433819443a75d0e2651a9c84f696fba638d730042960045ef272418233604051611b949291906146d5565b60405180910390a181925050509695505050505050565b611bb3611cf6565b73ffffffffffffffffffffffffffffffffffffffff16611bd161143b565b73ffffffffffffffffffffffffffffffffffffffff1614611c3057611bf4611cf6565b6040517f118cdaa7000000000000000000000000000000000000000000000000000000008152600401611c279190613083565b60405180910390fd5b565b60008060009054906101000a900473ffffffffffffffffffffffffffffffffffffffff169050816000806101000a81548173ffffffffffffffffffffffffffffffffffffffff021916908373ffffffffffffffffffffffffffffffffffffffff1602179055508173ffffffffffffffffffffffffffffffffffffffff168173ffffffffffffffffffffffffffffffffffffffff167f8be0079c531659141344cd1fd0a4f28419497f9722a3daafe3b4186f6b6457e060405160405180910390a35050565b600033905090565b6040518061012001604052806060815260200160608152602001606081526020016060815260200160008152602001600081526020016060815260200160008019168152602001606081525090565b6040518060e00160405280611d60611de1565b8152602001611d6d611e12565b815260200160608152602001600073ffffffffffffffffffffffffffffffffffffffff16815260200160006001811115611daa57611da96124b2565b5b8152602001600015158152602001600081525090565b5080546000825590600052602060002090810190611dde9190611e45565b50565b6040518060a00160405280606081526020016060815260200160608152602001606081526020016000151581525090565b604051806060016040528060006005811115611e3157611e306124b2565b5b815260200160608152602001606081525090565b5b80821115611e5e576000816000905550600101611e46565b5090565b600073ffffffffffffffffffffffffffffffffffffffff82169050919050565b6000611e8d82611e62565b9050919050565b611e9d81611e82565b82525050565b6000819050919050565b611eb681611ea3565b82525050565b6000604082019050611ed16000830185611e94565b611ede6020830184611ead565b9392505050565b6000604051905090565b600080fd5b600080fd5b611f0281611ea3565b8114611f0d57600080fd5b50565b600081359050611f1f81611ef9565b92915050565b6000819050919050565b611f3881611f25565b8114611f4357600080fd5b50565b600081359050611f5581611f2f565b92915050565b60008060408385031215611f7257611f71611eef565b5b6000611f8085828601611f10565b9250506020611f9185828601611f46565b9150509250929050565b600081519050919050565b600082825260208201905092915050565b60005b83811015611fd5578082015181840152602081019050611fba565b60008484015250505050565b6000601f19601f8301169050919050565b6000611ffd82611f9b565b6120078185611fa6565b9350612017818560208601611fb7565b61202081611fe1565b840191505092915050565b600081519050919050565b600082825260208201905092915050565b6000819050602082019050919050565b60006120638383611ff2565b905092915050565b6000602082019050919050565b60006120838261202b565b61208d8185612036565b93508360208202850161209f85612047565b8060005b858110156120db57848403895281516120bc8582612057565b94506120c78361206b565b925060208a019950506001810190506120a3565b50829750879550505050505092915050565b600081519050919050565b600082825260208201905092915050565b6000819050602082019050919050565b600081519050919050565b600082825260208201905092915050565b6000819050602082019050919050565b61214e81611ea3565b82525050565b60006121608383612145565b60208301905092915050565b6000602082019050919050565b600061218482612119565b61218e8185612124565b935061219983612135565b8060005b838110156121ca5781516121b18882612154565b97506121bc8361216c565b92505060018101905061219d565b5085935050505092915050565b60006121e38383612179565b905092915050565b6000602082019050919050565b6000612203826120ed565b61220d81856120f8565b93508360208202850161221f85612109565b8060005b8581101561225b578484038952815161223c85826121d7565b9450612247836121eb565b925060208a01995050600181019050612223565b50829750879550505050505092915050565b61227681611f25565b82525050565b600061012083016000830151848203600086015261229a8282611ff2565b915050602083015184820360208601526122b48282612078565b915050604083015184820360408601526122ce8282611ff2565b915050606083015184820360608601526122e882826121f8565b91505060808301516122fd6080860182612145565b5060a083015161231060a0860182612145565b5060c083015184820360c08601526123288282612179565b91505060e083015161233d60e086018261226d565b506101008301518482036101008601526123578282611ff2565b9150508091505092915050565b6000602082019050818103600083015261237e818461227c565b905092915050565b61238f81611e82565b811461239a57600080fd5b50565b6000813590506123ac81612386565b92915050565b6000602082840312156123c8576123c7611eef565b5b60006123d68482850161239d565b91505092915050565b6000602082840312156123f5576123f4611eef565b5b600061240384828501611f10565b91505092915050565b60008115159050919050565b6124218161240c565b82525050565b600060a08301600083015184820360008601526124448282611ff2565b9150506020830151848203602086015261245e8282611ff2565b915050604083015184820360408601526124788282611ff2565b915050606083015184820360608601526124928282612078565b91505060808301516124a76080860182612418565b508091505092915050565b7f4e487b7100000000000000000000000000000000000000000000000000000000600052602160045260246000fd5b600681106124f2576124f16124b2565b5b50565b6000819050612503826124e1565b919050565b6000612513826124f5565b9050919050565b61252381612508565b82525050565b600081519050919050565b600082825260208201905092915050565b6000819050602082019050919050565b61255e81611e82565b82525050565b600060408301600083015184820360008601526125818282611ff2565b91505060208301516125966020860182612555565b508091505092915050565b60006125ad8383612564565b905092915050565b6000602082019050919050565b60006125cd82612529565b6125d78185612534565b9350836020820285016125e985612545565b8060005b85811015612625578484038952815161260685826125a1565b9450612611836125b5565b925060208a019950506001810190506125ed565b50829750879550505050505092915050565b600060608301600083015161264f600086018261251a565b506020830151848203602086015261266782826125c2565b915050604083015184820360408601526126818282611ff2565b9150508091505092915050565b6002811061269f5761269e6124b2565b5b50565b60008190506126b08261268e565b919050565b60006126c0826126a2565b9050919050565b6126d0816126b5565b82525050565b600060e08301600083015184820360008601526126f38282612427565b9150506020830151848203602086015261270d8282612637565b915050604083015184820360408601526127278282612179565b915050606083015161273c6060860182612555565b50608083015161274f60808601826126c7565b5060a083015161276260a0860182612418565b5060c083015161277560c0860182612145565b508091505092915050565b6000602082019050818103600083015261279a81846126d6565b905092915050565b600080fd5b7f4e487b7100000000000000000000000000000000000000000000000000000000600052604160045260246000fd5b6127df82611fe1565b810181811067ffffffffffffffff821117156127fe576127fd6127a7565b5b80604052505050565b6000612811611ee5565b905061281d82826127d6565b919050565b600080fd5b600080fd5b600080fd5b600067ffffffffffffffff82111561284c5761284b6127a7565b5b61285582611fe1565b9050602081019050919050565b82818337600083830152505050565b600061288461287f84612831565b612807565b9050828152602081018484840111156128a05761289f61282c565b5b6128ab848285612862565b509392505050565b600082601f8301126128c8576128c7612827565b5b81356128d8848260208601612871565b91505092915050565b600067ffffffffffffffff8211156128fc576128fb6127a7565b5b602082029050602081019050919050565b600080fd5b6000612925612920846128e1565b612807565b905080838252602082019050602084028301858111156129485761294761290d565b5b835b8181101561298f57803567ffffffffffffffff81111561296d5761296c612827565b5b80860161297a89826128b3565b8552602085019450505060208101905061294a565b5050509392505050565b600082601f8301126129ae576129ad612827565b5b81356129be848260208601612912565b91505092915050565b600067ffffffffffffffff8211156129e2576129e16127a7565b5b602082029050602081019050919050565b600067ffffffffffffffff821115612a0e57612a0d6127a7565b5b602082029050602081019050919050565b6000612a32612a2d846129f3565b612807565b90508083825260208201905060208402830185811115612a5557612a5461290d565b5b835b81811015612a7e5780612a6a8882611f10565b845260208401935050602081019050612a57565b5050509392505050565b600082601f830112612a9d57612a9c612827565b5b8135612aad848260208601612a1f565b91505092915050565b6000612ac9612ac4846129c7565b612807565b90508083825260208201905060208402830185811115612aec57612aeb61290d565b5b835b81811015612b3357803567ffffffffffffffff811115612b1157612b10612827565b5b808601612b1e8982612a88565b85526020850194505050602081019050612aee565b5050509392505050565b600082601f830112612b5257612b51612827565b5b8135612b62848260208601612ab6565b91505092915050565b60006101208284031215612b8257612b816127a2565b5b612b8d610120612807565b9050600082013567ffffffffffffffff811115612bad57612bac612822565b5b612bb9848285016128b3565b600083015250602082013567ffffffffffffffff811115612bdd57612bdc612822565b5b612be984828501612999565b602083015250604082013567ffffffffffffffff811115612c0d57612c0c612822565b5b612c19848285016128b3565b604083015250606082013567ffffffffffffffff811115612c3d57612c3c612822565b5b612c4984828501612b3d565b6060830152506080612c5d84828501611f10565b60808301525060a0612c7184828501611f10565b60a08301525060c082013567ffffffffffffffff811115612c9557612c94612822565b5b612ca184828501612a88565b60c08301525060e0612cb584828501611f46565b60e08301525061010082013567ffffffffffffffff811115612cda57612cd9612822565b5b612ce6848285016128b3565b6101008301525092915050565b600080600060608486031215612d0c57612d0b611eef565b5b6000612d1a86828701611f10565b9350506020612d2b86828701611f46565b925050604084013567ffffffffffffffff811115612d4c57612d4b611ef4565b5b612d5886828701612b6b565b9150509250925092565b600080fd5b600060608284031215612d7d57612d7c612d62565b5b81905092915050565b60008060408385031215612d9d57612d9c611eef565b5b6000612dab85828601611f10565b925050602083013567ffffffffffffffff811115612dcc57612dcb611ef4565b5b612dd885828601612d67565b9150509250929050565b60008060408385031215612df957612df8611eef565b5b6000612e0785828601611f10565b9250506020612e188582860161239d565b9150509250929050565b600060a08284031215612e3857612e37612d62565b5b81905092915050565b600080fd5b60008083601f840112612e5c57612e5b612827565b5b8235905067ffffffffffffffff811115612e7957612e78612e41565b5b602083019150836020820283011115612e9557612e9461290d565b5b9250929050565b60028110612ea957600080fd5b50565b600081359050612ebb81612e9c565b92915050565b612eca8161240c565b8114612ed557600080fd5b50565b600081359050612ee781612ec1565b92915050565b60008060008060008060008060e0898b031215612f0d57612f0c611eef565b5b6000612f1b8b828c01611f10565b985050602089013567ffffffffffffffff811115612f3c57612f3b611ef4565b5b612f488b828c01612e22565b975050604089013567ffffffffffffffff811115612f6957612f68611ef4565b5b612f758b828c01612d67565b965050606089013567ffffffffffffffff811115612f9657612f95611ef4565b5b612fa28b828c01612e46565b95509550506080612fb58b828c0161239d565b93505060a0612fc68b828c01612eac565b92505060c0612fd78b828c01612ed8565b9150509295985092959890939650565b60008060408385031215612ffe57612ffd611eef565b5b600061300c85828601611f10565b925050602061301d85828601612eac565b9150509250929050565b6000806040838503121561303e5761303d611eef565b5b600061304c85828601611f10565b925050602083013567ffffffffffffffff81111561306d5761306c611ef4565b5b61307985828601612e22565b9150509250929050565b60006020820190506130986000830184611e94565b92915050565b60006020820190506130b36000830184611ead565b92915050565b600080604083850312156130d0576130cf611eef565b5b60006130de85828601611f10565b92505060206130ef85828601611f10565b9150509250929050565b600080604083850312156131105761310f611eef565b5b600061311e85828601611f10565b925050602061312f85828601612ed8565b9150509250929050565b60008060008060008060a0878903121561315657613155611eef565b5b600087013567ffffffffffffffff81111561317457613173611ef4565b5b61318089828a01612e22565b965050602087013567ffffffffffffffff8111156131a1576131a0611ef4565b5b6131ad89828a01612d67565b955050604087013567ffffffffffffffff8111156131ce576131cd611ef4565b5b6131da89828a01612e46565b945094505060606131ed89828a0161239d565b92505060806131fe89828a01612eac565b9150509295509295509295565b61321481611f25565b82525050565b600060408201905061322f6000830185611ead565b61323c602083018461320b565b9392505050565b600061325661325184612831565b612807565b9050828152602081018484840111156132725761327161282c565b5b61327d848285611fb7565b509392505050565b600082601f83011261329a57613299612827565b5b81516132aa848260208601613243565b91505092915050565b60006132c66132c1846128e1565b612807565b905080838252602082019050602084028301858111156132e9576132e861290d565b5b835b8181101561333057805167ffffffffffffffff81111561330e5761330d612827565b5b80860161331b8982613285565b855260208501945050506020810190506132eb565b5050509392505050565b600082601f83011261334f5761334e612827565b5b815161335f8482602086016132b3565b91505092915050565b60008151905061337781611ef9565b92915050565b600061339061338b846129f3565b612807565b905080838252602082019050602084028301858111156133b3576133b261290d565b5b835b818110156133dc57806133c88882613368565b8452602084019350506020810190506133b5565b5050509392505050565b600082601f8301126133fb576133fa612827565b5b815161340b84826020860161337d565b91505092915050565b6000613427613422846129c7565b612807565b9050808382526020820190506020840283018581111561344a5761344961290d565b5b835b8181101561349157805167ffffffffffffffff81111561346f5761346e612827565b5b80860161347c89826133e6565b8552602085019450505060208101905061344c565b5050509392505050565b600082601f8301126134b0576134af612827565b5b81516134c0848260208601613414565b91505092915050565b6000815190506134d881611f2f565b92915050565b600061012082840312156134f5576134f46127a2565b5b613500610120612807565b9050600082015167ffffffffffffffff8111156135205761351f612822565b5b61352c84828501613285565b600083015250602082015167ffffffffffffffff8111156135505761354f612822565b5b61355c8482850161333a565b602083015250604082015167ffffffffffffffff8111156135805761357f612822565b5b61358c84828501613285565b604083015250606082015167ffffffffffffffff8111156135b0576135af612822565b5b6135bc8482850161349b565b60608301525060806135d084828501613368565b60808301525060a06135e484828501613368565b60a08301525060c082015167ffffffffffffffff81111561360857613607612822565b5b613614848285016133e6565b60c08301525060e0613628848285016134c9565b60e08301525061010082015167ffffffffffffffff81111561364d5761364c612822565b5b61365984828501613285565b6101008301525092915050565b60006020828403121561367c5761367b611eef565b5b600082015167ffffffffffffffff81111561369a57613699611ef4565b5b6136a6848285016134de565b91505092915050565b7f4e487b7100000000000000000000000000000000000000000000000000000000600052602260045260246000fd5b600060028204905060018216806136f657607f821691505b602082108103613709576137086136af565b5b50919050565b600082825260208201905092915050565b7f436f6d6d756e6974792069732064697361626c65640000000000000000000000600082015250565b600061375660158361370f565b915061376182613720565b602082019050919050565b6000602082019050818103600083015261378581613749565b9050919050565b7f496e73756666696369656e742066756e647320666f722074686973206f70657260008201527f6174696f6e000000000000000000000000000000000000000000000000000000602082015250565b60006137e860258361370f565b91506137f38261378c565b604082019050919050565b60006020820190508181036000830152613817816137db565b9050919050565b7f4e487b7100000000000000000000000000000000000000000000000000000000600052601160045260246000fd5b600061385882611ea3565b915061386383611ea3565b925082820390508181111561387b5761387a61381e565b5b92915050565b60006060820190506138966000830186611ead565b6138a3602083018561320b565b81810360408301526138b5818461227c565b9050949350505050565b7f4e6f2066756e647320617661696c61626c650000000000000000000000000000600082015250565b60006138f560128361370f565b9150613900826138bf565b602082019050919050565b60006020820190508181036000830152613924816138e8565b9050919050565b600081905092915050565b50565b600061394660008361392b565b915061395182613936565b600082019050919050565b600061396782613939565b9150819050919050565b7f4661696c656420746f2073656e64204574686572000000000000000000000000600082015250565b60006139a760148361370f565b91506139b282613971565b602082019050919050565b600060208201905081810360008301526139d68161399a565b9050919050565b6000819050919050565b6000613a026139fd6139f884611e62565b6139dd565b611e62565b9050919050565b6000613a14826139e7565b9050919050565b6000613a2682613a09565b9050919050565b613a3681613a1b565b82525050565b6000604082019050613a516000830185611ead565b613a5e6020830184613a2d565b9392505050565b7f4e487b7100000000000000000000000000000000000000000000000000000000600052600060045260246000fd5b60068110613aa157600080fd5b50565b60008135613ab181613a94565b80915050919050565b60008160001b9050919050565b600060ff613ad484613aba565b9350801983169250808416831791505092915050565b6000613af5826124f5565b9050919050565b6000819050919050565b613b0f82613aea565b613b22613b1b82613afc565b8354613ac7565b8255505050565b600080fd5b600080fd5b600080fd5b60008083356001602003843603038112613b5557613b54613b29565b5b80840192508235915067ffffffffffffffff821115613b7757613b76613b2e565b5b602083019250602082023603831315613b9357613b92613b33565b5b509250929050565b6000819050919050565b600082356001604003833603038112613bc157613bc0613b29565b5b80830191505092915050565b600081549050919050565b6000613be382611ea3565b9150613bee83611ea3565b9250828202613bfc81611ea3565b91508282048414831517613c1357613c1261381e565b5b5092915050565b6000819050613c2a826002613bd8565b9050919050565b60008190508160005260206000209050919050565b60008190508160005260206000209050919050565b600082821c905092915050565b613c987fffffffffffffffffffffffffffffffffffffffffffffffffffffffffffffffff83602003600802613c5b565b815481168255505050565b600082821b905092915050565b600060088302613ce07fffffffffffffffffffffffffffffffffffffffffffffffffffffffffffffffff82613ca3565b613cea8683613ca3565b95508019841693508086168417925050509392505050565b6000613d1d613d18613d1384611ea3565b6139dd565b611ea3565b9050919050565b6000819050919050565b613d3783613d02565b613d4b613d4382613d24565b848454613cb0565b825550505050565b600090565b613d60613d53565b613d6b818484613d2e565b505050565b5b81811015613d8f57613d84600082613d58565b600181019050613d71565b5050565b6000613da460001984600802613c5b565b1980831691505092915050565b6000613dbd8383613d93565b9150826002028217905092915050565b613dd681613c46565b613de1838254613db1565b8083556000825550505050565b60006020601f8301049050919050565b6020841060008114613e5957601f841160018114613e2757613e208685613db1565b8355613e53565b613e3083613c46565b613e47613e3c87613dee565b820160018301613d70565b613e518785613dcd565b505b50613ea6565b613e6282613c46565b613e6b86613dee565b8101601f87168015613e8557613e848160018403613c68565b5b613e99613e9188613dee565b840183613d70565b6001886002021785555050505b5050505050565b68010000000000000000841115613ec757613ec66127a7565b5b6020831060008114613f12576020851060008114613ef057613ee98685613db1565b8355613f0c565b8360ff1916935083613f0184613c46565b556001866002020183555b50613f1c565b6001856002020182555b5050505050565b8054613f2e816136de565b80841115613f4357613f4284828486613ead565b5b80841015613f5857613f5784828486613dfe565b5b50505050565b81811015613f7c57613f71600082613d58565b600181019050613f5e565b5050565b613f8b600082613f23565b50565b60008214613f9f57613f9e613a65565b5b613fa881613f80565b5050565b613fb96000808301613f8e565b6000600182015550565b60008214613fd457613fd3613a65565b5b613fdd81613fac565b5050565b5b8181101561400057613ff5600082613fc3565b600281019050613fe2565b5050565b8183101561403d5761401582613c1a565b61401e84613c1a565b61402783613c31565b8181018382016140378183613fe1565b50505050505b505050565b6801000000000000000082111561405c5761405b6127a7565b5b61406581613bcd565b828255614073838284614004565b505050565b600082905092915050565b600080833560016020038436030381126140a05761409f613b29565b5b80840192508235915067ffffffffffffffff8211156140c2576140c1613b2e565b5b6020830192506001820236038313156140de576140dd613b33565b5b509250929050565b600082905092915050565b601f8211156141325761410381613c46565b61410c84613dee565b8101602085101561411b578190505b61412f61412785613dee565b830182613d70565b50505b505050565b61414183836140e6565b67ffffffffffffffff81111561415a576141596127a7565b5b61416482546136de565b61416f8282856140f1565b6000601f83116001811461419e576000841561418c578287013590505b6141968582613db1565b8655506141fe565b601f1984166141ac86613c46565b60005b828110156141d4578489013582556001820191506020850194506020810190506141af565b868310156141f157848901356141ed601f891682613d93565b8355505b6001600288020188555050505b50505050505050565b614212838383614137565b505050565b6000813561422481612386565b80915050919050565b600073ffffffffffffffffffffffffffffffffffffffff61424d84613aba565b9350801983169250808416831791505092915050565b600061426e82613a09565b9050919050565b6000819050919050565b61428882614263565b61429b61429482614275565b835461422d565b8255505050565b60008101600083016142b48185614083565b6142bf818386614207565b505050506001810160208301806142d581614217565b90506142e1818461427f565b5050505050565b6142f282826142a2565b5050565b6143008383614078565b61430a8183614042565b61431383613b9b565b61431c83613c31565b60005b83811015614353576143318387613ba5565b61433b81846142e8565b6020840193506002830192505060018101905061431f565b50505050505050565b6143678383836142f6565b505050565b60008101600083018061437e81613aa4565b905061438a8184613b06565b505050600181016020830161439f8185613b38565b6143aa81838661435c565b5050505060028101604083016143c08185614083565b6143cb818386614207565b505050505050565b6143dd828261436c565b5050565b6000813590506143f081613a94565b92915050565b600061440560208401846143e1565b905092915050565b600080fd5b600080fd5b600080fd5b6000808335600160200384360303811261443957614438614417565b5b83810192508235915060208301925067ffffffffffffffff8211156144615761446061440d565b5b60208202360383131561447757614476614412565b5b509250929050565b6000808335600160200384360303811261449c5761449b614417565b5b83810192508235915060208301925067ffffffffffffffff8211156144c4576144c361440d565b5b6001820236038313156144da576144d9614412565b5b509250929050565b60006144ee8385611fa6565b93506144fb838584612862565b61450483611fe1565b840190509392505050565b600061451e602084018461239d565b905092915050565b600060408301614539600084018461447f565b858303600087015261454c8382846144e2565b9250505061455d602084018461450f565b61456a6020860182612555565b508091505092915050565b60006145818383614526565b905092915050565b6000823560016040038336030381126145a5576145a4614417565b5b82810191505092915050565b6000602082019050919050565b60006145ca8385612534565b9350836020840285016145dc84613b9b565b8060005b878110156146205784840389526145f78284614589565b6146018582614575565b945061460c836145b1565b925060208a019950506001810190506145e0565b50829750879450505050509392505050565b60006060830161464560008401846143f6565b614652600086018261251a565b50614660602084018461441c565b85830360208701526146738382846145be565b92505050614684604084018461447f565b85830360408701526146978382846144e2565b925050508091505092915050565b60006040820190506146ba6000830185611ead565b81810360208301526146cc8184614632565b90509392505050565b60006040820190506146ea6000830185611ead565b6146f76020830184611e94565b9392505050565b6000808335600160200384360303811261471b5761471a613b29565b5b80840192508235915067ffffffffffffffff82111561473d5761473c613b2e565b5b60208301925060208202360383131561475957614758613b33565b5b509250929050565b6000819050919050565b600081549050919050565b60008190506001806001038301049050919050565b60008190508160005260206000209050919050565b5b818110156147bf576147b4600082613f8e565b6001810190506147a1565b5050565b818310156147fc576147d482614776565b6147dd84614776565b6147e68361478b565b8181018382016147f681836147a0565b50505050505b505050565b6801000000000000000082111561481b5761481a6127a7565b5b6148248161476b565b8282556148328382846147c3565b505050565b600082905092915050565b61484c8383614837565b6148568183614801565b61485f83614761565b6148688361478b565b60005b838110156148a15761487d8387614083565b614888818386614207565b602085019450600184019350505060018101905061486b565b50505050505050565b6148b5838383614842565b505050565b600081356148c781612ec1565b80915050919050565b60006148db8261240c565b9050919050565b6000819050919050565b6148f5826148d0565b614908614901826148e2565b8354613ac7565b8255505050565b60008101600083016149218185614083565b61492c818386614207565b5050505060018101602083016149428185614083565b61494d818386614207565b5050505060028101604083016149638185614083565b61496e818386614207565b50505050600381016060830161498481856146fe565b61498f8183866148aa565b505050506004810160808301806149a5816148ba565b90506149b181846148ec565b5050505050565b6149c2828261490f565b5050565b7f4e487b7100000000000000000000000000000000000000000000000000000000600052603260045260246000fd5b6149fe816126b5565b82525050565b6000604082019050614a196000830185611ead565b614a2660208301846149f5565b9392505050565b60008083356001602003843603038112614a4a57614a49614417565b5b83810192508235915060208301925067ffffffffffffffff821115614a7257614a7161440d565b5b602082023603831315614a8857614a87614412565b5b509250929050565b6000614a9d8484846144e2565b90509392505050565b6000602082019050919050565b6000614abf8385612036565b935083602084028501614ad184614761565b8060005b87811015614b17578484038952614aec828461447f565b614af7868284614a90565b9550614b0284614aa6565b935060208b019a505050600181019050614ad5565b50829750879450505050509392505050565b6000614b386020840184612ed8565b905092915050565b600060a08301614b53600084018461447f565b8583036000870152614b668382846144e2565b92505050614b77602084018461447f565b8583036020870152614b8a8382846144e2565b92505050614b9b604084018461447f565b8583036040870152614bae8382846144e2565b92505050614bbf6060840184614a2d565b8583036060870152614bd2838284614ab3565b92505050614be36080840184614b29565b614bf06080860182612418565b508091505092915050565b6000604082019050614c106000830185611ead565b8181036020830152614c228184614b40565b90509392505050565b7f4e487b7100000000000000000000000000000000000000000000000000000000600052603160045260246000fd5b6000604082019050614c6f6000830185611ead565b614c7c6020830184611ead565b9392505050565b6000614c8e82611ea3565b9150614c9983611ea3565b9250828201905080821115614cb157614cb061381e565b5b92915050565b6000606082019050614ccc6000830186611e94565b614cd96020830185611ead565b614ce66040830184611ead565b949350505050565b614cf78161240c565b82525050565b6000604082019050614d126000830185611ead565b614d1f6020830184614cee565b9392505050565b6000614d3182611ea3565b91507fffffffffffffffffffffffffffffffffffffffffffffffffffffffffffffffff8203614d6357614d6261381e565b5b60018201905091905056fea264697066735822122010daedd511b7db7fe53ad4bdd5a49ca60e2d75c83a9ace579a8903be7ebe199264736f6c63430008180033","opcodes":"PUSH1 0x80 PUSH1 0x40 MSTORE CALLVALUE DUP1 ISZERO PUSH3 0x11 JUMPI PUSH1 0x0 DUP1 REVERT JUMPDEST POP CALLER PUSH1 0x0 PUSH20 0xFFFFFFFFFFFFFFFFFFFFFFFFFFFFFFFFFFFFFFFF AND DUP2 PUSH20 0xFFFFFFFFFFFFFFFFFFFFFFFFFFFFFFFFFFFFFFFF AND SUB PUSH3 0x88 JUMPI PUSH1 0x0 PUSH1 0x40 MLOAD PUSH32 0x1E4FBDF700000000000000000000000000000000000000000000000000000000 DUP2 MSTORE PUSH1 0x4 ADD PUSH3 0x7F SWAP2 SWAP1 PUSH3 0x1A9 JUMP JUMPDEST PUSH1 0x40 MLOAD DUP1 SWAP2 SUB SWAP1 REVERT JUMPDEST PUSH3 0x99 DUP2 PUSH3 0xA0 PUSH1 0x20 SHL PUSH1 0x20 SHR JUMP JUMPDEST POP PUSH3 0x1C6 JUMP JUMPDEST PUSH1 0x0 DUP1 PUSH1 0x0 SWAP1 SLOAD SWAP1 PUSH2 0x100 EXP SWAP1 DIV PUSH20 0xFFFFFFFFFFFFFFFFFFFFFFFFFFFFFFFFFFFFFFFF AND SWAP1 POP DUP2 PUSH1 0x0 DUP1 PUSH2 0x100 EXP DUP2 SLOAD DUP2 PUSH20 0xFFFFFFFFFFFFFFFFFFFFFFFFFFFFFFFFFFFFFFFF MUL NOT AND SWAP1 DUP4 PUSH20 0xFFFFFFFFFFFFFFFFFFFFFFFFFFFFFFFFFFFFFFFF AND MUL OR SWAP1 SSTORE POP DUP2 PUSH20 0xFFFFFFFFFFFFFFFFFFFFFFFFFFFFFFFFFFFFFFFF AND DUP2 PUSH20 0xFFFFFFFFFFFFFFFFFFFFFFFFFFFFFFFFFFFFFFFF AND PUSH32 0x8BE0079C531659141344CD1FD0A4F28419497F9722A3DAAFE3B4186F6B6457E0 PUSH1 0x40 MLOAD PUSH1 0x40 MLOAD DUP1 SWAP2 SUB SWAP1 LOG3 POP POP JUMP JUMPDEST PUSH1 0x0 PUSH20 0xFFFFFFFFFFFFFFFFFFFFFFFFFFFFFFFFFFFFFFFF DUP3 AND SWAP1 POP SWAP2 SWAP1 POP JUMP JUMPDEST PUSH1 0x0 PUSH3 0x191 DUP3 PUSH3 0x164 JUMP JUMPDEST SWAP1 POP SWAP2 SWAP1 POP JUMP JUMPDEST PUSH3 0x1A3 DUP2 PUSH3 0x184 JUMP JUMPDEST DUP3 MSTORE POP POP JUMP JUMPDEST PUSH1 0x0 PUSH1 0x20 DUP3 ADD SWAP1 POP PUSH3 0x1C0 PUSH1 0x0 DUP4 ADD DUP5 PUSH3 0x198 JUMP JUMPDEST SWAP3 SWAP2 POP POP JUMP JUMPDEST PUSH2 0x4DA4 DUP1 PUSH3 0x1D6 PUSH1 0x0 CODECOPY PUSH1 0x0 RETURN INVALID PUSH1 0x80 PUSH1 0x40 MSTORE PUSH1 0x4 CALLDATASIZE LT PUSH2 0x14F JUMPI PUSH1 0x0 CALLDATALOAD PUSH1 0xE0 SHR DUP1 PUSH4 0x873CEB2E GT PUSH2 0xB6 JUMPI DUP1 PUSH4 0xC5BF44AB GT PUSH2 0x6F JUMPI DUP1 PUSH4 0xC5BF44AB EQ PUSH2 0x473 JUMPI DUP1 PUSH4 0xC8B785F3 EQ PUSH2 0x49E JUMPI DUP1 PUSH4 0xD62B5C59 EQ PUSH2 0x4C7 JUMPI DUP1 PUSH4 0xE6160FA3 EQ PUSH2 0x4F2 JUMPI DUP1 PUSH4 0xF2FDE38B EQ PUSH2 0x51B JUMPI DUP1 PUSH4 0xF8867041 EQ PUSH2 0x544 JUMPI PUSH2 0x18F JUMP JUMPDEST DUP1 PUSH4 0x873CEB2E EQ PUSH2 0x384 JUMPI DUP1 PUSH4 0x8DA5CB5B EQ PUSH2 0x3AD JUMPI DUP1 PUSH4 0x9532C8C3 EQ PUSH2 0x3D8 JUMPI DUP1 PUSH4 0x988A314C EQ PUSH2 0x403 JUMPI DUP1 PUSH4 0xABA675B0 EQ PUSH2 0x42E JUMPI DUP1 PUSH4 0xB6B55F25 EQ PUSH2 0x457 JUMPI PUSH2 0x18F JUMP JUMPDEST DUP1 PUSH4 0x56C4E4BA GT PUSH2 0x108 JUMPI DUP1 PUSH4 0x56C4E4BA EQ PUSH2 0x2A0 JUMPI DUP1 PUSH4 0x5A6CAD96 EQ PUSH2 0x2C9 JUMPI DUP1 PUSH4 0x654F6A75 EQ PUSH2 0x2F2 JUMPI DUP1 PUSH4 0x715018A6 EQ PUSH2 0x31B JUMPI DUP1 PUSH4 0x7824C05C EQ PUSH2 0x332 JUMPI DUP1 PUSH4 0x82E6D638 EQ PUSH2 0x35B JUMPI PUSH2 0x18F JUMP JUMPDEST DUP1 PUSH4 0x13E86265 EQ PUSH2 0x194 JUMPI DUP1 PUSH4 0x25FE08C9 EQ PUSH2 0x1D1 JUMPI DUP1 PUSH4 0x370603F8 EQ PUSH2 0x1FA JUMPI DUP1 PUSH4 0x3C973F75 EQ PUSH2 0x237 JUMPI DUP1 PUSH4 0x3CCFD60B EQ PUSH2 0x260 JUMPI DUP1 PUSH4 0x3E512EBC EQ PUSH2 0x277 JUMPI PUSH2 0x18F JUMP JUMPDEST CALLDATASIZE PUSH2 0x18F JUMPI PUSH32 0xE1FFFCC4923D04B559F4D29A8BFC6CDA04EB5B0D3C460751C2402C5C5CC9109C CALLER CALLVALUE PUSH1 0x40 MLOAD PUSH2 0x185 SWAP3 SWAP2 SWAP1 PUSH2 0x1EBC JUMP JUMPDEST PUSH1 0x40 MLOAD DUP1 SWAP2 SUB SWAP1 LOG1 STOP JUMPDEST PUSH1 0x0 DUP1 REVERT JUMPDEST CALLVALUE DUP1 ISZERO PUSH2 0x1A0 JUMPI PUSH1 0x0 DUP1 REVERT JUMPDEST POP PUSH2 0x1BB PUSH1 0x4 DUP1 CALLDATASIZE SUB DUP2 ADD SWAP1 PUSH2 0x1B6 SWAP2 SWAP1 PUSH2 0x1F5B JUMP JUMPDEST PUSH2 0x574 JUMP JUMPDEST PUSH1 0x40 MLOAD PUSH2 0x1C8 SWAP2 SWAP1 PUSH2 0x2364 JUMP JUMPDEST PUSH1 0x40 MLOAD DUP1 SWAP2 SUB SWAP1 RETURN JUMPDEST CALLVALUE DUP1 ISZERO PUSH2 0x1DD JUMPI PUSH1 0x0 DUP1 REVERT JUMPDEST POP PUSH2 0x1F8 PUSH1 0x4 DUP1 CALLDATASIZE SUB DUP2 ADD SWAP1 PUSH2 0x1F3 SWAP2 SWAP1 PUSH2 0x23B2 JUMP JUMPDEST PUSH2 0x641 JUMP JUMPDEST STOP JUMPDEST CALLVALUE DUP1 ISZERO PUSH2 0x206 JUMPI PUSH1 0x0 DUP1 REVERT JUMPDEST POP PUSH2 0x221 PUSH1 0x4 DUP1 CALLDATASIZE SUB DUP2 ADD SWAP1 PUSH2 0x21C SWAP2 SWAP1 PUSH2 0x23DF JUMP JUMPDEST PUSH2 0x6C4 JUMP JUMPDEST PUSH1 0x40 MLOAD PUSH2 0x22E SWAP2 SWAP1 PUSH2 0x2780 JUMP JUMPDEST PUSH1 0x40 MLOAD DUP1 SWAP2 SUB SWAP1 RETURN JUMPDEST CALLVALUE DUP1 ISZERO PUSH2 0x243 JUMPI PUSH1 0x0 DUP1 REVERT JUMPDEST POP PUSH2 0x25E PUSH1 0x4 DUP1 CALLDATASIZE SUB DUP2 ADD SWAP1 PUSH2 0x259 SWAP2 SWAP1 PUSH2 0x2CF3 JUMP JUMPDEST PUSH2 0xCE5 JUMP JUMPDEST STOP JUMPDEST CALLVALUE DUP1 ISZERO PUSH2 0x26C JUMPI PUSH1 0x0 DUP1 REVERT JUMPDEST POP PUSH2 0x275 PUSH2 0xEDA JUMP JUMPDEST STOP JUMPDEST CALLVALUE DUP1 ISZERO PUSH2 0x283 JUMPI PUSH1 0x0 DUP1 REVERT JUMPDEST POP PUSH2 0x29E PUSH1 0x4 DUP1 CALLDATASIZE SUB DUP2 ADD SWAP1 PUSH2 0x299 SWAP2 SWAP1 PUSH2 0x23DF JUMP JUMPDEST PUSH2 0x1020 JUMP JUMPDEST STOP JUMPDEST CALLVALUE DUP1 ISZERO PUSH2 0x2AC JUMPI PUSH1 0x0 DUP1 REVERT JUMPDEST POP PUSH2 0x2C7 PUSH1 0x4 DUP1 CALLDATASIZE SUB DUP2 ADD SWAP1 PUSH2 0x2C2 SWAP2 SWAP1 PUSH2 0x2D86 JUMP JUMPDEST PUSH2 0x1069 JUMP JUMPDEST STOP JUMPDEST CALLVALUE DUP1 ISZERO PUSH2 0x2D5 JUMPI PUSH1 0x0 DUP1 REVERT JUMPDEST POP PUSH2 0x2F0 PUSH1 0x4 DUP1 CALLDATASIZE SUB DUP2 ADD SWAP1 PUSH2 0x2EB SWAP2 SWAP1 PUSH2 0x2DE2 JUMP JUMPDEST PUSH2 0x10D4 JUMP JUMPDEST STOP JUMPDEST CALLVALUE DUP1 ISZERO PUSH2 0x2FE JUMPI PUSH1 0x0 DUP1 REVERT JUMPDEST POP PUSH2 0x319 PUSH1 0x4 DUP1 CALLDATASIZE SUB DUP2 ADD SWAP1 PUSH2 0x314 SWAP2 SWAP1 PUSH2 0x2EED JUMP JUMPDEST PUSH2 0x116E JUMP JUMPDEST STOP JUMPDEST CALLVALUE DUP1 ISZERO PUSH2 0x327 JUMPI PUSH1 0x0 DUP1 REVERT JUMPDEST POP PUSH2 0x330 PUSH2 0x12F0 JUMP JUMPDEST STOP JUMPDEST CALLVALUE DUP1 ISZERO PUSH2 0x33E JUMPI PUSH1 0x0 DUP1 REVERT JUMPDEST POP PUSH2 0x359 PUSH1 0x4 DUP1 CALLDATASIZE SUB DUP2 ADD SWAP1 PUSH2 0x354 SWAP2 SWAP1 PUSH2 0x2FE7 JUMP JUMPDEST PUSH2 0x1304 JUMP JUMPDEST STOP JUMPDEST CALLVALUE DUP1 ISZERO PUSH2 0x367 JUMPI PUSH1 0x0 DUP1 REVERT JUMPDEST POP PUSH2 0x382 PUSH1 0x4 DUP1 CALLDATASIZE SUB DUP2 ADD SWAP1 PUSH2 0x37D SWAP2 SWAP1 PUSH2 0x3027 JUMP JUMPDEST PUSH2 0x1387 JUMP JUMPDEST STOP JUMPDEST CALLVALUE DUP1 ISZERO PUSH2 0x390 JUMPI PUSH1 0x0 DUP1 REVERT JUMPDEST POP PUSH2 0x3AB PUSH1 0x4 DUP1 CALLDATASIZE SUB DUP2 ADD SWAP1 PUSH2 0x3A6 SWAP2 SWAP1 PUSH2 0x23DF JUMP JUMPDEST PUSH2 0x13F2 JUMP JUMPDEST STOP JUMPDEST CALLVALUE DUP1 ISZERO PUSH2 0x3B9 JUMPI PUSH1 0x0 DUP1 REVERT JUMPDEST POP PUSH2 0x3C2 PUSH2 0x143B JUMP JUMPDEST PUSH1 0x40 MLOAD PUSH2 0x3CF SWAP2 SWAP1 PUSH2 0x3083 JUMP JUMPDEST PUSH1 0x40 MLOAD DUP1 SWAP2 SUB SWAP1 RETURN JUMPDEST CALLVALUE DUP1 ISZERO PUSH2 0x3E4 JUMPI PUSH1 0x0 DUP1 REVERT JUMPDEST POP PUSH2 0x3ED PUSH2 0x1464 JUMP JUMPDEST PUSH1 0x40 MLOAD PUSH2 0x3FA SWAP2 SWAP1 PUSH2 0x309E JUMP JUMPDEST PUSH1 0x40 MLOAD DUP1 SWAP2 SUB SWAP1 RETURN JUMPDEST CALLVALUE DUP1 ISZERO PUSH2 0x40F JUMPI PUSH1 0x0 DUP1 REVERT JUMPDEST POP PUSH2 0x418 PUSH2 0x146E JUMP JUMPDEST PUSH1 0x40 MLOAD PUSH2 0x425 SWAP2 SWAP1 PUSH2 0x3083 JUMP JUMPDEST PUSH1 0x40 MLOAD DUP1 SWAP2 SUB SWAP1 RETURN JUMPDEST CALLVALUE DUP1 ISZERO PUSH2 0x43A JUMPI PUSH1 0x0 DUP1 REVERT JUMPDEST POP PUSH2 0x455 PUSH1 0x4 DUP1 CALLDATASIZE SUB DUP2 ADD SWAP1 PUSH2 0x450 SWAP2 SWAP1 PUSH2 0x30B9 JUMP JUMPDEST PUSH2 0x1498 JUMP JUMPDEST STOP JUMPDEST PUSH2 0x471 PUSH1 0x4 DUP1 CALLDATASIZE SUB DUP2 ADD SWAP1 PUSH2 0x46C SWAP2 SWAP1 PUSH2 0x23DF JUMP JUMPDEST PUSH2 0x15F2 JUMP JUMPDEST STOP JUMPDEST CALLVALUE DUP1 ISZERO PUSH2 0x47F JUMPI PUSH1 0x0 DUP1 REVERT JUMPDEST POP PUSH2 0x488 PUSH2 0x1710 JUMP JUMPDEST PUSH1 0x40 MLOAD PUSH2 0x495 SWAP2 SWAP1 PUSH2 0x309E JUMP JUMPDEST PUSH1 0x40 MLOAD DUP1 SWAP2 SUB SWAP1 RETURN JUMPDEST CALLVALUE DUP1 ISZERO PUSH2 0x4AA JUMPI PUSH1 0x0 DUP1 REVERT JUMPDEST POP PUSH2 0x4C5 PUSH1 0x4 DUP1 CALLDATASIZE SUB DUP2 ADD SWAP1 PUSH2 0x4C0 SWAP2 SWAP1 PUSH2 0x30B9 JUMP JUMPDEST PUSH2 0x171A JUMP JUMPDEST STOP JUMPDEST CALLVALUE DUP1 ISZERO PUSH2 0x4D3 JUMPI PUSH1 0x0 DUP1 REVERT JUMPDEST POP PUSH2 0x4DC PUSH2 0x179C JUMP JUMPDEST PUSH1 0x40 MLOAD PUSH2 0x4E9 SWAP2 SWAP1 PUSH2 0x309E JUMP JUMPDEST PUSH1 0x40 MLOAD DUP1 SWAP2 SUB SWAP1 RETURN JUMPDEST CALLVALUE DUP1 ISZERO PUSH2 0x4FE JUMPI PUSH1 0x0 DUP1 REVERT JUMPDEST POP PUSH2 0x519 PUSH1 0x4 DUP1 CALLDATASIZE SUB DUP2 ADD SWAP1 PUSH2 0x514 SWAP2 SWAP1 PUSH2 0x30F9 JUMP JUMPDEST PUSH2 0x17A6 JUMP JUMPDEST STOP JUMPDEST CALLVALUE DUP1 ISZERO PUSH2 0x527 JUMPI PUSH1 0x0 DUP1 REVERT JUMPDEST POP PUSH2 0x542 PUSH1 0x4 DUP1 CALLDATASIZE SUB DUP2 ADD SWAP1 PUSH2 0x53D SWAP2 SWAP1 PUSH2 0x23B2 JUMP JUMPDEST PUSH2 0x181C JUMP JUMPDEST STOP JUMPDEST PUSH2 0x55E PUSH1 0x4 DUP1 CALLDATASIZE SUB DUP2 ADD SWAP1 PUSH2 0x559 SWAP2 SWAP1 PUSH2 0x3139 JUMP JUMPDEST PUSH2 0x18A2 JUMP JUMPDEST PUSH1 0x40 MLOAD PUSH2 0x56B SWAP2 SWAP1 PUSH2 0x309E JUMP JUMPDEST PUSH1 0x40 MLOAD DUP1 SWAP2 SUB SWAP1 RETURN JUMPDEST PUSH2 0x57C PUSH2 0x1CFE JUMP JUMPDEST PUSH1 0x0 PUSH1 0x1 PUSH1 0x0 DUP6 DUP2 MSTORE PUSH1 0x20 ADD SWAP1 DUP2 MSTORE PUSH1 0x20 ADD PUSH1 0x0 KECCAK256 PUSH1 0x9 ADD PUSH1 0x0 SWAP1 SLOAD SWAP1 PUSH2 0x100 EXP SWAP1 DIV PUSH20 0xFFFFFFFFFFFFFFFFFFFFFFFFFFFFFFFFFFFFFFFF AND SWAP1 POP DUP1 PUSH20 0xFFFFFFFFFFFFFFFFFFFFFFFFFFFFFFFFFFFFFFFF AND PUSH4 0x13E86265 DUP6 DUP6 PUSH1 0x40 MLOAD DUP4 PUSH4 0xFFFFFFFF AND PUSH1 0xE0 SHL DUP2 MSTORE PUSH1 0x4 ADD PUSH2 0x5F2 SWAP3 SWAP2 SWAP1 PUSH2 0x321A JUMP JUMPDEST PUSH1 0x0 PUSH1 0x40 MLOAD DUP1 DUP4 SUB DUP2 DUP7 GAS STATICCALL ISZERO DUP1 ISZERO PUSH2 0x60F JUMPI RETURNDATASIZE PUSH1 0x0 DUP1 RETURNDATACOPY RETURNDATASIZE PUSH1 0x0 REVERT JUMPDEST POP POP POP POP PUSH1 0x40 MLOAD RETURNDATASIZE PUSH1 0x0 DUP3 RETURNDATACOPY RETURNDATASIZE PUSH1 0x1F NOT PUSH1 0x1F DUP3 ADD AND DUP3 ADD DUP1 PUSH1 0x40 MSTORE POP DUP2 ADD SWAP1 PUSH2 0x638 SWAP2 SWAP1 PUSH2 0x3666 JUMP JUMPDEST SWAP2 POP POP SWAP3 SWAP2 POP POP JUMP JUMPDEST PUSH2 0x649 PUSH2 0x1BAB JUMP JUMPDEST DUP1 PUSH1 0x5 PUSH1 0x0 PUSH2 0x100 EXP DUP2 SLOAD DUP2 PUSH20 0xFFFFFFFFFFFFFFFFFFFFFFFFFFFFFFFFFFFFFFFF MUL NOT AND SWAP1 DUP4 PUSH20 0xFFFFFFFFFFFFFFFFFFFFFFFFFFFFFFFFFFFFFFFF AND MUL OR SWAP1 SSTORE POP PUSH32 0x2F165C01002D221752E275A87B6ED91DF7C1B198B0BBE0E93DD28C7C834A08CC DUP2 PUSH1 0x40 MLOAD PUSH2 0x6B9 SWAP2 SWAP1 PUSH2 0x3083 JUMP JUMPDEST PUSH1 0x40 MLOAD DUP1 SWAP2 SUB SWAP1 LOG1 POP JUMP JUMPDEST PUSH2 0x6CC PUSH2 0x1D4D JUMP JUMPDEST PUSH1 0x1 PUSH1 0x0 DUP4 DUP2 MSTORE PUSH1 0x20 ADD SWAP1 DUP2 MSTORE PUSH1 0x20 ADD PUSH1 0x0 KECCAK256 PUSH1 0x40 MLOAD DUP1 PUSH1 0xE0 ADD PUSH1 0x40 MSTORE SWAP1 DUP2 PUSH1 0x0 DUP3 ADD PUSH1 0x40 MLOAD DUP1 PUSH1 0xA0 ADD PUSH1 0x40 MSTORE SWAP1 DUP2 PUSH1 0x0 DUP3 ADD DUP1 SLOAD PUSH2 0x70A SWAP1 PUSH2 0x36DE JUMP JUMPDEST DUP1 PUSH1 0x1F ADD PUSH1 0x20 DUP1 SWAP2 DIV MUL PUSH1 0x20 ADD PUSH1 0x40 MLOAD SWAP1 DUP2 ADD PUSH1 0x40 MSTORE DUP1 SWAP3 SWAP2 SWAP1 DUP2 DUP2 MSTORE PUSH1 0x20 ADD DUP3 DUP1 SLOAD PUSH2 0x736 SWAP1 PUSH2 0x36DE JUMP JUMPDEST DUP1 ISZERO PUSH2 0x783 JUMPI DUP1 PUSH1 0x1F LT PUSH2 0x758 JUMPI PUSH2 0x100 DUP1 DUP4 SLOAD DIV MUL DUP4 MSTORE SWAP2 PUSH1 0x20 ADD SWAP2 PUSH2 0x783 JUMP JUMPDEST DUP3 ADD SWAP2 SWAP1 PUSH1 0x0 MSTORE PUSH1 0x20 PUSH1 0x0 KECCAK256 SWAP1 JUMPDEST DUP2 SLOAD DUP2 MSTORE SWAP1 PUSH1 0x1 ADD SWAP1 PUSH1 0x20 ADD DUP1 DUP4 GT PUSH2 0x766 JUMPI DUP3 SWAP1 SUB PUSH1 0x1F AND DUP3 ADD SWAP2 JUMPDEST POP POP POP POP POP DUP2 MSTORE PUSH1 0x20 ADD PUSH1 0x1 DUP3 ADD DUP1 SLOAD PUSH2 0x79C SWAP1 PUSH2 0x36DE JUMP JUMPDEST DUP1 PUSH1 0x1F ADD PUSH1 0x20 DUP1 SWAP2 DIV MUL PUSH1 0x20 ADD PUSH1 0x40 MLOAD SWAP1 DUP2 ADD PUSH1 0x40 MSTORE DUP1 SWAP3 SWAP2 SWAP1 DUP2 DUP2 MSTORE PUSH1 0x20 ADD DUP3 DUP1 SLOAD PUSH2 0x7C8 SWAP1 PUSH2 0x36DE JUMP JUMPDEST DUP1 ISZERO PUSH2 0x815 JUMPI DUP1 PUSH1 0x1F LT PUSH2 0x7EA JUMPI PUSH2 0x100 DUP1 DUP4 SLOAD DIV MUL DUP4 MSTORE SWAP2 PUSH1 0x20 ADD SWAP2 PUSH2 0x815 JUMP JUMPDEST DUP3 ADD SWAP2 SWAP1 PUSH1 0x0 MSTORE PUSH1 0x20 PUSH1 0x0 KECCAK256 SWAP1 JUMPDEST DUP2 SLOAD DUP2 MSTORE SWAP1 PUSH1 0x1 ADD SWAP1 PUSH1 0x20 ADD DUP1 DUP4 GT PUSH2 0x7F8 JUMPI DUP3 SWAP1 SUB PUSH1 0x1F AND DUP3 ADD SWAP2 JUMPDEST POP POP POP POP POP DUP2 MSTORE PUSH1 0x20 ADD PUSH1 0x2 DUP3 ADD DUP1 SLOAD PUSH2 0x82E SWAP1 PUSH2 0x36DE JUMP JUMPDEST DUP1 PUSH1 0x1F ADD PUSH1 0x20 DUP1 SWAP2 DIV MUL PUSH1 0x20 ADD PUSH1 0x40 MLOAD SWAP1 DUP2 ADD PUSH1 0x40 MSTORE DUP1 SWAP3 SWAP2 SWAP1 DUP2 DUP2 MSTORE PUSH1 0x20 ADD DUP3 DUP1 SLOAD PUSH2 0x85A SWAP1 PUSH2 0x36DE JUMP JUMPDEST DUP1 ISZERO PUSH2 0x8A7 JUMPI DUP1 PUSH1 0x1F LT PUSH2 0x87C JUMPI PUSH2 0x100 DUP1 DUP4 SLOAD DIV MUL DUP4 MSTORE SWAP2 PUSH1 0x20 ADD SWAP2 PUSH2 0x8A7 JUMP JUMPDEST DUP3 ADD SWAP2 SWAP1 PUSH1 0x0 MSTORE PUSH1 0x20 PUSH1 0x0 KECCAK256 SWAP1 JUMPDEST DUP2 SLOAD DUP2 MSTORE SWAP1 PUSH1 0x1 ADD SWAP1 PUSH1 0x20 ADD DUP1 DUP4 GT PUSH2 0x88A JUMPI DUP3 SWAP1 SUB PUSH1 0x1F AND DUP3 ADD SWAP2 JUMPDEST POP POP POP POP POP DUP2 MSTORE PUSH1 0x20 ADD PUSH1 0x3 DUP3 ADD DUP1 SLOAD DUP1 PUSH1 0x20 MUL PUSH1 0x20 ADD PUSH1 0x40 MLOAD SWAP1 DUP2 ADD PUSH1 0x40 MSTORE DUP1 SWAP3 SWAP2 SWAP1 DUP2 DUP2 MSTORE PUSH1 0x20 ADD PUSH1 0x0 SWAP1 JUMPDEST DUP3 DUP3 LT ISZERO PUSH2 0x981 JUMPI DUP4 DUP3 SWAP1 PUSH1 0x0 MSTORE PUSH1 0x20 PUSH1 0x0 KECCAK256 ADD DUP1 SLOAD PUSH2 0x8F4 SWAP1 PUSH2 0x36DE JUMP JUMPDEST DUP1 PUSH1 0x1F ADD PUSH1 0x20 DUP1 SWAP2 DIV MUL PUSH1 0x20 ADD PUSH1 0x40 MLOAD SWAP1 DUP2 ADD PUSH1 0x40 MSTORE DUP1 SWAP3 SWAP2 SWAP1 DUP2 DUP2 MSTORE PUSH1 0x20 ADD DUP3 DUP1 SLOAD PUSH2 0x920 SWAP1 PUSH2 0x36DE JUMP JUMPDEST DUP1 ISZERO PUSH2 0x96D JUMPI DUP1 PUSH1 0x1F LT PUSH2 0x942 JUMPI PUSH2 0x100 DUP1 DUP4 SLOAD DIV MUL DUP4 MSTORE SWAP2 PUSH1 0x20 ADD SWAP2 PUSH2 0x96D JUMP JUMPDEST DUP3 ADD SWAP2 SWAP1 PUSH1 0x0 MSTORE PUSH1 0x20 PUSH1 0x0 KECCAK256 SWAP1 JUMPDEST DUP2 SLOAD DUP2 MSTORE SWAP1 PUSH1 0x1 ADD SWAP1 PUSH1 0x20 ADD DUP1 DUP4 GT PUSH2 0x950 JUMPI DUP3 SWAP1 SUB PUSH1 0x1F AND DUP3 ADD SWAP2 JUMPDEST POP POP POP POP POP DUP2 MSTORE PUSH1 0x20 ADD SWAP1 PUSH1 0x1 ADD SWAP1 PUSH2 0x8D5 JUMP JUMPDEST POP POP POP POP DUP2 MSTORE PUSH1 0x20 ADD PUSH1 0x4 DUP3 ADD PUSH1 0x0 SWAP1 SLOAD SWAP1 PUSH2 0x100 EXP SWAP1 DIV PUSH1 0xFF AND ISZERO ISZERO ISZERO ISZERO DUP2 MSTORE POP POP DUP2 MSTORE PUSH1 0x20 ADD PUSH1 0x5 DUP3 ADD PUSH1 0x40 MLOAD DUP1 PUSH1 0x60 ADD PUSH1 0x40 MSTORE SWAP1 DUP2 PUSH1 0x0 DUP3 ADD PUSH1 0x0 SWAP1 SLOAD SWAP1 PUSH2 0x100 EXP SWAP1 DIV PUSH1 0xFF AND PUSH1 0x5 DUP2 GT ISZERO PUSH2 0x9DD JUMPI PUSH2 0x9DC PUSH2 0x24B2 JUMP JUMPDEST JUMPDEST PUSH1 0x5 DUP2 GT ISZERO PUSH2 0x9EF JUMPI PUSH2 0x9EE PUSH2 0x24B2 JUMP JUMPDEST JUMPDEST DUP2 MSTORE PUSH1 0x20 ADD PUSH1 0x1 DUP3 ADD DUP1 SLOAD DUP1 PUSH1 0x20 MUL PUSH1 0x20 ADD PUSH1 0x40 MLOAD SWAP1 DUP2 ADD PUSH1 0x40 MSTORE DUP1 SWAP3 SWAP2 SWAP1 DUP2 DUP2 MSTORE PUSH1 0x20 ADD PUSH1 0x0 SWAP1 JUMPDEST DUP3 DUP3 LT ISZERO PUSH2 0xB32 JUMPI DUP4 DUP3 SWAP1 PUSH1 0x0 MSTORE PUSH1 0x20 PUSH1 0x0 KECCAK256 SWAP1 PUSH1 0x2 MUL ADD PUSH1 0x40 MLOAD DUP1 PUSH1 0x40 ADD PUSH1 0x40 MSTORE SWAP1 DUP2 PUSH1 0x0 DUP3 ADD DUP1 SLOAD PUSH2 0xA4B SWAP1 PUSH2 0x36DE JUMP JUMPDEST DUP1 PUSH1 0x1F ADD PUSH1 0x20 DUP1 SWAP2 DIV MUL PUSH1 0x20 ADD PUSH1 0x40 MLOAD SWAP1 DUP2 ADD PUSH1 0x40 MSTORE DUP1 SWAP3 SWAP2 SWAP1 DUP2 DUP2 MSTORE PUSH1 0x20 ADD DUP3 DUP1 SLOAD PUSH2 0xA77 SWAP1 PUSH2 0x36DE JUMP JUMPDEST DUP1 ISZERO PUSH2 0xAC4 JUMPI DUP1 PUSH1 0x1F LT PUSH2 0xA99 JUMPI PUSH2 0x100 DUP1 DUP4 SLOAD DIV MUL DUP4 MSTORE SWAP2 PUSH1 0x20 ADD SWAP2 PUSH2 0xAC4 JUMP JUMPDEST DUP3 ADD SWAP2 SWAP1 PUSH1 0x0 MSTORE PUSH1 0x20 PUSH1 0x0 KECCAK256 SWAP1 JUMPDEST DUP2 SLOAD DUP2 MSTORE SWAP1 PUSH1 0x1 ADD SWAP1 PUSH1 0x20 ADD DUP1 DUP4 GT PUSH2 0xAA7 JUMPI DUP3 SWAP1 SUB PUSH1 0x1F AND DUP3 ADD SWAP2 JUMPDEST POP POP POP POP POP DUP2 MSTORE PUSH1 0x20 ADD PUSH1 0x1 DUP3 ADD PUSH1 0x0 SWAP1 SLOAD SWAP1 PUSH2 0x100 EXP SWAP1 DIV PUSH20 0xFFFFFFFFFFFFFFFFFFFFFFFFFFFFFFFFFFFFFFFF AND PUSH20 0xFFFFFFFFFFFFFFFFFFFFFFFFFFFFFFFFFFFFFFFF AND PUSH20 0xFFFFFFFFFFFFFFFFFFFFFFFFFFFFFFFFFFFFFFFF AND DUP2 MSTORE POP POP DUP2 MSTORE PUSH1 0x20 ADD SWAP1 PUSH1 0x1 ADD SWAP1 PUSH2 0xA18 JUMP JUMPDEST POP POP POP POP DUP2 MSTORE PUSH1 0x20 ADD PUSH1 0x2 DUP3 ADD DUP1 SLOAD PUSH2 0xB4A SWAP1 PUSH2 0x36DE JUMP JUMPDEST DUP1 PUSH1 0x1F ADD PUSH1 0x20 DUP1 SWAP2 DIV MUL PUSH1 0x20 ADD PUSH1 0x40 MLOAD SWAP1 DUP2 ADD PUSH1 0x40 MSTORE DUP1 SWAP3 SWAP2 SWAP1 DUP2 DUP2 MSTORE PUSH1 0x20 ADD DUP3 DUP1 SLOAD PUSH2 0xB76 SWAP1 PUSH2 0x36DE JUMP JUMPDEST DUP1 ISZERO PUSH2 0xBC3 JUMPI DUP1 PUSH1 0x1F LT PUSH2 0xB98 JUMPI PUSH2 0x100 DUP1 DUP4 SLOAD DIV MUL DUP4 MSTORE SWAP2 PUSH1 0x20 ADD SWAP2 PUSH2 0xBC3 JUMP JUMPDEST DUP3 ADD SWAP2 SWAP1 PUSH1 0x0 MSTORE PUSH1 0x20 PUSH1 0x0 KECCAK256 SWAP1 JUMPDEST DUP2 SLOAD DUP2 MSTORE SWAP1 PUSH1 0x1 ADD SWAP1 PUSH1 0x20 ADD DUP1 DUP4 GT PUSH2 0xBA6 JUMPI DUP3 SWAP1 SUB PUSH1 0x1F AND DUP3 ADD SWAP2 JUMPDEST POP POP POP POP POP DUP2 MSTORE POP POP DUP2 MSTORE PUSH1 0x20 ADD PUSH1 0x8 DUP3 ADD DUP1 SLOAD DUP1 PUSH1 0x20 MUL PUSH1 0x20 ADD PUSH1 0x40 MLOAD SWAP1 DUP2 ADD PUSH1 0x40 MSTORE DUP1 SWAP3 SWAP2 SWAP1 DUP2 DUP2 MSTORE PUSH1 0x20 ADD DUP3 DUP1 SLOAD DUP1 ISZERO PUSH2 0xC1F JUMPI PUSH1 0x20 MUL DUP3 ADD SWAP2 SWAP1 PUSH1 0x0 MSTORE PUSH1 0x20 PUSH1 0x0 KECCAK256 SWAP1 JUMPDEST DUP2 SLOAD DUP2 MSTORE PUSH1 0x20 ADD SWAP1 PUSH1 0x1 ADD SWAP1 DUP1 DUP4 GT PUSH2 0xC0B JUMPI JUMPDEST POP POP POP POP POP DUP2 MSTORE PUSH1 0x20 ADD PUSH1 0x9 DUP3 ADD PUSH1 0x0 SWAP1 SLOAD SWAP1 PUSH2 0x100 EXP SWAP1 DIV PUSH20 0xFFFFFFFFFFFFFFFFFFFFFFFFFFFFFFFFFFFFFFFF AND PUSH20 0xFFFFFFFFFFFFFFFFFFFFFFFFFFFFFFFFFFFFFFFF AND PUSH20 0xFFFFFFFFFFFFFFFFFFFFFFFFFFFFFFFFFFFFFFFF AND DUP2 MSTORE PUSH1 0x20 ADD PUSH1 0x9 DUP3 ADD PUSH1 0x14 SWAP1 SLOAD SWAP1 PUSH2 0x100 EXP SWAP1 DIV PUSH1 0xFF AND PUSH1 0x1 DUP2 GT ISZERO PUSH2 0xCA3 JUMPI PUSH2 0xCA2 PUSH2 0x24B2 JUMP JUMPDEST JUMPDEST PUSH1 0x1 DUP2 GT ISZERO PUSH2 0xCB5 JUMPI PUSH2 0xCB4 PUSH2 0x24B2 JUMP JUMPDEST JUMPDEST DUP2 MSTORE PUSH1 0x20 ADD PUSH1 0x9 DUP3 ADD PUSH1 0x15 SWAP1 SLOAD SWAP1 PUSH2 0x100 EXP SWAP1 DIV PUSH1 0xFF AND ISZERO ISZERO ISZERO ISZERO DUP2 MSTORE PUSH1 0x20 ADD PUSH1 0xA DUP3 ADD SLOAD DUP2 MSTORE POP POP SWAP1 POP SWAP2 SWAP1 POP JUMP JUMPDEST PUSH2 0xCED PUSH2 0x1BAB JUMP JUMPDEST PUSH1 0x1 PUSH1 0x0 DUP5 DUP2 MSTORE PUSH1 0x20 ADD SWAP1 DUP2 MSTORE PUSH1 0x20 ADD PUSH1 0x0 KECCAK256 PUSH1 0x9 ADD PUSH1 0x15 SWAP1 SLOAD SWAP1 PUSH2 0x100 EXP SWAP1 DIV PUSH1 0xFF AND ISZERO PUSH2 0xD51 JUMPI PUSH1 0x40 MLOAD PUSH32 0x8C379A000000000000000000000000000000000000000000000000000000000 DUP2 MSTORE PUSH1 0x4 ADD PUSH2 0xD48 SWAP1 PUSH2 0x376C JUMP JUMPDEST PUSH1 0x40 MLOAD DUP1 SWAP2 SUB SWAP1 REVERT JUMPDEST PUSH1 0x3 SLOAD PUSH1 0x1 PUSH1 0x0 DUP6 DUP2 MSTORE PUSH1 0x20 ADD SWAP1 DUP2 MSTORE PUSH1 0x20 ADD PUSH1 0x0 KECCAK256 PUSH1 0xA ADD SLOAD LT ISZERO PUSH2 0xDAC JUMPI PUSH1 0x40 MLOAD PUSH32 0x8C379A000000000000000000000000000000000000000000000000000000000 DUP2 MSTORE PUSH1 0x4 ADD PUSH2 0xDA3 SWAP1 PUSH2 0x37FE JUMP JUMPDEST PUSH1 0x40 MLOAD DUP1 SWAP2 SUB SWAP1 REVERT JUMPDEST PUSH1 0x3 SLOAD PUSH1 0x1 PUSH1 0x0 DUP6 DUP2 MSTORE PUSH1 0x20 ADD SWAP1 DUP2 MSTORE PUSH1 0x20 ADD PUSH1 0x0 KECCAK256 PUSH1 0xA ADD PUSH1 0x0 DUP3 DUP3 SLOAD PUSH2 0xDD4 SWAP2 SWAP1 PUSH2 0x384D JUMP JUMPDEST SWAP3 POP POP DUP2 SWAP1 SSTORE POP PUSH1 0x3 SLOAD PUSH1 0x1 PUSH1 0x0 DUP6 DUP2 MSTORE PUSH1 0x20 ADD SWAP1 DUP2 MSTORE PUSH1 0x20 ADD PUSH1 0x0 KECCAK256 PUSH1 0xA ADD SLOAD LT ISZERO PUSH2 0xE2A JUMPI PUSH1 0x1 DUP1 PUSH1 0x0 DUP6 DUP2 MSTORE PUSH1 0x20 ADD SWAP1 DUP2 MSTORE PUSH1 0x20 ADD PUSH1 0x0 KECCAK256 PUSH1 0x9 ADD PUSH1 0x15 PUSH2 0x100 EXP DUP2 SLOAD DUP2 PUSH1 0xFF MUL NOT AND SWAP1 DUP4 ISZERO ISZERO MUL OR SWAP1 SSTORE POP JUMPDEST PUSH1 0x0 PUSH1 0x1 PUSH1 0x0 DUP6 DUP2 MSTORE PUSH1 0x20 ADD SWAP1 DUP2 MSTORE PUSH1 0x20 ADD PUSH1 0x0 KECCAK256 PUSH1 0x9 ADD PUSH1 0x0 SWAP1 SLOAD SWAP1 PUSH2 0x100 EXP SWAP1 DIV PUSH20 0xFFFFFFFFFFFFFFFFFFFFFFFFFFFFFFFFFFFFFFFF AND SWAP1 POP DUP1 PUSH20 0xFFFFFFFFFFFFFFFFFFFFFFFFFFFFFFFFFFFFFFFF AND PUSH4 0x3C973F75 DUP6 DUP6 DUP6 PUSH1 0x40 MLOAD DUP5 PUSH4 0xFFFFFFFF AND PUSH1 0xE0 SHL DUP2 MSTORE PUSH1 0x4 ADD PUSH2 0xEA2 SWAP4 SWAP3 SWAP2 SWAP1 PUSH2 0x3881 JUMP JUMPDEST PUSH1 0x0 PUSH1 0x40 MLOAD DUP1 DUP4 SUB DUP2 PUSH1 0x0 DUP8 DUP1 EXTCODESIZE ISZERO DUP1 ISZERO PUSH2 0xEBC JUMPI PUSH1 0x0 DUP1 REVERT JUMPDEST POP GAS CALL ISZERO DUP1 ISZERO PUSH2 0xED0 JUMPI RETURNDATASIZE PUSH1 0x0 DUP1 RETURNDATACOPY RETURNDATASIZE PUSH1 0x0 REVERT JUMPDEST POP POP POP POP POP POP POP POP JUMP JUMPDEST PUSH2 0xEE2 PUSH2 0x1BAB JUMP JUMPDEST PUSH1 0x0 SELFBALANCE SWAP1 POP PUSH1 0x0 DUP2 GT PUSH2 0xF2A JUMPI PUSH1 0x40 MLOAD PUSH32 0x8C379A000000000000000000000000000000000000000000000000000000000 DUP2 MSTORE PUSH1 0x4 ADD PUSH2 0xF21 SWAP1 PUSH2 0x390B JUMP JUMPDEST PUSH1 0x40 MLOAD DUP1 SWAP2 SUB SWAP1 REVERT JUMPDEST PUSH1 0x0 PUSH2 0xF34 PUSH2 0x143B JUMP JUMPDEST SWAP1 POP PUSH1 0x0 DUP2 PUSH20 0xFFFFFFFFFFFFFFFFFFFFFFFFFFFFFFFFFFFFFFFF AND DUP4 PUSH1 0x40 MLOAD PUSH2 0xF5C SWAP1 PUSH2 0x395C JUMP JUMPDEST PUSH1 0x0 PUSH1 0x40 MLOAD DUP1 DUP4 SUB DUP2 DUP6 DUP8 GAS CALL SWAP3 POP POP POP RETURNDATASIZE DUP1 PUSH1 0x0 DUP2 EQ PUSH2 0xF99 JUMPI PUSH1 0x40 MLOAD SWAP2 POP PUSH1 0x1F NOT PUSH1 0x3F RETURNDATASIZE ADD AND DUP3 ADD PUSH1 0x40 MSTORE RETURNDATASIZE DUP3 MSTORE RETURNDATASIZE PUSH1 0x0 PUSH1 0x20 DUP5 ADD RETURNDATACOPY PUSH2 0xF9E JUMP JUMPDEST PUSH1 0x60 SWAP2 POP JUMPDEST POP POP SWAP1 POP DUP1 PUSH2 0xFE2 JUMPI PUSH1 0x40 MLOAD PUSH32 0x8C379A000000000000000000000000000000000000000000000000000000000 DUP2 MSTORE PUSH1 0x4 ADD PUSH2 0xFD9 SWAP1 PUSH2 0x39BD JUMP JUMPDEST PUSH1 0x40 MLOAD DUP1 SWAP2 SUB SWAP1 REVERT JUMPDEST PUSH32 0xD964A27D45F595739C13D8B1160B57491050CACF3A2E5602207277D6228F64EE DUP4 DUP4 PUSH1 0x40 MLOAD PUSH2 0x1013 SWAP3 SWAP2 SWAP1 PUSH2 0x3A3C JUMP JUMPDEST PUSH1 0x40 MLOAD DUP1 SWAP2 SUB SWAP1 LOG1 POP POP POP JUMP JUMPDEST PUSH2 0x1028 PUSH2 0x1BAB JUMP JUMPDEST DUP1 PUSH1 0x3 DUP2 SWAP1 SSTORE POP PUSH32 0x840C2296C4C97ECDC9B8DC544CD67F45A8D629B9D6109410530BB58B7F17B92 DUP2 PUSH1 0x40 MLOAD PUSH2 0x105E SWAP2 SWAP1 PUSH2 0x309E JUMP JUMPDEST PUSH1 0x40 MLOAD DUP1 SWAP2 SUB SWAP1 LOG1 POP JUMP JUMPDEST PUSH2 0x1071 PUSH2 0x1BAB JUMP JUMPDEST DUP1 PUSH1 0x1 PUSH1 0x0 DUP5 DUP2 MSTORE PUSH1 0x20 ADD SWAP1 DUP2 MSTORE PUSH1 0x20 ADD PUSH1 0x0 KECCAK256 PUSH1 0x5 ADD DUP2 DUP2 PUSH2 0x1094 SWAP2 SWAP1 PUSH2 0x43D3 JUMP JUMPDEST SWAP1 POP POP PUSH32 0xF768BB0DD5BD987CDBC2706C837263B29E7326B0651E4FE20C16372D24CC02AC DUP3 DUP3 PUSH1 0x40 MLOAD PUSH2 0x10C8 SWAP3 SWAP2 SWAP1 PUSH2 0x46A5 JUMP JUMPDEST PUSH1 0x40 MLOAD DUP1 SWAP2 SUB SWAP1 LOG1 POP POP JUMP JUMPDEST PUSH2 0x10DC PUSH2 0x1BAB JUMP JUMPDEST DUP1 PUSH1 0x1 PUSH1 0x0 DUP5 DUP2 MSTORE PUSH1 0x20 ADD SWAP1 DUP2 MSTORE PUSH1 0x20 ADD PUSH1 0x0 KECCAK256 PUSH1 0x9 ADD PUSH1 0x0 PUSH2 0x100 EXP DUP2 SLOAD DUP2 PUSH20 0xFFFFFFFFFFFFFFFFFFFFFFFFFFFFFFFFFFFFFFFF MUL NOT AND SWAP1 DUP4 PUSH20 0xFFFFFFFFFFFFFFFFFFFFFFFFFFFFFFFFFFFFFFFF AND MUL OR SWAP1 SSTORE POP PUSH32 0xACD3BFB47D15F9F1D5DB04BF52AECE3B8C4FD63E70C97B91293415D2F2341F38 DUP3 DUP3 PUSH1 0x40 MLOAD PUSH2 0x1162 SWAP3 SWAP2 SWAP1 PUSH2 0x46D5 JUMP JUMPDEST PUSH1 0x40 MLOAD DUP1 SWAP2 SUB SWAP1 LOG1 POP POP JUMP JUMPDEST PUSH2 0x1176 PUSH2 0x1BAB JUMP JUMPDEST PUSH1 0x0 PUSH1 0x1 PUSH1 0x0 DUP11 DUP2 MSTORE PUSH1 0x20 ADD SWAP1 DUP2 MSTORE PUSH1 0x20 ADD PUSH1 0x0 KECCAK256 SWAP1 POP DUP8 DUP2 PUSH1 0x0 ADD DUP2 DUP2 PUSH2 0x119E SWAP2 SWAP1 PUSH2 0x49B8 JUMP JUMPDEST SWAP1 POP POP DUP7 DUP2 PUSH1 0x5 ADD DUP2 DUP2 PUSH2 0x11B2 SWAP2 SWAP1 PUSH2 0x43D3 JUMP JUMPDEST SWAP1 POP POP DUP4 DUP2 PUSH1 0x9 ADD PUSH1 0x0 PUSH2 0x100 EXP DUP2 SLOAD DUP2 PUSH20 0xFFFFFFFFFFFFFFFFFFFFFFFFFFFFFFFFFFFFFFFF MUL NOT AND SWAP1 DUP4 PUSH20 0xFFFFFFFFFFFFFFFFFFFFFFFFFFFFFFFFFFFFFFFF AND MUL OR SWAP1 SSTORE POP DUP3 DUP2 PUSH1 0x9 ADD PUSH1 0x14 PUSH2 0x100 EXP DUP2 SLOAD DUP2 PUSH1 0xFF MUL NOT AND SWAP1 DUP4 PUSH1 0x1 DUP2 GT ISZERO PUSH2 0x121F JUMPI PUSH2 0x121E PUSH2 0x24B2 JUMP JUMPDEST JUMPDEST MUL OR SWAP1 SSTORE POP DUP2 DUP2 PUSH1 0x9 ADD PUSH1 0x15 PUSH2 0x100 EXP DUP2 SLOAD DUP2 PUSH1 0xFF MUL NOT AND SWAP1 DUP4 ISZERO ISZERO MUL OR SWAP1 SSTORE POP DUP1 PUSH1 0x8 ADD PUSH1 0x0 PUSH2 0x1250 SWAP2 SWAP1 PUSH2 0x1DC0 JUMP JUMPDEST PUSH1 0x0 JUMPDEST DUP7 DUP7 SWAP1 POP DUP2 LT ISZERO PUSH2 0x12AD JUMPI DUP2 PUSH1 0x8 ADD DUP8 DUP8 DUP4 DUP2 DUP2 LT PUSH2 0x1275 JUMPI PUSH2 0x1274 PUSH2 0x49C6 JUMP JUMPDEST JUMPDEST SWAP1 POP PUSH1 0x20 MUL ADD CALLDATALOAD SWAP1 DUP1 PUSH1 0x1 DUP2 SLOAD ADD DUP1 DUP3 SSTORE DUP1 SWAP2 POP POP PUSH1 0x1 SWAP1 SUB SWAP1 PUSH1 0x0 MSTORE PUSH1 0x20 PUSH1 0x0 KECCAK256 ADD PUSH1 0x0 SWAP1 SWAP2 SWAP1 SWAP2 SWAP1 SWAP2 POP SSTORE DUP1 PUSH1 0x1 ADD SWAP1 POP PUSH2 0x1253 JUMP JUMPDEST POP PUSH32 0x887CC86755221DB77FB9A404D4834A6CA76A28DF7C71C7650318819AD0F46A3C DUP10 PUSH1 0x40 MLOAD PUSH2 0x12DD SWAP2 SWAP1 PUSH2 0x309E JUMP JUMPDEST PUSH1 0x40 MLOAD DUP1 SWAP2 SUB SWAP1 LOG1 POP POP POP POP POP POP POP POP POP JUMP JUMPDEST PUSH2 0x12F8 PUSH2 0x1BAB JUMP JUMPDEST PUSH2 0x1302 PUSH1 0x0 PUSH2 0x1C32 JUMP JUMPDEST JUMP JUMPDEST PUSH2 0x130C PUSH2 0x1BAB JUMP JUMPDEST DUP1 PUSH1 0x1 PUSH1 0x0 DUP5 DUP2 MSTORE PUSH1 0x20 ADD SWAP1 DUP2 MSTORE PUSH1 0x20 ADD PUSH1 0x0 KECCAK256 PUSH1 0x9 ADD PUSH1 0x14 PUSH2 0x100 EXP DUP2 SLOAD DUP2 PUSH1 0xFF MUL NOT AND SWAP1 DUP4 PUSH1 0x1 DUP2 GT ISZERO PUSH2 0x1345 JUMPI PUSH2 0x1344 PUSH2 0x24B2 JUMP JUMPDEST JUMPDEST MUL OR SWAP1 SSTORE POP PUSH32 0xEAEEE81CA4B132C1F2699CF2E7F71C26ADB6FFE780097AC7D6E9DDF978398B62 DUP3 DUP3 PUSH1 0x40 MLOAD PUSH2 0x137B SWAP3 SWAP2 SWAP1 PUSH2 0x4A04 JUMP JUMPDEST PUSH1 0x40 MLOAD DUP1 SWAP2 SUB SWAP1 LOG1 POP POP JUMP JUMPDEST PUSH2 0x138F PUSH2 0x1BAB JUMP JUMPDEST DUP1 PUSH1 0x1 PUSH1 0x0 DUP5 DUP2 MSTORE PUSH1 0x20 ADD SWAP1 DUP2 MSTORE PUSH1 0x20 ADD PUSH1 0x0 KECCAK256 PUSH1 0x0 ADD DUP2 DUP2 PUSH2 0x13B2 SWAP2 SWAP1 PUSH2 0x49B8 JUMP JUMPDEST SWAP1 POP POP PUSH32 0x440C55E385A61CD472C0CD76EE015CAB9BD0760AEF9634633E6597FDEA583FD5 DUP3 DUP3 PUSH1 0x40 MLOAD PUSH2 0x13E6 SWAP3 SWAP2 SWAP1 PUSH2 0x4BFB JUMP JUMPDEST PUSH1 0x40 MLOAD DUP1 SWAP2 SUB SWAP1 LOG1 POP POP JUMP JUMPDEST PUSH2 0x13FA PUSH2 0x1BAB JUMP JUMPDEST DUP1 PUSH1 0x2 DUP2 SWAP1 SSTORE POP PUSH32 0xAC9C054628BA106D4664C2C08386354E161EAB546A0A47FAF040BFC1062845E7 DUP2 PUSH1 0x40 MLOAD PUSH2 0x1430 SWAP2 SWAP1 PUSH2 0x309E JUMP JUMPDEST PUSH1 0x40 MLOAD DUP1 SWAP2 SUB SWAP1 LOG1 POP JUMP JUMPDEST PUSH1 0x0 DUP1 PUSH1 0x0 SWAP1 SLOAD SWAP1 PUSH2 0x100 EXP SWAP1 DIV PUSH20 0xFFFFFFFFFFFFFFFFFFFFFFFFFFFFFFFFFFFFFFFF AND SWAP1 POP SWAP1 JUMP JUMPDEST PUSH1 0x0 PUSH1 0x4 SLOAD SWAP1 POP SWAP1 JUMP JUMPDEST PUSH1 0x0 PUSH1 0x5 PUSH1 0x0 SWAP1 SLOAD SWAP1 PUSH2 0x100 EXP SWAP1 DIV PUSH20 0xFFFFFFFFFFFFFFFFFFFFFFFFFFFFFFFFFFFFFFFF AND SWAP1 POP SWAP1 JUMP JUMPDEST PUSH2 0x14A0 PUSH2 0x1BAB JUMP JUMPDEST PUSH1 0x0 PUSH1 0x1 PUSH1 0x0 DUP5 DUP2 MSTORE PUSH1 0x20 ADD SWAP1 DUP2 MSTORE PUSH1 0x20 ADD PUSH1 0x0 KECCAK256 PUSH1 0x8 ADD SWAP1 POP PUSH1 0x0 JUMPDEST DUP2 DUP1 SLOAD SWAP1 POP DUP2 LT ISZERO PUSH2 0x15B0 JUMPI DUP3 DUP3 DUP3 DUP2 SLOAD DUP2 LT PUSH2 0x14DD JUMPI PUSH2 0x14DC PUSH2 0x49C6 JUMP JUMPDEST JUMPDEST SWAP1 PUSH1 0x0 MSTORE PUSH1 0x20 PUSH1 0x0 KECCAK256 ADD SLOAD SUB PUSH2 0x15A3 JUMPI DUP2 PUSH1 0x1 DUP4 DUP1 SLOAD SWAP1 POP PUSH2 0x14FF SWAP2 SWAP1 PUSH2 0x384D JUMP JUMPDEST DUP2 SLOAD DUP2 LT PUSH2 0x1510 JUMPI PUSH2 0x150F PUSH2 0x49C6 JUMP JUMPDEST JUMPDEST SWAP1 PUSH1 0x0 MSTORE PUSH1 0x20 PUSH1 0x0 KECCAK256 ADD SLOAD DUP3 DUP3 DUP2 SLOAD DUP2 LT PUSH2 0x152E JUMPI PUSH2 0x152D PUSH2 0x49C6 JUMP JUMPDEST JUMPDEST SWAP1 PUSH1 0x0 MSTORE PUSH1 0x20 PUSH1 0x0 KECCAK256 ADD DUP2 SWAP1 SSTORE POP DUP2 DUP1 SLOAD DUP1 PUSH2 0x154D JUMPI PUSH2 0x154C PUSH2 0x4C2B JUMP JUMPDEST JUMPDEST PUSH1 0x1 SWAP1 SUB DUP2 DUP2 SWAP1 PUSH1 0x0 MSTORE PUSH1 0x20 PUSH1 0x0 KECCAK256 ADD PUSH1 0x0 SWAP1 SSTORE SWAP1 SSTORE PUSH32 0x2264FA092E5819982F4EDCA5B7E9C6318A16DC3E03673510429C078656DEA45C DUP5 DUP5 PUSH1 0x40 MLOAD PUSH2 0x1594 SWAP3 SWAP2 SWAP1 PUSH2 0x4C5A JUMP JUMPDEST PUSH1 0x40 MLOAD DUP1 SWAP2 SUB SWAP1 LOG1 POP POP PUSH2 0x15EE JUMP JUMPDEST DUP1 DUP1 PUSH1 0x1 ADD SWAP2 POP POP PUSH2 0x14BD JUMP JUMPDEST POP DUP2 PUSH1 0x40 MLOAD PUSH32 0x84CE930A00000000000000000000000000000000000000000000000000000000 DUP2 MSTORE PUSH1 0x4 ADD PUSH2 0x15E5 SWAP2 SWAP1 PUSH2 0x309E JUMP JUMPDEST PUSH1 0x40 MLOAD DUP1 SWAP2 SUB SWAP1 REVERT JUMPDEST POP POP JUMP JUMPDEST PUSH1 0x0 CALLVALUE SUB PUSH2 0x162C JUMPI PUSH1 0x40 MLOAD PUSH32 0x1F2A200500000000000000000000000000000000000000000000000000000000 DUP2 MSTORE PUSH1 0x4 ADD PUSH1 0x40 MLOAD DUP1 SWAP2 SUB SWAP1 REVERT JUMPDEST CALLVALUE PUSH1 0x1 PUSH1 0x0 DUP4 DUP2 MSTORE PUSH1 0x20 ADD SWAP1 DUP2 MSTORE PUSH1 0x20 ADD PUSH1 0x0 KECCAK256 PUSH1 0xA ADD PUSH1 0x0 DUP3 DUP3 SLOAD PUSH2 0x1652 SWAP2 SWAP1 PUSH2 0x4C83 JUMP JUMPDEST SWAP3 POP POP DUP2 SWAP1 SSTORE POP PUSH1 0x1 PUSH1 0x0 DUP3 DUP2 MSTORE PUSH1 0x20 ADD SWAP1 DUP2 MSTORE PUSH1 0x20 ADD PUSH1 0x0 KECCAK256 PUSH1 0x9 ADD PUSH1 0x15 SWAP1 SLOAD SWAP1 PUSH2 0x100 EXP SWAP1 DIV PUSH1 0xFF AND ISZERO PUSH2 0x16D2 JUMPI PUSH1 0x3 SLOAD PUSH1 0x1 PUSH1 0x0 DUP4 DUP2 MSTORE PUSH1 0x20 ADD SWAP1 DUP2 MSTORE PUSH1 0x20 ADD PUSH1 0x0 KECCAK256 PUSH1 0xA ADD SLOAD LT PUSH2 0x16D1 JUMPI PUSH1 0x0 PUSH1 0x1 PUSH1 0x0 DUP4 DUP2 MSTORE PUSH1 0x20 ADD SWAP1 DUP2 MSTORE PUSH1 0x20 ADD PUSH1 0x0 KECCAK256 PUSH1 0x9 ADD PUSH1 0x15 PUSH2 0x100 EXP DUP2 SLOAD DUP2 PUSH1 0xFF MUL NOT AND SWAP1 DUP4 ISZERO ISZERO MUL OR SWAP1 SSTORE POP JUMPDEST JUMPDEST PUSH32 0xD6E9BD49F32CE5202A849C6AB581631B3E952257363B06975F32872E9E1656C9 CALLER CALLVALUE DUP4 PUSH1 0x40 MLOAD PUSH2 0x1705 SWAP4 SWAP3 SWAP2 SWAP1 PUSH2 0x4CB7 JUMP JUMPDEST PUSH1 0x40 MLOAD DUP1 SWAP2 SUB SWAP1 LOG1 POP JUMP JUMPDEST PUSH1 0x0 PUSH1 0x2 SLOAD SWAP1 POP SWAP1 JUMP JUMPDEST PUSH2 0x1722 PUSH2 0x1BAB JUMP JUMPDEST PUSH1 0x1 PUSH1 0x0 DUP4 DUP2 MSTORE PUSH1 0x20 ADD SWAP1 DUP2 MSTORE PUSH1 0x20 ADD PUSH1 0x0 KECCAK256 PUSH1 0x8 ADD DUP2 SWAP1 DUP1 PUSH1 0x1 DUP2 SLOAD ADD DUP1 DUP3 SSTORE DUP1 SWAP2 POP POP PUSH1 0x1 SWAP1 SUB SWAP1 PUSH1 0x0 MSTORE PUSH1 0x20 PUSH1 0x0 KECCAK256 ADD PUSH1 0x0 SWAP1 SWAP2 SWAP1 SWAP2 SWAP1 SWAP2 POP SSTORE PUSH32 0xFCDFD5AEB97F499CA134ED43F010F2A4F5B0AB73D317AC27246A066A050A73AF DUP3 DUP3 PUSH1 0x40 MLOAD PUSH2 0x1790 SWAP3 SWAP2 SWAP1 PUSH2 0x4C5A JUMP JUMPDEST PUSH1 0x40 MLOAD DUP1 SWAP2 SUB SWAP1 LOG1 POP POP JUMP JUMPDEST PUSH1 0x0 PUSH1 0x3 SLOAD SWAP1 POP SWAP1 JUMP JUMPDEST PUSH2 0x17AE PUSH2 0x1BAB JUMP JUMPDEST DUP1 PUSH1 0x1 PUSH1 0x0 DUP5 DUP2 MSTORE PUSH1 0x20 ADD SWAP1 DUP2 MSTORE PUSH1 0x20 ADD PUSH1 0x0 KECCAK256 PUSH1 0x0 ADD PUSH1 0x4 ADD PUSH1 0x0 PUSH2 0x100 EXP DUP2 SLOAD DUP2 PUSH1 0xFF MUL NOT AND SWAP1 DUP4 ISZERO ISZERO MUL OR SWAP1 SSTORE POP PUSH32 0xED2F2C7A2316DDC2F46A4581250611F807810052BB38BEF2FBD1A81D087E064B DUP3 DUP3 PUSH1 0x40 MLOAD PUSH2 0x1810 SWAP3 SWAP2 SWAP1 PUSH2 0x4CFD JUMP JUMPDEST PUSH1 0x40 MLOAD DUP1 SWAP2 SUB SWAP1 LOG1 POP POP JUMP JUMPDEST PUSH2 0x1824 PUSH2 0x1BAB JUMP JUMPDEST PUSH1 0x0 PUSH20 0xFFFFFFFFFFFFFFFFFFFFFFFFFFFFFFFFFFFFFFFF AND DUP2 PUSH20 0xFFFFFFFFFFFFFFFFFFFFFFFFFFFFFFFFFFFFFFFF AND SUB PUSH2 0x1896 JUMPI PUSH1 0x0 PUSH1 0x40 MLOAD PUSH32 0x1E4FBDF700000000000000000000000000000000000000000000000000000000 DUP2 MSTORE PUSH1 0x4 ADD PUSH2 0x188D SWAP2 SWAP1 PUSH2 0x3083 JUMP JUMPDEST PUSH1 0x40 MLOAD DUP1 SWAP2 SUB SWAP1 REVERT JUMPDEST PUSH2 0x189F DUP2 PUSH2 0x1C32 JUMP JUMPDEST POP JUMP JUMPDEST PUSH1 0x0 DUP1 PUSH20 0xFFFFFFFFFFFFFFFFFFFFFFFFFFFFFFFFFFFFFFFF AND DUP4 PUSH20 0xFFFFFFFFFFFFFFFFFFFFFFFFFFFFFFFFFFFFFFFF AND SUB PUSH2 0x18FD JUMPI PUSH1 0x5 PUSH1 0x0 SWAP1 SLOAD SWAP1 PUSH2 0x100 EXP SWAP1 DIV PUSH20 0xFFFFFFFFFFFFFFFFFFFFFFFFFFFFFFFFFFFFFFFF AND SWAP3 POP JUMPDEST PUSH1 0x1 DUP1 DUP2 GT ISZERO PUSH2 0x1910 JUMPI PUSH2 0x190F PUSH2 0x24B2 JUMP JUMPDEST JUMPDEST DUP3 PUSH1 0x1 DUP2 GT ISZERO PUSH2 0x1923 JUMPI PUSH2 0x1922 PUSH2 0x24B2 JUMP JUMPDEST JUMPDEST EQ ISZERO DUP1 ISZERO PUSH2 0x1956 JUMPI POP PUSH1 0x0 PUSH1 0x1 DUP2 GT ISZERO PUSH2 0x1940 JUMPI PUSH2 0x193F PUSH2 0x24B2 JUMP JUMPDEST JUMPDEST DUP3 PUSH1 0x1 DUP2 GT ISZERO PUSH2 0x1953 JUMPI PUSH2 0x1952 PUSH2 0x24B2 JUMP JUMPDEST JUMPDEST EQ ISZERO JUMPDEST ISZERO PUSH2 0x198D JUMPI PUSH1 0x40 MLOAD PUSH32 0xEC4D40F400000000000000000000000000000000000000000000000000000000 DUP2 MSTORE PUSH1 0x4 ADD PUSH1 0x40 MLOAD DUP1 SWAP2 SUB SWAP1 REVERT JUMPDEST PUSH1 0x0 PUSH1 0x4 SLOAD SWAP1 POP PUSH1 0x2 SLOAD CALLVALUE EQ PUSH2 0x19DE JUMPI PUSH1 0x2 SLOAD CALLVALUE PUSH1 0x40 MLOAD PUSH32 0xCE6B173B00000000000000000000000000000000000000000000000000000000 DUP2 MSTORE PUSH1 0x4 ADD PUSH2 0x19D5 SWAP3 SWAP2 SWAP1 PUSH2 0x4C5A JUMP JUMPDEST PUSH1 0x40 MLOAD DUP1 SWAP2 SUB SWAP1 REVERT JUMPDEST PUSH32 0xD6E9BD49F32CE5202A849C6AB581631B3E952257363B06975F32872E9E1656C9 CALLER CALLVALUE DUP4 PUSH1 0x40 MLOAD PUSH2 0x1A11 SWAP4 SWAP3 SWAP2 SWAP1 PUSH2 0x4CB7 JUMP JUMPDEST PUSH1 0x40 MLOAD DUP1 SWAP2 SUB SWAP1 LOG1 PUSH1 0x0 PUSH1 0x1 PUSH1 0x0 DUP4 DUP2 MSTORE PUSH1 0x20 ADD SWAP1 DUP2 MSTORE PUSH1 0x20 ADD PUSH1 0x0 KECCAK256 SWAP1 POP DUP9 DUP2 PUSH1 0x0 ADD DUP2 DUP2 PUSH2 0x1A41 SWAP2 SWAP1 PUSH2 0x49B8 JUMP JUMPDEST SWAP1 POP POP DUP8 DUP2 PUSH1 0x5 ADD DUP2 DUP2 PUSH2 0x1A55 SWAP2 SWAP1 PUSH2 0x43D3 JUMP JUMPDEST SWAP1 POP POP DUP5 DUP2 PUSH1 0x9 ADD PUSH1 0x0 PUSH2 0x100 EXP DUP2 SLOAD DUP2 PUSH20 0xFFFFFFFFFFFFFFFFFFFFFFFFFFFFFFFFFFFFFFFF MUL NOT AND SWAP1 DUP4 PUSH20 0xFFFFFFFFFFFFFFFFFFFFFFFFFFFFFFFFFFFFFFFF AND MUL OR SWAP1 SSTORE POP DUP4 DUP2 PUSH1 0x9 ADD PUSH1 0x14 PUSH2 0x100 EXP DUP2 SLOAD DUP2 PUSH1 0xFF MUL NOT AND SWAP1 DUP4 PUSH1 0x1 DUP2 GT ISZERO PUSH2 0x1AC2 JUMPI PUSH2 0x1AC1 PUSH2 0x24B2 JUMP JUMPDEST JUMPDEST MUL OR SWAP1 SSTORE POP PUSH1 0x0 DUP2 PUSH1 0x9 ADD PUSH1 0x15 PUSH2 0x100 EXP DUP2 SLOAD DUP2 PUSH1 0xFF MUL NOT AND SWAP1 DUP4 ISZERO ISZERO MUL OR SWAP1 SSTORE POP CALLVALUE DUP2 PUSH1 0xA ADD DUP2 SWAP1 SSTORE POP PUSH1 0x0 JUMPDEST DUP8 DUP8 SWAP1 POP DUP2 LT ISZERO PUSH2 0x1B4A JUMPI DUP2 PUSH1 0x8 ADD DUP9 DUP9 DUP4 DUP2 DUP2 LT PUSH2 0x1B12 JUMPI PUSH2 0x1B11 PUSH2 0x49C6 JUMP JUMPDEST JUMPDEST SWAP1 POP PUSH1 0x20 MUL ADD CALLDATALOAD SWAP1 DUP1 PUSH1 0x1 DUP2 SLOAD ADD DUP1 DUP3 SSTORE DUP1 SWAP2 POP POP PUSH1 0x1 SWAP1 SUB SWAP1 PUSH1 0x0 MSTORE PUSH1 0x20 PUSH1 0x0 KECCAK256 ADD PUSH1 0x0 SWAP1 SWAP2 SWAP1 SWAP2 SWAP1 SWAP2 POP SSTORE DUP1 PUSH1 0x1 ADD SWAP1 POP PUSH2 0x1AF0 JUMP JUMPDEST POP PUSH1 0x4 PUSH1 0x0 DUP2 SLOAD DUP1 SWAP3 SWAP2 SWAP1 PUSH2 0x1B5E SWAP1 PUSH2 0x4D26 JUMP JUMPDEST SWAP2 SWAP1 POP SSTORE POP PUSH32 0x42C24A3323433819443A75D0E2651A9C84F696FBA638D730042960045EF27241 DUP3 CALLER PUSH1 0x40 MLOAD PUSH2 0x1B94 SWAP3 SWAP2 SWAP1 PUSH2 0x46D5 JUMP JUMPDEST PUSH1 0x40 MLOAD DUP1 SWAP2 SUB SWAP1 LOG1 DUP2 SWAP3 POP POP POP SWAP7 SWAP6 POP POP POP POP POP POP JUMP JUMPDEST PUSH2 0x1BB3 PUSH2 0x1CF6 JUMP JUMPDEST PUSH20 0xFFFFFFFFFFFFFFFFFFFFFFFFFFFFFFFFFFFFFFFF AND PUSH2 0x1BD1 PUSH2 0x143B JUMP JUMPDEST PUSH20 0xFFFFFFFFFFFFFFFFFFFFFFFFFFFFFFFFFFFFFFFF AND EQ PUSH2 0x1C30 JUMPI PUSH2 0x1BF4 PUSH2 0x1CF6 JUMP JUMPDEST PUSH1 0x40 MLOAD PUSH32 0x118CDAA700000000000000000000000000000000000000000000000000000000 DUP2 MSTORE PUSH1 0x4 ADD PUSH2 0x1C27 SWAP2 SWAP1 PUSH2 0x3083 JUMP JUMPDEST PUSH1 0x40 MLOAD DUP1 SWAP2 SUB SWAP1 REVERT JUMPDEST JUMP JUMPDEST PUSH1 0x0 DUP1 PUSH1 0x0 SWAP1 SLOAD SWAP1 PUSH2 0x100 EXP SWAP1 DIV PUSH20 0xFFFFFFFFFFFFFFFFFFFFFFFFFFFFFFFFFFFFFFFF AND SWAP1 POP DUP2 PUSH1 0x0 DUP1 PUSH2 0x100 EXP DUP2 SLOAD DUP2 PUSH20 0xFFFFFFFFFFFFFFFFFFFFFFFFFFFFFFFFFFFFFFFF MUL NOT AND SWAP1 DUP4 PUSH20 0xFFFFFFFFFFFFFFFFFFFFFFFFFFFFFFFFFFFFFFFF AND MUL OR SWAP1 SSTORE POP DUP2 PUSH20 0xFFFFFFFFFFFFFFFFFFFFFFFFFFFFFFFFFFFFFFFF AND DUP2 PUSH20 0xFFFFFFFFFFFFFFFFFFFFFFFFFFFFFFFFFFFFFFFF AND PUSH32 0x8BE0079C531659141344CD1FD0A4F28419497F9722A3DAAFE3B4186F6B6457E0 PUSH1 0x40 MLOAD PUSH1 0x40 MLOAD DUP1 SWAP2 SUB SWAP1 LOG3 POP POP JUMP JUMPDEST PUSH1 0x0 CALLER SWAP1 POP SWAP1 JUMP JUMPDEST PUSH1 0x40 MLOAD DUP1 PUSH2 0x120 ADD PUSH1 0x40 MSTORE DUP1 PUSH1 0x60 DUP2 MSTORE PUSH1 0x20 ADD PUSH1 0x60 DUP2 MSTORE PUSH1 0x20 ADD PUSH1 0x60 DUP2 MSTORE PUSH1 0x20 ADD PUSH1 0x60 DUP2 MSTORE PUSH1 0x20 ADD PUSH1 0x0 DUP2 MSTORE PUSH1 0x20 ADD PUSH1 0x0 DUP2 MSTORE PUSH1 0x20 ADD PUSH1 0x60 DUP2 MSTORE PUSH1 0x20 ADD PUSH1 0x0 DUP1 NOT AND DUP2 MSTORE PUSH1 0x20 ADD PUSH1 0x60 DUP2 MSTORE POP SWAP1 JUMP JUMPDEST PUSH1 0x40 MLOAD DUP1 PUSH1 0xE0 ADD PUSH1 0x40 MSTORE DUP1 PUSH2 0x1D60 PUSH2 0x1DE1 JUMP JUMPDEST DUP2 MSTORE PUSH1 0x20 ADD PUSH2 0x1D6D PUSH2 0x1E12 JUMP JUMPDEST DUP2 MSTORE PUSH1 0x20 ADD PUSH1 0x60 DUP2 MSTORE PUSH1 0x20 ADD PUSH1 0x0 PUSH20 0xFFFFFFFFFFFFFFFFFFFFFFFFFFFFFFFFFFFFFFFF AND DUP2 MSTORE PUSH1 0x20 ADD PUSH1 0x0 PUSH1 0x1 DUP2 GT ISZERO PUSH2 0x1DAA JUMPI PUSH2 0x1DA9 PUSH2 0x24B2 JUMP JUMPDEST JUMPDEST DUP2 MSTORE PUSH1 0x20 ADD PUSH1 0x0 ISZERO ISZERO DUP2 MSTORE PUSH1 0x20 ADD PUSH1 0x0 DUP2 MSTORE POP SWAP1 JUMP JUMPDEST POP DUP1 SLOAD PUSH1 0x0 DUP3 SSTORE SWAP1 PUSH1 0x0 MSTORE PUSH1 0x20 PUSH1 0x0 KECCAK256 SWAP1 DUP2 ADD SWAP1 PUSH2 0x1DDE SWAP2 SWAP1 PUSH2 0x1E45 JUMP JUMPDEST POP JUMP JUMPDEST PUSH1 0x40 MLOAD DUP1 PUSH1 0xA0 ADD PUSH1 0x40 MSTORE DUP1 PUSH1 0x60 DUP2 MSTORE PUSH1 0x20 ADD PUSH1 0x60 DUP2 MSTORE PUSH1 0x20 ADD PUSH1 0x60 DUP2 MSTORE PUSH1 0x20 ADD PUSH1 0x60 DUP2 MSTORE PUSH1 0x20 ADD PUSH1 0x0 ISZERO ISZERO DUP2 MSTORE POP SWAP1 JUMP JUMPDEST PUSH1 0x40 MLOAD DUP1 PUSH1 0x60 ADD PUSH1 0x40 MSTORE DUP1 PUSH1 0x0 PUSH1 0x5 DUP2 GT ISZERO PUSH2 0x1E31 JUMPI PUSH2 0x1E30 PUSH2 0x24B2 JUMP JUMPDEST JUMPDEST DUP2 MSTORE PUSH1 0x20 ADD PUSH1 0x60 DUP2 MSTORE PUSH1 0x20 ADD PUSH1 0x60 DUP2 MSTORE POP SWAP1 JUMP JUMPDEST JUMPDEST DUP1 DUP3 GT ISZERO PUSH2 0x1E5E JUMPI PUSH1 0x0 DUP2 PUSH1 0x0 SWAP1 SSTORE POP PUSH1 0x1 ADD PUSH2 0x1E46 JUMP JUMPDEST POP SWAP1 JUMP JUMPDEST PUSH1 0x0 PUSH20 0xFFFFFFFFFFFFFFFFFFFFFFFFFFFFFFFFFFFFFFFF DUP3 AND SWAP1 POP SWAP2 SWAP1 POP JUMP JUMPDEST PUSH1 0x0 PUSH2 0x1E8D DUP3 PUSH2 0x1E62 JUMP JUMPDEST SWAP1 POP SWAP2 SWAP1 POP JUMP JUMPDEST PUSH2 0x1E9D DUP2 PUSH2 0x1E82 JUMP JUMPDEST DUP3 MSTORE POP POP JUMP JUMPDEST PUSH1 0x0 DUP2 SWAP1 POP SWAP2 SWAP1 POP JUMP JUMPDEST PUSH2 0x1EB6 DUP2 PUSH2 0x1EA3 JUMP JUMPDEST DUP3 MSTORE POP POP JUMP JUMPDEST PUSH1 0x0 PUSH1 0x40 DUP3 ADD SWAP1 POP PUSH2 0x1ED1 PUSH1 0x0 DUP4 ADD DUP6 PUSH2 0x1E94 JUMP JUMPDEST PUSH2 0x1EDE PUSH1 0x20 DUP4 ADD DUP5 PUSH2 0x1EAD JUMP JUMPDEST SWAP4 SWAP3 POP POP POP JUMP JUMPDEST PUSH1 0x0 PUSH1 0x40 MLOAD SWAP1 POP SWAP1 JUMP JUMPDEST PUSH1 0x0 DUP1 REVERT JUMPDEST PUSH1 0x0 DUP1 REVERT JUMPDEST PUSH2 0x1F02 DUP2 PUSH2 0x1EA3 JUMP JUMPDEST DUP2 EQ PUSH2 0x1F0D JUMPI PUSH1 0x0 DUP1 REVERT JUMPDEST POP JUMP JUMPDEST PUSH1 0x0 DUP2 CALLDATALOAD SWAP1 POP PUSH2 0x1F1F DUP2 PUSH2 0x1EF9 JUMP JUMPDEST SWAP3 SWAP2 POP POP JUMP JUMPDEST PUSH1 0x0 DUP2 SWAP1 POP SWAP2 SWAP1 POP JUMP JUMPDEST PUSH2 0x1F38 DUP2 PUSH2 0x1F25 JUMP JUMPDEST DUP2 EQ PUSH2 0x1F43 JUMPI PUSH1 0x0 DUP1 REVERT JUMPDEST POP JUMP JUMPDEST PUSH1 0x0 DUP2 CALLDATALOAD SWAP1 POP PUSH2 0x1F55 DUP2 PUSH2 0x1F2F JUMP JUMPDEST SWAP3 SWAP2 POP POP JUMP JUMPDEST PUSH1 0x0 DUP1 PUSH1 0x40 DUP4 DUP6 SUB SLT ISZERO PUSH2 0x1F72 JUMPI PUSH2 0x1F71 PUSH2 0x1EEF JUMP JUMPDEST JUMPDEST PUSH1 0x0 PUSH2 0x1F80 DUP6 DUP3 DUP7 ADD PUSH2 0x1F10 JUMP JUMPDEST SWAP3 POP POP PUSH1 0x20 PUSH2 0x1F91 DUP6 DUP3 DUP7 ADD PUSH2 0x1F46 JUMP JUMPDEST SWAP2 POP POP SWAP3 POP SWAP3 SWAP1 POP JUMP JUMPDEST PUSH1 0x0 DUP2 MLOAD SWAP1 POP SWAP2 SWAP1 POP JUMP JUMPDEST PUSH1 0x0 DUP3 DUP3 MSTORE PUSH1 0x20 DUP3 ADD SWAP1 POP SWAP3 SWAP2 POP POP JUMP JUMPDEST PUSH1 0x0 JUMPDEST DUP4 DUP2 LT ISZERO PUSH2 0x1FD5 JUMPI DUP1 DUP3 ADD MLOAD DUP2 DUP5 ADD MSTORE PUSH1 0x20 DUP2 ADD SWAP1 POP PUSH2 0x1FBA JUMP JUMPDEST PUSH1 0x0 DUP5 DUP5 ADD MSTORE POP POP POP POP JUMP JUMPDEST PUSH1 0x0 PUSH1 0x1F NOT PUSH1 0x1F DUP4 ADD AND SWAP1 POP SWAP2 SWAP1 POP JUMP JUMPDEST PUSH1 0x0 PUSH2 0x1FFD DUP3 PUSH2 0x1F9B JUMP JUMPDEST PUSH2 0x2007 DUP2 DUP6 PUSH2 0x1FA6 JUMP JUMPDEST SWAP4 POP PUSH2 0x2017 DUP2 DUP6 PUSH1 0x20 DUP7 ADD PUSH2 0x1FB7 JUMP JUMPDEST PUSH2 0x2020 DUP2 PUSH2 0x1FE1 JUMP JUMPDEST DUP5 ADD SWAP2 POP POP SWAP3 SWAP2 POP POP JUMP JUMPDEST PUSH1 0x0 DUP2 MLOAD SWAP1 POP SWAP2 SWAP1 POP JUMP JUMPDEST PUSH1 0x0 DUP3 DUP3 MSTORE PUSH1 0x20 DUP3 ADD SWAP1 POP SWAP3 SWAP2 POP POP JUMP JUMPDEST PUSH1 0x0 DUP2 SWAP1 POP PUSH1 0x20 DUP3 ADD SWAP1 POP SWAP2 SWAP1 POP JUMP JUMPDEST PUSH1 0x0 PUSH2 0x2063 DUP4 DUP4 PUSH2 0x1FF2 JUMP JUMPDEST SWAP1 POP SWAP3 SWAP2 POP POP JUMP JUMPDEST PUSH1 0x0 PUSH1 0x20 DUP3 ADD SWAP1 POP SWAP2 SWAP1 POP JUMP JUMPDEST PUSH1 0x0 PUSH2 0x2083 DUP3 PUSH2 0x202B JUMP JUMPDEST PUSH2 0x208D DUP2 DUP6 PUSH2 0x2036 JUMP JUMPDEST SWAP4 POP DUP4 PUSH1 0x20 DUP3 MUL DUP6 ADD PUSH2 0x209F DUP6 PUSH2 0x2047 JUMP JUMPDEST DUP1 PUSH1 0x0 JUMPDEST DUP6 DUP2 LT ISZERO PUSH2 0x20DB JUMPI DUP5 DUP5 SUB DUP10 MSTORE DUP2 MLOAD PUSH2 0x20BC DUP6 DUP3 PUSH2 0x2057 JUMP JUMPDEST SWAP5 POP PUSH2 0x20C7 DUP4 PUSH2 0x206B JUMP JUMPDEST SWAP3 POP PUSH1 0x20 DUP11 ADD SWAP10 POP POP PUSH1 0x1 DUP2 ADD SWAP1 POP PUSH2 0x20A3 JUMP JUMPDEST POP DUP3 SWAP8 POP DUP8 SWAP6 POP POP POP POP POP POP SWAP3 SWAP2 POP POP JUMP JUMPDEST PUSH1 0x0 DUP2 MLOAD SWAP1 POP SWAP2 SWAP1 POP JUMP JUMPDEST PUSH1 0x0 DUP3 DUP3 MSTORE PUSH1 0x20 DUP3 ADD SWAP1 POP SWAP3 SWAP2 POP POP JUMP JUMPDEST PUSH1 0x0 DUP2 SWAP1 POP PUSH1 0x20 DUP3 ADD SWAP1 POP SWAP2 SWAP1 POP JUMP JUMPDEST PUSH1 0x0 DUP2 MLOAD SWAP1 POP SWAP2 SWAP1 POP JUMP JUMPDEST PUSH1 0x0 DUP3 DUP3 MSTORE PUSH1 0x20 DUP3 ADD SWAP1 POP SWAP3 SWAP2 POP POP JUMP JUMPDEST PUSH1 0x0 DUP2 SWAP1 POP PUSH1 0x20 DUP3 ADD SWAP1 POP SWAP2 SWAP1 POP JUMP JUMPDEST PUSH2 0x214E DUP2 PUSH2 0x1EA3 JUMP JUMPDEST DUP3 MSTORE POP POP JUMP JUMPDEST PUSH1 0x0 PUSH2 0x2160 DUP4 DUP4 PUSH2 0x2145 JUMP JUMPDEST PUSH1 0x20 DUP4 ADD SWAP1 POP SWAP3 SWAP2 POP POP JUMP JUMPDEST PUSH1 0x0 PUSH1 0x20 DUP3 ADD SWAP1 POP SWAP2 SWAP1 POP JUMP JUMPDEST PUSH1 0x0 PUSH2 0x2184 DUP3 PUSH2 0x2119 JUMP JUMPDEST PUSH2 0x218E DUP2 DUP6 PUSH2 0x2124 JUMP JUMPDEST SWAP4 POP PUSH2 0x2199 DUP4 PUSH2 0x2135 JUMP JUMPDEST DUP1 PUSH1 0x0 JUMPDEST DUP4 DUP2 LT ISZERO PUSH2 0x21CA JUMPI DUP2 MLOAD PUSH2 0x21B1 DUP9 DUP3 PUSH2 0x2154 JUMP JUMPDEST SWAP8 POP PUSH2 0x21BC DUP4 PUSH2 0x216C JUMP JUMPDEST SWAP3 POP POP PUSH1 0x1 DUP2 ADD SWAP1 POP PUSH2 0x219D JUMP JUMPDEST POP DUP6 SWAP4 POP POP POP POP SWAP3 SWAP2 POP POP JUMP JUMPDEST PUSH1 0x0 PUSH2 0x21E3 DUP4 DUP4 PUSH2 0x2179 JUMP JUMPDEST SWAP1 POP SWAP3 SWAP2 POP POP JUMP JUMPDEST PUSH1 0x0 PUSH1 0x20 DUP3 ADD SWAP1 POP SWAP2 SWAP1 POP JUMP JUMPDEST PUSH1 0x0 PUSH2 0x2203 DUP3 PUSH2 0x20ED JUMP JUMPDEST PUSH2 0x220D DUP2 DUP6 PUSH2 0x20F8 JUMP JUMPDEST SWAP4 POP DUP4 PUSH1 0x20 DUP3 MUL DUP6 ADD PUSH2 0x221F DUP6 PUSH2 0x2109 JUMP JUMPDEST DUP1 PUSH1 0x0 JUMPDEST DUP6 DUP2 LT ISZERO PUSH2 0x225B JUMPI DUP5 DUP5 SUB DUP10 MSTORE DUP2 MLOAD PUSH2 0x223C DUP6 DUP3 PUSH2 0x21D7 JUMP JUMPDEST SWAP5 POP PUSH2 0x2247 DUP4 PUSH2 0x21EB JUMP JUMPDEST SWAP3 POP PUSH1 0x20 DUP11 ADD SWAP10 POP POP PUSH1 0x1 DUP2 ADD SWAP1 POP PUSH2 0x2223 JUMP JUMPDEST POP DUP3 SWAP8 POP DUP8 SWAP6 POP POP POP POP POP POP SWAP3 SWAP2 POP POP JUMP JUMPDEST PUSH2 0x2276 DUP2 PUSH2 0x1F25 JUMP JUMPDEST DUP3 MSTORE POP POP JUMP JUMPDEST PUSH1 0x0 PUSH2 0x120 DUP4 ADD PUSH1 0x0 DUP4 ADD MLOAD DUP5 DUP3 SUB PUSH1 0x0 DUP7 ADD MSTORE PUSH2 0x229A DUP3 DUP3 PUSH2 0x1FF2 JUMP JUMPDEST SWAP2 POP POP PUSH1 0x20 DUP4 ADD MLOAD DUP5 DUP3 SUB PUSH1 0x20 DUP7 ADD MSTORE PUSH2 0x22B4 DUP3 DUP3 PUSH2 0x2078 JUMP JUMPDEST SWAP2 POP POP PUSH1 0x40 DUP4 ADD MLOAD DUP5 DUP3 SUB PUSH1 0x40 DUP7 ADD MSTORE PUSH2 0x22CE DUP3 DUP3 PUSH2 0x1FF2 JUMP JUMPDEST SWAP2 POP POP PUSH1 0x60 DUP4 ADD MLOAD DUP5 DUP3 SUB PUSH1 0x60 DUP7 ADD MSTORE PUSH2 0x22E8 DUP3 DUP3 PUSH2 0x21F8 JUMP JUMPDEST SWAP2 POP POP PUSH1 0x80 DUP4 ADD MLOAD PUSH2 0x22FD PUSH1 0x80 DUP7 ADD DUP3 PUSH2 0x2145 JUMP JUMPDEST POP PUSH1 0xA0 DUP4 ADD MLOAD PUSH2 0x2310 PUSH1 0xA0 DUP7 ADD DUP3 PUSH2 0x2145 JUMP JUMPDEST POP PUSH1 0xC0 DUP4 ADD MLOAD DUP5 DUP3 SUB PUSH1 0xC0 DUP7 ADD MSTORE PUSH2 0x2328 DUP3 DUP3 PUSH2 0x2179 JUMP JUMPDEST SWAP2 POP POP PUSH1 0xE0 DUP4 ADD MLOAD PUSH2 0x233D PUSH1 0xE0 DUP7 ADD DUP3 PUSH2 0x226D JUMP JUMPDEST POP PUSH2 0x100 DUP4 ADD MLOAD DUP5 DUP3 SUB PUSH2 0x100 DUP7 ADD MSTORE PUSH2 0x2357 DUP3 DUP3 PUSH2 0x1FF2 JUMP JUMPDEST SWAP2 POP POP DUP1 SWAP2 POP POP SWAP3 SWAP2 POP POP JUMP JUMPDEST PUSH1 0x0 PUSH1 0x20 DUP3 ADD SWAP1 POP DUP2 DUP2 SUB PUSH1 0x0 DUP4 ADD MSTORE PUSH2 0x237E DUP2 DUP5 PUSH2 0x227C JUMP JUMPDEST SWAP1 POP SWAP3 SWAP2 POP POP JUMP JUMPDEST PUSH2 0x238F DUP2 PUSH2 0x1E82 JUMP JUMPDEST DUP2 EQ PUSH2 0x239A JUMPI PUSH1 0x0 DUP1 REVERT JUMPDEST POP JUMP JUMPDEST PUSH1 0x0 DUP2 CALLDATALOAD SWAP1 POP PUSH2 0x23AC DUP2 PUSH2 0x2386 JUMP JUMPDEST SWAP3 SWAP2 POP POP JUMP JUMPDEST PUSH1 0x0 PUSH1 0x20 DUP3 DUP5 SUB SLT ISZERO PUSH2 0x23C8 JUMPI PUSH2 0x23C7 PUSH2 0x1EEF JUMP JUMPDEST JUMPDEST PUSH1 0x0 PUSH2 0x23D6 DUP5 DUP3 DUP6 ADD PUSH2 0x239D JUMP JUMPDEST SWAP2 POP POP SWAP3 SWAP2 POP POP JUMP JUMPDEST PUSH1 0x0 PUSH1 0x20 DUP3 DUP5 SUB SLT ISZERO PUSH2 0x23F5 JUMPI PUSH2 0x23F4 PUSH2 0x1EEF JUMP JUMPDEST JUMPDEST PUSH1 0x0 PUSH2 0x2403 DUP5 DUP3 DUP6 ADD PUSH2 0x1F10 JUMP JUMPDEST SWAP2 POP POP SWAP3 SWAP2 POP POP JUMP JUMPDEST PUSH1 0x0 DUP2 ISZERO ISZERO SWAP1 POP SWAP2 SWAP1 POP JUMP JUMPDEST PUSH2 0x2421 DUP2 PUSH2 0x240C JUMP JUMPDEST DUP3 MSTORE POP POP JUMP JUMPDEST PUSH1 0x0 PUSH1 0xA0 DUP4 ADD PUSH1 0x0 DUP4 ADD MLOAD DUP5 DUP3 SUB PUSH1 0x0 DUP7 ADD MSTORE PUSH2 0x2444 DUP3 DUP3 PUSH2 0x1FF2 JUMP JUMPDEST SWAP2 POP POP PUSH1 0x20 DUP4 ADD MLOAD DUP5 DUP3 SUB PUSH1 0x20 DUP7 ADD MSTORE PUSH2 0x245E DUP3 DUP3 PUSH2 0x1FF2 JUMP JUMPDEST SWAP2 POP POP PUSH1 0x40 DUP4 ADD MLOAD DUP5 DUP3 SUB PUSH1 0x40 DUP7 ADD MSTORE PUSH2 0x2478 DUP3 DUP3 PUSH2 0x1FF2 JUMP JUMPDEST SWAP2 POP POP PUSH1 0x60 DUP4 ADD MLOAD DUP5 DUP3 SUB PUSH1 0x60 DUP7 ADD MSTORE PUSH2 0x2492 DUP3 DUP3 PUSH2 0x2078 JUMP JUMPDEST SWAP2 POP POP PUSH1 0x80 DUP4 ADD MLOAD PUSH2 0x24A7 PUSH1 0x80 DUP7 ADD DUP3 PUSH2 0x2418 JUMP JUMPDEST POP DUP1 SWAP2 POP POP SWAP3 SWAP2 POP POP JUMP JUMPDEST PUSH32 0x4E487B7100000000000000000000000000000000000000000000000000000000 PUSH1 0x0 MSTORE PUSH1 0x21 PUSH1 0x4 MSTORE PUSH1 0x24 PUSH1 0x0 REVERT JUMPDEST PUSH1 0x6 DUP2 LT PUSH2 0x24F2 JUMPI PUSH2 0x24F1 PUSH2 0x24B2 JUMP JUMPDEST JUMPDEST POP JUMP JUMPDEST PUSH1 0x0 DUP2 SWAP1 POP PUSH2 0x2503 DUP3 PUSH2 0x24E1 JUMP JUMPDEST SWAP2 SWAP1 POP JUMP JUMPDEST PUSH1 0x0 PUSH2 0x2513 DUP3 PUSH2 0x24F5 JUMP JUMPDEST SWAP1 POP SWAP2 SWAP1 POP JUMP JUMPDEST PUSH2 0x2523 DUP2 PUSH2 0x2508 JUMP JUMPDEST DUP3 MSTORE POP POP JUMP JUMPDEST PUSH1 0x0 DUP2 MLOAD SWAP1 POP SWAP2 SWAP1 POP JUMP JUMPDEST PUSH1 0x0 DUP3 DUP3 MSTORE PUSH1 0x20 DUP3 ADD SWAP1 POP SWAP3 SWAP2 POP POP JUMP JUMPDEST PUSH1 0x0 DUP2 SWAP1 POP PUSH1 0x20 DUP3 ADD SWAP1 POP SWAP2 SWAP1 POP JUMP JUMPDEST PUSH2 0x255E DUP2 PUSH2 0x1E82 JUMP JUMPDEST DUP3 MSTORE POP POP JUMP JUMPDEST PUSH1 0x0 PUSH1 0x40 DUP4 ADD PUSH1 0x0 DUP4 ADD MLOAD DUP5 DUP3 SUB PUSH1 0x0 DUP7 ADD MSTORE PUSH2 0x2581 DUP3 DUP3 PUSH2 0x1FF2 JUMP JUMPDEST SWAP2 POP POP PUSH1 0x20 DUP4 ADD MLOAD PUSH2 0x2596 PUSH1 0x20 DUP7 ADD DUP3 PUSH2 0x2555 JUMP JUMPDEST POP DUP1 SWAP2 POP POP SWAP3 SWAP2 POP POP JUMP JUMPDEST PUSH1 0x0 PUSH2 0x25AD DUP4 DUP4 PUSH2 0x2564 JUMP JUMPDEST SWAP1 POP SWAP3 SWAP2 POP POP JUMP JUMPDEST PUSH1 0x0 PUSH1 0x20 DUP3 ADD SWAP1 POP SWAP2 SWAP1 POP JUMP JUMPDEST PUSH1 0x0 PUSH2 0x25CD DUP3 PUSH2 0x2529 JUMP JUMPDEST PUSH2 0x25D7 DUP2 DUP6 PUSH2 0x2534 JUMP JUMPDEST SWAP4 POP DUP4 PUSH1 0x20 DUP3 MUL DUP6 ADD PUSH2 0x25E9 DUP6 PUSH2 0x2545 JUMP JUMPDEST DUP1 PUSH1 0x0 JUMPDEST DUP6 DUP2 LT ISZERO PUSH2 0x2625 JUMPI DUP5 DUP5 SUB DUP10 MSTORE DUP2 MLOAD PUSH2 0x2606 DUP6 DUP3 PUSH2 0x25A1 JUMP JUMPDEST SWAP5 POP PUSH2 0x2611 DUP4 PUSH2 0x25B5 JUMP JUMPDEST SWAP3 POP PUSH1 0x20 DUP11 ADD SWAP10 POP POP PUSH1 0x1 DUP2 ADD SWAP1 POP PUSH2 0x25ED JUMP JUMPDEST POP DUP3 SWAP8 POP DUP8 SWAP6 POP POP POP POP POP POP SWAP3 SWAP2 POP POP JUMP JUMPDEST PUSH1 0x0 PUSH1 0x60 DUP4 ADD PUSH1 0x0 DUP4 ADD MLOAD PUSH2 0x264F PUSH1 0x0 DUP7 ADD DUP3 PUSH2 0x251A JUMP JUMPDEST POP PUSH1 0x20 DUP4 ADD MLOAD DUP5 DUP3 SUB PUSH1 0x20 DUP7 ADD MSTORE PUSH2 0x2667 DUP3 DUP3 PUSH2 0x25C2 JUMP JUMPDEST SWAP2 POP POP PUSH1 0x40 DUP4 ADD MLOAD DUP5 DUP3 SUB PUSH1 0x40 DUP7 ADD MSTORE PUSH2 0x2681 DUP3 DUP3 PUSH2 0x1FF2 JUMP JUMPDEST SWAP2 POP POP DUP1 SWAP2 POP POP SWAP3 SWAP2 POP POP JUMP JUMPDEST PUSH1 0x2 DUP2 LT PUSH2 0x269F JUMPI PUSH2 0x269E PUSH2 0x24B2 JUMP JUMPDEST JUMPDEST POP JUMP JUMPDEST PUSH1 0x0 DUP2 SWAP1 POP PUSH2 0x26B0 DUP3 PUSH2 0x268E JUMP JUMPDEST SWAP2 SWAP1 POP JUMP JUMPDEST PUSH1 0x0 PUSH2 0x26C0 DUP3 PUSH2 0x26A2 JUMP JUMPDEST SWAP1 POP SWAP2 SWAP1 POP JUMP JUMPDEST PUSH2 0x26D0 DUP2 PUSH2 0x26B5 JUMP JUMPDEST DUP3 MSTORE POP POP JUMP JUMPDEST PUSH1 0x0 PUSH1 0xE0 DUP4 ADD PUSH1 0x0 DUP4 ADD MLOAD DUP5 DUP3 SUB PUSH1 0x0 DUP7 ADD MSTORE PUSH2 0x26F3 DUP3 DUP3 PUSH2 0x2427 JUMP JUMPDEST SWAP2 POP POP PUSH1 0x20 DUP4 ADD MLOAD DUP5 DUP3 SUB PUSH1 0x20 DUP7 ADD MSTORE PUSH2 0x270D DUP3 DUP3 PUSH2 0x2637 JUMP JUMPDEST SWAP2 POP POP PUSH1 0x40 DUP4 ADD MLOAD DUP5 DUP3 SUB PUSH1 0x40 DUP7 ADD MSTORE PUSH2 0x2727 DUP3 DUP3 PUSH2 0x2179 JUMP JUMPDEST SWAP2 POP POP PUSH1 0x60 DUP4 ADD MLOAD PUSH2 0x273C PUSH1 0x60 DUP7 ADD DUP3 PUSH2 0x2555 JUMP JUMPDEST POP PUSH1 0x80 DUP4 ADD MLOAD PUSH2 0x274F PUSH1 0x80 DUP7 ADD DUP3 PUSH2 0x26C7 JUMP JUMPDEST POP PUSH1 0xA0 DUP4 ADD MLOAD PUSH2 0x2762 PUSH1 0xA0 DUP7 ADD DUP3 PUSH2 0x2418 JUMP JUMPDEST POP PUSH1 0xC0 DUP4 ADD MLOAD PUSH2 0x2775 PUSH1 0xC0 DUP7 ADD DUP3 PUSH2 0x2145 JUMP JUMPDEST POP DUP1 SWAP2 POP POP SWAP3 SWAP2 POP POP JUMP JUMPDEST PUSH1 0x0 PUSH1 0x20 DUP3 ADD SWAP1 POP DUP2 DUP2 SUB PUSH1 0x0 DUP4 ADD MSTORE PUSH2 0x279A DUP2 DUP5 PUSH2 0x26D6 JUMP JUMPDEST SWAP1 POP SWAP3 SWAP2 POP POP JUMP JUMPDEST PUSH1 0x0 DUP1 REVERT JUMPDEST PUSH32 0x4E487B7100000000000000000000000000000000000000000000000000000000 PUSH1 0x0 MSTORE PUSH1 0x41 PUSH1 0x4 MSTORE PUSH1 0x24 PUSH1 0x0 REVERT JUMPDEST PUSH2 0x27DF DUP3 PUSH2 0x1FE1 JUMP JUMPDEST DUP2 ADD DUP2 DUP2 LT PUSH8 0xFFFFFFFFFFFFFFFF DUP3 GT OR ISZERO PUSH2 0x27FE JUMPI PUSH2 0x27FD PUSH2 0x27A7 JUMP JUMPDEST JUMPDEST DUP1 PUSH1 0x40 MSTORE POP POP POP JUMP JUMPDEST PUSH1 0x0 PUSH2 0x2811 PUSH2 0x1EE5 JUMP JUMPDEST SWAP1 POP PUSH2 0x281D DUP3 DUP3 PUSH2 0x27D6 JUMP JUMPDEST SWAP2 SWAP1 POP JUMP JUMPDEST PUSH1 0x0 DUP1 REVERT JUMPDEST PUSH1 0x0 DUP1 REVERT JUMPDEST PUSH1 0x0 DUP1 REVERT JUMPDEST PUSH1 0x0 PUSH8 0xFFFFFFFFFFFFFFFF DUP3 GT ISZERO PUSH2 0x284C JUMPI PUSH2 0x284B PUSH2 0x27A7 JUMP JUMPDEST JUMPDEST PUSH2 0x2855 DUP3 PUSH2 0x1FE1 JUMP JUMPDEST SWAP1 POP PUSH1 0x20 DUP2 ADD SWAP1 POP SWAP2 SWAP1 POP JUMP JUMPDEST DUP3 DUP2 DUP4 CALLDATACOPY PUSH1 0x0 DUP4 DUP4 ADD MSTORE POP POP POP JUMP JUMPDEST PUSH1 0x0 PUSH2 0x2884 PUSH2 0x287F DUP5 PUSH2 0x2831 JUMP JUMPDEST PUSH2 0x2807 JUMP JUMPDEST SWAP1 POP DUP3 DUP2 MSTORE PUSH1 0x20 DUP2 ADD DUP5 DUP5 DUP5 ADD GT ISZERO PUSH2 0x28A0 JUMPI PUSH2 0x289F PUSH2 0x282C JUMP JUMPDEST JUMPDEST PUSH2 0x28AB DUP5 DUP3 DUP6 PUSH2 0x2862 JUMP JUMPDEST POP SWAP4 SWAP3 POP POP POP JUMP JUMPDEST PUSH1 0x0 DUP3 PUSH1 0x1F DUP4 ADD SLT PUSH2 0x28C8 JUMPI PUSH2 0x28C7 PUSH2 0x2827 JUMP JUMPDEST JUMPDEST DUP2 CALLDATALOAD PUSH2 0x28D8 DUP5 DUP3 PUSH1 0x20 DUP7 ADD PUSH2 0x2871 JUMP JUMPDEST SWAP2 POP POP SWAP3 SWAP2 POP POP JUMP JUMPDEST PUSH1 0x0 PUSH8 0xFFFFFFFFFFFFFFFF DUP3 GT ISZERO PUSH2 0x28FC JUMPI PUSH2 0x28FB PUSH2 0x27A7 JUMP JUMPDEST JUMPDEST PUSH1 0x20 DUP3 MUL SWAP1 POP PUSH1 0x20 DUP2 ADD SWAP1 POP SWAP2 SWAP1 POP JUMP JUMPDEST PUSH1 0x0 DUP1 REVERT JUMPDEST PUSH1 0x0 PUSH2 0x2925 PUSH2 0x2920 DUP5 PUSH2 0x28E1 JUMP JUMPDEST PUSH2 0x2807 JUMP JUMPDEST SWAP1 POP DUP1 DUP4 DUP3 MSTORE PUSH1 0x20 DUP3 ADD SWAP1 POP PUSH1 0x20 DUP5 MUL DUP4 ADD DUP6 DUP2 GT ISZERO PUSH2 0x2948 JUMPI PUSH2 0x2947 PUSH2 0x290D JUMP JUMPDEST JUMPDEST DUP4 JUMPDEST DUP2 DUP2 LT ISZERO PUSH2 0x298F JUMPI DUP1 CALLDATALOAD PUSH8 0xFFFFFFFFFFFFFFFF DUP2 GT ISZERO PUSH2 0x296D JUMPI PUSH2 0x296C PUSH2 0x2827 JUMP JUMPDEST JUMPDEST DUP1 DUP7 ADD PUSH2 0x297A DUP10 DUP3 PUSH2 0x28B3 JUMP JUMPDEST DUP6 MSTORE PUSH1 0x20 DUP6 ADD SWAP5 POP POP POP PUSH1 0x20 DUP2 ADD SWAP1 POP PUSH2 0x294A JUMP JUMPDEST POP POP POP SWAP4 SWAP3 POP POP POP JUMP JUMPDEST PUSH1 0x0 DUP3 PUSH1 0x1F DUP4 ADD SLT PUSH2 0x29AE JUMPI PUSH2 0x29AD PUSH2 0x2827 JUMP JUMPDEST JUMPDEST DUP2 CALLDATALOAD PUSH2 0x29BE DUP5 DUP3 PUSH1 0x20 DUP7 ADD PUSH2 0x2912 JUMP JUMPDEST SWAP2 POP POP SWAP3 SWAP2 POP POP JUMP JUMPDEST PUSH1 0x0 PUSH8 0xFFFFFFFFFFFFFFFF DUP3 GT ISZERO PUSH2 0x29E2 JUMPI PUSH2 0x29E1 PUSH2 0x27A7 JUMP JUMPDEST JUMPDEST PUSH1 0x20 DUP3 MUL SWAP1 POP PUSH1 0x20 DUP2 ADD SWAP1 POP SWAP2 SWAP1 POP JUMP JUMPDEST PUSH1 0x0 PUSH8 0xFFFFFFFFFFFFFFFF DUP3 GT ISZERO PUSH2 0x2A0E JUMPI PUSH2 0x2A0D PUSH2 0x27A7 JUMP JUMPDEST JUMPDEST PUSH1 0x20 DUP3 MUL SWAP1 POP PUSH1 0x20 DUP2 ADD SWAP1 POP SWAP2 SWAP1 POP JUMP JUMPDEST PUSH1 0x0 PUSH2 0x2A32 PUSH2 0x2A2D DUP5 PUSH2 0x29F3 JUMP JUMPDEST PUSH2 0x2807 JUMP JUMPDEST SWAP1 POP DUP1 DUP4 DUP3 MSTORE PUSH1 0x20 DUP3 ADD SWAP1 POP PUSH1 0x20 DUP5 MUL DUP4 ADD DUP6 DUP2 GT ISZERO PUSH2 0x2A55 JUMPI PUSH2 0x2A54 PUSH2 0x290D JUMP JUMPDEST JUMPDEST DUP4 JUMPDEST DUP2 DUP2 LT ISZERO PUSH2 0x2A7E JUMPI DUP1 PUSH2 0x2A6A DUP9 DUP3 PUSH2 0x1F10 JUMP JUMPDEST DUP5 MSTORE PUSH1 0x20 DUP5 ADD SWAP4 POP POP PUSH1 0x20 DUP2 ADD SWAP1 POP PUSH2 0x2A57 JUMP JUMPDEST POP POP POP SWAP4 SWAP3 POP POP POP JUMP JUMPDEST PUSH1 0x0 DUP3 PUSH1 0x1F DUP4 ADD SLT PUSH2 0x2A9D JUMPI PUSH2 0x2A9C PUSH2 0x2827 JUMP JUMPDEST JUMPDEST DUP2 CALLDATALOAD PUSH2 0x2AAD DUP5 DUP3 PUSH1 0x20 DUP7 ADD PUSH2 0x2A1F JUMP JUMPDEST SWAP2 POP POP SWAP3 SWAP2 POP POP JUMP JUMPDEST PUSH1 0x0 PUSH2 0x2AC9 PUSH2 0x2AC4 DUP5 PUSH2 0x29C7 JUMP JUMPDEST PUSH2 0x2807 JUMP JUMPDEST SWAP1 POP DUP1 DUP4 DUP3 MSTORE PUSH1 0x20 DUP3 ADD SWAP1 POP PUSH1 0x20 DUP5 MUL DUP4 ADD DUP6 DUP2 GT ISZERO PUSH2 0x2AEC JUMPI PUSH2 0x2AEB PUSH2 0x290D JUMP JUMPDEST JUMPDEST DUP4 JUMPDEST DUP2 DUP2 LT ISZERO PUSH2 0x2B33 JUMPI DUP1 CALLDATALOAD PUSH8 0xFFFFFFFFFFFFFFFF DUP2 GT ISZERO PUSH2 0x2B11 JUMPI PUSH2 0x2B10 PUSH2 0x2827 JUMP JUMPDEST JUMPDEST DUP1 DUP7 ADD PUSH2 0x2B1E DUP10 DUP3 PUSH2 0x2A88 JUMP JUMPDEST DUP6 MSTORE PUSH1 0x20 DUP6 ADD SWAP5 POP POP POP PUSH1 0x20 DUP2 ADD SWAP1 POP PUSH2 0x2AEE JUMP JUMPDEST POP POP POP SWAP4 SWAP3 POP POP POP JUMP JUMPDEST PUSH1 0x0 DUP3 PUSH1 0x1F DUP4 ADD SLT PUSH2 0x2B52 JUMPI PUSH2 0x2B51 PUSH2 0x2827 JUMP JUMPDEST JUMPDEST DUP2 CALLDATALOAD PUSH2 0x2B62 DUP5 DUP3 PUSH1 0x20 DUP7 ADD PUSH2 0x2AB6 JUMP JUMPDEST SWAP2 POP POP SWAP3 SWAP2 POP POP JUMP JUMPDEST PUSH1 0x0 PUSH2 0x120 DUP3 DUP5 SUB SLT ISZERO PUSH2 0x2B82 JUMPI PUSH2 0x2B81 PUSH2 0x27A2 JUMP JUMPDEST JUMPDEST PUSH2 0x2B8D PUSH2 0x120 PUSH2 0x2807 JUMP JUMPDEST SWAP1 POP PUSH1 0x0 DUP3 ADD CALLDATALOAD PUSH8 0xFFFFFFFFFFFFFFFF DUP2 GT ISZERO PUSH2 0x2BAD JUMPI PUSH2 0x2BAC PUSH2 0x2822 JUMP JUMPDEST JUMPDEST PUSH2 0x2BB9 DUP5 DUP3 DUP6 ADD PUSH2 0x28B3 JUMP JUMPDEST PUSH1 0x0 DUP4 ADD MSTORE POP PUSH1 0x20 DUP3 ADD CALLDATALOAD PUSH8 0xFFFFFFFFFFFFFFFF DUP2 GT ISZERO PUSH2 0x2BDD JUMPI PUSH2 0x2BDC PUSH2 0x2822 JUMP JUMPDEST JUMPDEST PUSH2 0x2BE9 DUP5 DUP3 DUP6 ADD PUSH2 0x2999 JUMP JUMPDEST PUSH1 0x20 DUP4 ADD MSTORE POP PUSH1 0x40 DUP3 ADD CALLDATALOAD PUSH8 0xFFFFFFFFFFFFFFFF DUP2 GT ISZERO PUSH2 0x2C0D JUMPI PUSH2 0x2C0C PUSH2 0x2822 JUMP JUMPDEST JUMPDEST PUSH2 0x2C19 DUP5 DUP3 DUP6 ADD PUSH2 0x28B3 JUMP JUMPDEST PUSH1 0x40 DUP4 ADD MSTORE POP PUSH1 0x60 DUP3 ADD CALLDATALOAD PUSH8 0xFFFFFFFFFFFFFFFF DUP2 GT ISZERO PUSH2 0x2C3D JUMPI PUSH2 0x2C3C PUSH2 0x2822 JUMP JUMPDEST JUMPDEST PUSH2 0x2C49 DUP5 DUP3 DUP6 ADD PUSH2 0x2B3D JUMP JUMPDEST PUSH1 0x60 DUP4 ADD MSTORE POP PUSH1 0x80 PUSH2 0x2C5D DUP5 DUP3 DUP6 ADD PUSH2 0x1F10 JUMP JUMPDEST PUSH1 0x80 DUP4 ADD MSTORE POP PUSH1 0xA0 PUSH2 0x2C71 DUP5 DUP3 DUP6 ADD PUSH2 0x1F10 JUMP JUMPDEST PUSH1 0xA0 DUP4 ADD MSTORE POP PUSH1 0xC0 DUP3 ADD CALLDATALOAD PUSH8 0xFFFFFFFFFFFFFFFF DUP2 GT ISZERO PUSH2 0x2C95 JUMPI PUSH2 0x2C94 PUSH2 0x2822 JUMP JUMPDEST JUMPDEST PUSH2 0x2CA1 DUP5 DUP3 DUP6 ADD PUSH2 0x2A88 JUMP JUMPDEST PUSH1 0xC0 DUP4 ADD MSTORE POP PUSH1 0xE0 PUSH2 0x2CB5 DUP5 DUP3 DUP6 ADD PUSH2 0x1F46 JUMP JUMPDEST PUSH1 0xE0 DUP4 ADD MSTORE POP PUSH2 0x100 DUP3 ADD CALLDATALOAD PUSH8 0xFFFFFFFFFFFFFFFF DUP2 GT ISZERO PUSH2 0x2CDA JUMPI PUSH2 0x2CD9 PUSH2 0x2822 JUMP JUMPDEST JUMPDEST PUSH2 0x2CE6 DUP5 DUP3 DUP6 ADD PUSH2 0x28B3 JUMP JUMPDEST PUSH2 0x100 DUP4 ADD MSTORE POP SWAP3 SWAP2 POP POP JUMP JUMPDEST PUSH1 0x0 DUP1 PUSH1 0x0 PUSH1 0x60 DUP5 DUP7 SUB SLT ISZERO PUSH2 0x2D0C JUMPI PUSH2 0x2D0B PUSH2 0x1EEF JUMP JUMPDEST JUMPDEST PUSH1 0x0 PUSH2 0x2D1A DUP7 DUP3 DUP8 ADD PUSH2 0x1F10 JUMP JUMPDEST SWAP4 POP POP PUSH1 0x20 PUSH2 0x2D2B DUP7 DUP3 DUP8 ADD PUSH2 0x1F46 JUMP JUMPDEST SWAP3 POP POP PUSH1 0x40 DUP5 ADD CALLDATALOAD PUSH8 0xFFFFFFFFFFFFFFFF DUP2 GT ISZERO PUSH2 0x2D4C JUMPI PUSH2 0x2D4B PUSH2 0x1EF4 JUMP JUMPDEST JUMPDEST PUSH2 0x2D58 DUP7 DUP3 DUP8 ADD PUSH2 0x2B6B JUMP JUMPDEST SWAP2 POP POP SWAP3 POP SWAP3 POP SWAP3 JUMP JUMPDEST PUSH1 0x0 DUP1 REVERT JUMPDEST PUSH1 0x0 PUSH1 0x60 DUP3 DUP5 SUB SLT ISZERO PUSH2 0x2D7D JUMPI PUSH2 0x2D7C PUSH2 0x2D62 JUMP JUMPDEST JUMPDEST DUP2 SWAP1 POP SWAP3 SWAP2 POP POP JUMP JUMPDEST PUSH1 0x0 DUP1 PUSH1 0x40 DUP4 DUP6 SUB SLT ISZERO PUSH2 0x2D9D JUMPI PUSH2 0x2D9C PUSH2 0x1EEF JUMP JUMPDEST JUMPDEST PUSH1 0x0 PUSH2 0x2DAB DUP6 DUP3 DUP7 ADD PUSH2 0x1F10 JUMP JUMPDEST SWAP3 POP POP PUSH1 0x20 DUP4 ADD CALLDATALOAD PUSH8 0xFFFFFFFFFFFFFFFF DUP2 GT ISZERO PUSH2 0x2DCC JUMPI PUSH2 0x2DCB PUSH2 0x1EF4 JUMP JUMPDEST JUMPDEST PUSH2 0x2DD8 DUP6 DUP3 DUP7 ADD PUSH2 0x2D67 JUMP JUMPDEST SWAP2 POP POP SWAP3 POP SWAP3 SWAP1 POP JUMP JUMPDEST PUSH1 0x0 DUP1 PUSH1 0x40 DUP4 DUP6 SUB SLT ISZERO PUSH2 0x2DF9 JUMPI PUSH2 0x2DF8 PUSH2 0x1EEF JUMP JUMPDEST JUMPDEST PUSH1 0x0 PUSH2 0x2E07 DUP6 DUP3 DUP7 ADD PUSH2 0x1F10 JUMP JUMPDEST SWAP3 POP POP PUSH1 0x20 PUSH2 0x2E18 DUP6 DUP3 DUP7 ADD PUSH2 0x239D JUMP JUMPDEST SWAP2 POP POP SWAP3 POP SWAP3 SWAP1 POP JUMP JUMPDEST PUSH1 0x0 PUSH1 0xA0 DUP3 DUP5 SUB SLT ISZERO PUSH2 0x2E38 JUMPI PUSH2 0x2E37 PUSH2 0x2D62 JUMP JUMPDEST JUMPDEST DUP2 SWAP1 POP SWAP3 SWAP2 POP POP JUMP JUMPDEST PUSH1 0x0 DUP1 REVERT JUMPDEST PUSH1 0x0 DUP1 DUP4 PUSH1 0x1F DUP5 ADD SLT PUSH2 0x2E5C JUMPI PUSH2 0x2E5B PUSH2 0x2827 JUMP JUMPDEST JUMPDEST DUP3 CALLDATALOAD SWAP1 POP PUSH8 0xFFFFFFFFFFFFFFFF DUP2 GT ISZERO PUSH2 0x2E79 JUMPI PUSH2 0x2E78 PUSH2 0x2E41 JUMP JUMPDEST JUMPDEST PUSH1 0x20 DUP4 ADD SWAP2 POP DUP4 PUSH1 0x20 DUP3 MUL DUP4 ADD GT ISZERO PUSH2 0x2E95 JUMPI PUSH2 0x2E94 PUSH2 0x290D JUMP JUMPDEST JUMPDEST SWAP3 POP SWAP3 SWAP1 POP JUMP JUMPDEST PUSH1 0x2 DUP2 LT PUSH2 0x2EA9 JUMPI PUSH1 0x0 DUP1 REVERT JUMPDEST POP JUMP JUMPDEST PUSH1 0x0 DUP2 CALLDATALOAD SWAP1 POP PUSH2 0x2EBB DUP2 PUSH2 0x2E9C JUMP JUMPDEST SWAP3 SWAP2 POP POP JUMP JUMPDEST PUSH2 0x2ECA DUP2 PUSH2 0x240C JUMP JUMPDEST DUP2 EQ PUSH2 0x2ED5 JUMPI PUSH1 0x0 DUP1 REVERT JUMPDEST POP JUMP JUMPDEST PUSH1 0x0 DUP2 CALLDATALOAD SWAP1 POP PUSH2 0x2EE7 DUP2 PUSH2 0x2EC1 JUMP JUMPDEST SWAP3 SWAP2 POP POP JUMP JUMPDEST PUSH1 0x0 DUP1 PUSH1 0x0 DUP1 PUSH1 0x0 DUP1 PUSH1 0x0 DUP1 PUSH1 0xE0 DUP10 DUP12 SUB SLT ISZERO PUSH2 0x2F0D JUMPI PUSH2 0x2F0C PUSH2 0x1EEF JUMP JUMPDEST JUMPDEST PUSH1 0x0 PUSH2 0x2F1B DUP12 DUP3 DUP13 ADD PUSH2 0x1F10 JUMP JUMPDEST SWAP9 POP POP PUSH1 0x20 DUP10 ADD CALLDATALOAD PUSH8 0xFFFFFFFFFFFFFFFF DUP2 GT ISZERO PUSH2 0x2F3C JUMPI PUSH2 0x2F3B PUSH2 0x1EF4 JUMP JUMPDEST JUMPDEST PUSH2 0x2F48 DUP12 DUP3 DUP13 ADD PUSH2 0x2E22 JUMP JUMPDEST SWAP8 POP POP PUSH1 0x40 DUP10 ADD CALLDATALOAD PUSH8 0xFFFFFFFFFFFFFFFF DUP2 GT ISZERO PUSH2 0x2F69 JUMPI PUSH2 0x2F68 PUSH2 0x1EF4 JUMP JUMPDEST JUMPDEST PUSH2 0x2F75 DUP12 DUP3 DUP13 ADD PUSH2 0x2D67 JUMP JUMPDEST SWAP7 POP POP PUSH1 0x60 DUP10 ADD CALLDATALOAD PUSH8 0xFFFFFFFFFFFFFFFF DUP2 GT ISZERO PUSH2 0x2F96 JUMPI PUSH2 0x2F95 PUSH2 0x1EF4 JUMP JUMPDEST JUMPDEST PUSH2 0x2FA2 DUP12 DUP3 DUP13 ADD PUSH2 0x2E46 JUMP JUMPDEST SWAP6 POP SWAP6 POP POP PUSH1 0x80 PUSH2 0x2FB5 DUP12 DUP3 DUP13 ADD PUSH2 0x239D JUMP JUMPDEST SWAP4 POP POP PUSH1 0xA0 PUSH2 0x2FC6 DUP12 DUP3 DUP13 ADD PUSH2 0x2EAC JUMP JUMPDEST SWAP3 POP POP PUSH1 0xC0 PUSH2 0x2FD7 DUP12 DUP3 DUP13 ADD PUSH2 0x2ED8 JUMP JUMPDEST SWAP2 POP POP SWAP3 SWAP6 SWAP9 POP SWAP3 SWAP6 SWAP9 SWAP1 SWAP4 SWAP7 POP JUMP JUMPDEST PUSH1 0x0 DUP1 PUSH1 0x40 DUP4 DUP6 SUB SLT ISZERO PUSH2 0x2FFE JUMPI PUSH2 0x2FFD PUSH2 0x1EEF JUMP JUMPDEST JUMPDEST PUSH1 0x0 PUSH2 0x300C DUP6 DUP3 DUP7 ADD PUSH2 0x1F10 JUMP JUMPDEST SWAP3 POP POP PUSH1 0x20 PUSH2 0x301D DUP6 DUP3 DUP7 ADD PUSH2 0x2EAC JUMP JUMPDEST SWAP2 POP POP SWAP3 POP SWAP3 SWAP1 POP JUMP JUMPDEST PUSH1 0x0 DUP1 PUSH1 0x40 DUP4 DUP6 SUB SLT ISZERO PUSH2 0x303E JUMPI PUSH2 0x303D PUSH2 0x1EEF JUMP JUMPDEST JUMPDEST PUSH1 0x0 PUSH2 0x304C DUP6 DUP3 DUP7 ADD PUSH2 0x1F10 JUMP JUMPDEST SWAP3 POP POP PUSH1 0x20 DUP4 ADD CALLDATALOAD PUSH8 0xFFFFFFFFFFFFFFFF DUP2 GT ISZERO PUSH2 0x306D JUMPI PUSH2 0x306C PUSH2 0x1EF4 JUMP JUMPDEST JUMPDEST PUSH2 0x3079 DUP6 DUP3 DUP7 ADD PUSH2 0x2E22 JUMP JUMPDEST SWAP2 POP POP SWAP3 POP SWAP3 SWAP1 POP JUMP JUMPDEST PUSH1 0x0 PUSH1 0x20 DUP3 ADD SWAP1 POP PUSH2 0x3098 PUSH1 0x0 DUP4 ADD DUP5 PUSH2 0x1E94 JUMP JUMPDEST SWAP3 SWAP2 POP POP JUMP JUMPDEST PUSH1 0x0 PUSH1 0x20 DUP3 ADD SWAP1 POP PUSH2 0x30B3 PUSH1 0x0 DUP4 ADD DUP5 PUSH2 0x1EAD JUMP JUMPDEST SWAP3 SWAP2 POP POP JUMP JUMPDEST PUSH1 0x0 DUP1 PUSH1 0x40 DUP4 DUP6 SUB SLT ISZERO PUSH2 0x30D0 JUMPI PUSH2 0x30CF PUSH2 0x1EEF JUMP JUMPDEST JUMPDEST PUSH1 0x0 PUSH2 0x30DE DUP6 DUP3 DUP7 ADD PUSH2 0x1F10 JUMP JUMPDEST SWAP3 POP POP PUSH1 0x20 PUSH2 0x30EF DUP6 DUP3 DUP7 ADD PUSH2 0x1F10 JUMP JUMPDEST SWAP2 POP POP SWAP3 POP SWAP3 SWAP1 POP JUMP JUMPDEST PUSH1 0x0 DUP1 PUSH1 0x40 DUP4 DUP6 SUB SLT ISZERO PUSH2 0x3110 JUMPI PUSH2 0x310F PUSH2 0x1EEF JUMP JUMPDEST JUMPDEST PUSH1 0x0 PUSH2 0x311E DUP6 DUP3 DUP7 ADD PUSH2 0x1F10 JUMP JUMPDEST SWAP3 POP POP PUSH1 0x20 PUSH2 0x312F DUP6 DUP3 DUP7 ADD PUSH2 0x2ED8 JUMP JUMPDEST SWAP2 POP POP SWAP3 POP SWAP3 SWAP1 POP JUMP JUMPDEST PUSH1 0x0 DUP1 PUSH1 0x0 DUP1 PUSH1 0x0 DUP1 PUSH1 0xA0 DUP8 DUP10 SUB SLT ISZERO PUSH2 0x3156 JUMPI PUSH2 0x3155 PUSH2 0x1EEF JUMP JUMPDEST JUMPDEST PUSH1 0x0 DUP8 ADD CALLDATALOAD PUSH8 0xFFFFFFFFFFFFFFFF DUP2 GT ISZERO PUSH2 0x3174 JUMPI PUSH2 0x3173 PUSH2 0x1EF4 JUMP JUMPDEST JUMPDEST PUSH2 0x3180 DUP10 DUP3 DUP11 ADD PUSH2 0x2E22 JUMP JUMPDEST SWAP7 POP POP PUSH1 0x20 DUP8 ADD CALLDATALOAD PUSH8 0xFFFFFFFFFFFFFFFF DUP2 GT ISZERO PUSH2 0x31A1 JUMPI PUSH2 0x31A0 PUSH2 0x1EF4 JUMP JUMPDEST JUMPDEST PUSH2 0x31AD DUP10 DUP3 DUP11 ADD PUSH2 0x2D67 JUMP JUMPDEST SWAP6 POP POP PUSH1 0x40 DUP8 ADD CALLDATALOAD PUSH8 0xFFFFFFFFFFFFFFFF DUP2 GT ISZERO PUSH2 0x31CE JUMPI PUSH2 0x31CD PUSH2 0x1EF4 JUMP JUMPDEST JUMPDEST PUSH2 0x31DA DUP10 DUP3 DUP11 ADD PUSH2 0x2E46 JUMP JUMPDEST SWAP5 POP SWAP5 POP POP PUSH1 0x60 PUSH2 0x31ED DUP10 DUP3 DUP11 ADD PUSH2 0x239D JUMP JUMPDEST SWAP3 POP POP PUSH1 0x80 PUSH2 0x31FE DUP10 DUP3 DUP11 ADD PUSH2 0x2EAC JUMP JUMPDEST SWAP2 POP POP SWAP3 SWAP6 POP SWAP3 SWAP6 POP SWAP3 SWAP6 JUMP JUMPDEST PUSH2 0x3214 DUP2 PUSH2 0x1F25 JUMP JUMPDEST DUP3 MSTORE POP POP JUMP JUMPDEST PUSH1 0x0 PUSH1 0x40 DUP3 ADD SWAP1 POP PUSH2 0x322F PUSH1 0x0 DUP4 ADD DUP6 PUSH2 0x1EAD JUMP JUMPDEST PUSH2 0x323C PUSH1 0x20 DUP4 ADD DUP5 PUSH2 0x320B JUMP JUMPDEST SWAP4 SWAP3 POP POP POP JUMP JUMPDEST PUSH1 0x0 PUSH2 0x3256 PUSH2 0x3251 DUP5 PUSH2 0x2831 JUMP JUMPDEST PUSH2 0x2807 JUMP JUMPDEST SWAP1 POP DUP3 DUP2 MSTORE PUSH1 0x20 DUP2 ADD DUP5 DUP5 DUP5 ADD GT ISZERO PUSH2 0x3272 JUMPI PUSH2 0x3271 PUSH2 0x282C JUMP JUMPDEST JUMPDEST PUSH2 0x327D DUP5 DUP3 DUP6 PUSH2 0x1FB7 JUMP JUMPDEST POP SWAP4 SWAP3 POP POP POP JUMP JUMPDEST PUSH1 0x0 DUP3 PUSH1 0x1F DUP4 ADD SLT PUSH2 0x329A JUMPI PUSH2 0x3299 PUSH2 0x2827 JUMP JUMPDEST JUMPDEST DUP2 MLOAD PUSH2 0x32AA DUP5 DUP3 PUSH1 0x20 DUP7 ADD PUSH2 0x3243 JUMP JUMPDEST SWAP2 POP POP SWAP3 SWAP2 POP POP JUMP JUMPDEST PUSH1 0x0 PUSH2 0x32C6 PUSH2 0x32C1 DUP5 PUSH2 0x28E1 JUMP JUMPDEST PUSH2 0x2807 JUMP JUMPDEST SWAP1 POP DUP1 DUP4 DUP3 MSTORE PUSH1 0x20 DUP3 ADD SWAP1 POP PUSH1 0x20 DUP5 MUL DUP4 ADD DUP6 DUP2 GT ISZERO PUSH2 0x32E9 JUMPI PUSH2 0x32E8 PUSH2 0x290D JUMP JUMPDEST JUMPDEST DUP4 JUMPDEST DUP2 DUP2 LT ISZERO PUSH2 0x3330 JUMPI DUP1 MLOAD PUSH8 0xFFFFFFFFFFFFFFFF DUP2 GT ISZERO PUSH2 0x330E JUMPI PUSH2 0x330D PUSH2 0x2827 JUMP JUMPDEST JUMPDEST DUP1 DUP7 ADD PUSH2 0x331B DUP10 DUP3 PUSH2 0x3285 JUMP JUMPDEST DUP6 MSTORE PUSH1 0x20 DUP6 ADD SWAP5 POP POP POP PUSH1 0x20 DUP2 ADD SWAP1 POP PUSH2 0x32EB JUMP JUMPDEST POP POP POP SWAP4 SWAP3 POP POP POP JUMP JUMPDEST PUSH1 0x0 DUP3 PUSH1 0x1F DUP4 ADD SLT PUSH2 0x334F JUMPI PUSH2 0x334E PUSH2 0x2827 JUMP JUMPDEST JUMPDEST DUP2 MLOAD PUSH2 0x335F DUP5 DUP3 PUSH1 0x20 DUP7 ADD PUSH2 0x32B3 JUMP JUMPDEST SWAP2 POP POP SWAP3 SWAP2 POP POP JUMP JUMPDEST PUSH1 0x0 DUP2 MLOAD SWAP1 POP PUSH2 0x3377 DUP2 PUSH2 0x1EF9 JUMP JUMPDEST SWAP3 SWAP2 POP POP JUMP JUMPDEST PUSH1 0x0 PUSH2 0x3390 PUSH2 0x338B DUP5 PUSH2 0x29F3 JUMP JUMPDEST PUSH2 0x2807 JUMP JUMPDEST SWAP1 POP DUP1 DUP4 DUP3 MSTORE PUSH1 0x20 DUP3 ADD SWAP1 POP PUSH1 0x20 DUP5 MUL DUP4 ADD DUP6 DUP2 GT ISZERO PUSH2 0x33B3 JUMPI PUSH2 0x33B2 PUSH2 0x290D JUMP JUMPDEST JUMPDEST DUP4 JUMPDEST DUP2 DUP2 LT ISZERO PUSH2 0x33DC JUMPI DUP1 PUSH2 0x33C8 DUP9 DUP3 PUSH2 0x3368 JUMP JUMPDEST DUP5 MSTORE PUSH1 0x20 DUP5 ADD SWAP4 POP POP PUSH1 0x20 DUP2 ADD SWAP1 POP PUSH2 0x33B5 JUMP JUMPDEST POP POP POP SWAP4 SWAP3 POP POP POP JUMP JUMPDEST PUSH1 0x0 DUP3 PUSH1 0x1F DUP4 ADD SLT PUSH2 0x33FB JUMPI PUSH2 0x33FA PUSH2 0x2827 JUMP JUMPDEST JUMPDEST DUP2 MLOAD PUSH2 0x340B DUP5 DUP3 PUSH1 0x20 DUP7 ADD PUSH2 0x337D JUMP JUMPDEST SWAP2 POP POP SWAP3 SWAP2 POP POP JUMP JUMPDEST PUSH1 0x0 PUSH2 0x3427 PUSH2 0x3422 DUP5 PUSH2 0x29C7 JUMP JUMPDEST PUSH2 0x2807 JUMP JUMPDEST SWAP1 POP DUP1 DUP4 DUP3 MSTORE PUSH1 0x20 DUP3 ADD SWAP1 POP PUSH1 0x20 DUP5 MUL DUP4 ADD DUP6 DUP2 GT ISZERO PUSH2 0x344A JUMPI PUSH2 0x3449 PUSH2 0x290D JUMP JUMPDEST JUMPDEST DUP4 JUMPDEST DUP2 DUP2 LT ISZERO PUSH2 0x3491 JUMPI DUP1 MLOAD PUSH8 0xFFFFFFFFFFFFFFFF DUP2 GT ISZERO PUSH2 0x346F JUMPI PUSH2 0x346E PUSH2 0x2827 JUMP JUMPDEST JUMPDEST DUP1 DUP7 ADD PUSH2 0x347C DUP10 DUP3 PUSH2 0x33E6 JUMP JUMPDEST DUP6 MSTORE PUSH1 0x20 DUP6 ADD SWAP5 POP POP POP PUSH1 0x20 DUP2 ADD SWAP1 POP PUSH2 0x344C JUMP JUMPDEST POP POP POP SWAP4 SWAP3 POP POP POP JUMP JUMPDEST PUSH1 0x0 DUP3 PUSH1 0x1F DUP4 ADD SLT PUSH2 0x34B0 JUMPI PUSH2 0x34AF PUSH2 0x2827 JUMP JUMPDEST JUMPDEST DUP2 MLOAD PUSH2 0x34C0 DUP5 DUP3 PUSH1 0x20 DUP7 ADD PUSH2 0x3414 JUMP JUMPDEST SWAP2 POP POP SWAP3 SWAP2 POP POP JUMP JUMPDEST PUSH1 0x0 DUP2 MLOAD SWAP1 POP PUSH2 0x34D8 DUP2 PUSH2 0x1F2F JUMP JUMPDEST SWAP3 SWAP2 POP POP JUMP JUMPDEST PUSH1 0x0 PUSH2 0x120 DUP3 DUP5 SUB SLT ISZERO PUSH2 0x34F5 JUMPI PUSH2 0x34F4 PUSH2 0x27A2 JUMP JUMPDEST JUMPDEST PUSH2 0x3500 PUSH2 0x120 PUSH2 0x2807 JUMP JUMPDEST SWAP1 POP PUSH1 0x0 DUP3 ADD MLOAD PUSH8 0xFFFFFFFFFFFFFFFF DUP2 GT ISZERO PUSH2 0x3520 JUMPI PUSH2 0x351F PUSH2 0x2822 JUMP JUMPDEST JUMPDEST PUSH2 0x352C DUP5 DUP3 DUP6 ADD PUSH2 0x3285 JUMP JUMPDEST PUSH1 0x0 DUP4 ADD MSTORE POP PUSH1 0x20 DUP3 ADD MLOAD PUSH8 0xFFFFFFFFFFFFFFFF DUP2 GT ISZERO PUSH2 0x3550 JUMPI PUSH2 0x354F PUSH2 0x2822 JUMP JUMPDEST JUMPDEST PUSH2 0x355C DUP5 DUP3 DUP6 ADD PUSH2 0x333A JUMP JUMPDEST PUSH1 0x20 DUP4 ADD MSTORE POP PUSH1 0x40 DUP3 ADD MLOAD PUSH8 0xFFFFFFFFFFFFFFFF DUP2 GT ISZERO PUSH2 0x3580 JUMPI PUSH2 0x357F PUSH2 0x2822 JUMP JUMPDEST JUMPDEST PUSH2 0x358C DUP5 DUP3 DUP6 ADD PUSH2 0x3285 JUMP JUMPDEST PUSH1 0x40 DUP4 ADD MSTORE POP PUSH1 0x60 DUP3 ADD MLOAD PUSH8 0xFFFFFFFFFFFFFFFF DUP2 GT ISZERO PUSH2 0x35B0 JUMPI PUSH2 0x35AF PUSH2 0x2822 JUMP JUMPDEST JUMPDEST PUSH2 0x35BC DUP5 DUP3 DUP6 ADD PUSH2 0x349B JUMP JUMPDEST PUSH1 0x60 DUP4 ADD MSTORE POP PUSH1 0x80 PUSH2 0x35D0 DUP5 DUP3 DUP6 ADD PUSH2 0x3368 JUMP JUMPDEST PUSH1 0x80 DUP4 ADD MSTORE POP PUSH1 0xA0 PUSH2 0x35E4 DUP5 DUP3 DUP6 ADD PUSH2 0x3368 JUMP JUMPDEST PUSH1 0xA0 DUP4 ADD MSTORE POP PUSH1 0xC0 DUP3 ADD MLOAD PUSH8 0xFFFFFFFFFFFFFFFF DUP2 GT ISZERO PUSH2 0x3608 JUMPI PUSH2 0x3607 PUSH2 0x2822 JUMP JUMPDEST JUMPDEST PUSH2 0x3614 DUP5 DUP3 DUP6 ADD PUSH2 0x33E6 JUMP JUMPDEST PUSH1 0xC0 DUP4 ADD MSTORE POP PUSH1 0xE0 PUSH2 0x3628 DUP5 DUP3 DUP6 ADD PUSH2 0x34C9 JUMP JUMPDEST PUSH1 0xE0 DUP4 ADD MSTORE POP PUSH2 0x100 DUP3 ADD MLOAD PUSH8 0xFFFFFFFFFFFFFFFF DUP2 GT ISZERO PUSH2 0x364D JUMPI PUSH2 0x364C PUSH2 0x2822 JUMP JUMPDEST JUMPDEST PUSH2 0x3659 DUP5 DUP3 DUP6 ADD PUSH2 0x3285 JUMP JUMPDEST PUSH2 0x100 DUP4 ADD MSTORE POP SWAP3 SWAP2 POP POP JUMP JUMPDEST PUSH1 0x0 PUSH1 0x20 DUP3 DUP5 SUB SLT ISZERO PUSH2 0x367C JUMPI PUSH2 0x367B PUSH2 0x1EEF JUMP JUMPDEST JUMPDEST PUSH1 0x0 DUP3 ADD MLOAD PUSH8 0xFFFFFFFFFFFFFFFF DUP2 GT ISZERO PUSH2 0x369A JUMPI PUSH2 0x3699 PUSH2 0x1EF4 JUMP JUMPDEST JUMPDEST PUSH2 0x36A6 DUP5 DUP3 DUP6 ADD PUSH2 0x34DE JUMP JUMPDEST SWAP2 POP POP SWAP3 SWAP2 POP POP JUMP JUMPDEST PUSH32 0x4E487B7100000000000000000000000000000000000000000000000000000000 PUSH1 0x0 MSTORE PUSH1 0x22 PUSH1 0x4 MSTORE PUSH1 0x24 PUSH1 0x0 REVERT JUMPDEST PUSH1 0x0 PUSH1 0x2 DUP3 DIV SWAP1 POP PUSH1 0x1 DUP3 AND DUP1 PUSH2 0x36F6 JUMPI PUSH1 0x7F DUP3 AND SWAP2 POP JUMPDEST PUSH1 0x20 DUP3 LT DUP2 SUB PUSH2 0x3709 JUMPI PUSH2 0x3708 PUSH2 0x36AF JUMP JUMPDEST JUMPDEST POP SWAP2 SWAP1 POP JUMP JUMPDEST PUSH1 0x0 DUP3 DUP3 MSTORE PUSH1 0x20 DUP3 ADD SWAP1 POP SWAP3 SWAP2 POP POP JUMP JUMPDEST PUSH32 0x436F6D6D756E6974792069732064697361626C65640000000000000000000000 PUSH1 0x0 DUP3 ADD MSTORE POP JUMP JUMPDEST PUSH1 0x0 PUSH2 0x3756 PUSH1 0x15 DUP4 PUSH2 0x370F JUMP JUMPDEST SWAP2 POP PUSH2 0x3761 DUP3 PUSH2 0x3720 JUMP JUMPDEST PUSH1 0x20 DUP3 ADD SWAP1 POP SWAP2 SWAP1 POP JUMP JUMPDEST PUSH1 0x0 PUSH1 0x20 DUP3 ADD SWAP1 POP DUP2 DUP2 SUB PUSH1 0x0 DUP4 ADD MSTORE PUSH2 0x3785 DUP2 PUSH2 0x3749 JUMP JUMPDEST SWAP1 POP SWAP2 SWAP1 POP JUMP JUMPDEST PUSH32 0x496E73756666696369656E742066756E647320666F722074686973206F706572 PUSH1 0x0 DUP3 ADD MSTORE PUSH32 0x6174696F6E000000000000000000000000000000000000000000000000000000 PUSH1 0x20 DUP3 ADD MSTORE POP JUMP JUMPDEST PUSH1 0x0 PUSH2 0x37E8 PUSH1 0x25 DUP4 PUSH2 0x370F JUMP JUMPDEST SWAP2 POP PUSH2 0x37F3 DUP3 PUSH2 0x378C JUMP JUMPDEST PUSH1 0x40 DUP3 ADD SWAP1 POP SWAP2 SWAP1 POP JUMP JUMPDEST PUSH1 0x0 PUSH1 0x20 DUP3 ADD SWAP1 POP DUP2 DUP2 SUB PUSH1 0x0 DUP4 ADD MSTORE PUSH2 0x3817 DUP2 PUSH2 0x37DB JUMP JUMPDEST SWAP1 POP SWAP2 SWAP1 POP JUMP JUMPDEST PUSH32 0x4E487B7100000000000000000000000000000000000000000000000000000000 PUSH1 0x0 MSTORE PUSH1 0x11 PUSH1 0x4 MSTORE PUSH1 0x24 PUSH1 0x0 REVERT JUMPDEST PUSH1 0x0 PUSH2 0x3858 DUP3 PUSH2 0x1EA3 JUMP JUMPDEST SWAP2 POP PUSH2 0x3863 DUP4 PUSH2 0x1EA3 JUMP JUMPDEST SWAP3 POP DUP3 DUP3 SUB SWAP1 POP DUP2 DUP2 GT ISZERO PUSH2 0x387B JUMPI PUSH2 0x387A PUSH2 0x381E JUMP JUMPDEST JUMPDEST SWAP3 SWAP2 POP POP JUMP JUMPDEST PUSH1 0x0 PUSH1 0x60 DUP3 ADD SWAP1 POP PUSH2 0x3896 PUSH1 0x0 DUP4 ADD DUP7 PUSH2 0x1EAD JUMP JUMPDEST PUSH2 0x38A3 PUSH1 0x20 DUP4 ADD DUP6 PUSH2 0x320B JUMP JUMPDEST DUP2 DUP2 SUB PUSH1 0x40 DUP4 ADD MSTORE PUSH2 0x38B5 DUP2 DUP5 PUSH2 0x227C JUMP JUMPDEST SWAP1 POP SWAP5 SWAP4 POP POP POP POP JUMP JUMPDEST PUSH32 0x4E6F2066756E647320617661696C61626C650000000000000000000000000000 PUSH1 0x0 DUP3 ADD MSTORE POP JUMP JUMPDEST PUSH1 0x0 PUSH2 0x38F5 PUSH1 0x12 DUP4 PUSH2 0x370F JUMP JUMPDEST SWAP2 POP PUSH2 0x3900 DUP3 PUSH2 0x38BF JUMP JUMPDEST PUSH1 0x20 DUP3 ADD SWAP1 POP SWAP2 SWAP1 POP JUMP JUMPDEST PUSH1 0x0 PUSH1 0x20 DUP3 ADD SWAP1 POP DUP2 DUP2 SUB PUSH1 0x0 DUP4 ADD MSTORE PUSH2 0x3924 DUP2 PUSH2 0x38E8 JUMP JUMPDEST SWAP1 POP SWAP2 SWAP1 POP JUMP JUMPDEST PUSH1 0x0 DUP2 SWAP1 POP SWAP3 SWAP2 POP POP JUMP JUMPDEST POP JUMP JUMPDEST PUSH1 0x0 PUSH2 0x3946 PUSH1 0x0 DUP4 PUSH2 0x392B JUMP JUMPDEST SWAP2 POP PUSH2 0x3951 DUP3 PUSH2 0x3936 JUMP JUMPDEST PUSH1 0x0 DUP3 ADD SWAP1 POP SWAP2 SWAP1 POP JUMP JUMPDEST PUSH1 0x0 PUSH2 0x3967 DUP3 PUSH2 0x3939 JUMP JUMPDEST SWAP2 POP DUP2 SWAP1 POP SWAP2 SWAP1 POP JUMP JUMPDEST PUSH32 0x4661696C656420746F2073656E64204574686572000000000000000000000000 PUSH1 0x0 DUP3 ADD MSTORE POP JUMP JUMPDEST PUSH1 0x0 PUSH2 0x39A7 PUSH1 0x14 DUP4 PUSH2 0x370F JUMP JUMPDEST SWAP2 POP PUSH2 0x39B2 DUP3 PUSH2 0x3971 JUMP JUMPDEST PUSH1 0x20 DUP3 ADD SWAP1 POP SWAP2 SWAP1 POP JUMP JUMPDEST PUSH1 0x0 PUSH1 0x20 DUP3 ADD SWAP1 POP DUP2 DUP2 SUB PUSH1 0x0 DUP4 ADD MSTORE PUSH2 0x39D6 DUP2 PUSH2 0x399A JUMP JUMPDEST SWAP1 POP SWAP2 SWAP1 POP JUMP JUMPDEST PUSH1 0x0 DUP2 SWAP1 POP SWAP2 SWAP1 POP JUMP JUMPDEST PUSH1 0x0 PUSH2 0x3A02 PUSH2 0x39FD PUSH2 0x39F8 DUP5 PUSH2 0x1E62 JUMP JUMPDEST PUSH2 0x39DD JUMP JUMPDEST PUSH2 0x1E62 JUMP JUMPDEST SWAP1 POP SWAP2 SWAP1 POP JUMP JUMPDEST PUSH1 0x0 PUSH2 0x3A14 DUP3 PUSH2 0x39E7 JUMP JUMPDEST SWAP1 POP SWAP2 SWAP1 POP JUMP JUMPDEST PUSH1 0x0 PUSH2 0x3A26 DUP3 PUSH2 0x3A09 JUMP JUMPDEST SWAP1 POP SWAP2 SWAP1 POP JUMP JUMPDEST PUSH2 0x3A36 DUP2 PUSH2 0x3A1B JUMP JUMPDEST DUP3 MSTORE POP POP JUMP JUMPDEST PUSH1 0x0 PUSH1 0x40 DUP3 ADD SWAP1 POP PUSH2 0x3A51 PUSH1 0x0 DUP4 ADD DUP6 PUSH2 0x1EAD JUMP JUMPDEST PUSH2 0x3A5E PUSH1 0x20 DUP4 ADD DUP5 PUSH2 0x3A2D JUMP JUMPDEST SWAP4 SWAP3 POP POP POP JUMP JUMPDEST PUSH32 0x4E487B7100000000000000000000000000000000000000000000000000000000 PUSH1 0x0 MSTORE PUSH1 0x0 PUSH1 0x4 MSTORE PUSH1 0x24 PUSH1 0x0 REVERT JUMPDEST PUSH1 0x6 DUP2 LT PUSH2 0x3AA1 JUMPI PUSH1 0x0 DUP1 REVERT JUMPDEST POP JUMP JUMPDEST PUSH1 0x0 DUP2 CALLDATALOAD PUSH2 0x3AB1 DUP2 PUSH2 0x3A94 JUMP JUMPDEST DUP1 SWAP2 POP POP SWAP2 SWAP1 POP JUMP JUMPDEST PUSH1 0x0 DUP2 PUSH1 0x0 SHL SWAP1 POP SWAP2 SWAP1 POP JUMP JUMPDEST PUSH1 0x0 PUSH1 0xFF PUSH2 0x3AD4 DUP5 PUSH2 0x3ABA JUMP JUMPDEST SWAP4 POP DUP1 NOT DUP4 AND SWAP3 POP DUP1 DUP5 AND DUP4 OR SWAP2 POP POP SWAP3 SWAP2 POP POP JUMP JUMPDEST PUSH1 0x0 PUSH2 0x3AF5 DUP3 PUSH2 0x24F5 JUMP JUMPDEST SWAP1 POP SWAP2 SWAP1 POP JUMP JUMPDEST PUSH1 0x0 DUP2 SWAP1 POP SWAP2 SWAP1 POP JUMP JUMPDEST PUSH2 0x3B0F DUP3 PUSH2 0x3AEA JUMP JUMPDEST PUSH2 0x3B22 PUSH2 0x3B1B DUP3 PUSH2 0x3AFC JUMP JUMPDEST DUP4 SLOAD PUSH2 0x3AC7 JUMP JUMPDEST DUP3 SSTORE POP POP POP JUMP JUMPDEST PUSH1 0x0 DUP1 REVERT JUMPDEST PUSH1 0x0 DUP1 REVERT JUMPDEST PUSH1 0x0 DUP1 REVERT JUMPDEST PUSH1 0x0 DUP1 DUP4 CALLDATALOAD PUSH1 0x1 PUSH1 0x20 SUB DUP5 CALLDATASIZE SUB SUB DUP2 SLT PUSH2 0x3B55 JUMPI PUSH2 0x3B54 PUSH2 0x3B29 JUMP JUMPDEST JUMPDEST DUP1 DUP5 ADD SWAP3 POP DUP3 CALLDATALOAD SWAP2 POP PUSH8 0xFFFFFFFFFFFFFFFF DUP3 GT ISZERO PUSH2 0x3B77 JUMPI PUSH2 0x3B76 PUSH2 0x3B2E JUMP JUMPDEST JUMPDEST PUSH1 0x20 DUP4 ADD SWAP3 POP PUSH1 0x20 DUP3 MUL CALLDATASIZE SUB DUP4 SGT ISZERO PUSH2 0x3B93 JUMPI PUSH2 0x3B92 PUSH2 0x3B33 JUMP JUMPDEST JUMPDEST POP SWAP3 POP SWAP3 SWAP1 POP JUMP JUMPDEST PUSH1 0x0 DUP2 SWAP1 POP SWAP2 SWAP1 POP JUMP JUMPDEST PUSH1 0x0 DUP3 CALLDATALOAD PUSH1 0x1 PUSH1 0x40 SUB DUP4 CALLDATASIZE SUB SUB DUP2 SLT PUSH2 0x3BC1 JUMPI PUSH2 0x3BC0 PUSH2 0x3B29 JUMP JUMPDEST JUMPDEST DUP1 DUP4 ADD SWAP2 POP POP SWAP3 SWAP2 POP POP JUMP JUMPDEST PUSH1 0x0 DUP2 SLOAD SWAP1 POP SWAP2 SWAP1 POP JUMP JUMPDEST PUSH1 0x0 PUSH2 0x3BE3 DUP3 PUSH2 0x1EA3 JUMP JUMPDEST SWAP2 POP PUSH2 0x3BEE DUP4 PUSH2 0x1EA3 JUMP JUMPDEST SWAP3 POP DUP3 DUP3 MUL PUSH2 0x3BFC DUP2 PUSH2 0x1EA3 JUMP JUMPDEST SWAP2 POP DUP3 DUP3 DIV DUP5 EQ DUP4 ISZERO OR PUSH2 0x3C13 JUMPI PUSH2 0x3C12 PUSH2 0x381E JUMP JUMPDEST JUMPDEST POP SWAP3 SWAP2 POP POP JUMP JUMPDEST PUSH1 0x0 DUP2 SWAP1 POP PUSH2 0x3C2A DUP3 PUSH1 0x2 PUSH2 0x3BD8 JUMP JUMPDEST SWAP1 POP SWAP2 SWAP1 POP JUMP JUMPDEST PUSH1 0x0 DUP2 SWAP1 POP DUP2 PUSH1 0x0 MSTORE PUSH1 0x20 PUSH1 0x0 KECCAK256 SWAP1 POP SWAP2 SWAP1 POP JUMP JUMPDEST PUSH1 0x0 DUP2 SWAP1 POP DUP2 PUSH1 0x0 MSTORE PUSH1 0x20 PUSH1 0x0 KECCAK256 SWAP1 POP SWAP2 SWAP1 POP JUMP JUMPDEST PUSH1 0x0 DUP3 DUP3 SHR SWAP1 POP SWAP3 SWAP2 POP POP JUMP JUMPDEST PUSH2 0x3C98 PUSH32 0xFFFFFFFFFFFFFFFFFFFFFFFFFFFFFFFFFFFFFFFFFFFFFFFFFFFFFFFFFFFFFFFF DUP4 PUSH1 0x20 SUB PUSH1 0x8 MUL PUSH2 0x3C5B JUMP JUMPDEST DUP2 SLOAD DUP2 AND DUP3 SSTORE POP POP POP JUMP JUMPDEST PUSH1 0x0 DUP3 DUP3 SHL SWAP1 POP SWAP3 SWAP2 POP POP JUMP JUMPDEST PUSH1 0x0 PUSH1 0x8 DUP4 MUL PUSH2 0x3CE0 PUSH32 0xFFFFFFFFFFFFFFFFFFFFFFFFFFFFFFFFFFFFFFFFFFFFFFFFFFFFFFFFFFFFFFFF DUP3 PUSH2 0x3CA3 JUMP JUMPDEST PUSH2 0x3CEA DUP7 DUP4 PUSH2 0x3CA3 JUMP JUMPDEST SWAP6 POP DUP1 NOT DUP5 AND SWAP4 POP DUP1 DUP7 AND DUP5 OR SWAP3 POP POP POP SWAP4 SWAP3 POP POP POP JUMP JUMPDEST PUSH1 0x0 PUSH2 0x3D1D PUSH2 0x3D18 PUSH2 0x3D13 DUP5 PUSH2 0x1EA3 JUMP JUMPDEST PUSH2 0x39DD JUMP JUMPDEST PUSH2 0x1EA3 JUMP JUMPDEST SWAP1 POP SWAP2 SWAP1 POP JUMP JUMPDEST PUSH1 0x0 DUP2 SWAP1 POP SWAP2 SWAP1 POP JUMP JUMPDEST PUSH2 0x3D37 DUP4 PUSH2 0x3D02 JUMP JUMPDEST PUSH2 0x3D4B PUSH2 0x3D43 DUP3 PUSH2 0x3D24 JUMP JUMPDEST DUP5 DUP5 SLOAD PUSH2 0x3CB0 JUMP JUMPDEST DUP3 SSTORE POP POP POP POP JUMP JUMPDEST PUSH1 0x0 SWAP1 JUMP JUMPDEST PUSH2 0x3D60 PUSH2 0x3D53 JUMP JUMPDEST PUSH2 0x3D6B DUP2 DUP5 DUP5 PUSH2 0x3D2E JUMP JUMPDEST POP POP POP JUMP JUMPDEST JUMPDEST DUP2 DUP2 LT ISZERO PUSH2 0x3D8F JUMPI PUSH2 0x3D84 PUSH1 0x0 DUP3 PUSH2 0x3D58 JUMP JUMPDEST PUSH1 0x1 DUP2 ADD SWAP1 POP PUSH2 0x3D71 JUMP JUMPDEST POP POP JUMP JUMPDEST PUSH1 0x0 PUSH2 0x3DA4 PUSH1 0x0 NOT DUP5 PUSH1 0x8 MUL PUSH2 0x3C5B JUMP JUMPDEST NOT DUP1 DUP4 AND SWAP2 POP POP SWAP3 SWAP2 POP POP JUMP JUMPDEST PUSH1 0x0 PUSH2 0x3DBD DUP4 DUP4 PUSH2 0x3D93 JUMP JUMPDEST SWAP2 POP DUP3 PUSH1 0x2 MUL DUP3 OR SWAP1 POP SWAP3 SWAP2 POP POP JUMP JUMPDEST PUSH2 0x3DD6 DUP2 PUSH2 0x3C46 JUMP JUMPDEST PUSH2 0x3DE1 DUP4 DUP3 SLOAD PUSH2 0x3DB1 JUMP JUMPDEST DUP1 DUP4 SSTORE PUSH1 0x0 DUP3 SSTORE POP POP POP POP JUMP JUMPDEST PUSH1 0x0 PUSH1 0x20 PUSH1 0x1F DUP4 ADD DIV SWAP1 POP SWAP2 SWAP1 POP JUMP JUMPDEST PUSH1 0x20 DUP5 LT PUSH1 0x0 DUP2 EQ PUSH2 0x3E59 JUMPI PUSH1 0x1F DUP5 GT PUSH1 0x1 DUP2 EQ PUSH2 0x3E27 JUMPI PUSH2 0x3E20 DUP7 DUP6 PUSH2 0x3DB1 JUMP JUMPDEST DUP4 SSTORE PUSH2 0x3E53 JUMP JUMPDEST PUSH2 0x3E30 DUP4 PUSH2 0x3C46 JUMP JUMPDEST PUSH2 0x3E47 PUSH2 0x3E3C DUP8 PUSH2 0x3DEE JUMP JUMPDEST DUP3 ADD PUSH1 0x1 DUP4 ADD PUSH2 0x3D70 JUMP JUMPDEST PUSH2 0x3E51 DUP8 DUP6 PUSH2 0x3DCD JUMP JUMPDEST POP JUMPDEST POP PUSH2 0x3EA6 JUMP JUMPDEST PUSH2 0x3E62 DUP3 PUSH2 0x3C46 JUMP JUMPDEST PUSH2 0x3E6B DUP7 PUSH2 0x3DEE JUMP JUMPDEST DUP2 ADD PUSH1 0x1F DUP8 AND DUP1 ISZERO PUSH2 0x3E85 JUMPI PUSH2 0x3E84 DUP2 PUSH1 0x1 DUP5 SUB PUSH2 0x3C68 JUMP JUMPDEST JUMPDEST PUSH2 0x3E99 PUSH2 0x3E91 DUP9 PUSH2 0x3DEE JUMP JUMPDEST DUP5 ADD DUP4 PUSH2 0x3D70 JUMP JUMPDEST PUSH1 0x1 DUP9 PUSH1 0x2 MUL OR DUP6 SSTORE POP POP POP JUMPDEST POP POP POP POP POP JUMP JUMPDEST PUSH9 0x10000000000000000 DUP5 GT ISZERO PUSH2 0x3EC7 JUMPI PUSH2 0x3EC6 PUSH2 0x27A7 JUMP JUMPDEST JUMPDEST PUSH1 0x20 DUP4 LT PUSH1 0x0 DUP2 EQ PUSH2 0x3F12 JUMPI PUSH1 0x20 DUP6 LT PUSH1 0x0 DUP2 EQ PUSH2 0x3EF0 JUMPI PUSH2 0x3EE9 DUP7 DUP6 PUSH2 0x3DB1 JUMP JUMPDEST DUP4 SSTORE PUSH2 0x3F0C JUMP JUMPDEST DUP4 PUSH1 0xFF NOT AND SWAP4 POP DUP4 PUSH2 0x3F01 DUP5 PUSH2 0x3C46 JUMP JUMPDEST SSTORE PUSH1 0x1 DUP7 PUSH1 0x2 MUL ADD DUP4 SSTORE JUMPDEST POP PUSH2 0x3F1C JUMP JUMPDEST PUSH1 0x1 DUP6 PUSH1 0x2 MUL ADD DUP3 SSTORE JUMPDEST POP POP POP POP POP JUMP JUMPDEST DUP1 SLOAD PUSH2 0x3F2E DUP2 PUSH2 0x36DE JUMP JUMPDEST DUP1 DUP5 GT ISZERO PUSH2 0x3F43 JUMPI PUSH2 0x3F42 DUP5 DUP3 DUP5 DUP7 PUSH2 0x3EAD JUMP JUMPDEST JUMPDEST DUP1 DUP5 LT ISZERO PUSH2 0x3F58 JUMPI PUSH2 0x3F57 DUP5 DUP3 DUP5 DUP7 PUSH2 0x3DFE JUMP JUMPDEST JUMPDEST POP POP POP POP JUMP JUMPDEST DUP2 DUP2 LT ISZERO PUSH2 0x3F7C JUMPI PUSH2 0x3F71 PUSH1 0x0 DUP3 PUSH2 0x3D58 JUMP JUMPDEST PUSH1 0x1 DUP2 ADD SWAP1 POP PUSH2 0x3F5E JUMP JUMPDEST POP POP JUMP JUMPDEST PUSH2 0x3F8B PUSH1 0x0 DUP3 PUSH2 0x3F23 JUMP JUMPDEST POP JUMP JUMPDEST PUSH1 0x0 DUP3 EQ PUSH2 0x3F9F JUMPI PUSH2 0x3F9E PUSH2 0x3A65 JUMP JUMPDEST JUMPDEST PUSH2 0x3FA8 DUP2 PUSH2 0x3F80 JUMP JUMPDEST POP POP JUMP JUMPDEST PUSH2 0x3FB9 PUSH1 0x0 DUP1 DUP4 ADD PUSH2 0x3F8E JUMP JUMPDEST PUSH1 0x0 PUSH1 0x1 DUP3 ADD SSTORE POP JUMP JUMPDEST PUSH1 0x0 DUP3 EQ PUSH2 0x3FD4 JUMPI PUSH2 0x3FD3 PUSH2 0x3A65 JUMP JUMPDEST JUMPDEST PUSH2 0x3FDD DUP2 PUSH2 0x3FAC JUMP JUMPDEST POP POP JUMP JUMPDEST JUMPDEST DUP2 DUP2 LT ISZERO PUSH2 0x4000 JUMPI PUSH2 0x3FF5 PUSH1 0x0 DUP3 PUSH2 0x3FC3 JUMP JUMPDEST PUSH1 0x2 DUP2 ADD SWAP1 POP PUSH2 0x3FE2 JUMP JUMPDEST POP POP JUMP JUMPDEST DUP2 DUP4 LT ISZERO PUSH2 0x403D JUMPI PUSH2 0x4015 DUP3 PUSH2 0x3C1A JUMP JUMPDEST PUSH2 0x401E DUP5 PUSH2 0x3C1A JUMP JUMPDEST PUSH2 0x4027 DUP4 PUSH2 0x3C31 JUMP JUMPDEST DUP2 DUP2 ADD DUP4 DUP3 ADD PUSH2 0x4037 DUP2 DUP4 PUSH2 0x3FE1 JUMP JUMPDEST POP POP POP POP POP JUMPDEST POP POP POP JUMP JUMPDEST PUSH9 0x10000000000000000 DUP3 GT ISZERO PUSH2 0x405C JUMPI PUSH2 0x405B PUSH2 0x27A7 JUMP JUMPDEST JUMPDEST PUSH2 0x4065 DUP2 PUSH2 0x3BCD JUMP JUMPDEST DUP3 DUP3 SSTORE PUSH2 0x4073 DUP4 DUP3 DUP5 PUSH2 0x4004 JUMP JUMPDEST POP POP POP JUMP JUMPDEST PUSH1 0x0 DUP3 SWAP1 POP SWAP3 SWAP2 POP POP JUMP JUMPDEST PUSH1 0x0 DUP1 DUP4 CALLDATALOAD PUSH1 0x1 PUSH1 0x20 SUB DUP5 CALLDATASIZE SUB SUB DUP2 SLT PUSH2 0x40A0 JUMPI PUSH2 0x409F PUSH2 0x3B29 JUMP JUMPDEST JUMPDEST DUP1 DUP5 ADD SWAP3 POP DUP3 CALLDATALOAD SWAP2 POP PUSH8 0xFFFFFFFFFFFFFFFF DUP3 GT ISZERO PUSH2 0x40C2 JUMPI PUSH2 0x40C1 PUSH2 0x3B2E JUMP JUMPDEST JUMPDEST PUSH1 0x20 DUP4 ADD SWAP3 POP PUSH1 0x1 DUP3 MUL CALLDATASIZE SUB DUP4 SGT ISZERO PUSH2 0x40DE JUMPI PUSH2 0x40DD PUSH2 0x3B33 JUMP JUMPDEST JUMPDEST POP SWAP3 POP SWAP3 SWAP1 POP JUMP JUMPDEST PUSH1 0x0 DUP3 SWAP1 POP SWAP3 SWAP2 POP POP JUMP JUMPDEST PUSH1 0x1F DUP3 GT ISZERO PUSH2 0x4132 JUMPI PUSH2 0x4103 DUP2 PUSH2 0x3C46 JUMP JUMPDEST PUSH2 0x410C DUP5 PUSH2 0x3DEE JUMP JUMPDEST DUP2 ADD PUSH1 0x20 DUP6 LT ISZERO PUSH2 0x411B JUMPI DUP2 SWAP1 POP JUMPDEST PUSH2 0x412F PUSH2 0x4127 DUP6 PUSH2 0x3DEE JUMP JUMPDEST DUP4 ADD DUP3 PUSH2 0x3D70 JUMP JUMPDEST POP POP JUMPDEST POP POP POP JUMP JUMPDEST PUSH2 0x4141 DUP4 DUP4 PUSH2 0x40E6 JUMP JUMPDEST PUSH8 0xFFFFFFFFFFFFFFFF DUP2 GT ISZERO PUSH2 0x415A JUMPI PUSH2 0x4159 PUSH2 0x27A7 JUMP JUMPDEST JUMPDEST PUSH2 0x4164 DUP3 SLOAD PUSH2 0x36DE JUMP JUMPDEST PUSH2 0x416F DUP3 DUP3 DUP6 PUSH2 0x40F1 JUMP JUMPDEST PUSH1 0x0 PUSH1 0x1F DUP4 GT PUSH1 0x1 DUP2 EQ PUSH2 0x419E JUMPI PUSH1 0x0 DUP5 ISZERO PUSH2 0x418C JUMPI DUP3 DUP8 ADD CALLDATALOAD SWAP1 POP JUMPDEST PUSH2 0x4196 DUP6 DUP3 PUSH2 0x3DB1 JUMP JUMPDEST DUP7 SSTORE POP PUSH2 0x41FE JUMP JUMPDEST PUSH1 0x1F NOT DUP5 AND PUSH2 0x41AC DUP7 PUSH2 0x3C46 JUMP JUMPDEST PUSH1 0x0 JUMPDEST DUP3 DUP2 LT ISZERO PUSH2 0x41D4 JUMPI DUP5 DUP10 ADD CALLDATALOAD DUP3 SSTORE PUSH1 0x1 DUP3 ADD SWAP2 POP PUSH1 0x20 DUP6 ADD SWAP5 POP PUSH1 0x20 DUP2 ADD SWAP1 POP PUSH2 0x41AF JUMP JUMPDEST DUP7 DUP4 LT ISZERO PUSH2 0x41F1 JUMPI DUP5 DUP10 ADD CALLDATALOAD PUSH2 0x41ED PUSH1 0x1F DUP10 AND DUP3 PUSH2 0x3D93 JUMP JUMPDEST DUP4 SSTORE POP JUMPDEST PUSH1 0x1 PUSH1 0x2 DUP9 MUL ADD DUP9 SSTORE POP POP POP JUMPDEST POP POP POP POP POP POP POP JUMP JUMPDEST PUSH2 0x4212 DUP4 DUP4 DUP4 PUSH2 0x4137 JUMP JUMPDEST POP POP POP JUMP JUMPDEST PUSH1 0x0 DUP2 CALLDATALOAD PUSH2 0x4224 DUP2 PUSH2 0x2386 JUMP JUMPDEST DUP1 SWAP2 POP POP SWAP2 SWAP1 POP JUMP JUMPDEST PUSH1 0x0 PUSH20 0xFFFFFFFFFFFFFFFFFFFFFFFFFFFFFFFFFFFFFFFF PUSH2 0x424D DUP5 PUSH2 0x3ABA JUMP JUMPDEST SWAP4 POP DUP1 NOT DUP4 AND SWAP3 POP DUP1 DUP5 AND DUP4 OR SWAP2 POP POP SWAP3 SWAP2 POP POP JUMP JUMPDEST PUSH1 0x0 PUSH2 0x426E DUP3 PUSH2 0x3A09 JUMP JUMPDEST SWAP1 POP SWAP2 SWAP1 POP JUMP JUMPDEST PUSH1 0x0 DUP2 SWAP1 POP SWAP2 SWAP1 POP JUMP JUMPDEST PUSH2 0x4288 DUP3 PUSH2 0x4263 JUMP JUMPDEST PUSH2 0x429B PUSH2 0x4294 DUP3 PUSH2 0x4275 JUMP JUMPDEST DUP4 SLOAD PUSH2 0x422D JUMP JUMPDEST DUP3 SSTORE POP POP POP JUMP JUMPDEST PUSH1 0x0 DUP2 ADD PUSH1 0x0 DUP4 ADD PUSH2 0x42B4 DUP2 DUP6 PUSH2 0x4083 JUMP JUMPDEST PUSH2 0x42BF DUP2 DUP4 DUP7 PUSH2 0x4207 JUMP JUMPDEST POP POP POP POP PUSH1 0x1 DUP2 ADD PUSH1 0x20 DUP4 ADD DUP1 PUSH2 0x42D5 DUP2 PUSH2 0x4217 JUMP JUMPDEST SWAP1 POP PUSH2 0x42E1 DUP2 DUP5 PUSH2 0x427F JUMP JUMPDEST POP POP POP POP POP JUMP JUMPDEST PUSH2 0x42F2 DUP3 DUP3 PUSH2 0x42A2 JUMP JUMPDEST POP POP JUMP JUMPDEST PUSH2 0x4300 DUP4 DUP4 PUSH2 0x4078 JUMP JUMPDEST PUSH2 0x430A DUP2 DUP4 PUSH2 0x4042 JUMP JUMPDEST PUSH2 0x4313 DUP4 PUSH2 0x3B9B JUMP JUMPDEST PUSH2 0x431C DUP4 PUSH2 0x3C31 JUMP JUMPDEST PUSH1 0x0 JUMPDEST DUP4 DUP2 LT ISZERO PUSH2 0x4353 JUMPI PUSH2 0x4331 DUP4 DUP8 PUSH2 0x3BA5 JUMP JUMPDEST PUSH2 0x433B DUP2 DUP5 PUSH2 0x42E8 JUMP JUMPDEST PUSH1 0x20 DUP5 ADD SWAP4 POP PUSH1 0x2 DUP4 ADD SWAP3 POP POP PUSH1 0x1 DUP2 ADD SWAP1 POP PUSH2 0x431F JUMP JUMPDEST POP POP POP POP POP POP POP JUMP JUMPDEST PUSH2 0x4367 DUP4 DUP4 DUP4 PUSH2 0x42F6 JUMP JUMPDEST POP POP POP JUMP JUMPDEST PUSH1 0x0 DUP2 ADD PUSH1 0x0 DUP4 ADD DUP1 PUSH2 0x437E DUP2 PUSH2 0x3AA4 JUMP JUMPDEST SWAP1 POP PUSH2 0x438A DUP2 DUP5 PUSH2 0x3B06 JUMP JUMPDEST POP POP POP PUSH1 0x1 DUP2 ADD PUSH1 0x20 DUP4 ADD PUSH2 0x439F DUP2 DUP6 PUSH2 0x3B38 JUMP JUMPDEST PUSH2 0x43AA DUP2 DUP4 DUP7 PUSH2 0x435C JUMP JUMPDEST POP POP POP POP PUSH1 0x2 DUP2 ADD PUSH1 0x40 DUP4 ADD PUSH2 0x43C0 DUP2 DUP6 PUSH2 0x4083 JUMP JUMPDEST PUSH2 0x43CB DUP2 DUP4 DUP7 PUSH2 0x4207 JUMP JUMPDEST POP POP POP POP POP POP JUMP JUMPDEST PUSH2 0x43DD DUP3 DUP3 PUSH2 0x436C JUMP JUMPDEST POP POP JUMP JUMPDEST PUSH1 0x0 DUP2 CALLDATALOAD SWAP1 POP PUSH2 0x43F0 DUP2 PUSH2 0x3A94 JUMP JUMPDEST SWAP3 SWAP2 POP POP JUMP JUMPDEST PUSH1 0x0 PUSH2 0x4405 PUSH1 0x20 DUP5 ADD DUP5 PUSH2 0x43E1 JUMP JUMPDEST SWAP1 POP SWAP3 SWAP2 POP POP JUMP JUMPDEST PUSH1 0x0 DUP1 REVERT JUMPDEST PUSH1 0x0 DUP1 REVERT JUMPDEST PUSH1 0x0 DUP1 REVERT JUMPDEST PUSH1 0x0 DUP1 DUP4 CALLDATALOAD PUSH1 0x1 PUSH1 0x20 SUB DUP5 CALLDATASIZE SUB SUB DUP2 SLT PUSH2 0x4439 JUMPI PUSH2 0x4438 PUSH2 0x4417 JUMP JUMPDEST JUMPDEST DUP4 DUP2 ADD SWAP3 POP DUP3 CALLDATALOAD SWAP2 POP PUSH1 0x20 DUP4 ADD SWAP3 POP PUSH8 0xFFFFFFFFFFFFFFFF DUP3 GT ISZERO PUSH2 0x4461 JUMPI PUSH2 0x4460 PUSH2 0x440D JUMP JUMPDEST JUMPDEST PUSH1 0x20 DUP3 MUL CALLDATASIZE SUB DUP4 SGT ISZERO PUSH2 0x4477 JUMPI PUSH2 0x4476 PUSH2 0x4412 JUMP JUMPDEST JUMPDEST POP SWAP3 POP SWAP3 SWAP1 POP JUMP JUMPDEST PUSH1 0x0 DUP1 DUP4 CALLDATALOAD PUSH1 0x1 PUSH1 0x20 SUB DUP5 CALLDATASIZE SUB SUB DUP2 SLT PUSH2 0x449C JUMPI PUSH2 0x449B PUSH2 0x4417 JUMP JUMPDEST JUMPDEST DUP4 DUP2 ADD SWAP3 POP DUP3 CALLDATALOAD SWAP2 POP PUSH1 0x20 DUP4 ADD SWAP3 POP PUSH8 0xFFFFFFFFFFFFFFFF DUP3 GT ISZERO PUSH2 0x44C4 JUMPI PUSH2 0x44C3 PUSH2 0x440D JUMP JUMPDEST JUMPDEST PUSH1 0x1 DUP3 MUL CALLDATASIZE SUB DUP4 SGT ISZERO PUSH2 0x44DA JUMPI PUSH2 0x44D9 PUSH2 0x4412 JUMP JUMPDEST JUMPDEST POP SWAP3 POP SWAP3 SWAP1 POP JUMP JUMPDEST PUSH1 0x0 PUSH2 0x44EE DUP4 DUP6 PUSH2 0x1FA6 JUMP JUMPDEST SWAP4 POP PUSH2 0x44FB DUP4 DUP6 DUP5 PUSH2 0x2862 JUMP JUMPDEST PUSH2 0x4504 DUP4 PUSH2 0x1FE1 JUMP JUMPDEST DUP5 ADD SWAP1 POP SWAP4 SWAP3 POP POP POP JUMP JUMPDEST PUSH1 0x0 PUSH2 0x451E PUSH1 0x20 DUP5 ADD DUP5 PUSH2 0x239D JUMP JUMPDEST SWAP1 POP SWAP3 SWAP2 POP POP JUMP JUMPDEST PUSH1 0x0 PUSH1 0x40 DUP4 ADD PUSH2 0x4539 PUSH1 0x0 DUP5 ADD DUP5 PUSH2 0x447F JUMP JUMPDEST DUP6 DUP4 SUB PUSH1 0x0 DUP8 ADD MSTORE PUSH2 0x454C DUP4 DUP3 DUP5 PUSH2 0x44E2 JUMP JUMPDEST SWAP3 POP POP POP PUSH2 0x455D PUSH1 0x20 DUP5 ADD DUP5 PUSH2 0x450F JUMP JUMPDEST PUSH2 0x456A PUSH1 0x20 DUP7 ADD DUP3 PUSH2 0x2555 JUMP JUMPDEST POP DUP1 SWAP2 POP POP SWAP3 SWAP2 POP POP JUMP JUMPDEST PUSH1 0x0 PUSH2 0x4581 DUP4 DUP4 PUSH2 0x4526 JUMP JUMPDEST SWAP1 POP SWAP3 SWAP2 POP POP JUMP JUMPDEST PUSH1 0x0 DUP3 CALLDATALOAD PUSH1 0x1 PUSH1 0x40 SUB DUP4 CALLDATASIZE SUB SUB DUP2 SLT PUSH2 0x45A5 JUMPI PUSH2 0x45A4 PUSH2 0x4417 JUMP JUMPDEST JUMPDEST DUP3 DUP2 ADD SWAP2 POP POP SWAP3 SWAP2 POP POP JUMP JUMPDEST PUSH1 0x0 PUSH1 0x20 DUP3 ADD SWAP1 POP SWAP2 SWAP1 POP JUMP JUMPDEST PUSH1 0x0 PUSH2 0x45CA DUP4 DUP6 PUSH2 0x2534 JUMP JUMPDEST SWAP4 POP DUP4 PUSH1 0x20 DUP5 MUL DUP6 ADD PUSH2 0x45DC DUP5 PUSH2 0x3B9B JUMP JUMPDEST DUP1 PUSH1 0x0 JUMPDEST DUP8 DUP2 LT ISZERO PUSH2 0x4620 JUMPI DUP5 DUP5 SUB DUP10 MSTORE PUSH2 0x45F7 DUP3 DUP5 PUSH2 0x4589 JUMP JUMPDEST PUSH2 0x4601 DUP6 DUP3 PUSH2 0x4575 JUMP JUMPDEST SWAP5 POP PUSH2 0x460C DUP4 PUSH2 0x45B1 JUMP JUMPDEST SWAP3 POP PUSH1 0x20 DUP11 ADD SWAP10 POP POP PUSH1 0x1 DUP2 ADD SWAP1 POP PUSH2 0x45E0 JUMP JUMPDEST POP DUP3 SWAP8 POP DUP8 SWAP5 POP POP POP POP POP SWAP4 SWAP3 POP POP POP JUMP JUMPDEST PUSH1 0x0 PUSH1 0x60 DUP4 ADD PUSH2 0x4645 PUSH1 0x0 DUP5 ADD DUP5 PUSH2 0x43F6 JUMP JUMPDEST PUSH2 0x4652 PUSH1 0x0 DUP7 ADD DUP3 PUSH2 0x251A JUMP JUMPDEST POP PUSH2 0x4660 PUSH1 0x20 DUP5 ADD DUP5 PUSH2 0x441C JUMP JUMPDEST DUP6 DUP4 SUB PUSH1 0x20 DUP8 ADD MSTORE PUSH2 0x4673 DUP4 DUP3 DUP5 PUSH2 0x45BE JUMP JUMPDEST SWAP3 POP POP POP PUSH2 0x4684 PUSH1 0x40 DUP5 ADD DUP5 PUSH2 0x447F JUMP JUMPDEST DUP6 DUP4 SUB PUSH1 0x40 DUP8 ADD MSTORE PUSH2 0x4697 DUP4 DUP3 DUP5 PUSH2 0x44E2 JUMP JUMPDEST SWAP3 POP POP POP DUP1 SWAP2 POP POP SWAP3 SWAP2 POP POP JUMP JUMPDEST PUSH1 0x0 PUSH1 0x40 DUP3 ADD SWAP1 POP PUSH2 0x46BA PUSH1 0x0 DUP4 ADD DUP6 PUSH2 0x1EAD JUMP JUMPDEST DUP2 DUP2 SUB PUSH1 0x20 DUP4 ADD MSTORE PUSH2 0x46CC DUP2 DUP5 PUSH2 0x4632 JUMP JUMPDEST SWAP1 POP SWAP4 SWAP3 POP POP POP JUMP JUMPDEST PUSH1 0x0 PUSH1 0x40 DUP3 ADD SWAP1 POP PUSH2 0x46EA PUSH1 0x0 DUP4 ADD DUP6 PUSH2 0x1EAD JUMP JUMPDEST PUSH2 0x46F7 PUSH1 0x20 DUP4 ADD DUP5 PUSH2 0x1E94 JUMP JUMPDEST SWAP4 SWAP3 POP POP POP JUMP JUMPDEST PUSH1 0x0 DUP1 DUP4 CALLDATALOAD PUSH1 0x1 PUSH1 0x20 SUB DUP5 CALLDATASIZE SUB SUB DUP2 SLT PUSH2 0x471B JUMPI PUSH2 0x471A PUSH2 0x3B29 JUMP JUMPDEST JUMPDEST DUP1 DUP5 ADD SWAP3 POP DUP3 CALLDATALOAD SWAP2 POP PUSH8 0xFFFFFFFFFFFFFFFF DUP3 GT ISZERO PUSH2 0x473D JUMPI PUSH2 0x473C PUSH2 0x3B2E JUMP JUMPDEST JUMPDEST PUSH1 0x20 DUP4 ADD SWAP3 POP PUSH1 0x20 DUP3 MUL CALLDATASIZE SUB DUP4 SGT ISZERO PUSH2 0x4759 JUMPI PUSH2 0x4758 PUSH2 0x3B33 JUMP JUMPDEST JUMPDEST POP SWAP3 POP SWAP3 SWAP1 POP JUMP JUMPDEST PUSH1 0x0 DUP2 SWAP1 POP SWAP2 SWAP1 POP JUMP JUMPDEST PUSH1 0x0 DUP2 SLOAD SWAP1 POP SWAP2 SWAP1 POP JUMP JUMPDEST PUSH1 0x0 DUP2 SWAP1 POP PUSH1 0x1 DUP1 PUSH1 0x1 SUB DUP4 ADD DIV SWAP1 POP SWAP2 SWAP1 POP JUMP JUMPDEST PUSH1 0x0 DUP2 SWAP1 POP DUP2 PUSH1 0x0 MSTORE PUSH1 0x20 PUSH1 0x0 KECCAK256 SWAP1 POP SWAP2 SWAP1 POP JUMP JUMPDEST JUMPDEST DUP2 DUP2 LT ISZERO PUSH2 0x47BF JUMPI PUSH2 0x47B4 PUSH1 0x0 DUP3 PUSH2 0x3F8E JUMP JUMPDEST PUSH1 0x1 DUP2 ADD SWAP1 POP PUSH2 0x47A1 JUMP JUMPDEST POP POP JUMP JUMPDEST DUP2 DUP4 LT ISZERO PUSH2 0x47FC JUMPI PUSH2 0x47D4 DUP3 PUSH2 0x4776 JUMP JUMPDEST PUSH2 0x47DD DUP5 PUSH2 0x4776 JUMP JUMPDEST PUSH2 0x47E6 DUP4 PUSH2 0x478B JUMP JUMPDEST DUP2 DUP2 ADD DUP4 DUP3 ADD PUSH2 0x47F6 DUP2 DUP4 PUSH2 0x47A0 JUMP JUMPDEST POP POP POP POP POP JUMPDEST POP POP POP JUMP JUMPDEST PUSH9 0x10000000000000000 DUP3 GT ISZERO PUSH2 0x481B JUMPI PUSH2 0x481A PUSH2 0x27A7 JUMP JUMPDEST JUMPDEST PUSH2 0x4824 DUP2 PUSH2 0x476B JUMP JUMPDEST DUP3 DUP3 SSTORE PUSH2 0x4832 DUP4 DUP3 DUP5 PUSH2 0x47C3 JUMP JUMPDEST POP POP POP JUMP JUMPDEST PUSH1 0x0 DUP3 SWAP1 POP SWAP3 SWAP2 POP POP JUMP JUMPDEST PUSH2 0x484C DUP4 DUP4 PUSH2 0x4837 JUMP JUMPDEST PUSH2 0x4856 DUP2 DUP4 PUSH2 0x4801 JUMP JUMPDEST PUSH2 0x485F DUP4 PUSH2 0x4761 JUMP JUMPDEST PUSH2 0x4868 DUP4 PUSH2 0x478B JUMP JUMPDEST PUSH1 0x0 JUMPDEST DUP4 DUP2 LT ISZERO PUSH2 0x48A1 JUMPI PUSH2 0x487D DUP4 DUP8 PUSH2 0x4083 JUMP JUMPDEST PUSH2 0x4888 DUP2 DUP4 DUP7 PUSH2 0x4207 JUMP JUMPDEST PUSH1 0x20 DUP6 ADD SWAP5 POP PUSH1 0x1 DUP5 ADD SWAP4 POP POP POP PUSH1 0x1 DUP2 ADD SWAP1 POP PUSH2 0x486B JUMP JUMPDEST POP POP POP POP POP POP POP JUMP JUMPDEST PUSH2 0x48B5 DUP4 DUP4 DUP4 PUSH2 0x4842 JUMP JUMPDEST POP POP POP JUMP JUMPDEST PUSH1 0x0 DUP2 CALLDATALOAD PUSH2 0x48C7 DUP2 PUSH2 0x2EC1 JUMP JUMPDEST DUP1 SWAP2 POP POP SWAP2 SWAP1 POP JUMP JUMPDEST PUSH1 0x0 PUSH2 0x48DB DUP3 PUSH2 0x240C JUMP JUMPDEST SWAP1 POP SWAP2 SWAP1 POP JUMP JUMPDEST PUSH1 0x0 DUP2 SWAP1 POP SWAP2 SWAP1 POP JUMP JUMPDEST PUSH2 0x48F5 DUP3 PUSH2 0x48D0 JUMP JUMPDEST PUSH2 0x4908 PUSH2 0x4901 DUP3 PUSH2 0x48E2 JUMP JUMPDEST DUP4 SLOAD PUSH2 0x3AC7 JUMP JUMPDEST DUP3 SSTORE POP POP POP JUMP JUMPDEST PUSH1 0x0 DUP2 ADD PUSH1 0x0 DUP4 ADD PUSH2 0x4921 DUP2 DUP6 PUSH2 0x4083 JUMP JUMPDEST PUSH2 0x492C DUP2 DUP4 DUP7 PUSH2 0x4207 JUMP JUMPDEST POP POP POP POP PUSH1 0x1 DUP2 ADD PUSH1 0x20 DUP4 ADD PUSH2 0x4942 DUP2 DUP6 PUSH2 0x4083 JUMP JUMPDEST PUSH2 0x494D DUP2 DUP4 DUP7 PUSH2 0x4207 JUMP JUMPDEST POP POP POP POP PUSH1 0x2 DUP2 ADD PUSH1 0x40 DUP4 ADD PUSH2 0x4963 DUP2 DUP6 PUSH2 0x4083 JUMP JUMPDEST PUSH2 0x496E DUP2 DUP4 DUP7 PUSH2 0x4207 JUMP JUMPDEST POP POP POP POP PUSH1 0x3 DUP2 ADD PUSH1 0x60 DUP4 ADD PUSH2 0x4984 DUP2 DUP6 PUSH2 0x46FE JUMP JUMPDEST PUSH2 0x498F DUP2 DUP4 DUP7 PUSH2 0x48AA JUMP JUMPDEST POP POP POP POP PUSH1 0x4 DUP2 ADD PUSH1 0x80 DUP4 ADD DUP1 PUSH2 0x49A5 DUP2 PUSH2 0x48BA JUMP JUMPDEST SWAP1 POP PUSH2 0x49B1 DUP2 DUP5 PUSH2 0x48EC JUMP JUMPDEST POP POP POP POP POP JUMP JUMPDEST PUSH2 0x49C2 DUP3 DUP3 PUSH2 0x490F JUMP JUMPDEST POP POP JUMP JUMPDEST PUSH32 0x4E487B7100000000000000000000000000000000000000000000000000000000 PUSH1 0x0 MSTORE PUSH1 0x32 PUSH1 0x4 MSTORE PUSH1 0x24 PUSH1 0x0 REVERT JUMPDEST PUSH2 0x49FE DUP2 PUSH2 0x26B5 JUMP JUMPDEST DUP3 MSTORE POP POP JUMP JUMPDEST PUSH1 0x0 PUSH1 0x40 DUP3 ADD SWAP1 POP PUSH2 0x4A19 PUSH1 0x0 DUP4 ADD DUP6 PUSH2 0x1EAD JUMP JUMPDEST PUSH2 0x4A26 PUSH1 0x20 DUP4 ADD DUP5 PUSH2 0x49F5 JUMP JUMPDEST SWAP4 SWAP3 POP POP POP JUMP JUMPDEST PUSH1 0x0 DUP1 DUP4 CALLDATALOAD PUSH1 0x1 PUSH1 0x20 SUB DUP5 CALLDATASIZE SUB SUB DUP2 SLT PUSH2 0x4A4A JUMPI PUSH2 0x4A49 PUSH2 0x4417 JUMP JUMPDEST JUMPDEST DUP4 DUP2 ADD SWAP3 POP DUP3 CALLDATALOAD SWAP2 POP PUSH1 0x20 DUP4 ADD SWAP3 POP PUSH8 0xFFFFFFFFFFFFFFFF DUP3 GT ISZERO PUSH2 0x4A72 JUMPI PUSH2 0x4A71 PUSH2 0x440D JUMP JUMPDEST JUMPDEST PUSH1 0x20 DUP3 MUL CALLDATASIZE SUB DUP4 SGT ISZERO PUSH2 0x4A88 JUMPI PUSH2 0x4A87 PUSH2 0x4412 JUMP JUMPDEST JUMPDEST POP SWAP3 POP SWAP3 SWAP1 POP JUMP JUMPDEST PUSH1 0x0 PUSH2 0x4A9D DUP5 DUP5 DUP5 PUSH2 0x44E2 JUMP JUMPDEST SWAP1 POP SWAP4 SWAP3 POP POP POP JUMP JUMPDEST PUSH1 0x0 PUSH1 0x20 DUP3 ADD SWAP1 POP SWAP2 SWAP1 POP JUMP JUMPDEST PUSH1 0x0 PUSH2 0x4ABF DUP4 DUP6 PUSH2 0x2036 JUMP JUMPDEST SWAP4 POP DUP4 PUSH1 0x20 DUP5 MUL DUP6 ADD PUSH2 0x4AD1 DUP5 PUSH2 0x4761 JUMP JUMPDEST DUP1 PUSH1 0x0 JUMPDEST DUP8 DUP2 LT ISZERO PUSH2 0x4B17 JUMPI DUP5 DUP5 SUB DUP10 MSTORE PUSH2 0x4AEC DUP3 DUP5 PUSH2 0x447F JUMP JUMPDEST PUSH2 0x4AF7 DUP7 DUP3 DUP5 PUSH2 0x4A90 JUMP JUMPDEST SWAP6 POP PUSH2 0x4B02 DUP5 PUSH2 0x4AA6 JUMP JUMPDEST SWAP4 POP PUSH1 0x20 DUP12 ADD SWAP11 POP POP POP PUSH1 0x1 DUP2 ADD SWAP1 POP PUSH2 0x4AD5 JUMP JUMPDEST POP DUP3 SWAP8 POP DUP8 SWAP5 POP POP POP POP POP SWAP4 SWAP3 POP POP POP JUMP JUMPDEST PUSH1 0x0 PUSH2 0x4B38 PUSH1 0x20 DUP5 ADD DUP5 PUSH2 0x2ED8 JUMP JUMPDEST SWAP1 POP SWAP3 SWAP2 POP POP JUMP JUMPDEST PUSH1 0x0 PUSH1 0xA0 DUP4 ADD PUSH2 0x4B53 PUSH1 0x0 DUP5 ADD DUP5 PUSH2 0x447F JUMP JUMPDEST DUP6 DUP4 SUB PUSH1 0x0 DUP8 ADD MSTORE PUSH2 0x4B66 DUP4 DUP3 DUP5 PUSH2 0x44E2 JUMP JUMPDEST SWAP3 POP POP POP PUSH2 0x4B77 PUSH1 0x20 DUP5 ADD DUP5 PUSH2 0x447F JUMP JUMPDEST DUP6 DUP4 SUB PUSH1 0x20 DUP8 ADD MSTORE PUSH2 0x4B8A DUP4 DUP3 DUP5 PUSH2 0x44E2 JUMP JUMPDEST SWAP3 POP POP POP PUSH2 0x4B9B PUSH1 0x40 DUP5 ADD DUP5 PUSH2 0x447F JUMP JUMPDEST DUP6 DUP4 SUB PUSH1 0x40 DUP8 ADD MSTORE PUSH2 0x4BAE DUP4 DUP3 DUP5 PUSH2 0x44E2 JUMP JUMPDEST SWAP3 POP POP POP PUSH2 0x4BBF PUSH1 0x60 DUP5 ADD DUP5 PUSH2 0x4A2D JUMP JUMPDEST DUP6 DUP4 SUB PUSH1 0x60 DUP8 ADD MSTORE PUSH2 0x4BD2 DUP4 DUP3 DUP5 PUSH2 0x4AB3 JUMP JUMPDEST SWAP3 POP POP POP PUSH2 0x4BE3 PUSH1 0x80 DUP5 ADD DUP5 PUSH2 0x4B29 JUMP JUMPDEST PUSH2 0x4BF0 PUSH1 0x80 DUP7 ADD DUP3 PUSH2 0x2418 JUMP JUMPDEST POP DUP1 SWAP2 POP POP SWAP3 SWAP2 POP POP JUMP JUMPDEST PUSH1 0x0 PUSH1 0x40 DUP3 ADD SWAP1 POP PUSH2 0x4C10 PUSH1 0x0 DUP4 ADD DUP6 PUSH2 0x1EAD JUMP JUMPDEST DUP2 DUP2 SUB PUSH1 0x20 DUP4 ADD MSTORE PUSH2 0x4C22 DUP2 DUP5 PUSH2 0x4B40 JUMP JUMPDEST SWAP1 POP SWAP4 SWAP3 POP POP POP JUMP JUMPDEST PUSH32 0x4E487B7100000000000000000000000000000000000000000000000000000000 PUSH1 0x0 MSTORE PUSH1 0x31 PUSH1 0x4 MSTORE PUSH1 0x24 PUSH1 0x0 REVERT JUMPDEST PUSH1 0x0 PUSH1 0x40 DUP3 ADD SWAP1 POP PUSH2 0x4C6F PUSH1 0x0 DUP4 ADD DUP6 PUSH2 0x1EAD JUMP JUMPDEST PUSH2 0x4C7C PUSH1 0x20 DUP4 ADD DUP5 PUSH2 0x1EAD JUMP JUMPDEST SWAP4 SWAP3 POP POP POP JUMP JUMPDEST PUSH1 0x0 PUSH2 0x4C8E DUP3 PUSH2 0x1EA3 JUMP JUMPDEST SWAP2 POP PUSH2 0x4C99 DUP4 PUSH2 0x1EA3 JUMP JUMPDEST SWAP3 POP DUP3 DUP3 ADD SWAP1 POP DUP1 DUP3 GT ISZERO PUSH2 0x4CB1 JUMPI PUSH2 0x4CB0 PUSH2 0x381E JUMP JUMPDEST JUMPDEST SWAP3 SWAP2 POP POP JUMP JUMPDEST PUSH1 0x0 PUSH1 0x60 DUP3 ADD SWAP1 POP PUSH2 0x4CCC PUSH1 0x0 DUP4 ADD DUP7 PUSH2 0x1E94 JUMP JUMPDEST PUSH2 0x4CD9 PUSH1 0x20 DUP4 ADD DUP6 PUSH2 0x1EAD JUMP JUMPDEST PUSH2 0x4CE6 PUSH1 0x40 DUP4 ADD DUP5 PUSH2 0x1EAD JUMP JUMPDEST SWAP5 SWAP4 POP POP POP POP JUMP JUMPDEST PUSH2 0x4CF7 DUP2 PUSH2 0x240C JUMP JUMPDEST DUP3 MSTORE POP POP JUMP JUMPDEST PUSH1 0x0 PUSH1 0x40 DUP3 ADD SWAP1 POP PUSH2 0x4D12 PUSH1 0x0 DUP4 ADD DUP6 PUSH2 0x1EAD JUMP JUMPDEST PUSH2 0x4D1F PUSH1 0x20 DUP4 ADD DUP5 PUSH2 0x4CEE JUMP JUMPDEST SWAP4 SWAP3 POP POP POP JUMP JUMPDEST PUSH1 0x0 PUSH2 0x4D31 DUP3 PUSH2 0x1EA3 JUMP JUMPDEST SWAP2 POP PUSH32 0xFFFFFFFFFFFFFFFFFFFFFFFFFFFFFFFFFFFFFFFFFFFFFFFFFFFFFFFFFFFFFFFF DUP3 SUB PUSH2 0x4D63 JUMPI PUSH2 0x4D62 PUSH2 0x381E JUMP JUMPDEST JUMPDEST PUSH1 0x1 DUP3 ADD SWAP1 POP SWAP2 SWAP1 POP JUMP INVALID LOG2 PUSH5 0x6970667358 0x22 SLT KECCAK256 LT 0xDA 0xED 0xD5 GT 0xB7 0xDB PUSH32 0xE53AD4BDD5A49CA60E2D75C83A9ACE579A8903BE7EBE199264736F6C63430008 XOR STOP CALLER "},"methodIdentifiers":{"addGuardian(uint256,uint256)":"c8b785f3","adminManageCommunity(uint256,(string,string,string,string[],bool),(uint8,(string,address)[],string),uint256[],address,uint8,bool)":"654f6a75","adminSetCommunityPrice(uint256)":"873ceb2e","adminSetDefaultElectionResultsContract(address)":"25fe08c9","adminSetPricePerElection(uint256)":"3e512ebc","createCommunity((string,string,string,string[],bool),(uint8,(string,address)[],string),uint256[],address,uint8)":"f8867041","deposit(uint256)":"b6b55f25","getCommunity(uint256)":"370603f8","getCreateCommunityPrice()":"c5bf44ab","getDefaultElectionResultsContract()":"988a314c","getNextCommunityId()":"9532c8c3","getPricePerElection()":"d62b5c59","getResult(uint256,bytes32)":"13e86265","owner()":"8da5cb5b","removeGuardian(uint256,uint256)":"aba675b0","renounceOwnership()":"715018a6","setCensus(uint256,(uint8,(string,address)[],string))":"56c4e4ba","setCreateElectionPermission(uint256,uint8)":"7824c05c","setElectionResultsContract(uint256,address)":"5a6cad96","setMetadata(uint256,(string,string,string,string[],bool))":"82e6d638","setNotifiableElections(uint256,bool)":"e6160fa3","setResult(uint256,bytes32,(string,string[],string,uint256[][],uint256,uint256,uint256[],bytes32,string))":"3c973f75","transferOwnership(address)":"f2fde38b","withdraw()":"3ccfd60b"}}}}}