{"src/CommunityHub.sol":{"CommunityHub":{"abi":[{"inputs":[],"stateMutability":"nonpayable","type":"constructor"},{"inputs":[{"internalType":"address","name":"owner","type":"address"}],"name":"OwnableInvalidOwner","type":"error"},{"inputs":[{"internalType":"address","name":"account","type":"address"}],"name":"OwnableUnauthorizedAccount","type":"error"},{"anonymous":false,"inputs":[{"indexed":true,"internalType":"address","name":"previousOwner","type":"address"},{"indexed":true,"internalType":"address","name":"newOwner","type":"address"}],"name":"OwnershipTransferred","type":"event"},{"inputs":[{"internalType":"uint256","name":"communityId","type":"uint256"},{"components":[{"internalType":"enum ICommunityHub.CensusType","name":"censusType","type":"uint8"},{"components":[{"internalType":"string","name":"blockchain","type":"string"},{"internalType":"address","name":"contractAddress","type":"address"}],"internalType":"struct ICommunityHub.Token[]","name":"tokens","type":"tuple[]"}],"internalType":"struct ICommunityHub.Census","name":"census","type":"tuple"}],"name":"AddCensus","outputs":[],"stateMutability":"nonpayable","type":"function"},{"inputs":[{"internalType":"uint256","name":"communityId","type":"uint256"},{"internalType":"address","name":"guardian","type":"address"}],"name":"AddGuardian","outputs":[],"stateMutability":"nonpayable","type":"function"},{"inputs":[{"internalType":"uint256","name":"communityId","type":"uint256"},{"components":[{"internalType":"string","name":"name","type":"string"},{"internalType":"string","name":"imageURI","type":"string"},{"internalType":"string[]","name":"channels","type":"string[]"},{"internalType":"bool","name":"notifications","type":"bool"}],"internalType":"struct ICommunityHub.CommunityMetadata","name":"metadata","type":"tuple"},{"components":[{"internalType":"enum ICommunityHub.CensusType","name":"censusType","type":"uint8"},{"components":[{"internalType":"string","name":"blockchain","type":"string"},{"internalType":"address","name":"contractAddress","type":"address"}],"internalType":"struct ICommunityHub.Token[]","name":"tokens","type":"tuple[]"}],"internalType":"struct ICommunityHub.Census","name":"census","type":"tuple"},{"internalType":"uint256[]","name":"guardians","type":"uint256[]"},{"internalType":"address","name":"electionResultsContract","type":"address"},{"internalType":"enum ICommunityHub.CreateElectionPermission","name":"createElectionPermission","type":"uint8"}],"name":"AdminManageCommunity","outputs":[],"stateMutability":"nonpayable","type":"function"},{"inputs":[{"components":[{"internalType":"string","name":"name","type":"string"},{"internalType":"string","name":"imageURI","type":"string"},{"internalType":"string[]","name":"channels","type":"string[]"},{"internalType":"bool","name":"notifications","type":"bool"}],"internalType":"struct ICommunityHub.CommunityMetadata","name":"metadata","type":"tuple"},{"components":[{"internalType":"enum ICommunityHub.CensusType","name":"censusType","type":"uint8"},{"components":[{"internalType":"string","name":"blockchain","type":"string"},{"internalType":"address","name":"contractAddress","type":"address"}],"internalType":"struct ICommunityHub.Token[]","name":"tokens","type":"tuple[]"}],"internalType":"struct ICommunityHub.Census","name":"census","type":"tuple"},{"internalType":"uint256[]","name":"guardians","type":"uint256[]"},{"internalType":"address","name":"electionResultsContract","type":"address"},{"internalType":"enum ICommunityHub.CreateElectionPermission","name":"createElectionPermission","type":"uint8"}],"name":"CreateCommunity","outputs":[{"internalType":"uint256","name":"","type":"uint256"}],"stateMutability":"nonpayable","type":"function"},{"inputs":[{"internalType":"uint256","name":"communityId","type":"uint256"}],"name":"DeleteCommunity","outputs":[],"stateMutability":"nonpayable","type":"function"},{"inputs":[{"internalType":"uint256","name":"communityId","type":"uint256"},{"internalType":"string","name":"electionId","type":"string"}],"name":"GetElectionResults","outputs":[{"internalType":"string","name":"question","type":"string"},{"internalType":"string[]","name":"options","type":"string[]"},{"internalType":"string","name":"date","type":"string"},{"internalType":"uint256[][]","name":"tally","type":"uint256[][]"},{"internalType":"uint256","name":"turnout","type":"uint256"},{"internalType":"string[]","name":"participants","type":"string[]"},{"internalType":"bytes","name":"action","type":"bytes"},{"internalType":"bytes32","name":"censusRoot","type":"bytes32"},{"internalType":"string","name":"censusURI","type":"string"}],"stateMutability":"view","type":"function"},{"inputs":[{"internalType":"uint256","name":"communityId","type":"uint256"}],"name":"RemoveCensus","outputs":[],"stateMutability":"nonpayable","type":"function"},{"inputs":[{"internalType":"uint256","name":"communityId","type":"uint256"},{"internalType":"address","name":"guardian","type":"address"}],"name":"RemoveGuardian","outputs":[],"stateMutability":"nonpayable","type":"function"},{"inputs":[{"internalType":"uint256","name":"communityId","type":"uint256"},{"internalType":"enum ICommunityHub.CreateElectionPermission","name":"createElectionPermission","type":"uint8"}],"name":"SetCreateElectionPermission","outputs":[],"stateMutability":"nonpayable","type":"function"},{"inputs":[{"internalType":"uint256","name":"communityId","type":"uint256"},{"internalType":"bytes32","name":"electionId","type":"bytes32"},{"internalType":"string","name":"question","type":"string"},{"internalType":"string[]","name":"options","type":"string[]"},{"internalType":"string","name":"date","type":"string"},{"internalType":"uint256[][]","name":"tally","type":"uint256[][]"},{"internalType":"uint256","name":"turnout","type":"uint256"},{"internalType":"string[]","name":"participants","type":"string[]"},{"internalType":"bytes","name":"action","type":"bytes"},{"internalType":"bytes32","name":"censusRoot","type":"bytes32"},{"internalType":"string","name":"censusURI","type":"string"}],"name":"SetElectionResults","outputs":[],"stateMutability":"nonpayable","type":"function"},{"inputs":[{"internalType":"uint256","name":"communityId","type":"uint256"},{"internalType":"address","name":"electionResultsContract","type":"address"}],"name":"SetElectionResultsContract","outputs":[],"stateMutability":"nonpayable","type":"function"},{"inputs":[{"internalType":"uint256","name":"communityId","type":"uint256"},{"components":[{"internalType":"string","name":"name","type":"string"},{"internalType":"string","name":"imageURI","type":"string"},{"internalType":"string[]","name":"channels","type":"string[]"},{"internalType":"bool","name":"notifications","type":"bool"}],"internalType":"struct ICommunityHub.CommunityMetadata","name":"metadata","type":"tuple"}],"name":"SetMetadata","outputs":[],"stateMutability":"nonpayable","type":"function"},{"inputs":[{"internalType":"uint256","name":"communityId","type":"uint256"},{"internalType":"bool","name":"notifiableElections","type":"bool"}],"name":"SetNotifiableElections","outputs":[],"stateMutability":"nonpayable","type":"function"},{"inputs":[],"name":"owner","outputs":[{"internalType":"address","name":"","type":"address"}],"stateMutability":"view","type":"function"},{"inputs":[],"name":"renounceOwnership","outputs":[],"stateMutability":"nonpayable","type":"function"},{"inputs":[{"internalType":"address","name":"newOwner","type":"address"}],"name":"transferOwnership","outputs":[],"stateMutability":"nonpayable","type":"function"}],"evm":{"bytecode":{"linkReferences":{},"object":"60806040523480156200001157600080fd5b5033600073ffffffffffffffffffffffffffffffffffffffff168173ffffffffffffffffffffffffffffffffffffffff1603620000885760006040517f1e4fbdf70000000000000000000000000000000000000000000000000000000081526004016200007f9190620001a9565b60405180910390fd5b6200009981620000a060201b60201c565b50620001c6565b60008060009054906101000a900473ffffffffffffffffffffffffffffffffffffffff169050816000806101000a81548173ffffffffffffffffffffffffffffffffffffffff021916908373ffffffffffffffffffffffffffffffffffffffff1602179055508173ffffffffffffffffffffffffffffffffffffffff168173ffffffffffffffffffffffffffffffffffffffff167f8be0079c531659141344cd1fd0a4f28419497f9722a3daafe3b4186f6b6457e060405160405180910390a35050565b600073ffffffffffffffffffffffffffffffffffffffff82169050919050565b6000620001918262000164565b9050919050565b620001a38162000184565b82525050565b6000602082019050620001c0600083018462000198565b92915050565b61181680620001d66000396000f3fe608060405234801561001057600080fd5b50600436106101005760003560e01c806397ada1eb11610097578063d66917d911610066578063d66917d914610275578063e2539dc914610291578063f177a077146102ad578063f2fde38b146102c957610100565b806397ada1eb146101f1578063b025dd9b1461020d578063cd22ba8414610229578063d2e3ac0d1461025957610100565b80636ebf3c4c116100d35780636ebf3c4c14610175578063715018a614610191578063729e13481461019b5780638da5cb5b146101d357610100565b80632ebf88f81461010557806349dd50be1461012157806351df526e1461013d57806367272a5214610159575b600080fd5b61011f600480360381019061011a91906108ed565b6102e5565b005b61013b600480360381019061013691906109a7565b6102e9565b005b610157600480360381019061015291906109a7565b6102ed565b005b610173600480360381019061016e9190610a0c565b6102f1565b005b61018f600480360381019061018a9190610a4c565b6102f5565b005b6101996102f9565b005b6101b560048036038101906101b09190610a8c565b61030d565b6040516101ca99989796959493929190610e70565b60405180910390f35b6101db610329565b6040516101e89190610f3d565b60405180910390f35b61020b60048036038101906102069190611136565b610352565b005b61022760048036038101906102229190611192565b610356565b005b610243600480360381019061023e9190611282565b610359565b6040516102509190611351565b60405180910390f35b610273600480360381019061026e919061136c565b610364565b005b61028f600480360381019061028a91906109a7565b610374565b005b6102ab60048036038101906102a691906115fb565b610378565b005b6102c760048036038101906102c29190611192565b610385565b005b6102e360048036038101906102de91906117b3565b610390565b005b5050565b5050565b5050565b5050565b5050565b610301610416565b61030b600061049d565b565b6060806060806000606080600060609295985092959850929598565b60008060009054906101000a900473ffffffffffffffffffffffffffffffffffffffff16905090565b5050565b50565b600095945050505050565b61036c610416565b505050505050565b5050565b5050505050505050505050565b61038d610416565b50565b610398610416565b600073ffffffffffffffffffffffffffffffffffffffff168173ffffffffffffffffffffffffffffffffffffffff160361040a5760006040517f1e4fbdf70000000000000000000000000000000000000000000000000000000081526004016104019190610f3d565b60405180910390fd5b6104138161049d565b50565b61041e610561565b73ffffffffffffffffffffffffffffffffffffffff1661043c610329565b73ffffffffffffffffffffffffffffffffffffffff161461049b5761045f610561565b6040517f118cdaa70000000000000000000000000000000000000000000000000000000081526004016104929190610f3d565b60405180910390fd5b565b60008060009054906101000a900473ffffffffffffffffffffffffffffffffffffffff169050816000806101000a81548173ffffffffffffffffffffffffffffffffffffffff021916908373ffffffffffffffffffffffffffffffffffffffff1602179055508173ffffffffffffffffffffffffffffffffffffffff168173ffffffffffffffffffffffffffffffffffffffff167f8be0079c531659141344cd1fd0a4f28419497f9722a3daafe3b4186f6b6457e060405160405180910390a35050565b600033905090565b6000604051905090565b600080fd5b600080fd5b6000819050919050565b6105908161057d565b811461059b57600080fd5b50565b6000813590506105ad81610587565b92915050565b600080fd5b6000601f19601f8301169050919050565b7f4e487b7100000000000000000000000000000000000000000000000000000000600052604160045260246000fd5b610601826105b8565b810181811067ffffffffffffffff821117156106205761061f6105c9565b5b80604052505050565b6000610633610569565b905061063f82826105f8565b919050565b600080fd5b600080fd5b600080fd5b600067ffffffffffffffff82111561066e5761066d6105c9565b5b610677826105b8565b9050602081019050919050565b82818337600083830152505050565b60006106a66106a184610653565b610629565b9050828152602081018484840111156106c2576106c161064e565b5b6106cd848285610684565b509392505050565b600082601f8301126106ea576106e9610649565b5b81356106fa848260208601610693565b91505092915050565b600067ffffffffffffffff82111561071e5761071d6105c9565b5b602082029050602081019050919050565b600080fd5b600061074761074284610703565b610629565b9050808382526020820190506020840283018581111561076a5761076961072f565b5b835b818110156107b157803567ffffffffffffffff81111561078f5761078e610649565b5b80860161079c89826106d5565b8552602085019450505060208101905061076c565b5050509392505050565b600082601f8301126107d0576107cf610649565b5b81356107e0848260208601610734565b91505092915050565b60008115159050919050565b6107fe816107e9565b811461080957600080fd5b50565b60008135905061081b816107f5565b92915050565b600060808284031215610837576108366105b3565b5b6108416080610629565b9050600082013567ffffffffffffffff81111561086157610860610644565b5b61086d848285016106d5565b600083015250602082013567ffffffffffffffff81111561089157610890610644565b5b61089d848285016106d5565b602083015250604082013567ffffffffffffffff8111156108c1576108c0610644565b5b6108cd848285016107bb565b60408301525060606108e18482850161080c565b60608301525092915050565b6000806040838503121561090457610903610573565b5b60006109128582860161059e565b925050602083013567ffffffffffffffff81111561093357610932610578565b5b61093f85828601610821565b9150509250929050565b600073ffffffffffffffffffffffffffffffffffffffff82169050919050565b600061097482610949565b9050919050565b61098481610969565b811461098f57600080fd5b50565b6000813590506109a18161097b565b92915050565b600080604083850312156109be576109bd610573565b5b60006109cc8582860161059e565b92505060206109dd85828601610992565b9150509250929050565b600281106109f457600080fd5b50565b600081359050610a06816109e7565b92915050565b60008060408385031215610a2357610a22610573565b5b6000610a318582860161059e565b9250506020610a42858286016109f7565b9150509250929050565b60008060408385031215610a6357610a62610573565b5b6000610a718582860161059e565b9250506020610a828582860161080c565b9150509250929050565b60008060408385031215610aa357610aa2610573565b5b6000610ab18582860161059e565b925050602083013567ffffffffffffffff811115610ad257610ad1610578565b5b610ade858286016106d5565b9150509250929050565b600081519050919050565b600082825260208201905092915050565b60005b83811015610b22578082015181840152602081019050610b07565b60008484015250505050565b6000610b3982610ae8565b610b438185610af3565b9350610b53818560208601610b04565b610b5c816105b8565b840191505092915050565b600081519050919050565b600082825260208201905092915050565b6000819050602082019050919050565b600082825260208201905092915050565b6000610baf82610ae8565b610bb98185610b93565b9350610bc9818560208601610b04565b610bd2816105b8565b840191505092915050565b6000610be98383610ba4565b905092915050565b6000602082019050919050565b6000610c0982610b67565b610c138185610b72565b935083602082028501610c2585610b83565b8060005b85811015610c615784840389528151610c428582610bdd565b9450610c4d83610bf1565b925060208a01995050600181019050610c29565b50829750879550505050505092915050565b600081519050919050565b600082825260208201905092915050565b6000819050602082019050919050565b600081519050919050565b600082825260208201905092915050565b6000819050602082019050919050565b610cd48161057d565b82525050565b6000610ce68383610ccb565b60208301905092915050565b6000602082019050919050565b6000610d0a82610c9f565b610d148185610caa565b9350610d1f83610cbb565b8060005b83811015610d50578151610d378882610cda565b9750610d4283610cf2565b925050600181019050610d23565b5085935050505092915050565b6000610d698383610cff565b905092915050565b6000602082019050919050565b6000610d8982610c73565b610d938185610c7e565b935083602082028501610da585610c8f565b8060005b85811015610de15784840389528151610dc28582610d5d565b9450610dcd83610d71565b925060208a01995050600181019050610da9565b50829750879550505050505092915050565b610dfc8161057d565b82525050565b600081519050919050565b600082825260208201905092915050565b6000610e2982610e02565b610e338185610e0d565b9350610e43818560208601610b04565b610e4c816105b8565b840191505092915050565b6000819050919050565b610e6a81610e57565b82525050565b6000610120820190508181036000830152610e8b818c610b2e565b90508181036020830152610e9f818b610bfe565b90508181036040830152610eb3818a610b2e565b90508181036060830152610ec78189610d7e565b9050610ed66080830188610df3565b81810360a0830152610ee88187610bfe565b905081810360c0830152610efc8186610e1e565b9050610f0b60e0830185610e61565b818103610100830152610f1e8184610b2e565b90509a9950505050505050505050565b610f3781610969565b82525050565b6000602082019050610f526000830184610f2e565b92915050565b60068110610f6557600080fd5b50565b600081359050610f7781610f58565b92915050565b600067ffffffffffffffff821115610f9857610f976105c9565b5b602082029050602081019050919050565b600060408284031215610fbf57610fbe6105b3565b5b610fc96040610629565b9050600082013567ffffffffffffffff811115610fe957610fe8610644565b5b610ff5848285016106d5565b600083015250602061100984828501610992565b60208301525092915050565b600061102861102384610f7d565b610629565b9050808382526020820190506020840283018581111561104b5761104a61072f565b5b835b8181101561109257803567ffffffffffffffff8111156110705761106f610649565b5b80860161107d8982610fa9565b8552602085019450505060208101905061104d565b5050509392505050565b600082601f8301126110b1576110b0610649565b5b81356110c1848260208601611015565b91505092915050565b6000604082840312156110e0576110df6105b3565b5b6110ea6040610629565b905060006110fa84828501610f68565b600083015250602082013567ffffffffffffffff81111561111e5761111d610644565b5b61112a8482850161109c565b60208301525092915050565b6000806040838503121561114d5761114c610573565b5b600061115b8582860161059e565b925050602083013567ffffffffffffffff81111561117c5761117b610578565b5b611188858286016110ca565b9150509250929050565b6000602082840312156111a8576111a7610573565b5b60006111b68482850161059e565b91505092915050565b600067ffffffffffffffff8211156111da576111d96105c9565b5b602082029050602081019050919050565b60006111fe6111f9846111bf565b610629565b905080838252602082019050602084028301858111156112215761122061072f565b5b835b8181101561124a5780611236888261059e565b845260208401935050602081019050611223565b5050509392505050565b600082601f83011261126957611268610649565b5b81356112798482602086016111eb565b91505092915050565b600080600080600060a0868803121561129e5761129d610573565b5b600086013567ffffffffffffffff8111156112bc576112bb610578565b5b6112c888828901610821565b955050602086013567ffffffffffffffff8111156112e9576112e8610578565b5b6112f5888289016110ca565b945050604086013567ffffffffffffffff81111561131657611315610578565b5b61132288828901611254565b935050606061133388828901610992565b9250506080611344888289016109f7565b9150509295509295909350565b60006020820190506113666000830184610df3565b92915050565b60008060008060008060c0878903121561138957611388610573565b5b600061139789828a0161059e565b965050602087013567ffffffffffffffff8111156113b8576113b7610578565b5b6113c489828a01610821565b955050604087013567ffffffffffffffff8111156113e5576113e4610578565b5b6113f189828a016110ca565b945050606087013567ffffffffffffffff81111561141257611411610578565b5b61141e89828a01611254565b935050608061142f89828a01610992565b92505060a061144089828a016109f7565b9150509295509295509295565b61145681610e57565b811461146157600080fd5b50565b6000813590506114738161144d565b92915050565b600067ffffffffffffffff821115611494576114936105c9565b5b602082029050602081019050919050565b60006114b86114b384611479565b610629565b905080838252602082019050602084028301858111156114db576114da61072f565b5b835b8181101561152257803567ffffffffffffffff811115611500576114ff610649565b5b80860161150d8982611254565b855260208501945050506020810190506114dd565b5050509392505050565b600082601f83011261154157611540610649565b5b81356115518482602086016114a5565b91505092915050565b600067ffffffffffffffff821115611575576115746105c9565b5b61157e826105b8565b9050602081019050919050565b600061159e6115998461155a565b610629565b9050828152602081018484840111156115ba576115b961064e565b5b6115c5848285610684565b509392505050565b600082601f8301126115e2576115e1610649565b5b81356115f284826020860161158b565b91505092915050565b60008060008060008060008060008060006101608c8e03121561162157611620610573565b5b600061162f8e828f0161059e565b9b505060206116408e828f01611464565b9a505060408c013567ffffffffffffffff81111561166157611660610578565b5b61166d8e828f016106d5565b99505060608c013567ffffffffffffffff81111561168e5761168d610578565b5b61169a8e828f016107bb565b98505060808c013567ffffffffffffffff8111156116bb576116ba610578565b5b6116c78e828f016106d5565b97505060a08c013567ffffffffffffffff8111156116e8576116e7610578565b5b6116f48e828f0161152c565b96505060c06117058e828f0161059e565b95505060e08c013567ffffffffffffffff81111561172657611725610578565b5b6117328e828f016107bb565b9450506101008c013567ffffffffffffffff81111561175457611753610578565b5b6117608e828f016115cd565b9350506101206117728e828f01611464565b9250506101408c013567ffffffffffffffff81111561179457611793610578565b5b6117a08e828f016106d5565b9150509295989b509295989b9093969950565b6000602082840312156117c9576117c8610573565b5b60006117d784828501610992565b9150509291505056fea26469706673582212209bb3d3dfa2683ac438801abc7512afd60ecf4b9b5ce8eda7d8cea34552605ea764736f6c63430008180033","opcodes":"PUSH1 0x80 PUSH1 0x40 MSTORE CALLVALUE DUP1 ISZERO PUSH3 0x11 JUMPI PUSH1 0x0 DUP1 REVERT JUMPDEST POP CALLER PUSH1 0x0 PUSH20 0xFFFFFFFFFFFFFFFFFFFFFFFFFFFFFFFFFFFFFFFF AND DUP2 PUSH20 0xFFFFFFFFFFFFFFFFFFFFFFFFFFFFFFFFFFFFFFFF AND SUB PUSH3 0x88 JUMPI PUSH1 0x0 PUSH1 0x40 MLOAD PUSH32 0x1E4FBDF700000000000000000000000000000000000000000000000000000000 DUP2 MSTORE PUSH1 0x4 ADD PUSH3 0x7F SWAP2 SWAP1 PUSH3 0x1A9 JUMP JUMPDEST PUSH1 0x40 MLOAD DUP1 SWAP2 SUB SWAP1 REVERT JUMPDEST PUSH3 0x99 DUP2 PUSH3 0xA0 PUSH1 0x20 SHL PUSH1 0x20 SHR JUMP JUMPDEST POP PUSH3 0x1C6 JUMP JUMPDEST PUSH1 0x0 DUP1 PUSH1 0x0 SWAP1 SLOAD SWAP1 PUSH2 0x100 EXP SWAP1 DIV PUSH20 0xFFFFFFFFFFFFFFFFFFFFFFFFFFFFFFFFFFFFFFFF AND SWAP1 POP DUP2 PUSH1 0x0 DUP1 PUSH2 0x100 EXP DUP2 SLOAD DUP2 PUSH20 0xFFFFFFFFFFFFFFFFFFFFFFFFFFFFFFFFFFFFFFFF MUL NOT AND SWAP1 DUP4 PUSH20 0xFFFFFFFFFFFFFFFFFFFFFFFFFFFFFFFFFFFFFFFF AND MUL OR SWAP1 SSTORE POP DUP2 PUSH20 0xFFFFFFFFFFFFFFFFFFFFFFFFFFFFFFFFFFFFFFFF AND DUP2 PUSH20 0xFFFFFFFFFFFFFFFFFFFFFFFFFFFFFFFFFFFFFFFF AND PUSH32 0x8BE0079C531659141344CD1FD0A4F28419497F9722A3DAAFE3B4186F6B6457E0 PUSH1 0x40 MLOAD PUSH1 0x40 MLOAD DUP1 SWAP2 SUB SWAP1 LOG3 POP POP JUMP JUMPDEST PUSH1 0x0 PUSH20 0xFFFFFFFFFFFFFFFFFFFFFFFFFFFFFFFFFFFFFFFF DUP3 AND SWAP1 POP SWAP2 SWAP1 POP JUMP JUMPDEST PUSH1 0x0 PUSH3 0x191 DUP3 PUSH3 0x164 JUMP JUMPDEST SWAP1 POP SWAP2 SWAP1 POP JUMP JUMPDEST PUSH3 0x1A3 DUP2 PUSH3 0x184 JUMP JUMPDEST DUP3 MSTORE POP POP JUMP JUMPDEST PUSH1 0x0 PUSH1 0x20 DUP3 ADD SWAP1 POP PUSH3 0x1C0 PUSH1 0x0 DUP4 ADD DUP5 PUSH3 0x198 JUMP JUMPDEST SWAP3 SWAP2 POP POP JUMP JUMPDEST PUSH2 0x1816 DUP1 PUSH3 0x1D6 PUSH1 0x0 CODECOPY PUSH1 0x0 RETURN INVALID PUSH1 0x80 PUSH1 0x40 MSTORE CALLVALUE DUP1 ISZERO PUSH2 0x10 JUMPI PUSH1 0x0 DUP1 REVERT JUMPDEST POP PUSH1 0x4 CALLDATASIZE LT PUSH2 0x100 JUMPI PUSH1 0x0 CALLDATALOAD PUSH1 0xE0 SHR DUP1 PUSH4 0x97ADA1EB GT PUSH2 0x97 JUMPI DUP1 PUSH4 0xD66917D9 GT PUSH2 0x66 JUMPI DUP1 PUSH4 0xD66917D9 EQ PUSH2 0x275 JUMPI DUP1 PUSH4 0xE2539DC9 EQ PUSH2 0x291 JUMPI DUP1 PUSH4 0xF177A077 EQ PUSH2 0x2AD JUMPI DUP1 PUSH4 0xF2FDE38B EQ PUSH2 0x2C9 JUMPI PUSH2 0x100 JUMP JUMPDEST DUP1 PUSH4 0x97ADA1EB EQ PUSH2 0x1F1 JUMPI DUP1 PUSH4 0xB025DD9B EQ PUSH2 0x20D JUMPI DUP1 PUSH4 0xCD22BA84 EQ PUSH2 0x229 JUMPI DUP1 PUSH4 0xD2E3AC0D EQ PUSH2 0x259 JUMPI PUSH2 0x100 JUMP JUMPDEST DUP1 PUSH4 0x6EBF3C4C GT PUSH2 0xD3 JUMPI DUP1 PUSH4 0x6EBF3C4C EQ PUSH2 0x175 JUMPI DUP1 PUSH4 0x715018A6 EQ PUSH2 0x191 JUMPI DUP1 PUSH4 0x729E1348 EQ PUSH2 0x19B JUMPI DUP1 PUSH4 0x8DA5CB5B EQ PUSH2 0x1D3 JUMPI PUSH2 0x100 JUMP JUMPDEST DUP1 PUSH4 0x2EBF88F8 EQ PUSH2 0x105 JUMPI DUP1 PUSH4 0x49DD50BE EQ PUSH2 0x121 JUMPI DUP1 PUSH4 0x51DF526E EQ PUSH2 0x13D JUMPI DUP1 PUSH4 0x67272A52 EQ PUSH2 0x159 JUMPI JUMPDEST PUSH1 0x0 DUP1 REVERT JUMPDEST PUSH2 0x11F PUSH1 0x4 DUP1 CALLDATASIZE SUB DUP2 ADD SWAP1 PUSH2 0x11A SWAP2 SWAP1 PUSH2 0x8ED JUMP JUMPDEST PUSH2 0x2E5 JUMP JUMPDEST STOP JUMPDEST PUSH2 0x13B PUSH1 0x4 DUP1 CALLDATASIZE SUB DUP2 ADD SWAP1 PUSH2 0x136 SWAP2 SWAP1 PUSH2 0x9A7 JUMP JUMPDEST PUSH2 0x2E9 JUMP JUMPDEST STOP JUMPDEST PUSH2 0x157 PUSH1 0x4 DUP1 CALLDATASIZE SUB DUP2 ADD SWAP1 PUSH2 0x152 SWAP2 SWAP1 PUSH2 0x9A7 JUMP JUMPDEST PUSH2 0x2ED JUMP JUMPDEST STOP JUMPDEST PUSH2 0x173 PUSH1 0x4 DUP1 CALLDATASIZE SUB DUP2 ADD SWAP1 PUSH2 0x16E SWAP2 SWAP1 PUSH2 0xA0C JUMP JUMPDEST PUSH2 0x2F1 JUMP JUMPDEST STOP JUMPDEST PUSH2 0x18F PUSH1 0x4 DUP1 CALLDATASIZE SUB DUP2 ADD SWAP1 PUSH2 0x18A SWAP2 SWAP1 PUSH2 0xA4C JUMP JUMPDEST PUSH2 0x2F5 JUMP JUMPDEST STOP JUMPDEST PUSH2 0x199 PUSH2 0x2F9 JUMP JUMPDEST STOP JUMPDEST PUSH2 0x1B5 PUSH1 0x4 DUP1 CALLDATASIZE SUB DUP2 ADD SWAP1 PUSH2 0x1B0 SWAP2 SWAP1 PUSH2 0xA8C JUMP JUMPDEST PUSH2 0x30D JUMP JUMPDEST PUSH1 0x40 MLOAD PUSH2 0x1CA SWAP10 SWAP9 SWAP8 SWAP7 SWAP6 SWAP5 SWAP4 SWAP3 SWAP2 SWAP1 PUSH2 0xE70 JUMP JUMPDEST PUSH1 0x40 MLOAD DUP1 SWAP2 SUB SWAP1 RETURN JUMPDEST PUSH2 0x1DB PUSH2 0x329 JUMP JUMPDEST PUSH1 0x40 MLOAD PUSH2 0x1E8 SWAP2 SWAP1 PUSH2 0xF3D JUMP JUMPDEST PUSH1 0x40 MLOAD DUP1 SWAP2 SUB SWAP1 RETURN JUMPDEST PUSH2 0x20B PUSH1 0x4 DUP1 CALLDATASIZE SUB DUP2 ADD SWAP1 PUSH2 0x206 SWAP2 SWAP1 PUSH2 0x1136 JUMP JUMPDEST PUSH2 0x352 JUMP JUMPDEST STOP JUMPDEST PUSH2 0x227 PUSH1 0x4 DUP1 CALLDATASIZE SUB DUP2 ADD SWAP1 PUSH2 0x222 SWAP2 SWAP1 PUSH2 0x1192 JUMP JUMPDEST PUSH2 0x356 JUMP JUMPDEST STOP JUMPDEST PUSH2 0x243 PUSH1 0x4 DUP1 CALLDATASIZE SUB DUP2 ADD SWAP1 PUSH2 0x23E SWAP2 SWAP1 PUSH2 0x1282 JUMP JUMPDEST PUSH2 0x359 JUMP JUMPDEST PUSH1 0x40 MLOAD PUSH2 0x250 SWAP2 SWAP1 PUSH2 0x1351 JUMP JUMPDEST PUSH1 0x40 MLOAD DUP1 SWAP2 SUB SWAP1 RETURN JUMPDEST PUSH2 0x273 PUSH1 0x4 DUP1 CALLDATASIZE SUB DUP2 ADD SWAP1 PUSH2 0x26E SWAP2 SWAP1 PUSH2 0x136C JUMP JUMPDEST PUSH2 0x364 JUMP JUMPDEST STOP JUMPDEST PUSH2 0x28F PUSH1 0x4 DUP1 CALLDATASIZE SUB DUP2 ADD SWAP1 PUSH2 0x28A SWAP2 SWAP1 PUSH2 0x9A7 JUMP JUMPDEST PUSH2 0x374 JUMP JUMPDEST STOP JUMPDEST PUSH2 0x2AB PUSH1 0x4 DUP1 CALLDATASIZE SUB DUP2 ADD SWAP1 PUSH2 0x2A6 SWAP2 SWAP1 PUSH2 0x15FB JUMP JUMPDEST PUSH2 0x378 JUMP JUMPDEST STOP JUMPDEST PUSH2 0x2C7 PUSH1 0x4 DUP1 CALLDATASIZE SUB DUP2 ADD SWAP1 PUSH2 0x2C2 SWAP2 SWAP1 PUSH2 0x1192 JUMP JUMPDEST PUSH2 0x385 JUMP JUMPDEST STOP JUMPDEST PUSH2 0x2E3 PUSH1 0x4 DUP1 CALLDATASIZE SUB DUP2 ADD SWAP1 PUSH2 0x2DE SWAP2 SWAP1 PUSH2 0x17B3 JUMP JUMPDEST PUSH2 0x390 JUMP JUMPDEST STOP JUMPDEST POP POP JUMP JUMPDEST POP POP JUMP JUMPDEST POP POP JUMP JUMPDEST POP POP JUMP JUMPDEST POP POP JUMP JUMPDEST PUSH2 0x301 PUSH2 0x416 JUMP JUMPDEST PUSH2 0x30B PUSH1 0x0 PUSH2 0x49D JUMP JUMPDEST JUMP JUMPDEST PUSH1 0x60 DUP1 PUSH1 0x60 DUP1 PUSH1 0x0 PUSH1 0x60 DUP1 PUSH1 0x0 PUSH1 0x60 SWAP3 SWAP6 SWAP9 POP SWAP3 SWAP6 SWAP9 POP SWAP3 SWAP6 SWAP9 JUMP JUMPDEST PUSH1 0x0 DUP1 PUSH1 0x0 SWAP1 SLOAD SWAP1 PUSH2 0x100 EXP SWAP1 DIV PUSH20 0xFFFFFFFFFFFFFFFFFFFFFFFFFFFFFFFFFFFFFFFF AND SWAP1 POP SWAP1 JUMP JUMPDEST POP POP JUMP JUMPDEST POP JUMP JUMPDEST PUSH1 0x0 SWAP6 SWAP5 POP POP POP POP POP JUMP JUMPDEST PUSH2 0x36C PUSH2 0x416 JUMP JUMPDEST POP POP POP POP POP POP JUMP JUMPDEST POP POP JUMP JUMPDEST POP POP POP POP POP POP POP POP POP POP POP JUMP JUMPDEST PUSH2 0x38D PUSH2 0x416 JUMP JUMPDEST POP JUMP JUMPDEST PUSH2 0x398 PUSH2 0x416 JUMP JUMPDEST PUSH1 0x0 PUSH20 0xFFFFFFFFFFFFFFFFFFFFFFFFFFFFFFFFFFFFFFFF AND DUP2 PUSH20 0xFFFFFFFFFFFFFFFFFFFFFFFFFFFFFFFFFFFFFFFF AND SUB PUSH2 0x40A JUMPI PUSH1 0x0 PUSH1 0x40 MLOAD PUSH32 0x1E4FBDF700000000000000000000000000000000000000000000000000000000 DUP2 MSTORE PUSH1 0x4 ADD PUSH2 0x401 SWAP2 SWAP1 PUSH2 0xF3D JUMP JUMPDEST PUSH1 0x40 MLOAD DUP1 SWAP2 SUB SWAP1 REVERT JUMPDEST PUSH2 0x413 DUP2 PUSH2 0x49D JUMP JUMPDEST POP JUMP JUMPDEST PUSH2 0x41E PUSH2 0x561 JUMP JUMPDEST PUSH20 0xFFFFFFFFFFFFFFFFFFFFFFFFFFFFFFFFFFFFFFFF AND PUSH2 0x43C PUSH2 0x329 JUMP JUMPDEST PUSH20 0xFFFFFFFFFFFFFFFFFFFFFFFFFFFFFFFFFFFFFFFF AND EQ PUSH2 0x49B JUMPI PUSH2 0x45F PUSH2 0x561 JUMP JUMPDEST PUSH1 0x40 MLOAD PUSH32 0x118CDAA700000000000000000000000000000000000000000000000000000000 DUP2 MSTORE PUSH1 0x4 ADD PUSH2 0x492 SWAP2 SWAP1 PUSH2 0xF3D JUMP JUMPDEST PUSH1 0x40 MLOAD DUP1 SWAP2 SUB SWAP1 REVERT JUMPDEST JUMP JUMPDEST PUSH1 0x0 DUP1 PUSH1 0x0 SWAP1 SLOAD SWAP1 PUSH2 0x100 EXP SWAP1 DIV PUSH20 0xFFFFFFFFFFFFFFFFFFFFFFFFFFFFFFFFFFFFFFFF AND SWAP1 POP DUP2 PUSH1 0x0 DUP1 PUSH2 0x100 EXP DUP2 SLOAD DUP2 PUSH20 0xFFFFFFFFFFFFFFFFFFFFFFFFFFFFFFFFFFFFFFFF MUL NOT AND SWAP1 DUP4 PUSH20 0xFFFFFFFFFFFFFFFFFFFFFFFFFFFFFFFFFFFFFFFF AND MUL OR SWAP1 SSTORE POP DUP2 PUSH20 0xFFFFFFFFFFFFFFFFFFFFFFFFFFFFFFFFFFFFFFFF AND DUP2 PUSH20 0xFFFFFFFFFFFFFFFFFFFFFFFFFFFFFFFFFFFFFFFF AND PUSH32 0x8BE0079C531659141344CD1FD0A4F28419497F9722A3DAAFE3B4186F6B6457E0 PUSH1 0x40 MLOAD PUSH1 0x40 MLOAD DUP1 SWAP2 SUB SWAP1 LOG3 POP POP JUMP JUMPDEST PUSH1 0x0 CALLER SWAP1 POP SWAP1 JUMP JUMPDEST PUSH1 0x0 PUSH1 0x40 MLOAD SWAP1 POP SWAP1 JUMP JUMPDEST PUSH1 0x0 DUP1 REVERT JUMPDEST PUSH1 0x0 DUP1 REVERT JUMPDEST PUSH1 0x0 DUP2 SWAP1 POP SWAP2 SWAP1 POP JUMP JUMPDEST PUSH2 0x590 DUP2 PUSH2 0x57D JUMP JUMPDEST DUP2 EQ PUSH2 0x59B JUMPI PUSH1 0x0 DUP1 REVERT JUMPDEST POP JUMP JUMPDEST PUSH1 0x0 DUP2 CALLDATALOAD SWAP1 POP PUSH2 0x5AD DUP2 PUSH2 0x587 JUMP JUMPDEST SWAP3 SWAP2 POP POP JUMP JUMPDEST PUSH1 0x0 DUP1 REVERT JUMPDEST PUSH1 0x0 PUSH1 0x1F NOT PUSH1 0x1F DUP4 ADD AND SWAP1 POP SWAP2 SWAP1 POP JUMP JUMPDEST PUSH32 0x4E487B7100000000000000000000000000000000000000000000000000000000 PUSH1 0x0 MSTORE PUSH1 0x41 PUSH1 0x4 MSTORE PUSH1 0x24 PUSH1 0x0 REVERT JUMPDEST PUSH2 0x601 DUP3 PUSH2 0x5B8 JUMP JUMPDEST DUP2 ADD DUP2 DUP2 LT PUSH8 0xFFFFFFFFFFFFFFFF DUP3 GT OR ISZERO PUSH2 0x620 JUMPI PUSH2 0x61F PUSH2 0x5C9 JUMP JUMPDEST JUMPDEST DUP1 PUSH1 0x40 MSTORE POP POP POP JUMP JUMPDEST PUSH1 0x0 PUSH2 0x633 PUSH2 0x569 JUMP JUMPDEST SWAP1 POP PUSH2 0x63F DUP3 DUP3 PUSH2 0x5F8 JUMP JUMPDEST SWAP2 SWAP1 POP JUMP JUMPDEST PUSH1 0x0 DUP1 REVERT JUMPDEST PUSH1 0x0 DUP1 REVERT JUMPDEST PUSH1 0x0 DUP1 REVERT JUMPDEST PUSH1 0x0 PUSH8 0xFFFFFFFFFFFFFFFF DUP3 GT ISZERO PUSH2 0x66E JUMPI PUSH2 0x66D PUSH2 0x5C9 JUMP JUMPDEST JUMPDEST PUSH2 0x677 DUP3 PUSH2 0x5B8 JUMP JUMPDEST SWAP1 POP PUSH1 0x20 DUP2 ADD SWAP1 POP SWAP2 SWAP1 POP JUMP JUMPDEST DUP3 DUP2 DUP4 CALLDATACOPY PUSH1 0x0 DUP4 DUP4 ADD MSTORE POP POP POP JUMP JUMPDEST PUSH1 0x0 PUSH2 0x6A6 PUSH2 0x6A1 DUP5 PUSH2 0x653 JUMP JUMPDEST PUSH2 0x629 JUMP JUMPDEST SWAP1 POP DUP3 DUP2 MSTORE PUSH1 0x20 DUP2 ADD DUP5 DUP5 DUP5 ADD GT ISZERO PUSH2 0x6C2 JUMPI PUSH2 0x6C1 PUSH2 0x64E JUMP JUMPDEST JUMPDEST PUSH2 0x6CD DUP5 DUP3 DUP6 PUSH2 0x684 JUMP JUMPDEST POP SWAP4 SWAP3 POP POP POP JUMP JUMPDEST PUSH1 0x0 DUP3 PUSH1 0x1F DUP4 ADD SLT PUSH2 0x6EA JUMPI PUSH2 0x6E9 PUSH2 0x649 JUMP JUMPDEST JUMPDEST DUP2 CALLDATALOAD PUSH2 0x6FA DUP5 DUP3 PUSH1 0x20 DUP7 ADD PUSH2 0x693 JUMP JUMPDEST SWAP2 POP POP SWAP3 SWAP2 POP POP JUMP JUMPDEST PUSH1 0x0 PUSH8 0xFFFFFFFFFFFFFFFF DUP3 GT ISZERO PUSH2 0x71E JUMPI PUSH2 0x71D PUSH2 0x5C9 JUMP JUMPDEST JUMPDEST PUSH1 0x20 DUP3 MUL SWAP1 POP PUSH1 0x20 DUP2 ADD SWAP1 POP SWAP2 SWAP1 POP JUMP JUMPDEST PUSH1 0x0 DUP1 REVERT JUMPDEST PUSH1 0x0 PUSH2 0x747 PUSH2 0x742 DUP5 PUSH2 0x703 JUMP JUMPDEST PUSH2 0x629 JUMP JUMPDEST SWAP1 POP DUP1 DUP4 DUP3 MSTORE PUSH1 0x20 DUP3 ADD SWAP1 POP PUSH1 0x20 DUP5 MUL DUP4 ADD DUP6 DUP2 GT ISZERO PUSH2 0x76A JUMPI PUSH2 0x769 PUSH2 0x72F JUMP JUMPDEST JUMPDEST DUP4 JUMPDEST DUP2 DUP2 LT ISZERO PUSH2 0x7B1 JUMPI DUP1 CALLDATALOAD PUSH8 0xFFFFFFFFFFFFFFFF DUP2 GT ISZERO PUSH2 0x78F JUMPI PUSH2 0x78E PUSH2 0x649 JUMP JUMPDEST JUMPDEST DUP1 DUP7 ADD PUSH2 0x79C DUP10 DUP3 PUSH2 0x6D5 JUMP JUMPDEST DUP6 MSTORE PUSH1 0x20 DUP6 ADD SWAP5 POP POP POP PUSH1 0x20 DUP2 ADD SWAP1 POP PUSH2 0x76C JUMP JUMPDEST POP POP POP SWAP4 SWAP3 POP POP POP JUMP JUMPDEST PUSH1 0x0 DUP3 PUSH1 0x1F DUP4 ADD SLT PUSH2 0x7D0 JUMPI PUSH2 0x7CF PUSH2 0x649 JUMP JUMPDEST JUMPDEST DUP2 CALLDATALOAD PUSH2 0x7E0 DUP5 DUP3 PUSH1 0x20 DUP7 ADD PUSH2 0x734 JUMP JUMPDEST SWAP2 POP POP SWAP3 SWAP2 POP POP JUMP JUMPDEST PUSH1 0x0 DUP2 ISZERO ISZERO SWAP1 POP SWAP2 SWAP1 POP JUMP JUMPDEST PUSH2 0x7FE DUP2 PUSH2 0x7E9 JUMP JUMPDEST DUP2 EQ PUSH2 0x809 JUMPI PUSH1 0x0 DUP1 REVERT JUMPDEST POP JUMP JUMPDEST PUSH1 0x0 DUP2 CALLDATALOAD SWAP1 POP PUSH2 0x81B DUP2 PUSH2 0x7F5 JUMP JUMPDEST SWAP3 SWAP2 POP POP JUMP JUMPDEST PUSH1 0x0 PUSH1 0x80 DUP3 DUP5 SUB SLT ISZERO PUSH2 0x837 JUMPI PUSH2 0x836 PUSH2 0x5B3 JUMP JUMPDEST JUMPDEST PUSH2 0x841 PUSH1 0x80 PUSH2 0x629 JUMP JUMPDEST SWAP1 POP PUSH1 0x0 DUP3 ADD CALLDATALOAD PUSH8 0xFFFFFFFFFFFFFFFF DUP2 GT ISZERO PUSH2 0x861 JUMPI PUSH2 0x860 PUSH2 0x644 JUMP JUMPDEST JUMPDEST PUSH2 0x86D DUP5 DUP3 DUP6 ADD PUSH2 0x6D5 JUMP JUMPDEST PUSH1 0x0 DUP4 ADD MSTORE POP PUSH1 0x20 DUP3 ADD CALLDATALOAD PUSH8 0xFFFFFFFFFFFFFFFF DUP2 GT ISZERO PUSH2 0x891 JUMPI PUSH2 0x890 PUSH2 0x644 JUMP JUMPDEST JUMPDEST PUSH2 0x89D DUP5 DUP3 DUP6 ADD PUSH2 0x6D5 JUMP JUMPDEST PUSH1 0x20 DUP4 ADD MSTORE POP PUSH1 0x40 DUP3 ADD CALLDATALOAD PUSH8 0xFFFFFFFFFFFFFFFF DUP2 GT ISZERO PUSH2 0x8C1 JUMPI PUSH2 0x8C0 PUSH2 0x644 JUMP JUMPDEST JUMPDEST PUSH2 0x8CD DUP5 DUP3 DUP6 ADD PUSH2 0x7BB JUMP JUMPDEST PUSH1 0x40 DUP4 ADD MSTORE POP PUSH1 0x60 PUSH2 0x8E1 DUP5 DUP3 DUP6 ADD PUSH2 0x80C JUMP JUMPDEST PUSH1 0x60 DUP4 ADD MSTORE POP SWAP3 SWAP2 POP POP JUMP JUMPDEST PUSH1 0x0 DUP1 PUSH1 0x40 DUP4 DUP6 SUB SLT ISZERO PUSH2 0x904 JUMPI PUSH2 0x903 PUSH2 0x573 JUMP JUMPDEST JUMPDEST PUSH1 0x0 PUSH2 0x912 DUP6 DUP3 DUP7 ADD PUSH2 0x59E JUMP JUMPDEST SWAP3 POP POP PUSH1 0x20 DUP4 ADD CALLDATALOAD PUSH8 0xFFFFFFFFFFFFFFFF DUP2 GT ISZERO PUSH2 0x933 JUMPI PUSH2 0x932 PUSH2 0x578 JUMP JUMPDEST JUMPDEST PUSH2 0x93F DUP6 DUP3 DUP7 ADD PUSH2 0x821 JUMP JUMPDEST SWAP2 POP POP SWAP3 POP SWAP3 SWAP1 POP JUMP JUMPDEST PUSH1 0x0 PUSH20 0xFFFFFFFFFFFFFFFFFFFFFFFFFFFFFFFFFFFFFFFF DUP3 AND SWAP1 POP SWAP2 SWAP1 POP JUMP JUMPDEST PUSH1 0x0 PUSH2 0x974 DUP3 PUSH2 0x949 JUMP JUMPDEST SWAP1 POP SWAP2 SWAP1 POP JUMP JUMPDEST PUSH2 0x984 DUP2 PUSH2 0x969 JUMP JUMPDEST DUP2 EQ PUSH2 0x98F JUMPI PUSH1 0x0 DUP1 REVERT JUMPDEST POP JUMP JUMPDEST PUSH1 0x0 DUP2 CALLDATALOAD SWAP1 POP PUSH2 0x9A1 DUP2 PUSH2 0x97B JUMP JUMPDEST SWAP3 SWAP2 POP POP JUMP JUMPDEST PUSH1 0x0 DUP1 PUSH1 0x40 DUP4 DUP6 SUB SLT ISZERO PUSH2 0x9BE JUMPI PUSH2 0x9BD PUSH2 0x573 JUMP JUMPDEST JUMPDEST PUSH1 0x0 PUSH2 0x9CC DUP6 DUP3 DUP7 ADD PUSH2 0x59E JUMP JUMPDEST SWAP3 POP POP PUSH1 0x20 PUSH2 0x9DD DUP6 DUP3 DUP7 ADD PUSH2 0x992 JUMP JUMPDEST SWAP2 POP POP SWAP3 POP SWAP3 SWAP1 POP JUMP JUMPDEST PUSH1 0x2 DUP2 LT PUSH2 0x9F4 JUMPI PUSH1 0x0 DUP1 REVERT JUMPDEST POP JUMP JUMPDEST PUSH1 0x0 DUP2 CALLDATALOAD SWAP1 POP PUSH2 0xA06 DUP2 PUSH2 0x9E7 JUMP JUMPDEST SWAP3 SWAP2 POP POP JUMP JUMPDEST PUSH1 0x0 DUP1 PUSH1 0x40 DUP4 DUP6 SUB SLT ISZERO PUSH2 0xA23 JUMPI PUSH2 0xA22 PUSH2 0x573 JUMP JUMPDEST JUMPDEST PUSH1 0x0 PUSH2 0xA31 DUP6 DUP3 DUP7 ADD PUSH2 0x59E JUMP JUMPDEST SWAP3 POP POP PUSH1 0x20 PUSH2 0xA42 DUP6 DUP3 DUP7 ADD PUSH2 0x9F7 JUMP JUMPDEST SWAP2 POP POP SWAP3 POP SWAP3 SWAP1 POP JUMP JUMPDEST PUSH1 0x0 DUP1 PUSH1 0x40 DUP4 DUP6 SUB SLT ISZERO PUSH2 0xA63 JUMPI PUSH2 0xA62 PUSH2 0x573 JUMP JUMPDEST JUMPDEST PUSH1 0x0 PUSH2 0xA71 DUP6 DUP3 DUP7 ADD PUSH2 0x59E JUMP JUMPDEST SWAP3 POP POP PUSH1 0x20 PUSH2 0xA82 DUP6 DUP3 DUP7 ADD PUSH2 0x80C JUMP JUMPDEST SWAP2 POP POP SWAP3 POP SWAP3 SWAP1 POP JUMP JUMPDEST PUSH1 0x0 DUP1 PUSH1 0x40 DUP4 DUP6 SUB SLT ISZERO PUSH2 0xAA3 JUMPI PUSH2 0xAA2 PUSH2 0x573 JUMP JUMPDEST JUMPDEST PUSH1 0x0 PUSH2 0xAB1 DUP6 DUP3 DUP7 ADD PUSH2 0x59E JUMP JUMPDEST SWAP3 POP POP PUSH1 0x20 DUP4 ADD CALLDATALOAD PUSH8 0xFFFFFFFFFFFFFFFF DUP2 GT ISZERO PUSH2 0xAD2 JUMPI PUSH2 0xAD1 PUSH2 0x578 JUMP JUMPDEST JUMPDEST PUSH2 0xADE DUP6 DUP3 DUP7 ADD PUSH2 0x6D5 JUMP JUMPDEST SWAP2 POP POP SWAP3 POP SWAP3 SWAP1 POP JUMP JUMPDEST PUSH1 0x0 DUP2 MLOAD SWAP1 POP SWAP2 SWAP1 POP JUMP JUMPDEST PUSH1 0x0 DUP3 DUP3 MSTORE PUSH1 0x20 DUP3 ADD SWAP1 POP SWAP3 SWAP2 POP POP JUMP JUMPDEST PUSH1 0x0 JUMPDEST DUP4 DUP2 LT ISZERO PUSH2 0xB22 JUMPI DUP1 DUP3 ADD MLOAD DUP2 DUP5 ADD MSTORE PUSH1 0x20 DUP2 ADD SWAP1 POP PUSH2 0xB07 JUMP JUMPDEST PUSH1 0x0 DUP5 DUP5 ADD MSTORE POP POP POP POP JUMP JUMPDEST PUSH1 0x0 PUSH2 0xB39 DUP3 PUSH2 0xAE8 JUMP JUMPDEST PUSH2 0xB43 DUP2 DUP6 PUSH2 0xAF3 JUMP JUMPDEST SWAP4 POP PUSH2 0xB53 DUP2 DUP6 PUSH1 0x20 DUP7 ADD PUSH2 0xB04 JUMP JUMPDEST PUSH2 0xB5C DUP2 PUSH2 0x5B8 JUMP JUMPDEST DUP5 ADD SWAP2 POP POP SWAP3 SWAP2 POP POP JUMP JUMPDEST PUSH1 0x0 DUP2 MLOAD SWAP1 POP SWAP2 SWAP1 POP JUMP JUMPDEST PUSH1 0x0 DUP3 DUP3 MSTORE PUSH1 0x20 DUP3 ADD SWAP1 POP SWAP3 SWAP2 POP POP JUMP JUMPDEST PUSH1 0x0 DUP2 SWAP1 POP PUSH1 0x20 DUP3 ADD SWAP1 POP SWAP2 SWAP1 POP JUMP JUMPDEST PUSH1 0x0 DUP3 DUP3 MSTORE PUSH1 0x20 DUP3 ADD SWAP1 POP SWAP3 SWAP2 POP POP JUMP JUMPDEST PUSH1 0x0 PUSH2 0xBAF DUP3 PUSH2 0xAE8 JUMP JUMPDEST PUSH2 0xBB9 DUP2 DUP6 PUSH2 0xB93 JUMP JUMPDEST SWAP4 POP PUSH2 0xBC9 DUP2 DUP6 PUSH1 0x20 DUP7 ADD PUSH2 0xB04 JUMP JUMPDEST PUSH2 0xBD2 DUP2 PUSH2 0x5B8 JUMP JUMPDEST DUP5 ADD SWAP2 POP POP SWAP3 SWAP2 POP POP JUMP JUMPDEST PUSH1 0x0 PUSH2 0xBE9 DUP4 DUP4 PUSH2 0xBA4 JUMP JUMPDEST SWAP1 POP SWAP3 SWAP2 POP POP JUMP JUMPDEST PUSH1 0x0 PUSH1 0x20 DUP3 ADD SWAP1 POP SWAP2 SWAP1 POP JUMP JUMPDEST PUSH1 0x0 PUSH2 0xC09 DUP3 PUSH2 0xB67 JUMP JUMPDEST PUSH2 0xC13 DUP2 DUP6 PUSH2 0xB72 JUMP JUMPDEST SWAP4 POP DUP4 PUSH1 0x20 DUP3 MUL DUP6 ADD PUSH2 0xC25 DUP6 PUSH2 0xB83 JUMP JUMPDEST DUP1 PUSH1 0x0 JUMPDEST DUP6 DUP2 LT ISZERO PUSH2 0xC61 JUMPI DUP5 DUP5 SUB DUP10 MSTORE DUP2 MLOAD PUSH2 0xC42 DUP6 DUP3 PUSH2 0xBDD JUMP JUMPDEST SWAP5 POP PUSH2 0xC4D DUP4 PUSH2 0xBF1 JUMP JUMPDEST SWAP3 POP PUSH1 0x20 DUP11 ADD SWAP10 POP POP PUSH1 0x1 DUP2 ADD SWAP1 POP PUSH2 0xC29 JUMP JUMPDEST POP DUP3 SWAP8 POP DUP8 SWAP6 POP POP POP POP POP POP SWAP3 SWAP2 POP POP JUMP JUMPDEST PUSH1 0x0 DUP2 MLOAD SWAP1 POP SWAP2 SWAP1 POP JUMP JUMPDEST PUSH1 0x0 DUP3 DUP3 MSTORE PUSH1 0x20 DUP3 ADD SWAP1 POP SWAP3 SWAP2 POP POP JUMP JUMPDEST PUSH1 0x0 DUP2 SWAP1 POP PUSH1 0x20 DUP3 ADD SWAP1 POP SWAP2 SWAP1 POP JUMP JUMPDEST PUSH1 0x0 DUP2 MLOAD SWAP1 POP SWAP2 SWAP1 POP JUMP JUMPDEST PUSH1 0x0 DUP3 DUP3 MSTORE PUSH1 0x20 DUP3 ADD SWAP1 POP SWAP3 SWAP2 POP POP JUMP JUMPDEST PUSH1 0x0 DUP2 SWAP1 POP PUSH1 0x20 DUP3 ADD SWAP1 POP SWAP2 SWAP1 POP JUMP JUMPDEST PUSH2 0xCD4 DUP2 PUSH2 0x57D JUMP JUMPDEST DUP3 MSTORE POP POP JUMP JUMPDEST PUSH1 0x0 PUSH2 0xCE6 DUP4 DUP4 PUSH2 0xCCB JUMP JUMPDEST PUSH1 0x20 DUP4 ADD SWAP1 POP SWAP3 SWAP2 POP POP JUMP JUMPDEST PUSH1 0x0 PUSH1 0x20 DUP3 ADD SWAP1 POP SWAP2 SWAP1 POP JUMP JUMPDEST PUSH1 0x0 PUSH2 0xD0A DUP3 PUSH2 0xC9F JUMP JUMPDEST PUSH2 0xD14 DUP2 DUP6 PUSH2 0xCAA JUMP JUMPDEST SWAP4 POP PUSH2 0xD1F DUP4 PUSH2 0xCBB JUMP JUMPDEST DUP1 PUSH1 0x0 JUMPDEST DUP4 DUP2 LT ISZERO PUSH2 0xD50 JUMPI DUP2 MLOAD PUSH2 0xD37 DUP9 DUP3 PUSH2 0xCDA JUMP JUMPDEST SWAP8 POP PUSH2 0xD42 DUP4 PUSH2 0xCF2 JUMP JUMPDEST SWAP3 POP POP PUSH1 0x1 DUP2 ADD SWAP1 POP PUSH2 0xD23 JUMP JUMPDEST POP DUP6 SWAP4 POP POP POP POP SWAP3 SWAP2 POP POP JUMP JUMPDEST PUSH1 0x0 PUSH2 0xD69 DUP4 DUP4 PUSH2 0xCFF JUMP JUMPDEST SWAP1 POP SWAP3 SWAP2 POP POP JUMP JUMPDEST PUSH1 0x0 PUSH1 0x20 DUP3 ADD SWAP1 POP SWAP2 SWAP1 POP JUMP JUMPDEST PUSH1 0x0 PUSH2 0xD89 DUP3 PUSH2 0xC73 JUMP JUMPDEST PUSH2 0xD93 DUP2 DUP6 PUSH2 0xC7E JUMP JUMPDEST SWAP4 POP DUP4 PUSH1 0x20 DUP3 MUL DUP6 ADD PUSH2 0xDA5 DUP6 PUSH2 0xC8F JUMP JUMPDEST DUP1 PUSH1 0x0 JUMPDEST DUP6 DUP2 LT ISZERO PUSH2 0xDE1 JUMPI DUP5 DUP5 SUB DUP10 MSTORE DUP2 MLOAD PUSH2 0xDC2 DUP6 DUP3 PUSH2 0xD5D JUMP JUMPDEST SWAP5 POP PUSH2 0xDCD DUP4 PUSH2 0xD71 JUMP JUMPDEST SWAP3 POP PUSH1 0x20 DUP11 ADD SWAP10 POP POP PUSH1 0x1 DUP2 ADD SWAP1 POP PUSH2 0xDA9 JUMP JUMPDEST POP DUP3 SWAP8 POP DUP8 SWAP6 POP POP POP POP POP POP SWAP3 SWAP2 POP POP JUMP JUMPDEST PUSH2 0xDFC DUP2 PUSH2 0x57D JUMP JUMPDEST DUP3 MSTORE POP POP JUMP JUMPDEST PUSH1 0x0 DUP2 MLOAD SWAP1 POP SWAP2 SWAP1 POP JUMP JUMPDEST PUSH1 0x0 DUP3 DUP3 MSTORE PUSH1 0x20 DUP3 ADD SWAP1 POP SWAP3 SWAP2 POP POP JUMP JUMPDEST PUSH1 0x0 PUSH2 0xE29 DUP3 PUSH2 0xE02 JUMP JUMPDEST PUSH2 0xE33 DUP2 DUP6 PUSH2 0xE0D JUMP JUMPDEST SWAP4 POP PUSH2 0xE43 DUP2 DUP6 PUSH1 0x20 DUP7 ADD PUSH2 0xB04 JUMP JUMPDEST PUSH2 0xE4C DUP2 PUSH2 0x5B8 JUMP JUMPDEST DUP5 ADD SWAP2 POP POP SWAP3 SWAP2 POP POP JUMP JUMPDEST PUSH1 0x0 DUP2 SWAP1 POP SWAP2 SWAP1 POP JUMP JUMPDEST PUSH2 0xE6A DUP2 PUSH2 0xE57 JUMP JUMPDEST DUP3 MSTORE POP POP JUMP JUMPDEST PUSH1 0x0 PUSH2 0x120 DUP3 ADD SWAP1 POP DUP2 DUP2 SUB PUSH1 0x0 DUP4 ADD MSTORE PUSH2 0xE8B DUP2 DUP13 PUSH2 0xB2E JUMP JUMPDEST SWAP1 POP DUP2 DUP2 SUB PUSH1 0x20 DUP4 ADD MSTORE PUSH2 0xE9F DUP2 DUP12 PUSH2 0xBFE JUMP JUMPDEST SWAP1 POP DUP2 DUP2 SUB PUSH1 0x40 DUP4 ADD MSTORE PUSH2 0xEB3 DUP2 DUP11 PUSH2 0xB2E JUMP JUMPDEST SWAP1 POP DUP2 DUP2 SUB PUSH1 0x60 DUP4 ADD MSTORE PUSH2 0xEC7 DUP2 DUP10 PUSH2 0xD7E JUMP JUMPDEST SWAP1 POP PUSH2 0xED6 PUSH1 0x80 DUP4 ADD DUP9 PUSH2 0xDF3 JUMP JUMPDEST DUP2 DUP2 SUB PUSH1 0xA0 DUP4 ADD MSTORE PUSH2 0xEE8 DUP2 DUP8 PUSH2 0xBFE JUMP JUMPDEST SWAP1 POP DUP2 DUP2 SUB PUSH1 0xC0 DUP4 ADD MSTORE PUSH2 0xEFC DUP2 DUP7 PUSH2 0xE1E JUMP JUMPDEST SWAP1 POP PUSH2 0xF0B PUSH1 0xE0 DUP4 ADD DUP6 PUSH2 0xE61 JUMP JUMPDEST DUP2 DUP2 SUB PUSH2 0x100 DUP4 ADD MSTORE PUSH2 0xF1E DUP2 DUP5 PUSH2 0xB2E JUMP JUMPDEST SWAP1 POP SWAP11 SWAP10 POP POP POP POP POP POP POP POP POP POP JUMP JUMPDEST PUSH2 0xF37 DUP2 PUSH2 0x969 JUMP JUMPDEST DUP3 MSTORE POP POP JUMP JUMPDEST PUSH1 0x0 PUSH1 0x20 DUP3 ADD SWAP1 POP PUSH2 0xF52 PUSH1 0x0 DUP4 ADD DUP5 PUSH2 0xF2E JUMP JUMPDEST SWAP3 SWAP2 POP POP JUMP JUMPDEST PUSH1 0x6 DUP2 LT PUSH2 0xF65 JUMPI PUSH1 0x0 DUP1 REVERT JUMPDEST POP JUMP JUMPDEST PUSH1 0x0 DUP2 CALLDATALOAD SWAP1 POP PUSH2 0xF77 DUP2 PUSH2 0xF58 JUMP JUMPDEST SWAP3 SWAP2 POP POP JUMP JUMPDEST PUSH1 0x0 PUSH8 0xFFFFFFFFFFFFFFFF DUP3 GT ISZERO PUSH2 0xF98 JUMPI PUSH2 0xF97 PUSH2 0x5C9 JUMP JUMPDEST JUMPDEST PUSH1 0x20 DUP3 MUL SWAP1 POP PUSH1 0x20 DUP2 ADD SWAP1 POP SWAP2 SWAP1 POP JUMP JUMPDEST PUSH1 0x0 PUSH1 0x40 DUP3 DUP5 SUB SLT ISZERO PUSH2 0xFBF JUMPI PUSH2 0xFBE PUSH2 0x5B3 JUMP JUMPDEST JUMPDEST PUSH2 0xFC9 PUSH1 0x40 PUSH2 0x629 JUMP JUMPDEST SWAP1 POP PUSH1 0x0 DUP3 ADD CALLDATALOAD PUSH8 0xFFFFFFFFFFFFFFFF DUP2 GT ISZERO PUSH2 0xFE9 JUMPI PUSH2 0xFE8 PUSH2 0x644 JUMP JUMPDEST JUMPDEST PUSH2 0xFF5 DUP5 DUP3 DUP6 ADD PUSH2 0x6D5 JUMP JUMPDEST PUSH1 0x0 DUP4 ADD MSTORE POP PUSH1 0x20 PUSH2 0x1009 DUP5 DUP3 DUP6 ADD PUSH2 0x992 JUMP JUMPDEST PUSH1 0x20 DUP4 ADD MSTORE POP SWAP3 SWAP2 POP POP JUMP JUMPDEST PUSH1 0x0 PUSH2 0x1028 PUSH2 0x1023 DUP5 PUSH2 0xF7D JUMP JUMPDEST PUSH2 0x629 JUMP JUMPDEST SWAP1 POP DUP1 DUP4 DUP3 MSTORE PUSH1 0x20 DUP3 ADD SWAP1 POP PUSH1 0x20 DUP5 MUL DUP4 ADD DUP6 DUP2 GT ISZERO PUSH2 0x104B JUMPI PUSH2 0x104A PUSH2 0x72F JUMP JUMPDEST JUMPDEST DUP4 JUMPDEST DUP2 DUP2 LT ISZERO PUSH2 0x1092 JUMPI DUP1 CALLDATALOAD PUSH8 0xFFFFFFFFFFFFFFFF DUP2 GT ISZERO PUSH2 0x1070 JUMPI PUSH2 0x106F PUSH2 0x649 JUMP JUMPDEST JUMPDEST DUP1 DUP7 ADD PUSH2 0x107D DUP10 DUP3 PUSH2 0xFA9 JUMP JUMPDEST DUP6 MSTORE PUSH1 0x20 DUP6 ADD SWAP5 POP POP POP PUSH1 0x20 DUP2 ADD SWAP1 POP PUSH2 0x104D JUMP JUMPDEST POP POP POP SWAP4 SWAP3 POP POP POP JUMP JUMPDEST PUSH1 0x0 DUP3 PUSH1 0x1F DUP4 ADD SLT PUSH2 0x10B1 JUMPI PUSH2 0x10B0 PUSH2 0x649 JUMP JUMPDEST JUMPDEST DUP2 CALLDATALOAD PUSH2 0x10C1 DUP5 DUP3 PUSH1 0x20 DUP7 ADD PUSH2 0x1015 JUMP JUMPDEST SWAP2 POP POP SWAP3 SWAP2 POP POP JUMP JUMPDEST PUSH1 0x0 PUSH1 0x40 DUP3 DUP5 SUB SLT ISZERO PUSH2 0x10E0 JUMPI PUSH2 0x10DF PUSH2 0x5B3 JUMP JUMPDEST JUMPDEST PUSH2 0x10EA PUSH1 0x40 PUSH2 0x629 JUMP JUMPDEST SWAP1 POP PUSH1 0x0 PUSH2 0x10FA DUP5 DUP3 DUP6 ADD PUSH2 0xF68 JUMP JUMPDEST PUSH1 0x0 DUP4 ADD MSTORE POP PUSH1 0x20 DUP3 ADD CALLDATALOAD PUSH8 0xFFFFFFFFFFFFFFFF DUP2 GT ISZERO PUSH2 0x111E JUMPI PUSH2 0x111D PUSH2 0x644 JUMP JUMPDEST JUMPDEST PUSH2 0x112A DUP5 DUP3 DUP6 ADD PUSH2 0x109C JUMP JUMPDEST PUSH1 0x20 DUP4 ADD MSTORE POP SWAP3 SWAP2 POP POP JUMP JUMPDEST PUSH1 0x0 DUP1 PUSH1 0x40 DUP4 DUP6 SUB SLT ISZERO PUSH2 0x114D JUMPI PUSH2 0x114C PUSH2 0x573 JUMP JUMPDEST JUMPDEST PUSH1 0x0 PUSH2 0x115B DUP6 DUP3 DUP7 ADD PUSH2 0x59E JUMP JUMPDEST SWAP3 POP POP PUSH1 0x20 DUP4 ADD CALLDATALOAD PUSH8 0xFFFFFFFFFFFFFFFF DUP2 GT ISZERO PUSH2 0x117C JUMPI PUSH2 0x117B PUSH2 0x578 JUMP JUMPDEST JUMPDEST PUSH2 0x1188 DUP6 DUP3 DUP7 ADD PUSH2 0x10CA JUMP JUMPDEST SWAP2 POP POP SWAP3 POP SWAP3 SWAP1 POP JUMP JUMPDEST PUSH1 0x0 PUSH1 0x20 DUP3 DUP5 SUB SLT ISZERO PUSH2 0x11A8 JUMPI PUSH2 0x11A7 PUSH2 0x573 JUMP JUMPDEST JUMPDEST PUSH1 0x0 PUSH2 0x11B6 DUP5 DUP3 DUP6 ADD PUSH2 0x59E JUMP JUMPDEST SWAP2 POP POP SWAP3 SWAP2 POP POP JUMP JUMPDEST PUSH1 0x0 PUSH8 0xFFFFFFFFFFFFFFFF DUP3 GT ISZERO PUSH2 0x11DA JUMPI PUSH2 0x11D9 PUSH2 0x5C9 JUMP JUMPDEST JUMPDEST PUSH1 0x20 DUP3 MUL SWAP1 POP PUSH1 0x20 DUP2 ADD SWAP1 POP SWAP2 SWAP1 POP JUMP JUMPDEST PUSH1 0x0 PUSH2 0x11FE PUSH2 0x11F9 DUP5 PUSH2 0x11BF JUMP JUMPDEST PUSH2 0x629 JUMP JUMPDEST SWAP1 POP DUP1 DUP4 DUP3 MSTORE PUSH1 0x20 DUP3 ADD SWAP1 POP PUSH1 0x20 DUP5 MUL DUP4 ADD DUP6 DUP2 GT ISZERO PUSH2 0x1221 JUMPI PUSH2 0x1220 PUSH2 0x72F JUMP JUMPDEST JUMPDEST DUP4 JUMPDEST DUP2 DUP2 LT ISZERO PUSH2 0x124A JUMPI DUP1 PUSH2 0x1236 DUP9 DUP3 PUSH2 0x59E JUMP JUMPDEST DUP5 MSTORE PUSH1 0x20 DUP5 ADD SWAP4 POP POP PUSH1 0x20 DUP2 ADD SWAP1 POP PUSH2 0x1223 JUMP JUMPDEST POP POP POP SWAP4 SWAP3 POP POP POP JUMP JUMPDEST PUSH1 0x0 DUP3 PUSH1 0x1F DUP4 ADD SLT PUSH2 0x1269 JUMPI PUSH2 0x1268 PUSH2 0x649 JUMP JUMPDEST JUMPDEST DUP2 CALLDATALOAD PUSH2 0x1279 DUP5 DUP3 PUSH1 0x20 DUP7 ADD PUSH2 0x11EB JUMP JUMPDEST SWAP2 POP POP SWAP3 SWAP2 POP POP JUMP JUMPDEST PUSH1 0x0 DUP1 PUSH1 0x0 DUP1 PUSH1 0x0 PUSH1 0xA0 DUP7 DUP9 SUB SLT ISZERO PUSH2 0x129E JUMPI PUSH2 0x129D PUSH2 0x573 JUMP JUMPDEST JUMPDEST PUSH1 0x0 DUP7 ADD CALLDATALOAD PUSH8 0xFFFFFFFFFFFFFFFF DUP2 GT ISZERO PUSH2 0x12BC JUMPI PUSH2 0x12BB PUSH2 0x578 JUMP JUMPDEST JUMPDEST PUSH2 0x12C8 DUP9 DUP3 DUP10 ADD PUSH2 0x821 JUMP JUMPDEST SWAP6 POP POP PUSH1 0x20 DUP7 ADD CALLDATALOAD PUSH8 0xFFFFFFFFFFFFFFFF DUP2 GT ISZERO PUSH2 0x12E9 JUMPI PUSH2 0x12E8 PUSH2 0x578 JUMP JUMPDEST JUMPDEST PUSH2 0x12F5 DUP9 DUP3 DUP10 ADD PUSH2 0x10CA JUMP JUMPDEST SWAP5 POP POP PUSH1 0x40 DUP7 ADD CALLDATALOAD PUSH8 0xFFFFFFFFFFFFFFFF DUP2 GT ISZERO PUSH2 0x1316 JUMPI PUSH2 0x1315 PUSH2 0x578 JUMP JUMPDEST JUMPDEST PUSH2 0x1322 DUP9 DUP3 DUP10 ADD PUSH2 0x1254 JUMP JUMPDEST SWAP4 POP POP PUSH1 0x60 PUSH2 0x1333 DUP9 DUP3 DUP10 ADD PUSH2 0x992 JUMP JUMPDEST SWAP3 POP POP PUSH1 0x80 PUSH2 0x1344 DUP9 DUP3 DUP10 ADD PUSH2 0x9F7 JUMP JUMPDEST SWAP2 POP POP SWAP3 SWAP6 POP SWAP3 SWAP6 SWAP1 SWAP4 POP JUMP JUMPDEST PUSH1 0x0 PUSH1 0x20 DUP3 ADD SWAP1 POP PUSH2 0x1366 PUSH1 0x0 DUP4 ADD DUP5 PUSH2 0xDF3 JUMP JUMPDEST SWAP3 SWAP2 POP POP JUMP JUMPDEST PUSH1 0x0 DUP1 PUSH1 0x0 DUP1 PUSH1 0x0 DUP1 PUSH1 0xC0 DUP8 DUP10 SUB SLT ISZERO PUSH2 0x1389 JUMPI PUSH2 0x1388 PUSH2 0x573 JUMP JUMPDEST JUMPDEST PUSH1 0x0 PUSH2 0x1397 DUP10 DUP3 DUP11 ADD PUSH2 0x59E JUMP JUMPDEST SWAP7 POP POP PUSH1 0x20 DUP8 ADD CALLDATALOAD PUSH8 0xFFFFFFFFFFFFFFFF DUP2 GT ISZERO PUSH2 0x13B8 JUMPI PUSH2 0x13B7 PUSH2 0x578 JUMP JUMPDEST JUMPDEST PUSH2 0x13C4 DUP10 DUP3 DUP11 ADD PUSH2 0x821 JUMP JUMPDEST SWAP6 POP POP PUSH1 0x40 DUP8 ADD CALLDATALOAD PUSH8 0xFFFFFFFFFFFFFFFF DUP2 GT ISZERO PUSH2 0x13E5 JUMPI PUSH2 0x13E4 PUSH2 0x578 JUMP JUMPDEST JUMPDEST PUSH2 0x13F1 DUP10 DUP3 DUP11 ADD PUSH2 0x10CA JUMP JUMPDEST SWAP5 POP POP PUSH1 0x60 DUP8 ADD CALLDATALOAD PUSH8 0xFFFFFFFFFFFFFFFF DUP2 GT ISZERO PUSH2 0x1412 JUMPI PUSH2 0x1411 PUSH2 0x578 JUMP JUMPDEST JUMPDEST PUSH2 0x141E DUP10 DUP3 DUP11 ADD PUSH2 0x1254 JUMP JUMPDEST SWAP4 POP POP PUSH1 0x80 PUSH2 0x142F DUP10 DUP3 DUP11 ADD PUSH2 0x992 JUMP JUMPDEST SWAP3 POP POP PUSH1 0xA0 PUSH2 0x1440 DUP10 DUP3 DUP11 ADD PUSH2 0x9F7 JUMP JUMPDEST SWAP2 POP POP SWAP3 SWAP6 POP SWAP3 SWAP6 POP SWAP3 SWAP6 JUMP JUMPDEST PUSH2 0x1456 DUP2 PUSH2 0xE57 JUMP JUMPDEST DUP2 EQ PUSH2 0x1461 JUMPI PUSH1 0x0 DUP1 REVERT JUMPDEST POP JUMP JUMPDEST PUSH1 0x0 DUP2 CALLDATALOAD SWAP1 POP PUSH2 0x1473 DUP2 PUSH2 0x144D JUMP JUMPDEST SWAP3 SWAP2 POP POP JUMP JUMPDEST PUSH1 0x0 PUSH8 0xFFFFFFFFFFFFFFFF DUP3 GT ISZERO PUSH2 0x1494 JUMPI PUSH2 0x1493 PUSH2 0x5C9 JUMP JUMPDEST JUMPDEST PUSH1 0x20 DUP3 MUL SWAP1 POP PUSH1 0x20 DUP2 ADD SWAP1 POP SWAP2 SWAP1 POP JUMP JUMPDEST PUSH1 0x0 PUSH2 0x14B8 PUSH2 0x14B3 DUP5 PUSH2 0x1479 JUMP JUMPDEST PUSH2 0x629 JUMP JUMPDEST SWAP1 POP DUP1 DUP4 DUP3 MSTORE PUSH1 0x20 DUP3 ADD SWAP1 POP PUSH1 0x20 DUP5 MUL DUP4 ADD DUP6 DUP2 GT ISZERO PUSH2 0x14DB JUMPI PUSH2 0x14DA PUSH2 0x72F JUMP JUMPDEST JUMPDEST DUP4 JUMPDEST DUP2 DUP2 LT ISZERO PUSH2 0x1522 JUMPI DUP1 CALLDATALOAD PUSH8 0xFFFFFFFFFFFFFFFF DUP2 GT ISZERO PUSH2 0x1500 JUMPI PUSH2 0x14FF PUSH2 0x649 JUMP JUMPDEST JUMPDEST DUP1 DUP7 ADD PUSH2 0x150D DUP10 DUP3 PUSH2 0x1254 JUMP JUMPDEST DUP6 MSTORE PUSH1 0x20 DUP6 ADD SWAP5 POP POP POP PUSH1 0x20 DUP2 ADD SWAP1 POP PUSH2 0x14DD JUMP JUMPDEST POP POP POP SWAP4 SWAP3 POP POP POP JUMP JUMPDEST PUSH1 0x0 DUP3 PUSH1 0x1F DUP4 ADD SLT PUSH2 0x1541 JUMPI PUSH2 0x1540 PUSH2 0x649 JUMP JUMPDEST JUMPDEST DUP2 CALLDATALOAD PUSH2 0x1551 DUP5 DUP3 PUSH1 0x20 DUP7 ADD PUSH2 0x14A5 JUMP JUMPDEST SWAP2 POP POP SWAP3 SWAP2 POP POP JUMP JUMPDEST PUSH1 0x0 PUSH8 0xFFFFFFFFFFFFFFFF DUP3 GT ISZERO PUSH2 0x1575 JUMPI PUSH2 0x1574 PUSH2 0x5C9 JUMP JUMPDEST JUMPDEST PUSH2 0x157E DUP3 PUSH2 0x5B8 JUMP JUMPDEST SWAP1 POP PUSH1 0x20 DUP2 ADD SWAP1 POP SWAP2 SWAP1 POP JUMP JUMPDEST PUSH1 0x0 PUSH2 0x159E PUSH2 0x1599 DUP5 PUSH2 0x155A JUMP JUMPDEST PUSH2 0x629 JUMP JUMPDEST SWAP1 POP DUP3 DUP2 MSTORE PUSH1 0x20 DUP2 ADD DUP5 DUP5 DUP5 ADD GT ISZERO PUSH2 0x15BA JUMPI PUSH2 0x15B9 PUSH2 0x64E JUMP JUMPDEST JUMPDEST PUSH2 0x15C5 DUP5 DUP3 DUP6 PUSH2 0x684 JUMP JUMPDEST POP SWAP4 SWAP3 POP POP POP JUMP JUMPDEST PUSH1 0x0 DUP3 PUSH1 0x1F DUP4 ADD SLT PUSH2 0x15E2 JUMPI PUSH2 0x15E1 PUSH2 0x649 JUMP JUMPDEST JUMPDEST DUP2 CALLDATALOAD PUSH2 0x15F2 DUP5 DUP3 PUSH1 0x20 DUP7 ADD PUSH2 0x158B JUMP JUMPDEST SWAP2 POP POP SWAP3 SWAP2 POP POP JUMP JUMPDEST PUSH1 0x0 DUP1 PUSH1 0x0 DUP1 PUSH1 0x0 DUP1 PUSH1 0x0 DUP1 PUSH1 0x0 DUP1 PUSH1 0x0 PUSH2 0x160 DUP13 DUP15 SUB SLT ISZERO PUSH2 0x1621 JUMPI PUSH2 0x1620 PUSH2 0x573 JUMP JUMPDEST JUMPDEST PUSH1 0x0 PUSH2 0x162F DUP15 DUP3 DUP16 ADD PUSH2 0x59E JUMP JUMPDEST SWAP12 POP POP PUSH1 0x20 PUSH2 0x1640 DUP15 DUP3 DUP16 ADD PUSH2 0x1464 JUMP JUMPDEST SWAP11 POP POP PUSH1 0x40 DUP13 ADD CALLDATALOAD PUSH8 0xFFFFFFFFFFFFFFFF DUP2 GT ISZERO PUSH2 0x1661 JUMPI PUSH2 0x1660 PUSH2 0x578 JUMP JUMPDEST JUMPDEST PUSH2 0x166D DUP15 DUP3 DUP16 ADD PUSH2 0x6D5 JUMP JUMPDEST SWAP10 POP POP PUSH1 0x60 DUP13 ADD CALLDATALOAD PUSH8 0xFFFFFFFFFFFFFFFF DUP2 GT ISZERO PUSH2 0x168E JUMPI PUSH2 0x168D PUSH2 0x578 JUMP JUMPDEST JUMPDEST PUSH2 0x169A DUP15 DUP3 DUP16 ADD PUSH2 0x7BB JUMP JUMPDEST SWAP9 POP POP PUSH1 0x80 DUP13 ADD CALLDATALOAD PUSH8 0xFFFFFFFFFFFFFFFF DUP2 GT ISZERO PUSH2 0x16BB JUMPI PUSH2 0x16BA PUSH2 0x578 JUMP JUMPDEST JUMPDEST PUSH2 0x16C7 DUP15 DUP3 DUP16 ADD PUSH2 0x6D5 JUMP JUMPDEST SWAP8 POP POP PUSH1 0xA0 DUP13 ADD CALLDATALOAD PUSH8 0xFFFFFFFFFFFFFFFF DUP2 GT ISZERO PUSH2 0x16E8 JUMPI PUSH2 0x16E7 PUSH2 0x578 JUMP JUMPDEST JUMPDEST PUSH2 0x16F4 DUP15 DUP3 DUP16 ADD PUSH2 0x152C JUMP JUMPDEST SWAP7 POP POP PUSH1 0xC0 PUSH2 0x1705 DUP15 DUP3 DUP16 ADD PUSH2 0x59E JUMP JUMPDEST SWAP6 POP POP PUSH1 0xE0 DUP13 ADD CALLDATALOAD PUSH8 0xFFFFFFFFFFFFFFFF DUP2 GT ISZERO PUSH2 0x1726 JUMPI PUSH2 0x1725 PUSH2 0x578 JUMP JUMPDEST JUMPDEST PUSH2 0x1732 DUP15 DUP3 DUP16 ADD PUSH2 0x7BB JUMP JUMPDEST SWAP5 POP POP PUSH2 0x100 DUP13 ADD CALLDATALOAD PUSH8 0xFFFFFFFFFFFFFFFF DUP2 GT ISZERO PUSH2 0x1754 JUMPI PUSH2 0x1753 PUSH2 0x578 JUMP JUMPDEST JUMPDEST PUSH2 0x1760 DUP15 DUP3 DUP16 ADD PUSH2 0x15CD JUMP JUMPDEST SWAP4 POP POP PUSH2 0x120 PUSH2 0x1772 DUP15 DUP3 DUP16 ADD PUSH2 0x1464 JUMP JUMPDEST SWAP3 POP POP PUSH2 0x140 DUP13 ADD CALLDATALOAD PUSH8 0xFFFFFFFFFFFFFFFF DUP2 GT ISZERO PUSH2 0x1794 JUMPI PUSH2 0x1793 PUSH2 0x578 JUMP JUMPDEST JUMPDEST PUSH2 0x17A0 DUP15 DUP3 DUP16 ADD PUSH2 0x6D5 JUMP JUMPDEST SWAP2 POP POP SWAP3 SWAP6 SWAP9 SWAP12 POP SWAP3 SWAP6 SWAP9 SWAP12 SWAP1 SWAP4 SWAP7 SWAP10 POP JUMP JUMPDEST PUSH1 0x0 PUSH1 0x20 DUP3 DUP5 SUB SLT ISZERO PUSH2 0x17C9 JUMPI PUSH2 0x17C8 PUSH2 0x573 JUMP JUMPDEST JUMPDEST PUSH1 0x0 PUSH2 0x17D7 DUP5 DUP3 DUP6 ADD PUSH2 0x992 JUMP JUMPDEST SWAP2 POP POP SWAP3 SWAP2 POP POP JUMP INVALID LOG2 PUSH5 0x6970667358 0x22 SLT KECCAK256 SWAP12 0xB3 0xD3 0xDF LOG2 PUSH9 0x3AC438801ABC7512AF 0xD6 0xE 0xCF 0x4B SWAP12 TLOAD 0xE8 0xED 0xA7 0xD8 0xCE LOG3 GASLIMIT MSTORE PUSH1 0x5E 0xA7 PUSH5 0x736F6C6343 STOP ADDMOD XOR STOP CALLER "},"methodIdentifiers":{"AddCensus(uint256,(uint8,(string,address)[]))":"97ada1eb","AddGuardian(uint256,address)":"51df526e","AdminManageCommunity(uint256,(string,string,string[],bool),(uint8,(string,address)[]),uint256[],address,uint8)":"d2e3ac0d","CreateCommunity((string,string,string[],bool),(uint8,(string,address)[]),uint256[],address,uint8)":"cd22ba84","DeleteCommunity(uint256)":"f177a077","GetElectionResults(uint256,string)":"729e1348","RemoveCensus(uint256)":"b025dd9b","RemoveGuardian(uint256,address)":"49dd50be","SetCreateElectionPermission(uint256,uint8)":"67272a52","SetElectionResults(uint256,bytes32,string,string[],string,uint256[][],uint256,string[],bytes,bytes32,string)":"e2539dc9","SetElectionResultsContract(uint256,address)":"d66917d9","SetMetadata(uint256,(string,string,string[],bool))":"2ebf88f8","SetNotifiableElections(uint256,bool)":"6ebf3c4c","owner()":"8da5cb5b","renounceOwnership()":"715018a6","transferOwnership(address)":"f2fde38b"}}}}}