{
  "_format": "hh-sol-artifact-1",
  "contractName": "CommunityHubV2",
  "sourceName": "src/CommunityHubV2.sol",
  "abi": [
    {
      "inputs": [
        {
          "internalType": "address",
          "name": "target",
          "type": "address"
        }
      ],
      "name": "AddressEmptyCode",
      "type": "error"
    },
    {
      "inputs": [
        {
          "internalType": "uint256",
          "name": "expected",
          "type": "uint256"
        },
        {
          "internalType": "uint256",
          "name": "actual",
          "type": "uint256"
        }
      ],
      "name": "AmountMismatch",
      "type": "error"
    },
    {
      "inputs": [
        {
          "internalType": "address",
          "name": "implementation",
          "type": "address"
        }
      ],
      "name": "ERC1967InvalidImplementation",
      "type": "error"
    },
    {
      "inputs": [],
      "name": "ERC1967NonPayable",
      "type": "error"
    },
    {
      "inputs": [],
      "name": "FailedInnerCall",
      "type": "error"
    },
    {
      "inputs": [
        {
          "internalType": "uint256",
          "name": "guardian",
          "type": "uint256"
        }
      ],
      "name": "GuardianNotFound",
      "type": "error"
    },
    {
      "inputs": [],
      "name": "InvalidCreateElectionPermission",
      "type": "error"
    },
    {
      "inputs": [],
      "name": "InvalidInitialization",
      "type": "error"
    },
    {
      "inputs": [],
      "name": "NotInitializing",
      "type": "error"
    },
    {
      "inputs": [
        {
          "internalType": "address",
          "name": "owner",
          "type": "address"
        }
      ],
      "name": "OwnableInvalidOwner",
      "type": "error"
    },
    {
      "inputs": [
        {
          "internalType": "address",
          "name": "account",
          "type": "address"
        }
      ],
      "name": "OwnableUnauthorizedAccount",
      "type": "error"
    },
    {
      "inputs": [],
      "name": "UUPSUnauthorizedCallContext",
      "type": "error"
    },
    {
      "inputs": [
        {
          "internalType": "bytes32",
          "name": "slot",
          "type": "bytes32"
        }
      ],
      "name": "UUPSUnsupportedProxiableUUID",
      "type": "error"
    },
    {
      "inputs": [],
      "name": "ZeroAmount",
      "type": "error"
    },
    {
      "anonymous": false,
      "inputs": [
        {
          "indexed": false,
          "internalType": "uint256",
          "name": "communityId",
          "type": "uint256"
        }
      ],
      "name": "AdminCommunityManaged",
      "type": "event"
    },
    {
      "anonymous": false,
      "inputs": [
        {
          "indexed": false,
          "internalType": "uint256",
          "name": "communityId",
          "type": "uint256"
        },
        {
          "components": [
            {
              "internalType": "enum ICommunityHub.CensusType",
              "name": "censusType",
              "type": "uint8"
            },
            {
              "components": [
                {
                  "internalType": "string",
                  "name": "blockchain",
                  "type": "string"
                },
                {
                  "internalType": "address",
                  "name": "contractAddress",
                  "type": "address"
                }
              ],
              "internalType": "struct ICommunityHub.Token[]",
              "name": "tokens",
              "type": "tuple[]"
            },
            {
              "internalType": "string",
              "name": "channel",
              "type": "string"
            }
          ],
          "indexed": false,
          "internalType": "struct ICommunityHub.Census",
          "name": "census",
          "type": "tuple"
        }
      ],
      "name": "CensusSet",
      "type": "event"
    },
    {
      "anonymous": false,
      "inputs": [
        {
          "indexed": false,
          "internalType": "uint256",
          "name": "communityId",
          "type": "uint256"
        },
        {
          "indexed": false,
          "internalType": "address",
          "name": "creator",
          "type": "address"
        }
      ],
      "name": "CommunityCreated",
      "type": "event"
    },
    {
      "anonymous": false,
      "inputs": [
        {
          "indexed": false,
          "internalType": "address",
          "name": "sender",
          "type": "address"
        },
        {
          "indexed": false,
          "internalType": "uint256",
          "name": "amount",
          "type": "uint256"
        },
        {
          "indexed": false,
          "internalType": "uint256",
          "name": "communityId",
          "type": "uint256"
        }
      ],
      "name": "CommunityDeposit",
      "type": "event"
    },
    {
      "anonymous": false,
      "inputs": [
        {
          "indexed": false,
          "internalType": "uint256",
          "name": "communityId",
          "type": "uint256"
        }
      ],
      "name": "CommunityDisabled",
      "type": "event"
    },
    {
      "anonymous": false,
      "inputs": [
        {
          "indexed": false,
          "internalType": "uint256",
          "name": "communityId",
          "type": "uint256"
        }
      ],
      "name": "CommunityEnabled",
      "type": "event"
    },
    {
      "anonymous": false,
      "inputs": [
        {
          "indexed": false,
          "internalType": "uint256",
          "name": "price",
          "type": "uint256"
        }
      ],
      "name": "CreateCommunityPriceSet",
      "type": "event"
    },
    {
      "anonymous": false,
      "inputs": [
        {
          "indexed": false,
          "internalType": "uint256",
          "name": "communityId",
          "type": "uint256"
        },
        {
          "indexed": false,
          "internalType": "enum ICommunityHub.CreateElectionPermission",
          "name": "createElectionPermission",
          "type": "uint8"
        }
      ],
      "name": "CreateElectionPermissionSet",
      "type": "event"
    },
    {
      "anonymous": false,
      "inputs": [
        {
          "indexed": false,
          "internalType": "address",
          "name": "sender",
          "type": "address"
        },
        {
          "indexed": false,
          "internalType": "uint256",
          "name": "amount",
          "type": "uint256"
        }
      ],
      "name": "Deposit",
      "type": "event"
    },
    {
      "anonymous": false,
      "inputs": [
        {
          "indexed": false,
          "internalType": "uint256",
          "name": "communityId",
          "type": "uint256"
        },
        {
          "indexed": false,
          "internalType": "uint256",
          "name": "guardian",
          "type": "uint256"
        }
      ],
      "name": "GuardianAdded",
      "type": "event"
    },
    {
      "anonymous": false,
      "inputs": [
        {
          "indexed": false,
          "internalType": "uint256",
          "name": "communityId",
          "type": "uint256"
        },
        {
          "indexed": false,
          "internalType": "uint256",
          "name": "guardian",
          "type": "uint256"
        }
      ],
      "name": "GuardianRemoved",
      "type": "event"
    },
    {
      "anonymous": false,
      "inputs": [
        {
          "indexed": false,
          "internalType": "uint64",
          "name": "version",
          "type": "uint64"
        }
      ],
      "name": "Initialized",
      "type": "event"
    },
    {
      "anonymous": false,
      "inputs": [
        {
          "indexed": false,
          "internalType": "uint256",
          "name": "communityId",
          "type": "uint256"
        },
        {
          "components": [
            {
              "internalType": "string",
              "name": "name",
              "type": "string"
            },
            {
              "internalType": "string",
              "name": "imageURI",
              "type": "string"
            },
            {
              "internalType": "string",
              "name": "groupChatURL",
              "type": "string"
            },
            {
              "internalType": "string[]",
              "name": "channels",
              "type": "string[]"
            },
            {
              "internalType": "bool",
              "name": "notifications",
              "type": "bool"
            }
          ],
          "indexed": false,
          "internalType": "struct ICommunityHub.CommunityMetadata",
          "name": "metadata",
          "type": "tuple"
        }
      ],
      "name": "MetadataSet",
      "type": "event"
    },
    {
      "anonymous": false,
      "inputs": [
        {
          "indexed": false,
          "internalType": "uint256",
          "name": "communityId",
          "type": "uint256"
        },
        {
          "indexed": false,
          "internalType": "bool",
          "name": "notifiableElections",
          "type": "bool"
        }
      ],
      "name": "NotifiableElectionsSet",
      "type": "event"
    },
    {
      "anonymous": false,
      "inputs": [
        {
          "indexed": true,
          "internalType": "address",
          "name": "previousOwner",
          "type": "address"
        },
        {
          "indexed": true,
          "internalType": "address",
          "name": "newOwner",
          "type": "address"
        }
      ],
      "name": "OwnershipTransferred",
      "type": "event"
    },
    {
      "anonymous": false,
      "inputs": [
        {
          "indexed": false,
          "internalType": "uint256",
          "name": "price",
          "type": "uint256"
        }
      ],
      "name": "PricePerElectionSet",
      "type": "event"
    },
    {
      "anonymous": false,
      "inputs": [
        {
          "indexed": false,
          "internalType": "uint256",
          "name": "communityId",
          "type": "uint256"
        },
        {
          "indexed": false,
          "internalType": "bytes32",
          "name": "electionId",
          "type": "bytes32"
        }
      ],
      "name": "ResultsSet",
      "type": "event"
    },
    {
      "anonymous": false,
      "inputs": [
        {
          "indexed": true,
          "internalType": "address",
          "name": "implementation",
          "type": "address"
        }
      ],
      "name": "Upgraded",
      "type": "event"
    },
    {
      "anonymous": false,
      "inputs": [
        {
          "indexed": false,
          "internalType": "uint256",
          "name": "amount",
          "type": "uint256"
        },
        {
          "indexed": false,
          "internalType": "address",
          "name": "to",
          "type": "address"
        }
      ],
      "name": "Withdrawal",
      "type": "event"
    },
    {
      "inputs": [],
      "name": "UPGRADE_INTERFACE_VERSION",
      "outputs": [
        {
          "internalType": "string",
          "name": "",
          "type": "string"
        }
      ],
      "stateMutability": "view",
      "type": "function"
    },
    {
      "inputs": [
        {
          "internalType": "uint256",
          "name": "_communityId",
          "type": "uint256"
        },
        {
          "internalType": "uint256",
          "name": "_guardian",
          "type": "uint256"
        }
      ],
      "name": "addGuardian",
      "outputs": [],
      "stateMutability": "nonpayable",
      "type": "function"
    },
    {
      "inputs": [
        {
          "internalType": "uint256",
          "name": "_communityId",
          "type": "uint256"
        },
        {
          "components": [
            {
              "internalType": "string",
              "name": "name",
              "type": "string"
            },
            {
              "internalType": "string",
              "name": "imageURI",
              "type": "string"
            },
            {
              "internalType": "string",
              "name": "groupChatURL",
              "type": "string"
            },
            {
              "internalType": "string[]",
              "name": "channels",
              "type": "string[]"
            },
            {
              "internalType": "bool",
              "name": "notifications",
              "type": "bool"
            }
          ],
          "internalType": "struct ICommunityHub.CommunityMetadata",
          "name": "_metadata",
          "type": "tuple"
        },
        {
          "components": [
            {
              "internalType": "enum ICommunityHub.CensusType",
              "name": "censusType",
              "type": "uint8"
            },
            {
              "components": [
                {
                  "internalType": "string",
                  "name": "blockchain",
                  "type": "string"
                },
                {
                  "internalType": "address",
                  "name": "contractAddress",
                  "type": "address"
                }
              ],
              "internalType": "struct ICommunityHub.Token[]",
              "name": "tokens",
              "type": "tuple[]"
            },
            {
              "internalType": "string",
              "name": "channel",
              "type": "string"
            }
          ],
          "internalType": "struct ICommunityHub.Census",
          "name": "_census",
          "type": "tuple"
        },
        {
          "internalType": "uint256[]",
          "name": "_guardians",
          "type": "uint256[]"
        },
        {
          "internalType": "enum ICommunityHub.CreateElectionPermission",
          "name": "_createElectionPermission",
          "type": "uint8"
        },
        {
          "internalType": "bool",
          "name": "_disabled",
          "type": "bool"
        },
        {
          "internalType": "uint256",
          "name": "_funds",
          "type": "uint256"
        }
      ],
      "name": "adminManageCommunity",
      "outputs": [],
      "stateMutability": "nonpayable",
      "type": "function"
    },
    {
      "inputs": [
        {
          "internalType": "uint256",
          "name": "_price",
          "type": "uint256"
        }
      ],
      "name": "adminSetCommunityPrice",
      "outputs": [],
      "stateMutability": "nonpayable",
      "type": "function"
    },
    {
      "inputs": [
        {
          "internalType": "uint256",
          "name": "_price",
          "type": "uint256"
        }
      ],
      "name": "adminSetPricePerElection",
      "outputs": [],
      "stateMutability": "nonpayable",
      "type": "function"
    },
    {
      "inputs": [
        {
          "components": [
            {
              "internalType": "string",
              "name": "name",
              "type": "string"
            },
            {
              "internalType": "string",
              "name": "imageURI",
              "type": "string"
            },
            {
              "internalType": "string",
              "name": "groupChatURL",
              "type": "string"
            },
            {
              "internalType": "string[]",
              "name": "channels",
              "type": "string[]"
            },
            {
              "internalType": "bool",
              "name": "notifications",
              "type": "bool"
            }
          ],
          "internalType": "struct ICommunityHub.CommunityMetadata",
          "name": "_metadata",
          "type": "tuple"
        },
        {
          "components": [
            {
              "internalType": "enum ICommunityHub.CensusType",
              "name": "censusType",
              "type": "uint8"
            },
            {
              "components": [
                {
                  "internalType": "string",
                  "name": "blockchain",
                  "type": "string"
                },
                {
                  "internalType": "address",
                  "name": "contractAddress",
                  "type": "address"
                }
              ],
              "internalType": "struct ICommunityHub.Token[]",
              "name": "tokens",
              "type": "tuple[]"
            },
            {
              "internalType": "string",
              "name": "channel",
              "type": "string"
            }
          ],
          "internalType": "struct ICommunityHub.Census",
          "name": "_census",
          "type": "tuple"
        },
        {
          "internalType": "uint256[]",
          "name": "_guardians",
          "type": "uint256[]"
        },
        {
          "internalType": "enum ICommunityHub.CreateElectionPermission",
          "name": "_createElectionPermission",
          "type": "uint8"
        }
      ],
      "name": "createCommunity",
      "outputs": [],
      "stateMutability": "payable",
      "type": "function"
    },
    {
      "inputs": [
        {
          "internalType": "uint256",
          "name": "_communityId",
          "type": "uint256"
        }
      ],
      "name": "deposit",
      "outputs": [],
      "stateMutability": "payable",
      "type": "function"
    },
    {
      "inputs": [
        {
          "internalType": "uint256",
          "name": "_communityId",
          "type": "uint256"
        }
      ],
      "name": "getCommunity",
      "outputs": [
        {
          "components": [
            {
              "components": [
                {
                  "internalType": "string",
                  "name": "name",
                  "type": "string"
                },
                {
                  "internalType": "string",
                  "name": "imageURI",
                  "type": "string"
                },
                {
                  "internalType": "string",
                  "name": "groupChatURL",
                  "type": "string"
                },
                {
                  "internalType": "string[]",
                  "name": "channels",
                  "type": "string[]"
                },
                {
                  "internalType": "bool",
                  "name": "notifications",
                  "type": "bool"
                }
              ],
              "internalType": "struct ICommunityHub.CommunityMetadata",
              "name": "metadata",
              "type": "tuple"
            },
            {
              "components": [
                {
                  "internalType": "enum ICommunityHub.CensusType",
                  "name": "censusType",
                  "type": "uint8"
                },
                {
                  "components": [
                    {
                      "internalType": "string",
                      "name": "blockchain",
                      "type": "string"
                    },
                    {
                      "internalType": "address",
                      "name": "contractAddress",
                      "type": "address"
                    }
                  ],
                  "internalType": "struct ICommunityHub.Token[]",
                  "name": "tokens",
                  "type": "tuple[]"
                },
                {
                  "internalType": "string",
                  "name": "channel",
                  "type": "string"
                }
              ],
              "internalType": "struct ICommunityHub.Census",
              "name": "census",
              "type": "tuple"
            },
            {
              "internalType": "uint256[]",
              "name": "guardians",
              "type": "uint256[]"
            },
            {
              "internalType": "enum ICommunityHub.CreateElectionPermission",
              "name": "createElectionPermission",
              "type": "uint8"
            },
            {
              "internalType": "bool",
              "name": "disabled",
              "type": "bool"
            },
            {
              "internalType": "uint256",
              "name": "funds",
              "type": "uint256"
            }
          ],
          "internalType": "struct ICommunityHub.Community",
          "name": "",
          "type": "tuple"
        }
      ],
      "stateMutability": "view",
      "type": "function"
    },
    {
      "inputs": [],
      "name": "getCreateCommunityPrice",
      "outputs": [
        {
          "internalType": "uint256",
          "name": "",
          "type": "uint256"
        }
      ],
      "stateMutability": "view",
      "type": "function"
    },
    {
      "inputs": [],
      "name": "getNextCommunityId",
      "outputs": [
        {
          "internalType": "uint256",
          "name": "",
          "type": "uint256"
        }
      ],
      "stateMutability": "view",
      "type": "function"
    },
    {
      "inputs": [],
      "name": "getPricePerElection",
      "outputs": [
        {
          "internalType": "uint256",
          "name": "",
          "type": "uint256"
        }
      ],
      "stateMutability": "view",
      "type": "function"
    },
    {
      "inputs": [
        {
          "internalType": "uint256",
          "name": "_communityId",
          "type": "uint256"
        },
        {
          "internalType": "bytes32",
          "name": "_electionId",
          "type": "bytes32"
        }
      ],
      "name": "getResult",
      "outputs": [
        {
          "components": [
            {
              "internalType": "string",
              "name": "question",
              "type": "string"
            },
            {
              "internalType": "string[]",
              "name": "options",
              "type": "string[]"
            },
            {
              "internalType": "string",
              "name": "date",
              "type": "string"
            },
            {
              "internalType": "uint256[][]",
              "name": "tally",
              "type": "uint256[][]"
            },
            {
              "internalType": "uint256",
              "name": "turnout",
              "type": "uint256"
            },
            {
              "internalType": "uint256",
              "name": "totalVotingPower",
              "type": "uint256"
            },
            {
              "internalType": "uint256[]",
              "name": "participants",
              "type": "uint256[]"
            },
            {
              "internalType": "bytes32",
              "name": "censusRoot",
              "type": "bytes32"
            },
            {
              "internalType": "string",
              "name": "censusURI",
              "type": "string"
            }
          ],
          "internalType": "struct IResult.Result",
          "name": "result",
          "type": "tuple"
        }
      ],
      "stateMutability": "view",
      "type": "function"
    },
    {
      "inputs": [],
      "name": "initialize",
      "outputs": [],
      "stateMutability": "nonpayable",
      "type": "function"
    },
    {
      "inputs": [],
      "name": "owner",
      "outputs": [
        {
          "internalType": "address",
          "name": "",
          "type": "address"
        }
      ],
      "stateMutability": "view",
      "type": "function"
    },
    {
      "inputs": [],
      "name": "proxiableUUID",
      "outputs": [
        {
          "internalType": "bytes32",
          "name": "",
          "type": "bytes32"
        }
      ],
      "stateMutability": "view",
      "type": "function"
    },
    {
      "inputs": [
        {
          "internalType": "uint256",
          "name": "_communityId",
          "type": "uint256"
        },
        {
          "internalType": "uint256",
          "name": "_guardian",
          "type": "uint256"
        }
      ],
      "name": "removeGuardian",
      "outputs": [],
      "stateMutability": "nonpayable",
      "type": "function"
    },
    {
      "inputs": [],
      "name": "renounceOwnership",
      "outputs": [],
      "stateMutability": "nonpayable",
      "type": "function"
    },
    {
      "inputs": [
        {
          "internalType": "uint256",
          "name": "_communityId",
          "type": "uint256"
        },
        {
          "components": [
            {
              "internalType": "enum ICommunityHub.CensusType",
              "name": "censusType",
              "type": "uint8"
            },
            {
              "components": [
                {
                  "internalType": "string",
                  "name": "blockchain",
                  "type": "string"
                },
                {
                  "internalType": "address",
                  "name": "contractAddress",
                  "type": "address"
                }
              ],
              "internalType": "struct ICommunityHub.Token[]",
              "name": "tokens",
              "type": "tuple[]"
            },
            {
              "internalType": "string",
              "name": "channel",
              "type": "string"
            }
          ],
          "internalType": "struct ICommunityHub.Census",
          "name": "_census",
          "type": "tuple"
        }
      ],
      "name": "setCensus",
      "outputs": [],
      "stateMutability": "nonpayable",
      "type": "function"
    },
    {
      "inputs": [
        {
          "internalType": "uint256",
          "name": "_communityId",
          "type": "uint256"
        },
        {
          "internalType": "enum ICommunityHub.CreateElectionPermission",
          "name": "_createElectionPermission",
          "type": "uint8"
        }
      ],
      "name": "setCreateElectionPermission",
      "outputs": [],
      "stateMutability": "nonpayable",
      "type": "function"
    },
    {
      "inputs": [
        {
          "internalType": "uint256",
          "name": "_communityId",
          "type": "uint256"
        },
        {
          "components": [
            {
              "internalType": "string",
              "name": "name",
              "type": "string"
            },
            {
              "internalType": "string",
              "name": "imageURI",
              "type": "string"
            },
            {
              "internalType": "string",
              "name": "groupChatURL",
              "type": "string"
            },
            {
              "internalType": "string[]",
              "name": "channels",
              "type": "string[]"
            },
            {
              "internalType": "bool",
              "name": "notifications",
              "type": "bool"
            }
          ],
          "internalType": "struct ICommunityHub.CommunityMetadata",
          "name": "_metadata",
          "type": "tuple"
        }
      ],
      "name": "setMetadata",
      "outputs": [],
      "stateMutability": "nonpayable",
      "type": "function"
    },
    {
      "inputs": [
        {
          "internalType": "uint256",
          "name": "_communityId",
          "type": "uint256"
        },
        {
          "internalType": "bool",
          "name": "_notifiableElections",
          "type": "bool"
        }
      ],
      "name": "setNotifiableElections",
      "outputs": [],
      "stateMutability": "nonpayable",
      "type": "function"
    },
    {
      "inputs": [
        {
          "internalType": "uint256",
          "name": "_communityId",
          "type": "uint256"
        },
        {
          "internalType": "bytes32",
          "name": "_electionId",
          "type": "bytes32"
        },
        {
          "components": [
            {
              "internalType": "string",
              "name": "question",
              "type": "string"
            },
            {
              "internalType": "string[]",
              "name": "options",
              "type": "string[]"
            },
            {
              "internalType": "string",
              "name": "date",
              "type": "string"
            },
            {
              "internalType": "uint256[][]",
              "name": "tally",
              "type": "uint256[][]"
            },
            {
              "internalType": "uint256",
              "name": "turnout",
              "type": "uint256"
            },
            {
              "internalType": "uint256",
              "name": "totalVotingPower",
              "type": "uint256"
            },
            {
              "internalType": "uint256[]",
              "name": "participants",
              "type": "uint256[]"
            },
            {
              "internalType": "bytes32",
              "name": "censusRoot",
              "type": "bytes32"
            },
            {
              "internalType": "string",
              "name": "censusURI",
              "type": "string"
            }
          ],
          "internalType": "struct IResult.Result",
          "name": "_result",
          "type": "tuple"
        }
      ],
      "name": "setResult",
      "outputs": [],
      "stateMutability": "nonpayable",
      "type": "function"
    },
    {
      "inputs": [
        {
          "internalType": "address",
          "name": "newOwner",
          "type": "address"
        }
      ],
      "name": "transferOwnership",
      "outputs": [],
      "stateMutability": "nonpayable",
      "type": "function"
    },
    {
      "inputs": [
        {
          "internalType": "address",
          "name": "newImplementation",
          "type": "address"
        },
        {
          "internalType": "bytes",
          "name": "data",
          "type": "bytes"
        }
      ],
      "name": "upgradeToAndCall",
      "outputs": [],
      "stateMutability": "payable",
      "type": "function"
    },
    {
      "inputs": [],
      "name": "withdraw",
      "outputs": [],
      "stateMutability": "nonpayable",
      "type": "function"
    },
    {
      "stateMutability": "payable",
      "type": "receive"
    }
  ],
  "bytecode": "0x60a06040523073ffffffffffffffffffffffffffffffffffffffff1660809073ffffffffffffffffffffffffffffffffffffffff1681525034801561004357600080fd5b50608051615a0d6200006e600039600081816122a1015281816122f601526124b10152615a0d6000f3fe60806040526004361061016a5760003560e01c80638129fc1c116100d1578063ad3cb1cc1161008a578063c8b785f311610064578063c8b785f3146104e1578063d62b5c591461050a578063e6160fa314610535578063f2fde38b1461055e576101aa565b8063ad3cb1cc1461046f578063b6b55f251461049a578063c5bf44ab146104b6576101aa565b80638129fc1c1461038757806382e6d6381461039e578063873ceb2e146103c75780638da5cb5b146103f05780639532c8c31461041b578063aba675b014610446576101aa565b806352d1902d1161012357806352d1902d146102ae57806356c4e4ba146102d95780636061a46014610302578063691ac0ef1461031e578063715018a6146103475780637824c05c1461035e576101aa565b806313e86265146101af578063370603f8146101ec5780633c973f75146102295780633ccfd60b146102525780633e512ebc146102695780634f1ef28614610292576101aa565b366101aa577fe1fffcc4923d04b559f4d29a8bfc6cda04eb5b0d3c460751c2402c5c5cc9109c33346040516101a0929190612dce565b60405180910390a1005b600080fd5b3480156101bb57600080fd5b506101d660048036038101906101d19190612e6d565b610587565b6040516101e39190613276565b60405180910390f35b3480156101f857600080fd5b50610213600480360381019061020e9190613298565b61096b565b6040516102209190613626565b60405180910390f35b34801561023557600080fd5b50610250600480360381019061024b919061366d565b610f35565b005b34801561025e57600080fd5b506102676113af565b005b34801561027557600080fd5b50610290600480360381019061028b9190613298565b6114f5565b005b6102ac60048036038101906102a7919061383d565b61153e565b005b3480156102ba57600080fd5b506102c361155d565b6040516102d091906138a8565b60405180910390f35b3480156102e557600080fd5b5061030060048036038101906102fb91906138e2565b611590565b005b61031c600480360381019061031791906139e2565b6115fa565b005b34801561032a57600080fd5b5061034560048036038101906103409190613ace565b61185e565b005b34801561035357600080fd5b5061035c611a84565b005b34801561036a57600080fd5b5061038560048036038101906103809190613bc8565b611a98565b005b34801561039357600080fd5b5061039c611b1a565b005b3480156103aa57600080fd5b506103c560048036038101906103c09190613c08565b611cb0565b005b3480156103d357600080fd5b506103ee60048036038101906103e99190613298565b611d1a565b005b3480156103fc57600080fd5b50610405611d63565b6040516104129190613c64565b60405180910390f35b34801561042757600080fd5b50610430611d9b565b60405161043d9190613c7f565b60405180910390f35b34801561045257600080fd5b5061046d60048036038101906104689190613c9a565b611da5565b005b34801561047b57600080fd5b50610484611efe565b6040516104919190613d24565b60405180910390f35b6104b460048036038101906104af9190613298565b611f37565b005b3480156104c257600080fd5b506104cb612088565b6040516104d89190613c7f565b60405180910390f35b3480156104ed57600080fd5b5061050860048036038101906105039190613c9a565b612092565b005b34801561051657600080fd5b5061051f612113565b60405161052c9190613c7f565b60405180910390f35b34801561054157600080fd5b5061055c60048036038101906105579190613d46565b61211d565b005b34801561056a57600080fd5b5061058560048036038101906105809190613d86565b612192565b005b61058f612a9f565b600160008481526020019081526020016000206000838152602001908152602001600020604051806101200160405290816000820180546105cf90613de2565b80601f01602080910402602001604051908101604052809291908181526020018280546105fb90613de2565b80156106485780601f1061061d57610100808354040283529160200191610648565b820191906000526020600020905b81548152906001019060200180831161062b57829003601f168201915b5050505050815260200160018201805480602002602001604051908101604052809291908181526020016000905b8282101561072257838290600052602060002001805461069590613de2565b80601f01602080910402602001604051908101604052809291908181526020018280546106c190613de2565b801561070e5780601f106106e35761010080835404028352916020019161070e565b820191906000526020600020905b8154815290600101906020018083116106f157829003601f168201915b505050505081526020019060010190610676565b50505050815260200160028201805461073a90613de2565b80601f016020809104026020016040519081016040528092919081815260200182805461076690613de2565b80156107b35780601f10610788576101008083540402835291602001916107b3565b820191906000526020600020905b81548152906001019060200180831161079657829003601f168201915b5050505050815260200160038201805480602002602001604051908101604052809291908181526020016000905b828210156108535783829060005260206000200180548060200260200160405190810160405280929190818152602001828054801561083f57602002820191906000526020600020905b81548152602001906001019080831161082b575b5050505050815260200190600101906107e1565b5050505081526020016004820154815260200160058201548152602001600682018054806020026020016040519081016040528092919081815260200182805480156108be57602002820191906000526020600020905b8154815260200190600101908083116108aa575b50505050508152602001600782015481526020016008820180546108e190613de2565b80601f016020809104026020016040519081016040528092919081815260200182805461090d90613de2565b801561095a5780601f1061092f5761010080835404028352916020019161095a565b820191906000526020600020905b81548152906001019060200180831161093d57829003601f168201915b505050505081525050905092915050565b610973612aee565b6000808381526020019081526020016000206040518060c0016040529081600082016040518060a00160405290816000820180546109b090613de2565b80601f01602080910402602001604051908101604052809291908181526020018280546109dc90613de2565b8015610a295780601f106109fe57610100808354040283529160200191610a29565b820191906000526020600020905b815481529060010190602001808311610a0c57829003601f168201915b50505050508152602001600182018054610a4290613de2565b80601f0160208091040260200160405190810160405280929190818152602001828054610a6e90613de2565b8015610abb5780601f10610a9057610100808354040283529160200191610abb565b820191906000526020600020905b815481529060010190602001808311610a9e57829003601f168201915b50505050508152602001600282018054610ad490613de2565b80601f0160208091040260200160405190810160405280929190818152602001828054610b0090613de2565b8015610b4d5780601f10610b2257610100808354040283529160200191610b4d565b820191906000526020600020905b815481529060010190602001808311610b3057829003601f168201915b5050505050815260200160038201805480602002602001604051908101604052809291908181526020016000905b82821015610c27578382906000526020600020018054610b9a90613de2565b80601f0160208091040260200160405190810160405280929190818152602001828054610bc690613de2565b8015610c135780601f10610be857610100808354040283529160200191610c13565b820191906000526020600020905b815481529060010190602001808311610bf657829003601f168201915b505050505081526020019060010190610b7b565b5050505081526020016004820160009054906101000a900460ff1615151515815250508152602001600582016040518060600160405290816000820160009054906101000a900460ff166005811115610c8357610c8261336b565b5b6005811115610c9557610c9461336b565b5b815260200160018201805480602002602001604051908101604052809291908181526020016000905b82821015610dd85783829060005260206000209060020201604051806040016040529081600082018054610cf190613de2565b80601f0160208091040260200160405190810160405280929190818152602001828054610d1d90613de2565b8015610d6a5780601f10610d3f57610100808354040283529160200191610d6a565b820191906000526020600020905b815481529060010190602001808311610d4d57829003601f168201915b505050505081526020016001820160009054906101000a900473ffffffffffffffffffffffffffffffffffffffff1673ffffffffffffffffffffffffffffffffffffffff1673ffffffffffffffffffffffffffffffffffffffff168152505081526020019060010190610cbe565b505050508152602001600282018054610df090613de2565b80601f0160208091040260200160405190810160405280929190818152602001828054610e1c90613de2565b8015610e695780601f10610e3e57610100808354040283529160200191610e69565b820191906000526020600020905b815481529060010190602001808311610e4c57829003601f168201915b505050505081525050815260200160088201805480602002602001604051908101604052809291908181526020018280548015610ec557602002820191906000526020600020905b815481526020019060010190808311610eb1575b505050505081526020016009820160009054906101000a900460ff166001811115610ef357610ef261336b565b5b6001811115610f0557610f0461336b565b5b81526020016009820160019054906101000a900460ff16151515158152602001600a820154815250509050919050565b610f3d612218565b60008084815260200190815260200160002060090160019054906101000a900460ff1615610fa0576040517f08c379a0000000000000000000000000000000000000000000000000000000008152600401610f9790613e5f565b60405180910390fd5b600354600080858152602001908152602001600020600a01541015610ffa576040517f08c379a0000000000000000000000000000000000000000000000000000000008152600401610ff190613ef1565b60405180910390fd5b600354600080858152602001908152602001600020600a0160008282546110219190613f40565b92505081905550600354600080858152602001908152602001600020600a015410156110ad57600160008085815260200190815260200160002060090160016101000a81548160ff0219169083151502179055507fd5d88098de5ba30573f08926c4e6445cab93ce09d98c1147a64045608a50797f836040516110a49190613c7f565b60405180910390a15b6110b5612a9f565b8180600001906110c59190613f83565b8080601f016020809104026020016040519081016040528093929190818152602001838380828437600081840152601f19601f8201169050808301925050505050505081600001819052508180602001906111209190613fe6565b9061112b919061419d565b81602001819052508180604001906111439190613f83565b8080601f016020809104026020016040519081016040528093929190818152602001838380828437600081840152601f19601f82011690508083019250505050505050816040018190525081806060019061119e91906141b2565b906111a9919061438b565b816060018190525081608001358160800181815250508160a001358160a0018181525050818060c001906111dd91906143a0565b80806020026020016040519081016040528093929190818152602001838360200280828437600081840152601f19601f820116905080830192505050505050508160c001819052508160e001358160e0018181525050818061010001906112449190613f83565b8080601f016020809104026020016040519081016040528093929190818152602001838380828437600081840152601f19601f820116905080830192505050505050508161010001819052508060016000868152602001908152602001600020600085815260200190815260200160002060008201518160000190816112ca91906145af565b5060208201518160010190805190602001906112e7929190612b44565b5060408201518160020190816112fd91906145af565b50606082015181600301908051906020019061131a929190612b9d565b506080820151816004015560a0820151816005015560c082015181600601908051906020019061134b929190612bfd565b5060e0820151816007015561010082015181600801908161136c91906145af565b509050507f77deb32519991dda7821b0b9367f9124aa3fd934f4845bcfd5dc6fa3f192266384846040516113a1929190614681565b60405180910390a150505050565b6113b7612218565b6000479050600081116113ff576040517f08c379a00000000000000000000000000000000000000000000000000000000081526004016113f6906146f6565b60405180910390fd5b6000611409611d63565b905060008173ffffffffffffffffffffffffffffffffffffffff168360405161143190614747565b60006040518083038185875af1925050503d806000811461146e576040519150601f19603f3d011682016040523d82523d6000602084013e611473565b606091505b50509050806114b7576040517f08c379a00000000000000000000000000000000000000000000000000000000081526004016114ae906147a8565b60405180910390fd5b7fd964a27d45f595739c13d8b1160b57491050cacf3a2e5602207277d6228f64ee83836040516114e892919061481d565b60405180910390a1505050565b6114fd612218565b806003819055507f0840c2296c4c97ecdc9b8dc544cd67f45a8d629b9d6109410530bb58b7f17b92816040516115339190613c7f565b60405180910390a150565b61154661229f565b61154f82612385565b6115598282612390565b5050565b60006115676124af565b7f360894a13ba1a3210667c828492db98dca3e2076cc3735a920a3ca505d382bbc60001b905090565b611598612218565b8060008084815260200190815260200160002060050181816115ba9190614fa0565b9050507ff768bb0dd5bd987cdbc2706c837263b29e7326b0651e4fe20c16372d24cc02ac82826040516115ee929190615272565b60405180910390a15050565b60018081111561160d5761160c61336b565b5b8160018111156116205761161f61336b565b5b1415801561165357506000600181111561163d5761163c61336b565b5b8160018111156116505761164f61336b565b5b14155b1561168a576040517fec4d40f400000000000000000000000000000000000000000000000000000000815260040160405180910390fd5b6000600454905060025434146116db57600254346040517fce6b173b0000000000000000000000000000000000000000000000000000000081526004016116d29291906152a2565b60405180910390fd5b7fd6e9bd49f32ce5202a849c6ab581631b3e952257363b06975f32872e9e1656c933348360405161170e939291906152cb565b60405180910390a1600080600083815260200190815260200160002090508681600001818161173d9190615559565b905050858160050181816117519190614fa0565b905050828160090160006101000a81548160ff0219169083600181111561177b5761177a61336b565b5b021790555060008160090160016101000a81548160ff0219169083151502179055503481600a018190555060005b8585905081101561180357816008018686838181106117cb576117ca615567565b5b9050602002013590806001815401808255809150506001900390600052602060002001600090919091909150558060010190506117a9565b506004600081548092919061181790615596565b91905055507f42c24a3323433819443a75d0e2651a9c84f696fba638d730042960045ef27241823360405161184d9291906155de565b60405180910390a150505050505050565b611866612218565b60008060008a815260200190815260200160002090508781600001818161188d9190615559565b905050868160050181816118a19190614fa0565b905050838160090160006101000a81548160ff021916908360018111156118cb576118ca61336b565b5b02179055508060090160019054906101000a900460ff161580156118ec5750825b1561194a5760018160090160016101000a81548160ff0219169083151502179055507fd5d88098de5ba30573f08926c4e6445cab93ce09d98c1147a64045608a50797f8960405161193d9190613c7f565b60405180910390a16119c1565b8060090160019054906101000a900460ff168015611966575082155b156119c05760008160090160016101000a81548160ff0219169083151502179055507f8da007fc61f3601008aa139c728ea9bf16672668b03c07f6c402ab74c034fc81896040516119b79190613c7f565b60405180910390a15b5b8060080160006119d19190612c4a565b60005b86869050811015611a2e57816008018787838181106119f6576119f5615567565b5b9050602002013590806001815401808255809150506001900390600052602060002001600090919091909150558060010190506119d4565b506000821115611a42578181600a01819055505b7f887cc86755221db77fb9a404d4834a6ca76a28df7c71c7650318819ad0f46a3c89604051611a719190613c7f565b60405180910390a1505050505050505050565b611a8c612218565b611a966000612536565b565b611aa0612218565b8060008084815260200190815260200160002060090160006101000a81548160ff02191690836001811115611ad857611ad761336b565b5b02179055507feaeee81ca4b132c1f2699cf2e7f71c26adb6ffe780097ac7d6e9ddf978398b628282604051611b0e929190615616565b60405180910390a15050565b6000611b2461260d565b905060008160000160089054906101000a900460ff1615905060008260000160009054906101000a900467ffffffffffffffff1690506000808267ffffffffffffffff16148015611b725750825b9050600060018367ffffffffffffffff16148015611ba7575060003073ffffffffffffffffffffffffffffffffffffffff163b145b905081158015611bb5575080155b15611bec576040517ff92ee8a900000000000000000000000000000000000000000000000000000000815260040160405180910390fd5b60018560000160006101000a81548167ffffffffffffffff021916908367ffffffffffffffff1602179055508315611c3c5760018560000160086101000a81548160ff0219169083151502179055505b611c44612635565b611c4d3361263f565b8315611ca95760008560000160086101000a81548160ff0219169083151502179055507fc7f505b2f371ae2175ee4913f4499e1f2633a7b5936321eed1cdaeb6115181d26001604051611ca0919061568e565b60405180910390a15b5050505050565b611cb8612218565b806000808481526020019081526020016000206000018181611cda9190615559565b9050507f440c55e385a61cd472c0cd76ee015cab9bd0760aef9634633e6597fdea583fd58282604051611d0e929190615877565b60405180910390a15050565b611d22612218565b806002819055507fac9c054628ba106d4664c2c08386354e161eab546a0a47faf040bfc1062845e781604051611d589190613c7f565b60405180910390a150565b600080611d6e612653565b90508060000160009054906101000a900473ffffffffffffffffffffffffffffffffffffffff1691505090565b6000600454905090565b611dad612218565b6000806000848152602001908152602001600020600801905060005b8180549050811015611ebc5782828281548110611de957611de8615567565b5b906000526020600020015403611eaf578160018380549050611e0b9190613f40565b81548110611e1c57611e1b615567565b5b9060005260206000200154828281548110611e3a57611e39615567565b5b906000526020600020018190555081805480611e5957611e586158a7565b5b600190038181906000526020600020016000905590557f2264fa092e5819982f4edca5b7e9c6318a16dc3e03673510429c078656dea45c8484604051611ea09291906152a2565b60405180910390a15050611efa565b8080600101915050611dc9565b50816040517f84ce930a000000000000000000000000000000000000000000000000000000008152600401611ef19190613c7f565b60405180910390fd5b5050565b6040518060400160405280600581526020017f352e302e3000000000000000000000000000000000000000000000000000000081525081565b60003403611f71576040517f1f2a200500000000000000000000000000000000000000000000000000000000815260040160405180910390fd5b34600080838152602001908152602001600020600a016000828254611f9691906158d6565b9250508190555060008082815260200190815260200160002060090160019054906101000a900460ff161561204a57600354600080838152602001908152602001600020600a01541061204957600080600083815260200190815260200160002060090160016101000a81548160ff0219169083151502179055507f8da007fc61f3601008aa139c728ea9bf16672668b03c07f6c402ab74c034fc81816040516120409190613c7f565b60405180910390a15b5b7fd6e9bd49f32ce5202a849c6ab581631b3e952257363b06975f32872e9e1656c933348360405161207d939291906152cb565b60405180910390a150565b6000600254905090565b61209a612218565b6000808381526020019081526020016000206008018190806001815401808255809150506001900390600052602060002001600090919091909150557ffcdfd5aeb97f499ca134ed43f010f2a4f5b0ab73d317ac27246a066a050a73af82826040516121079291906152a2565b60405180910390a15050565b6000600354905090565b612125612218565b8060008084815260200190815260200160002060000160040160006101000a81548160ff0219169083151502179055507fed2f2c7a2316ddc2f46a4581250611f807810052bb38bef2fbd1a81d087e064b8282604051612186929190615919565b60405180910390a15050565b61219a612218565b600073ffffffffffffffffffffffffffffffffffffffff168173ffffffffffffffffffffffffffffffffffffffff160361220c5760006040517f1e4fbdf70000000000000000000000000000000000000000000000000000000081526004016122039190613c64565b60405180910390fd5b61221581612536565b50565b61222061267b565b73ffffffffffffffffffffffffffffffffffffffff1661223e611d63565b73ffffffffffffffffffffffffffffffffffffffff161461229d5761226161267b565b6040517f118cdaa70000000000000000000000000000000000000000000000000000000081526004016122949190613c64565b60405180910390fd5b565b7f000000000000000000000000000000000000000000000000000000000000000073ffffffffffffffffffffffffffffffffffffffff163073ffffffffffffffffffffffffffffffffffffffff16148061234c57507f000000000000000000000000000000000000000000000000000000000000000073ffffffffffffffffffffffffffffffffffffffff16612333612683565b73ffffffffffffffffffffffffffffffffffffffff1614155b15612383576040517fe07c8dba00000000000000000000000000000000000000000000000000000000815260040160405180910390fd5b565b61238d612218565b50565b8173ffffffffffffffffffffffffffffffffffffffff166352d1902d6040518163ffffffff1660e01b8152600401602060405180830381865afa9250505080156123f857506040513d601f19601f820116820180604052508101906123f59190615957565b60015b61243957816040517f4c9c8ce30000000000000000000000000000000000000000000000000000000081526004016124309190613c64565b60405180910390fd5b7f360894a13ba1a3210667c828492db98dca3e2076cc3735a920a3ca505d382bbc60001b81146124a057806040517faa1d49a400000000000000000000000000000000000000000000000000000000815260040161249791906138a8565b60405180910390fd5b6124aa83836126da565b505050565b7f000000000000000000000000000000000000000000000000000000000000000073ffffffffffffffffffffffffffffffffffffffff163073ffffffffffffffffffffffffffffffffffffffff1614612534576040517fe07c8dba00000000000000000000000000000000000000000000000000000000815260040160405180910390fd5b565b6000612540612653565b905060008160000160009054906101000a900473ffffffffffffffffffffffffffffffffffffffff169050828260000160006101000a81548173ffffffffffffffffffffffffffffffffffffffff021916908373ffffffffffffffffffffffffffffffffffffffff1602179055508273ffffffffffffffffffffffffffffffffffffffff168173ffffffffffffffffffffffffffffffffffffffff167f8be0079c531659141344cd1fd0a4f28419497f9722a3daafe3b4186f6b6457e060405160405180910390a3505050565b60007ff0c57e16840df040f15088dc2f81fe391c3923bec73e23a9662efc9c229c6a00905090565b61263d61274d565b565b61264761274d565b6126508161278d565b50565b60007f9016d09d72d40fdae2fd8ceac6b6234c7706214fd39c1cd1e609a0528c199300905090565b600033905090565b60006126b17f360894a13ba1a3210667c828492db98dca3e2076cc3735a920a3ca505d382bbc60001b612813565b60000160009054906101000a900473ffffffffffffffffffffffffffffffffffffffff16905090565b6126e38261281d565b8173ffffffffffffffffffffffffffffffffffffffff167fbc7cd75a20ee27fd9adebab32041f755214dbc6bffa90cc0225b39da2e5c2d3b60405160405180910390a26000815111156127405761273a82826128ea565b50612749565b61274861296e565b5b5050565b6127556129ab565b61278b576040517fd7e6bcf800000000000000000000000000000000000000000000000000000000815260040160405180910390fd5b565b61279561274d565b600073ffffffffffffffffffffffffffffffffffffffff168173ffffffffffffffffffffffffffffffffffffffff16036128075760006040517f1e4fbdf70000000000000000000000000000000000000000000000000000000081526004016127fe9190613c64565b60405180910390fd5b61281081612536565b50565b6000819050919050565b60008173ffffffffffffffffffffffffffffffffffffffff163b0361287957806040517f4c9c8ce30000000000000000000000000000000000000000000000000000000081526004016128709190613c64565b60405180910390fd5b806128a67f360894a13ba1a3210667c828492db98dca3e2076cc3735a920a3ca505d382bbc60001b612813565b60000160006101000a81548173ffffffffffffffffffffffffffffffffffffffff021916908373ffffffffffffffffffffffffffffffffffffffff16021790555050565b60606000808473ffffffffffffffffffffffffffffffffffffffff168460405161291491906159c0565b600060405180830381855af49150503d806000811461294f576040519150601f19603f3d011682016040523d82523d6000602084013e612954565b606091505b50915091506129648583836129cb565b9250505092915050565b60003411156129a9576040517fb398979f00000000000000000000000000000000000000000000000000000000815260040160405180910390fd5b565b60006129b561260d565b60000160089054906101000a900460ff16905090565b6060826129e0576129db82612a5a565b612a52565b60008251148015612a08575060008473ffffffffffffffffffffffffffffffffffffffff163b145b15612a4a57836040517f9996b315000000000000000000000000000000000000000000000000000000008152600401612a419190613c64565b60405180910390fd5b819050612a53565b5b9392505050565b600081511115612a6d5780518082602001fd5b6040517f1425ea4200000000000000000000000000000000000000000000000000000000815260040160405180910390fd5b6040518061012001604052806060815260200160608152602001606081526020016060815260200160008152602001600081526020016060815260200160008019168152602001606081525090565b6040518060c00160405280612b01612c6b565b8152602001612b0e612c9c565b81526020016060815260200160006001811115612b2e57612b2d61336b565b5b8152602001600015158152602001600081525090565b828054828255906000526020600020908101928215612b8c579160200282015b82811115612b8b578251829081612b7b91906145af565b5091602001919060010190612b64565b5b509050612b999190612ccf565b5090565b828054828255906000526020600020908101928215612bec579160200282015b82811115612beb578251829080519060200190612bdb929190612bfd565b5091602001919060010190612bbd565b5b509050612bf99190612cf3565b5090565b828054828255906000526020600020908101928215612c39579160200282015b82811115612c38578251825591602001919060010190612c1d565b5b509050612c469190612d17565b5090565b5080546000825590600052602060002090810190612c689190612d17565b50565b6040518060a00160405280606081526020016060815260200160608152602001606081526020016000151581525090565b604051806060016040528060006005811115612cbb57612cba61336b565b5b815260200160608152602001606081525090565b5b80821115612cef5760008181612ce69190612d34565b50600101612cd0565b5090565b5b80821115612d135760008181612d0a9190612c4a565b50600101612cf4565b5090565b5b80821115612d30576000816000905550600101612d18565b5090565b508054612d4090613de2565b6000825580601f10612d525750612d71565b601f016020900490600052602060002090810190612d709190612d17565b5b50565b600073ffffffffffffffffffffffffffffffffffffffff82169050919050565b6000612d9f82612d74565b9050919050565b612daf81612d94565b82525050565b6000819050919050565b612dc881612db5565b82525050565b6000604082019050612de36000830185612da6565b612df06020830184612dbf565b9392505050565b6000604051905090565b600080fd5b600080fd5b612e1481612db5565b8114612e1f57600080fd5b50565b600081359050612e3181612e0b565b92915050565b6000819050919050565b612e4a81612e37565b8114612e5557600080fd5b50565b600081359050612e6781612e41565b92915050565b60008060408385031215612e8457612e83612e01565b5b6000612e9285828601612e22565b9250506020612ea385828601612e58565b9150509250929050565b600081519050919050565b600082825260208201905092915050565b60005b83811015612ee7578082015181840152602081019050612ecc565b60008484015250505050565b6000601f19601f8301169050919050565b6000612f0f82612ead565b612f198185612eb8565b9350612f29818560208601612ec9565b612f3281612ef3565b840191505092915050565b600081519050919050565b600082825260208201905092915050565b6000819050602082019050919050565b6000612f758383612f04565b905092915050565b6000602082019050919050565b6000612f9582612f3d565b612f9f8185612f48565b935083602082028501612fb185612f59565b8060005b85811015612fed5784840389528151612fce8582612f69565b9450612fd983612f7d565b925060208a01995050600181019050612fb5565b50829750879550505050505092915050565b600081519050919050565b600082825260208201905092915050565b6000819050602082019050919050565b600081519050919050565b600082825260208201905092915050565b6000819050602082019050919050565b61306081612db5565b82525050565b60006130728383613057565b60208301905092915050565b6000602082019050919050565b60006130968261302b565b6130a08185613036565b93506130ab83613047565b8060005b838110156130dc5781516130c38882613066565b97506130ce8361307e565b9250506001810190506130af565b5085935050505092915050565b60006130f5838361308b565b905092915050565b6000602082019050919050565b600061311582612fff565b61311f818561300a565b9350836020820285016131318561301b565b8060005b8581101561316d578484038952815161314e85826130e9565b9450613159836130fd565b925060208a01995050600181019050613135565b50829750879550505050505092915050565b61318881612e37565b82525050565b60006101208301600083015184820360008601526131ac8282612f04565b915050602083015184820360208601526131c68282612f8a565b915050604083015184820360408601526131e08282612f04565b915050606083015184820360608601526131fa828261310a565b915050608083015161320f6080860182613057565b5060a083015161322260a0860182613057565b5060c083015184820360c086015261323a828261308b565b91505060e083015161324f60e086018261317f565b506101008301518482036101008601526132698282612f04565b9150508091505092915050565b60006020820190508181036000830152613290818461318e565b905092915050565b6000602082840312156132ae576132ad612e01565b5b60006132bc84828501612e22565b91505092915050565b60008115159050919050565b6132da816132c5565b82525050565b600060a08301600083015184820360008601526132fd8282612f04565b915050602083015184820360208601526133178282612f04565b915050604083015184820360408601526133318282612f04565b9150506060830151848203606086015261334b8282612f8a565b915050608083015161336060808601826132d1565b508091505092915050565b7f4e487b7100000000000000000000000000000000000000000000000000000000600052602160045260246000fd5b600681106133ab576133aa61336b565b5b50565b60008190506133bc8261339a565b919050565b60006133cc826133ae565b9050919050565b6133dc816133c1565b82525050565b600081519050919050565b600082825260208201905092915050565b6000819050602082019050919050565b61341781612d94565b82525050565b6000604083016000830151848203600086015261343a8282612f04565b915050602083015161344f602086018261340e565b508091505092915050565b6000613466838361341d565b905092915050565b6000602082019050919050565b6000613486826133e2565b61349081856133ed565b9350836020820285016134a2856133fe565b8060005b858110156134de57848403895281516134bf858261345a565b94506134ca8361346e565b925060208a019950506001810190506134a6565b50829750879550505050505092915050565b600060608301600083015161350860008601826133d3565b5060208301518482036020860152613520828261347b565b9150506040830151848203604086015261353a8282612f04565b9150508091505092915050565b600281106135585761355761336b565b5b50565b600081905061356982613547565b919050565b60006135798261355b565b9050919050565b6135898161356e565b82525050565b600060c08301600083015184820360008601526135ac82826132e0565b915050602083015184820360208601526135c682826134f0565b915050604083015184820360408601526135e0828261308b565b91505060608301516135f56060860182613580565b50608083015161360860808601826132d1565b5060a083015161361b60a0860182613057565b508091505092915050565b60006020820190508181036000830152613640818461358f565b905092915050565b600080fd5b6000610120828403121561366457613663613648565b5b81905092915050565b60008060006060848603121561368657613685612e01565b5b600061369486828701612e22565b93505060206136a586828701612e58565b925050604084013567ffffffffffffffff8111156136c6576136c5612e06565b5b6136d28682870161364d565b9150509250925092565b6136e581612d94565b81146136f057600080fd5b50565b600081359050613702816136dc565b92915050565b600080fd5b600080fd5b7f4e487b7100000000000000000000000000000000000000000000000000000000600052604160045260246000fd5b61374a82612ef3565b810181811067ffffffffffffffff8211171561376957613768613712565b5b80604052505050565b600061377c612df7565b90506137888282613741565b919050565b600067ffffffffffffffff8211156137a8576137a7613712565b5b6137b182612ef3565b9050602081019050919050565b82818337600083830152505050565b60006137e06137db8461378d565b613772565b9050828152602081018484840111156137fc576137fb61370d565b5b6138078482856137be565b509392505050565b600082601f83011261382457613823613708565b5b81356138348482602086016137cd565b91505092915050565b6000806040838503121561385457613853612e01565b5b6000613862858286016136f3565b925050602083013567ffffffffffffffff81111561388357613882612e06565b5b61388f8582860161380f565b9150509250929050565b6138a281612e37565b82525050565b60006020820190506138bd6000830184613899565b92915050565b6000606082840312156138d9576138d8613648565b5b81905092915050565b600080604083850312156138f9576138f8612e01565b5b600061390785828601612e22565b925050602083013567ffffffffffffffff81111561392857613927612e06565b5b613934858286016138c3565b9150509250929050565b600060a0828403121561395457613953613648565b5b81905092915050565b600080fd5b600080fd5b60008083601f84011261397d5761397c613708565b5b8235905067ffffffffffffffff81111561399a5761399961395d565b5b6020830191508360208202830111156139b6576139b5613962565b5b9250929050565b600281106139ca57600080fd5b50565b6000813590506139dc816139bd565b92915050565b6000806000806000608086880312156139fe576139fd612e01565b5b600086013567ffffffffffffffff811115613a1c57613a1b612e06565b5b613a288882890161393e565b955050602086013567ffffffffffffffff811115613a4957613a48612e06565b5b613a55888289016138c3565b945050604086013567ffffffffffffffff811115613a7657613a75612e06565b5b613a8288828901613967565b93509350506060613a95888289016139cd565b9150509295509295909350565b613aab816132c5565b8114613ab657600080fd5b50565b600081359050613ac881613aa2565b92915050565b60008060008060008060008060e0898b031215613aee57613aed612e01565b5b6000613afc8b828c01612e22565b985050602089013567ffffffffffffffff811115613b1d57613b1c612e06565b5b613b298b828c0161393e565b975050604089013567ffffffffffffffff811115613b4a57613b49612e06565b5b613b568b828c016138c3565b965050606089013567ffffffffffffffff811115613b7757613b76612e06565b5b613b838b828c01613967565b95509550506080613b968b828c016139cd565b93505060a0613ba78b828c01613ab9565b92505060c0613bb88b828c01612e22565b9150509295985092959890939650565b60008060408385031215613bdf57613bde612e01565b5b6000613bed85828601612e22565b9250506020613bfe858286016139cd565b9150509250929050565b60008060408385031215613c1f57613c1e612e01565b5b6000613c2d85828601612e22565b925050602083013567ffffffffffffffff811115613c4e57613c4d612e06565b5b613c5a8582860161393e565b9150509250929050565b6000602082019050613c796000830184612da6565b92915050565b6000602082019050613c946000830184612dbf565b92915050565b60008060408385031215613cb157613cb0612e01565b5b6000613cbf85828601612e22565b9250506020613cd085828601612e22565b9150509250929050565b600082825260208201905092915050565b6000613cf682612ead565b613d008185613cda565b9350613d10818560208601612ec9565b613d1981612ef3565b840191505092915050565b60006020820190508181036000830152613d3e8184613ceb565b905092915050565b60008060408385031215613d5d57613d5c612e01565b5b6000613d6b85828601612e22565b9250506020613d7c85828601613ab9565b9150509250929050565b600060208284031215613d9c57613d9b612e01565b5b6000613daa848285016136f3565b91505092915050565b7f4e487b7100000000000000000000000000000000000000000000000000000000600052602260045260246000fd5b60006002820490506001821680613dfa57607f821691505b602082108103613e0d57613e0c613db3565b5b50919050565b7f436f6d6d756e6974792069732064697361626c65640000000000000000000000600082015250565b6000613e49601583613cda565b9150613e5482613e13565b602082019050919050565b60006020820190508181036000830152613e7881613e3c565b9050919050565b7f496e73756666696369656e742066756e647320666f722074686973206f70657260008201527f6174696f6e000000000000000000000000000000000000000000000000000000602082015250565b6000613edb602583613cda565b9150613ee682613e7f565b604082019050919050565b60006020820190508181036000830152613f0a81613ece565b9050919050565b7f4e487b7100000000000000000000000000000000000000000000000000000000600052601160045260246000fd5b6000613f4b82612db5565b9150613f5683612db5565b9250828203905081811115613f6e57613f6d613f11565b5b92915050565b600080fd5b600080fd5b600080fd5b60008083356001602003843603038112613fa057613f9f613f74565b5b80840192508235915067ffffffffffffffff821115613fc257613fc1613f79565b5b602083019250600182023603831315613fde57613fdd613f7e565b5b509250929050565b6000808335600160200384360303811261400357614002613f74565b5b80840192508235915067ffffffffffffffff82111561402557614024613f79565b5b60208301925060208202360383131561404157614040613f7e565b5b509250929050565b600067ffffffffffffffff82111561406457614063613712565b5b602082029050602081019050919050565b600067ffffffffffffffff8211156140905761408f613712565b5b61409982612ef3565b9050602081019050919050565b60006140b96140b484614075565b613772565b9050828152602081018484840111156140d5576140d461370d565b5b6140e08482856137be565b509392505050565b600082601f8301126140fd576140fc613708565b5b813561410d8482602086016140a6565b91505092915050565b600061412961412484614049565b613772565b9050808382526020820190506020840283018581111561414c5761414b613962565b5b835b8181101561419357803567ffffffffffffffff81111561417157614170613708565b5b80860161417e89826140e8565b8552602085019450505060208101905061414e565b5050509392505050565b60006141aa368484614116565b905092915050565b600080833560016020038436030381126141cf576141ce613f74565b5b80840192508235915067ffffffffffffffff8211156141f1576141f0613f79565b5b60208301925060208202360383131561420d5761420c613f7e565b5b509250929050565b600067ffffffffffffffff8211156142305761422f613712565b5b602082029050602081019050919050565b600067ffffffffffffffff82111561425c5761425b613712565b5b602082029050602081019050919050565b600061428061427b84614241565b613772565b905080838252602082019050602084028301858111156142a3576142a2613962565b5b835b818110156142cc57806142b88882612e22565b8452602084019350506020810190506142a5565b5050509392505050565b600082601f8301126142eb576142ea613708565b5b81356142fb84826020860161426d565b91505092915050565b600061431761431284614215565b613772565b9050808382526020820190506020840283018581111561433a57614339613962565b5b835b8181101561438157803567ffffffffffffffff81111561435f5761435e613708565b5b80860161436c89826142d6565b8552602085019450505060208101905061433c565b5050509392505050565b6000614398368484614304565b905092915050565b600080833560016020038436030381126143bd576143bc613f74565b5b80840192508235915067ffffffffffffffff8211156143df576143de613f79565b5b6020830192506020820236038313156143fb576143fa613f7e565b5b509250929050565b60008190508160005260206000209050919050565b60006020601f8301049050919050565b600082821b905092915050565b6000600883026144657fffffffffffffffffffffffffffffffffffffffffffffffffffffffffffffffff82614428565b61446f8683614428565b95508019841693508086168417925050509392505050565b6000819050919050565b60006144ac6144a76144a284612db5565b614487565b612db5565b9050919050565b6000819050919050565b6144c683614491565b6144da6144d2826144b3565b848454614435565b825550505050565b600090565b6144ef6144e2565b6144fa8184846144bd565b505050565b5b8181101561451e576145136000826144e7565b600181019050614500565b5050565b601f8211156145635761453481614403565b61453d84614418565b8101602085101561454c578190505b61456061455885614418565b8301826144ff565b50505b505050565b600082821c905092915050565b600061458660001984600802614568565b1980831691505092915050565b600061459f8383614575565b9150826002028217905092915050565b6145b882612ead565b67ffffffffffffffff8111156145d1576145d0613712565b5b6145db8254613de2565b6145e6828285614522565b600060209050601f8311600181146146195760008415614607578287015190505b6146118582614593565b865550614679565b601f19841661462786614403565b60005b8281101561464f5784890151825560018201915060208501945060208101905061462a565b8683101561466c5784890151614668601f891682614575565b8355505b6001600288020188555050505b505050505050565b60006040820190506146966000830185612dbf565b6146a36020830184613899565b9392505050565b7f4e6f2066756e647320617661696c61626c650000000000000000000000000000600082015250565b60006146e0601283613cda565b91506146eb826146aa565b602082019050919050565b6000602082019050818103600083015261470f816146d3565b9050919050565b600081905092915050565b50565b6000614731600083614716565b915061473c82614721565b600082019050919050565b600061475282614724565b9150819050919050565b7f4661696c656420746f2073656e64204574686572000000000000000000000000600082015250565b6000614792601483613cda565b915061479d8261475c565b602082019050919050565b600060208201905081810360008301526147c181614785565b9050919050565b60006147e36147de6147d984612d74565b614487565b612d74565b9050919050565b60006147f5826147c8565b9050919050565b6000614807826147ea565b9050919050565b614817816147fc565b82525050565b60006040820190506148326000830185612dbf565b61483f602083018461480e565b9392505050565b7f4e487b7100000000000000000000000000000000000000000000000000000000600052600060045260246000fd5b6006811061488257600080fd5b50565b6000813561489281614875565b80915050919050565b60008160001b9050919050565b600060ff6148b58461489b565b9350801983169250808416831791505092915050565b60006148d6826133ae565b9050919050565b6000819050919050565b6148f0826148cb565b6149036148fc826148dd565b83546148a8565b8255505050565b6000808335600160200384360303811261492757614926613f74565b5b80840192508235915067ffffffffffffffff82111561494957614948613f79565b5b60208301925060208202360383131561496557614964613f7e565b5b509250929050565b6000819050919050565b60008235600160400383360303811261499357614992613f74565b5b80830191505092915050565b600081549050919050565b60006149b582612db5565b91506149c083612db5565b92508282026149ce81612db5565b915082820484148315176149e5576149e4613f11565b5b5092915050565b60008190506149fc8260026149aa565b9050919050565b60008190508160005260206000209050919050565b614a487fffffffffffffffffffffffffffffffffffffffffffffffffffffffffffffffff83602003600802614568565b815481168255505050565b614a5c81614403565b614a67838254614593565b8083556000825550505050565b6020841060008114614acf57601f841160018114614a9d57614a968685614593565b8355614ac9565b614aa683614403565b614abd614ab287614418565b8201600183016144ff565b614ac78785614a53565b505b50614b1c565b614ad882614403565b614ae186614418565b8101601f87168015614afb57614afa8160018403614a18565b5b614b0f614b0788614418565b8401836144ff565b6001886002021785555050505b5050505050565b68010000000000000000841115614b3d57614b3c613712565b5b6020831060008114614b88576020851060008114614b6657614b5f8685614593565b8355614b82565b8360ff1916935083614b7784614403565b556001866002020183555b50614b92565b6001856002020182555b5050505050565b8054614ba481613de2565b80841115614bb957614bb884828486614b23565b5b80841015614bce57614bcd84828486614a74565b5b50505050565b81811015614bf257614be76000826144e7565b600181019050614bd4565b5050565b614c01600082614b99565b50565b60008214614c1557614c14614846565b5b614c1e81614bf6565b5050565b614c2f6000808301614c04565b6000600182015550565b60008214614c4a57614c49614846565b5b614c5381614c22565b5050565b5b81811015614c7657614c6b600082614c39565b600281019050614c58565b5050565b81831015614cb357614c8b826149ec565b614c94846149ec565b614c9d83614a03565b818101838201614cad8183614c57565b50505050505b505050565b68010000000000000000821115614cd257614cd1613712565b5b614cdb8161499f565b828255614ce9838284614c7a565b505050565b600082905092915050565b600082905092915050565b614d0e8383614cf9565b67ffffffffffffffff811115614d2757614d26613712565b5b614d318254613de2565b614d3c828285614522565b6000601f831160018114614d6b5760008415614d59578287013590505b614d638582614593565b865550614dcb565b601f198416614d7986614403565b60005b82811015614da157848901358255600182019150602085019450602081019050614d7c565b86831015614dbe5784890135614dba601f891682614575565b8355505b6001600288020188555050505b50505050505050565b614ddf838383614d04565b505050565b60008135614df1816136dc565b80915050919050565b600073ffffffffffffffffffffffffffffffffffffffff614e1a8461489b565b9350801983169250808416831791505092915050565b6000614e3b826147ea565b9050919050565b6000819050919050565b614e5582614e30565b614e68614e6182614e42565b8354614dfa565b8255505050565b6000810160008301614e818185613f83565b614e8c818386614dd4565b50505050600181016020830180614ea281614de4565b9050614eae8184614e4c565b5050505050565b614ebf8282614e6f565b5050565b614ecd8383614cee565b614ed78183614cb8565b614ee08361496d565b614ee983614a03565b60005b83811015614f2057614efe8387614977565b614f088184614eb5565b60208401935060028301925050600181019050614eec565b50505050505050565b614f34838383614ec3565b505050565b600081016000830180614f4b81614885565b9050614f5781846148e7565b5050506001810160208301614f6c818561490a565b614f77818386614f29565b505050506002810160408301614f8d8185613f83565b614f98818386614dd4565b505050505050565b614faa8282614f39565b5050565b600081359050614fbd81614875565b92915050565b6000614fd26020840184614fae565b905092915050565b600080fd5b600080fd5b600080fd5b6000808335600160200384360303811261500657615005614fe4565b5b83810192508235915060208301925067ffffffffffffffff82111561502e5761502d614fda565b5b60208202360383131561504457615043614fdf565b5b509250929050565b6000808335600160200384360303811261506957615068614fe4565b5b83810192508235915060208301925067ffffffffffffffff82111561509157615090614fda565b5b6001820236038313156150a7576150a6614fdf565b5b509250929050565b60006150bb8385612eb8565b93506150c88385846137be565b6150d183612ef3565b840190509392505050565b60006150eb60208401846136f3565b905092915050565b600060408301615106600084018461504c565b85830360008701526151198382846150af565b9250505061512a60208401846150dc565b615137602086018261340e565b508091505092915050565b600061514e83836150f3565b905092915050565b60008235600160400383360303811261517257615171614fe4565b5b82810191505092915050565b6000602082019050919050565b600061519783856133ed565b9350836020840285016151a98461496d565b8060005b878110156151ed5784840389526151c48284615156565b6151ce8582615142565b94506151d98361517e565b925060208a019950506001810190506151ad565b50829750879450505050509392505050565b6000606083016152126000840184614fc3565b61521f60008601826133d3565b5061522d6020840184614fe9565b858303602087015261524083828461518b565b92505050615251604084018461504c565b85830360408701526152648382846150af565b925050508091505092915050565b60006040820190506152876000830185612dbf565b818103602083015261529981846151ff565b90509392505050565b60006040820190506152b76000830185612dbf565b6152c46020830184612dbf565b9392505050565b60006060820190506152e06000830186612da6565b6152ed6020830185612dbf565b6152fa6040830184612dbf565b949350505050565b6000819050919050565b600081549050919050565b60008190506001806001038301049050919050565b60008190508160005260206000209050919050565b5b8181101561536057615355600082614c04565b600181019050615342565b5050565b8183101561539d5761537582615317565b61537e84615317565b6153878361532c565b8181018382016153978183615341565b50505050505b505050565b680100000000000000008211156153bc576153bb613712565b5b6153c58161530c565b8282556153d3838284615364565b505050565b600082905092915050565b6153ed83836153d8565b6153f781836153a2565b61540083615302565b6154098361532c565b60005b838110156154425761541e8387613f83565b615429818386614dd4565b602085019450600184019350505060018101905061540c565b50505050505050565b6154568383836153e3565b505050565b6000813561546881613aa2565b80915050919050565b600061547c826132c5565b9050919050565b6000819050919050565b61549682615471565b6154a96154a282615483565b83546148a8565b8255505050565b60008101600083016154c28185613f83565b6154cd818386614dd4565b5050505060018101602083016154e38185613f83565b6154ee818386614dd4565b5050505060028101604083016155048185613f83565b61550f818386614dd4565b5050505060038101606083016155258185613fe6565b61553081838661544b565b505050506004810160808301806155468161545b565b9050615552818461548d565b5050505050565b61556382826154b0565b5050565b7f4e487b7100000000000000000000000000000000000000000000000000000000600052603260045260246000fd5b60006155a182612db5565b91507fffffffffffffffffffffffffffffffffffffffffffffffffffffffffffffffff82036155d3576155d2613f11565b5b600182019050919050565b60006040820190506155f36000830185612dbf565b6156006020830184612da6565b9392505050565b6156108161356e565b82525050565b600060408201905061562b6000830185612dbf565b6156386020830184615607565b9392505050565b6000819050919050565b600067ffffffffffffffff82169050919050565b600061567861567361566e8461563f565b614487565b615649565b9050919050565b6156888161565d565b82525050565b60006020820190506156a3600083018461567f565b92915050565b600080833560016020038436030381126156c6576156c5614fe4565b5b83810192508235915060208301925067ffffffffffffffff8211156156ee576156ed614fda565b5b60208202360383131561570457615703614fdf565b5b509250929050565b60006157198484846150af565b90509392505050565b6000602082019050919050565b600061573b8385612f48565b93508360208402850161574d84615302565b8060005b87811015615793578484038952615768828461504c565b61577386828461570c565b955061577e84615722565b935060208b019a505050600181019050615751565b50829750879450505050509392505050565b60006157b46020840184613ab9565b905092915050565b600060a083016157cf600084018461504c565b85830360008701526157e28382846150af565b925050506157f3602084018461504c565b85830360208701526158068382846150af565b92505050615817604084018461504c565b858303604087015261582a8382846150af565b9250505061583b60608401846156a9565b858303606087015261584e83828461572f565b9250505061585f60808401846157a5565b61586c60808601826132d1565b508091505092915050565b600060408201905061588c6000830185612dbf565b818103602083015261589e81846157bc565b90509392505050565b7f4e487b7100000000000000000000000000000000000000000000000000000000600052603160045260246000fd5b60006158e182612db5565b91506158ec83612db5565b925082820190508082111561590457615903613f11565b5b92915050565b615913816132c5565b82525050565b600060408201905061592e6000830185612dbf565b61593b602083018461590a565b9392505050565b60008151905061595181612e41565b92915050565b60006020828403121561596d5761596c612e01565b5b600061597b84828501615942565b91505092915050565b600081519050919050565b600061599a82615984565b6159a48185614716565b93506159b4818560208601612ec9565b80840191505092915050565b60006159cc828461598f565b91508190509291505056fea264697066735822122093830015b3a420dfd066f5a111f2d374243aa7de16ab05fac0c268c64089572e64736f6c63430008180033",
  "linkReferences": {},
  "deployedLinkReferences": {}
}