{
  "_format": "hh-sol-artifact-1",
  "contractName": "ElectionResults",
  "sourceName": "src/ElectionResults.sol",
  "abi": [
    {
      "inputs": [
        {
          "internalType": "address",
          "name": "owner",
          "type": "address"
        }
      ],
      "stateMutability": "nonpayable",
      "type": "constructor"
    },
    {
      "inputs": [
        {
          "internalType": "address",
          "name": "owner",
          "type": "address"
        }
      ],
      "name": "OwnableInvalidOwner",
      "type": "error"
    },
    {
      "inputs": [
        {
          "internalType": "address",
          "name": "account",
          "type": "address"
        }
      ],
      "name": "OwnableUnauthorizedAccount",
      "type": "error"
    },
    {
      "anonymous": false,
      "inputs": [
        {
          "indexed": true,
          "internalType": "address",
          "name": "previousOwner",
          "type": "address"
        },
        {
          "indexed": true,
          "internalType": "address",
          "name": "newOwner",
          "type": "address"
        }
      ],
      "name": "OwnershipTransferred",
      "type": "event"
    },
    {
      "inputs": [
        {
          "internalType": "bytes32",
          "name": "communityId",
          "type": "bytes32"
        },
        {
          "internalType": "bytes32",
          "name": "electionId",
          "type": "bytes32"
        }
      ],
      "name": "getResult",
      "outputs": [
        {
          "components": [
            {
              "internalType": "string",
              "name": "question",
              "type": "string"
            },
            {
              "internalType": "string[]",
              "name": "options",
              "type": "string[]"
            },
            {
              "internalType": "string",
              "name": "date",
              "type": "string"
            },
            {
              "internalType": "uint256[][]",
              "name": "tally",
              "type": "uint256[][]"
            },
            {
              "internalType": "uint256",
              "name": "turnout",
              "type": "uint256"
            },
            {
              "internalType": "uint256",
              "name": "totalVotingPower",
              "type": "uint256"
            },
            {
              "internalType": "string[]",
              "name": "participants",
              "type": "string[]"
            },
            {
              "internalType": "bytes",
              "name": "action",
              "type": "bytes"
            },
            {
              "internalType": "bytes32",
              "name": "censusRoot",
              "type": "bytes32"
            },
            {
              "internalType": "string",
              "name": "censusURI",
              "type": "string"
            }
          ],
          "internalType": "struct ElectionResults.Result",
          "name": "",
          "type": "tuple"
        }
      ],
      "stateMutability": "view",
      "type": "function"
    },
    {
      "inputs": [],
      "name": "owner",
      "outputs": [
        {
          "internalType": "address",
          "name": "",
          "type": "address"
        }
      ],
      "stateMutability": "view",
      "type": "function"
    },
    {
      "inputs": [],
      "name": "renounceOwnership",
      "outputs": [],
      "stateMutability": "nonpayable",
      "type": "function"
    },
    {
      "inputs": [
        {
          "internalType": "bytes32",
          "name": "",
          "type": "bytes32"
        },
        {
          "internalType": "bytes32",
          "name": "",
          "type": "bytes32"
        }
      ],
      "name": "results",
      "outputs": [
        {
          "internalType": "string",
          "name": "question",
          "type": "string"
        },
        {
          "internalType": "string",
          "name": "date",
          "type": "string"
        },
        {
          "internalType": "uint256",
          "name": "turnout",
          "type": "uint256"
        },
        {
          "internalType": "uint256",
          "name": "totalVotingPower",
          "type": "uint256"
        },
        {
          "internalType": "bytes",
          "name": "action",
          "type": "bytes"
        },
        {
          "internalType": "bytes32",
          "name": "censusRoot",
          "type": "bytes32"
        },
        {
          "internalType": "string",
          "name": "censusURI",
          "type": "string"
        }
      ],
      "stateMutability": "view",
      "type": "function"
    },
    {
      "inputs": [
        {
          "internalType": "bytes32",
          "name": "communityId",
          "type": "bytes32"
        },
        {
          "internalType": "bytes32",
          "name": "electionId",
          "type": "bytes32"
        },
        {
          "components": [
            {
              "internalType": "string",
              "name": "question",
              "type": "string"
            },
            {
              "internalType": "string[]",
              "name": "options",
              "type": "string[]"
            },
            {
              "internalType": "string",
              "name": "date",
              "type": "string"
            },
            {
              "internalType": "uint256[][]",
              "name": "tally",
              "type": "uint256[][]"
            },
            {
              "internalType": "uint256",
              "name": "turnout",
              "type": "uint256"
            },
            {
              "internalType": "uint256",
              "name": "totalVotingPower",
              "type": "uint256"
            },
            {
              "internalType": "string[]",
              "name": "participants",
              "type": "string[]"
            },
            {
              "internalType": "bytes",
              "name": "action",
              "type": "bytes"
            },
            {
              "internalType": "bytes32",
              "name": "censusRoot",
              "type": "bytes32"
            },
            {
              "internalType": "string",
              "name": "censusURI",
              "type": "string"
            }
          ],
          "internalType": "struct ElectionResults.Result",
          "name": "result",
          "type": "tuple"
        }
      ],
      "name": "setResult",
      "outputs": [],
      "stateMutability": "nonpayable",
      "type": "function"
    },
    {
      "inputs": [
        {
          "internalType": "address",
          "name": "newOwner",
          "type": "address"
        }
      ],
      "name": "transferOwnership",
      "outputs": [],
      "stateMutability": "nonpayable",
      "type": "function"
    }
  ],
  "bytecode": "0x60806040523480156200001157600080fd5b5060405162002215380380620022158339818101604052810190620000379190620001f4565b80600073ffffffffffffffffffffffffffffffffffffffff168173ffffffffffffffffffffffffffffffffffffffff1603620000ad5760006040517f1e4fbdf7000000000000000000000000000000000000000000000000000000008152600401620000a4919062000237565b60405180910390fd5b620000be81620000c660201b60201c565b505062000254565b60008060009054906101000a900473ffffffffffffffffffffffffffffffffffffffff169050816000806101000a81548173ffffffffffffffffffffffffffffffffffffffff021916908373ffffffffffffffffffffffffffffffffffffffff1602179055508173ffffffffffffffffffffffffffffffffffffffff168173ffffffffffffffffffffffffffffffffffffffff167f8be0079c531659141344cd1fd0a4f28419497f9722a3daafe3b4186f6b6457e060405160405180910390a35050565b600080fd5b600073ffffffffffffffffffffffffffffffffffffffff82169050919050565b6000620001bc826200018f565b9050919050565b620001ce81620001af565b8114620001da57600080fd5b50565b600081519050620001ee81620001c3565b92915050565b6000602082840312156200020d576200020c6200018a565b5b60006200021d84828501620001dd565b91505092915050565b6200023181620001af565b82525050565b60006020820190506200024e600083018462000226565b92915050565b611fb180620002646000396000f3fe608060405234801561001057600080fd5b50600436106100625760003560e01c8063715018a6146100675780638da5cb5b14610071578063a2b53b7c1461008f578063eb847d73146100bf578063f2fde38b146100f5578063f4fea8cd14610111575b600080fd5b61006f61012d565b005b610079610141565b6040516100869190610e10565b60405180910390f35b6100a960048036038101906100a49190610e75565b61016a565b6040516100b691906112f9565b60405180910390f35b6100d960048036038101906100d49190610e75565b610661565b6040516100ec97969594939291906113cd565b60405180910390f35b61010f600480360381019061010a9190611484565b6108d0565b005b61012b60048036038101906101269190611b01565b610956565b005b610135610a5a565b61013f6000610ae1565b565b60008060009054906101000a900473ffffffffffffffffffffffffffffffffffffffff16905090565b610172610bad565b600160008481526020019081526020016000206000838152602001908152602001600020604051806101400160405290816000820180546101b290611b9f565b80601f01602080910402602001604051908101604052809291908181526020018280546101de90611b9f565b801561022b5780601f106102005761010080835404028352916020019161022b565b820191906000526020600020905b81548152906001019060200180831161020e57829003601f168201915b5050505050815260200160018201805480602002602001604051908101604052809291908181526020016000905b8282101561030557838290600052602060002001805461027890611b9f565b80601f01602080910402602001604051908101604052809291908181526020018280546102a490611b9f565b80156102f15780601f106102c6576101008083540402835291602001916102f1565b820191906000526020600020905b8154815290600101906020018083116102d457829003601f168201915b505050505081526020019060010190610259565b50505050815260200160028201805461031d90611b9f565b80601f016020809104026020016040519081016040528092919081815260200182805461034990611b9f565b80156103965780601f1061036b57610100808354040283529160200191610396565b820191906000526020600020905b81548152906001019060200180831161037957829003601f168201915b5050505050815260200160038201805480602002602001604051908101604052809291908181526020016000905b828210156104365783829060005260206000200180548060200260200160405190810160405280929190818152602001828054801561042257602002820191906000526020600020905b81548152602001906001019080831161040e575b5050505050815260200190600101906103c4565b505050508152602001600482015481526020016005820154815260200160068201805480602002602001604051908101604052809291908181526020016000905b8282101561052357838290600052602060002001805461049690611b9f565b80601f01602080910402602001604051908101604052809291908181526020018280546104c290611b9f565b801561050f5780601f106104e45761010080835404028352916020019161050f565b820191906000526020600020905b8154815290600101906020018083116104f257829003601f168201915b505050505081526020019060010190610477565b50505050815260200160078201805461053b90611b9f565b80601f016020809104026020016040519081016040528092919081815260200182805461056790611b9f565b80156105b45780601f10610589576101008083540402835291602001916105b4565b820191906000526020600020905b81548152906001019060200180831161059757829003601f168201915b50505050508152602001600882015481526020016009820180546105d790611b9f565b80601f016020809104026020016040519081016040528092919081815260200182805461060390611b9f565b80156106505780601f1061062557610100808354040283529160200191610650565b820191906000526020600020905b81548152906001019060200180831161063357829003601f168201915b505050505081525050905092915050565b60016020528160005260406000206020528060005260406000206000915091505080600001805461069190611b9f565b80601f01602080910402602001604051908101604052809291908181526020018280546106bd90611b9f565b801561070a5780601f106106df5761010080835404028352916020019161070a565b820191906000526020600020905b8154815290600101906020018083116106ed57829003601f168201915b50505050509080600201805461071f90611b9f565b80601f016020809104026020016040519081016040528092919081815260200182805461074b90611b9f565b80156107985780601f1061076d57610100808354040283529160200191610798565b820191906000526020600020905b81548152906001019060200180831161077b57829003601f168201915b5050505050908060040154908060050154908060070180546107b990611b9f565b80601f01602080910402602001604051908101604052809291908181526020018280546107e590611b9f565b80156108325780601f1061080757610100808354040283529160200191610832565b820191906000526020600020905b81548152906001019060200180831161081557829003601f168201915b50505050509080600801549080600901805461084d90611b9f565b80601f016020809104026020016040519081016040528092919081815260200182805461087990611b9f565b80156108c65780601f1061089b576101008083540402835291602001916108c6565b820191906000526020600020905b8154815290600101906020018083116108a957829003601f168201915b5050505050905087565b6108d8610a5a565b600073ffffffffffffffffffffffffffffffffffffffff168173ffffffffffffffffffffffffffffffffffffffff160361094a5760006040517f1e4fbdf70000000000000000000000000000000000000000000000000000000081526004016109419190610e10565b60405180910390fd5b61095381610ae1565b50565b61095e610a5a565b8060016000858152602001908152602001600020600084815260200190815260200160002060008201518160000190816109989190611d7c565b5060208201518160010190805190602001906109b5929190610c03565b5060408201518160020190816109cb9190611d7c565b5060608201518160030190805190602001906109e8929190610c5c565b506080820151816004015560a0820151816005015560c0820151816006019080519060200190610a19929190610c03565b5060e0820151816007019081610a2f9190611ea9565b506101008201518160080155610120820151816009019081610a519190611d7c565b50905050505050565b610a62610ba5565b73ffffffffffffffffffffffffffffffffffffffff16610a80610141565b73ffffffffffffffffffffffffffffffffffffffff1614610adf57610aa3610ba5565b6040517f118cdaa7000000000000000000000000000000000000000000000000000000008152600401610ad69190610e10565b60405180910390fd5b565b60008060009054906101000a900473ffffffffffffffffffffffffffffffffffffffff169050816000806101000a81548173ffffffffffffffffffffffffffffffffffffffff021916908373ffffffffffffffffffffffffffffffffffffffff1602179055508173ffffffffffffffffffffffffffffffffffffffff168173ffffffffffffffffffffffffffffffffffffffff167f8be0079c531659141344cd1fd0a4f28419497f9722a3daafe3b4186f6b6457e060405160405180910390a35050565b600033905090565b604051806101400160405280606081526020016060815260200160608152602001606081526020016000815260200160008152602001606081526020016060815260200160008019168152602001606081525090565b828054828255906000526020600020908101928215610c4b579160200282015b82811115610c4a578251829081610c3a9190611d7c565b5091602001919060010190610c23565b5b509050610c589190610cbc565b5090565b828054828255906000526020600020908101928215610cab579160200282015b82811115610caa578251829080519060200190610c9a929190610ce0565b5091602001919060010190610c7c565b5b509050610cb89190610d2d565b5090565b5b80821115610cdc5760008181610cd39190610d51565b50600101610cbd565b5090565b828054828255906000526020600020908101928215610d1c579160200282015b82811115610d1b578251825591602001919060010190610d00565b5b509050610d299190610d91565b5090565b5b80821115610d4d5760008181610d449190610dae565b50600101610d2e565b5090565b508054610d5d90611b9f565b6000825580601f10610d6f5750610d8e565b601f016020900490600052602060002090810190610d8d9190610d91565b5b50565b5b80821115610daa576000816000905550600101610d92565b5090565b5080546000825590600052602060002090810190610dcc9190610d91565b50565b600073ffffffffffffffffffffffffffffffffffffffff82169050919050565b6000610dfa82610dcf565b9050919050565b610e0a81610def565b82525050565b6000602082019050610e256000830184610e01565b92915050565b6000604051905090565b600080fd5b600080fd5b6000819050919050565b610e5281610e3f565b8114610e5d57600080fd5b50565b600081359050610e6f81610e49565b92915050565b60008060408385031215610e8c57610e8b610e35565b5b6000610e9a85828601610e60565b9250506020610eab85828601610e60565b9150509250929050565b600081519050919050565b600082825260208201905092915050565b60005b83811015610eef578082015181840152602081019050610ed4565b60008484015250505050565b6000601f19601f8301169050919050565b6000610f1782610eb5565b610f218185610ec0565b9350610f31818560208601610ed1565b610f3a81610efb565b840191505092915050565b600081519050919050565b600082825260208201905092915050565b6000819050602082019050919050565b6000610f7d8383610f0c565b905092915050565b6000602082019050919050565b6000610f9d82610f45565b610fa78185610f50565b935083602082028501610fb985610f61565b8060005b85811015610ff55784840389528151610fd68582610f71565b9450610fe183610f85565b925060208a01995050600181019050610fbd565b50829750879550505050505092915050565b600081519050919050565b600082825260208201905092915050565b6000819050602082019050919050565b600081519050919050565b600082825260208201905092915050565b6000819050602082019050919050565b6000819050919050565b6110728161105f565b82525050565b60006110848383611069565b60208301905092915050565b6000602082019050919050565b60006110a882611033565b6110b2818561103e565b93506110bd8361104f565b8060005b838110156110ee5781516110d58882611078565b97506110e083611090565b9250506001810190506110c1565b5085935050505092915050565b6000611107838361109d565b905092915050565b6000602082019050919050565b600061112782611007565b6111318185611012565b93508360208202850161114385611023565b8060005b8581101561117f578484038952815161116085826110fb565b945061116b8361110f565b925060208a01995050600181019050611147565b50829750879550505050505092915050565b600081519050919050565b600082825260208201905092915050565b60006111b882611191565b6111c2818561119c565b93506111d2818560208601610ed1565b6111db81610efb565b840191505092915050565b6111ef81610e3f565b82525050565b60006101408301600083015184820360008601526112138282610f0c565b9150506020830151848203602086015261122d8282610f92565b915050604083015184820360408601526112478282610f0c565b91505060608301518482036060860152611261828261111c565b91505060808301516112766080860182611069565b5060a083015161128960a0860182611069565b5060c083015184820360c08601526112a18282610f92565b91505060e083015184820360e08601526112bb82826111ad565b9150506101008301516112d26101008601826111e6565b506101208301518482036101208601526112ec8282610f0c565b9150508091505092915050565b6000602082019050818103600083015261131381846111f5565b905092915050565b600082825260208201905092915050565b600061133782610eb5565b611341818561131b565b9350611351818560208601610ed1565b61135a81610efb565b840191505092915050565b61136e8161105f565b82525050565b600082825260208201905092915050565b600061139082611191565b61139a8185611374565b93506113aa818560208601610ed1565b6113b381610efb565b840191505092915050565b6113c781610e3f565b82525050565b600060e08201905081810360008301526113e7818a61132c565b905081810360208301526113fb818961132c565b905061140a6040830188611365565b6114176060830187611365565b81810360808301526114298186611385565b905061143860a08301856113be565b81810360c083015261144a818461132c565b905098975050505050505050565b61146181610def565b811461146c57600080fd5b50565b60008135905061147e81611458565b92915050565b60006020828403121561149a57611499610e35565b5b60006114a88482850161146f565b91505092915050565b600080fd5b7f4e487b7100000000000000000000000000000000000000000000000000000000600052604160045260246000fd5b6114ee82610efb565b810181811067ffffffffffffffff8211171561150d5761150c6114b6565b5b80604052505050565b6000611520610e2b565b905061152c82826114e5565b919050565b600080fd5b600080fd5b600080fd5b600067ffffffffffffffff82111561155b5761155a6114b6565b5b61156482610efb565b9050602081019050919050565b82818337600083830152505050565b600061159361158e84611540565b611516565b9050828152602081018484840111156115af576115ae61153b565b5b6115ba848285611571565b509392505050565b600082601f8301126115d7576115d6611536565b5b81356115e7848260208601611580565b91505092915050565b600067ffffffffffffffff82111561160b5761160a6114b6565b5b602082029050602081019050919050565b600080fd5b600061163461162f846115f0565b611516565b905080838252602082019050602084028301858111156116575761165661161c565b5b835b8181101561169e57803567ffffffffffffffff81111561167c5761167b611536565b5b80860161168989826115c2565b85526020850194505050602081019050611659565b5050509392505050565b600082601f8301126116bd576116bc611536565b5b81356116cd848260208601611621565b91505092915050565b600067ffffffffffffffff8211156116f1576116f06114b6565b5b602082029050602081019050919050565b600067ffffffffffffffff82111561171d5761171c6114b6565b5b602082029050602081019050919050565b6117378161105f565b811461174257600080fd5b50565b6000813590506117548161172e565b92915050565b600061176d61176884611702565b611516565b905080838252602082019050602084028301858111156117905761178f61161c565b5b835b818110156117b957806117a58882611745565b845260208401935050602081019050611792565b5050509392505050565b600082601f8301126117d8576117d7611536565b5b81356117e884826020860161175a565b91505092915050565b60006118046117ff846116d6565b611516565b905080838252602082019050602084028301858111156118275761182661161c565b5b835b8181101561186e57803567ffffffffffffffff81111561184c5761184b611536565b5b80860161185989826117c3565b85526020850194505050602081019050611829565b5050509392505050565b600082601f83011261188d5761188c611536565b5b813561189d8482602086016117f1565b91505092915050565b600067ffffffffffffffff8211156118c1576118c06114b6565b5b6118ca82610efb565b9050602081019050919050565b60006118ea6118e5846118a6565b611516565b9050828152602081018484840111156119065761190561153b565b5b611911848285611571565b509392505050565b600082601f83011261192e5761192d611536565b5b813561193e8482602086016118d7565b91505092915050565b6000610140828403121561195e5761195d6114b1565b5b611969610140611516565b9050600082013567ffffffffffffffff81111561198957611988611531565b5b611995848285016115c2565b600083015250602082013567ffffffffffffffff8111156119b9576119b8611531565b5b6119c5848285016116a8565b602083015250604082013567ffffffffffffffff8111156119e9576119e8611531565b5b6119f5848285016115c2565b604083015250606082013567ffffffffffffffff811115611a1957611a18611531565b5b611a2584828501611878565b6060830152506080611a3984828501611745565b60808301525060a0611a4d84828501611745565b60a08301525060c082013567ffffffffffffffff811115611a7157611a70611531565b5b611a7d848285016116a8565b60c08301525060e082013567ffffffffffffffff811115611aa157611aa0611531565b5b611aad84828501611919565b60e083015250610100611ac284828501610e60565b6101008301525061012082013567ffffffffffffffff811115611ae857611ae7611531565b5b611af4848285016115c2565b6101208301525092915050565b600080600060608486031215611b1a57611b19610e35565b5b6000611b2886828701610e60565b9350506020611b3986828701610e60565b925050604084013567ffffffffffffffff811115611b5a57611b59610e3a565b5b611b6686828701611947565b9150509250925092565b7f4e487b7100000000000000000000000000000000000000000000000000000000600052602260045260246000fd5b60006002820490506001821680611bb757607f821691505b602082108103611bca57611bc9611b70565b5b50919050565b60008190508160005260206000209050919050565b60006020601f8301049050919050565b600082821b905092915050565b600060088302611c327fffffffffffffffffffffffffffffffffffffffffffffffffffffffffffffffff82611bf5565b611c3c8683611bf5565b95508019841693508086168417925050509392505050565b6000819050919050565b6000611c79611c74611c6f8461105f565b611c54565b61105f565b9050919050565b6000819050919050565b611c9383611c5e565b611ca7611c9f82611c80565b848454611c02565b825550505050565b600090565b611cbc611caf565b611cc7818484611c8a565b505050565b5b81811015611ceb57611ce0600082611cb4565b600181019050611ccd565b5050565b601f821115611d3057611d0181611bd0565b611d0a84611be5565b81016020851015611d19578190505b611d2d611d2585611be5565b830182611ccc565b50505b505050565b600082821c905092915050565b6000611d5360001984600802611d35565b1980831691505092915050565b6000611d6c8383611d42565b9150826002028217905092915050565b611d8582610eb5565b67ffffffffffffffff811115611d9e57611d9d6114b6565b5b611da88254611b9f565b611db3828285611cef565b600060209050601f831160018114611de65760008415611dd4578287015190505b611dde8582611d60565b865550611e46565b601f198416611df486611bd0565b60005b82811015611e1c57848901518255600182019150602085019450602081019050611df7565b86831015611e395784890151611e35601f891682611d42565b8355505b6001600288020188555050505b505050505050565b60008190508160005260206000209050919050565b601f821115611ea457611e7581611e4e565b611e7e84611be5565b81016020851015611e8d578190505b611ea1611e9985611be5565b830182611ccc565b50505b505050565b611eb282611191565b67ffffffffffffffff811115611ecb57611eca6114b6565b5b611ed58254611b9f565b611ee0828285611e63565b600060209050601f831160018114611f135760008415611f01578287015190505b611f0b8582611d60565b865550611f73565b601f198416611f2186611e4e565b60005b82811015611f4957848901518255600182019150602085019450602081019050611f24565b86831015611f665784890151611f62601f891682611d42565b8355505b6001600288020188555050505b50505050505056fea264697066735822122069f867224eba13ffb80aa159d123426c4c5a84fa6b9ba1b4456ae98890d312b964736f6c63430008180033",
  "linkReferences": {},
  "deployedLinkReferences": {}
}