{
  "_format": "hh-sol-artifact-1",
  "contractName": "CommunityHub",
  "sourceName": "src/CommunityHub.sol",
  "abi": [
    {
      "inputs": [],
      "stateMutability": "nonpayable",
      "type": "constructor"
    },
    {
      "inputs": [
        {
          "internalType": "uint256",
          "name": "expected",
          "type": "uint256"
        },
        {
          "internalType": "uint256",
          "name": "actual",
          "type": "uint256"
        }
      ],
      "name": "AmountMismatch",
      "type": "error"
    },
    {
      "inputs": [
        {
          "internalType": "uint256",
          "name": "guardian",
          "type": "uint256"
        }
      ],
      "name": "GuardianNotFound",
      "type": "error"
    },
    {
      "inputs": [],
      "name": "InvalidCreateElectionPermission",
      "type": "error"
    },
    {
      "inputs": [
        {
          "internalType": "address",
          "name": "owner",
          "type": "address"
        }
      ],
      "name": "OwnableInvalidOwner",
      "type": "error"
    },
    {
      "inputs": [
        {
          "internalType": "address",
          "name": "account",
          "type": "address"
        }
      ],
      "name": "OwnableUnauthorizedAccount",
      "type": "error"
    },
    {
      "inputs": [],
      "name": "ZeroAmount",
      "type": "error"
    },
    {
      "anonymous": false,
      "inputs": [
        {
          "indexed": false,
          "internalType": "uint256",
          "name": "communityId",
          "type": "uint256"
        }
      ],
      "name": "AdminCommunityManaged",
      "type": "event"
    },
    {
      "anonymous": false,
      "inputs": [
        {
          "indexed": false,
          "internalType": "uint256",
          "name": "communityId",
          "type": "uint256"
        },
        {
          "components": [
            {
              "internalType": "enum ICommunityHub.CensusType",
              "name": "censusType",
              "type": "uint8"
            },
            {
              "components": [
                {
                  "internalType": "string",
                  "name": "blockchain",
                  "type": "string"
                },
                {
                  "internalType": "address",
                  "name": "contractAddress",
                  "type": "address"
                }
              ],
              "internalType": "struct ICommunityHub.Token[]",
              "name": "tokens",
              "type": "tuple[]"
            },
            {
              "internalType": "string",
              "name": "channel",
              "type": "string"
            }
          ],
          "indexed": false,
          "internalType": "struct ICommunityHub.Census",
          "name": "census",
          "type": "tuple"
        }
      ],
      "name": "CensusSet",
      "type": "event"
    },
    {
      "anonymous": false,
      "inputs": [
        {
          "indexed": false,
          "internalType": "uint256",
          "name": "communityId",
          "type": "uint256"
        },
        {
          "indexed": false,
          "internalType": "address",
          "name": "creator",
          "type": "address"
        }
      ],
      "name": "CommunityCreated",
      "type": "event"
    },
    {
      "anonymous": false,
      "inputs": [
        {
          "indexed": false,
          "internalType": "address",
          "name": "sender",
          "type": "address"
        },
        {
          "indexed": false,
          "internalType": "uint256",
          "name": "amount",
          "type": "uint256"
        },
        {
          "indexed": false,
          "internalType": "uint256",
          "name": "communityId",
          "type": "uint256"
        }
      ],
      "name": "CommunityDeposit",
      "type": "event"
    },
    {
      "anonymous": false,
      "inputs": [
        {
          "indexed": false,
          "internalType": "uint256",
          "name": "communityId",
          "type": "uint256"
        }
      ],
      "name": "CommunityDisabled",
      "type": "event"
    },
    {
      "anonymous": false,
      "inputs": [
        {
          "indexed": false,
          "internalType": "uint256",
          "name": "communityId",
          "type": "uint256"
        }
      ],
      "name": "CommunityEnabled",
      "type": "event"
    },
    {
      "anonymous": false,
      "inputs": [
        {
          "indexed": false,
          "internalType": "uint256",
          "name": "price",
          "type": "uint256"
        }
      ],
      "name": "CreateCommunityPriceSet",
      "type": "event"
    },
    {
      "anonymous": false,
      "inputs": [
        {
          "indexed": false,
          "internalType": "uint256",
          "name": "communityId",
          "type": "uint256"
        },
        {
          "indexed": false,
          "internalType": "enum ICommunityHub.CreateElectionPermission",
          "name": "createElectionPermission",
          "type": "uint8"
        }
      ],
      "name": "CreateElectionPermissionSet",
      "type": "event"
    },
    {
      "anonymous": false,
      "inputs": [
        {
          "indexed": false,
          "internalType": "address",
          "name": "electionResultsContract",
          "type": "address"
        }
      ],
      "name": "DefaultElectionResultsContractSet",
      "type": "event"
    },
    {
      "anonymous": false,
      "inputs": [
        {
          "indexed": false,
          "internalType": "address",
          "name": "sender",
          "type": "address"
        },
        {
          "indexed": false,
          "internalType": "uint256",
          "name": "amount",
          "type": "uint256"
        }
      ],
      "name": "Deposit",
      "type": "event"
    },
    {
      "anonymous": false,
      "inputs": [
        {
          "indexed": false,
          "internalType": "uint256",
          "name": "communityId",
          "type": "uint256"
        },
        {
          "indexed": false,
          "internalType": "address",
          "name": "electionResultsContract",
          "type": "address"
        }
      ],
      "name": "ElectionResultsContractSet",
      "type": "event"
    },
    {
      "anonymous": false,
      "inputs": [
        {
          "indexed": false,
          "internalType": "uint256",
          "name": "communityId",
          "type": "uint256"
        },
        {
          "indexed": false,
          "internalType": "uint256",
          "name": "guardian",
          "type": "uint256"
        }
      ],
      "name": "GuardianAdded",
      "type": "event"
    },
    {
      "anonymous": false,
      "inputs": [
        {
          "indexed": false,
          "internalType": "uint256",
          "name": "communityId",
          "type": "uint256"
        },
        {
          "indexed": false,
          "internalType": "uint256",
          "name": "guardian",
          "type": "uint256"
        }
      ],
      "name": "GuardianRemoved",
      "type": "event"
    },
    {
      "anonymous": false,
      "inputs": [
        {
          "indexed": false,
          "internalType": "uint256",
          "name": "communityId",
          "type": "uint256"
        },
        {
          "components": [
            {
              "internalType": "string",
              "name": "name",
              "type": "string"
            },
            {
              "internalType": "string",
              "name": "imageURI",
              "type": "string"
            },
            {
              "internalType": "string",
              "name": "groupChatURL",
              "type": "string"
            },
            {
              "internalType": "string[]",
              "name": "channels",
              "type": "string[]"
            },
            {
              "internalType": "bool",
              "name": "notifications",
              "type": "bool"
            }
          ],
          "indexed": false,
          "internalType": "struct ICommunityHub.CommunityMetadata",
          "name": "metadata",
          "type": "tuple"
        }
      ],
      "name": "MetadataSet",
      "type": "event"
    },
    {
      "anonymous": false,
      "inputs": [
        {
          "indexed": false,
          "internalType": "uint256",
          "name": "communityId",
          "type": "uint256"
        },
        {
          "indexed": false,
          "internalType": "bool",
          "name": "notifiableElections",
          "type": "bool"
        }
      ],
      "name": "NotifiableElectionsSet",
      "type": "event"
    },
    {
      "anonymous": false,
      "inputs": [
        {
          "indexed": true,
          "internalType": "address",
          "name": "previousOwner",
          "type": "address"
        },
        {
          "indexed": true,
          "internalType": "address",
          "name": "newOwner",
          "type": "address"
        }
      ],
      "name": "OwnershipTransferred",
      "type": "event"
    },
    {
      "anonymous": false,
      "inputs": [
        {
          "indexed": false,
          "internalType": "uint256",
          "name": "price",
          "type": "uint256"
        }
      ],
      "name": "PricePerElectionSet",
      "type": "event"
    },
    {
      "anonymous": false,
      "inputs": [
        {
          "indexed": false,
          "internalType": "uint256",
          "name": "communityId",
          "type": "uint256"
        },
        {
          "indexed": false,
          "internalType": "bytes32",
          "name": "electionId",
          "type": "bytes32"
        }
      ],
      "name": "ResultsSet",
      "type": "event"
    },
    {
      "anonymous": false,
      "inputs": [
        {
          "indexed": false,
          "internalType": "uint256",
          "name": "amount",
          "type": "uint256"
        },
        {
          "indexed": false,
          "internalType": "address",
          "name": "to",
          "type": "address"
        }
      ],
      "name": "Withdrawal",
      "type": "event"
    },
    {
      "inputs": [
        {
          "internalType": "uint256",
          "name": "_communityId",
          "type": "uint256"
        },
        {
          "internalType": "uint256",
          "name": "_guardian",
          "type": "uint256"
        }
      ],
      "name": "addGuardian",
      "outputs": [],
      "stateMutability": "nonpayable",
      "type": "function"
    },
    {
      "inputs": [
        {
          "internalType": "uint256",
          "name": "_communityId",
          "type": "uint256"
        },
        {
          "components": [
            {
              "internalType": "string",
              "name": "name",
              "type": "string"
            },
            {
              "internalType": "string",
              "name": "imageURI",
              "type": "string"
            },
            {
              "internalType": "string",
              "name": "groupChatURL",
              "type": "string"
            },
            {
              "internalType": "string[]",
              "name": "channels",
              "type": "string[]"
            },
            {
              "internalType": "bool",
              "name": "notifications",
              "type": "bool"
            }
          ],
          "internalType": "struct ICommunityHub.CommunityMetadata",
          "name": "_metadata",
          "type": "tuple"
        },
        {
          "components": [
            {
              "internalType": "enum ICommunityHub.CensusType",
              "name": "censusType",
              "type": "uint8"
            },
            {
              "components": [
                {
                  "internalType": "string",
                  "name": "blockchain",
                  "type": "string"
                },
                {
                  "internalType": "address",
                  "name": "contractAddress",
                  "type": "address"
                }
              ],
              "internalType": "struct ICommunityHub.Token[]",
              "name": "tokens",
              "type": "tuple[]"
            },
            {
              "internalType": "string",
              "name": "channel",
              "type": "string"
            }
          ],
          "internalType": "struct ICommunityHub.Census",
          "name": "_census",
          "type": "tuple"
        },
        {
          "internalType": "uint256[]",
          "name": "_guardians",
          "type": "uint256[]"
        },
        {
          "internalType": "address",
          "name": "_electionResultsContract",
          "type": "address"
        },
        {
          "internalType": "enum ICommunityHub.CreateElectionPermission",
          "name": "_createElectionPermission",
          "type": "uint8"
        },
        {
          "internalType": "bool",
          "name": "_disabled",
          "type": "bool"
        }
      ],
      "name": "adminManageCommunity",
      "outputs": [],
      "stateMutability": "nonpayable",
      "type": "function"
    },
    {
      "inputs": [
        {
          "internalType": "uint256",
          "name": "_price",
          "type": "uint256"
        }
      ],
      "name": "adminSetCommunityPrice",
      "outputs": [],
      "stateMutability": "nonpayable",
      "type": "function"
    },
    {
      "inputs": [
        {
          "internalType": "address",
          "name": "_electionResultsContract",
          "type": "address"
        }
      ],
      "name": "adminSetDefaultElectionResultsContract",
      "outputs": [],
      "stateMutability": "nonpayable",
      "type": "function"
    },
    {
      "inputs": [
        {
          "internalType": "uint256",
          "name": "_price",
          "type": "uint256"
        }
      ],
      "name": "adminSetPricePerElection",
      "outputs": [],
      "stateMutability": "nonpayable",
      "type": "function"
    },
    {
      "inputs": [
        {
          "components": [
            {
              "internalType": "string",
              "name": "name",
              "type": "string"
            },
            {
              "internalType": "string",
              "name": "imageURI",
              "type": "string"
            },
            {
              "internalType": "string",
              "name": "groupChatURL",
              "type": "string"
            },
            {
              "internalType": "string[]",
              "name": "channels",
              "type": "string[]"
            },
            {
              "internalType": "bool",
              "name": "notifications",
              "type": "bool"
            }
          ],
          "internalType": "struct ICommunityHub.CommunityMetadata",
          "name": "_metadata",
          "type": "tuple"
        },
        {
          "components": [
            {
              "internalType": "enum ICommunityHub.CensusType",
              "name": "censusType",
              "type": "uint8"
            },
            {
              "components": [
                {
                  "internalType": "string",
                  "name": "blockchain",
                  "type": "string"
                },
                {
                  "internalType": "address",
                  "name": "contractAddress",
                  "type": "address"
                }
              ],
              "internalType": "struct ICommunityHub.Token[]",
              "name": "tokens",
              "type": "tuple[]"
            },
            {
              "internalType": "string",
              "name": "channel",
              "type": "string"
            }
          ],
          "internalType": "struct ICommunityHub.Census",
          "name": "_census",
          "type": "tuple"
        },
        {
          "internalType": "uint256[]",
          "name": "_guardians",
          "type": "uint256[]"
        },
        {
          "internalType": "address",
          "name": "_electionResultsContract",
          "type": "address"
        },
        {
          "internalType": "enum ICommunityHub.CreateElectionPermission",
          "name": "_createElectionPermission",
          "type": "uint8"
        }
      ],
      "name": "createCommunity",
      "outputs": [
        {
          "internalType": "uint256",
          "name": "",
          "type": "uint256"
        }
      ],
      "stateMutability": "payable",
      "type": "function"
    },
    {
      "inputs": [
        {
          "internalType": "uint256",
          "name": "_communityId",
          "type": "uint256"
        }
      ],
      "name": "deposit",
      "outputs": [],
      "stateMutability": "payable",
      "type": "function"
    },
    {
      "inputs": [
        {
          "internalType": "uint256",
          "name": "_communityId",
          "type": "uint256"
        }
      ],
      "name": "getCommunity",
      "outputs": [
        {
          "components": [
            {
              "components": [
                {
                  "internalType": "string",
                  "name": "name",
                  "type": "string"
                },
                {
                  "internalType": "string",
                  "name": "imageURI",
                  "type": "string"
                },
                {
                  "internalType": "string",
                  "name": "groupChatURL",
                  "type": "string"
                },
                {
                  "internalType": "string[]",
                  "name": "channels",
                  "type": "string[]"
                },
                {
                  "internalType": "bool",
                  "name": "notifications",
                  "type": "bool"
                }
              ],
              "internalType": "struct ICommunityHub.CommunityMetadata",
              "name": "metadata",
              "type": "tuple"
            },
            {
              "components": [
                {
                  "internalType": "enum ICommunityHub.CensusType",
                  "name": "censusType",
                  "type": "uint8"
                },
                {
                  "components": [
                    {
                      "internalType": "string",
                      "name": "blockchain",
                      "type": "string"
                    },
                    {
                      "internalType": "address",
                      "name": "contractAddress",
                      "type": "address"
                    }
                  ],
                  "internalType": "struct ICommunityHub.Token[]",
                  "name": "tokens",
                  "type": "tuple[]"
                },
                {
                  "internalType": "string",
                  "name": "channel",
                  "type": "string"
                }
              ],
              "internalType": "struct ICommunityHub.Census",
              "name": "census",
              "type": "tuple"
            },
            {
              "internalType": "uint256[]",
              "name": "guardians",
              "type": "uint256[]"
            },
            {
              "internalType": "address",
              "name": "electionResultsContract",
              "type": "address"
            },
            {
              "internalType": "enum ICommunityHub.CreateElectionPermission",
              "name": "createElectionPermission",
              "type": "uint8"
            },
            {
              "internalType": "bool",
              "name": "disabled",
              "type": "bool"
            },
            {
              "internalType": "uint256",
              "name": "funds",
              "type": "uint256"
            }
          ],
          "internalType": "struct ICommunityHub.Community",
          "name": "",
          "type": "tuple"
        }
      ],
      "stateMutability": "view",
      "type": "function"
    },
    {
      "inputs": [],
      "name": "getCreateCommunityPrice",
      "outputs": [
        {
          "internalType": "uint256",
          "name": "",
          "type": "uint256"
        }
      ],
      "stateMutability": "view",
      "type": "function"
    },
    {
      "inputs": [],
      "name": "getDefaultElectionResultsContract",
      "outputs": [
        {
          "internalType": "address",
          "name": "",
          "type": "address"
        }
      ],
      "stateMutability": "view",
      "type": "function"
    },
    {
      "inputs": [],
      "name": "getNextCommunityId",
      "outputs": [
        {
          "internalType": "uint256",
          "name": "",
          "type": "uint256"
        }
      ],
      "stateMutability": "view",
      "type": "function"
    },
    {
      "inputs": [],
      "name": "getPricePerElection",
      "outputs": [
        {
          "internalType": "uint256",
          "name": "",
          "type": "uint256"
        }
      ],
      "stateMutability": "view",
      "type": "function"
    },
    {
      "inputs": [
        {
          "internalType": "uint256",
          "name": "_communityId",
          "type": "uint256"
        },
        {
          "internalType": "bytes32",
          "name": "_electionId",
          "type": "bytes32"
        }
      ],
      "name": "getResult",
      "outputs": [
        {
          "components": [
            {
              "internalType": "string",
              "name": "question",
              "type": "string"
            },
            {
              "internalType": "string[]",
              "name": "options",
              "type": "string[]"
            },
            {
              "internalType": "string",
              "name": "date",
              "type": "string"
            },
            {
              "internalType": "uint256[][]",
              "name": "tally",
              "type": "uint256[][]"
            },
            {
              "internalType": "uint256",
              "name": "turnout",
              "type": "uint256"
            },
            {
              "internalType": "uint256",
              "name": "totalVotingPower",
              "type": "uint256"
            },
            {
              "internalType": "uint256[]",
              "name": "participants",
              "type": "uint256[]"
            },
            {
              "internalType": "bytes32",
              "name": "censusRoot",
              "type": "bytes32"
            },
            {
              "internalType": "string",
              "name": "censusURI",
              "type": "string"
            }
          ],
          "internalType": "struct IElectionResults.Result",
          "name": "",
          "type": "tuple"
        }
      ],
      "stateMutability": "view",
      "type": "function"
    },
    {
      "inputs": [],
      "name": "owner",
      "outputs": [
        {
          "internalType": "address",
          "name": "",
          "type": "address"
        }
      ],
      "stateMutability": "view",
      "type": "function"
    },
    {
      "inputs": [
        {
          "internalType": "uint256",
          "name": "_communityId",
          "type": "uint256"
        },
        {
          "internalType": "uint256",
          "name": "_guardian",
          "type": "uint256"
        }
      ],
      "name": "removeGuardian",
      "outputs": [],
      "stateMutability": "nonpayable",
      "type": "function"
    },
    {
      "inputs": [],
      "name": "renounceOwnership",
      "outputs": [],
      "stateMutability": "nonpayable",
      "type": "function"
    },
    {
      "inputs": [
        {
          "internalType": "uint256",
          "name": "_communityId",
          "type": "uint256"
        },
        {
          "components": [
            {
              "internalType": "enum ICommunityHub.CensusType",
              "name": "censusType",
              "type": "uint8"
            },
            {
              "components": [
                {
                  "internalType": "string",
                  "name": "blockchain",
                  "type": "string"
                },
                {
                  "internalType": "address",
                  "name": "contractAddress",
                  "type": "address"
                }
              ],
              "internalType": "struct ICommunityHub.Token[]",
              "name": "tokens",
              "type": "tuple[]"
            },
            {
              "internalType": "string",
              "name": "channel",
              "type": "string"
            }
          ],
          "internalType": "struct ICommunityHub.Census",
          "name": "_census",
          "type": "tuple"
        }
      ],
      "name": "setCensus",
      "outputs": [],
      "stateMutability": "nonpayable",
      "type": "function"
    },
    {
      "inputs": [
        {
          "internalType": "uint256",
          "name": "_communityId",
          "type": "uint256"
        },
        {
          "internalType": "enum ICommunityHub.CreateElectionPermission",
          "name": "_createElectionPermission",
          "type": "uint8"
        }
      ],
      "name": "setCreateElectionPermission",
      "outputs": [],
      "stateMutability": "nonpayable",
      "type": "function"
    },
    {
      "inputs": [
        {
          "internalType": "uint256",
          "name": "_communityId",
          "type": "uint256"
        },
        {
          "internalType": "address",
          "name": "_electionResultsContract",
          "type": "address"
        }
      ],
      "name": "setElectionResultsContract",
      "outputs": [],
      "stateMutability": "nonpayable",
      "type": "function"
    },
    {
      "inputs": [
        {
          "internalType": "uint256",
          "name": "_communityId",
          "type": "uint256"
        },
        {
          "components": [
            {
              "internalType": "string",
              "name": "name",
              "type": "string"
            },
            {
              "internalType": "string",
              "name": "imageURI",
              "type": "string"
            },
            {
              "internalType": "string",
              "name": "groupChatURL",
              "type": "string"
            },
            {
              "internalType": "string[]",
              "name": "channels",
              "type": "string[]"
            },
            {
              "internalType": "bool",
              "name": "notifications",
              "type": "bool"
            }
          ],
          "internalType": "struct ICommunityHub.CommunityMetadata",
          "name": "_metadata",
          "type": "tuple"
        }
      ],
      "name": "setMetadata",
      "outputs": [],
      "stateMutability": "nonpayable",
      "type": "function"
    },
    {
      "inputs": [
        {
          "internalType": "uint256",
          "name": "_communityId",
          "type": "uint256"
        },
        {
          "internalType": "bool",
          "name": "_notifiableElections",
          "type": "bool"
        }
      ],
      "name": "setNotifiableElections",
      "outputs": [],
      "stateMutability": "nonpayable",
      "type": "function"
    },
    {
      "inputs": [
        {
          "internalType": "uint256",
          "name": "_communityId",
          "type": "uint256"
        },
        {
          "internalType": "bytes32",
          "name": "_electionId",
          "type": "bytes32"
        },
        {
          "components": [
            {
              "internalType": "string",
              "name": "question",
              "type": "string"
            },
            {
              "internalType": "string[]",
              "name": "options",
              "type": "string[]"
            },
            {
              "internalType": "string",
              "name": "date",
              "type": "string"
            },
            {
              "internalType": "uint256[][]",
              "name": "tally",
              "type": "uint256[][]"
            },
            {
              "internalType": "uint256",
              "name": "turnout",
              "type": "uint256"
            },
            {
              "internalType": "uint256",
              "name": "totalVotingPower",
              "type": "uint256"
            },
            {
              "internalType": "uint256[]",
              "name": "participants",
              "type": "uint256[]"
            },
            {
              "internalType": "bytes32",
              "name": "censusRoot",
              "type": "bytes32"
            },
            {
              "internalType": "string",
              "name": "censusURI",
              "type": "string"
            }
          ],
          "internalType": "struct IElectionResults.Result",
          "name": "_result",
          "type": "tuple"
        }
      ],
      "name": "setResult",
      "outputs": [],
      "stateMutability": "nonpayable",
      "type": "function"
    },
    {
      "inputs": [
        {
          "internalType": "address",
          "name": "newOwner",
          "type": "address"
        }
      ],
      "name": "transferOwnership",
      "outputs": [],
      "stateMutability": "nonpayable",
      "type": "function"
    },
    {
      "inputs": [],
      "name": "withdraw",
      "outputs": [],
      "stateMutability": "nonpayable",
      "type": "function"
    },
    {
      "stateMutability": "payable",
      "type": "receive"
    }
  ],
  "bytecode": "0x60806040523480156200001157600080fd5b5033600073ffffffffffffffffffffffffffffffffffffffff168173ffffffffffffffffffffffffffffffffffffffff1603620000885760006040517f1e4fbdf70000000000000000000000000000000000000000000000000000000081526004016200007f9190620001a9565b60405180910390fd5b6200009981620000a060201b60201c565b50620001c6565b60008060009054906101000a900473ffffffffffffffffffffffffffffffffffffffff169050816000806101000a81548173ffffffffffffffffffffffffffffffffffffffff021916908373ffffffffffffffffffffffffffffffffffffffff1602179055508173ffffffffffffffffffffffffffffffffffffffff168173ffffffffffffffffffffffffffffffffffffffff167f8be0079c531659141344cd1fd0a4f28419497f9722a3daafe3b4186f6b6457e060405160405180910390a35050565b600073ffffffffffffffffffffffffffffffffffffffff82169050919050565b6000620001918262000164565b9050919050565b620001a38162000184565b82525050565b6000602082019050620001c0600083018462000198565b92915050565b614ee780620001d66000396000f3fe60806040526004361061014f5760003560e01c8063873ceb2e116100b6578063c5bf44ab1161006f578063c5bf44ab14610473578063c8b785f31461049e578063d62b5c59146104c7578063e6160fa3146104f2578063f2fde38b1461051b578063f8867041146105445761018f565b8063873ceb2e146103845780638da5cb5b146103ad5780639532c8c3146103d8578063988a314c14610403578063aba675b01461042e578063b6b55f25146104575761018f565b806356c4e4ba1161010857806356c4e4ba146102a05780635a6cad96146102c9578063654f6a75146102f2578063715018a61461031b5780637824c05c1461033257806382e6d6381461035b5761018f565b806313e862651461019457806325fe08c9146101d1578063370603f8146101fa5780633c973f75146102375780633ccfd60b146102605780633e512ebc146102775761018f565b3661018f577fe1fffcc4923d04b559f4d29a8bfc6cda04eb5b0d3c460751c2402c5c5cc9109c3334604051610185929190611fff565b60405180910390a1005b600080fd5b3480156101a057600080fd5b506101bb60048036038101906101b6919061209e565b610574565b6040516101c891906124a7565b60405180910390f35b3480156101dd57600080fd5b506101f860048036038101906101f391906124f5565b610641565b005b34801561020657600080fd5b50610221600480360381019061021c9190612522565b6106c4565b60405161022e91906128c3565b60405180910390f35b34801561024357600080fd5b5061025e60048036038101906102599190612e36565b610ce5565b005b34801561026c57600080fd5b50610275610f11565b005b34801561028357600080fd5b5061029e60048036038101906102999190612522565b611057565b005b3480156102ac57600080fd5b506102c760048036038101906102c29190612ec9565b6110a0565b005b3480156102d557600080fd5b506102f060048036038101906102eb9190612f25565b61110b565b005b3480156102fe57600080fd5b5061031960048036038101906103149190613030565b6111a5565b005b34801561032757600080fd5b506103306113fc565b005b34801561033e57600080fd5b506103596004803603810190610354919061312a565b611410565b005b34801561036757600080fd5b50610382600480360381019061037d919061316a565b611493565b005b34801561039057600080fd5b506103ab60048036038101906103a69190612522565b6114fe565b005b3480156103b957600080fd5b506103c2611547565b6040516103cf91906131c6565b60405180910390f35b3480156103e457600080fd5b506103ed611570565b6040516103fa91906131e1565b60405180910390f35b34801561040f57600080fd5b5061041861157a565b60405161042591906131c6565b60405180910390f35b34801561043a57600080fd5b50610455600480360381019061045091906131fc565b6115a4565b005b610471600480360381019061046c9190612522565b6116fe565b005b34801561047f57600080fd5b50610488611853565b60405161049591906131e1565b60405180910390f35b3480156104aa57600080fd5b506104c560048036038101906104c091906131fc565b61185d565b005b3480156104d357600080fd5b506104dc6118df565b6040516104e991906131e1565b60405180910390f35b3480156104fe57600080fd5b506105196004803603810190610514919061323c565b6118e9565b005b34801561052757600080fd5b50610542600480360381019061053d91906124f5565b61195f565b005b61055e6004803603810190610559919061327c565b6119e5565b60405161056b91906131e1565b60405180910390f35b61057c611e41565b60006001600085815260200190815260200160002060090160009054906101000a900473ffffffffffffffffffffffffffffffffffffffff1690508073ffffffffffffffffffffffffffffffffffffffff166313e8626585856040518363ffffffff1660e01b81526004016105f292919061335d565b600060405180830381865afa15801561060f573d6000803e3d6000fd5b505050506040513d6000823e3d601f19601f8201168201806040525081019061063891906137a9565b91505092915050565b610649611cee565b80600560006101000a81548173ffffffffffffffffffffffffffffffffffffffff021916908373ffffffffffffffffffffffffffffffffffffffff1602179055507f2f165c01002d221752e275a87b6ed91df7c1b198b0bbe0e93dd28c7c834a08cc816040516106b991906131c6565b60405180910390a150565b6106cc611e90565b600160008381526020019081526020016000206040518060e0016040529081600082016040518060a001604052908160008201805461070a90613821565b80601f016020809104026020016040519081016040528092919081815260200182805461073690613821565b80156107835780601f1061075857610100808354040283529160200191610783565b820191906000526020600020905b81548152906001019060200180831161076657829003601f168201915b5050505050815260200160018201805461079c90613821565b80601f01602080910402602001604051908101604052809291908181526020018280546107c890613821565b80156108155780601f106107ea57610100808354040283529160200191610815565b820191906000526020600020905b8154815290600101906020018083116107f857829003601f168201915b5050505050815260200160028201805461082e90613821565b80601f016020809104026020016040519081016040528092919081815260200182805461085a90613821565b80156108a75780601f1061087c576101008083540402835291602001916108a7565b820191906000526020600020905b81548152906001019060200180831161088a57829003601f168201915b5050505050815260200160038201805480602002602001604051908101604052809291908181526020016000905b828210156109815783829060005260206000200180546108f490613821565b80601f016020809104026020016040519081016040528092919081815260200182805461092090613821565b801561096d5780601f106109425761010080835404028352916020019161096d565b820191906000526020600020905b81548152906001019060200180831161095057829003601f168201915b5050505050815260200190600101906108d5565b5050505081526020016004820160009054906101000a900460ff1615151515815250508152602001600582016040518060600160405290816000820160009054906101000a900460ff1660058111156109dd576109dc6125f5565b5b60058111156109ef576109ee6125f5565b5b815260200160018201805480602002602001604051908101604052809291908181526020016000905b82821015610b325783829060005260206000209060020201604051806040016040529081600082018054610a4b90613821565b80601f0160208091040260200160405190810160405280929190818152602001828054610a7790613821565b8015610ac45780601f10610a9957610100808354040283529160200191610ac4565b820191906000526020600020905b815481529060010190602001808311610aa757829003601f168201915b505050505081526020016001820160009054906101000a900473ffffffffffffffffffffffffffffffffffffffff1673ffffffffffffffffffffffffffffffffffffffff1673ffffffffffffffffffffffffffffffffffffffff168152505081526020019060010190610a18565b505050508152602001600282018054610b4a90613821565b80601f0160208091040260200160405190810160405280929190818152602001828054610b7690613821565b8015610bc35780601f10610b9857610100808354040283529160200191610bc3565b820191906000526020600020905b815481529060010190602001808311610ba657829003601f168201915b505050505081525050815260200160088201805480602002602001604051908101604052809291908181526020018280548015610c1f57602002820191906000526020600020905b815481526020019060010190808311610c0b575b505050505081526020016009820160009054906101000a900473ffffffffffffffffffffffffffffffffffffffff1673ffffffffffffffffffffffffffffffffffffffff1673ffffffffffffffffffffffffffffffffffffffff1681526020016009820160149054906101000a900460ff166001811115610ca357610ca26125f5565b5b6001811115610cb557610cb46125f5565b5b81526020016009820160159054906101000a900460ff16151515158152602001600a820154815250509050919050565b610ced611cee565b6001600084815260200190815260200160002060090160159054906101000a900460ff1615610d51576040517f08c379a0000000000000000000000000000000000000000000000000000000008152600401610d48906138af565b60405180910390fd5b60035460016000858152602001908152602001600020600a01541015610dac576040517f08c379a0000000000000000000000000000000000000000000000000000000008152600401610da390613941565b60405180910390fd5b60035460016000858152602001908152602001600020600a016000828254610dd49190613990565b9250508190555060035460016000858152602001908152602001600020600a01541015610e6157600180600085815260200190815260200160002060090160156101000a81548160ff0219169083151502179055507fd5d88098de5ba30573f08926c4e6445cab93ce09d98c1147a64045608a50797f83604051610e5891906131e1565b60405180910390a15b60006001600085815260200190815260200160002060090160009054906101000a900473ffffffffffffffffffffffffffffffffffffffff1690508073ffffffffffffffffffffffffffffffffffffffff16633c973f758585856040518463ffffffff1660e01b8152600401610ed9939291906139c4565b600060405180830381600087803b158015610ef357600080fd5b505af1158015610f07573d6000803e3d6000fd5b5050505050505050565b610f19611cee565b600047905060008111610f61576040517f08c379a0000000000000000000000000000000000000000000000000000000008152600401610f5890613a4e565b60405180910390fd5b6000610f6b611547565b905060008173ffffffffffffffffffffffffffffffffffffffff1683604051610f9390613a9f565b60006040518083038185875af1925050503d8060008114610fd0576040519150601f19603f3d011682016040523d82523d6000602084013e610fd5565b606091505b5050905080611019576040517f08c379a000000000000000000000000000000000000000000000000000000000815260040161101090613b00565b60405180910390fd5b7fd964a27d45f595739c13d8b1160b57491050cacf3a2e5602207277d6228f64ee838360405161104a929190613b7f565b60405180910390a1505050565b61105f611cee565b806003819055507f0840c2296c4c97ecdc9b8dc544cd67f45a8d629b9d6109410530bb58b7f17b928160405161109591906131e1565b60405180910390a150565b6110a8611cee565b806001600084815260200190815260200160002060050181816110cb9190614516565b9050507ff768bb0dd5bd987cdbc2706c837263b29e7326b0651e4fe20c16372d24cc02ac82826040516110ff9291906147e8565b60405180910390a15050565b611113611cee565b806001600084815260200190815260200160002060090160006101000a81548173ffffffffffffffffffffffffffffffffffffffff021916908373ffffffffffffffffffffffffffffffffffffffff1602179055507facd3bfb47d15f9f1d5db04bf52aece3b8c4fd63e70c97b91293415d2f2341f388282604051611199929190614818565b60405180910390a15050565b6111ad611cee565b6000600160008a81526020019081526020016000209050878160000181816111d59190614afb565b905050868160050181816111e99190614516565b905050838160090160006101000a81548173ffffffffffffffffffffffffffffffffffffffff021916908373ffffffffffffffffffffffffffffffffffffffff160217905550828160090160146101000a81548160ff02191690836001811115611256576112556125f5565b5b02179055508060090160159054906101000a900460ff161580156112775750815b156112d55760018160090160156101000a81548160ff0219169083151502179055507fd5d88098de5ba30573f08926c4e6445cab93ce09d98c1147a64045608a50797f896040516112c891906131e1565b60405180910390a161134c565b8060090160159054906101000a900460ff1680156112f1575081155b1561134b5760008160090160156101000a81548160ff0219169083151502179055507f8da007fc61f3601008aa139c728ea9bf16672668b03c07f6c402ab74c034fc818960405161134291906131e1565b60405180910390a15b5b80600801600061135c9190611f03565b60005b868690508110156113b9578160080187878381811061138157611380614b09565b5b90506020020135908060018154018082558091505060019003906000526020600020016000909190919091505580600101905061135f565b507f887cc86755221db77fb9a404d4834a6ca76a28df7c71c7650318819ad0f46a3c896040516113e991906131e1565b60405180910390a1505050505050505050565b611404611cee565b61140e6000611d75565b565b611418611cee565b806001600084815260200190815260200160002060090160146101000a81548160ff02191690836001811115611451576114506125f5565b5b02179055507feaeee81ca4b132c1f2699cf2e7f71c26adb6ffe780097ac7d6e9ddf978398b628282604051611487929190614b47565b60405180910390a15050565b61149b611cee565b806001600084815260200190815260200160002060000181816114be9190614afb565b9050507f440c55e385a61cd472c0cd76ee015cab9bd0760aef9634633e6597fdea583fd582826040516114f2929190614d3e565b60405180910390a15050565b611506611cee565b806002819055507fac9c054628ba106d4664c2c08386354e161eab546a0a47faf040bfc1062845e78160405161153c91906131e1565b60405180910390a150565b60008060009054906101000a900473ffffffffffffffffffffffffffffffffffffffff16905090565b6000600454905090565b6000600560009054906101000a900473ffffffffffffffffffffffffffffffffffffffff16905090565b6115ac611cee565b600060016000848152602001908152602001600020600801905060005b81805490508110156116bc57828282815481106115e9576115e8614b09565b5b9060005260206000200154036116af57816001838054905061160b9190613990565b8154811061161c5761161b614b09565b5b906000526020600020015482828154811061163a57611639614b09565b5b90600052602060002001819055508180548061165957611658614d6e565b5b600190038181906000526020600020016000905590557f2264fa092e5819982f4edca5b7e9c6318a16dc3e03673510429c078656dea45c84846040516116a0929190614d9d565b60405180910390a150506116fa565b80806001019150506115c9565b50816040517f84ce930a0000000000000000000000000000000000000000000000000000000081526004016116f191906131e1565b60405180910390fd5b5050565b60003403611738576040517f1f2a200500000000000000000000000000000000000000000000000000000000815260040160405180910390fd5b3460016000838152602001908152602001600020600a01600082825461175e9190614dc6565b925050819055506001600082815260200190815260200160002060090160159054906101000a900460ff16156118155760035460016000838152602001908152602001600020600a0154106118145760006001600083815260200190815260200160002060090160156101000a81548160ff0219169083151502179055507f8da007fc61f3601008aa139c728ea9bf16672668b03c07f6c402ab74c034fc818160405161180b91906131e1565b60405180910390a15b5b7fd6e9bd49f32ce5202a849c6ab581631b3e952257363b06975f32872e9e1656c933348360405161184893929190614dfa565b60405180910390a150565b6000600254905090565b611865611cee565b600160008381526020019081526020016000206008018190806001815401808255809150506001900390600052602060002001600090919091909150557ffcdfd5aeb97f499ca134ed43f010f2a4f5b0ab73d317ac27246a066a050a73af82826040516118d3929190614d9d565b60405180910390a15050565b6000600354905090565b6118f1611cee565b806001600084815260200190815260200160002060000160040160006101000a81548160ff0219169083151502179055507fed2f2c7a2316ddc2f46a4581250611f807810052bb38bef2fbd1a81d087e064b8282604051611953929190614e40565b60405180910390a15050565b611967611cee565b600073ffffffffffffffffffffffffffffffffffffffff168173ffffffffffffffffffffffffffffffffffffffff16036119d95760006040517f1e4fbdf70000000000000000000000000000000000000000000000000000000081526004016119d091906131c6565b60405180910390fd5b6119e281611d75565b50565b60008073ffffffffffffffffffffffffffffffffffffffff168373ffffffffffffffffffffffffffffffffffffffff1603611a4057600560009054906101000a900473ffffffffffffffffffffffffffffffffffffffff1692505b600180811115611a5357611a526125f5565b5b826001811115611a6657611a656125f5565b5b14158015611a99575060006001811115611a8357611a826125f5565b5b826001811115611a9657611a956125f5565b5b14155b15611ad0576040517fec4d40f400000000000000000000000000000000000000000000000000000000815260040160405180910390fd5b600060045490506002543414611b2157600254346040517fce6b173b000000000000000000000000000000000000000000000000000000008152600401611b18929190614d9d565b60405180910390fd5b7fd6e9bd49f32ce5202a849c6ab581631b3e952257363b06975f32872e9e1656c9333483604051611b5493929190614dfa565b60405180910390a1600060016000838152602001908152602001600020905088816000018181611b849190614afb565b90505087816005018181611b989190614516565b905050848160090160006101000a81548173ffffffffffffffffffffffffffffffffffffffff021916908373ffffffffffffffffffffffffffffffffffffffff160217905550838160090160146101000a81548160ff02191690836001811115611c0557611c046125f5565b5b021790555060008160090160156101000a81548160ff0219169083151502179055503481600a018190555060005b87879050811015611c8d5781600801888883818110611c5557611c54614b09565b5b905060200201359080600181540180825580915050600190039060005260206000200160009091909190915055806001019050611c33565b5060046000815480929190611ca190614e69565b91905055507f42c24a3323433819443a75d0e2651a9c84f696fba638d730042960045ef272418233604051611cd7929190614818565b60405180910390a181925050509695505050505050565b611cf6611e39565b73ffffffffffffffffffffffffffffffffffffffff16611d14611547565b73ffffffffffffffffffffffffffffffffffffffff1614611d7357611d37611e39565b6040517f118cdaa7000000000000000000000000000000000000000000000000000000008152600401611d6a91906131c6565b60405180910390fd5b565b60008060009054906101000a900473ffffffffffffffffffffffffffffffffffffffff169050816000806101000a81548173ffffffffffffffffffffffffffffffffffffffff021916908373ffffffffffffffffffffffffffffffffffffffff1602179055508173ffffffffffffffffffffffffffffffffffffffff168173ffffffffffffffffffffffffffffffffffffffff167f8be0079c531659141344cd1fd0a4f28419497f9722a3daafe3b4186f6b6457e060405160405180910390a35050565b600033905090565b6040518061012001604052806060815260200160608152602001606081526020016060815260200160008152602001600081526020016060815260200160008019168152602001606081525090565b6040518060e00160405280611ea3611f24565b8152602001611eb0611f55565b815260200160608152602001600073ffffffffffffffffffffffffffffffffffffffff16815260200160006001811115611eed57611eec6125f5565b5b8152602001600015158152602001600081525090565b5080546000825590600052602060002090810190611f219190611f88565b50565b6040518060a00160405280606081526020016060815260200160608152602001606081526020016000151581525090565b604051806060016040528060006005811115611f7457611f736125f5565b5b815260200160608152602001606081525090565b5b80821115611fa1576000816000905550600101611f89565b5090565b600073ffffffffffffffffffffffffffffffffffffffff82169050919050565b6000611fd082611fa5565b9050919050565b611fe081611fc5565b82525050565b6000819050919050565b611ff981611fe6565b82525050565b60006040820190506120146000830185611fd7565b6120216020830184611ff0565b9392505050565b6000604051905090565b600080fd5b600080fd5b61204581611fe6565b811461205057600080fd5b50565b6000813590506120628161203c565b92915050565b6000819050919050565b61207b81612068565b811461208657600080fd5b50565b60008135905061209881612072565b92915050565b600080604083850312156120b5576120b4612032565b5b60006120c385828601612053565b92505060206120d485828601612089565b9150509250929050565b600081519050919050565b600082825260208201905092915050565b60005b838110156121185780820151818401526020810190506120fd565b60008484015250505050565b6000601f19601f8301169050919050565b6000612140826120de565b61214a81856120e9565b935061215a8185602086016120fa565b61216381612124565b840191505092915050565b600081519050919050565b600082825260208201905092915050565b6000819050602082019050919050565b60006121a68383612135565b905092915050565b6000602082019050919050565b60006121c68261216e565b6121d08185612179565b9350836020820285016121e28561218a565b8060005b8581101561221e57848403895281516121ff858261219a565b945061220a836121ae565b925060208a019950506001810190506121e6565b50829750879550505050505092915050565b600081519050919050565b600082825260208201905092915050565b6000819050602082019050919050565b600081519050919050565b600082825260208201905092915050565b6000819050602082019050919050565b61229181611fe6565b82525050565b60006122a38383612288565b60208301905092915050565b6000602082019050919050565b60006122c78261225c565b6122d18185612267565b93506122dc83612278565b8060005b8381101561230d5781516122f48882612297565b97506122ff836122af565b9250506001810190506122e0565b5085935050505092915050565b600061232683836122bc565b905092915050565b6000602082019050919050565b600061234682612230565b612350818561223b565b9350836020820285016123628561224c565b8060005b8581101561239e578484038952815161237f858261231a565b945061238a8361232e565b925060208a01995050600181019050612366565b50829750879550505050505092915050565b6123b981612068565b82525050565b60006101208301600083015184820360008601526123dd8282612135565b915050602083015184820360208601526123f782826121bb565b915050604083015184820360408601526124118282612135565b9150506060830151848203606086015261242b828261233b565b91505060808301516124406080860182612288565b5060a083015161245360a0860182612288565b5060c083015184820360c086015261246b82826122bc565b91505060e083015161248060e08601826123b0565b5061010083015184820361010086015261249a8282612135565b9150508091505092915050565b600060208201905081810360008301526124c181846123bf565b905092915050565b6124d281611fc5565b81146124dd57600080fd5b50565b6000813590506124ef816124c9565b92915050565b60006020828403121561250b5761250a612032565b5b6000612519848285016124e0565b91505092915050565b60006020828403121561253857612537612032565b5b600061254684828501612053565b91505092915050565b60008115159050919050565b6125648161254f565b82525050565b600060a08301600083015184820360008601526125878282612135565b915050602083015184820360208601526125a18282612135565b915050604083015184820360408601526125bb8282612135565b915050606083015184820360608601526125d582826121bb565b91505060808301516125ea608086018261255b565b508091505092915050565b7f4e487b7100000000000000000000000000000000000000000000000000000000600052602160045260246000fd5b60068110612635576126346125f5565b5b50565b600081905061264682612624565b919050565b600061265682612638565b9050919050565b6126668161264b565b82525050565b600081519050919050565b600082825260208201905092915050565b6000819050602082019050919050565b6126a181611fc5565b82525050565b600060408301600083015184820360008601526126c48282612135565b91505060208301516126d96020860182612698565b508091505092915050565b60006126f083836126a7565b905092915050565b6000602082019050919050565b60006127108261266c565b61271a8185612677565b93508360208202850161272c85612688565b8060005b85811015612768578484038952815161274985826126e4565b9450612754836126f8565b925060208a01995050600181019050612730565b50829750879550505050505092915050565b6000606083016000830151612792600086018261265d565b50602083015184820360208601526127aa8282612705565b915050604083015184820360408601526127c48282612135565b9150508091505092915050565b600281106127e2576127e16125f5565b5b50565b60008190506127f3826127d1565b919050565b6000612803826127e5565b9050919050565b612813816127f8565b82525050565b600060e0830160008301518482036000860152612836828261256a565b91505060208301518482036020860152612850828261277a565b9150506040830151848203604086015261286a82826122bc565b915050606083015161287f6060860182612698565b506080830151612892608086018261280a565b5060a08301516128a560a086018261255b565b5060c08301516128b860c0860182612288565b508091505092915050565b600060208201905081810360008301526128dd8184612819565b905092915050565b600080fd5b7f4e487b7100000000000000000000000000000000000000000000000000000000600052604160045260246000fd5b61292282612124565b810181811067ffffffffffffffff82111715612941576129406128ea565b5b80604052505050565b6000612954612028565b90506129608282612919565b919050565b600080fd5b600080fd5b600080fd5b600067ffffffffffffffff82111561298f5761298e6128ea565b5b61299882612124565b9050602081019050919050565b82818337600083830152505050565b60006129c76129c284612974565b61294a565b9050828152602081018484840111156129e3576129e261296f565b5b6129ee8482856129a5565b509392505050565b600082601f830112612a0b57612a0a61296a565b5b8135612a1b8482602086016129b4565b91505092915050565b600067ffffffffffffffff821115612a3f57612a3e6128ea565b5b602082029050602081019050919050565b600080fd5b6000612a68612a6384612a24565b61294a565b90508083825260208201905060208402830185811115612a8b57612a8a612a50565b5b835b81811015612ad257803567ffffffffffffffff811115612ab057612aaf61296a565b5b808601612abd89826129f6565b85526020850194505050602081019050612a8d565b5050509392505050565b600082601f830112612af157612af061296a565b5b8135612b01848260208601612a55565b91505092915050565b600067ffffffffffffffff821115612b2557612b246128ea565b5b602082029050602081019050919050565b600067ffffffffffffffff821115612b5157612b506128ea565b5b602082029050602081019050919050565b6000612b75612b7084612b36565b61294a565b90508083825260208201905060208402830185811115612b9857612b97612a50565b5b835b81811015612bc15780612bad8882612053565b845260208401935050602081019050612b9a565b5050509392505050565b600082601f830112612be057612bdf61296a565b5b8135612bf0848260208601612b62565b91505092915050565b6000612c0c612c0784612b0a565b61294a565b90508083825260208201905060208402830185811115612c2f57612c2e612a50565b5b835b81811015612c7657803567ffffffffffffffff811115612c5457612c5361296a565b5b808601612c618982612bcb565b85526020850194505050602081019050612c31565b5050509392505050565b600082601f830112612c9557612c9461296a565b5b8135612ca5848260208601612bf9565b91505092915050565b60006101208284031215612cc557612cc46128e5565b5b612cd061012061294a565b9050600082013567ffffffffffffffff811115612cf057612cef612965565b5b612cfc848285016129f6565b600083015250602082013567ffffffffffffffff811115612d2057612d1f612965565b5b612d2c84828501612adc565b602083015250604082013567ffffffffffffffff811115612d5057612d4f612965565b5b612d5c848285016129f6565b604083015250606082013567ffffffffffffffff811115612d8057612d7f612965565b5b612d8c84828501612c80565b6060830152506080612da084828501612053565b60808301525060a0612db484828501612053565b60a08301525060c082013567ffffffffffffffff811115612dd857612dd7612965565b5b612de484828501612bcb565b60c08301525060e0612df884828501612089565b60e08301525061010082013567ffffffffffffffff811115612e1d57612e1c612965565b5b612e29848285016129f6565b6101008301525092915050565b600080600060608486031215612e4f57612e4e612032565b5b6000612e5d86828701612053565b9350506020612e6e86828701612089565b925050604084013567ffffffffffffffff811115612e8f57612e8e612037565b5b612e9b86828701612cae565b9150509250925092565b600080fd5b600060608284031215612ec057612ebf612ea5565b5b81905092915050565b60008060408385031215612ee057612edf612032565b5b6000612eee85828601612053565b925050602083013567ffffffffffffffff811115612f0f57612f0e612037565b5b612f1b85828601612eaa565b9150509250929050565b60008060408385031215612f3c57612f3b612032565b5b6000612f4a85828601612053565b9250506020612f5b858286016124e0565b9150509250929050565b600060a08284031215612f7b57612f7a612ea5565b5b81905092915050565b600080fd5b60008083601f840112612f9f57612f9e61296a565b5b8235905067ffffffffffffffff811115612fbc57612fbb612f84565b5b602083019150836020820283011115612fd857612fd7612a50565b5b9250929050565b60028110612fec57600080fd5b50565b600081359050612ffe81612fdf565b92915050565b61300d8161254f565b811461301857600080fd5b50565b60008135905061302a81613004565b92915050565b60008060008060008060008060e0898b0312156130505761304f612032565b5b600061305e8b828c01612053565b985050602089013567ffffffffffffffff81111561307f5761307e612037565b5b61308b8b828c01612f65565b975050604089013567ffffffffffffffff8111156130ac576130ab612037565b5b6130b88b828c01612eaa565b965050606089013567ffffffffffffffff8111156130d9576130d8612037565b5b6130e58b828c01612f89565b955095505060806130f88b828c016124e0565b93505060a06131098b828c01612fef565b92505060c061311a8b828c0161301b565b9150509295985092959890939650565b6000806040838503121561314157613140612032565b5b600061314f85828601612053565b925050602061316085828601612fef565b9150509250929050565b6000806040838503121561318157613180612032565b5b600061318f85828601612053565b925050602083013567ffffffffffffffff8111156131b0576131af612037565b5b6131bc85828601612f65565b9150509250929050565b60006020820190506131db6000830184611fd7565b92915050565b60006020820190506131f66000830184611ff0565b92915050565b6000806040838503121561321357613212612032565b5b600061322185828601612053565b925050602061323285828601612053565b9150509250929050565b6000806040838503121561325357613252612032565b5b600061326185828601612053565b92505060206132728582860161301b565b9150509250929050565b60008060008060008060a0878903121561329957613298612032565b5b600087013567ffffffffffffffff8111156132b7576132b6612037565b5b6132c389828a01612f65565b965050602087013567ffffffffffffffff8111156132e4576132e3612037565b5b6132f089828a01612eaa565b955050604087013567ffffffffffffffff81111561331157613310612037565b5b61331d89828a01612f89565b9450945050606061333089828a016124e0565b925050608061334189828a01612fef565b9150509295509295509295565b61335781612068565b82525050565b60006040820190506133726000830185611ff0565b61337f602083018461334e565b9392505050565b600061339961339484612974565b61294a565b9050828152602081018484840111156133b5576133b461296f565b5b6133c08482856120fa565b509392505050565b600082601f8301126133dd576133dc61296a565b5b81516133ed848260208601613386565b91505092915050565b600061340961340484612a24565b61294a565b9050808382526020820190506020840283018581111561342c5761342b612a50565b5b835b8181101561347357805167ffffffffffffffff8111156134515761345061296a565b5b80860161345e89826133c8565b8552602085019450505060208101905061342e565b5050509392505050565b600082601f8301126134925761349161296a565b5b81516134a28482602086016133f6565b91505092915050565b6000815190506134ba8161203c565b92915050565b60006134d36134ce84612b36565b61294a565b905080838252602082019050602084028301858111156134f6576134f5612a50565b5b835b8181101561351f578061350b88826134ab565b8452602084019350506020810190506134f8565b5050509392505050565b600082601f83011261353e5761353d61296a565b5b815161354e8482602086016134c0565b91505092915050565b600061356a61356584612b0a565b61294a565b9050808382526020820190506020840283018581111561358d5761358c612a50565b5b835b818110156135d457805167ffffffffffffffff8111156135b2576135b161296a565b5b8086016135bf8982613529565b8552602085019450505060208101905061358f565b5050509392505050565b600082601f8301126135f3576135f261296a565b5b8151613603848260208601613557565b91505092915050565b60008151905061361b81612072565b92915050565b60006101208284031215613638576136376128e5565b5b61364361012061294a565b9050600082015167ffffffffffffffff81111561366357613662612965565b5b61366f848285016133c8565b600083015250602082015167ffffffffffffffff81111561369357613692612965565b5b61369f8482850161347d565b602083015250604082015167ffffffffffffffff8111156136c3576136c2612965565b5b6136cf848285016133c8565b604083015250606082015167ffffffffffffffff8111156136f3576136f2612965565b5b6136ff848285016135de565b6060830152506080613713848285016134ab565b60808301525060a0613727848285016134ab565b60a08301525060c082015167ffffffffffffffff81111561374b5761374a612965565b5b61375784828501613529565b60c08301525060e061376b8482850161360c565b60e08301525061010082015167ffffffffffffffff8111156137905761378f612965565b5b61379c848285016133c8565b6101008301525092915050565b6000602082840312156137bf576137be612032565b5b600082015167ffffffffffffffff8111156137dd576137dc612037565b5b6137e984828501613621565b91505092915050565b7f4e487b7100000000000000000000000000000000000000000000000000000000600052602260045260246000fd5b6000600282049050600182168061383957607f821691505b60208210810361384c5761384b6137f2565b5b50919050565b600082825260208201905092915050565b7f436f6d6d756e6974792069732064697361626c65640000000000000000000000600082015250565b6000613899601583613852565b91506138a482613863565b602082019050919050565b600060208201905081810360008301526138c88161388c565b9050919050565b7f496e73756666696369656e742066756e647320666f722074686973206f70657260008201527f6174696f6e000000000000000000000000000000000000000000000000000000602082015250565b600061392b602583613852565b9150613936826138cf565b604082019050919050565b6000602082019050818103600083015261395a8161391e565b9050919050565b7f4e487b7100000000000000000000000000000000000000000000000000000000600052601160045260246000fd5b600061399b82611fe6565b91506139a683611fe6565b92508282039050818111156139be576139bd613961565b5b92915050565b60006060820190506139d96000830186611ff0565b6139e6602083018561334e565b81810360408301526139f881846123bf565b9050949350505050565b7f4e6f2066756e647320617661696c61626c650000000000000000000000000000600082015250565b6000613a38601283613852565b9150613a4382613a02565b602082019050919050565b60006020820190508181036000830152613a6781613a2b565b9050919050565b600081905092915050565b50565b6000613a89600083613a6e565b9150613a9482613a79565b600082019050919050565b6000613aaa82613a7c565b9150819050919050565b7f4661696c656420746f2073656e64204574686572000000000000000000000000600082015250565b6000613aea601483613852565b9150613af582613ab4565b602082019050919050565b60006020820190508181036000830152613b1981613add565b9050919050565b6000819050919050565b6000613b45613b40613b3b84611fa5565b613b20565b611fa5565b9050919050565b6000613b5782613b2a565b9050919050565b6000613b6982613b4c565b9050919050565b613b7981613b5e565b82525050565b6000604082019050613b946000830185611ff0565b613ba16020830184613b70565b9392505050565b7f4e487b7100000000000000000000000000000000000000000000000000000000600052600060045260246000fd5b60068110613be457600080fd5b50565b60008135613bf481613bd7565b80915050919050565b60008160001b9050919050565b600060ff613c1784613bfd565b9350801983169250808416831791505092915050565b6000613c3882612638565b9050919050565b6000819050919050565b613c5282613c2d565b613c65613c5e82613c3f565b8354613c0a565b8255505050565b600080fd5b600080fd5b600080fd5b60008083356001602003843603038112613c9857613c97613c6c565b5b80840192508235915067ffffffffffffffff821115613cba57613cb9613c71565b5b602083019250602082023603831315613cd657613cd5613c76565b5b509250929050565b6000819050919050565b600082356001604003833603038112613d0457613d03613c6c565b5b80830191505092915050565b600081549050919050565b6000613d2682611fe6565b9150613d3183611fe6565b9250828202613d3f81611fe6565b91508282048414831517613d5657613d55613961565b5b5092915050565b6000819050613d6d826002613d1b565b9050919050565b60008190508160005260206000209050919050565b60008190508160005260206000209050919050565b600082821c905092915050565b613ddb7fffffffffffffffffffffffffffffffffffffffffffffffffffffffffffffffff83602003600802613d9e565b815481168255505050565b600082821b905092915050565b600060088302613e237fffffffffffffffffffffffffffffffffffffffffffffffffffffffffffffffff82613de6565b613e2d8683613de6565b95508019841693508086168417925050509392505050565b6000613e60613e5b613e5684611fe6565b613b20565b611fe6565b9050919050565b6000819050919050565b613e7a83613e45565b613e8e613e8682613e67565b848454613df3565b825550505050565b600090565b613ea3613e96565b613eae818484613e71565b505050565b5b81811015613ed257613ec7600082613e9b565b600181019050613eb4565b5050565b6000613ee760001984600802613d9e565b1980831691505092915050565b6000613f008383613ed6565b9150826002028217905092915050565b613f1981613d89565b613f24838254613ef4565b8083556000825550505050565b60006020601f8301049050919050565b6020841060008114613f9c57601f841160018114613f6a57613f638685613ef4565b8355613f96565b613f7383613d89565b613f8a613f7f87613f31565b820160018301613eb3565b613f948785613f10565b505b50613fe9565b613fa582613d89565b613fae86613f31565b8101601f87168015613fc857613fc78160018403613dab565b5b613fdc613fd488613f31565b840183613eb3565b6001886002021785555050505b5050505050565b6801000000000000000084111561400a576140096128ea565b5b60208310600081146140555760208510600081146140335761402c8685613ef4565b835561404f565b8360ff191693508361404484613d89565b556001866002020183555b5061405f565b6001856002020182555b5050505050565b805461407181613821565b808411156140865761408584828486613ff0565b5b8084101561409b5761409a84828486613f41565b5b50505050565b818110156140bf576140b4600082613e9b565b6001810190506140a1565b5050565b6140ce600082614066565b50565b600082146140e2576140e1613ba8565b5b6140eb816140c3565b5050565b6140fc60008083016140d1565b6000600182015550565b6000821461411757614116613ba8565b5b614120816140ef565b5050565b5b8181101561414357614138600082614106565b600281019050614125565b5050565b818310156141805761415882613d5d565b61416184613d5d565b61416a83613d74565b81810183820161417a8183614124565b50505050505b505050565b6801000000000000000082111561419f5761419e6128ea565b5b6141a881613d10565b8282556141b6838284614147565b505050565b600082905092915050565b600080833560016020038436030381126141e3576141e2613c6c565b5b80840192508235915067ffffffffffffffff82111561420557614204613c71565b5b60208301925060018202360383131561422157614220613c76565b5b509250929050565b600082905092915050565b601f8211156142755761424681613d89565b61424f84613f31565b8101602085101561425e578190505b61427261426a85613f31565b830182613eb3565b50505b505050565b6142848383614229565b67ffffffffffffffff81111561429d5761429c6128ea565b5b6142a78254613821565b6142b2828285614234565b6000601f8311600181146142e157600084156142cf578287013590505b6142d98582613ef4565b865550614341565b601f1984166142ef86613d89565b60005b82811015614317578489013582556001820191506020850194506020810190506142f2565b868310156143345784890135614330601f891682613ed6565b8355505b6001600288020188555050505b50505050505050565b61435583838361427a565b505050565b60008135614367816124c9565b80915050919050565b600073ffffffffffffffffffffffffffffffffffffffff61439084613bfd565b9350801983169250808416831791505092915050565b60006143b182613b4c565b9050919050565b6000819050919050565b6143cb826143a6565b6143de6143d7826143b8565b8354614370565b8255505050565b60008101600083016143f781856141c6565b61440281838661434a565b505050506001810160208301806144188161435a565b905061442481846143c2565b5050505050565b61443582826143e5565b5050565b61444383836141bb565b61444d8183614185565b61445683613cde565b61445f83613d74565b60005b83811015614496576144748387613ce8565b61447e818461442b565b60208401935060028301925050600181019050614462565b50505050505050565b6144aa838383614439565b505050565b6000810160008301806144c181613be7565b90506144cd8184613c49565b50505060018101602083016144e28185613c7b565b6144ed81838661449f565b50505050600281016040830161450381856141c6565b61450e81838661434a565b505050505050565b61452082826144af565b5050565b60008135905061453381613bd7565b92915050565b60006145486020840184614524565b905092915050565b600080fd5b600080fd5b600080fd5b6000808335600160200384360303811261457c5761457b61455a565b5b83810192508235915060208301925067ffffffffffffffff8211156145a4576145a3614550565b5b6020820236038313156145ba576145b9614555565b5b509250929050565b600080833560016020038436030381126145df576145de61455a565b5b83810192508235915060208301925067ffffffffffffffff82111561460757614606614550565b5b60018202360383131561461d5761461c614555565b5b509250929050565b600061463183856120e9565b935061463e8385846129a5565b61464783612124565b840190509392505050565b600061466160208401846124e0565b905092915050565b60006040830161467c60008401846145c2565b858303600087015261468f838284614625565b925050506146a06020840184614652565b6146ad6020860182612698565b508091505092915050565b60006146c48383614669565b905092915050565b6000823560016040038336030381126146e8576146e761455a565b5b82810191505092915050565b6000602082019050919050565b600061470d8385612677565b93508360208402850161471f84613cde565b8060005b8781101561476357848403895261473a82846146cc565b61474485826146b8565b945061474f836146f4565b925060208a01995050600181019050614723565b50829750879450505050509392505050565b6000606083016147886000840184614539565b614795600086018261265d565b506147a3602084018461455f565b85830360208701526147b6838284614701565b925050506147c760408401846145c2565b85830360408701526147da838284614625565b925050508091505092915050565b60006040820190506147fd6000830185611ff0565b818103602083015261480f8184614775565b90509392505050565b600060408201905061482d6000830185611ff0565b61483a6020830184611fd7565b9392505050565b6000808335600160200384360303811261485e5761485d613c6c565b5b80840192508235915067ffffffffffffffff8211156148805761487f613c71565b5b60208301925060208202360383131561489c5761489b613c76565b5b509250929050565b6000819050919050565b600081549050919050565b60008190506001806001038301049050919050565b60008190508160005260206000209050919050565b5b81811015614902576148f76000826140d1565b6001810190506148e4565b5050565b8183101561493f57614917826148b9565b614920846148b9565b614929836148ce565b81810183820161493981836148e3565b50505050505b505050565b6801000000000000000082111561495e5761495d6128ea565b5b614967816148ae565b828255614975838284614906565b505050565b600082905092915050565b61498f838361497a565b6149998183614944565b6149a2836148a4565b6149ab836148ce565b60005b838110156149e4576149c083876141c6565b6149cb81838661434a565b60208501945060018401935050506001810190506149ae565b50505050505050565b6149f8838383614985565b505050565b60008135614a0a81613004565b80915050919050565b6000614a1e8261254f565b9050919050565b6000819050919050565b614a3882614a13565b614a4b614a4482614a25565b8354613c0a565b8255505050565b6000810160008301614a6481856141c6565b614a6f81838661434a565b505050506001810160208301614a8581856141c6565b614a9081838661434a565b505050506002810160408301614aa681856141c6565b614ab181838661434a565b505050506003810160608301614ac78185614841565b614ad28183866149ed565b50505050600481016080830180614ae8816149fd565b9050614af48184614a2f565b5050505050565b614b058282614a52565b5050565b7f4e487b7100000000000000000000000000000000000000000000000000000000600052603260045260246000fd5b614b41816127f8565b82525050565b6000604082019050614b5c6000830185611ff0565b614b696020830184614b38565b9392505050565b60008083356001602003843603038112614b8d57614b8c61455a565b5b83810192508235915060208301925067ffffffffffffffff821115614bb557614bb4614550565b5b602082023603831315614bcb57614bca614555565b5b509250929050565b6000614be0848484614625565b90509392505050565b6000602082019050919050565b6000614c028385612179565b935083602084028501614c14846148a4565b8060005b87811015614c5a578484038952614c2f82846145c2565b614c3a868284614bd3565b9550614c4584614be9565b935060208b019a505050600181019050614c18565b50829750879450505050509392505050565b6000614c7b602084018461301b565b905092915050565b600060a08301614c9660008401846145c2565b8583036000870152614ca9838284614625565b92505050614cba60208401846145c2565b8583036020870152614ccd838284614625565b92505050614cde60408401846145c2565b8583036040870152614cf1838284614625565b92505050614d026060840184614b70565b8583036060870152614d15838284614bf6565b92505050614d266080840184614c6c565b614d33608086018261255b565b508091505092915050565b6000604082019050614d536000830185611ff0565b8181036020830152614d658184614c83565b90509392505050565b7f4e487b7100000000000000000000000000000000000000000000000000000000600052603160045260246000fd5b6000604082019050614db26000830185611ff0565b614dbf6020830184611ff0565b9392505050565b6000614dd182611fe6565b9150614ddc83611fe6565b9250828201905080821115614df457614df3613961565b5b92915050565b6000606082019050614e0f6000830186611fd7565b614e1c6020830185611ff0565b614e296040830184611ff0565b949350505050565b614e3a8161254f565b82525050565b6000604082019050614e556000830185611ff0565b614e626020830184614e31565b9392505050565b6000614e7482611fe6565b91507fffffffffffffffffffffffffffffffffffffffffffffffffffffffffffffffff8203614ea657614ea5613961565b5b60018201905091905056fea264697066735822122043a7f414717cb48f8d6a0a19d99bf4f2f4077fa4ff0e0b05a8e5f317eaf73a0f64736f6c63430008180033",
  "linkReferences": {},
  "deployedLinkReferences": {}
}