{
  "_format": "hh-sol-artifact-1",
  "contractName": "CommunityHub",
  "sourceName": "src/CommunityHub.sol",
  "abi": [
    {
      "inputs": [],
      "stateMutability": "nonpayable",
      "type": "constructor"
    },
    {
      "inputs": [
        {
          "internalType": "uint256",
          "name": "expected",
          "type": "uint256"
        },
        {
          "internalType": "uint256",
          "name": "actual",
          "type": "uint256"
        }
      ],
      "name": "AmountMismatch",
      "type": "error"
    },
    {
      "inputs": [
        {
          "internalType": "uint256",
          "name": "guardian",
          "type": "uint256"
        }
      ],
      "name": "GuardianNotFound",
      "type": "error"
    },
    {
      "inputs": [
        {
          "internalType": "address",
          "name": "owner",
          "type": "address"
        }
      ],
      "name": "OwnableInvalidOwner",
      "type": "error"
    },
    {
      "inputs": [
        {
          "internalType": "address",
          "name": "account",
          "type": "address"
        }
      ],
      "name": "OwnableUnauthorizedAccount",
      "type": "error"
    },
    {
      "inputs": [],
      "name": "ZeroAmount",
      "type": "error"
    },
    {
      "anonymous": false,
      "inputs": [
        {
          "indexed": false,
          "internalType": "uint256",
          "name": "communityId",
          "type": "uint256"
        }
      ],
      "name": "AdminCommunityManaged",
      "type": "event"
    },
    {
      "anonymous": false,
      "inputs": [
        {
          "indexed": false,
          "internalType": "uint256",
          "name": "communityId",
          "type": "uint256"
        },
        {
          "components": [
            {
              "internalType": "enum ICommunityHub.CensusType",
              "name": "censusType",
              "type": "uint8"
            },
            {
              "components": [
                {
                  "internalType": "string",
                  "name": "blockchain",
                  "type": "string"
                },
                {
                  "internalType": "address",
                  "name": "contractAddress",
                  "type": "address"
                }
              ],
              "internalType": "struct ICommunityHub.Token[]",
              "name": "tokens",
              "type": "tuple[]"
            }
          ],
          "indexed": false,
          "internalType": "struct ICommunityHub.Census",
          "name": "census",
          "type": "tuple"
        }
      ],
      "name": "CensusSet",
      "type": "event"
    },
    {
      "anonymous": false,
      "inputs": [
        {
          "indexed": false,
          "internalType": "uint256",
          "name": "communityId",
          "type": "uint256"
        },
        {
          "indexed": false,
          "internalType": "address",
          "name": "creator",
          "type": "address"
        }
      ],
      "name": "CommunityCreated",
      "type": "event"
    },
    {
      "anonymous": false,
      "inputs": [
        {
          "indexed": false,
          "internalType": "uint256",
          "name": "price",
          "type": "uint256"
        }
      ],
      "name": "CreateCommunityPriceSet",
      "type": "event"
    },
    {
      "anonymous": false,
      "inputs": [
        {
          "indexed": false,
          "internalType": "uint256",
          "name": "communityId",
          "type": "uint256"
        },
        {
          "indexed": false,
          "internalType": "enum ICommunityHub.CreateElectionPermission",
          "name": "createElectionPermission",
          "type": "uint8"
        }
      ],
      "name": "CreateElectionPermissionSet",
      "type": "event"
    },
    {
      "anonymous": false,
      "inputs": [
        {
          "indexed": false,
          "internalType": "address",
          "name": "electionResultsContract",
          "type": "address"
        }
      ],
      "name": "DefaultElectionResultsContractSet",
      "type": "event"
    },
    {
      "anonymous": false,
      "inputs": [
        {
          "indexed": false,
          "internalType": "address",
          "name": "sender",
          "type": "address"
        },
        {
          "indexed": false,
          "internalType": "uint256",
          "name": "amount",
          "type": "uint256"
        }
      ],
      "name": "Deposit",
      "type": "event"
    },
    {
      "anonymous": false,
      "inputs": [
        {
          "indexed": false,
          "internalType": "uint256",
          "name": "communityId",
          "type": "uint256"
        },
        {
          "indexed": false,
          "internalType": "address",
          "name": "electionResultsContract",
          "type": "address"
        }
      ],
      "name": "ElectionResultsContractSet",
      "type": "event"
    },
    {
      "anonymous": false,
      "inputs": [
        {
          "indexed": false,
          "internalType": "uint256",
          "name": "communityId",
          "type": "uint256"
        },
        {
          "indexed": false,
          "internalType": "uint256",
          "name": "guardian",
          "type": "uint256"
        }
      ],
      "name": "GuardianAdded",
      "type": "event"
    },
    {
      "anonymous": false,
      "inputs": [
        {
          "indexed": false,
          "internalType": "uint256",
          "name": "communityId",
          "type": "uint256"
        },
        {
          "indexed": false,
          "internalType": "uint256",
          "name": "guardian",
          "type": "uint256"
        }
      ],
      "name": "GuardianRemoved",
      "type": "event"
    },
    {
      "anonymous": false,
      "inputs": [
        {
          "indexed": false,
          "internalType": "uint256",
          "name": "communityId",
          "type": "uint256"
        },
        {
          "components": [
            {
              "internalType": "string",
              "name": "name",
              "type": "string"
            },
            {
              "internalType": "string",
              "name": "imageURI",
              "type": "string"
            },
            {
              "internalType": "string[]",
              "name": "channels",
              "type": "string[]"
            },
            {
              "internalType": "bool",
              "name": "notifications",
              "type": "bool"
            }
          ],
          "indexed": false,
          "internalType": "struct ICommunityHub.CommunityMetadata",
          "name": "metadata",
          "type": "tuple"
        }
      ],
      "name": "MetadataSet",
      "type": "event"
    },
    {
      "anonymous": false,
      "inputs": [
        {
          "indexed": false,
          "internalType": "uint256",
          "name": "communityId",
          "type": "uint256"
        },
        {
          "indexed": false,
          "internalType": "bool",
          "name": "notifiableElections",
          "type": "bool"
        }
      ],
      "name": "NotifiableElectionsSet",
      "type": "event"
    },
    {
      "anonymous": false,
      "inputs": [
        {
          "indexed": true,
          "internalType": "address",
          "name": "previousOwner",
          "type": "address"
        },
        {
          "indexed": true,
          "internalType": "address",
          "name": "newOwner",
          "type": "address"
        }
      ],
      "name": "OwnershipTransferred",
      "type": "event"
    },
    {
      "inputs": [
        {
          "internalType": "uint256",
          "name": "_communityId",
          "type": "uint256"
        },
        {
          "internalType": "uint256",
          "name": "_guardian",
          "type": "uint256"
        }
      ],
      "name": "AddGuardian",
      "outputs": [],
      "stateMutability": "nonpayable",
      "type": "function"
    },
    {
      "inputs": [
        {
          "internalType": "uint256",
          "name": "_communityId",
          "type": "uint256"
        },
        {
          "components": [
            {
              "internalType": "string",
              "name": "name",
              "type": "string"
            },
            {
              "internalType": "string",
              "name": "imageURI",
              "type": "string"
            },
            {
              "internalType": "string[]",
              "name": "channels",
              "type": "string[]"
            },
            {
              "internalType": "bool",
              "name": "notifications",
              "type": "bool"
            }
          ],
          "internalType": "struct ICommunityHub.CommunityMetadata",
          "name": "_metadata",
          "type": "tuple"
        },
        {
          "components": [
            {
              "internalType": "enum ICommunityHub.CensusType",
              "name": "censusType",
              "type": "uint8"
            },
            {
              "components": [
                {
                  "internalType": "string",
                  "name": "blockchain",
                  "type": "string"
                },
                {
                  "internalType": "address",
                  "name": "contractAddress",
                  "type": "address"
                }
              ],
              "internalType": "struct ICommunityHub.Token[]",
              "name": "tokens",
              "type": "tuple[]"
            }
          ],
          "internalType": "struct ICommunityHub.Census",
          "name": "_census",
          "type": "tuple"
        },
        {
          "internalType": "uint256[]",
          "name": "_guardians",
          "type": "uint256[]"
        },
        {
          "internalType": "address",
          "name": "_electionResultsContract",
          "type": "address"
        },
        {
          "internalType": "enum ICommunityHub.CreateElectionPermission",
          "name": "_createElectionPermission",
          "type": "uint8"
        },
        {
          "internalType": "bool",
          "name": "_disabled",
          "type": "bool"
        }
      ],
      "name": "AdminManageCommunity",
      "outputs": [],
      "stateMutability": "nonpayable",
      "type": "function"
    },
    {
      "inputs": [
        {
          "internalType": "uint256",
          "name": "_price",
          "type": "uint256"
        }
      ],
      "name": "AdminSetCommunityPrice",
      "outputs": [],
      "stateMutability": "nonpayable",
      "type": "function"
    },
    {
      "inputs": [
        {
          "internalType": "address",
          "name": "_electionResultsContract",
          "type": "address"
        }
      ],
      "name": "AdminSetDefaultElectionResultsContract",
      "outputs": [],
      "stateMutability": "nonpayable",
      "type": "function"
    },
    {
      "inputs": [
        {
          "components": [
            {
              "internalType": "string",
              "name": "name",
              "type": "string"
            },
            {
              "internalType": "string",
              "name": "imageURI",
              "type": "string"
            },
            {
              "internalType": "string[]",
              "name": "channels",
              "type": "string[]"
            },
            {
              "internalType": "bool",
              "name": "notifications",
              "type": "bool"
            }
          ],
          "internalType": "struct ICommunityHub.CommunityMetadata",
          "name": "_metadata",
          "type": "tuple"
        },
        {
          "components": [
            {
              "internalType": "enum ICommunityHub.CensusType",
              "name": "censusType",
              "type": "uint8"
            },
            {
              "components": [
                {
                  "internalType": "string",
                  "name": "blockchain",
                  "type": "string"
                },
                {
                  "internalType": "address",
                  "name": "contractAddress",
                  "type": "address"
                }
              ],
              "internalType": "struct ICommunityHub.Token[]",
              "name": "tokens",
              "type": "tuple[]"
            }
          ],
          "internalType": "struct ICommunityHub.Census",
          "name": "_census",
          "type": "tuple"
        },
        {
          "internalType": "uint256[]",
          "name": "_guardians",
          "type": "uint256[]"
        },
        {
          "internalType": "address",
          "name": "_electionResultsContract",
          "type": "address"
        },
        {
          "internalType": "enum ICommunityHub.CreateElectionPermission",
          "name": "_createElectionPermission",
          "type": "uint8"
        }
      ],
      "name": "CreateCommunity",
      "outputs": [
        {
          "internalType": "uint256",
          "name": "",
          "type": "uint256"
        }
      ],
      "stateMutability": "payable",
      "type": "function"
    },
    {
      "inputs": [
        {
          "internalType": "uint256",
          "name": "_communityId",
          "type": "uint256"
        },
        {
          "internalType": "uint256",
          "name": "_guardian",
          "type": "uint256"
        }
      ],
      "name": "RemoveGuardian",
      "outputs": [],
      "stateMutability": "nonpayable",
      "type": "function"
    },
    {
      "inputs": [
        {
          "internalType": "uint256",
          "name": "_communityId",
          "type": "uint256"
        },
        {
          "components": [
            {
              "internalType": "enum ICommunityHub.CensusType",
              "name": "censusType",
              "type": "uint8"
            },
            {
              "components": [
                {
                  "internalType": "string",
                  "name": "blockchain",
                  "type": "string"
                },
                {
                  "internalType": "address",
                  "name": "contractAddress",
                  "type": "address"
                }
              ],
              "internalType": "struct ICommunityHub.Token[]",
              "name": "tokens",
              "type": "tuple[]"
            }
          ],
          "internalType": "struct ICommunityHub.Census",
          "name": "_census",
          "type": "tuple"
        }
      ],
      "name": "SetCensus",
      "outputs": [],
      "stateMutability": "nonpayable",
      "type": "function"
    },
    {
      "inputs": [
        {
          "internalType": "uint256",
          "name": "_communityId",
          "type": "uint256"
        },
        {
          "internalType": "enum ICommunityHub.CreateElectionPermission",
          "name": "_createElectionPermission",
          "type": "uint8"
        }
      ],
      "name": "SetCreateElectionPermission",
      "outputs": [],
      "stateMutability": "nonpayable",
      "type": "function"
    },
    {
      "inputs": [
        {
          "internalType": "uint256",
          "name": "_communityId",
          "type": "uint256"
        },
        {
          "internalType": "address",
          "name": "_electionResultsContract",
          "type": "address"
        }
      ],
      "name": "SetElectionResultsContract",
      "outputs": [],
      "stateMutability": "nonpayable",
      "type": "function"
    },
    {
      "inputs": [
        {
          "internalType": "uint256",
          "name": "_communityId",
          "type": "uint256"
        },
        {
          "components": [
            {
              "internalType": "string",
              "name": "name",
              "type": "string"
            },
            {
              "internalType": "string",
              "name": "imageURI",
              "type": "string"
            },
            {
              "internalType": "string[]",
              "name": "channels",
              "type": "string[]"
            },
            {
              "internalType": "bool",
              "name": "notifications",
              "type": "bool"
            }
          ],
          "internalType": "struct ICommunityHub.CommunityMetadata",
          "name": "_metadata",
          "type": "tuple"
        }
      ],
      "name": "SetMetadata",
      "outputs": [],
      "stateMutability": "nonpayable",
      "type": "function"
    },
    {
      "inputs": [
        {
          "internalType": "uint256",
          "name": "_communityId",
          "type": "uint256"
        },
        {
          "internalType": "bool",
          "name": "_notifiableElections",
          "type": "bool"
        }
      ],
      "name": "SetNotifiableElections",
      "outputs": [],
      "stateMutability": "nonpayable",
      "type": "function"
    },
    {
      "inputs": [],
      "name": "owner",
      "outputs": [
        {
          "internalType": "address",
          "name": "",
          "type": "address"
        }
      ],
      "stateMutability": "view",
      "type": "function"
    },
    {
      "inputs": [],
      "name": "renounceOwnership",
      "outputs": [],
      "stateMutability": "nonpayable",
      "type": "function"
    },
    {
      "inputs": [
        {
          "internalType": "address",
          "name": "newOwner",
          "type": "address"
        }
      ],
      "name": "transferOwnership",
      "outputs": [],
      "stateMutability": "nonpayable",
      "type": "function"
    },
    {
      "stateMutability": "payable",
      "type": "receive"
    }
  ],
  "bytecode": "0x60806040523480156200001157600080fd5b5033600073ffffffffffffffffffffffffffffffffffffffff168173ffffffffffffffffffffffffffffffffffffffff1603620000885760006040517f1e4fbdf70000000000000000000000000000000000000000000000000000000081526004016200007f9190620001a9565b60405180910390fd5b6200009981620000a060201b60201c565b50620001c6565b60008060009054906101000a900473ffffffffffffffffffffffffffffffffffffffff169050816000806101000a81548173ffffffffffffffffffffffffffffffffffffffff021916908373ffffffffffffffffffffffffffffffffffffffff1602179055508173ffffffffffffffffffffffffffffffffffffffff168173ffffffffffffffffffffffffffffffffffffffff167f8be0079c531659141344cd1fd0a4f28419497f9722a3daafe3b4186f6b6457e060405160405180910390a35050565b600073ffffffffffffffffffffffffffffffffffffffff82169050919050565b6000620001918262000164565b9050919050565b620001a38162000184565b82525050565b6000602082019050620001c0600083018462000198565b92915050565b6128b880620001d66000396000f3fe6080604052600436106100e15760003560e01c80638da5cb5b1161007f578063cd22ba8411610059578063cd22ba84146102b0578063d66917d9146102e0578063e1e009ba14610309578063f2fde38b1461033257610121565b80638da5cb5b14610233578063c06fa4e91461025e578063cb5eefd81461028757610121565b8063428d87c5116100bb578063428d87c5146101a157806367272a52146101ca5780636ebf3c4c146101f3578063715018a61461021c57610121565b8063264c408e146101265780632893c86f1461014f5780632ebf88f81461017857610121565b36610121577fe1fffcc4923d04b559f4d29a8bfc6cda04eb5b0d3c460751c2402c5c5cc9109c3334604051610117929190610e79565b60405180910390a1005b600080fd5b34801561013257600080fd5b5061014d60048036038101906101489190610ed8565b61035b565b005b34801561015b57600080fd5b5061017660048036038101906101719190610f44565b6104ad565b005b34801561018457600080fd5b5061019f600480360381019061019a9190610f95565b610530565b005b3480156101ad57600080fd5b506101c860048036038101906101c39190610ff1565b610593565b005b3480156101d657600080fd5b506101f160048036038101906101ec9190611043565b6105dc565b005b3480156101ff57600080fd5b5061021a600480360381019061021591906110bb565b610657565b005b34801561022857600080fd5b506102316106c5565b005b34801561023f57600080fd5b506102486106d9565b60405161025591906110fb565b60405180910390f35b34801561026a57600080fd5b506102856004803603810190610280919061119a565b610702565b005b34801561029357600080fd5b506102ae60048036038101906102a99190611294565b610884565b005b6102ca60048036038101906102c591906112f0565b6108e7565b6040516102d791906113c2565b60405180910390f35b3480156102ec57600080fd5b50610307600480360381019061030291906113dd565b610afc565b005b34801561031557600080fd5b50610330600480360381019061032b9190610ed8565b610b8e565b005b34801561033e57600080fd5b5061035960048036038101906103549190610f44565b610c08565b005b600060016000848152602001908152602001600020600601905060005b818054905081101561046b57828282815481106103985761039761141d565b5b90600052602060002001540361045e5781600183805490506103ba919061147b565b815481106103cb576103ca61141d565b5b90600052602060002001548282815481106103e9576103e861141d565b5b906000526020600020018190555081805480610408576104076114af565b5b600190038181906000526020600020016000905590557f2264fa092e5819982f4edca5b7e9c6318a16dc3e03673510429c078656dea45c848460405161044f9291906114de565b60405180910390a150506104a9565b8080600101915050610378565b50816040517f84ce930a0000000000000000000000000000000000000000000000000000000081526004016104a091906113c2565b60405180910390fd5b5050565b6104b5610c8e565b80600460006101000a81548173ffffffffffffffffffffffffffffffffffffffff021916908373ffffffffffffffffffffffffffffffffffffffff1602179055507f2f165c01002d221752e275a87b6ed91df7c1b198b0bbe0e93dd28c7c834a08cc8160405161052591906110fb565b60405180910390a150565b806001600084815260200190815260200160002060000181816105539190611de3565b9050507f94aac65d269f9059e59ac9aff9cffe22dc1907d1f2ac8f6a9dde667d8a0eb044828260405161058792919061208b565b60405180910390a15050565b61059b610c8e565b806002819055507fac9c054628ba106d4664c2c08386354e161eab546a0a47faf040bfc1062845e7816040516105d191906113c2565b60405180910390a150565b806001600084815260200190815260200160002060070160146101000a81548160ff02191690836001811115610615576106146120bb565b5b02179055507feaeee81ca4b132c1f2699cf2e7f71c26adb6ffe780097ac7d6e9ddf978398b62828260405161064b929190612132565b60405180910390a15050565b806001600084815260200190815260200160002060000160030160006101000a81548160ff0219169083151502179055507fed2f2c7a2316ddc2f46a4581250611f807810052bb38bef2fbd1a81d087e064b82826040516106b992919061216a565b60405180910390a15050565b6106cd610c8e565b6106d76000610d15565b565b60008060009054906101000a900473ffffffffffffffffffffffffffffffffffffffff16905090565b61070a610c8e565b6000600160008a81526020019081526020016000209050878160000181816107329190611de3565b905050868160040181816107469190612591565b905050838160070160006101000a81548173ffffffffffffffffffffffffffffffffffffffff021916908373ffffffffffffffffffffffffffffffffffffffff160217905550828160070160146101000a81548160ff021916908360018111156107b3576107b26120bb565b5b0217905550818160070160156101000a81548160ff0219169083151502179055508060060160006107e49190610de1565b60005b8686905081101561084157816006018787838181106108095761080861141d565b5b9050602002013590806001815401808255809150506001900390600052602060002001600090919091909150558060010190506107e7565b507f887cc86755221db77fb9a404d4834a6ca76a28df7c71c7650318819ad0f46a3c8960405161087191906113c2565b60405180910390a1505050505050505050565b806001600084815260200190815260200160002060040181816108a79190612591565b9050507fe9792eee54764d34581473a0e844e57f5e07fa14e6d375c1f542b383ce48f0b782826040516108db9291906127e1565b60405180910390a15050565b6000600254341461093357600254346040517fce6b173b00000000000000000000000000000000000000000000000000000000815260040161092a9291906114de565b60405180910390fd5b7fe1fffcc4923d04b559f4d29a8bfc6cda04eb5b0d3c460751c2402c5c5cc9109c3334604051610964929190610e79565b60405180910390a16000600354905060006001600083815260200190815260200160002090508881600001818161099b9190611de3565b905050878160040181816109af9190612591565b905050848160070160006101000a81548173ffffffffffffffffffffffffffffffffffffffff021916908373ffffffffffffffffffffffffffffffffffffffff160217905550838160070160146101000a81548160ff02191690836001811115610a1c57610a1b6120bb565b5b021790555060008160070160156101000a81548160ff02191690831515021790555060005b87879050811015610a9b5781600601888883818110610a6357610a6261141d565b5b905060200201359080600181540180825580915050600190039060005260206000200160009091909190915055806001019050610a41565b5060036000815480929190610aaf90612811565b91905055507f42c24a3323433819443a75d0e2651a9c84f696fba638d730042960045ef272418233604051610ae5929190612859565b60405180910390a181925050509695505050505050565b806001600084815260200190815260200160002060070160006101000a81548173ffffffffffffffffffffffffffffffffffffffff021916908373ffffffffffffffffffffffffffffffffffffffff1602179055507facd3bfb47d15f9f1d5db04bf52aece3b8c4fd63e70c97b91293415d2f2341f388282604051610b82929190612859565b60405180910390a15050565b600160008381526020019081526020016000206006018190806001815401808255809150506001900390600052602060002001600090919091909150557ffcdfd5aeb97f499ca134ed43f010f2a4f5b0ab73d317ac27246a066a050a73af8282604051610bfc9291906114de565b60405180910390a15050565b610c10610c8e565b600073ffffffffffffffffffffffffffffffffffffffff168173ffffffffffffffffffffffffffffffffffffffff1603610c825760006040517f1e4fbdf7000000000000000000000000000000000000000000000000000000008152600401610c7991906110fb565b60405180910390fd5b610c8b81610d15565b50565b610c96610dd9565b73ffffffffffffffffffffffffffffffffffffffff16610cb46106d9565b73ffffffffffffffffffffffffffffffffffffffff1614610d1357610cd7610dd9565b6040517f118cdaa7000000000000000000000000000000000000000000000000000000008152600401610d0a91906110fb565b60405180910390fd5b565b60008060009054906101000a900473ffffffffffffffffffffffffffffffffffffffff169050816000806101000a81548173ffffffffffffffffffffffffffffffffffffffff021916908373ffffffffffffffffffffffffffffffffffffffff1602179055508173ffffffffffffffffffffffffffffffffffffffff168173ffffffffffffffffffffffffffffffffffffffff167f8be0079c531659141344cd1fd0a4f28419497f9722a3daafe3b4186f6b6457e060405160405180910390a35050565b600033905090565b5080546000825590600052602060002090810190610dff9190610e02565b50565b5b80821115610e1b576000816000905550600101610e03565b5090565b600073ffffffffffffffffffffffffffffffffffffffff82169050919050565b6000610e4a82610e1f565b9050919050565b610e5a81610e3f565b82525050565b6000819050919050565b610e7381610e60565b82525050565b6000604082019050610e8e6000830185610e51565b610e9b6020830184610e6a565b9392505050565b600080fd5b600080fd5b610eb581610e60565b8114610ec057600080fd5b50565b600081359050610ed281610eac565b92915050565b60008060408385031215610eef57610eee610ea2565b5b6000610efd85828601610ec3565b9250506020610f0e85828601610ec3565b9150509250929050565b610f2181610e3f565b8114610f2c57600080fd5b50565b600081359050610f3e81610f18565b92915050565b600060208284031215610f5a57610f59610ea2565b5b6000610f6884828501610f2f565b91505092915050565b600080fd5b600060808284031215610f8c57610f8b610f71565b5b81905092915050565b60008060408385031215610fac57610fab610ea2565b5b6000610fba85828601610ec3565b925050602083013567ffffffffffffffff811115610fdb57610fda610ea7565b5b610fe785828601610f76565b9150509250929050565b60006020828403121561100757611006610ea2565b5b600061101584828501610ec3565b91505092915050565b6002811061102b57600080fd5b50565b60008135905061103d8161101e565b92915050565b6000806040838503121561105a57611059610ea2565b5b600061106885828601610ec3565b92505060206110798582860161102e565b9150509250929050565b60008115159050919050565b61109881611083565b81146110a357600080fd5b50565b6000813590506110b58161108f565b92915050565b600080604083850312156110d2576110d1610ea2565b5b60006110e085828601610ec3565b92505060206110f1858286016110a6565b9150509250929050565b60006020820190506111106000830184610e51565b92915050565b60006040828403121561112c5761112b610f71565b5b81905092915050565b600080fd5b600080fd5b600080fd5b60008083601f84011261115a57611159611135565b5b8235905067ffffffffffffffff8111156111775761117661113a565b5b6020830191508360208202830111156111935761119261113f565b5b9250929050565b60008060008060008060008060e0898b0312156111ba576111b9610ea2565b5b60006111c88b828c01610ec3565b985050602089013567ffffffffffffffff8111156111e9576111e8610ea7565b5b6111f58b828c01610f76565b975050604089013567ffffffffffffffff81111561121657611215610ea7565b5b6112228b828c01611116565b965050606089013567ffffffffffffffff81111561124357611242610ea7565b5b61124f8b828c01611144565b955095505060806112628b828c01610f2f565b93505060a06112738b828c0161102e565b92505060c06112848b828c016110a6565b9150509295985092959890939650565b600080604083850312156112ab576112aa610ea2565b5b60006112b985828601610ec3565b925050602083013567ffffffffffffffff8111156112da576112d9610ea7565b5b6112e685828601611116565b9150509250929050565b60008060008060008060a0878903121561130d5761130c610ea2565b5b600087013567ffffffffffffffff81111561132b5761132a610ea7565b5b61133789828a01610f76565b965050602087013567ffffffffffffffff81111561135857611357610ea7565b5b61136489828a01611116565b955050604087013567ffffffffffffffff81111561138557611384610ea7565b5b61139189828a01611144565b945094505060606113a489828a01610f2f565b92505060806113b589828a0161102e565b9150509295509295509295565b60006020820190506113d76000830184610e6a565b92915050565b600080604083850312156113f4576113f3610ea2565b5b600061140285828601610ec3565b925050602061141385828601610f2f565b9150509250929050565b7f4e487b7100000000000000000000000000000000000000000000000000000000600052603260045260246000fd5b7f4e487b7100000000000000000000000000000000000000000000000000000000600052601160045260246000fd5b600061148682610e60565b915061149183610e60565b92508282039050818111156114a9576114a861144c565b5b92915050565b7f4e487b7100000000000000000000000000000000000000000000000000000000600052603160045260246000fd5b60006040820190506114f36000830185610e6a565b6115006020830184610e6a565b9392505050565b7f4e487b7100000000000000000000000000000000000000000000000000000000600052600060045260246000fd5b600080fd5b600080fd5b600080fd5b6000808335600160200384360303811261156257611561611536565b5b80840192508235915067ffffffffffffffff8211156115845761158361153b565b5b6020830192506001820236038313156115a05761159f611540565b5b509250929050565b600082905092915050565b7f4e487b7100000000000000000000000000000000000000000000000000000000600052604160045260246000fd5b7f4e487b7100000000000000000000000000000000000000000000000000000000600052602260045260246000fd5b6000600282049050600182168061162957607f821691505b60208210810361163c5761163b6115e2565b5b50919050565b60008190508160005260206000209050919050565b60006020601f8301049050919050565b600082821b905092915050565b6000600883026116a47fffffffffffffffffffffffffffffffffffffffffffffffffffffffffffffffff82611667565b6116ae8683611667565b95508019841693508086168417925050509392505050565b6000819050919050565b60006116eb6116e66116e184610e60565b6116c6565b610e60565b9050919050565b6000819050919050565b611705836116d0565b611719611711826116f2565b848454611674565b825550505050565b600090565b61172e611721565b6117398184846116fc565b505050565b5b8181101561175d57611752600082611726565b60018101905061173f565b5050565b601f8211156117a25761177381611642565b61177c84611657565b8101602085101561178b578190505b61179f61179785611657565b83018261173e565b50505b505050565b600082821c905092915050565b60006117c5600019846008026117a7565b1980831691505092915050565b60006117de83836117b4565b9150826002028217905092915050565b6117f883836115a8565b67ffffffffffffffff811115611811576118106115b3565b5b61181b8254611611565b611826828285611761565b6000601f8311600181146118555760008415611843578287013590505b61184d85826117d2565b8655506118b5565b601f19841661186386611642565b60005b8281101561188b57848901358255600182019150602085019450602081019050611866565b868310156118a857848901356118a4601f8916826117b4565b8355505b6001600288020188555050505b50505050505050565b6118c98383836117ee565b505050565b600080833560016020038436030381126118eb576118ea611536565b5b80840192508235915067ffffffffffffffff82111561190d5761190c61153b565b5b60208301925060208202360383131561192957611928611540565b5b509250929050565b6000819050919050565b600081549050919050565b600061195182610e60565b915061195c83610e60565b925082820261196a81610e60565b915082820484148315176119815761198061144c565b5b5092915050565b60008190506001806001038301049050919050565b60008190508160005260206000209050919050565b6119e27fffffffffffffffffffffffffffffffffffffffffffffffffffffffffffffffff836020036008026117a7565b815481168255505050565b6119f681611642565b611a018382546117d2565b8083556000825550505050565b6020841060008114611a6957601f841160018114611a3757611a3086856117d2565b8355611a63565b611a4083611642565b611a57611a4c87611657565b82016001830161173e565b611a6187856119ed565b505b50611ab6565b611a7282611642565b611a7b86611657565b8101601f87168015611a9557611a9481600184036119b2565b5b611aa9611aa188611657565b84018361173e565b6001886002021785555050505b5050505050565b68010000000000000000841115611ad757611ad66115b3565b5b6020831060008114611b22576020851060008114611b0057611af986856117d2565b8355611b1c565b8360ff1916935083611b1184611642565b556001866002020183555b50611b2c565b6001856002020182555b5050505050565b8054611b3e81611611565b80841115611b5357611b5284828486611abd565b5b80841015611b6857611b6784828486611a0e565b5b50505050565b81811015611b8c57611b81600082611726565b600181019050611b6e565b5050565b611b9b600082611b33565b50565b60008214611baf57611bae611507565b5b611bb881611b90565b5050565b5b81811015611bdb57611bd0600082611b9e565b600181019050611bbd565b5050565b81831015611c1857611bf082611988565b611bf984611988565b611c028361199d565b818101838201611c128183611bbc565b50505050505b505050565b68010000000000000000821115611c3757611c366115b3565b5b611c408161193b565b828255611c4e838284611bdf565b505050565b600082905092915050565b611c688383611c53565b611c728183611c1d565b611c7b83611931565b611c848361199d565b60005b83811015611cbd57611c998387611545565b611ca48183866118be565b6020850194506001840193505050600181019050611c87565b50505050505050565b611cd1838383611c5e565b505050565b60008135611ce38161108f565b80915050919050565b60008160001b9050919050565b600060ff611d0684611cec565b9350801983169250808416831791505092915050565b6000611d2782611083565b9050919050565b6000819050919050565b611d4182611d1c565b611d54611d4d82611d2e565b8354611cf9565b8255505050565b6000810160008301611d6d8185611545565b611d788183866118be565b505050506001810160208301611d8e8185611545565b611d998183866118be565b505050506002810160408301611daf81856118ce565b611dba818386611cc6565b50505050600381016060830180611dd081611cd6565b9050611ddc8184611d38565b5050505050565b611ded8282611d5b565b5050565b600080fd5b600080fd5b600080fd5b60008083356001602003843603038112611e1d57611e1c611dfb565b5b83810192508235915060208301925067ffffffffffffffff821115611e4557611e44611df1565b5b600182023603831315611e5b57611e5a611df6565b5b509250929050565b600082825260208201905092915050565b82818337600083830152505050565b6000601f19601f8301169050919050565b6000611ea08385611e63565b9350611ead838584611e74565b611eb683611e83565b840190509392505050565b60008083356001602003843603038112611ede57611edd611dfb565b5b83810192508235915060208301925067ffffffffffffffff821115611f0657611f05611df1565b5b602082023603831315611f1c57611f1b611df6565b5b509250929050565b600082825260208201905092915050565b6000611f42848484611e94565b90509392505050565b6000602082019050919050565b6000611f648385611f24565b935083602084028501611f7684611931565b8060005b87811015611fbc578484038952611f918284611e00565b611f9c868284611f35565b9550611fa784611f4b565b935060208b019a505050600181019050611f7a565b50829750879450505050509392505050565b6000611fdd60208401846110a6565b905092915050565b611fee81611083565b82525050565b6000608083016120076000840184611e00565b858303600087015261201a838284611e94565b9250505061202b6020840184611e00565b858303602087015261203e838284611e94565b9250505061204f6040840184611ec1565b8583036040870152612062838284611f58565b925050506120736060840184611fce565b6120806060860182611fe5565b508091505092915050565b60006040820190506120a06000830185610e6a565b81810360208301526120b28184611ff4565b90509392505050565b7f4e487b7100000000000000000000000000000000000000000000000000000000600052602160045260246000fd5b600281106120fb576120fa6120bb565b5b50565b600081905061210c826120ea565b919050565b600061211c826120fe565b9050919050565b61212c81612111565b82525050565b60006040820190506121476000830185610e6a565b6121546020830184612123565b9392505050565b61216481611083565b82525050565b600060408201905061217f6000830185610e6a565b61218c602083018461215b565b9392505050565b600681106121a057600080fd5b50565b600681106121b4576121b36120bb565b5b50565b60008190506121c5826121a3565b919050565b600081356121d781612193565b80915050919050565b60006121eb826121b7565b9050919050565b6000819050919050565b612205826121e0565b612218612211826121f2565b8354611cf9565b8255505050565b6000808335600160200384360303811261223c5761223b611536565b5b80840192508235915067ffffffffffffffff82111561225e5761225d61153b565b5b60208301925060208202360383131561227a57612279611540565b5b509250929050565b6000819050919050565b6000823560016040038336030381126122a8576122a7611536565b5b80830191505092915050565b600081549050919050565b60008190506122cf826002611946565b9050919050565b60008190508160005260206000209050919050565b6122f86000808301611b9e565b6000600182015550565b6000821461231357612312611507565b5b61231c816122eb565b5050565b5b8181101561233f57612334600082612302565b600281019050612321565b5050565b8183101561237c57612354826122bf565b61235d846122bf565b612366836122d6565b8181018382016123768183612320565b50505050505b505050565b6801000000000000000082111561239b5761239a6115b3565b5b6123a4816122b4565b8282556123b2838284612343565b505050565b600082905092915050565b600081356123cf81610f18565b80915050919050565b600073ffffffffffffffffffffffffffffffffffffffff6123f884611cec565b9350801983169250808416831791505092915050565b600061242961242461241f84610e1f565b6116c6565b610e1f565b9050919050565b600061243b8261240e565b9050919050565b600061244d82612430565b9050919050565b6000819050919050565b61246782612442565b61247a61247382612454565b83546123d8565b8255505050565b60008101600083016124938185611545565b61249e8183866118be565b505050506001810160208301806124b4816123c2565b90506124c0818461245e565b5050505050565b6124d18282612481565b5050565b6124df83836123b7565b6124e98183612381565b6124f283612282565b6124fb836122d6565b60005b8381101561253257612510838761228c565b61251a81846124c7565b602084019350600283019250506001810190506124fe565b50505050505050565b6125468383836124d5565b505050565b60008101600083018061255d816121ca565b905061256981846121fc565b505050600181016020830161257e818561221f565b61258981838661253b565b505050505050565b61259b828261254b565b5050565b6000813590506125ae81612193565b92915050565b60006125c3602084018461259f565b905092915050565b60006125d6826121b7565b9050919050565b6125e6816125cb565b82525050565b6000808335600160200384360303811261260957612608611dfb565b5b83810192508235915060208301925067ffffffffffffffff82111561263157612630611df1565b5b60208202360383131561264757612646611df6565b5b509250929050565b600082825260208201905092915050565b600061266f6020840184610f2f565b905092915050565b61268081610e3f565b82525050565b6000604083016126996000840184611e00565b85830360008701526126ac838284611e94565b925050506126bd6020840184612660565b6126ca6020860182612677565b508091505092915050565b60006126e18383612686565b905092915050565b60008235600160400383360303811261270557612704611dfb565b5b82810191505092915050565b6000602082019050919050565b600061272a838561264f565b93508360208402850161273c84612282565b8060005b8781101561278057848403895261275782846126e9565b61276185826126d5565b945061276c83612711565b925060208a01995050600181019050612740565b50829750879450505050509392505050565b6000604083016127a560008401846125b4565b6127b260008601826125dd565b506127c060208401846125ec565b85830360208701526127d383828461271e565b925050508091505092915050565b60006040820190506127f66000830185610e6a565b81810360208301526128088184612792565b90509392505050565b600061281c82610e60565b91507fffffffffffffffffffffffffffffffffffffffffffffffffffffffffffffffff820361284e5761284d61144c565b5b600182019050919050565b600060408201905061286e6000830185610e6a565b61287b6020830184610e51565b939250505056fea264697066735822122001df81deecb454cc16cafe47c1d0b92eb26374400605bc29410b4adad081ff8164736f6c63430008180033",
  "linkReferences": {},
  "deployedLinkReferences": {}
}